{
	"contracts/upgradeInitializers/DiamondInit.sol": {
		"DiamondInit": {
			"abi": [
				{
					"inputs": [
						{
							"internalType": "string",
							"name": "_name",
							"type": "string"
						},
						{
							"internalType": "string",
							"name": "_symbol",
							"type": "string"
						}
					],
					"name": "init",
					"outputs": [],
					"stateMutability": "nonpayable",
					"type": "function"
				}
			],
			"devdoc": {
				"kind": "dev",
				"methods": {},
				"version": 1
			},
			"evm": {
				"assembly": "    /* \"contracts/upgradeInitializers/DiamondInit.sol\":1139:2485  contract DiamondInit {    ... */\n  mstore(0x40, 0x80)\n  callvalue\n  dup1\n  iszero\n  tag_1\n  jumpi\n  0x00\n  dup1\n  revert\ntag_1:\n  pop\n  dataSize(sub_0)\n  dup1\n  dataOffset(sub_0)\n  0x00\n  codecopy\n  0x00\n  return\nstop\n\nsub_0: assembly {\n        /* \"contracts/upgradeInitializers/DiamondInit.sol\":1139:2485  contract DiamondInit {    ... */\n      mstore(0x40, 0x80)\n      callvalue\n      dup1\n      iszero\n      tag_1\n      jumpi\n      0x00\n      dup1\n      revert\n    tag_1:\n      pop\n      jumpi(tag_2, lt(calldatasize, 0x04))\n      shr(0xe0, calldataload(0x00))\n      dup1\n      0x7029144c\n      eq\n      tag_3\n      jumpi\n    tag_2:\n      0x00\n      dup1\n      revert\n        /* \"contracts/upgradeInitializers/DiamondInit.sol\":1287:2478  function init(string memory _name, string memory _symbol) external {... */\n    tag_3:\n      tag_4\n      tag_5\n      calldatasize\n      0x04\n      tag_6\n      jump\t// in\n    tag_5:\n      tag_7\n      jump\t// in\n    tag_4:\n      stop\n    tag_7:\n        /* \"contracts/upgradeInitializers/DiamondInit.sol\":1473:1495  ds.supportedInterfaces */\n      0xc8fcad8db84d3cc18b4c41d551ea0ee66dd599cde068d998e57d5e09332c131f\n        /* \"contracts/upgradeInitializers/DiamondInit.sol\":1473:1522  ds.supportedInterfaces[type(IERC165).interfaceId] */\n      0x20\n      mstore\n      0x699d9daa71b280d05a152715774afa0a81a312594b2d731d6b0b2552b7d6f69f\n        /* \"contracts/upgradeInitializers/DiamondInit.sol\":1473:1529  ds.supportedInterfaces[type(IERC165).interfaceId] = true */\n      dup1\n      sload\n        /* \"contracts/upgradeInitializers/DiamondInit.sol\":1525:1529  true */\n      0x01\n      not(0xff)\n        /* \"contracts/upgradeInitializers/DiamondInit.sol\":1473:1529  ds.supportedInterfaces[type(IERC165).interfaceId] = true */\n      swap2\n      dup3\n      and\n      dup2\n      or\n      swap1\n      swap3\n      sstore\n        /* \"contracts/upgradeInitializers/DiamondInit.sol\":1540:1593  ds.supportedInterfaces[type(IDiamondCut).interfaceId] */\n      0xf97e938d8af42f52387bb74b8b526fda8f184cc2aa534340a8d75a88fbecc775\n        /* \"contracts/upgradeInitializers/DiamondInit.sol\":1540:1600  ds.supportedInterfaces[type(IDiamondCut).interfaceId] = true */\n      dup1\n      sload\n      dup3\n      and\n      dup4\n      or\n      swap1\n      sstore\n        /* \"contracts/upgradeInitializers/DiamondInit.sol\":1611:1666  ds.supportedInterfaces[type(IDiamondLoupe).interfaceId] */\n      0x65d510a5d8f7ef134ec444f7f34ee808c8eeb5177cdfd16be0c40fe1ab433695\n        /* \"contracts/upgradeInitializers/DiamondInit.sol\":1611:1673  ds.supportedInterfaces[type(IDiamondLoupe).interfaceId] = true */\n      dup1\n      sload\n      dup3\n      and\n      dup4\n      or\n      swap1\n      sstore\n        /* \"contracts/upgradeInitializers/DiamondInit.sol\":1684:1733  ds.supportedInterfaces[type(IERC173).interfaceId] */\n      0x5622121b47b8cd0120c4efe45dd5483242f54a3d49bd7679be565d47694918c3\n        /* \"contracts/upgradeInitializers/DiamondInit.sol\":1684:1740  ds.supportedInterfaces[type(IERC173).interfaceId] = true */\n      dup1\n      sload\n      dup3\n      and\n      dup4\n      or\n      swap1\n      sstore\n        /* \"contracts/upgradeInitializers/DiamondInit.sol\":1751:1800  ds.supportedInterfaces[type(IERC721).interfaceId] */\n      0xb0f299ecb5b93181be17d5e233721498930c5361f367b1d41c5b827d4fe4d380\n        /* \"contracts/upgradeInitializers/DiamondInit.sol\":1751:1807  ds.supportedInterfaces[type(IERC721).interfaceId] = true */\n      dup1\n      sload\n      dup3\n      and\n      dup4\n      or\n      swap1\n      sstore\n      shl(0xe0, 0x5b5e139f)\n      0x00\n        /* \"contracts/upgradeInitializers/DiamondInit.sol\":1818:1875  ds.supportedInterfaces[type(IERC721Metadata).interfaceId] */\n      mstore\n      0x806e5513950c43892aa01780f899fe3e3229f9425b66a2610b01231f5799f44e\n        /* \"contracts/upgradeInitializers/DiamondInit.sol\":1818:1882  ds.supportedInterfaces[type(IERC721Metadata).interfaceId] = true */\n      dup1\n      sload\n      swap1\n      swap2\n      and\n      swap1\n      swap2\n      or\n      swap1\n      sstore\n        /* \"contracts/libraries/LibDiamond.sol\":751:796  keccak256(\"diamond.standard.diamond.storage\") */\n      0xc8fcad8db84d3cc18b4c41d551ea0ee66dd599cde068d998e57d5e09332c131c\n        /* \"contracts/libraries/LibERC721.sol\":296:331  keccak256(\"diamond.storage.erc721\") */\n      0xf2dec0acaef95de6625646379d631adff4db9f6c79b84a31adcb9a23bf6cea78\n      dup1\n        /* \"contracts/upgradeInitializers/DiamondInit.sol\":1958:1977  layout.name = _name */\n      tag_13\n        /* \"contracts/upgradeInitializers/DiamondInit.sol\":1972:1977  _name */\n      dup6\n        /* \"contracts/libraries/LibERC721.sol\":296:331  keccak256(\"diamond.storage.erc721\") */\n      dup3\n        /* \"contracts/upgradeInitializers/DiamondInit.sol\":1958:1977  layout.name = _name */\n      tag_14\n      jump\t// in\n    tag_13:\n      pop\n        /* \"contracts/upgradeInitializers/DiamondInit.sol\":1988:2001  layout.symbol */\n      0x01\n      dup2\n      add\n        /* \"contracts/upgradeInitializers/DiamondInit.sol\":1988:2011  layout.symbol = _symbol */\n      tag_15\n        /* \"contracts/upgradeInitializers/DiamondInit.sol\":2004:2011  _symbol */\n      dup5\n        /* \"contracts/upgradeInitializers/DiamondInit.sol\":1988:2001  layout.symbol */\n      dup3\n        /* \"contracts/upgradeInitializers/DiamondInit.sol\":1988:2011  layout.symbol = _symbol */\n      tag_14\n      jump\t// in\n    tag_15:\n      pop\n        /* \"contracts/upgradeInitializers/DiamondInit.sol\":1354:2478  {... */\n      pop\n      pop\n        /* \"contracts/upgradeInitializers/DiamondInit.sol\":1287:2478  function init(string memory _name, string memory _symbol) external {... */\n      pop\n      pop\n      jump\t// out\n        /* \"#utility.yul\":14:141   */\n    tag_18:\n        /* \"#utility.yul\":75:85   */\n      0x4e487b71\n        /* \"#utility.yul\":70:73   */\n      0xe0\n        /* \"#utility.yul\":66:86   */\n      shl\n        /* \"#utility.yul\":63:64   */\n      0x00\n        /* \"#utility.yul\":56:87   */\n      mstore\n        /* \"#utility.yul\":106:110   */\n      0x41\n        /* \"#utility.yul\":103:104   */\n      0x04\n        /* \"#utility.yul\":96:111   */\n      mstore\n        /* \"#utility.yul\":130:134   */\n      0x24\n        /* \"#utility.yul\":127:128   */\n      0x00\n        /* \"#utility.yul\":120:135   */\n      revert\n        /* \"#utility.yul\":146:865   */\n    tag_19:\n        /* \"#utility.yul\":189:194   */\n      0x00\n        /* \"#utility.yul\":242:245   */\n      dup3\n        /* \"#utility.yul\":235:239   */\n      0x1f\n        /* \"#utility.yul\":227:233   */\n      dup4\n        /* \"#utility.yul\":223:240   */\n      add\n        /* \"#utility.yul\":219:246   */\n      slt\n        /* \"#utility.yul\":209:264   */\n      tag_27\n      jumpi\n        /* \"#utility.yul\":260:261   */\n      0x00\n        /* \"#utility.yul\":257:258   */\n      dup1\n        /* \"#utility.yul\":250:262   */\n      revert\n        /* \"#utility.yul\":209:264   */\n    tag_27:\n        /* \"#utility.yul\":296:302   */\n      dup2\n        /* \"#utility.yul\":283:303   */\n      calldataload\n        /* \"#utility.yul\":322:340   */\n      0xffffffffffffffff\n        /* \"#utility.yul\":359:361   */\n      dup1\n        /* \"#utility.yul\":355:357   */\n      dup3\n        /* \"#utility.yul\":352:362   */\n      gt\n        /* \"#utility.yul\":349:385   */\n      iszero\n      tag_29\n      jumpi\n        /* \"#utility.yul\":365:383   */\n      tag_29\n      tag_18\n      jump\t// in\n    tag_29:\n        /* \"#utility.yul\":440:442   */\n      0x40\n        /* \"#utility.yul\":434:443   */\n      mload\n        /* \"#utility.yul\":408:410   */\n      0x1f\n        /* \"#utility.yul\":494:507   */\n      dup4\n      add\n      not(0x1f)\n        /* \"#utility.yul\":490:512   */\n      swap1\n      dup2\n      and\n        /* \"#utility.yul\":514:516   */\n      0x3f\n        /* \"#utility.yul\":486:517   */\n      add\n        /* \"#utility.yul\":482:522   */\n      and\n        /* \"#utility.yul\":470:523   */\n      dup2\n      add\n      swap1\n        /* \"#utility.yul\":538:556   */\n      dup3\n      dup3\n      gt\n        /* \"#utility.yul\":558:580   */\n      dup2\n      dup4\n      lt\n        /* \"#utility.yul\":535:581   */\n      or\n        /* \"#utility.yul\":532:604   */\n      iszero\n      tag_31\n      jumpi\n        /* \"#utility.yul\":584:602   */\n      tag_31\n      tag_18\n      jump\t// in\n    tag_31:\n        /* \"#utility.yul\":624:634   */\n      dup2\n        /* \"#utility.yul\":620:622   */\n      0x40\n        /* \"#utility.yul\":613:635   */\n      mstore\n        /* \"#utility.yul\":659:661   */\n      dup4\n        /* \"#utility.yul\":651:657   */\n      dup2\n        /* \"#utility.yul\":644:662   */\n      mstore\n        /* \"#utility.yul\":705:708   */\n      dup7\n        /* \"#utility.yul\":698:702   */\n      0x20\n        /* \"#utility.yul\":693:695   */\n      dup6\n        /* \"#utility.yul\":685:691   */\n      dup9\n        /* \"#utility.yul\":681:696   */\n      add\n        /* \"#utility.yul\":677:703   */\n      add\n        /* \"#utility.yul\":674:709   */\n      gt\n        /* \"#utility.yul\":671:726   */\n      iszero\n      tag_32\n      jumpi\n        /* \"#utility.yul\":722:723   */\n      0x00\n        /* \"#utility.yul\":719:720   */\n      dup1\n        /* \"#utility.yul\":712:724   */\n      revert\n        /* \"#utility.yul\":671:726   */\n    tag_32:\n        /* \"#utility.yul\":786:788   */\n      dup4\n        /* \"#utility.yul\":779:783   */\n      0x20\n        /* \"#utility.yul\":771:777   */\n      dup8\n        /* \"#utility.yul\":767:784   */\n      add\n        /* \"#utility.yul\":760:764   */\n      0x20\n        /* \"#utility.yul\":752:758   */\n      dup4\n        /* \"#utility.yul\":748:765   */\n      add\n        /* \"#utility.yul\":735:789   */\n      calldatacopy\n        /* \"#utility.yul\":833:834   */\n      0x00\n        /* \"#utility.yul\":826:830   */\n      0x20\n        /* \"#utility.yul\":821:823   */\n      dup6\n        /* \"#utility.yul\":813:819   */\n      dup4\n        /* \"#utility.yul\":809:824   */\n      add\n        /* \"#utility.yul\":805:831   */\n      add\n        /* \"#utility.yul\":798:835   */\n      mstore\n        /* \"#utility.yul\":853:859   */\n      dup1\n        /* \"#utility.yul\":844:859   */\n      swap5\n      pop\n      pop\n      pop\n      pop\n      pop\n        /* \"#utility.yul\":146:865   */\n      swap3\n      swap2\n      pop\n      pop\n      jump\t// out\n        /* \"#utility.yul\":870:1413   */\n    tag_6:\n        /* \"#utility.yul\":958:964   */\n      0x00\n        /* \"#utility.yul\":966:972   */\n      dup1\n        /* \"#utility.yul\":1019:1021   */\n      0x40\n        /* \"#utility.yul\":1007:1016   */\n      dup4\n        /* \"#utility.yul\":998:1005   */\n      dup6\n        /* \"#utility.yul\":994:1017   */\n      sub\n        /* \"#utility.yul\":990:1022   */\n      slt\n        /* \"#utility.yul\":987:1039   */\n      iszero\n      tag_34\n      jumpi\n        /* \"#utility.yul\":1035:1036   */\n      0x00\n        /* \"#utility.yul\":1032:1033   */\n      dup1\n        /* \"#utility.yul\":1025:1037   */\n      revert\n        /* \"#utility.yul\":987:1039   */\n    tag_34:\n        /* \"#utility.yul\":1075:1084   */\n      dup3\n        /* \"#utility.yul\":1062:1085   */\n      calldataload\n        /* \"#utility.yul\":1104:1122   */\n      0xffffffffffffffff\n        /* \"#utility.yul\":1145:1147   */\n      dup1\n        /* \"#utility.yul\":1137:1143   */\n      dup3\n        /* \"#utility.yul\":1134:1148   */\n      gt\n        /* \"#utility.yul\":1131:1165   */\n      iszero\n      tag_35\n      jumpi\n        /* \"#utility.yul\":1161:1162   */\n      0x00\n        /* \"#utility.yul\":1158:1159   */\n      dup1\n        /* \"#utility.yul\":1151:1163   */\n      revert\n        /* \"#utility.yul\":1131:1165   */\n    tag_35:\n        /* \"#utility.yul\":1184:1234   */\n      tag_36\n        /* \"#utility.yul\":1226:1233   */\n      dup7\n        /* \"#utility.yul\":1217:1223   */\n      dup4\n        /* \"#utility.yul\":1206:1215   */\n      dup8\n        /* \"#utility.yul\":1202:1224   */\n      add\n        /* \"#utility.yul\":1184:1234   */\n      tag_19\n      jump\t// in\n    tag_36:\n        /* \"#utility.yul\":1174:1234   */\n      swap4\n      pop\n        /* \"#utility.yul\":1287:1289   */\n      0x20\n        /* \"#utility.yul\":1276:1285   */\n      dup6\n        /* \"#utility.yul\":1272:1290   */\n      add\n        /* \"#utility.yul\":1259:1291   */\n      calldataload\n        /* \"#utility.yul\":1243:1291   */\n      swap2\n      pop\n        /* \"#utility.yul\":1316:1318   */\n      dup1\n        /* \"#utility.yul\":1306:1314   */\n      dup3\n        /* \"#utility.yul\":1303:1319   */\n      gt\n        /* \"#utility.yul\":1300:1336   */\n      iszero\n      tag_37\n      jumpi\n        /* \"#utility.yul\":1332:1333   */\n      0x00\n        /* \"#utility.yul\":1329:1330   */\n      dup1\n        /* \"#utility.yul\":1322:1334   */\n      revert\n        /* \"#utility.yul\":1300:1336   */\n    tag_37:\n      pop\n        /* \"#utility.yul\":1355:1407   */\n      tag_38\n        /* \"#utility.yul\":1399:1406   */\n      dup6\n        /* \"#utility.yul\":1388:1396   */\n      dup3\n        /* \"#utility.yul\":1377:1386   */\n      dup7\n        /* \"#utility.yul\":1373:1397   */\n      add\n        /* \"#utility.yul\":1355:1407   */\n      tag_19\n      jump\t// in\n    tag_38:\n        /* \"#utility.yul\":1345:1407   */\n      swap2\n      pop\n      pop\n        /* \"#utility.yul\":870:1413   */\n      swap3\n      pop\n      swap3\n      swap1\n      pop\n      jump\t// out\n        /* \"#utility.yul\":1418:1798   */\n    tag_20:\n        /* \"#utility.yul\":1497:1498   */\n      0x01\n        /* \"#utility.yul\":1493:1505   */\n      dup2\n      dup2\n      shr\n      swap1\n        /* \"#utility.yul\":1540:1552   */\n      dup3\n      and\n      dup1\n        /* \"#utility.yul\":1561:1622   */\n      tag_40\n      jumpi\n        /* \"#utility.yul\":1615:1619   */\n      0x7f\n        /* \"#utility.yul\":1607:1613   */\n      dup3\n        /* \"#utility.yul\":1603:1620   */\n      and\n        /* \"#utility.yul\":1593:1620   */\n      swap2\n      pop\n        /* \"#utility.yul\":1561:1622   */\n    tag_40:\n        /* \"#utility.yul\":1668:1670   */\n      0x20\n        /* \"#utility.yul\":1660:1666   */\n      dup3\n        /* \"#utility.yul\":1657:1671   */\n      lt\n        /* \"#utility.yul\":1637:1655   */\n      dup2\n        /* \"#utility.yul\":1634:1672   */\n      sub\n        /* \"#utility.yul\":1631:1792   */\n      tag_41\n      jumpi\n        /* \"#utility.yul\":1714:1724   */\n      0x4e487b71\n        /* \"#utility.yul\":1709:1712   */\n      0xe0\n        /* \"#utility.yul\":1705:1725   */\n      shl\n        /* \"#utility.yul\":1702:1703   */\n      0x00\n        /* \"#utility.yul\":1695:1726   */\n      mstore\n        /* \"#utility.yul\":1749:1753   */\n      0x22\n        /* \"#utility.yul\":1746:1747   */\n      0x04\n        /* \"#utility.yul\":1739:1754   */\n      mstore\n        /* \"#utility.yul\":1777:1781   */\n      0x24\n        /* \"#utility.yul\":1774:1775   */\n      0x00\n        /* \"#utility.yul\":1767:1782   */\n      revert\n        /* \"#utility.yul\":1631:1792   */\n    tag_41:\n      pop\n        /* \"#utility.yul\":1418:1798   */\n      swap2\n      swap1\n      pop\n      jump\t// out\n        /* \"#utility.yul\":1929:2474   */\n    tag_22:\n        /* \"#utility.yul\":2031:2033   */\n      0x1f\n        /* \"#utility.yul\":2026:2029   */\n      dup3\n        /* \"#utility.yul\":2023:2034   */\n      gt\n        /* \"#utility.yul\":2020:2468   */\n      iszero\n      tag_44\n      jumpi\n        /* \"#utility.yul\":2067:2068   */\n      0x00\n        /* \"#utility.yul\":2092:2097   */\n      dup2\n        /* \"#utility.yul\":2088:2090   */\n      dup2\n        /* \"#utility.yul\":2081:2098   */\n      mstore\n        /* \"#utility.yul\":2137:2141   */\n      0x20\n        /* \"#utility.yul\":2133:2135   */\n      dup2\n        /* \"#utility.yul\":2123:2142   */\n      keccak256\n        /* \"#utility.yul\":2207:2209   */\n      0x1f\n        /* \"#utility.yul\":2195:2205   */\n      dup6\n        /* \"#utility.yul\":2191:2210   */\n      add\n        /* \"#utility.yul\":2188:2189   */\n      0x05\n        /* \"#utility.yul\":2184:2211   */\n      shr\n        /* \"#utility.yul\":2178:2182   */\n      dup2\n        /* \"#utility.yul\":2174:2212   */\n      add\n        /* \"#utility.yul\":2243:2247   */\n      0x20\n        /* \"#utility.yul\":2231:2241   */\n      dup7\n        /* \"#utility.yul\":2228:2248   */\n      lt\n        /* \"#utility.yul\":2225:2272   */\n      iszero\n      tag_45\n      jumpi\n      pop\n        /* \"#utility.yul\":2266:2270   */\n      dup1\n        /* \"#utility.yul\":2225:2272   */\n    tag_45:\n        /* \"#utility.yul\":2321:2323   */\n      0x1f\n        /* \"#utility.yul\":2316:2319   */\n      dup6\n        /* \"#utility.yul\":2312:2324   */\n      add\n        /* \"#utility.yul\":2309:2310   */\n      0x05\n        /* \"#utility.yul\":2305:2325   */\n      shr\n        /* \"#utility.yul\":2299:2303   */\n      dup3\n        /* \"#utility.yul\":2295:2326   */\n      add\n        /* \"#utility.yul\":2285:2326   */\n      swap2\n      pop\n        /* \"#utility.yul\":2376:2458   */\n    tag_46:\n        /* \"#utility.yul\":2394:2396   */\n      dup2\n        /* \"#utility.yul\":2387:2392   */\n      dup2\n        /* \"#utility.yul\":2384:2397   */\n      lt\n        /* \"#utility.yul\":2376:2458   */\n      iszero\n      tag_48\n      jumpi\n        /* \"#utility.yul\":2439:2456   */\n      dup3\n      dup2\n      sstore\n        /* \"#utility.yul\":2420:2421   */\n      0x01\n        /* \"#utility.yul\":2409:2422   */\n      add\n        /* \"#utility.yul\":2376:2458   */\n      jump(tag_46)\n    tag_48:\n        /* \"#utility.yul\":2380:2383   */\n      pop\n      pop\n      pop\n        /* \"#utility.yul\":2020:2468   */\n    tag_44:\n        /* \"#utility.yul\":1929:2474   */\n      pop\n      pop\n      pop\n      jump\t// out\n        /* \"#utility.yul\":2650:4002   */\n    tag_14:\n        /* \"#utility.yul\":2776:2779   */\n      dup2\n        /* \"#utility.yul\":2770:2780   */\n      mload\n        /* \"#utility.yul\":2803:2821   */\n      0xffffffffffffffff\n        /* \"#utility.yul\":2795:2801   */\n      dup2\n        /* \"#utility.yul\":2792:2822   */\n      gt\n        /* \"#utility.yul\":2789:2845   */\n      iszero\n      tag_52\n      jumpi\n        /* \"#utility.yul\":2825:2843   */\n      tag_52\n      tag_18\n      jump\t// in\n    tag_52:\n        /* \"#utility.yul\":2854:2951   */\n      tag_53\n        /* \"#utility.yul\":2944:2950   */\n      dup2\n        /* \"#utility.yul\":2904:2942   */\n      tag_54\n        /* \"#utility.yul\":2936:2940   */\n      dup5\n        /* \"#utility.yul\":2930:2941   */\n      sload\n        /* \"#utility.yul\":2904:2942   */\n      tag_20\n      jump\t// in\n    tag_54:\n        /* \"#utility.yul\":2898:2902   */\n      dup5\n        /* \"#utility.yul\":2854:2951   */\n      tag_22\n      jump\t// in\n    tag_53:\n        /* \"#utility.yul\":3006:3010   */\n      0x20\n      dup1\n        /* \"#utility.yul\":3070:3072   */\n      0x1f\n        /* \"#utility.yul\":3059:3073   */\n      dup4\n      gt\n        /* \"#utility.yul\":3087:3088   */\n      0x01\n        /* \"#utility.yul\":3082:3745   */\n      dup2\n      eq\n      tag_56\n      jumpi\n        /* \"#utility.yul\":3789:3790   */\n      0x00\n        /* \"#utility.yul\":3806:3812   */\n      dup5\n        /* \"#utility.yul\":3803:3892   */\n      iszero\n      tag_57\n      jumpi\n      pop\n        /* \"#utility.yul\":3858:3877   */\n      dup6\n      dup4\n      add\n        /* \"#utility.yul\":3852:3878   */\n      mload\n        /* \"#utility.yul\":3803:3892   */\n    tag_57:\n      not(0x00)\n        /* \"#utility.yul\":2607:2608   */\n      0x03\n        /* \"#utility.yul\":2603:2614   */\n      dup7\n      swap1\n      shl\n        /* \"#utility.yul\":2599:2623   */\n      shr\n        /* \"#utility.yul\":2595:2624   */\n      not\n        /* \"#utility.yul\":2585:2625   */\n      and\n        /* \"#utility.yul\":2631:2632   */\n      0x01\n        /* \"#utility.yul\":2627:2638   */\n      dup6\n      swap1\n      shl\n        /* \"#utility.yul\":2582:2639   */\n      or\n        /* \"#utility.yul\":3905:3986   */\n      dup6\n      sstore\n        /* \"#utility.yul\":3052:3996   */\n      jump(tag_48)\n        /* \"#utility.yul\":3082:3745   */\n    tag_56:\n        /* \"#utility.yul\":1876:1877   */\n      0x00\n        /* \"#utility.yul\":1869:1883   */\n      dup6\n      dup2\n      mstore\n        /* \"#utility.yul\":1913:1917   */\n      0x20\n        /* \"#utility.yul\":1900:1918   */\n      dup2\n      keccak256\n      not(0x1f)\n        /* \"#utility.yul\":3118:3138   */\n      dup7\n      and\n      swap2\n        /* \"#utility.yul\":3236:3472   */\n    tag_60:\n        /* \"#utility.yul\":3250:3257   */\n      dup3\n        /* \"#utility.yul\":3247:3248   */\n      dup2\n        /* \"#utility.yul\":3244:3258   */\n      lt\n        /* \"#utility.yul\":3236:3472   */\n      iszero\n      tag_62\n      jumpi\n        /* \"#utility.yul\":3339:3358   */\n      dup9\n      dup7\n      add\n        /* \"#utility.yul\":3333:3359   */\n      mload\n        /* \"#utility.yul\":3318:3360   */\n      dup3\n      sstore\n        /* \"#utility.yul\":3431:3458   */\n      swap5\n      dup5\n      add\n      swap5\n        /* \"#utility.yul\":3399:3400   */\n      0x01\n        /* \"#utility.yul\":3387:3401   */\n      swap1\n      swap2\n      add\n      swap1\n        /* \"#utility.yul\":3266:3285   */\n      dup5\n      add\n        /* \"#utility.yul\":3236:3472   */\n      jump(tag_60)\n    tag_62:\n        /* \"#utility.yul\":3240:3243   */\n      pop\n        /* \"#utility.yul\":3500:3506   */\n      dup6\n        /* \"#utility.yul\":3491:3498   */\n      dup3\n        /* \"#utility.yul\":3488:3507   */\n      lt\n        /* \"#utility.yul\":3485:3686   */\n      iszero\n      tag_63\n      jumpi\n        /* \"#utility.yul\":3561:3580   */\n      dup8\n      dup6\n      add\n        /* \"#utility.yul\":3555:3581   */\n      mload\n      not(0x00)\n        /* \"#utility.yul\":3644:3645   */\n      0x03\n        /* \"#utility.yul\":3640:3654   */\n      dup9\n      swap1\n      shl\n        /* \"#utility.yul\":3656:3659   */\n      0xf8\n        /* \"#utility.yul\":3636:3660   */\n      and\n        /* \"#utility.yul\":3632:3669   */\n      shr\n        /* \"#utility.yul\":3628:3670   */\n      not\n        /* \"#utility.yul\":3613:3671   */\n      and\n        /* \"#utility.yul\":3598:3672   */\n      dup2\n      sstore\n        /* \"#utility.yul\":3485:3686   */\n    tag_63:\n      pop\n      pop\n      pop\n      pop\n      pop\n        /* \"#utility.yul\":3732:3733   */\n      0x01\n        /* \"#utility.yul\":3716:3730   */\n      swap1\n      dup2\n      shl\n        /* \"#utility.yul\":3712:3734   */\n      add\n        /* \"#utility.yul\":3699:3735   */\n      swap1\n      sstore\n      pop\n        /* \"#utility.yul\":2650:4002   */\n      jump\t// out\n\n    auxdata: 0xa2646970667358221220b7714db6d0153c241043045cc47f196d36f5cc0c152ab3070eef81568385fbb164736f6c63430008140033\n}\n",
				"bytecode": {
					"linkReferences": {},
					"object": "608060405234801561000f575f80fd5b506104478061001d5f395ff3fe608060405234801561000f575f80fd5b5060043610610029575f3560e01c80637029144c1461002d575b5f80fd5b61004061003b36600461026f565b610042565b005b7fc8fcad8db84d3cc18b4c41d551ea0ee66dd599cde068d998e57d5e09332c131f6020527f699d9daa71b280d05a152715774afa0a81a312594b2d731d6b0b2552b7d6f69f8054600160ff1991821681179092557ff97e938d8af42f52387bb74b8b526fda8f184cc2aa534340a8d75a88fbecc77580548216831790557f65d510a5d8f7ef134ec444f7f34ee808c8eeb5177cdfd16be0c40fe1ab43369580548216831790557f5622121b47b8cd0120c4efe45dd5483242f54a3d49bd7679be565d47694918c380548216831790557fb0f299ecb5b93181be17d5e233721498930c5361f367b1d41c5b827d4fe4d3808054821683179055635b5e139f60e01b5f527f806e5513950c43892aa01780f899fe3e3229f9425b66a2610b01231f5799f44e805490911690911790557fc8fcad8db84d3cc18b4c41d551ea0ee66dd599cde068d998e57d5e09332c131c7ff2dec0acaef95de6625646379d631adff4db9f6c79b84a31adcb9a23bf6cea78806101bc8582610355565b50600181016101cb8482610355565b5050505050565b634e487b7160e01b5f52604160045260245ffd5b5f82601f8301126101f5575f80fd5b813567ffffffffffffffff80821115610210576102106101d2565b604051601f8301601f19908116603f01168101908282118183101715610238576102386101d2565b81604052838152866020858801011115610250575f80fd5b836020870160208301375f602085830101528094505050505092915050565b5f8060408385031215610280575f80fd5b823567ffffffffffffffff80821115610297575f80fd5b6102a3868387016101e6565b935060208501359150808211156102b8575f80fd5b506102c5858286016101e6565b9150509250929050565b600181811c908216806102e357607f821691505b60208210810361030157634e487b7160e01b5f52602260045260245ffd5b50919050565b601f821115610350575f81815260208120601f850160051c8101602086101561032d5750805b601f850160051c820191505b8181101561034c57828155600101610339565b5050505b505050565b815167ffffffffffffffff81111561036f5761036f6101d2565b6103838161037d84546102cf565b84610307565b602080601f8311600181146103b6575f841561039f5750858301515b5f19600386901b1c1916600185901b17855561034c565b5f85815260208120601f198616915b828110156103e4578886015182559484019460019091019084016103c5565b508582101561040157878501515f19600388901b60f8161c191681555b5050505050600190811b0190555056fea2646970667358221220b7714db6d0153c241043045cc47f196d36f5cc0c152ab3070eef81568385fbb164736f6c63430008140033",
					"opcodes": "PUSH1 0x80 PUSH1 0x40 MSTORE CALLVALUE DUP1 ISZERO PUSH2 0xF JUMPI PUSH0 DUP1 REVERT JUMPDEST POP PUSH2 0x447 DUP1 PUSH2 0x1D PUSH0 CODECOPY PUSH0 RETURN INVALID PUSH1 0x80 PUSH1 0x40 MSTORE CALLVALUE DUP1 ISZERO PUSH2 0xF JUMPI PUSH0 DUP1 REVERT JUMPDEST POP PUSH1 0x4 CALLDATASIZE LT PUSH2 0x29 JUMPI PUSH0 CALLDATALOAD PUSH1 0xE0 SHR DUP1 PUSH4 0x7029144C EQ PUSH2 0x2D JUMPI JUMPDEST PUSH0 DUP1 REVERT JUMPDEST PUSH2 0x40 PUSH2 0x3B CALLDATASIZE PUSH1 0x4 PUSH2 0x26F JUMP JUMPDEST PUSH2 0x42 JUMP JUMPDEST STOP JUMPDEST PUSH32 0xC8FCAD8DB84D3CC18B4C41D551EA0EE66DD599CDE068D998E57D5E09332C131F PUSH1 0x20 MSTORE PUSH32 0x699D9DAA71B280D05A152715774AFA0A81A312594B2D731D6B0B2552B7D6F69F DUP1 SLOAD PUSH1 0x1 PUSH1 0xFF NOT SWAP2 DUP3 AND DUP2 OR SWAP1 SWAP3 SSTORE PUSH32 0xF97E938D8AF42F52387BB74B8B526FDA8F184CC2AA534340A8D75A88FBECC775 DUP1 SLOAD DUP3 AND DUP4 OR SWAP1 SSTORE PUSH32 0x65D510A5D8F7EF134EC444F7F34EE808C8EEB5177CDFD16BE0C40FE1AB433695 DUP1 SLOAD DUP3 AND DUP4 OR SWAP1 SSTORE PUSH32 0x5622121B47B8CD0120C4EFE45DD5483242F54A3D49BD7679BE565D47694918C3 DUP1 SLOAD DUP3 AND DUP4 OR SWAP1 SSTORE PUSH32 0xB0F299ECB5B93181BE17D5E233721498930C5361F367B1D41C5B827D4FE4D380 DUP1 SLOAD DUP3 AND DUP4 OR SWAP1 SSTORE PUSH4 0x5B5E139F PUSH1 0xE0 SHL PUSH0 MSTORE PUSH32 0x806E5513950C43892AA01780F899FE3E3229F9425B66A2610B01231F5799F44E DUP1 SLOAD SWAP1 SWAP2 AND SWAP1 SWAP2 OR SWAP1 SSTORE PUSH32 0xC8FCAD8DB84D3CC18B4C41D551EA0EE66DD599CDE068D998E57D5E09332C131C PUSH32 0xF2DEC0ACAEF95DE6625646379D631ADFF4DB9F6C79B84A31ADCB9A23BF6CEA78 DUP1 PUSH2 0x1BC DUP6 DUP3 PUSH2 0x355 JUMP JUMPDEST POP PUSH1 0x1 DUP2 ADD PUSH2 0x1CB DUP5 DUP3 PUSH2 0x355 JUMP JUMPDEST POP POP POP POP POP JUMP JUMPDEST PUSH4 0x4E487B71 PUSH1 0xE0 SHL PUSH0 MSTORE PUSH1 0x41 PUSH1 0x4 MSTORE PUSH1 0x24 PUSH0 REVERT JUMPDEST PUSH0 DUP3 PUSH1 0x1F DUP4 ADD SLT PUSH2 0x1F5 JUMPI PUSH0 DUP1 REVERT JUMPDEST DUP2 CALLDATALOAD PUSH8 0xFFFFFFFFFFFFFFFF DUP1 DUP3 GT ISZERO PUSH2 0x210 JUMPI PUSH2 0x210 PUSH2 0x1D2 JUMP JUMPDEST PUSH1 0x40 MLOAD PUSH1 0x1F DUP4 ADD PUSH1 0x1F NOT SWAP1 DUP2 AND PUSH1 0x3F ADD AND DUP2 ADD SWAP1 DUP3 DUP3 GT DUP2 DUP4 LT OR ISZERO PUSH2 0x238 JUMPI PUSH2 0x238 PUSH2 0x1D2 JUMP JUMPDEST DUP2 PUSH1 0x40 MSTORE DUP4 DUP2 MSTORE DUP7 PUSH1 0x20 DUP6 DUP9 ADD ADD GT ISZERO PUSH2 0x250 JUMPI PUSH0 DUP1 REVERT JUMPDEST DUP4 PUSH1 0x20 DUP8 ADD PUSH1 0x20 DUP4 ADD CALLDATACOPY PUSH0 PUSH1 0x20 DUP6 DUP4 ADD ADD MSTORE DUP1 SWAP5 POP POP POP POP POP SWAP3 SWAP2 POP POP JUMP JUMPDEST PUSH0 DUP1 PUSH1 0x40 DUP4 DUP6 SUB SLT ISZERO PUSH2 0x280 JUMPI PUSH0 DUP1 REVERT JUMPDEST DUP3 CALLDATALOAD PUSH8 0xFFFFFFFFFFFFFFFF DUP1 DUP3 GT ISZERO PUSH2 0x297 JUMPI PUSH0 DUP1 REVERT JUMPDEST PUSH2 0x2A3 DUP7 DUP4 DUP8 ADD PUSH2 0x1E6 JUMP JUMPDEST SWAP4 POP PUSH1 0x20 DUP6 ADD CALLDATALOAD SWAP2 POP DUP1 DUP3 GT ISZERO PUSH2 0x2B8 JUMPI PUSH0 DUP1 REVERT JUMPDEST POP PUSH2 0x2C5 DUP6 DUP3 DUP7 ADD PUSH2 0x1E6 JUMP JUMPDEST SWAP2 POP POP SWAP3 POP SWAP3 SWAP1 POP JUMP JUMPDEST PUSH1 0x1 DUP2 DUP2 SHR SWAP1 DUP3 AND DUP1 PUSH2 0x2E3 JUMPI PUSH1 0x7F DUP3 AND SWAP2 POP JUMPDEST PUSH1 0x20 DUP3 LT DUP2 SUB PUSH2 0x301 JUMPI PUSH4 0x4E487B71 PUSH1 0xE0 SHL PUSH0 MSTORE PUSH1 0x22 PUSH1 0x4 MSTORE PUSH1 0x24 PUSH0 REVERT JUMPDEST POP SWAP2 SWAP1 POP JUMP JUMPDEST PUSH1 0x1F DUP3 GT ISZERO PUSH2 0x350 JUMPI PUSH0 DUP2 DUP2 MSTORE PUSH1 0x20 DUP2 KECCAK256 PUSH1 0x1F DUP6 ADD PUSH1 0x5 SHR DUP2 ADD PUSH1 0x20 DUP7 LT ISZERO PUSH2 0x32D JUMPI POP DUP1 JUMPDEST PUSH1 0x1F DUP6 ADD PUSH1 0x5 SHR DUP3 ADD SWAP2 POP JUMPDEST DUP2 DUP2 LT ISZERO PUSH2 0x34C JUMPI DUP3 DUP2 SSTORE PUSH1 0x1 ADD PUSH2 0x339 JUMP JUMPDEST POP POP POP JUMPDEST POP POP POP JUMP JUMPDEST DUP2 MLOAD PUSH8 0xFFFFFFFFFFFFFFFF DUP2 GT ISZERO PUSH2 0x36F JUMPI PUSH2 0x36F PUSH2 0x1D2 JUMP JUMPDEST PUSH2 0x383 DUP2 PUSH2 0x37D DUP5 SLOAD PUSH2 0x2CF JUMP JUMPDEST DUP5 PUSH2 0x307 JUMP JUMPDEST PUSH1 0x20 DUP1 PUSH1 0x1F DUP4 GT PUSH1 0x1 DUP2 EQ PUSH2 0x3B6 JUMPI PUSH0 DUP5 ISZERO PUSH2 0x39F JUMPI POP DUP6 DUP4 ADD MLOAD JUMPDEST PUSH0 NOT PUSH1 0x3 DUP7 SWAP1 SHL SHR NOT AND PUSH1 0x1 DUP6 SWAP1 SHL OR DUP6 SSTORE PUSH2 0x34C JUMP JUMPDEST PUSH0 DUP6 DUP2 MSTORE PUSH1 0x20 DUP2 KECCAK256 PUSH1 0x1F NOT DUP7 AND SWAP2 JUMPDEST DUP3 DUP2 LT ISZERO PUSH2 0x3E4 JUMPI DUP9 DUP7 ADD MLOAD DUP3 SSTORE SWAP5 DUP5 ADD SWAP5 PUSH1 0x1 SWAP1 SWAP2 ADD SWAP1 DUP5 ADD PUSH2 0x3C5 JUMP JUMPDEST POP DUP6 DUP3 LT ISZERO PUSH2 0x401 JUMPI DUP8 DUP6 ADD MLOAD PUSH0 NOT PUSH1 0x3 DUP9 SWAP1 SHL PUSH1 0xF8 AND SHR NOT AND DUP2 SSTORE JUMPDEST POP POP POP POP POP PUSH1 0x1 SWAP1 DUP2 SHL ADD SWAP1 SSTORE POP JUMP INVALID LOG2 PUSH5 0x6970667358 0x22 SLT KECCAK256 0xB7 PUSH18 0x4DB6D0153C241043045CC47F196D36F5CC0C ISZERO 0x2A 0xB3 SMOD 0xE 0xEF DUP2 JUMP DUP4 DUP6 0xFB 0xB1 PUSH5 0x736F6C6343 STOP ADDMOD EQ STOP CALLER "
				},
				"gasEstimates": {
					"creation": {
						"codeDepositCost": "219000",
						"executionCost": "261",
						"totalCost": "219261"
					},
					"external": {
						"init(string,string)": "infinite"
					}
				},
				"methodIdentifiers": {
					"init(string,string)": "7029144c"
				}
			},
			"storageLayout": {
				"storage": [],
				"types": null
			},
			"userdoc": {
				"kind": "user",
				"methods": {},
				"version": 1
			}
		}
	}
}