{
  "_format": "hh-sol-artifact-1",
  "contractName": "T2G_SyndicFacet",
  "sourceName": "contracts/facets/SyndicFacet.sol",
  "abi": [
    {
      "inputs": [
        {
          "internalType": "address",
          "name": "_root",
          "type": "address"
        }
      ],
      "stateMutability": "nonpayable",
      "type": "constructor"
    },
    {
      "inputs": [
        {
          "internalType": "address",
          "name": "_user",
          "type": "address"
        }
      ],
      "name": "SyndFordidden",
      "type": "error"
    },
    {
      "inputs": [
        {
          "internalType": "string",
          "name": "facet",
          "type": "string"
        }
      ],
      "name": "SyndicInvalidContractAddress",
      "type": "error"
    },
    {
      "inputs": [
        {
          "internalType": "address",
          "name": "sender",
          "type": "address"
        }
      ],
      "name": "SyndicInvalidSender",
      "type": "error"
    },
    {
      "anonymous": false,
      "inputs": [
        {
          "indexed": false,
          "internalType": "address",
          "name": "_user",
          "type": "address"
        }
      ],
      "name": "SyndAlreadyBanned",
      "type": "event"
    },
    {
      "anonymous": false,
      "inputs": [
        {
          "indexed": false,
          "internalType": "address",
          "name": "_user",
          "type": "address"
        }
      ],
      "name": "SyndAlreadyRegistered",
      "type": "event"
    },
    {
      "anonymous": false,
      "inputs": [
        {
          "indexed": false,
          "internalType": "address",
          "name": "_user",
          "type": "address"
        },
        {
          "indexed": false,
          "internalType": "uint256",
          "name": "_stamp",
          "type": "uint256"
        }
      ],
      "name": "SyndNewBanned",
      "type": "event"
    },
    {
      "anonymous": false,
      "inputs": [
        {
          "indexed": false,
          "internalType": "address",
          "name": "_user",
          "type": "address"
        },
        {
          "indexed": false,
          "internalType": "uint256",
          "name": "_stamp",
          "type": "uint256"
        }
      ],
      "name": "SyndNewRegistered",
      "type": "event"
    },
    {
      "anonymous": false,
      "inputs": [
        {
          "indexed": false,
          "internalType": "address",
          "name": "_user",
          "type": "address"
        }
      ],
      "name": "SyndRightsGranted",
      "type": "event"
    },
    {
      "anonymous": false,
      "inputs": [
        {
          "indexed": false,
          "internalType": "address",
          "name": "_user",
          "type": "address"
        }
      ],
      "name": "SyndUnknown",
      "type": "event"
    },
    {
      "anonymous": false,
      "inputs": [
        {
          "indexed": false,
          "internalType": "address",
          "name": "sender",
          "type": "address"
        }
      ],
      "name": "SyndicRootAddressSet",
      "type": "event"
    },
    {
      "inputs": [
        {
          "internalType": "address",
          "name": "_wallet",
          "type": "address"
        }
      ],
      "name": "banWallet",
      "outputs": [],
      "stateMutability": "nonpayable",
      "type": "function"
    },
    {
      "inputs": [],
      "name": "beacon_SyndicFacet",
      "outputs": [
        {
          "internalType": "string",
          "name": "",
          "type": "string"
        }
      ],
      "stateMutability": "pure",
      "type": "function"
    },
    {
      "inputs": [
        {
          "internalType": "address",
          "name": "_wallet",
          "type": "address"
        },
        {
          "internalType": "uint8",
          "name": "_profile",
          "type": "uint8"
        }
      ],
      "name": "declineWalletRights",
      "outputs": [],
      "stateMutability": "nonpayable",
      "type": "function"
    },
    {
      "inputs": [
        {
          "internalType": "address",
          "name": "_wallet",
          "type": "address"
        }
      ],
      "name": "getWalletRights",
      "outputs": [
        {
          "internalType": "uint8",
          "name": "",
          "type": "uint8"
        }
      ],
      "stateMutability": "view",
      "type": "function"
    },
    {
      "inputs": [],
      "name": "get_T2G_SyndicFacet",
      "outputs": [
        {
          "internalType": "address",
          "name": "",
          "type": "address"
        }
      ],
      "stateMutability": "view",
      "type": "function"
    },
    {
      "inputs": [
        {
          "internalType": "address",
          "name": "_wallet",
          "type": "address"
        },
        {
          "internalType": "uint8",
          "name": "_profile",
          "type": "uint8"
        }
      ],
      "name": "grantWalletRights",
      "outputs": [],
      "stateMutability": "nonpayable",
      "type": "function"
    },
    {
      "inputs": [
        {
          "internalType": "address",
          "name": "_wallet",
          "type": "address"
        }
      ],
      "name": "isWalletBanned",
      "outputs": [
        {
          "internalType": "bool",
          "name": "",
          "type": "bool"
        }
      ],
      "stateMutability": "view",
      "type": "function"
    },
    {
      "inputs": [
        {
          "internalType": "address",
          "name": "_wallet",
          "type": "address"
        }
      ],
      "name": "isWalletRegistered",
      "outputs": [
        {
          "internalType": "bool",
          "name": "",
          "type": "bool"
        }
      ],
      "stateMutability": "view",
      "type": "function"
    },
    {
      "inputs": [
        {
          "internalType": "address",
          "name": "_wallet",
          "type": "address"
        },
        {
          "internalType": "uint8",
          "name": "_profile",
          "type": "uint8"
        }
      ],
      "name": "registerWallet",
      "outputs": [],
      "stateMutability": "nonpayable",
      "type": "function"
    },
    {
      "inputs": [
        {
          "internalType": "address",
          "name": "_mockup",
          "type": "address"
        }
      ],
      "name": "updateMockUpAddress",
      "outputs": [],
      "stateMutability": "nonpayable",
      "type": "function"
    }
  ],
  "bytecode": "0x608060405234801561001057600080fd5b50604051610d39380380610d3983398101604081905261002f91610153565b6001600160a01b0381166100785760405163dfeb5be960e01b815260040161006f90602080825260049082015263149bdbdd60e21b604082015260600190565b60405180910390fd5b600080516020610d19833981519152546001600160a01b03166100f95780600080516020610d1983398151915280546001600160a01b0319166001600160a01b0392831617905560405190821681527f457dcc238dce6bc57c1b49fa54de9ea554a33c336e641297f6fdc56bff148a379060200160405180910390a161014d565b600080516020610d19833981519152546001600160a01b0382811691161461014d5760405163dfeb5be960e01b815260040161006f90602080825260049082015263149bdbdd60e21b604082015260600190565b50610183565b60006020828403121561016557600080fd5b81516001600160a01b038116811461017c57600080fd5b9392505050565b610b87806101926000396000f3fe608060405234801561001057600080fd5b506004361061009e5760003560e01c80636965e374116100665780636965e374146101385780637f247e491461014b578063879ab06d1461015e57806396719f0b14610102578063d9ca11521461017157600080fd5b80630b15bd30146100a357806317747844146100cd57806321850bf0146100ed5780633524e45b146101025780636011e26214610115575b600080fd5b6100b66100b1366004610a25565b6101a5565b60405160ff90911681526020015b60405180910390f35b6100d56101b6565b6040516001600160a01b0390911681526020016100c4565b6101006100fb366004610a25565b61026c565b005b610100610110366004610a49565b6102b8565b610128610123366004610a25565b610301565b60405190151581526020016100c4565b610100610146366004610a49565b610347565b610128610159366004610a25565b61038c565b61010061016c366004610a25565b6103d2565b604080518082018252601281527153796e64696346616365743a3a312e302e3160701b602082015290516100c49190610a88565b60006101b08261043a565b92915050565b60006101c06104ab565b546040805160048152602481019091526020810180516001600160e01b0316636ce508a960e11b1790526001600160a01b039091169063cdffacc69061020590610ad6565b6040516001600160e01b031960e084901b81168252919091166004820152602401602060405180830381865afa158015610243573d6000803e3d6000fd5b505050506040513d601f19601f820116820180604052508101906102679190610b0d565b905090565b6102746104cf565b6001600160a01b0316336001600160a01b0316146102ac57604051630e9bf8ff60e41b81523360048201526024015b60405180910390fd5b6102b5816104fd565b50565b6102c06104cf565b6001600160a01b0316336001600160a01b0316146102f357604051630e9bf8ff60e41b81523360048201526024016102a3565b6102fd82826106b2565b5050565b600061030b6104cf565b6001600160a01b0316336001600160a01b03161461033e57604051630e9bf8ff60e41b81523360048201526024016102a3565b6101b08261076d565b61034f6104cf565b6001600160a01b0316336001600160a01b03161461038257604051630e9bf8ff60e41b81523360048201526024016102a3565b6102fd82826107b0565b60006103966104cf565b6001600160a01b0316336001600160a01b0316146103c957604051630e9bf8ff60e41b81523360048201526024016102a3565b6101b0826109cd565b6103da6104cf565b6001600160a01b0316336001600160a01b03161461040d57604051630e9bf8ff60e41b81523360048201526024016102a3565b806104166104ab565b60010180546001600160a01b0319166001600160a01b039290921691909117905550565b6000610445826109cd565b158061045557506104558261076d565b1561047e57604051631845b8a160e01b81526001600160a01b03831660048201526024016102a3565b6104866104ab565b6001600160a01b03909216600090815260079290920160205250604090205460ff1690565b7fc10caac92efdceb019f4467d7734f86155a3e217eeed6dfdd606082d364302b490565b7fc8fcad8db84d3cc18b4c41d551ea0ee66dd599cde068d998e57d5e09332c1320546001600160a01b031690565b6001600160a01b038116156102b557610515816109cd565b15610679576105238161076d565b15610568576040516001600160a01b03821681527f8ca5c3e407cc2533c8423c395c7d5002bcd7655f0c8e6f4436ad21a528a09f5a906020015b60405180910390a150565b60016105726104ab565b6001600160a01b038316600090815260059190910160205260409020805460ff1916911515919091179055806105a66104ab565b60090160006105b36104ab565b600301600081546105c390610b2a565b91829055508152602081019190915260400160002080546001600160a01b0319166001600160a01b0392909216919091179055426105ff6104ab565b6001600160a01b038316600090815260069190910160205260409020557f695b31889589de0b284f88178b614a8e87f3ca9394cb294e370b6705a8a2d3ec816106466104ab565b6001600160a01b03808516600090815260069290920160209081526040928390205483519490921684528301520161055d565b6040516001600160a01b03821681527fa7746bbe2774a74b5d27873fe01d25980c88fb6dcb5518e3683b39c3f99be9469060200161055d565b6106bb826109cd565b15806106cb57506106cb8261076d565b156106f457604051631845b8a160e01b81526001600160a01b03831660048201526024016102a3565b806106fd6104ab565b6001600160a01b03841660008181526007929092016020908152604092839020805460ff19811660ff91821696909116959095179490941790935590519081527fe1490f0a1690bcf482ca2031b25e50f19a178b380ddb336cdff1dd1291cfa8d691015b60405180910390a15050565b60006001600160a01b038216158015906101b0575061078a6104ab565b6001600160a01b0383166000908152600591909101602052604090205460ff1692915050565b6001600160a01b038216156102fd576107c8826109cd565b61094e5760016107d66104ab565b6001600160a01b038416600090815260049190910160205260409020805460ff19169115159190911790558161080a6104ab565b60080160006108176104ab565b6002016000815461082790610b2a565b919050819055815260200190815260200160002060006101000a8154816001600160a01b0302191690836001600160a01b0316021790555060006108696104ab565b6001600160a01b038416600090815260059190910160205260409020805460ff19169115159190911790558061089d6104ab565b6001600160a01b038416600090815260079190910160205260409020805460ff191660ff92909216919091179055426108d46104ab565b6001600160a01b038416600090815260069190910160205260409020557fd1ecf175d9ecdca81ed2e2a9d03edb3440de73b813b38f1f520170a497757c458261091b6104ab565b6001600160a01b038086166000908152600692909201602090815260409283902054835194909216845283015201610761565b6109578261076d565b610994576040516001600160a01b03831681527f942b4d538d7fcca9892bc39e2b6570d9556db2f9d1c1e8c43ec7785010eb345f90602001610761565b6040516001600160a01b03831681527f8ca5c3e407cc2533c8423c395c7d5002bcd7655f0c8e6f4436ad21a528a09f5a90602001610761565b60006001600160a01b038216158015906101b057506109ea6104ab565b6001600160a01b0383166000908152600491909101602052604090205460ff1692915050565b6001600160a01b03811681146102b557600080fd5b600060208284031215610a3757600080fd5b8135610a4281610a10565b9392505050565b60008060408385031215610a5c57600080fd5b8235610a6781610a10565b9150602083013560ff81168114610a7d57600080fd5b809150509250929050565b600060208083528351808285015260005b81811015610ab557858101830151858201604001528201610a99565b506000604082860101526040601f19601f8301168501019250505092915050565b805160208201516001600160e01b03198082169291906004831015610b055780818460040360031b1b83161693505b505050919050565b600060208284031215610b1f57600080fd5b8151610a4281610a10565b600060018201610b4a57634e487b7160e01b600052601160045260246000fd5b506001019056fea26469706673582212201e116f973d8937ae2b4860dd28cb4779e6717ef8ad3eb01a390e4f52d72f9cea64736f6c63430008140033c10caac92efdceb019f4467d7734f86155a3e217eeed6dfdd606082d364302b4",
  "linkReferences": {},
  "deployedLinkReferences": {}
}