{
	"contracts/T2G_root.sol": {
		"T2G_root": {
			"abi": [
				{
					"inputs": [
						{
							"internalType": "address",
							"name": "_contractOwner",
							"type": "address"
						},
						{
							"internalType": "address",
							"name": "_diamondCutFacet",
							"type": "address"
						}
					],
					"stateMutability": "payable",
					"type": "constructor"
				},
				{
					"inputs": [
						{
							"internalType": "address",
							"name": "_initializationContractAddress",
							"type": "address"
						},
						{
							"internalType": "bytes",
							"name": "_calldata",
							"type": "bytes"
						}
					],
					"name": "InitializationFunctionReverted",
					"type": "error"
				},
				{
					"stateMutability": "payable",
					"type": "fallback"
				},
				{
					"inputs": [],
					"name": "beacon_T2G_Root",
					"outputs": [
						{
							"internalType": "string",
							"name": "",
							"type": "string"
						}
					],
					"stateMutability": "pure",
					"type": "function"
				},
				{
					"stateMutability": "payable",
					"type": "receive"
				}
			],
			"devdoc": {
				"kind": "dev",
				"methods": {},
				"version": 1
			},
			"evm": {
				"assembly": "    /* \"contracts/T2G_root.sol\":1328:2563  contract T2G_root is Diamond {... */\n  mstore(0x40, 0x80)\n    /* \"contracts/T2G_root.sol\":1599:2560  constructor(address _contractOwner, address _diamondCutFacet) Diamond(_contractOwner, _diamondCutFacet) payable {... */\n  mload(0x40)\n  sub(codesize, bytecodeSize)\n  dup1\n  bytecodeSize\n  dup4\n  codecopy\n  dup2\n  add\n  0x40\n  dup2\n  swap1\n  mstore\n  tag_1\n  swap2\n  tag_2\n  jump\t// in\ntag_1:\n    /* \"contracts/T2G_root.sol\":1669:1683  _contractOwner */\n  dup2\n    /* \"contracts/T2G_root.sol\":1685:1701  _diamondCutFacet */\n  dup2\n    /* \"contracts/Diamond.sol\":600:643  LibDiamond.setContractOwner(_contractOwner) */\n  tag_6\n    /* \"contracts/T2G_root.sol\":1669:1683  _contractOwner */\n  dup3\n    /* \"contracts/Diamond.sol\":600:627  LibDiamond.setContractOwner */\n  tag_7\n    /* \"contracts/Diamond.sol\":600:643  LibDiamond.setContractOwner(_contractOwner) */\n  jump\t// in\ntag_6:\n    /* \"contracts/Diamond.sol\":766:795  new IDiamondCut.FacetCut[](1) */\n  0x40\n  dup1\n  mload\n    /* \"contracts/Diamond.sol\":793:794  1 */\n  0x01\n    /* \"contracts/Diamond.sol\":766:795  new IDiamondCut.FacetCut[](1) */\n  dup1\n  dup3\n  mstore\n  dup2\n  dup4\n  add\n  swap1\n  swap3\n  mstore\n    /* \"contracts/Diamond.sol\":730:763  IDiamondCut.FacetCut[] memory cut */\n  0x00\n  swap2\n    /* \"contracts/Diamond.sol\":766:795  new IDiamondCut.FacetCut[](1) */\n  dup2\n  0x20\n  add\ntag_12:\n    /* \"contracts/T2G_root.sol\":1328:2563  contract T2G_root is Diamond {... */\n  0x40\n  dup1\n  mload\n  0x60\n  dup1\n  dup3\n  add\n  dup4\n  mstore\n  0x00\n  dup1\n  dup4\n  mstore\n  0x20\n  dup4\n  add\n  mstore\n  swap2\n  dup2\n  add\n  swap2\n  swap1\n  swap2\n  mstore\n    /* \"contracts/Diamond.sol\":766:795  new IDiamondCut.FacetCut[](1) */\n  dup2\n  mstore\n  0x20\n  add\n  swap1\n  0x01\n  swap1\n  sub\n  swap1\n  dup2\n  tag_12\n  jumpi\n  pop\n  pop\n    /* \"contracts/Diamond.sol\":842:857  new bytes4[](1) */\n  0x40\n  dup1\n  mload\n    /* \"contracts/Diamond.sol\":855:856  1 */\n  0x01\n    /* \"contracts/Diamond.sol\":842:857  new bytes4[](1) */\n  dup1\n  dup3\n  mstore\n  dup2\n  dup4\n  add\n  swap1\n  swap3\n  mstore\n    /* \"contracts/Diamond.sol\":730:795  IDiamondCut.FacetCut[] memory cut = new IDiamondCut.FacetCut[](1) */\n  swap2\n  swap3\n  pop\n    /* \"contracts/Diamond.sol\":806:839  bytes4[] memory functionSelectors */\n  0x00\n  swap2\n    /* \"contracts/Diamond.sol\":842:857  new bytes4[](1) */\n  swap1\n  0x20\n  dup1\n  dup4\n  add\n  swap1\n  dup1\n  calldatasize\n  dup4\n  calldatacopy\n  add\n  swap1\n  pop\n  pop\n    /* \"contracts/Diamond.sol\":806:857  bytes4[] memory functionSelectors = new bytes4[](1) */\n  swap1\n  pop\n    /* \"contracts/Diamond.sol\":891:922  IDiamondCut.diamondCut.selector */\n  shl(0xe0, 0x1f931c1c)\n    /* \"contracts/Diamond.sol\":868:885  functionSelectors */\n  dup2\n    /* \"contracts/Diamond.sol\":886:887  0 */\n  0x00\n    /* \"contracts/Diamond.sol\":868:888  functionSelectors[0] */\n  dup2\n  mload\n  dup2\n  lt\n  tag_19\n  jumpi\n  tag_19\n  tag_20\n  jump\t// in\ntag_19:\n  not(sub(shl(0xe0, 0x01), 0x01))\n    /* \"contracts/Diamond.sol\":868:922  functionSelectors[0] = IDiamondCut.diamondCut.selector */\n  swap1\n  swap3\n  and\n    /* \"contracts/Diamond.sol\":868:888  functionSelectors[0] */\n  0x20\n  swap3\n  dup4\n  mul\n  swap2\n  swap1\n  swap2\n  add\n  dup3\n  add\n    /* \"contracts/Diamond.sol\":868:922  functionSelectors[0] = IDiamondCut.diamondCut.selector */\n  mstore\n    /* \"contracts/Diamond.sol\":942:1126  IDiamondCut.FacetCut({... */\n  0x40\n  dup1\n  mload\n  0x60\n  dup2\n  add\n  swap1\n  swap2\n  mstore\n  sub(shl(0xa0, 0x01), 0x01)\n  dup6\n  and\n  dup2\n  mstore\n  swap1\n  dup2\n  add\n  0x00\n  dup2\n  mstore\n  0x20\n  add\n    /* \"contracts/Diamond.sol\":1097:1114  functionSelectors */\n  dup3\n    /* \"contracts/Diamond.sol\":942:1126  IDiamondCut.FacetCut({... */\n  dup2\n  mstore\n  pop\n    /* \"contracts/Diamond.sol\":933:936  cut */\n  dup3\n    /* \"contracts/Diamond.sol\":937:938  0 */\n  0x00\n    /* \"contracts/Diamond.sol\":933:939  cut[0] */\n  dup2\n  mload\n  dup2\n  lt\n  tag_25\n  jumpi\n  tag_25\n  tag_20\n  jump\t// in\ntag_25:\n  0x20\n  mul\n  0x20\n  add\n  add\n    /* \"contracts/Diamond.sol\":933:1126  cut[0] = IDiamondCut.FacetCut({... */\n  dup2\n  swap1\n  mstore\n  pop\n    /* \"contracts/Diamond.sol\":1137:1179  LibDiamond.diamondCut(cut, address(0), \"\") */\n  tag_26\n    /* \"contracts/Diamond.sol\":1159:1162  cut */\n  dup3\n    /* \"contracts/Diamond.sol\":1172:1173  0 */\n  0x00\n    /* \"contracts/Diamond.sol\":1137:1179  LibDiamond.diamondCut(cut, address(0), \"\") */\n  mload(0x40)\n  dup1\n  0x20\n  add\n  0x40\n  mstore\n  dup1\n  0x00\n  dup2\n  mstore\n  pop\n    /* \"contracts/Diamond.sol\":1137:1158  LibDiamond.diamondCut */\n  shl(0x20, tag_27)\n    /* \"contracts/Diamond.sol\":1137:1179  LibDiamond.diamondCut(cut, address(0), \"\") */\n  0x20\n  shr\n  jump\t// in\ntag_26:\n    /* \"contracts/Diamond.sol\":581:1195  {        ... */\n  pop\n  pop\n    /* \"contracts/Diamond.sol\":511:1195  constructor(address _contractOwner, address _diamondCutFacet) payable {        ... */\n  pop\n  pop\n    /* \"contracts/T2G_root.sol\":1599:2560  constructor(address _contractOwner, address _diamondCutFacet) Diamond(_contractOwner, _diamondCutFacet) payable {... */\n  pop\n  pop\n    /* \"contracts/T2G_root.sol\":1328:2563  contract T2G_root is Diamond {... */\n  jump(tag_205)\n    /* \"contracts/libraries/LibDiamond.sol\":2146:2415  function setContractOwner(address _newOwner) internal {... */\ntag_7:\n    /* \"contracts/libraries/LibDiamond.sol\":2290:2306  ds.contractOwner */\n  0xc8fcad8db84d3cc18b4c41d551ea0ee66dd599cde068d998e57d5e09332c1320\n  dup1\n  sload\n  not(sub(shl(0xa0, 0x01), 0x01))\n    /* \"contracts/libraries/LibDiamond.sol\":2317:2345  ds.contractOwner = _newOwner */\n  dup2\n  and\n  sub(shl(0xa0, 0x01), 0x01)\n  dup5\n  dup2\n  and\n  swap2\n  dup3\n  or\n  swap1\n  swap4\n  sstore\n    /* \"contracts/libraries/LibDiamond.sol\":2361:2407  OwnershipTransferred(previousOwner, _newOwner) */\n  mload(0x40)\n  0x00\n  dup1\n  mload\n  0x20\n  data_1ac25121ac50ee96730ac9ae618ddfea240cf59a9860f34e3db50d8def79c035\n  dup4\n  codecopy\n  dup2\n  mload\n  swap2\n  mstore\n    /* \"contracts/libraries/LibDiamond.sol\":751:796  keccak256(\"diamond.standard.diamond.storage\") */\n  swap4\n    /* \"contracts/libraries/LibDiamond.sol\":2290:2306  ds.contractOwner */\n  swap1\n  swap3\n  and\n  swap2\n  dup3\n  swap1\n    /* \"contracts/libraries/LibDiamond.sol\":2361:2407  OwnershipTransferred(previousOwner, _newOwner) */\n  0x8be0079c531659141344cd1fd0a4f28419497f9722a3daafe3b4186f6b6457e0\n  swap1\n    /* \"contracts/libraries/LibDiamond.sol\":2211:2236  DiamondStorage storage ds */\n  0x00\n  swap1\n    /* \"contracts/libraries/LibDiamond.sol\":2361:2407  OwnershipTransferred(previousOwner, _newOwner) */\n  log3\n    /* \"contracts/libraries/LibDiamond.sol\":2200:2415  {... */\n  pop\n  pop\n    /* \"contracts/libraries/LibDiamond.sol\":2146:2415  function setContractOwner(address _newOwner) internal {... */\n  pop\n  jump\t// out\n    /* \"contracts/libraries/LibDiamond.sol\":2876:3962  function diamondCut(... */\ntag_27:\n    /* \"contracts/libraries/LibDiamond.sol\":3037:3055  uint256 facetIndex */\n  0x00\n    /* \"contracts/libraries/LibDiamond.sol\":3032:3849  for (uint256 facetIndex; facetIndex < _diamondCut.length; facetIndex++) {... */\ntag_34:\n    /* \"contracts/libraries/LibDiamond.sol\":3070:3081  _diamondCut */\n  dup4\n    /* \"contracts/libraries/LibDiamond.sol\":3070:3088  _diamondCut.length */\n  mload\n    /* \"contracts/libraries/LibDiamond.sol\":3057:3067  facetIndex */\n  dup2\n    /* \"contracts/libraries/LibDiamond.sol\":3057:3088  facetIndex < _diamondCut.length */\n  lt\n    /* \"contracts/libraries/LibDiamond.sol\":3032:3849  for (uint256 facetIndex; facetIndex < _diamondCut.length; facetIndex++) {... */\n  iszero\n  tag_35\n  jumpi\n    /* \"contracts/libraries/LibDiamond.sol\":3119:3152  IDiamondCut.FacetCutAction action */\n  0x00\n    /* \"contracts/libraries/LibDiamond.sol\":3155:3166  _diamondCut */\n  dup5\n    /* \"contracts/libraries/LibDiamond.sol\":3167:3177  facetIndex */\n  dup3\n    /* \"contracts/libraries/LibDiamond.sol\":3155:3178  _diamondCut[facetIndex] */\n  dup2\n  mload\n  dup2\n  lt\n  tag_38\n  jumpi\n  tag_38\n  tag_20\n  jump\t// in\ntag_38:\n  0x20\n  mul\n  0x20\n  add\n  add\n  mload\n    /* \"contracts/libraries/LibDiamond.sol\":3155:3185  _diamondCut[facetIndex].action */\n  0x20\n  add\n  mload\n    /* \"contracts/libraries/LibDiamond.sol\":3119:3185  IDiamondCut.FacetCutAction action = _diamondCut[facetIndex].action */\n  swap1\n  pop\n    /* \"contracts/libraries/LibDiamond.sol\":3214:3244  IDiamondCut.FacetCutAction.Add */\n  0x00\n    /* \"contracts/libraries/LibDiamond.sol\":3204:3244  action == IDiamondCut.FacetCutAction.Add */\n  0x02\n  dup2\n  gt\n  iszero\n  tag_40\n  jumpi\n  tag_40\n  tag_23\n  jump\t// in\ntag_40:\n    /* \"contracts/libraries/LibDiamond.sol\":3204:3210  action */\n  dup2\n    /* \"contracts/libraries/LibDiamond.sol\":3204:3244  action == IDiamondCut.FacetCutAction.Add */\n  0x02\n  dup2\n  gt\n  iszero\n  tag_42\n  jumpi\n  tag_42\n  tag_23\n  jump\t// in\ntag_42:\n  sub\n    /* \"contracts/libraries/LibDiamond.sol\":3200:3838  if (action == IDiamondCut.FacetCutAction.Add) {... */\n  tag_43\n  jumpi\n    /* \"contracts/libraries/LibDiamond.sol\":3265:3358  addFunctions(_diamondCut[facetIndex].facetAddress, _diamondCut[facetIndex].functionSelectors) */\n  tag_44\n    /* \"contracts/libraries/LibDiamond.sol\":3278:3289  _diamondCut */\n  dup6\n    /* \"contracts/libraries/LibDiamond.sol\":3290:3300  facetIndex */\n  dup4\n    /* \"contracts/libraries/LibDiamond.sol\":3278:3301  _diamondCut[facetIndex] */\n  dup2\n  mload\n  dup2\n  lt\n  tag_46\n  jumpi\n  tag_46\n  tag_20\n  jump\t// in\ntag_46:\n  0x20\n  mul\n  0x20\n  add\n  add\n  mload\n    /* \"contracts/libraries/LibDiamond.sol\":3278:3314  _diamondCut[facetIndex].facetAddress */\n  0x00\n  add\n  mload\n    /* \"contracts/libraries/LibDiamond.sol\":3316:3327  _diamondCut */\n  dup7\n    /* \"contracts/libraries/LibDiamond.sol\":3328:3338  facetIndex */\n  dup5\n    /* \"contracts/libraries/LibDiamond.sol\":3316:3339  _diamondCut[facetIndex] */\n  dup2\n  mload\n  dup2\n  lt\n  tag_48\n  jumpi\n  tag_48\n  tag_20\n  jump\t// in\ntag_48:\n  0x20\n  mul\n  0x20\n  add\n  add\n  mload\n    /* \"contracts/libraries/LibDiamond.sol\":3316:3357  _diamondCut[facetIndex].functionSelectors */\n  0x40\n  add\n  mload\n    /* \"contracts/libraries/LibDiamond.sol\":3265:3277  addFunctions */\n  shl(0x20, tag_49)\n    /* \"contracts/libraries/LibDiamond.sol\":3265:3358  addFunctions(_diamondCut[facetIndex].facetAddress, _diamondCut[facetIndex].functionSelectors) */\n  0x20\n  shr\n  jump\t// in\ntag_44:\n    /* \"contracts/libraries/LibDiamond.sol\":3200:3838  if (action == IDiamondCut.FacetCutAction.Add) {... */\n  jump(tag_74)\ntag_43:\n    /* \"contracts/libraries/LibDiamond.sol\":3394:3428  IDiamondCut.FacetCutAction.Replace */\n  0x01\n    /* \"contracts/libraries/LibDiamond.sol\":3384:3390  action */\n  dup2\n    /* \"contracts/libraries/LibDiamond.sol\":3384:3428  action == IDiamondCut.FacetCutAction.Replace */\n  0x02\n  dup2\n  gt\n  iszero\n  tag_54\n  jumpi\n  tag_54\n  tag_23\n  jump\t// in\ntag_54:\n  sub\n    /* \"contracts/libraries/LibDiamond.sol\":3380:3838  if (action == IDiamondCut.FacetCutAction.Replace) {... */\n  tag_55\n  jumpi\n    /* \"contracts/libraries/LibDiamond.sol\":3449:3546  replaceFunctions(_diamondCut[facetIndex].facetAddress, _diamondCut[facetIndex].functionSelectors) */\n  tag_44\n    /* \"contracts/libraries/LibDiamond.sol\":3466:3477  _diamondCut */\n  dup6\n    /* \"contracts/libraries/LibDiamond.sol\":3478:3488  facetIndex */\n  dup4\n    /* \"contracts/libraries/LibDiamond.sol\":3466:3489  _diamondCut[facetIndex] */\n  dup2\n  mload\n  dup2\n  lt\n  tag_58\n  jumpi\n  tag_58\n  tag_20\n  jump\t// in\ntag_58:\n  0x20\n  mul\n  0x20\n  add\n  add\n  mload\n    /* \"contracts/libraries/LibDiamond.sol\":3466:3502  _diamondCut[facetIndex].facetAddress */\n  0x00\n  add\n  mload\n    /* \"contracts/libraries/LibDiamond.sol\":3504:3515  _diamondCut */\n  dup7\n    /* \"contracts/libraries/LibDiamond.sol\":3516:3526  facetIndex */\n  dup5\n    /* \"contracts/libraries/LibDiamond.sol\":3504:3527  _diamondCut[facetIndex] */\n  dup2\n  mload\n  dup2\n  lt\n  tag_60\n  jumpi\n  tag_60\n  tag_20\n  jump\t// in\ntag_60:\n  0x20\n  mul\n  0x20\n  add\n  add\n  mload\n    /* \"contracts/libraries/LibDiamond.sol\":3504:3545  _diamondCut[facetIndex].functionSelectors */\n  0x40\n  add\n  mload\n    /* \"contracts/libraries/LibDiamond.sol\":3449:3465  replaceFunctions */\n  shl(0x20, tag_61)\n    /* \"contracts/libraries/LibDiamond.sol\":3449:3546  replaceFunctions(_diamondCut[facetIndex].facetAddress, _diamondCut[facetIndex].functionSelectors) */\n  0x20\n  shr\n  jump\t// in\n    /* \"contracts/libraries/LibDiamond.sol\":3380:3838  if (action == IDiamondCut.FacetCutAction.Replace) {... */\ntag_55:\n    /* \"contracts/libraries/LibDiamond.sol\":3582:3615  IDiamondCut.FacetCutAction.Remove */\n  0x02\n    /* \"contracts/libraries/LibDiamond.sol\":3572:3578  action */\n  dup2\n    /* \"contracts/libraries/LibDiamond.sol\":3572:3615  action == IDiamondCut.FacetCutAction.Remove */\n  0x02\n  dup2\n  gt\n  iszero\n  tag_66\n  jumpi\n  tag_66\n  tag_23\n  jump\t// in\ntag_66:\n  sub\n    /* \"contracts/libraries/LibDiamond.sol\":3568:3838  if (action == IDiamondCut.FacetCutAction.Remove) {... */\n  tag_67\n  jumpi\n    /* \"contracts/libraries/LibDiamond.sol\":3636:3732  removeFunctions(_diamondCut[facetIndex].facetAddress, _diamondCut[facetIndex].functionSelectors) */\n  tag_44\n    /* \"contracts/libraries/LibDiamond.sol\":3652:3663  _diamondCut */\n  dup6\n    /* \"contracts/libraries/LibDiamond.sol\":3664:3674  facetIndex */\n  dup4\n    /* \"contracts/libraries/LibDiamond.sol\":3652:3675  _diamondCut[facetIndex] */\n  dup2\n  mload\n  dup2\n  lt\n  tag_70\n  jumpi\n  tag_70\n  tag_20\n  jump\t// in\ntag_70:\n  0x20\n  mul\n  0x20\n  add\n  add\n  mload\n    /* \"contracts/libraries/LibDiamond.sol\":3652:3688  _diamondCut[facetIndex].facetAddress */\n  0x00\n  add\n  mload\n    /* \"contracts/libraries/LibDiamond.sol\":3690:3701  _diamondCut */\n  dup7\n    /* \"contracts/libraries/LibDiamond.sol\":3702:3712  facetIndex */\n  dup5\n    /* \"contracts/libraries/LibDiamond.sol\":3690:3713  _diamondCut[facetIndex] */\n  dup2\n  mload\n  dup2\n  lt\n  tag_72\n  jumpi\n  tag_72\n  tag_20\n  jump\t// in\ntag_72:\n  0x20\n  mul\n  0x20\n  add\n  add\n  mload\n    /* \"contracts/libraries/LibDiamond.sol\":3690:3731  _diamondCut[facetIndex].functionSelectors */\n  0x40\n  add\n  mload\n    /* \"contracts/libraries/LibDiamond.sol\":3636:3651  removeFunctions */\n  shl(0x20, tag_73)\n    /* \"contracts/libraries/LibDiamond.sol\":3636:3732  removeFunctions(_diamondCut[facetIndex].facetAddress, _diamondCut[facetIndex].functionSelectors) */\n  0x20\n  shr\n  jump\t// in\n    /* \"contracts/libraries/LibDiamond.sol\":3568:3838  if (action == IDiamondCut.FacetCutAction.Remove) {... */\ntag_67:\n    /* \"contracts/libraries/LibDiamond.sol\":3773:3822  revert(\"LibDiamondCut: Incorrect FacetCutAction\") */\n  mload(0x40)\n  shl(0xe5, 0x461bcd)\n  dup2\n  mstore\n    /* \"#utility.yul\":1092:1094   */\n  0x20\n    /* \"contracts/libraries/LibDiamond.sol\":3773:3822  revert(\"LibDiamondCut: Incorrect FacetCutAction\") */\n  0x04\n  dup3\n  add\n    /* \"#utility.yul\":1074:1095   */\n  mstore\n    /* \"#utility.yul\":1131:1133   */\n  0x27\n    /* \"#utility.yul\":1111:1129   */\n  0x24\n  dup3\n  add\n    /* \"#utility.yul\":1104:1134   */\n  mstore\n    /* \"#utility.yul\":1170:1204   */\n  0x4c69624469616d6f6e644375743a20496e636f72726563742046616365744375\n    /* \"#utility.yul\":1150:1168   */\n  0x44\n  dup3\n  add\n    /* \"#utility.yul\":1143:1205   */\n  mstore\n  shl(0xc9, 0x3a20b1ba34b7b7)\n    /* \"#utility.yul\":1221:1239   */\n  0x64\n  dup3\n  add\n    /* \"#utility.yul\":1214:1251   */\n  mstore\n    /* \"#utility.yul\":1268:1287   */\n  0x84\n  add\n    /* \"contracts/libraries/LibDiamond.sol\":3773:3822  revert(\"LibDiamondCut: Incorrect FacetCutAction\") */\ntag_75:\n  mload(0x40)\n  dup1\n  swap2\n  sub\n  swap1\n  revert\n    /* \"contracts/libraries/LibDiamond.sol\":3568:3838  if (action == IDiamondCut.FacetCutAction.Remove) {... */\ntag_74:\n  pop\n    /* \"contracts/libraries/LibDiamond.sol\":3090:3102  facetIndex++ */\n  dup1\n  tag_77\n  dup2\n  tag_78\n  jump\t// in\ntag_77:\n  swap2\n  pop\n  pop\n    /* \"contracts/libraries/LibDiamond.sol\":3032:3849  for (uint256 facetIndex; facetIndex < _diamondCut.length; facetIndex++) {... */\n  jump(tag_34)\ntag_35:\n  pop\n    /* \"contracts/libraries/LibDiamond.sol\":3864:3905  DiamondCut(_diamondCut, _init, _calldata) */\n  0x8faa70878671ccd212d20771b795c50af8fd3ff6cf27f4bde57e5d4de0aeb673\n    /* \"contracts/libraries/LibDiamond.sol\":3875:3886  _diamondCut */\n  dup4\n    /* \"contracts/libraries/LibDiamond.sol\":3888:3893  _init */\n  dup4\n    /* \"contracts/libraries/LibDiamond.sol\":3895:3904  _calldata */\n  dup4\n    /* \"contracts/libraries/LibDiamond.sol\":3864:3905  DiamondCut(_diamondCut, _init, _calldata) */\n  mload(0x40)\n  tag_79\n  swap4\n  swap3\n  swap2\n  swap1\n  tag_80\n  jump\t// in\ntag_79:\n  mload(0x40)\n  dup1\n  swap2\n  sub\n  swap1\n  log1\n    /* \"contracts/libraries/LibDiamond.sol\":3916:3954  initializeDiamondCut(_init, _calldata) */\n  tag_81\n    /* \"contracts/libraries/LibDiamond.sol\":3937:3942  _init */\n  dup3\n    /* \"contracts/libraries/LibDiamond.sol\":3944:3953  _calldata */\n  dup3\n    /* \"contracts/libraries/LibDiamond.sol\":3916:3936  initializeDiamondCut */\n  tag_82\n    /* \"contracts/libraries/LibDiamond.sol\":3916:3954  initializeDiamondCut(_init, _calldata) */\n  jump\t// in\ntag_81:\n    /* \"contracts/libraries/LibDiamond.sol\":2876:3962  function diamondCut(... */\n  pop\n  pop\n  pop\n  jump\t// out\n    /* \"contracts/libraries/LibDiamond.sol\":3970:5075  function addFunctions(address _facetAddress, bytes4[] memory _functionSelectors) internal {... */\ntag_49:\n    /* \"contracts/libraries/LibDiamond.sol\":4107:4108  0 */\n  0x00\n    /* \"contracts/libraries/LibDiamond.sol\":4079:4097  _functionSelectors */\n  dup2\n    /* \"contracts/libraries/LibDiamond.sol\":4079:4104  _functionSelectors.length */\n  mload\n    /* \"contracts/libraries/LibDiamond.sol\":4079:4108  _functionSelectors.length > 0 */\n  gt\n    /* \"contracts/libraries/LibDiamond.sol\":4071:4156  require(_functionSelectors.length > 0, \"LibDiamondCut: No selectors in facet to cut\") */\n  tag_85\n  jumpi\n  mload(0x40)\n  shl(0xe5, 0x461bcd)\n  dup2\n  mstore\n    /* \"#utility.yul\":4504:4506   */\n  0x20\n    /* \"contracts/libraries/LibDiamond.sol\":4071:4156  require(_functionSelectors.length > 0, \"LibDiamondCut: No selectors in facet to cut\") */\n  0x04\n  dup3\n  add\n    /* \"#utility.yul\":4486:4507   */\n  mstore\n    /* \"#utility.yul\":4543:4545   */\n  0x2b\n    /* \"#utility.yul\":4523:4541   */\n  0x24\n  dup3\n  add\n    /* \"#utility.yul\":4516:4546   */\n  mstore\n  0x00\n  dup1\n  mload\n  0x20\n  data_ef6ab6a2a8a2da01fe010ebde85afcb72a60b2c7c9acd06f2affb5f0f96595b1\n  dup4\n  codecopy\n  dup2\n  mload\n  swap2\n  mstore\n    /* \"#utility.yul\":4562:4580   */\n  0x44\n  dup3\n  add\n    /* \"#utility.yul\":4555:4617   */\n  mstore\n  shl(0xaa, 0x1858d95d081d1bc818dd5d)\n    /* \"#utility.yul\":4633:4651   */\n  0x64\n  dup3\n  add\n    /* \"#utility.yul\":4626:4667   */\n  mstore\n    /* \"#utility.yul\":4684:4703   */\n  0x84\n  add\n    /* \"contracts/libraries/LibDiamond.sol\":4071:4156  require(_functionSelectors.length > 0, \"LibDiamondCut: No selectors in facet to cut\") */\n  tag_75\n    /* \"#utility.yul\":4302:4709   */\n  jump\n    /* \"contracts/libraries/LibDiamond.sol\":4071:4156  require(_functionSelectors.length > 0, \"LibDiamondCut: No selectors in facet to cut\") */\ntag_85:\n  0x00\n  dup1\n  mload\n  0x20\n  data_1ac25121ac50ee96730ac9ae618ddfea240cf59a9860f34e3db50d8def79c035\n  dup4\n  codecopy\n  dup2\n  mload\n  swap2\n  mstore\n  sub(shl(0xa0, 0x01), 0x01)\n    /* \"contracts/libraries/LibDiamond.sol\":4238:4265  _facetAddress != address(0) */\n  dup4\n  and\n    /* \"contracts/libraries/LibDiamond.sol\":4230:4314  require(_facetAddress != address(0), \"LibDiamondCut: Add facet can't be address(0)\") */\n  tag_89\n  jumpi\n  mload(0x40)\n  shl(0xe5, 0x461bcd)\n  dup2\n  mstore\n    /* \"#utility.yul\":4916:4918   */\n  0x20\n    /* \"contracts/libraries/LibDiamond.sol\":4230:4314  require(_facetAddress != address(0), \"LibDiamondCut: Add facet can't be address(0)\") */\n  0x04\n  dup3\n  add\n    /* \"#utility.yul\":4898:4919   */\n  mstore\n    /* \"#utility.yul\":4955:4957   */\n  0x2c\n    /* \"#utility.yul\":4935:4953   */\n  0x24\n  dup3\n  add\n    /* \"#utility.yul\":4928:4958   */\n  mstore\n  0x00\n  dup1\n  mload\n  0x20\n  data_5fa5c068a317e88499bc559323e1ff95bb74759dc0609ba03d5281082008ea42\n  dup4\n  codecopy\n  dup2\n  mload\n  swap2\n  mstore\n    /* \"#utility.yul\":4974:4992   */\n  0x44\n  dup3\n  add\n    /* \"#utility.yul\":4967:5029   */\n  mstore\n  shl(0xa0, 0x652061646472657373283029)\n    /* \"#utility.yul\":5045:5063   */\n  0x64\n  dup3\n  add\n    /* \"#utility.yul\":5038:5080   */\n  mstore\n    /* \"#utility.yul\":5097:5116   */\n  0x84\n  add\n    /* \"contracts/libraries/LibDiamond.sol\":4230:4314  require(_facetAddress != address(0), \"LibDiamondCut: Add facet can't be address(0)\") */\n  tag_75\n    /* \"#utility.yul\":4714:5122   */\n  jump\n    /* \"contracts/libraries/LibDiamond.sol\":4230:4314  require(_facetAddress != address(0), \"LibDiamondCut: Add facet can't be address(0)\") */\ntag_89:\n  sub(shl(0xa0, 0x01), 0x01)\n    /* \"contracts/libraries/LibDiamond.sol\":4358:4398  ds.facetFunctionSelectors[_facetAddress] */\n  dup4\n  and\n    /* \"contracts/libraries/LibDiamond.sol\":4325:4348  uint96 selectorPosition */\n  0x00\n    /* \"contracts/libraries/LibDiamond.sol\":4358:4398  ds.facetFunctionSelectors[_facetAddress] */\n  swap1\n  dup2\n  mstore\n    /* \"contracts/libraries/LibDiamond.sol\":4358:4383  ds.facetFunctionSelectors */\n  0x01\n  dup3\n  add\n    /* \"contracts/libraries/LibDiamond.sol\":4358:4398  ds.facetFunctionSelectors[_facetAddress] */\n  0x20\n  mstore\n  0x40\n  dup2\n  keccak256\n    /* \"contracts/libraries/LibDiamond.sol\":4358:4423  ds.facetFunctionSelectors[_facetAddress].functionSelectors.length */\n  sload\n  swap1\n  sub(shl(0x60, 0x01), 0x01)\n    /* \"contracts/libraries/LibDiamond.sol\":4494:4515  selectorPosition == 0 */\n  dup3\n  and\n  swap1\n  sub\n    /* \"contracts/libraries/LibDiamond.sol\":4490:4583  if (selectorPosition == 0) {... */\n  tag_93\n  jumpi\n    /* \"contracts/libraries/LibDiamond.sol\":4532:4559  addFacet(ds, _facetAddress) */\n  tag_93\n    /* \"contracts/libraries/LibDiamond.sol\":4541:4543  ds */\n  dup3\n    /* \"contracts/libraries/LibDiamond.sol\":4545:4558  _facetAddress */\n  dup6\n    /* \"contracts/libraries/LibDiamond.sol\":4532:4540  addFacet */\n  tag_94\n    /* \"contracts/libraries/LibDiamond.sol\":4532:4559  addFacet(ds, _facetAddress) */\n  jump\t// in\ntag_93:\n    /* \"contracts/libraries/LibDiamond.sol\":4598:4619  uint256 selectorIndex */\n  0x00\n    /* \"contracts/libraries/LibDiamond.sol\":4593:5068  for (uint256 selectorIndex; selectorIndex < _functionSelectors.length; selectorIndex++) {... */\ntag_95:\n    /* \"contracts/libraries/LibDiamond.sol\":4637:4655  _functionSelectors */\n  dup4\n    /* \"contracts/libraries/LibDiamond.sol\":4637:4662  _functionSelectors.length */\n  mload\n    /* \"contracts/libraries/LibDiamond.sol\":4621:4634  selectorIndex */\n  dup2\n    /* \"contracts/libraries/LibDiamond.sol\":4621:4662  selectorIndex < _functionSelectors.length */\n  lt\n    /* \"contracts/libraries/LibDiamond.sol\":4593:5068  for (uint256 selectorIndex; selectorIndex < _functionSelectors.length; selectorIndex++) {... */\n  iszero\n  tag_96\n  jumpi\n    /* \"contracts/libraries/LibDiamond.sol\":4696:4711  bytes4 selector */\n  0x00\n    /* \"contracts/libraries/LibDiamond.sol\":4714:4732  _functionSelectors */\n  dup5\n    /* \"contracts/libraries/LibDiamond.sol\":4733:4746  selectorIndex */\n  dup3\n    /* \"contracts/libraries/LibDiamond.sol\":4714:4747  _functionSelectors[selectorIndex] */\n  dup2\n  mload\n  dup2\n  lt\n  tag_99\n  jumpi\n  tag_99\n  tag_20\n  jump\t// in\ntag_99:\n  0x20\n  swap1\n  dup2\n  mul\n  swap2\n  swap1\n  swap2\n  add\n  dup2\n  add\n  mload\n  not(sub(shl(0xe0, 0x01), 0x01))\n    /* \"contracts/libraries/LibDiamond.sol\":4788:4827  ds.selectorToFacetAndPosition[selector] */\n  dup2\n  and\n    /* \"contracts/libraries/LibDiamond.sol\":4762:4785  address oldFacetAddress */\n  0x00\n    /* \"contracts/libraries/LibDiamond.sol\":4788:4827  ds.selectorToFacetAndPosition[selector] */\n  swap1\n  dup2\n  mstore\n  swap2\n  dup7\n  swap1\n  mstore\n  0x40\n  swap1\n  swap2\n  keccak256\n    /* \"contracts/libraries/LibDiamond.sol\":4788:4840  ds.selectorToFacetAndPosition[selector].facetAddress */\n  sload\n    /* \"contracts/libraries/LibDiamond.sol\":4714:4747  _functionSelectors[selectorIndex] */\n  swap1\n  swap2\n  pop\n  sub(shl(0xa0, 0x01), 0x01)\n    /* \"contracts/libraries/LibDiamond.sol\":4788:4840  ds.selectorToFacetAndPosition[selector].facetAddress */\n  and\n    /* \"contracts/libraries/LibDiamond.sol\":4863:4892  oldFacetAddress == address(0) */\n  dup1\n  iszero\n    /* \"contracts/libraries/LibDiamond.sol\":4855:4950  require(oldFacetAddress == address(0), \"LibDiamondCut: Can't add function that already exists\") */\n  tag_100\n  jumpi\n  mload(0x40)\n  shl(0xe5, 0x461bcd)\n  dup2\n  mstore\n    /* \"#utility.yul\":5329:5331   */\n  0x20\n    /* \"contracts/libraries/LibDiamond.sol\":4855:4950  require(oldFacetAddress == address(0), \"LibDiamondCut: Can't add function that already exists\") */\n  0x04\n  dup3\n  add\n    /* \"#utility.yul\":5311:5332   */\n  mstore\n    /* \"#utility.yul\":5368:5370   */\n  0x35\n    /* \"#utility.yul\":5348:5366   */\n  0x24\n  dup3\n  add\n    /* \"#utility.yul\":5341:5371   */\n  mstore\n    /* \"#utility.yul\":5407:5441   */\n  0x4c69624469616d6f6e644375743a2043616e2774206164642066756e6374696f\n    /* \"#utility.yul\":5387:5405   */\n  0x44\n  dup3\n  add\n    /* \"#utility.yul\":5380:5442   */\n  mstore\n    /* \"#utility.yul\":5478:5501   */\n  0x6e207468617420616c7265616479206578697374730000000000000000000000\n    /* \"#utility.yul\":5458:5476   */\n  0x64\n  dup3\n  add\n    /* \"#utility.yul\":5451:5502   */\n  mstore\n    /* \"#utility.yul\":5519:5538   */\n  0x84\n  add\n    /* \"contracts/libraries/LibDiamond.sol\":4855:4950  require(oldFacetAddress == address(0), \"LibDiamondCut: Can't add function that already exists\") */\n  tag_75\n    /* \"#utility.yul\":5127:5544   */\n  jump\n    /* \"contracts/libraries/LibDiamond.sol\":4855:4950  require(oldFacetAddress == address(0), \"LibDiamondCut: Can't add function that already exists\") */\ntag_100:\n  not(sub(shl(0xe0, 0x01), 0x01))\n    /* \"contracts/libraries/LibDiamond.sol\":7475:7515  ds.selectorToFacetAndPosition[_selector] */\n  dup3\n  and\n    /* \"contracts/libraries/LibDiamond.sol\":7475:7504  ds.selectorToFacetAndPosition */\n  0x00\n    /* \"contracts/libraries/LibDiamond.sol\":7475:7515  ds.selectorToFacetAndPosition[_selector] */\n  dup2\n  dup2\n  mstore\n  0x20\n  dup8\n  dup2\n  mstore\n  0x40\n  dup1\n  dup4\n  keccak256\n    /* \"contracts/libraries/LibDiamond.sol\":7475:7560  ds.selectorToFacetAndPosition[_selector].functionSelectorPosition = _selectorPosition */\n  dup1\n  sload\n  sub(shl(0xa0, 0x01), 0x01)\n  swap1\n  dup2\n  and\n  shl(0xa0, 0x01)\n  sub(shl(0x60, 0x01), 0x01)\n  dup13\n  and\n  mul\n  or\n  dup3\n  sstore\n    /* \"contracts/libraries/LibDiamond.sol\":7571:7611  ds.facetFunctionSelectors[_facetAddress] */\n  dup13\n  and\n  dup1\n  dup6\n  mstore\n  0x01\n    /* \"contracts/libraries/LibDiamond.sol\":7571:7596  ds.facetFunctionSelectors */\n  dup1\n  dup13\n  add\n    /* \"contracts/libraries/LibDiamond.sol\":7571:7611  ds.facetFunctionSelectors[_facetAddress] */\n  dup6\n  mstore\n  swap3\n  dup6\n  keccak256\n    /* \"contracts/libraries/LibDiamond.sol\":7571:7645  ds.facetFunctionSelectors[_facetAddress].functionSelectors.push(_selector) */\n  dup1\n  sload\n  swap4\n  dup5\n  add\n  dup2\n  sstore\n  dup6\n  mstore\n  dup4\n  dup6\n  keccak256\n  0x08\n  dup5\n  div\n  add\n  dup1\n  sload\n  0xffffffff\n  0x07\n  swap1\n  swap6\n  and\n  0x04\n  mul\n    /* \"contracts/libraries/LibDiamond.sol\":7475:7560  ds.selectorToFacetAndPosition[_selector].functionSelectorPosition = _selectorPosition */\n  0x0100\n    /* \"contracts/libraries/LibDiamond.sol\":7571:7645  ds.facetFunctionSelectors[_facetAddress].functionSelectors.push(_selector) */\n  exp\n  swap5\n  dup6\n  mul\n  not\n  and\n  0xe0\n  dup11\n  swap1\n  shr\n  swap5\n  swap1\n  swap5\n  mul\n  swap4\n  swap1\n  swap4\n  or\n  swap1\n  swap3\n  sstore\n    /* \"contracts/libraries/LibDiamond.sol\":7656:7696  ds.selectorToFacetAndPosition[_selector] */\n  swap4\n  swap1\n  swap3\n  mstore\n  dup8\n  swap1\n  mstore\n    /* \"contracts/libraries/LibDiamond.sol\":7656:7725  ds.selectorToFacetAndPosition[_selector].facetAddress = _facetAddress */\n  dup2\n  sload\n  not(sub(shl(0xa0, 0x01), 0x01))\n  and\n  or\n  swap1\n  sstore\n    /* \"contracts/libraries/LibDiamond.sol\":5038:5056  selectorPosition++ */\n  dup4\n  tag_105\n  dup2\n  tag_106\n  jump\t// in\ntag_105:\n  swap5\n  pop\n  pop\n    /* \"contracts/libraries/LibDiamond.sol\":4681:5068  {... */\n  pop\n  pop\n    /* \"contracts/libraries/LibDiamond.sol\":4664:4679  selectorIndex++ */\n  dup1\n  dup1\n  tag_107\n  swap1\n  tag_78\n  jump\t// in\ntag_107:\n  swap2\n  pop\n  pop\n    /* \"contracts/libraries/LibDiamond.sol\":4593:5068  for (uint256 selectorIndex; selectorIndex < _functionSelectors.length; selectorIndex++) {... */\n  jump(tag_95)\ntag_96:\n  pop\n    /* \"contracts/libraries/LibDiamond.sol\":4060:5075  {... */\n  pop\n  pop\n    /* \"contracts/libraries/LibDiamond.sol\":3970:5075  function addFunctions(address _facetAddress, bytes4[] memory _functionSelectors) internal {... */\n  pop\n  pop\n  jump\t// out\n    /* \"contracts/libraries/LibDiamond.sol\":5083:6238  function replaceFunctions(address _facetAddress, bytes4[] memory _functionSelectors) internal {... */\ntag_61:\n    /* \"contracts/libraries/LibDiamond.sol\":5224:5225  0 */\n  0x00\n    /* \"contracts/libraries/LibDiamond.sol\":5196:5214  _functionSelectors */\n  dup2\n    /* \"contracts/libraries/LibDiamond.sol\":5196:5221  _functionSelectors.length */\n  mload\n    /* \"contracts/libraries/LibDiamond.sol\":5196:5225  _functionSelectors.length > 0 */\n  gt\n    /* \"contracts/libraries/LibDiamond.sol\":5188:5273  require(_functionSelectors.length > 0, \"LibDiamondCut: No selectors in facet to cut\") */\n  tag_109\n  jumpi\n  mload(0x40)\n  shl(0xe5, 0x461bcd)\n  dup2\n  mstore\n    /* \"#utility.yul\":4504:4506   */\n  0x20\n    /* \"contracts/libraries/LibDiamond.sol\":5188:5273  require(_functionSelectors.length > 0, \"LibDiamondCut: No selectors in facet to cut\") */\n  0x04\n  dup3\n  add\n    /* \"#utility.yul\":4486:4507   */\n  mstore\n    /* \"#utility.yul\":4543:4545   */\n  0x2b\n    /* \"#utility.yul\":4523:4541   */\n  0x24\n  dup3\n  add\n    /* \"#utility.yul\":4516:4546   */\n  mstore\n  0x00\n  dup1\n  mload\n  0x20\n  data_ef6ab6a2a8a2da01fe010ebde85afcb72a60b2c7c9acd06f2affb5f0f96595b1\n  dup4\n  codecopy\n  dup2\n  mload\n  swap2\n  mstore\n    /* \"#utility.yul\":4562:4580   */\n  0x44\n  dup3\n  add\n    /* \"#utility.yul\":4555:4617   */\n  mstore\n  shl(0xaa, 0x1858d95d081d1bc818dd5d)\n    /* \"#utility.yul\":4633:4651   */\n  0x64\n  dup3\n  add\n    /* \"#utility.yul\":4626:4667   */\n  mstore\n    /* \"#utility.yul\":4684:4703   */\n  0x84\n  add\n    /* \"contracts/libraries/LibDiamond.sol\":5188:5273  require(_functionSelectors.length > 0, \"LibDiamondCut: No selectors in facet to cut\") */\n  tag_75\n    /* \"#utility.yul\":4302:4709   */\n  jump\n    /* \"contracts/libraries/LibDiamond.sol\":5188:5273  require(_functionSelectors.length > 0, \"LibDiamondCut: No selectors in facet to cut\") */\ntag_109:\n  0x00\n  dup1\n  mload\n  0x20\n  data_1ac25121ac50ee96730ac9ae618ddfea240cf59a9860f34e3db50d8def79c035\n  dup4\n  codecopy\n  dup2\n  mload\n  swap2\n  mstore\n  sub(shl(0xa0, 0x01), 0x01)\n    /* \"contracts/libraries/LibDiamond.sol\":5347:5374  _facetAddress != address(0) */\n  dup4\n  and\n    /* \"contracts/libraries/LibDiamond.sol\":5339:5423  require(_facetAddress != address(0), \"LibDiamondCut: Add facet can't be address(0)\") */\n  tag_112\n  jumpi\n  mload(0x40)\n  shl(0xe5, 0x461bcd)\n  dup2\n  mstore\n    /* \"#utility.yul\":4916:4918   */\n  0x20\n    /* \"contracts/libraries/LibDiamond.sol\":5339:5423  require(_facetAddress != address(0), \"LibDiamondCut: Add facet can't be address(0)\") */\n  0x04\n  dup3\n  add\n    /* \"#utility.yul\":4898:4919   */\n  mstore\n    /* \"#utility.yul\":4955:4957   */\n  0x2c\n    /* \"#utility.yul\":4935:4953   */\n  0x24\n  dup3\n  add\n    /* \"#utility.yul\":4928:4958   */\n  mstore\n  0x00\n  dup1\n  mload\n  0x20\n  data_5fa5c068a317e88499bc559323e1ff95bb74759dc0609ba03d5281082008ea42\n  dup4\n  codecopy\n  dup2\n  mload\n  swap2\n  mstore\n    /* \"#utility.yul\":4974:4992   */\n  0x44\n  dup3\n  add\n    /* \"#utility.yul\":4967:5029   */\n  mstore\n  shl(0xa0, 0x652061646472657373283029)\n    /* \"#utility.yul\":5045:5063   */\n  0x64\n  dup3\n  add\n    /* \"#utility.yul\":5038:5080   */\n  mstore\n    /* \"#utility.yul\":5097:5116   */\n  0x84\n  add\n    /* \"contracts/libraries/LibDiamond.sol\":5339:5423  require(_facetAddress != address(0), \"LibDiamondCut: Add facet can't be address(0)\") */\n  tag_75\n    /* \"#utility.yul\":4714:5122   */\n  jump\n    /* \"contracts/libraries/LibDiamond.sol\":5339:5423  require(_facetAddress != address(0), \"LibDiamondCut: Add facet can't be address(0)\") */\ntag_112:\n  sub(shl(0xa0, 0x01), 0x01)\n    /* \"contracts/libraries/LibDiamond.sol\":5467:5507  ds.facetFunctionSelectors[_facetAddress] */\n  dup4\n  and\n    /* \"contracts/libraries/LibDiamond.sol\":5434:5457  uint96 selectorPosition */\n  0x00\n    /* \"contracts/libraries/LibDiamond.sol\":5467:5507  ds.facetFunctionSelectors[_facetAddress] */\n  swap1\n  dup2\n  mstore\n    /* \"contracts/libraries/LibDiamond.sol\":5467:5492  ds.facetFunctionSelectors */\n  0x01\n  dup3\n  add\n    /* \"contracts/libraries/LibDiamond.sol\":5467:5507  ds.facetFunctionSelectors[_facetAddress] */\n  0x20\n  mstore\n  0x40\n  dup2\n  keccak256\n    /* \"contracts/libraries/LibDiamond.sol\":5467:5532  ds.facetFunctionSelectors[_facetAddress].functionSelectors.length */\n  sload\n  swap1\n  sub(shl(0x60, 0x01), 0x01)\n    /* \"contracts/libraries/LibDiamond.sol\":5603:5624  selectorPosition == 0 */\n  dup3\n  and\n  swap1\n  sub\n    /* \"contracts/libraries/LibDiamond.sol\":5599:5680  if (selectorPosition == 0) {... */\n  tag_115\n  jumpi\n    /* \"contracts/libraries/LibDiamond.sol\":5641:5668  addFacet(ds, _facetAddress) */\n  tag_115\n    /* \"contracts/libraries/LibDiamond.sol\":5650:5652  ds */\n  dup3\n    /* \"contracts/libraries/LibDiamond.sol\":5654:5667  _facetAddress */\n  dup6\n    /* \"contracts/libraries/LibDiamond.sol\":5641:5649  addFacet */\n  tag_94\n    /* \"contracts/libraries/LibDiamond.sol\":5641:5668  addFacet(ds, _facetAddress) */\n  jump\t// in\ntag_115:\n    /* \"contracts/libraries/LibDiamond.sol\":5695:5716  uint256 selectorIndex */\n  0x00\n    /* \"contracts/libraries/LibDiamond.sol\":5690:6231  for (uint256 selectorIndex; selectorIndex < _functionSelectors.length; selectorIndex++) {... */\ntag_116:\n    /* \"contracts/libraries/LibDiamond.sol\":5734:5752  _functionSelectors */\n  dup4\n    /* \"contracts/libraries/LibDiamond.sol\":5734:5759  _functionSelectors.length */\n  mload\n    /* \"contracts/libraries/LibDiamond.sol\":5718:5731  selectorIndex */\n  dup2\n    /* \"contracts/libraries/LibDiamond.sol\":5718:5759  selectorIndex < _functionSelectors.length */\n  lt\n    /* \"contracts/libraries/LibDiamond.sol\":5690:6231  for (uint256 selectorIndex; selectorIndex < _functionSelectors.length; selectorIndex++) {... */\n  iszero\n  tag_96\n  jumpi\n    /* \"contracts/libraries/LibDiamond.sol\":5793:5808  bytes4 selector */\n  0x00\n    /* \"contracts/libraries/LibDiamond.sol\":5811:5829  _functionSelectors */\n  dup5\n    /* \"contracts/libraries/LibDiamond.sol\":5830:5843  selectorIndex */\n  dup3\n    /* \"contracts/libraries/LibDiamond.sol\":5811:5844  _functionSelectors[selectorIndex] */\n  dup2\n  mload\n  dup2\n  lt\n  tag_120\n  jumpi\n  tag_120\n  tag_20\n  jump\t// in\ntag_120:\n  0x20\n  swap1\n  dup2\n  mul\n  swap2\n  swap1\n  swap2\n  add\n  dup2\n  add\n  mload\n  not(sub(shl(0xe0, 0x01), 0x01))\n    /* \"contracts/libraries/LibDiamond.sol\":5885:5924  ds.selectorToFacetAndPosition[selector] */\n  dup2\n  and\n    /* \"contracts/libraries/LibDiamond.sol\":5859:5882  address oldFacetAddress */\n  0x00\n    /* \"contracts/libraries/LibDiamond.sol\":5885:5924  ds.selectorToFacetAndPosition[selector] */\n  swap1\n  dup2\n  mstore\n  swap2\n  dup7\n  swap1\n  mstore\n  0x40\n  swap1\n  swap2\n  keccak256\n    /* \"contracts/libraries/LibDiamond.sol\":5885:5937  ds.selectorToFacetAndPosition[selector].facetAddress */\n  sload\n    /* \"contracts/libraries/LibDiamond.sol\":5811:5844  _functionSelectors[selectorIndex] */\n  swap1\n  swap2\n  pop\n  sub(shl(0xa0, 0x01), 0x01)\n    /* \"contracts/libraries/LibDiamond.sol\":5885:5937  ds.selectorToFacetAndPosition[selector].facetAddress */\n  swap1\n  dup2\n  and\n  swap1\n    /* \"contracts/libraries/LibDiamond.sol\":5960:5992  oldFacetAddress != _facetAddress */\n  dup8\n  and\n  dup2\n  sub\n    /* \"contracts/libraries/LibDiamond.sol\":5952:6053  require(oldFacetAddress != _facetAddress, \"LibDiamondCut: Can't replace function with same function\") */\n  tag_121\n  jumpi\n  mload(0x40)\n  shl(0xe5, 0x461bcd)\n  dup2\n  mstore\n    /* \"#utility.yul\":5965:5967   */\n  0x20\n    /* \"contracts/libraries/LibDiamond.sol\":5952:6053  require(oldFacetAddress != _facetAddress, \"LibDiamondCut: Can't replace function with same function\") */\n  0x04\n  dup3\n  add\n    /* \"#utility.yul\":5947:5968   */\n  mstore\n    /* \"#utility.yul\":6004:6006   */\n  0x38\n    /* \"#utility.yul\":5984:6002   */\n  0x24\n  dup3\n  add\n    /* \"#utility.yul\":5977:6007   */\n  mstore\n    /* \"#utility.yul\":6043:6077   */\n  0x4c69624469616d6f6e644375743a2043616e2774207265706c6163652066756e\n    /* \"#utility.yul\":6023:6041   */\n  0x44\n  dup3\n  add\n    /* \"#utility.yul\":6016:6078   */\n  mstore\n    /* \"#utility.yul\":6114:6140   */\n  0x6374696f6e20776974682073616d652066756e6374696f6e0000000000000000\n    /* \"#utility.yul\":6094:6112   */\n  0x64\n  dup3\n  add\n    /* \"#utility.yul\":6087:6141   */\n  mstore\n    /* \"#utility.yul\":6158:6177   */\n  0x84\n  add\n    /* \"contracts/libraries/LibDiamond.sol\":5952:6053  require(oldFacetAddress != _facetAddress, \"LibDiamondCut: Can't replace function with same function\") */\n  tag_75\n    /* \"#utility.yul\":5763:6183   */\n  jump\n    /* \"contracts/libraries/LibDiamond.sol\":5952:6053  require(oldFacetAddress != _facetAddress, \"LibDiamondCut: Can't replace function with same function\") */\ntag_121:\n    /* \"contracts/libraries/LibDiamond.sol\":6068:6113  removeFunction(ds, oldFacetAddress, selector) */\n  tag_124\n    /* \"contracts/libraries/LibDiamond.sol\":6083:6085  ds */\n  dup6\n    /* \"contracts/libraries/LibDiamond.sol\":6087:6102  oldFacetAddress */\n  dup3\n    /* \"contracts/libraries/LibDiamond.sol\":6104:6112  selector */\n  dup5\n    /* \"contracts/libraries/LibDiamond.sol\":6068:6082  removeFunction */\n  tag_125\n    /* \"contracts/libraries/LibDiamond.sol\":6068:6113  removeFunction(ds, oldFacetAddress, selector) */\n  jump\t// in\ntag_124:\n  not(sub(shl(0xe0, 0x01), 0x01))\n    /* \"contracts/libraries/LibDiamond.sol\":7475:7515  ds.selectorToFacetAndPosition[_selector] */\n  dup3\n  and\n    /* \"contracts/libraries/LibDiamond.sol\":7475:7504  ds.selectorToFacetAndPosition */\n  0x00\n    /* \"contracts/libraries/LibDiamond.sol\":7475:7515  ds.selectorToFacetAndPosition[_selector] */\n  dup2\n  dup2\n  mstore\n  0x20\n  dup8\n  dup2\n  mstore\n  0x40\n  dup1\n  dup4\n  keccak256\n    /* \"contracts/libraries/LibDiamond.sol\":7475:7560  ds.selectorToFacetAndPosition[_selector].functionSelectorPosition = _selectorPosition */\n  dup1\n  sload\n  sub(shl(0xa0, 0x01), 0x01)\n  swap1\n  dup2\n  and\n  shl(0xa0, 0x01)\n  sub(shl(0x60, 0x01), 0x01)\n  dup13\n  and\n  mul\n  or\n  dup3\n  sstore\n    /* \"contracts/libraries/LibDiamond.sol\":7571:7611  ds.facetFunctionSelectors[_facetAddress] */\n  dup13\n  and\n  dup1\n  dup6\n  mstore\n  0x01\n    /* \"contracts/libraries/LibDiamond.sol\":7571:7596  ds.facetFunctionSelectors */\n  dup1\n  dup13\n  add\n    /* \"contracts/libraries/LibDiamond.sol\":7571:7611  ds.facetFunctionSelectors[_facetAddress] */\n  dup6\n  mstore\n  swap3\n  dup6\n  keccak256\n    /* \"contracts/libraries/LibDiamond.sol\":7571:7645  ds.facetFunctionSelectors[_facetAddress].functionSelectors.push(_selector) */\n  dup1\n  sload\n  swap4\n  dup5\n  add\n  dup2\n  sstore\n  dup6\n  mstore\n  dup4\n  dup6\n  keccak256\n  0x08\n  dup5\n  div\n  add\n  dup1\n  sload\n  0xffffffff\n  0x07\n  swap1\n  swap6\n  and\n  0x04\n  mul\n    /* \"contracts/libraries/LibDiamond.sol\":7475:7560  ds.selectorToFacetAndPosition[_selector].functionSelectorPosition = _selectorPosition */\n  0x0100\n    /* \"contracts/libraries/LibDiamond.sol\":7571:7645  ds.facetFunctionSelectors[_facetAddress].functionSelectors.push(_selector) */\n  exp\n  swap5\n  dup6\n  mul\n  not\n  and\n  0xe0\n  dup11\n  swap1\n  shr\n  swap5\n  swap1\n  swap5\n  mul\n  swap4\n  swap1\n  swap4\n  or\n  swap1\n  swap3\n  sstore\n    /* \"contracts/libraries/LibDiamond.sol\":7656:7696  ds.selectorToFacetAndPosition[_selector] */\n  swap4\n  swap1\n  swap3\n  mstore\n  dup8\n  swap1\n  mstore\n    /* \"contracts/libraries/LibDiamond.sol\":7656:7725  ds.selectorToFacetAndPosition[_selector].facetAddress = _facetAddress */\n  dup2\n  sload\n  not(sub(shl(0xa0, 0x01), 0x01))\n  and\n  or\n  swap1\n  sstore\n    /* \"contracts/libraries/LibDiamond.sol\":6201:6219  selectorPosition++ */\n  dup4\n  tag_127\n  dup2\n  tag_106\n  jump\t// in\ntag_127:\n  swap5\n  pop\n  pop\n    /* \"contracts/libraries/LibDiamond.sol\":5778:6231  {... */\n  pop\n  pop\n    /* \"contracts/libraries/LibDiamond.sol\":5761:5776  selectorIndex++ */\n  dup1\n  dup1\n  tag_128\n  swap1\n  tag_78\n  jump\t// in\ntag_128:\n  swap2\n  pop\n  pop\n    /* \"contracts/libraries/LibDiamond.sol\":5690:6231  for (uint256 selectorIndex; selectorIndex < _functionSelectors.length; selectorIndex++) {... */\n  jump(tag_116)\n    /* \"contracts/libraries/LibDiamond.sol\":6246:6998  function removeFunctions(address _facetAddress, bytes4[] memory _functionSelectors) internal {... */\ntag_73:\n    /* \"contracts/libraries/LibDiamond.sol\":6386:6387  0 */\n  0x00\n    /* \"contracts/libraries/LibDiamond.sol\":6358:6376  _functionSelectors */\n  dup2\n    /* \"contracts/libraries/LibDiamond.sol\":6358:6383  _functionSelectors.length */\n  mload\n    /* \"contracts/libraries/LibDiamond.sol\":6358:6387  _functionSelectors.length > 0 */\n  gt\n    /* \"contracts/libraries/LibDiamond.sol\":6350:6435  require(_functionSelectors.length > 0, \"LibDiamondCut: No selectors in facet to cut\") */\n  tag_130\n  jumpi\n  mload(0x40)\n  shl(0xe5, 0x461bcd)\n  dup2\n  mstore\n    /* \"#utility.yul\":4504:4506   */\n  0x20\n    /* \"contracts/libraries/LibDiamond.sol\":6350:6435  require(_functionSelectors.length > 0, \"LibDiamondCut: No selectors in facet to cut\") */\n  0x04\n  dup3\n  add\n    /* \"#utility.yul\":4486:4507   */\n  mstore\n    /* \"#utility.yul\":4543:4545   */\n  0x2b\n    /* \"#utility.yul\":4523:4541   */\n  0x24\n  dup3\n  add\n    /* \"#utility.yul\":4516:4546   */\n  mstore\n  0x00\n  dup1\n  mload\n  0x20\n  data_ef6ab6a2a8a2da01fe010ebde85afcb72a60b2c7c9acd06f2affb5f0f96595b1\n  dup4\n  codecopy\n  dup2\n  mload\n  swap2\n  mstore\n    /* \"#utility.yul\":4562:4580   */\n  0x44\n  dup3\n  add\n    /* \"#utility.yul\":4555:4617   */\n  mstore\n  shl(0xaa, 0x1858d95d081d1bc818dd5d)\n    /* \"#utility.yul\":4633:4651   */\n  0x64\n  dup3\n  add\n    /* \"#utility.yul\":4626:4667   */\n  mstore\n    /* \"#utility.yul\":4684:4703   */\n  0x84\n  add\n    /* \"contracts/libraries/LibDiamond.sol\":6350:6435  require(_functionSelectors.length > 0, \"LibDiamondCut: No selectors in facet to cut\") */\n  tag_75\n    /* \"#utility.yul\":4302:4709   */\n  jump\n    /* \"contracts/libraries/LibDiamond.sol\":6350:6435  require(_functionSelectors.length > 0, \"LibDiamondCut: No selectors in facet to cut\") */\ntag_130:\n  0x00\n  dup1\n  mload\n  0x20\n  data_1ac25121ac50ee96730ac9ae618ddfea240cf59a9860f34e3db50d8def79c035\n  dup4\n  codecopy\n  dup2\n  mload\n  swap2\n  mstore\n  sub(shl(0xa0, 0x01), 0x01)\n    /* \"contracts/libraries/LibDiamond.sol\":6575:6602  _facetAddress == address(0) */\n  dup4\n  and\n  iszero\n    /* \"contracts/libraries/LibDiamond.sol\":6567:6661  require(_facetAddress == address(0), \"LibDiamondCut: Remove facet address must be address(0)\") */\n  tag_133\n  jumpi\n  mload(0x40)\n  shl(0xe5, 0x461bcd)\n  dup2\n  mstore\n    /* \"#utility.yul\":6390:6392   */\n  0x20\n    /* \"contracts/libraries/LibDiamond.sol\":6567:6661  require(_facetAddress == address(0), \"LibDiamondCut: Remove facet address must be address(0)\") */\n  0x04\n  dup3\n  add\n    /* \"#utility.yul\":6372:6393   */\n  mstore\n    /* \"#utility.yul\":6429:6431   */\n  0x36\n    /* \"#utility.yul\":6409:6427   */\n  0x24\n  dup3\n  add\n    /* \"#utility.yul\":6402:6432   */\n  mstore\n    /* \"#utility.yul\":6468:6502   */\n  0x4c69624469616d6f6e644375743a2052656d6f76652066616365742061646472\n    /* \"#utility.yul\":6448:6466   */\n  0x44\n  dup3\n  add\n    /* \"#utility.yul\":6441:6503   */\n  mstore\n    /* \"#utility.yul\":6539:6563   */\n  0x657373206d757374206265206164647265737328302900000000000000000000\n    /* \"#utility.yul\":6519:6537   */\n  0x64\n  dup3\n  add\n    /* \"#utility.yul\":6512:6564   */\n  mstore\n    /* \"#utility.yul\":6581:6600   */\n  0x84\n  add\n    /* \"contracts/libraries/LibDiamond.sol\":6567:6661  require(_facetAddress == address(0), \"LibDiamondCut: Remove facet address must be address(0)\") */\n  tag_75\n    /* \"#utility.yul\":6188:6606   */\n  jump\n    /* \"contracts/libraries/LibDiamond.sol\":6567:6661  require(_facetAddress == address(0), \"LibDiamondCut: Remove facet address must be address(0)\") */\ntag_133:\n    /* \"contracts/libraries/LibDiamond.sol\":6677:6698  uint256 selectorIndex */\n  0x00\n    /* \"contracts/libraries/LibDiamond.sol\":6672:6991  for (uint256 selectorIndex; selectorIndex < _functionSelectors.length; selectorIndex++) {... */\ntag_136:\n    /* \"contracts/libraries/LibDiamond.sol\":6716:6734  _functionSelectors */\n  dup3\n    /* \"contracts/libraries/LibDiamond.sol\":6716:6741  _functionSelectors.length */\n  mload\n    /* \"contracts/libraries/LibDiamond.sol\":6700:6713  selectorIndex */\n  dup2\n    /* \"contracts/libraries/LibDiamond.sol\":6700:6741  selectorIndex < _functionSelectors.length */\n  lt\n    /* \"contracts/libraries/LibDiamond.sol\":6672:6991  for (uint256 selectorIndex; selectorIndex < _functionSelectors.length; selectorIndex++) {... */\n  iszero\n  tag_137\n  jumpi\n    /* \"contracts/libraries/LibDiamond.sol\":6775:6790  bytes4 selector */\n  0x00\n    /* \"contracts/libraries/LibDiamond.sol\":6793:6811  _functionSelectors */\n  dup4\n    /* \"contracts/libraries/LibDiamond.sol\":6812:6825  selectorIndex */\n  dup3\n    /* \"contracts/libraries/LibDiamond.sol\":6793:6826  _functionSelectors[selectorIndex] */\n  dup2\n  mload\n  dup2\n  lt\n  tag_140\n  jumpi\n  tag_140\n  tag_20\n  jump\t// in\ntag_140:\n  0x20\n  swap1\n  dup2\n  mul\n  swap2\n  swap1\n  swap2\n  add\n  dup2\n  add\n  mload\n  not(sub(shl(0xe0, 0x01), 0x01))\n    /* \"contracts/libraries/LibDiamond.sol\":6867:6906  ds.selectorToFacetAndPosition[selector] */\n  dup2\n  and\n    /* \"contracts/libraries/LibDiamond.sol\":6841:6864  address oldFacetAddress */\n  0x00\n    /* \"contracts/libraries/LibDiamond.sol\":6867:6906  ds.selectorToFacetAndPosition[selector] */\n  swap1\n  dup2\n  mstore\n  swap2\n  dup6\n  swap1\n  mstore\n  0x40\n  swap1\n  swap2\n  keccak256\n    /* \"contracts/libraries/LibDiamond.sol\":6867:6919  ds.selectorToFacetAndPosition[selector].facetAddress */\n  sload\n    /* \"contracts/libraries/LibDiamond.sol\":6793:6826  _functionSelectors[selectorIndex] */\n  swap1\n  swap2\n  pop\n  sub(shl(0xa0, 0x01), 0x01)\n    /* \"contracts/libraries/LibDiamond.sol\":6867:6919  ds.selectorToFacetAndPosition[selector].facetAddress */\n  and\n    /* \"contracts/libraries/LibDiamond.sol\":6934:6979  removeFunction(ds, oldFacetAddress, selector) */\n  tag_141\n    /* \"contracts/libraries/LibDiamond.sol\":6867:6869  ds */\n  dup5\n    /* \"contracts/libraries/LibDiamond.sol\":6867:6919  ds.selectorToFacetAndPosition[selector].facetAddress */\n  dup3\n    /* \"contracts/libraries/LibDiamond.sol\":6793:6826  _functionSelectors[selectorIndex] */\n  dup5\n    /* \"contracts/libraries/LibDiamond.sol\":6934:6948  removeFunction */\n  tag_125\n    /* \"contracts/libraries/LibDiamond.sol\":6934:6979  removeFunction(ds, oldFacetAddress, selector) */\n  jump\t// in\ntag_141:\n    /* \"contracts/libraries/LibDiamond.sol\":6760:6991  {... */\n  pop\n  pop\n    /* \"contracts/libraries/LibDiamond.sol\":6743:6758  selectorIndex++ */\n  dup1\n  dup1\n  tag_142\n  swap1\n  tag_78\n  jump\t// in\ntag_142:\n  swap2\n  pop\n  pop\n    /* \"contracts/libraries/LibDiamond.sol\":6672:6991  for (uint256 selectorIndex; selectorIndex < _functionSelectors.length; selectorIndex++) {... */\n  jump(tag_136)\ntag_137:\n  pop\n    /* \"contracts/libraries/LibDiamond.sol\":6339:6998  {... */\n  pop\n    /* \"contracts/libraries/LibDiamond.sol\":6246:6998  function removeFunctions(address _facetAddress, bytes4[] memory _functionSelectors) internal {... */\n  pop\n  pop\n  jump\t// out\n    /* \"contracts/libraries/LibDiamond.sol\":9969:10729  function initializeDiamondCut(address _init, bytes memory _calldata) internal {... */\ntag_82:\n  sub(shl(0xa0, 0x01), 0x01)\n    /* \"contracts/libraries/LibDiamond.sol\":10062:10081  _init == address(0) */\n  dup3\n  and\n    /* \"contracts/libraries/LibDiamond.sol\":10058:10116  if (_init == address(0)) {... */\n  tag_144\n  jumpi\n    /* \"contracts/libraries/LibDiamond.sol\":9969:10729  function initializeDiamondCut(address _init, bytes memory _calldata) internal {... */\n  pop\n  pop\n  jump\t// out\n    /* \"contracts/libraries/LibDiamond.sol\":10058:10116  if (_init == address(0)) {... */\ntag_144:\n    /* \"contracts/libraries/LibDiamond.sol\":10126:10199  enforceHasContractCode(_init, \"LibDiamondCut: _init address has no code\") */\n  tag_145\n    /* \"contracts/libraries/LibDiamond.sol\":10149:10154  _init */\n  dup3\n    /* \"contracts/libraries/LibDiamond.sol\":10126:10199  enforceHasContractCode(_init, \"LibDiamondCut: _init address has no code\") */\n  mload(0x40)\n  dup1\n  0x60\n  add\n  0x40\n  mstore\n  dup1\n  0x28\n  dup2\n  mstore\n  0x20\n  add\n  data_460f8f0920c649146ef02741816b1cf9ce4f02ea288ceb73adf027cefe9069a0\n  0x28\n  swap2\n  codecopy\n    /* \"contracts/libraries/LibDiamond.sol\":10126:10148  enforceHasContractCode */\n  tag_146\n    /* \"contracts/libraries/LibDiamond.sol\":10126:10199  enforceHasContractCode(_init, \"LibDiamondCut: _init address has no code\") */\n  jump\t// in\ntag_145:\n    /* \"contracts/libraries/LibDiamond.sol\":10219:10231  bool success */\n  0x00\n    /* \"contracts/libraries/LibDiamond.sol\":10233:10251  bytes memory error */\n  dup1\n    /* \"contracts/libraries/LibDiamond.sol\":10255:10260  _init */\n  dup4\n  sub(shl(0xa0, 0x01), 0x01)\n    /* \"contracts/libraries/LibDiamond.sol\":10255:10273  _init.delegatecall */\n  and\n    /* \"contracts/libraries/LibDiamond.sol\":10274:10283  _calldata */\n  dup4\n    /* \"contracts/libraries/LibDiamond.sol\":10255:10284  _init.delegatecall(_calldata) */\n  mload(0x40)\n  tag_147\n  swap2\n  swap1\n  tag_148\n  jump\t// in\ntag_147:\n  0x00\n  mload(0x40)\n  dup1\n  dup4\n  sub\n  dup2\n  dup6\n  gas\n  delegatecall\n  swap2\n  pop\n  pop\n  returndatasize\n  dup1\n  0x00\n  dup2\n  eq\n  tag_151\n  jumpi\n  mload(0x40)\n  swap2\n  pop\n  and(add(returndatasize, 0x3f), not(0x1f))\n  dup3\n  add\n  0x40\n  mstore\n  returndatasize\n  dup3\n  mstore\n  returndatasize\n  0x00\n  0x20\n  dup5\n  add\n  returndatacopy\n  jump(tag_150)\ntag_151:\n  0x60\n  swap2\n  pop\ntag_150:\n  pop\n    /* \"contracts/libraries/LibDiamond.sol\":10218:10284  (bool success, bytes memory error) = _init.delegatecall(_calldata) */\n  swap2\n  pop\n  swap2\n  pop\n    /* \"contracts/libraries/LibDiamond.sol\":10300:10307  success */\n  dup2\n    /* \"contracts/libraries/LibDiamond.sol\":10295:10722  if (!success) {... */\n  tag_137\n  jumpi\n    /* \"contracts/libraries/LibDiamond.sol\":10328:10340  error.length */\n  dup1\n  mload\n    /* \"contracts/libraries/LibDiamond.sol\":10328:10344  error.length > 0 */\n  iszero\n    /* \"contracts/libraries/LibDiamond.sol\":10324:10711  if (error.length > 0) {... */\n  tag_153\n  jumpi\n    /* \"contracts/libraries/LibDiamond.sol\":10514:10519  error */\n  dup1\n    /* \"contracts/libraries/LibDiamond.sol\":10508:10520  mload(error) */\n  mload\n    /* \"contracts/libraries/LibDiamond.sol\":10565:10580  returndata_size */\n  dup1\n    /* \"contracts/libraries/LibDiamond.sol\":10557:10562  error */\n  dup3\n    /* \"contracts/libraries/LibDiamond.sol\":10553:10555  32 */\n  0x20\n    /* \"contracts/libraries/LibDiamond.sol\":10549:10563  add(32, error) */\n  add\n    /* \"contracts/libraries/LibDiamond.sol\":10542:10581  revert(add(32, error), returndata_size) */\n  revert\n    /* \"contracts/libraries/LibDiamond.sol\":10324:10711  if (error.length > 0) {... */\ntag_153:\n    /* \"contracts/libraries/LibDiamond.sol\":10678:10683  _init */\n  dup4\n    /* \"contracts/libraries/LibDiamond.sol\":10685:10694  _calldata */\n  dup4\n    /* \"contracts/libraries/LibDiamond.sol\":10647:10695  InitializationFunctionReverted(_init, _calldata) */\n  mload(0x40)\n  shl(0xe0, 0x192105d7)\n  dup2\n  mstore\n  0x04\n  add\n  tag_75\n  swap3\n  swap2\n  swap1\n  tag_156\n  jump\t// in\n    /* \"contracts/libraries/LibDiamond.sol\":7006:7326  function addFacet(DiamondStorage storage ds, address _facetAddress) internal {... */\ntag_94:\n    /* \"contracts/libraries/LibDiamond.sol\":7094:7171  enforceHasContractCode(_facetAddress, \"LibDiamondCut: New facet has no code\") */\n  tag_158\n    /* \"contracts/libraries/LibDiamond.sol\":7117:7130  _facetAddress */\n  dup2\n    /* \"contracts/libraries/LibDiamond.sol\":7094:7171  enforceHasContractCode(_facetAddress, \"LibDiamondCut: New facet has no code\") */\n  mload(0x40)\n  dup1\n  0x60\n  add\n  0x40\n  mstore\n  dup1\n  0x24\n  dup2\n  mstore\n  0x20\n  add\n  data_846ccbeb9c32d4d40d2c1bf991251db6ab65744a2f52b273947cee088a65504b\n  0x24\n  swap2\n  codecopy\n    /* \"contracts/libraries/LibDiamond.sol\":7094:7116  enforceHasContractCode */\n  tag_146\n    /* \"contracts/libraries/LibDiamond.sol\":7094:7171  enforceHasContractCode(_facetAddress, \"LibDiamondCut: New facet has no code\") */\n  jump\t// in\ntag_158:\n    /* \"contracts/libraries/LibDiamond.sol\":7246:7263  ds.facetAddresses */\n  0x02\n  dup3\n  add\n    /* \"contracts/libraries/LibDiamond.sol\":7246:7270  ds.facetAddresses.length */\n  dup1\n  sload\n  sub(shl(0xa0, 0x01), 0x01)\n    /* \"contracts/libraries/LibDiamond.sol\":7182:7222  ds.facetFunctionSelectors[_facetAddress] */\n  swap1\n  swap3\n  and\n  0x00\n  dup2\n  dup2\n  mstore\n    /* \"contracts/libraries/LibDiamond.sol\":7182:7207  ds.facetFunctionSelectors */\n  0x01\n  swap5\n  dup6\n  add\n    /* \"contracts/libraries/LibDiamond.sol\":7182:7222  ds.facetFunctionSelectors[_facetAddress] */\n  0x20\n  swap1\n  dup2\n  mstore\n  0x40\n  dup3\n  keccak256\n    /* \"contracts/libraries/LibDiamond.sol\":7182:7243  ds.facetFunctionSelectors[_facetAddress].facetAddressPosition */\n  dup7\n  add\n    /* \"contracts/libraries/LibDiamond.sol\":7182:7270  ds.facetFunctionSelectors[_facetAddress].facetAddressPosition = ds.facetAddresses.length */\n  dup6\n  swap1\n  sstore\n    /* \"contracts/libraries/LibDiamond.sol\":7281:7318  ds.facetAddresses.push(_facetAddress) */\n  swap5\n  dup5\n  add\n  dup4\n  sstore\n  swap2\n  dup3\n  mstore\n  swap3\n  swap1\n  keccak256\n  add\n  dup1\n  sload\n  not(sub(shl(0xa0, 0x01), 0x01))\n  and\n  swap1\n  swap2\n  or\n  swap1\n  sstore\n    /* \"contracts/libraries/LibDiamond.sol\":7006:7326  function addFacet(DiamondStorage storage ds, address _facetAddress) internal {... */\n  jump\t// out\n    /* \"contracts/libraries/LibDiamond.sol\":7741:9961  function removeFunction(DiamondStorage storage ds, address _facetAddress, bytes4 _selector) internal {        ... */\ntag_125:\n  sub(shl(0xa0, 0x01), 0x01)\n    /* \"contracts/libraries/LibDiamond.sol\":7869:7896  _facetAddress != address(0) */\n  dup3\n  and\n    /* \"contracts/libraries/LibDiamond.sol\":7861:7956  require(_facetAddress != address(0), \"LibDiamondCut: Can't remove function that doesn't exist\") */\n  tag_163\n  jumpi\n  mload(0x40)\n  shl(0xe5, 0x461bcd)\n  dup2\n  mstore\n    /* \"#utility.yul\":7424:7426   */\n  0x20\n    /* \"contracts/libraries/LibDiamond.sol\":7861:7956  require(_facetAddress != address(0), \"LibDiamondCut: Can't remove function that doesn't exist\") */\n  0x04\n  dup3\n  add\n    /* \"#utility.yul\":7406:7427   */\n  mstore\n    /* \"#utility.yul\":7463:7465   */\n  0x37\n    /* \"#utility.yul\":7443:7461   */\n  0x24\n  dup3\n  add\n    /* \"#utility.yul\":7436:7466   */\n  mstore\n    /* \"#utility.yul\":7502:7536   */\n  0x4c69624469616d6f6e644375743a2043616e27742072656d6f76652066756e63\n    /* \"#utility.yul\":7482:7500   */\n  0x44\n  dup3\n  add\n    /* \"#utility.yul\":7475:7537   */\n  mstore\n    /* \"#utility.yul\":7573:7598   */\n  0x74696f6e207468617420646f65736e2774206578697374000000000000000000\n    /* \"#utility.yul\":7553:7571   */\n  0x64\n  dup3\n  add\n    /* \"#utility.yul\":7546:7599   */\n  mstore\n    /* \"#utility.yul\":7616:7635   */\n  0x84\n  add\n    /* \"contracts/libraries/LibDiamond.sol\":7861:7956  require(_facetAddress != address(0), \"LibDiamondCut: Can't remove function that doesn't exist\") */\n  tag_75\n    /* \"#utility.yul\":7222:7641   */\n  jump\n    /* \"contracts/libraries/LibDiamond.sol\":7861:7956  require(_facetAddress != address(0), \"LibDiamondCut: Can't remove function that doesn't exist\") */\ntag_163:\n    /* \"contracts/libraries/LibDiamond.sol\":8078:8082  this */\n  address\n  sub(shl(0xa0, 0x01), 0x01)\n    /* \"contracts/libraries/LibDiamond.sol\":8053:8083  _facetAddress != address(this) */\n  dup4\n  and\n  sub\n    /* \"contracts/libraries/LibDiamond.sol\":8045:8134  require(_facetAddress != address(this), \"LibDiamondCut: Can't remove immutable function\") */\n  tag_166\n  jumpi\n  mload(0x40)\n  shl(0xe5, 0x461bcd)\n  dup2\n  mstore\n    /* \"#utility.yul\":7848:7850   */\n  0x20\n    /* \"contracts/libraries/LibDiamond.sol\":8045:8134  require(_facetAddress != address(this), \"LibDiamondCut: Can't remove immutable function\") */\n  0x04\n  dup3\n  add\n    /* \"#utility.yul\":7830:7851   */\n  mstore\n    /* \"#utility.yul\":7887:7889   */\n  0x2e\n    /* \"#utility.yul\":7867:7885   */\n  0x24\n  dup3\n  add\n    /* \"#utility.yul\":7860:7890   */\n  mstore\n    /* \"#utility.yul\":7926:7960   */\n  0x4c69624469616d6f6e644375743a2043616e27742072656d6f766520696d6d75\n    /* \"#utility.yul\":7906:7924   */\n  0x44\n  dup3\n  add\n    /* \"#utility.yul\":7899:7961   */\n  mstore\n  shl(0x91, 0x3a30b1363290333ab731ba34b7b7)\n    /* \"#utility.yul\":7977:7995   */\n  0x64\n  dup3\n  add\n    /* \"#utility.yul\":7970:8014   */\n  mstore\n    /* \"#utility.yul\":8031:8050   */\n  0x84\n  add\n    /* \"contracts/libraries/LibDiamond.sol\":8045:8134  require(_facetAddress != address(this), \"LibDiamondCut: Can't remove immutable function\") */\n  tag_75\n    /* \"#utility.yul\":7646:8056   */\n  jump\n    /* \"contracts/libraries/LibDiamond.sol\":8045:8134  require(_facetAddress != address(this), \"LibDiamondCut: Can't remove immutable function\") */\ntag_166:\n  not(sub(shl(0xe0, 0x01), 0x01))\n    /* \"contracts/libraries/LibDiamond.sol\":8247:8287  ds.selectorToFacetAndPosition[_selector] */\n  dup2\n  and\n    /* \"contracts/libraries/LibDiamond.sol\":8220:8244  uint256 selectorPosition */\n  0x00\n    /* \"contracts/libraries/LibDiamond.sol\":8247:8287  ds.selectorToFacetAndPosition[_selector] */\n  swap1\n  dup2\n  mstore\n  0x20\n  dup5\n  dup2\n  mstore\n  0x40\n  dup1\n  dup4\n  keccak256\n    /* \"contracts/libraries/LibDiamond.sol\":8247:8312  ds.selectorToFacetAndPosition[_selector].functionSelectorPosition */\n  sload\n  sub(shl(0xa0, 0x01), 0x01)\n    /* \"contracts/libraries/LibDiamond.sol\":8354:8394  ds.facetFunctionSelectors[_facetAddress] */\n  dup7\n  and\n  dup5\n  mstore\n    /* \"contracts/libraries/LibDiamond.sol\":8422:8423  1 */\n  0x01\n    /* \"contracts/libraries/LibDiamond.sol\":8354:8379  ds.facetFunctionSelectors */\n  dup1\n  dup9\n  add\n    /* \"contracts/libraries/LibDiamond.sol\":8354:8394  ds.facetFunctionSelectors[_facetAddress] */\n  swap1\n  swap4\n  mstore\n  swap1\n  dup4\n  keccak256\n    /* \"contracts/libraries/LibDiamond.sol\":8354:8419  ds.facetFunctionSelectors[_facetAddress].functionSelectors.length */\n  sload\n  shl(0xa0, 0x01)\n    /* \"contracts/libraries/LibDiamond.sol\":8247:8312  ds.selectorToFacetAndPosition[_selector].functionSelectorPosition */\n  swap1\n  swap2\n  div\n  sub(shl(0x60, 0x01), 0x01)\n  and\n  swap3\n    /* \"contracts/libraries/LibDiamond.sol\":8220:8244  uint256 selectorPosition */\n  swap2\n    /* \"contracts/libraries/LibDiamond.sol\":8354:8423  ds.facetFunctionSelectors[_facetAddress].functionSelectors.length - 1 */\n  tag_169\n  swap2\n  tag_170\n  jump\t// in\ntag_169:\n    /* \"contracts/libraries/LibDiamond.sol\":8323:8423  uint256 lastSelectorPosition = ds.facetFunctionSelectors[_facetAddress].functionSelectors.length - 1 */\n  swap1\n  pop\n    /* \"contracts/libraries/LibDiamond.sol\":8527:8547  lastSelectorPosition */\n  dup1\n    /* \"contracts/libraries/LibDiamond.sol\":8507:8523  selectorPosition */\n  dup3\n    /* \"contracts/libraries/LibDiamond.sol\":8507:8547  selectorPosition != lastSelectorPosition */\n  eq\n    /* \"contracts/libraries/LibDiamond.sol\":8503:8894  if (selectorPosition != lastSelectorPosition) {... */\n  tag_171\n  jumpi\n  sub(shl(0xa0, 0x01), 0x01)\n    /* \"contracts/libraries/LibDiamond.sol\":8586:8626  ds.facetFunctionSelectors[_facetAddress] */\n  dup5\n  and\n    /* \"contracts/libraries/LibDiamond.sol\":8564:8583  bytes4 lastSelector */\n  0x00\n    /* \"contracts/libraries/LibDiamond.sol\":8586:8626  ds.facetFunctionSelectors[_facetAddress] */\n  swap1\n  dup2\n  mstore\n    /* \"contracts/libraries/LibDiamond.sol\":8586:8611  ds.facetFunctionSelectors */\n  0x01\n  dup7\n  add\n    /* \"contracts/libraries/LibDiamond.sol\":8586:8626  ds.facetFunctionSelectors[_facetAddress] */\n  0x20\n  mstore\n  0x40\n  dup2\n  keccak256\n    /* \"contracts/libraries/LibDiamond.sol\":8586:8666  ds.facetFunctionSelectors[_facetAddress].functionSelectors[lastSelectorPosition] */\n  dup1\n  sload\n    /* \"contracts/libraries/LibDiamond.sol\":8645:8665  lastSelectorPosition */\n  dup4\n  swap1\n    /* \"contracts/libraries/LibDiamond.sol\":8586:8666  ds.facetFunctionSelectors[_facetAddress].functionSelectors[lastSelectorPosition] */\n  dup2\n  lt\n  tag_173\n  jumpi\n  tag_173\n  tag_20\n  jump\t// in\ntag_173:\n  0x00\n  swap2\n  dup3\n  mstore\n  0x20\n  dup1\n  dup4\n  keccak256\n  0x08\n  dup4\n  div\n  add\n  sload\n  sub(shl(0xa0, 0x01), 0x01)\n    /* \"contracts/libraries/LibDiamond.sol\":8681:8721  ds.facetFunctionSelectors[_facetAddress] */\n  dup10\n  and\n  dup5\n  mstore\n    /* \"contracts/libraries/LibDiamond.sol\":8681:8706  ds.facetFunctionSelectors */\n  0x01\n  dup11\n  add\n    /* \"contracts/libraries/LibDiamond.sol\":8681:8721  ds.facetFunctionSelectors[_facetAddress] */\n  swap1\n  swap2\n  mstore\n  0x40\n  swap1\n  swap3\n  keccak256\n    /* \"contracts/libraries/LibDiamond.sol\":8681:8757  ds.facetFunctionSelectors[_facetAddress].functionSelectors[selectorPosition] */\n  dup1\n  sload\n    /* \"contracts/libraries/LibDiamond.sol\":8586:8666  ds.facetFunctionSelectors[_facetAddress].functionSelectors[lastSelectorPosition] */\n  0x07\n  swap1\n  swap3\n  and\n  0x04\n  mul\n  0x0100\n  exp\n  swap1\n  swap3\n  div\n  0xe0\n  shl\n  swap3\n  pop\n  dup3\n  swap2\n    /* \"contracts/libraries/LibDiamond.sol\":8681:8721  ds.facetFunctionSelectors[_facetAddress] */\n  swap1\n    /* \"contracts/libraries/LibDiamond.sol\":8740:8756  selectorPosition */\n  dup6\n  swap1\n    /* \"contracts/libraries/LibDiamond.sol\":8681:8757  ds.facetFunctionSelectors[_facetAddress].functionSelectors[selectorPosition] */\n  dup2\n  lt\n  tag_176\n  jumpi\n  tag_176\n  tag_20\n  jump\t// in\ntag_176:\n  0x00\n  swap2\n  dup3\n  mstore\n  0x20\n  dup1\n  dup4\n  keccak256\n  0x08\n  dup4\n  div\n  add\n    /* \"contracts/libraries/LibDiamond.sol\":8681:8772  ds.facetFunctionSelectors[_facetAddress].functionSelectors[selectorPosition] = lastSelector */\n  dup1\n  sload\n  0xffffffff\n    /* \"contracts/libraries/LibDiamond.sol\":8681:8757  ds.facetFunctionSelectors[_facetAddress].functionSelectors[selectorPosition] */\n  0x07\n  swap1\n  swap5\n  and\n  0x04\n  mul\n    /* \"contracts/libraries/LibDiamond.sol\":8681:8772  ds.facetFunctionSelectors[_facetAddress].functionSelectors[selectorPosition] = lastSelector */\n  0x0100\n  exp\n  swap4\n  dup5\n  mul\n  not\n  and\n  0xe0\n  swap6\n  swap1\n  swap6\n  shr\n  swap3\n  swap1\n  swap3\n  mul\n  swap4\n  swap1\n  swap4\n  or\n  swap1\n  sstore\n  not(sub(shl(0xe0, 0x01), 0x01))\n    /* \"contracts/libraries/LibDiamond.sol\":8787:8830  ds.selectorToFacetAndPosition[lastSelector] */\n  swap3\n  swap1\n  swap3\n  and\n  dup3\n  mstore\n  dup7\n  swap1\n  mstore\n  0x40\n  swap1\n  keccak256\n    /* \"contracts/libraries/LibDiamond.sol\":8787:8882  ds.selectorToFacetAndPosition[lastSelector].functionSelectorPosition = uint96(selectorPosition) */\n  dup1\n  sload\n  sub(shl(0xa0, 0x01), 0x01)\n  and\n  shl(0xa0, 0x01)\n  sub(shl(0x60, 0x01), 0x01)\n  dup6\n  and\n  mul\n  or\n  swap1\n  sstore\n    /* \"contracts/libraries/LibDiamond.sol\":8503:8894  if (selectorPosition != lastSelectorPosition) {... */\ntag_171:\n  sub(shl(0xa0, 0x01), 0x01)\n    /* \"contracts/libraries/LibDiamond.sol\":8941:8981  ds.facetFunctionSelectors[_facetAddress] */\n  dup5\n  and\n  0x00\n  swap1\n  dup2\n  mstore\n    /* \"contracts/libraries/LibDiamond.sol\":8941:8966  ds.facetFunctionSelectors */\n  0x01\n  dup7\n  add\n    /* \"contracts/libraries/LibDiamond.sol\":8941:8981  ds.facetFunctionSelectors[_facetAddress] */\n  0x20\n  mstore\n  0x40\n  swap1\n  keccak256\n    /* \"contracts/libraries/LibDiamond.sol\":8941:9005  ds.facetFunctionSelectors[_facetAddress].functionSelectors.pop() */\n  dup1\n  sload\n  dup1\n  tag_179\n  jumpi\n  tag_179\n  tag_180\n  jump\t// in\ntag_179:\n  0x00\n  dup3\n  dup2\n  mstore\n  0x20\n  dup1\n  dup3\n  keccak256\n  0x08\n  not(0x00)\n  swap1\n  swap5\n  add\n  swap4\n  dup5\n  div\n  add\n  dup1\n  sload\n  0xffffffff\n  0x04\n  0x07\n  dup8\n  and\n  mul\n  0x0100\n  exp\n  mul\n  not\n  and\n  swap1\n  sstore\n  swap2\n  swap1\n  swap3\n  sstore\n  not(sub(shl(0xe0, 0x01), 0x01))\n    /* \"contracts/libraries/LibDiamond.sol\":9023:9063  ds.selectorToFacetAndPosition[_selector] */\n  dup6\n  and\n  dup3\n  mstore\n  dup7\n  swap1\n  mstore\n  0x40\n  dup2\n  keccak256\n    /* \"contracts/libraries/LibDiamond.sol\":9016:9063  delete ds.selectorToFacetAndPosition[_selector] */\n  dup2\n  swap1\n  sstore\n    /* \"contracts/libraries/LibDiamond.sol\":9161:9186  lastSelectorPosition == 0 */\n  dup2\n  swap1\n  sub\n    /* \"contracts/libraries/LibDiamond.sol\":9157:9954  if (lastSelectorPosition == 0) {... */\n  tag_96\n  jumpi\n    /* \"contracts/libraries/LibDiamond.sol\":9330:9347  ds.facetAddresses */\n  0x02\n  dup6\n  add\n    /* \"contracts/libraries/LibDiamond.sol\":9330:9354  ds.facetAddresses.length */\n  sload\n    /* \"contracts/libraries/LibDiamond.sol\":9295:9327  uint256 lastFacetAddressPosition */\n  0x00\n  swap1\n    /* \"contracts/libraries/LibDiamond.sol\":9330:9358  ds.facetAddresses.length - 1 */\n  tag_183\n  swap1\n    /* \"contracts/libraries/LibDiamond.sol\":9357:9358  1 */\n  0x01\n  swap1\n    /* \"contracts/libraries/LibDiamond.sol\":9330:9358  ds.facetAddresses.length - 1 */\n  tag_170\n  jump\t// in\ntag_183:\n  sub(shl(0xa0, 0x01), 0x01)\n    /* \"contracts/libraries/LibDiamond.sol\":9404:9444  ds.facetFunctionSelectors[_facetAddress] */\n  dup7\n  and\n    /* \"contracts/libraries/LibDiamond.sol\":9373:9401  uint256 facetAddressPosition */\n  0x00\n    /* \"contracts/libraries/LibDiamond.sol\":9404:9444  ds.facetFunctionSelectors[_facetAddress] */\n  swap1\n  dup2\n  mstore\n    /* \"contracts/libraries/LibDiamond.sol\":9404:9429  ds.facetFunctionSelectors */\n  0x01\n  dup1\n  dup10\n  add\n    /* \"contracts/libraries/LibDiamond.sol\":9404:9444  ds.facetFunctionSelectors[_facetAddress] */\n  0x20\n  mstore\n  0x40\n  swap1\n  swap2\n  keccak256\n    /* \"contracts/libraries/LibDiamond.sol\":9404:9465  ds.facetFunctionSelectors[_facetAddress].facetAddressPosition */\n  add\n  sload\n    /* \"contracts/libraries/LibDiamond.sol\":9295:9358  uint256 lastFacetAddressPosition = ds.facetAddresses.length - 1 */\n  swap1\n  swap2\n  pop\n    /* \"contracts/libraries/LibDiamond.sol\":9484:9532  facetAddressPosition != lastFacetAddressPosition */\n  dup1\n  dup3\n  eq\n    /* \"contracts/libraries/LibDiamond.sol\":9480:9822  if (facetAddressPosition != lastFacetAddressPosition) {... */\n  tag_184\n  jumpi\n    /* \"contracts/libraries/LibDiamond.sol\":9553:9577  address lastFacetAddress */\n  0x00\n    /* \"contracts/libraries/LibDiamond.sol\":9580:9582  ds */\n  dup8\n    /* \"contracts/libraries/LibDiamond.sol\":9580:9597  ds.facetAddresses */\n  0x02\n  add\n    /* \"contracts/libraries/LibDiamond.sol\":9598:9622  lastFacetAddressPosition */\n  dup4\n    /* \"contracts/libraries/LibDiamond.sol\":9580:9623  ds.facetAddresses[lastFacetAddressPosition] */\n  dup2\n  sload\n  dup2\n  lt\n  tag_186\n  jumpi\n  tag_186\n  tag_20\n  jump\t// in\ntag_186:\n  0x00\n  swap2\n  dup3\n  mstore\n  0x20\n  swap1\n  swap2\n  keccak256\n  add\n  sload\n    /* \"contracts/libraries/LibDiamond.sol\":9642:9659  ds.facetAddresses */\n  0x02\n  dup10\n  add\n    /* \"contracts/libraries/LibDiamond.sol\":9642:9681  ds.facetAddresses[facetAddressPosition] */\n  dup1\n  sload\n  sub(shl(0xa0, 0x01), 0x01)\n    /* \"contracts/libraries/LibDiamond.sol\":9580:9623  ds.facetAddresses[lastFacetAddressPosition] */\n  swap1\n  swap3\n  and\n  swap3\n  pop\n  dup3\n  swap2\n    /* \"contracts/libraries/LibDiamond.sol\":9660:9680  facetAddressPosition */\n  dup5\n  swap1\n    /* \"contracts/libraries/LibDiamond.sol\":9642:9681  ds.facetAddresses[facetAddressPosition] */\n  dup2\n  lt\n  tag_189\n  jumpi\n  tag_189\n  tag_20\n  jump\t// in\ntag_189:\n  0x00\n  swap2\n  dup3\n  mstore\n  0x20\n  dup1\n  dup4\n  keccak256\n  swap2\n  swap1\n  swap2\n  add\n    /* \"contracts/libraries/LibDiamond.sol\":9642:9700  ds.facetAddresses[facetAddressPosition] = lastFacetAddress */\n  dup1\n  sload\n  not(sub(shl(0xa0, 0x01), 0x01))\n  and\n  sub(shl(0xa0, 0x01), 0x01)\n  swap5\n  dup6\n  and\n  or\n  swap1\n  sstore\n    /* \"contracts/libraries/LibDiamond.sol\":9719:9762  ds.facetFunctionSelectors[lastFacetAddress] */\n  swap3\n  swap1\n  swap2\n  and\n  dup2\n  mstore\n  0x01\n    /* \"contracts/libraries/LibDiamond.sol\":9719:9744  ds.facetFunctionSelectors */\n  dup10\n  dup2\n  add\n    /* \"contracts/libraries/LibDiamond.sol\":9719:9762  ds.facetFunctionSelectors[lastFacetAddress] */\n  swap1\n  swap3\n  mstore\n  0x40\n  swap1\n  keccak256\n    /* \"contracts/libraries/LibDiamond.sol\":9719:9783  ds.facetFunctionSelectors[lastFacetAddress].facetAddressPosition */\n  add\n    /* \"contracts/libraries/LibDiamond.sol\":9719:9806  ds.facetFunctionSelectors[lastFacetAddress].facetAddressPosition = facetAddressPosition */\n  dup2\n  swap1\n  sstore\n    /* \"contracts/libraries/LibDiamond.sol\":9480:9822  if (facetAddressPosition != lastFacetAddressPosition) {... */\ntag_184:\n    /* \"contracts/libraries/LibDiamond.sol\":9836:9838  ds */\n  dup7\n    /* \"contracts/libraries/LibDiamond.sol\":9836:9853  ds.facetAddresses */\n  0x02\n  add\n    /* \"contracts/libraries/LibDiamond.sol\":9836:9859  ds.facetAddresses.pop() */\n  dup1\n  sload\n  dup1\n  tag_192\n  jumpi\n  tag_192\n  tag_180\n  jump\t// in\ntag_192:\n  0x00\n  dup3\n  dup2\n  mstore\n  0x20\n  dup1\n  dup3\n  keccak256\n  dup4\n  add\n  not(0x00)\n  swap1\n  dup2\n  add\n  dup1\n  sload\n  not(sub(shl(0xa0, 0x01), 0x01))\n  and\n  swap1\n  sstore\n  swap1\n  swap3\n  add\n  swap1\n  swap3\n  sstore\n  sub(shl(0xa0, 0x01), 0x01)\n    /* \"contracts/libraries/LibDiamond.sol\":9881:9921  ds.facetFunctionSelectors[_facetAddress] */\n  dup9\n  and\n  dup3\n  mstore\n    /* \"contracts/libraries/LibDiamond.sol\":9836:9859  ds.facetAddresses.pop() */\n  0x01\n    /* \"contracts/libraries/LibDiamond.sol\":9881:9906  ds.facetFunctionSelectors */\n  dup10\n  dup2\n  add\n    /* \"contracts/libraries/LibDiamond.sol\":9881:9921  ds.facetFunctionSelectors[_facetAddress] */\n  swap1\n  swap2\n  mstore\n  0x40\n  dup3\n  keccak256\n    /* \"contracts/libraries/LibDiamond.sol\":9881:9942  ds.facetFunctionSelectors[_facetAddress].facetAddressPosition */\n  add\n    /* \"contracts/libraries/LibDiamond.sol\":9874:9942  delete ds.facetFunctionSelectors[_facetAddress].facetAddressPosition */\n  sstore\n  pop\n  pop\n    /* \"contracts/libraries/LibDiamond.sol\":7842:9961  {        ... */\n  pop\n  pop\n    /* \"contracts/libraries/LibDiamond.sol\":7741:9961  function removeFunction(DiamondStorage storage ds, address _facetAddress, bytes4 _selector) internal {        ... */\n  pop\n  pop\n  pop\n  jump\t// out\n    /* \"contracts/libraries/LibDiamond.sol\":10737:11004  function enforceHasContractCode(address _contract, string memory _errorMessage) internal view {... */\ntag_146:\n    /* \"contracts/libraries/LibDiamond.sol\":10913:10935  extcodesize(_contract) */\n  dup2\n  extcodesize\n    /* \"contracts/libraries/LibDiamond.sol\":10982:10995  _errorMessage */\n  dup2\n    /* \"contracts/libraries/LibDiamond.sol\":10964:10980  contractSize > 0 */\n  dup2\n    /* \"contracts/libraries/LibDiamond.sol\":10956:10996  require(contractSize > 0, _errorMessage) */\n  tag_137\n  jumpi\n  mload(0x40)\n  shl(0xe5, 0x461bcd)\n  dup2\n  mstore\n  0x04\n  add\n  tag_75\n  swap2\n  swap1\n  tag_197\n  jump\t// in\n    /* \"#utility.yul\":14:191   */\ntag_200:\n    /* \"#utility.yul\":93:106   */\n  dup1\n  mload\n  sub(shl(0xa0, 0x01), 0x01)\n    /* \"#utility.yul\":135:166   */\n  dup2\n  and\n    /* \"#utility.yul\":125:167   */\n  dup2\n  eq\n    /* \"#utility.yul\":115:185   */\n  tag_207\n  jumpi\n    /* \"#utility.yul\":181:182   */\n  0x00\n    /* \"#utility.yul\":178:179   */\n  dup1\n    /* \"#utility.yul\":171:183   */\n  revert\n    /* \"#utility.yul\":115:185   */\ntag_207:\n    /* \"#utility.yul\":14:191   */\n  swap2\n  swap1\n  pop\n  jump\t// out\n    /* \"#utility.yul\":196:489   */\ntag_2:\n    /* \"#utility.yul\":275:281   */\n  0x00\n    /* \"#utility.yul\":283:289   */\n  dup1\n    /* \"#utility.yul\":336:338   */\n  0x40\n    /* \"#utility.yul\":324:333   */\n  dup4\n    /* \"#utility.yul\":315:322   */\n  dup6\n    /* \"#utility.yul\":311:334   */\n  sub\n    /* \"#utility.yul\":307:339   */\n  slt\n    /* \"#utility.yul\":304:356   */\n  iszero\n  tag_209\n  jumpi\n    /* \"#utility.yul\":352:353   */\n  0x00\n    /* \"#utility.yul\":349:350   */\n  dup1\n    /* \"#utility.yul\":342:354   */\n  revert\n    /* \"#utility.yul\":304:356   */\ntag_209:\n    /* \"#utility.yul\":375:415   */\n  tag_210\n    /* \"#utility.yul\":405:414   */\n  dup4\n    /* \"#utility.yul\":375:415   */\n  tag_200\n  jump\t// in\ntag_210:\n    /* \"#utility.yul\":365:415   */\n  swap2\n  pop\n    /* \"#utility.yul\":434:483   */\n  tag_211\n    /* \"#utility.yul\":479:481   */\n  0x20\n    /* \"#utility.yul\":468:477   */\n  dup5\n    /* \"#utility.yul\":464:482   */\n  add\n    /* \"#utility.yul\":434:483   */\n  tag_200\n  jump\t// in\ntag_211:\n    /* \"#utility.yul\":424:483   */\n  swap1\n  pop\n    /* \"#utility.yul\":196:489   */\n  swap3\n  pop\n  swap3\n  swap1\n  pop\n  jump\t// out\n    /* \"#utility.yul\":626:753   */\ntag_20:\n    /* \"#utility.yul\":687:697   */\n  0x4e487b71\n    /* \"#utility.yul\":682:685   */\n  0xe0\n    /* \"#utility.yul\":678:698   */\n  shl\n    /* \"#utility.yul\":675:676   */\n  0x00\n    /* \"#utility.yul\":668:699   */\n  mstore\n    /* \"#utility.yul\":718:722   */\n  0x32\n    /* \"#utility.yul\":715:716   */\n  0x04\n    /* \"#utility.yul\":708:723   */\n  mstore\n    /* \"#utility.yul\":742:746   */\n  0x24\n    /* \"#utility.yul\":739:740   */\n  0x00\n    /* \"#utility.yul\":732:747   */\n  revert\n    /* \"#utility.yul\":758:885   */\ntag_23:\n    /* \"#utility.yul\":819:829   */\n  0x4e487b71\n    /* \"#utility.yul\":814:817   */\n  0xe0\n    /* \"#utility.yul\":810:830   */\n  shl\n    /* \"#utility.yul\":807:808   */\n  0x00\n    /* \"#utility.yul\":800:831   */\n  mstore\n    /* \"#utility.yul\":850:854   */\n  0x21\n    /* \"#utility.yul\":847:848   */\n  0x04\n    /* \"#utility.yul\":840:855   */\n  mstore\n    /* \"#utility.yul\":874:878   */\n  0x24\n    /* \"#utility.yul\":871:872   */\n  0x00\n    /* \"#utility.yul\":864:879   */\n  revert\n    /* \"#utility.yul\":1298:1425   */\ntag_201:\n    /* \"#utility.yul\":1359:1369   */\n  0x4e487b71\n    /* \"#utility.yul\":1354:1357   */\n  0xe0\n    /* \"#utility.yul\":1350:1370   */\n  shl\n    /* \"#utility.yul\":1347:1348   */\n  0x00\n    /* \"#utility.yul\":1340:1371   */\n  mstore\n    /* \"#utility.yul\":1390:1394   */\n  0x11\n    /* \"#utility.yul\":1387:1388   */\n  0x04\n    /* \"#utility.yul\":1380:1395   */\n  mstore\n    /* \"#utility.yul\":1414:1418   */\n  0x24\n    /* \"#utility.yul\":1411:1412   */\n  0x00\n    /* \"#utility.yul\":1404:1419   */\n  revert\n    /* \"#utility.yul\":1430:1565   */\ntag_78:\n    /* \"#utility.yul\":1469:1472   */\n  0x00\n    /* \"#utility.yul\":1490:1507   */\n  0x01\n  dup3\n  add\n    /* \"#utility.yul\":1487:1530   */\n  tag_219\n  jumpi\n    /* \"#utility.yul\":1510:1528   */\n  tag_219\n  tag_201\n  jump\t// in\ntag_219:\n  pop\n    /* \"#utility.yul\":1557:1558   */\n  0x01\n    /* \"#utility.yul\":1546:1559   */\n  add\n  swap1\n    /* \"#utility.yul\":1430:1565   */\n  jump\t// out\n    /* \"#utility.yul\":1679:1929   */\ntag_203:\n    /* \"#utility.yul\":1764:1765   */\n  0x00\n    /* \"#utility.yul\":1774:1887   */\ntag_222:\n    /* \"#utility.yul\":1788:1794   */\n  dup4\n    /* \"#utility.yul\":1785:1786   */\n  dup2\n    /* \"#utility.yul\":1782:1795   */\n  lt\n    /* \"#utility.yul\":1774:1887   */\n  iszero\n  tag_224\n  jumpi\n    /* \"#utility.yul\":1864:1875   */\n  dup2\n  dup2\n  add\n    /* \"#utility.yul\":1858:1876   */\n  mload\n    /* \"#utility.yul\":1845:1856   */\n  dup4\n  dup3\n  add\n    /* \"#utility.yul\":1838:1877   */\n  mstore\n    /* \"#utility.yul\":1810:1812   */\n  0x20\n    /* \"#utility.yul\":1803:1813   */\n  add\n    /* \"#utility.yul\":1774:1887   */\n  jump(tag_222)\ntag_224:\n  pop\n  pop\n    /* \"#utility.yul\":1921:1922   */\n  0x00\n    /* \"#utility.yul\":1903:1919   */\n  swap2\n  add\n    /* \"#utility.yul\":1896:1923   */\n  mstore\n    /* \"#utility.yul\":1679:1929   */\n  jump\t// out\n    /* \"#utility.yul\":1934:2204   */\ntag_204:\n    /* \"#utility.yul\":1975:1978   */\n  0x00\n    /* \"#utility.yul\":2013:2018   */\n  dup2\n    /* \"#utility.yul\":2007:2019   */\n  mload\n    /* \"#utility.yul\":2040:2046   */\n  dup1\n    /* \"#utility.yul\":2035:2038   */\n  dup5\n    /* \"#utility.yul\":2028:2047   */\n  mstore\n    /* \"#utility.yul\":2056:2132   */\n  tag_226\n    /* \"#utility.yul\":2125:2131   */\n  dup2\n    /* \"#utility.yul\":2118:2122   */\n  0x20\n    /* \"#utility.yul\":2113:2116   */\n  dup7\n    /* \"#utility.yul\":2109:2123   */\n  add\n    /* \"#utility.yul\":2102:2106   */\n  0x20\n    /* \"#utility.yul\":2095:2100   */\n  dup7\n    /* \"#utility.yul\":2091:2107   */\n  add\n    /* \"#utility.yul\":2056:2132   */\n  tag_203\n  jump\t// in\ntag_226:\n    /* \"#utility.yul\":2186:2188   */\n  0x1f\n    /* \"#utility.yul\":2165:2180   */\n  add\n  not(0x1f)\n    /* \"#utility.yul\":2161:2190   */\n  and\n    /* \"#utility.yul\":2152:2191   */\n  swap3\n  swap1\n  swap3\n  add\n    /* \"#utility.yul\":2193:2197   */\n  0x20\n    /* \"#utility.yul\":2148:2198   */\n  add\n  swap3\n    /* \"#utility.yul\":1934:2204   */\n  swap2\n  pop\n  pop\n  jump\t// out\n    /* \"#utility.yul\":2209:4297   */\ntag_80:\n    /* \"#utility.yul\":2475:2479   */\n  0x00\n    /* \"#utility.yul\":2504:2506   */\n  0x60\n    /* \"#utility.yul\":2544:2546   */\n  dup1\n    /* \"#utility.yul\":2533:2542   */\n  dup4\n    /* \"#utility.yul\":2529:2547   */\n  add\n    /* \"#utility.yul\":2574:2576   */\n  dup2\n    /* \"#utility.yul\":2563:2572   */\n  dup5\n    /* \"#utility.yul\":2556:2577   */\n  mstore\n    /* \"#utility.yul\":2597:2603   */\n  dup1\n    /* \"#utility.yul\":2632:2638   */\n  dup8\n    /* \"#utility.yul\":2626:2639   */\n  mload\n    /* \"#utility.yul\":2663:2669   */\n  dup1\n    /* \"#utility.yul\":2655:2661   */\n  dup4\n    /* \"#utility.yul\":2648:2670   */\n  mstore\n    /* \"#utility.yul\":2689:2692   */\n  0x80\n    /* \"#utility.yul\":2679:2692   */\n  swap3\n  pop\n    /* \"#utility.yul\":2723:2725   */\n  dup3\n    /* \"#utility.yul\":2712:2721   */\n  dup7\n    /* \"#utility.yul\":2708:2726   */\n  add\n    /* \"#utility.yul\":2701:2726   */\n  swap2\n  pop\n    /* \"#utility.yul\":2785:2787   */\n  dup3\n    /* \"#utility.yul\":2775:2781   */\n  dup2\n    /* \"#utility.yul\":2772:2773   */\n  0x05\n    /* \"#utility.yul\":2768:2782   */\n  shl\n    /* \"#utility.yul\":2757:2766   */\n  dup8\n    /* \"#utility.yul\":2753:2783   */\n  add\n    /* \"#utility.yul\":2749:2788   */\n  add\n    /* \"#utility.yul\":2807:2811   */\n  0x20\n    /* \"#utility.yul\":2846:2848   */\n  dup1\n    /* \"#utility.yul\":2838:2844   */\n  dup12\n    /* \"#utility.yul\":2834:2849   */\n  add\n    /* \"#utility.yul\":2867:2868   */\n  0x00\n    /* \"#utility.yul\":2877:4126   */\ntag_228:\n    /* \"#utility.yul\":2891:2897   */\n  dup5\n    /* \"#utility.yul\":2888:2889   */\n  dup2\n    /* \"#utility.yul\":2885:2898   */\n  lt\n    /* \"#utility.yul\":2877:4126   */\n  iszero\n  tag_230\n  jumpi\n    /* \"#utility.yul\":2956:2978   */\n  dup10\n  dup5\n  sub\n  not(0x7f)\n    /* \"#utility.yul\":2952:2989   */\n  add\n    /* \"#utility.yul\":2940:2990   */\n  dup7\n  mstore\n    /* \"#utility.yul\":3013:3026   */\n  dup2\n  mload\n    /* \"#utility.yul\":3100:3109   */\n  dup1\n  mload\n  sub(shl(0xa0, 0x01), 0x01)\n    /* \"#utility.yul\":3096:3131   */\n  and\n    /* \"#utility.yul\":3081:3132   */\n  dup6\n  mstore\n    /* \"#utility.yul\":3171:3182   */\n  dup4\n  dup2\n  add\n    /* \"#utility.yul\":3165:3183   */\n  mload\n    /* \"#utility.yul\":3053:3068   */\n  dup10\n  dup7\n  add\n  swap1\n    /* \"#utility.yul\":3223:3224   */\n  0x03\n    /* \"#utility.yul\":3206:3225   */\n  dup2\n  lt\n    /* \"#utility.yul\":3196:3366   */\n  tag_231\n  jumpi\n    /* \"#utility.yul\":3276:3286   */\n  0x4e487b71\n    /* \"#utility.yul\":3271:3274   */\n  0xe0\n    /* \"#utility.yul\":3267:3287   */\n  shl\n    /* \"#utility.yul\":3264:3265   */\n  0x00\n    /* \"#utility.yul\":3257:3288   */\n  mstore\n    /* \"#utility.yul\":3315:3319   */\n  0x21\n    /* \"#utility.yul\":3312:3313   */\n  0x04\n    /* \"#utility.yul\":3305:3320   */\n  mstore\n    /* \"#utility.yul\":3347:3351   */\n  0x24\n    /* \"#utility.yul\":3344:3345   */\n  0x00\n    /* \"#utility.yul\":3337:3352   */\n  revert\n    /* \"#utility.yul\":3196:3366   */\ntag_231:\n    /* \"#utility.yul\":3386:3401   */\n  dup7\n  dup7\n  add\n    /* \"#utility.yul\":3379:3416   */\n  mstore\n    /* \"#utility.yul\":3439:3443   */\n  0x40\n    /* \"#utility.yul\":3484:3495   */\n  swap2\n  dup3\n  add\n    /* \"#utility.yul\":3478:3496   */\n  mload\n    /* \"#utility.yul\":3516:3531   */\n  swap2\n  dup7\n  add\n    /* \"#utility.yul\":3509:3536   */\n  dup11\n  swap1\n  mstore\n    /* \"#utility.yul\":3597:3618   */\n  dup2\n  mload\n    /* \"#utility.yul\":3631:3655   */\n  swap1\n  dup2\n  swap1\n  mstore\n    /* \"#utility.yul\":3721:3744   */\n  swap1\n  dup5\n  add\n  swap1\n  0x00\n  swap1\n    /* \"#utility.yul\":3677:3692   */\n  dup10\n  dup8\n  add\n  swap1\n    /* \"#utility.yul\":3782:4018   */\ntag_232:\n    /* \"#utility.yul\":3798:3806   */\n  dup1\n    /* \"#utility.yul\":3793:3796   */\n  dup4\n    /* \"#utility.yul\":3790:3807   */\n  lt\n    /* \"#utility.yul\":3782:4018   */\n  iszero\n  tag_234\n  jumpi\n    /* \"#utility.yul\":3879:3894   */\n  dup4\n  mload\n  not(sub(shl(0xe0, 0x01), 0x01))\n    /* \"#utility.yul\":3875:3917   */\n  and\n    /* \"#utility.yul\":3861:3918   */\n  dup3\n  mstore\n    /* \"#utility.yul\":3987:4004   */\n  swap3\n  dup7\n  add\n  swap3\n    /* \"#utility.yul\":3826:3827   */\n  0x01\n    /* \"#utility.yul\":3817:3828   */\n  swap3\n  swap1\n  swap3\n  add\n  swap2\n    /* \"#utility.yul\":3944:3958   */\n  swap1\n  dup7\n  add\n  swap1\n    /* \"#utility.yul\":3782:4018   */\n  jump(tag_232)\ntag_234:\n  pop\n    /* \"#utility.yul\":4104:4116   */\n  swap8\n  dup6\n  add\n  swap8\n    /* \"#utility.yul\":4041:4046   */\n  swap6\n  pop\n  pop\n  pop\n    /* \"#utility.yul\":4069:4084   */\n  swap1\n  dup3\n  add\n  swap1\n    /* \"#utility.yul\":2913:2914   */\n  0x01\n    /* \"#utility.yul\":2906:2915   */\n  add\n    /* \"#utility.yul\":2877:4126   */\n  jump(tag_228)\ntag_230:\n  pop\n  pop\n  sub(shl(0xa0, 0x01), 0x01)\n    /* \"#utility.yul\":1636:1667   */\n  dup11\n  and\n    /* \"#utility.yul\":4162:4180   */\n  swap1\n  dup9\n  add\n    /* \"#utility.yul\":1624:1668   */\n  mstore\n    /* \"#utility.yul\":4219:4241   */\n  dup7\n  dup2\n  sub\n    /* \"#utility.yul\":4212:4216   */\n  0x40\n    /* \"#utility.yul\":4197:4217   */\n  dup9\n  add\n    /* \"#utility.yul\":4190:4242   */\n  mstore\n    /* \"#utility.yul\":4259:4291   */\n  tag_236\n    /* \"#utility.yul\":4223:4229   */\n  dup2\n    /* \"#utility.yul\":4276:4282   */\n  dup10\n    /* \"#utility.yul\":4259:4291   */\n  tag_204\n  jump\t// in\ntag_236:\n    /* \"#utility.yul\":4251:4291   */\n  swap11\n    /* \"#utility.yul\":2209:4297   */\n  swap10\n  pop\n  pop\n  pop\n  pop\n  pop\n  pop\n  pop\n  pop\n  pop\n  pop\n  jump\t// out\n    /* \"#utility.yul\":5549:5758   */\ntag_106:\n    /* \"#utility.yul\":5587:5590   */\n  0x00\n  sub(shl(0x60, 0x01), 0x01)\n    /* \"#utility.yul\":5657:5671   */\n  dup3\n  dup2\n  and\n  not(sub(shl(0x60, 0x01), 0x02))\n    /* \"#utility.yul\":5683:5698   */\n  dup2\n  add\n    /* \"#utility.yul\":5680:5721   */\n  tag_242\n  jumpi\n    /* \"#utility.yul\":5701:5719   */\n  tag_242\n  tag_201\n  jump\t// in\ntag_242:\n    /* \"#utility.yul\":5750:5751   */\n  0x01\n    /* \"#utility.yul\":5737:5752   */\n  add\n  swap4\n    /* \"#utility.yul\":5549:5758   */\n  swap3\n  pop\n  pop\n  pop\n  jump\t// out\n    /* \"#utility.yul\":6611:6898   */\ntag_148:\n    /* \"#utility.yul\":6740:6743   */\n  0x00\n    /* \"#utility.yul\":6778:6784   */\n  dup3\n    /* \"#utility.yul\":6772:6785   */\n  mload\n    /* \"#utility.yul\":6794:6860   */\n  tag_246\n    /* \"#utility.yul\":6853:6859   */\n  dup2\n    /* \"#utility.yul\":6848:6851   */\n  dup5\n    /* \"#utility.yul\":6841:6845   */\n  0x20\n    /* \"#utility.yul\":6833:6839   */\n  dup8\n    /* \"#utility.yul\":6829:6846   */\n  add\n    /* \"#utility.yul\":6794:6860   */\n  tag_203\n  jump\t// in\ntag_246:\n    /* \"#utility.yul\":6876:6892   */\n  swap2\n  swap1\n  swap2\n  add\n  swap3\n    /* \"#utility.yul\":6611:6898   */\n  swap2\n  pop\n  pop\n  jump\t// out\n    /* \"#utility.yul\":6903:7217   */\ntag_156:\n  sub(shl(0xa0, 0x01), 0x01)\n    /* \"#utility.yul\":7078:7110   */\n  dup4\n  and\n    /* \"#utility.yul\":7060:7111   */\n  dup2\n  mstore\n    /* \"#utility.yul\":7147:7149   */\n  0x40\n    /* \"#utility.yul\":7142:7144   */\n  0x20\n    /* \"#utility.yul\":7127:7145   */\n  dup3\n  add\n    /* \"#utility.yul\":7120:7150   */\n  dup2\n  swap1\n  mstore\n  0x00\n  swap1\n    /* \"#utility.yul\":7167:7211   */\n  tag_248\n  swap1\n    /* \"#utility.yul\":7192:7210   */\n  dup4\n  add\n    /* \"#utility.yul\":7184:7190   */\n  dup5\n    /* \"#utility.yul\":7167:7211   */\n  tag_204\n  jump\t// in\ntag_248:\n    /* \"#utility.yul\":7159:7211   */\n  swap5\n    /* \"#utility.yul\":6903:7217   */\n  swap4\n  pop\n  pop\n  pop\n  pop\n  jump\t// out\n    /* \"#utility.yul\":8061:8189   */\ntag_170:\n    /* \"#utility.yul\":8128:8137   */\n  dup2\n  dup2\n  sub\n    /* \"#utility.yul\":8149:8160   */\n  dup2\n  dup2\n  gt\n    /* \"#utility.yul\":8146:8183   */\n  iszero\n  tag_253\n  jumpi\n    /* \"#utility.yul\":8163:8181   */\n  tag_253\n  tag_201\n  jump\t// in\ntag_253:\n    /* \"#utility.yul\":8061:8189   */\n  swap3\n  swap2\n  pop\n  pop\n  jump\t// out\n    /* \"#utility.yul\":8194:8321   */\ntag_180:\n    /* \"#utility.yul\":8255:8265   */\n  0x4e487b71\n    /* \"#utility.yul\":8250:8253   */\n  0xe0\n    /* \"#utility.yul\":8246:8266   */\n  shl\n    /* \"#utility.yul\":8243:8244   */\n  0x00\n    /* \"#utility.yul\":8236:8267   */\n  mstore\n    /* \"#utility.yul\":8286:8290   */\n  0x31\n    /* \"#utility.yul\":8283:8284   */\n  0x04\n    /* \"#utility.yul\":8276:8291   */\n  mstore\n    /* \"#utility.yul\":8310:8314   */\n  0x24\n    /* \"#utility.yul\":8307:8308   */\n  0x00\n    /* \"#utility.yul\":8300:8315   */\n  revert\n    /* \"#utility.yul\":8326:8545   */\ntag_197:\n    /* \"#utility.yul\":8475:8477   */\n  0x20\n    /* \"#utility.yul\":8464:8473   */\n  dup2\n    /* \"#utility.yul\":8457:8478   */\n  mstore\n    /* \"#utility.yul\":8438:8442   */\n  0x00\n    /* \"#utility.yul\":8495:8539   */\n  tag_256\n    /* \"#utility.yul\":8535:8537   */\n  0x20\n    /* \"#utility.yul\":8524:8533   */\n  dup4\n    /* \"#utility.yul\":8520:8538   */\n  add\n    /* \"#utility.yul\":8512:8518   */\n  dup5\n    /* \"#utility.yul\":8495:8539   */\n  tag_204\n  jump\t// in\ntag_256:\n    /* \"#utility.yul\":8487:8539   */\n  swap4\n    /* \"#utility.yul\":8326:8545   */\n  swap3\n  pop\n  pop\n  pop\n  jump\t// out\ntag_205:\n    /* \"contracts/T2G_root.sol\":1328:2563  contract T2G_root is Diamond {... */\n  dataSize(sub_0)\n  dup1\n  dataOffset(sub_0)\n  0x00\n  codecopy\n  0x00\n  return\nstop\ndata_1ac25121ac50ee96730ac9ae618ddfea240cf59a9860f34e3db50d8def79c035 c8fcad8db84d3cc18b4c41d551ea0ee66dd599cde068d998e57d5e09332c131c\ndata_460f8f0920c649146ef02741816b1cf9ce4f02ea288ceb73adf027cefe9069a0 4c69624469616d6f6e644375743a205f696e6974206164647265737320686173206e6f20636f6465\ndata_5fa5c068a317e88499bc559323e1ff95bb74759dc0609ba03d5281082008ea42 4c69624469616d6f6e644375743a204164642066616365742063616e27742062\ndata_846ccbeb9c32d4d40d2c1bf991251db6ab65744a2f52b273947cee088a65504b 4c69624469616d6f6e644375743a204e657720666163657420686173206e6f20636f6465\ndata_ef6ab6a2a8a2da01fe010ebde85afcb72a60b2c7c9acd06f2affb5f0f96595b1 4c69624469616d6f6e644375743a204e6f2073656c6563746f727320696e2066\n\nsub_0: assembly {\n        /* \"contracts/T2G_root.sol\":1328:2563  contract T2G_root is Diamond {... */\n      mstore(0x40, 0x80)\n      jumpi(tag_1, lt(calldatasize, 0x04))\n      shr(0xe0, calldataload(0x00))\n      dup1\n      0x046e71e6\n      eq\n      tag_3\n      jumpi\n      jump(tag_2)\n    tag_1:\n      jumpi(tag_2, calldatasize)\n      stop\n    tag_2:\n        /* \"contracts/Diamond.sol\":1364:1400  LibDiamond.DiamondStorage storage ds */\n      0x00\n        /* \"contracts/Diamond.sol\":1667:1674  msg.sig */\n      dup1\n      calldataload\n      not(sub(shl(0xe0, 0x01), 0x01))\n      and\n        /* \"contracts/Diamond.sol\":1637:1675  ds.selectorToFacetAndPosition[msg.sig] */\n      dup2\n      mstore\n        /* \"contracts/libraries/LibDiamond.sol\":751:796  keccak256(\"diamond.standard.diamond.storage\") */\n      0xc8fcad8db84d3cc18b4c41d551ea0ee66dd599cde068d998e57d5e09332c131c\n        /* \"contracts/Diamond.sol\":1637:1675  ds.selectorToFacetAndPosition[msg.sig] */\n      0x20\n      dup2\n      swap1\n      mstore\n      0x40\n      swap1\n      swap2\n      keccak256\n        /* \"contracts/Diamond.sol\":1637:1688  ds.selectorToFacetAndPosition[msg.sig].facetAddress */\n      sload\n        /* \"contracts/libraries/LibDiamond.sol\":751:796  keccak256(\"diamond.standard.diamond.storage\") */\n      dup2\n      swap1\n      sub(shl(0xa0, 0x01), 0x01)\n        /* \"contracts/Diamond.sol\":1637:1688  ds.selectorToFacetAndPosition[msg.sig].facetAddress */\n      and\n      dup1\n        /* \"contracts/Diamond.sol\":1699:1763  require(facet != address(0), \"Diamond: Function does not exist\") */\n      tag_8\n      jumpi\n      mload(0x40)\n      shl(0xe5, 0x461bcd)\n      dup2\n      mstore\n        /* \"#utility.yul\":216:218   */\n      0x20\n        /* \"contracts/Diamond.sol\":1699:1763  require(facet != address(0), \"Diamond: Function does not exist\") */\n      0x04\n      dup3\n      add\n        /* \"#utility.yul\":198:219   */\n      dup2\n      swap1\n      mstore\n        /* \"#utility.yul\":235:253   */\n      0x24\n      dup3\n      add\n        /* \"#utility.yul\":228:258   */\n      mstore\n        /* \"#utility.yul\":294:328   */\n      0x4469616d6f6e643a2046756e6374696f6e20646f6573206e6f74206578697374\n        /* \"#utility.yul\":274:292   */\n      0x44\n      dup3\n      add\n        /* \"#utility.yul\":267:329   */\n      mstore\n        /* \"#utility.yul\":346:364   */\n      0x64\n      add\n        /* \"contracts/Diamond.sol\":1699:1763  require(facet != address(0), \"Diamond: Function does not exist\") */\n      mload(0x40)\n      dup1\n      swap2\n      sub\n      swap1\n      revert\n    tag_8:\n        /* \"contracts/Diamond.sol\":1968:1982  calldatasize() */\n      calldatasize\n        /* \"contracts/Diamond.sol\":1965:1966  0 */\n      0x00\n        /* \"contracts/Diamond.sol\":1962:1963  0 */\n      dup1\n        /* \"contracts/Diamond.sol\":1949:1983  calldatacopy(0, 0, calldatasize()) */\n      calldatacopy\n        /* \"contracts/Diamond.sol\":2115:2116  0 */\n      0x00\n        /* \"contracts/Diamond.sol\":2112:2113  0 */\n      dup1\n        /* \"contracts/Diamond.sol\":2096:2110  calldatasize() */\n      calldatasize\n        /* \"contracts/Diamond.sol\":2093:2094  0 */\n      0x00\n        /* \"contracts/Diamond.sol\":2086:2091  facet */\n      dup5\n        /* \"contracts/Diamond.sol\":2079:2084  gas() */\n      gas\n        /* \"contracts/Diamond.sol\":2066:2117  delegatecall(gas(), facet, 0, calldatasize(), 0, 0) */\n      delegatecall\n        /* \"contracts/Diamond.sol\":2189:2205  returndatasize() */\n      returndatasize\n        /* \"contracts/Diamond.sol\":2186:2187  0 */\n      0x00\n        /* \"contracts/Diamond.sol\":2183:2184  0 */\n      dup1\n        /* \"contracts/Diamond.sol\":2168:2206  returndatacopy(0, 0, returndatasize()) */\n      returndatacopy\n        /* \"contracts/Diamond.sol\":2295:2301  result */\n      dup1\n        /* \"contracts/Diamond.sol\":2319:2395  case 0 {... */\n      dup1\n      iszero\n      tag_12\n      jumpi\n        /* \"contracts/Diamond.sol\":2454:2470  returndatasize() */\n      returndatasize\n        /* \"contracts/Diamond.sol\":2451:2452  0 */\n      0x00\n        /* \"contracts/Diamond.sol\":2444:2471  return(0, returndatasize()) */\n      return\n        /* \"contracts/Diamond.sol\":2319:2395  case 0 {... */\n    tag_12:\n        /* \"contracts/Diamond.sol\":2359:2375  returndatasize() */\n      returndatasize\n        /* \"contracts/Diamond.sol\":2356:2357  0 */\n      0x00\n        /* \"contracts/Diamond.sol\":2349:2376  revert(0, returndatasize()) */\n      revert\n        /* \"contracts/T2G_root.sol\":1426:1518  function beacon_T2G_Root() public pure returns (string memory) { return \"T2G_root::1.0.0\"; } */\n    tag_3:\n      callvalue\n      dup1\n      iszero\n      tag_13\n      jumpi\n      0x00\n      dup1\n      revert\n    tag_13:\n      pop\n        /* \"contracts/T2G_root.sol\":1491:1515  return \"T2G_root::1.0.0\" */\n      0x40\n      dup1\n      mload\n      dup1\n      dup3\n      add\n      dup3\n      mstore\n      0x0f\n      dup2\n      mstore\n      shl(0x8c, 0x05432475f726f6f743a3a312e302e3)\n      0x20\n      dup3\n      add\n      mstore\n        /* \"contracts/T2G_root.sol\":1426:1518  function beacon_T2G_Root() public pure returns (string memory) { return \"T2G_root::1.0.0\"; } */\n      swap1\n      mload\n      tag_16\n      swap2\n        /* \"contracts/T2G_root.sol\":1491:1515  return \"T2G_root::1.0.0\" */\n      swap1\n        /* \"contracts/T2G_root.sol\":1426:1518  function beacon_T2G_Root() public pure returns (string memory) { return \"T2G_root::1.0.0\"; } */\n      tag_17\n      jump\t// in\n    tag_16:\n      mload(0x40)\n      dup1\n      swap2\n      sub\n      swap1\n      return\n        /* \"#utility.yul\":375:923   */\n    tag_17:\n        /* \"#utility.yul\":487:491   */\n      0x00\n        /* \"#utility.yul\":516:518   */\n      0x20\n        /* \"#utility.yul\":545:547   */\n      dup1\n        /* \"#utility.yul\":534:543   */\n      dup4\n        /* \"#utility.yul\":527:548   */\n      mstore\n        /* \"#utility.yul\":577:583   */\n      dup4\n        /* \"#utility.yul\":571:584   */\n      mload\n        /* \"#utility.yul\":620:626   */\n      dup1\n        /* \"#utility.yul\":615:617   */\n      dup3\n        /* \"#utility.yul\":604:613   */\n      dup6\n        /* \"#utility.yul\":600:618   */\n      add\n        /* \"#utility.yul\":593:627   */\n      mstore\n        /* \"#utility.yul\":645:646   */\n      0x00\n        /* \"#utility.yul\":655:795   */\n    tag_22:\n        /* \"#utility.yul\":669:675   */\n      dup2\n        /* \"#utility.yul\":666:667   */\n      dup2\n        /* \"#utility.yul\":663:676   */\n      lt\n        /* \"#utility.yul\":655:795   */\n      iszero\n      tag_24\n      jumpi\n        /* \"#utility.yul\":764:778   */\n      dup6\n      dup2\n      add\n        /* \"#utility.yul\":760:783   */\n      dup4\n      add\n        /* \"#utility.yul\":754:784   */\n      mload\n        /* \"#utility.yul\":730:747   */\n      dup6\n      dup3\n      add\n        /* \"#utility.yul\":749:751   */\n      0x40\n        /* \"#utility.yul\":726:752   */\n      add\n        /* \"#utility.yul\":719:785   */\n      mstore\n        /* \"#utility.yul\":684:694   */\n      dup3\n      add\n        /* \"#utility.yul\":655:795   */\n      jump(tag_22)\n    tag_24:\n        /* \"#utility.yul\":659:662   */\n      pop\n        /* \"#utility.yul\":844:845   */\n      0x00\n        /* \"#utility.yul\":839:841   */\n      0x40\n        /* \"#utility.yul\":830:836   */\n      dup3\n        /* \"#utility.yul\":819:828   */\n      dup7\n        /* \"#utility.yul\":815:837   */\n      add\n        /* \"#utility.yul\":811:842   */\n      add\n        /* \"#utility.yul\":804:846   */\n      mstore\n        /* \"#utility.yul\":914:916   */\n      0x40\n        /* \"#utility.yul\":907:909   */\n      0x1f\n        /* \"#utility.yul\":903:910   */\n      not\n        /* \"#utility.yul\":898:900   */\n      0x1f\n        /* \"#utility.yul\":890:896   */\n      dup4\n        /* \"#utility.yul\":886:901   */\n      add\n        /* \"#utility.yul\":882:911   */\n      and\n        /* \"#utility.yul\":871:880   */\n      dup6\n        /* \"#utility.yul\":867:912   */\n      add\n        /* \"#utility.yul\":863:917   */\n      add\n        /* \"#utility.yul\":855:917   */\n      swap3\n      pop\n      pop\n      pop\n        /* \"#utility.yul\":375:923   */\n      swap3\n      swap2\n      pop\n      pop\n      jump\t// out\n\n    auxdata: 0xa2646970667358221220c9dc54629f0fc616bd251a10b61fe3b0da0a28781719a2349573de2fa15abe3a64736f6c63430008130033\n}\n",
				"bytecode": {
					"linkReferences": {},
					"object": "60806040526040516200153c3803806200153c833981016040819052620000269162001014565b818162000033826200014a565b604080516001808252818301909252600091816020015b604080516060808201835260008083526020830152918101919091528152602001906001900390816200004a5750506040805160018082528183019092529192506000919060208083019080368337019050509050631f931c1c60e01b81600081518110620000bd57620000bd6200104c565b6001600160e01b031990921660209283029190910182015260408051606081019091526001600160a01b03851681529081016000815260200182815250826000815181106200011057620001106200104c565b60200260200101819052506200013e82600060405180602001604052806000815250620001ce60201b60201c565b505050505050620012d0565b7fc8fcad8db84d3cc18b4c41d551ea0ee66dd599cde068d998e57d5e09332c132080546001600160a01b031981166001600160a01b0384811691821790935560405160008051602062001490833981519152939092169182907f8be0079c531659141344cd1fd0a4f28419497f9722a3daafe3b4186f6b6457e090600090a3505050565b60005b8351811015620003da576000848281518110620001f257620001f26200104c565b60200260200101516020015190506000600281111562000216576200021662001062565b8160028111156200022b576200022b62001062565b036200028957620002838583815181106200024a576200024a6200104c565b6020026020010151600001518684815181106200026b576200026b6200104c565b6020026020010151604001516200042960201b60201c565b620003c4565b6001816002811115620002a057620002a062001062565b03620002f85762000283858381518110620002bf57620002bf6200104c565b602002602001015160000151868481518110620002e057620002e06200104c565b602002602001015160400151620006b660201b60201c565b60028160028111156200030f576200030f62001062565b036200036757620002838583815181106200032e576200032e6200104c565b6020026020010151600001518684815181106200034f576200034f6200104c565b6020026020010151604001516200094e60201b60201c565b60405162461bcd60e51b815260206004820152602760248201527f4c69624469616d6f6e644375743a20496e636f727265637420466163657443756044820152663a20b1ba34b7b760c91b60648201526084015b60405180910390fd5b5080620003d1816200108e565b915050620001d1565b507f8faa70878671ccd212d20771b795c50af8fd3ff6cf27f4bde57e5d4de0aeb6738383836040516200041093929190620010fe565b60405180910390a162000424828262000ab4565b505050565b60008151116200047f5760405162461bcd60e51b815260206004820152602b60248201526000805160206200151c83398151915260448201526a1858d95d081d1bc818dd5d60aa1b6064820152608401620003bb565b600080516020620014908339815191526001600160a01b038316620004eb5760405162461bcd60e51b815260206004820152602c6024820152600080516020620014d883398151915260448201526b65206164647265737328302960a01b6064820152608401620003bb565b6001600160a01b0383166000908152600182016020526040812054906001600160601b0382169003620005245762000524828562000b86565b60005b8351811015620006af5760008482815181106200054857620005486200104c565b6020908102919091018101516001600160e01b031981166000908152918690526040909120549091506001600160a01b03168015620005f05760405162461bcd60e51b815260206004820152603560248201527f4c69624469616d6f6e644375743a2043616e2774206164642066756e6374696f60448201527f6e207468617420616c72656164792065786973747300000000000000000000006064820152608401620003bb565b6001600160e01b0319821660008181526020878152604080832080546001600160a01b03908116600160a01b6001600160601b038c16021782558c168085526001808c0185529285208054938401815585528385206008840401805463ffffffff60079095166004026101000a948502191660e08a901c94909402939093179092559390925287905281546001600160a01b03191617905583620006948162001205565b94505050508080620006a6906200108e565b91505062000527565b5050505050565b60008151116200070c5760405162461bcd60e51b815260206004820152602b60248201526000805160206200151c83398151915260448201526a1858d95d081d1bc818dd5d60aa1b6064820152608401620003bb565b600080516020620014908339815191526001600160a01b038316620007785760405162461bcd60e51b815260206004820152602c6024820152600080516020620014d883398151915260448201526b65206164647265737328302960a01b6064820152608401620003bb565b6001600160a01b0383166000908152600182016020526040812054906001600160601b0382169003620007b157620007b1828562000b86565b60005b8351811015620006af576000848281518110620007d557620007d56200104c565b6020908102919091018101516001600160e01b031981166000908152918690526040909120549091506001600160a01b039081169087168103620008825760405162461bcd60e51b815260206004820152603860248201527f4c69624469616d6f6e644375743a2043616e2774207265706c6163652066756e60448201527f6374696f6e20776974682073616d652066756e6374696f6e00000000000000006064820152608401620003bb565b6200088f85828462000bf3565b6001600160e01b0319821660008181526020878152604080832080546001600160a01b03908116600160a01b6001600160601b038c16021782558c168085526001808c0185529285208054938401815585528385206008840401805463ffffffff60079095166004026101000a948502191660e08a901c94909402939093179092559390925287905281546001600160a01b03191617905583620009338162001205565b9450505050808062000945906200108e565b915050620007b4565b6000815111620009a45760405162461bcd60e51b815260206004820152602b60248201526000805160206200151c83398151915260448201526a1858d95d081d1bc818dd5d60aa1b6064820152608401620003bb565b600080516020620014908339815191526001600160a01b0383161562000a335760405162461bcd60e51b815260206004820152603660248201527f4c69624469616d6f6e644375743a2052656d6f7665206661636574206164647260448201527f657373206d7573742062652061646472657373283029000000000000000000006064820152608401620003bb565b60005b825181101562000aae57600083828151811062000a575762000a576200104c565b6020908102919091018101516001600160e01b031981166000908152918590526040909120549091506001600160a01b031662000a9684828462000bf3565b5050808062000aa5906200108e565b91505062000a36565b50505050565b6001600160a01b03821662000ac7575050565b62000aec82604051806060016040528060288152602001620014b06028913962000fd3565b600080836001600160a01b03168360405162000b09919062001236565b600060405180830381855af49150503d806000811462000b46576040519150601f19603f3d011682016040523d82523d6000602084013e62000b4b565b606091505b50915091508162000aae5780511562000b675780518082602001fd5b838360405163192105d760e01b8152600401620003bb92919062001254565b62000bab81604051806060016040528060248152602001620014f86024913962000fd3565b6002820180546001600160a01b0390921660008181526001948501602090815260408220860185905594840183559182529290200180546001600160a01b0319169091179055565b6001600160a01b03821662000c715760405162461bcd60e51b815260206004820152603760248201527f4c69624469616d6f6e644375743a2043616e27742072656d6f76652066756e6360448201527f74696f6e207468617420646f65736e27742065786973740000000000000000006064820152608401620003bb565b306001600160a01b0383160362000ce25760405162461bcd60e51b815260206004820152602e60248201527f4c69624469616d6f6e644375743a2043616e27742072656d6f766520696d6d7560448201526d3a30b1363290333ab731ba34b7b760911b6064820152608401620003bb565b6001600160e01b03198116600090815260208481526040808320546001600160a01b0386168452600180880190935290832054600160a01b9091046001600160601b0316929162000d339162001282565b905080821462000e2c576001600160a01b0384166000908152600186016020526040812080548390811062000d6c5762000d6c6200104c565b600091825260208083206008830401546001600160a01b038916845260018a019091526040909220805460079092166004026101000a90920460e01b92508291908590811062000dc05762000dc06200104c565b600091825260208083206008830401805463ffffffff60079094166004026101000a938402191660e09590951c929092029390931790556001600160e01b03199290921682528690526040902080546001600160a01b0316600160a01b6001600160601b038516021790555b6001600160a01b0384166000908152600186016020526040902080548062000e585762000e586200129e565b60008281526020808220600860001990940193840401805463ffffffff600460078716026101000a0219169055919092556001600160e01b03198516825286905260408120819055819003620006af57600285015460009062000ebe9060019062001282565b6001600160a01b038616600090815260018089016020526040909120015490915080821462000f7457600087600201838154811062000f015762000f016200104c565b6000918252602090912001546002890180546001600160a01b03909216925082918490811062000f355762000f356200104c565b600091825260208083209190910180546001600160a01b0319166001600160a01b03948516179055929091168152600189810190925260409020018190555b8660020180548062000f8a5762000f8a6200129e565b60008281526020808220830160001990810180546001600160a01b03191690559092019092556001600160a01b0388168252600189810190915260408220015550505050505050565b813b818162000aae5760405162461bcd60e51b8152600401620003bb9190620012b4565b80516001600160a01b03811681146200100f57600080fd5b919050565b600080604083850312156200102857600080fd5b620010338362000ff7565b9150620010436020840162000ff7565b90509250929050565b634e487b7160e01b600052603260045260246000fd5b634e487b7160e01b600052602160045260246000fd5b634e487b7160e01b600052601160045260246000fd5b600060018201620010a357620010a362001078565b5060010190565b60005b83811015620010c7578181015183820152602001620010ad565b50506000910152565b60008151808452620010ea816020860160208601620010aa565b601f01601f19169290920160200192915050565b60006060808301818452808751808352608092508286019150828160051b8701016020808b0160005b84811015620011d357898403607f19018652815180516001600160a01b031685528381015189860190600381106200116f57634e487b7160e01b600052602160045260246000fd5b868601526040918201519186018a905281519081905290840190600090898701905b80831015620011bd5783516001600160e01b031916825292860192600192909201919086019062001191565b5097850197955050509082019060010162001127565b50506001600160a01b038a16908801528681036040880152620011f78189620010d0565b9a9950505050505050505050565b60006001600160601b038281166002600160601b031981016200122c576200122c62001078565b6001019392505050565b600082516200124a818460208701620010aa565b9190910192915050565b6001600160a01b03831681526040602082018190526000906200127a90830184620010d0565b949350505050565b8181038181111562001298576200129862001078565b92915050565b634e487b7160e01b600052603160045260246000fd5b602081526000620012c96020830184620010d0565b9392505050565b6101b080620012e06000396000f3fe6080604052600436106100225760003560e01c8063046e71e6146100e557610029565b3661002957005b600080356001600160e01b03191681527fc8fcad8db84d3cc18b4c41d551ea0ee66dd599cde068d998e57d5e09332c131c602081905260409091205481906001600160a01b0316806100c15760405162461bcd60e51b815260206004820181905260248201527f4469616d6f6e643a2046756e6374696f6e20646f6573206e6f74206578697374604482015260640160405180910390fd5b3660008037600080366000845af43d6000803e8080156100e0573d6000f35b3d6000fd5b3480156100f157600080fd5b50604080518082018252600f81526e05432475f726f6f743a3a312e302e3608c1b60208201529051610123919061012c565b60405180910390f35b600060208083528351808285015260005b818110156101595785810183015185820160400152820161013d565b506000604082860101526040601f19601f830116850101925050509291505056fea2646970667358221220c9dc54629f0fc616bd251a10b61fe3b0da0a28781719a2349573de2fa15abe3a64736f6c63430008130033c8fcad8db84d3cc18b4c41d551ea0ee66dd599cde068d998e57d5e09332c131c4c69624469616d6f6e644375743a205f696e6974206164647265737320686173206e6f20636f64654c69624469616d6f6e644375743a204164642066616365742063616e277420624c69624469616d6f6e644375743a204e657720666163657420686173206e6f20636f64654c69624469616d6f6e644375743a204e6f2073656c6563746f727320696e2066",
					"opcodes": "PUSH1 0x80 PUSH1 0x40 MSTORE PUSH1 0x40 MLOAD PUSH3 0x153C CODESIZE SUB DUP1 PUSH3 0x153C DUP4 CODECOPY DUP2 ADD PUSH1 0x40 DUP2 SWAP1 MSTORE PUSH3 0x26 SWAP2 PUSH3 0x1014 JUMP JUMPDEST DUP2 DUP2 PUSH3 0x33 DUP3 PUSH3 0x14A JUMP JUMPDEST PUSH1 0x40 DUP1 MLOAD PUSH1 0x1 DUP1 DUP3 MSTORE DUP2 DUP4 ADD SWAP1 SWAP3 MSTORE PUSH1 0x0 SWAP2 DUP2 PUSH1 0x20 ADD JUMPDEST PUSH1 0x40 DUP1 MLOAD PUSH1 0x60 DUP1 DUP3 ADD DUP4 MSTORE PUSH1 0x0 DUP1 DUP4 MSTORE PUSH1 0x20 DUP4 ADD MSTORE SWAP2 DUP2 ADD SWAP2 SWAP1 SWAP2 MSTORE DUP2 MSTORE PUSH1 0x20 ADD SWAP1 PUSH1 0x1 SWAP1 SUB SWAP1 DUP2 PUSH3 0x4A JUMPI POP POP PUSH1 0x40 DUP1 MLOAD PUSH1 0x1 DUP1 DUP3 MSTORE DUP2 DUP4 ADD SWAP1 SWAP3 MSTORE SWAP2 SWAP3 POP PUSH1 0x0 SWAP2 SWAP1 PUSH1 0x20 DUP1 DUP4 ADD SWAP1 DUP1 CALLDATASIZE DUP4 CALLDATACOPY ADD SWAP1 POP POP SWAP1 POP PUSH4 0x1F931C1C PUSH1 0xE0 SHL DUP2 PUSH1 0x0 DUP2 MLOAD DUP2 LT PUSH3 0xBD JUMPI PUSH3 0xBD PUSH3 0x104C JUMP JUMPDEST PUSH1 0x1 PUSH1 0x1 PUSH1 0xE0 SHL SUB NOT SWAP1 SWAP3 AND PUSH1 0x20 SWAP3 DUP4 MUL SWAP2 SWAP1 SWAP2 ADD DUP3 ADD MSTORE PUSH1 0x40 DUP1 MLOAD PUSH1 0x60 DUP2 ADD SWAP1 SWAP2 MSTORE PUSH1 0x1 PUSH1 0x1 PUSH1 0xA0 SHL SUB DUP6 AND DUP2 MSTORE SWAP1 DUP2 ADD PUSH1 0x0 DUP2 MSTORE PUSH1 0x20 ADD DUP3 DUP2 MSTORE POP DUP3 PUSH1 0x0 DUP2 MLOAD DUP2 LT PUSH3 0x110 JUMPI PUSH3 0x110 PUSH3 0x104C JUMP JUMPDEST PUSH1 0x20 MUL PUSH1 0x20 ADD ADD DUP2 SWAP1 MSTORE POP PUSH3 0x13E DUP3 PUSH1 0x0 PUSH1 0x40 MLOAD DUP1 PUSH1 0x20 ADD PUSH1 0x40 MSTORE DUP1 PUSH1 0x0 DUP2 MSTORE POP PUSH3 0x1CE PUSH1 0x20 SHL PUSH1 0x20 SHR JUMP JUMPDEST POP POP POP POP POP POP PUSH3 0x12D0 JUMP JUMPDEST PUSH32 0xC8FCAD8DB84D3CC18B4C41D551EA0EE66DD599CDE068D998E57D5E09332C1320 DUP1 SLOAD PUSH1 0x1 PUSH1 0x1 PUSH1 0xA0 SHL SUB NOT DUP2 AND PUSH1 0x1 PUSH1 0x1 PUSH1 0xA0 SHL SUB DUP5 DUP2 AND SWAP2 DUP3 OR SWAP1 SWAP4 SSTORE PUSH1 0x40 MLOAD PUSH1 0x0 DUP1 MLOAD PUSH1 0x20 PUSH3 0x1490 DUP4 CODECOPY DUP2 MLOAD SWAP2 MSTORE SWAP4 SWAP1 SWAP3 AND SWAP2 DUP3 SWAP1 PUSH32 0x8BE0079C531659141344CD1FD0A4F28419497F9722A3DAAFE3B4186F6B6457E0 SWAP1 PUSH1 0x0 SWAP1 LOG3 POP POP POP JUMP JUMPDEST PUSH1 0x0 JUMPDEST DUP4 MLOAD DUP2 LT ISZERO PUSH3 0x3DA JUMPI PUSH1 0x0 DUP5 DUP3 DUP2 MLOAD DUP2 LT PUSH3 0x1F2 JUMPI PUSH3 0x1F2 PUSH3 0x104C JUMP JUMPDEST PUSH1 0x20 MUL PUSH1 0x20 ADD ADD MLOAD PUSH1 0x20 ADD MLOAD SWAP1 POP PUSH1 0x0 PUSH1 0x2 DUP2 GT ISZERO PUSH3 0x216 JUMPI PUSH3 0x216 PUSH3 0x1062 JUMP JUMPDEST DUP2 PUSH1 0x2 DUP2 GT ISZERO PUSH3 0x22B JUMPI PUSH3 0x22B PUSH3 0x1062 JUMP JUMPDEST SUB PUSH3 0x289 JUMPI PUSH3 0x283 DUP6 DUP4 DUP2 MLOAD DUP2 LT PUSH3 0x24A JUMPI PUSH3 0x24A PUSH3 0x104C JUMP JUMPDEST PUSH1 0x20 MUL PUSH1 0x20 ADD ADD MLOAD PUSH1 0x0 ADD MLOAD DUP7 DUP5 DUP2 MLOAD DUP2 LT PUSH3 0x26B JUMPI PUSH3 0x26B PUSH3 0x104C JUMP JUMPDEST PUSH1 0x20 MUL PUSH1 0x20 ADD ADD MLOAD PUSH1 0x40 ADD MLOAD PUSH3 0x429 PUSH1 0x20 SHL PUSH1 0x20 SHR JUMP JUMPDEST PUSH3 0x3C4 JUMP JUMPDEST PUSH1 0x1 DUP2 PUSH1 0x2 DUP2 GT ISZERO PUSH3 0x2A0 JUMPI PUSH3 0x2A0 PUSH3 0x1062 JUMP JUMPDEST SUB PUSH3 0x2F8 JUMPI PUSH3 0x283 DUP6 DUP4 DUP2 MLOAD DUP2 LT PUSH3 0x2BF JUMPI PUSH3 0x2BF PUSH3 0x104C JUMP JUMPDEST PUSH1 0x20 MUL PUSH1 0x20 ADD ADD MLOAD PUSH1 0x0 ADD MLOAD DUP7 DUP5 DUP2 MLOAD DUP2 LT PUSH3 0x2E0 JUMPI PUSH3 0x2E0 PUSH3 0x104C JUMP JUMPDEST PUSH1 0x20 MUL PUSH1 0x20 ADD ADD MLOAD PUSH1 0x40 ADD MLOAD PUSH3 0x6B6 PUSH1 0x20 SHL PUSH1 0x20 SHR JUMP JUMPDEST PUSH1 0x2 DUP2 PUSH1 0x2 DUP2 GT ISZERO PUSH3 0x30F JUMPI PUSH3 0x30F PUSH3 0x1062 JUMP JUMPDEST SUB PUSH3 0x367 JUMPI PUSH3 0x283 DUP6 DUP4 DUP2 MLOAD DUP2 LT PUSH3 0x32E JUMPI PUSH3 0x32E PUSH3 0x104C JUMP JUMPDEST PUSH1 0x20 MUL PUSH1 0x20 ADD ADD MLOAD PUSH1 0x0 ADD MLOAD DUP7 DUP5 DUP2 MLOAD DUP2 LT PUSH3 0x34F JUMPI PUSH3 0x34F PUSH3 0x104C JUMP JUMPDEST PUSH1 0x20 MUL PUSH1 0x20 ADD ADD MLOAD PUSH1 0x40 ADD MLOAD PUSH3 0x94E PUSH1 0x20 SHL PUSH1 0x20 SHR JUMP JUMPDEST PUSH1 0x40 MLOAD PUSH3 0x461BCD PUSH1 0xE5 SHL DUP2 MSTORE PUSH1 0x20 PUSH1 0x4 DUP3 ADD MSTORE PUSH1 0x27 PUSH1 0x24 DUP3 ADD MSTORE PUSH32 0x4C69624469616D6F6E644375743A20496E636F72726563742046616365744375 PUSH1 0x44 DUP3 ADD MSTORE PUSH7 0x3A20B1BA34B7B7 PUSH1 0xC9 SHL PUSH1 0x64 DUP3 ADD MSTORE PUSH1 0x84 ADD JUMPDEST PUSH1 0x40 MLOAD DUP1 SWAP2 SUB SWAP1 REVERT JUMPDEST POP DUP1 PUSH3 0x3D1 DUP2 PUSH3 0x108E JUMP JUMPDEST SWAP2 POP POP PUSH3 0x1D1 JUMP JUMPDEST POP PUSH32 0x8FAA70878671CCD212D20771B795C50AF8FD3FF6CF27F4BDE57E5D4DE0AEB673 DUP4 DUP4 DUP4 PUSH1 0x40 MLOAD PUSH3 0x410 SWAP4 SWAP3 SWAP2 SWAP1 PUSH3 0x10FE JUMP JUMPDEST PUSH1 0x40 MLOAD DUP1 SWAP2 SUB SWAP1 LOG1 PUSH3 0x424 DUP3 DUP3 PUSH3 0xAB4 JUMP JUMPDEST POP POP POP JUMP JUMPDEST PUSH1 0x0 DUP2 MLOAD GT PUSH3 0x47F JUMPI PUSH1 0x40 MLOAD PUSH3 0x461BCD PUSH1 0xE5 SHL DUP2 MSTORE PUSH1 0x20 PUSH1 0x4 DUP3 ADD MSTORE PUSH1 0x2B PUSH1 0x24 DUP3 ADD MSTORE PUSH1 0x0 DUP1 MLOAD PUSH1 0x20 PUSH3 0x151C DUP4 CODECOPY DUP2 MLOAD SWAP2 MSTORE PUSH1 0x44 DUP3 ADD MSTORE PUSH11 0x1858D95D081D1BC818DD5D PUSH1 0xAA SHL PUSH1 0x64 DUP3 ADD MSTORE PUSH1 0x84 ADD PUSH3 0x3BB JUMP JUMPDEST PUSH1 0x0 DUP1 MLOAD PUSH1 0x20 PUSH3 0x1490 DUP4 CODECOPY DUP2 MLOAD SWAP2 MSTORE PUSH1 0x1 PUSH1 0x1 PUSH1 0xA0 SHL SUB DUP4 AND PUSH3 0x4EB JUMPI PUSH1 0x40 MLOAD PUSH3 0x461BCD PUSH1 0xE5 SHL DUP2 MSTORE PUSH1 0x20 PUSH1 0x4 DUP3 ADD MSTORE PUSH1 0x2C PUSH1 0x24 DUP3 ADD MSTORE PUSH1 0x0 DUP1 MLOAD PUSH1 0x20 PUSH3 0x14D8 DUP4 CODECOPY DUP2 MLOAD SWAP2 MSTORE PUSH1 0x44 DUP3 ADD MSTORE PUSH12 0x652061646472657373283029 PUSH1 0xA0 SHL PUSH1 0x64 DUP3 ADD MSTORE PUSH1 0x84 ADD PUSH3 0x3BB JUMP JUMPDEST PUSH1 0x1 PUSH1 0x1 PUSH1 0xA0 SHL SUB DUP4 AND PUSH1 0x0 SWAP1 DUP2 MSTORE PUSH1 0x1 DUP3 ADD PUSH1 0x20 MSTORE PUSH1 0x40 DUP2 KECCAK256 SLOAD SWAP1 PUSH1 0x1 PUSH1 0x1 PUSH1 0x60 SHL SUB DUP3 AND SWAP1 SUB PUSH3 0x524 JUMPI PUSH3 0x524 DUP3 DUP6 PUSH3 0xB86 JUMP JUMPDEST PUSH1 0x0 JUMPDEST DUP4 MLOAD DUP2 LT ISZERO PUSH3 0x6AF JUMPI PUSH1 0x0 DUP5 DUP3 DUP2 MLOAD DUP2 LT PUSH3 0x548 JUMPI PUSH3 0x548 PUSH3 0x104C JUMP JUMPDEST PUSH1 0x20 SWAP1 DUP2 MUL SWAP2 SWAP1 SWAP2 ADD DUP2 ADD MLOAD PUSH1 0x1 PUSH1 0x1 PUSH1 0xE0 SHL SUB NOT DUP2 AND PUSH1 0x0 SWAP1 DUP2 MSTORE SWAP2 DUP7 SWAP1 MSTORE PUSH1 0x40 SWAP1 SWAP2 KECCAK256 SLOAD SWAP1 SWAP2 POP PUSH1 0x1 PUSH1 0x1 PUSH1 0xA0 SHL SUB AND DUP1 ISZERO PUSH3 0x5F0 JUMPI PUSH1 0x40 MLOAD PUSH3 0x461BCD PUSH1 0xE5 SHL DUP2 MSTORE PUSH1 0x20 PUSH1 0x4 DUP3 ADD MSTORE PUSH1 0x35 PUSH1 0x24 DUP3 ADD MSTORE PUSH32 0x4C69624469616D6F6E644375743A2043616E2774206164642066756E6374696F PUSH1 0x44 DUP3 ADD MSTORE PUSH32 0x6E207468617420616C7265616479206578697374730000000000000000000000 PUSH1 0x64 DUP3 ADD MSTORE PUSH1 0x84 ADD PUSH3 0x3BB JUMP JUMPDEST PUSH1 0x1 PUSH1 0x1 PUSH1 0xE0 SHL SUB NOT DUP3 AND PUSH1 0x0 DUP2 DUP2 MSTORE PUSH1 0x20 DUP8 DUP2 MSTORE PUSH1 0x40 DUP1 DUP4 KECCAK256 DUP1 SLOAD PUSH1 0x1 PUSH1 0x1 PUSH1 0xA0 SHL SUB SWAP1 DUP2 AND PUSH1 0x1 PUSH1 0xA0 SHL PUSH1 0x1 PUSH1 0x1 PUSH1 0x60 SHL SUB DUP13 AND MUL OR DUP3 SSTORE DUP13 AND DUP1 DUP6 MSTORE PUSH1 0x1 DUP1 DUP13 ADD DUP6 MSTORE SWAP3 DUP6 KECCAK256 DUP1 SLOAD SWAP4 DUP5 ADD DUP2 SSTORE DUP6 MSTORE DUP4 DUP6 KECCAK256 PUSH1 0x8 DUP5 DIV ADD DUP1 SLOAD PUSH4 0xFFFFFFFF PUSH1 0x7 SWAP1 SWAP6 AND PUSH1 0x4 MUL PUSH2 0x100 EXP SWAP5 DUP6 MUL NOT AND PUSH1 0xE0 DUP11 SWAP1 SHR SWAP5 SWAP1 SWAP5 MUL SWAP4 SWAP1 SWAP4 OR SWAP1 SWAP3 SSTORE SWAP4 SWAP1 SWAP3 MSTORE DUP8 SWAP1 MSTORE DUP2 SLOAD PUSH1 0x1 PUSH1 0x1 PUSH1 0xA0 SHL SUB NOT AND OR SWAP1 SSTORE DUP4 PUSH3 0x694 DUP2 PUSH3 0x1205 JUMP JUMPDEST SWAP5 POP POP POP POP DUP1 DUP1 PUSH3 0x6A6 SWAP1 PUSH3 0x108E JUMP JUMPDEST SWAP2 POP POP PUSH3 0x527 JUMP JUMPDEST POP POP POP POP POP JUMP JUMPDEST PUSH1 0x0 DUP2 MLOAD GT PUSH3 0x70C JUMPI PUSH1 0x40 MLOAD PUSH3 0x461BCD PUSH1 0xE5 SHL DUP2 MSTORE PUSH1 0x20 PUSH1 0x4 DUP3 ADD MSTORE PUSH1 0x2B PUSH1 0x24 DUP3 ADD MSTORE PUSH1 0x0 DUP1 MLOAD PUSH1 0x20 PUSH3 0x151C DUP4 CODECOPY DUP2 MLOAD SWAP2 MSTORE PUSH1 0x44 DUP3 ADD MSTORE PUSH11 0x1858D95D081D1BC818DD5D PUSH1 0xAA SHL PUSH1 0x64 DUP3 ADD MSTORE PUSH1 0x84 ADD PUSH3 0x3BB JUMP JUMPDEST PUSH1 0x0 DUP1 MLOAD PUSH1 0x20 PUSH3 0x1490 DUP4 CODECOPY DUP2 MLOAD SWAP2 MSTORE PUSH1 0x1 PUSH1 0x1 PUSH1 0xA0 SHL SUB DUP4 AND PUSH3 0x778 JUMPI PUSH1 0x40 MLOAD PUSH3 0x461BCD PUSH1 0xE5 SHL DUP2 MSTORE PUSH1 0x20 PUSH1 0x4 DUP3 ADD MSTORE PUSH1 0x2C PUSH1 0x24 DUP3 ADD MSTORE PUSH1 0x0 DUP1 MLOAD PUSH1 0x20 PUSH3 0x14D8 DUP4 CODECOPY DUP2 MLOAD SWAP2 MSTORE PUSH1 0x44 DUP3 ADD MSTORE PUSH12 0x652061646472657373283029 PUSH1 0xA0 SHL PUSH1 0x64 DUP3 ADD MSTORE PUSH1 0x84 ADD PUSH3 0x3BB JUMP JUMPDEST PUSH1 0x1 PUSH1 0x1 PUSH1 0xA0 SHL SUB DUP4 AND PUSH1 0x0 SWAP1 DUP2 MSTORE PUSH1 0x1 DUP3 ADD PUSH1 0x20 MSTORE PUSH1 0x40 DUP2 KECCAK256 SLOAD SWAP1 PUSH1 0x1 PUSH1 0x1 PUSH1 0x60 SHL SUB DUP3 AND SWAP1 SUB PUSH3 0x7B1 JUMPI PUSH3 0x7B1 DUP3 DUP6 PUSH3 0xB86 JUMP JUMPDEST PUSH1 0x0 JUMPDEST DUP4 MLOAD DUP2 LT ISZERO PUSH3 0x6AF JUMPI PUSH1 0x0 DUP5 DUP3 DUP2 MLOAD DUP2 LT PUSH3 0x7D5 JUMPI PUSH3 0x7D5 PUSH3 0x104C JUMP JUMPDEST PUSH1 0x20 SWAP1 DUP2 MUL SWAP2 SWAP1 SWAP2 ADD DUP2 ADD MLOAD PUSH1 0x1 PUSH1 0x1 PUSH1 0xE0 SHL SUB NOT DUP2 AND PUSH1 0x0 SWAP1 DUP2 MSTORE SWAP2 DUP7 SWAP1 MSTORE PUSH1 0x40 SWAP1 SWAP2 KECCAK256 SLOAD SWAP1 SWAP2 POP PUSH1 0x1 PUSH1 0x1 PUSH1 0xA0 SHL SUB SWAP1 DUP2 AND SWAP1 DUP8 AND DUP2 SUB PUSH3 0x882 JUMPI PUSH1 0x40 MLOAD PUSH3 0x461BCD PUSH1 0xE5 SHL DUP2 MSTORE PUSH1 0x20 PUSH1 0x4 DUP3 ADD MSTORE PUSH1 0x38 PUSH1 0x24 DUP3 ADD MSTORE PUSH32 0x4C69624469616D6F6E644375743A2043616E2774207265706C6163652066756E PUSH1 0x44 DUP3 ADD MSTORE PUSH32 0x6374696F6E20776974682073616D652066756E6374696F6E0000000000000000 PUSH1 0x64 DUP3 ADD MSTORE PUSH1 0x84 ADD PUSH3 0x3BB JUMP JUMPDEST PUSH3 0x88F DUP6 DUP3 DUP5 PUSH3 0xBF3 JUMP JUMPDEST PUSH1 0x1 PUSH1 0x1 PUSH1 0xE0 SHL SUB NOT DUP3 AND PUSH1 0x0 DUP2 DUP2 MSTORE PUSH1 0x20 DUP8 DUP2 MSTORE PUSH1 0x40 DUP1 DUP4 KECCAK256 DUP1 SLOAD PUSH1 0x1 PUSH1 0x1 PUSH1 0xA0 SHL SUB SWAP1 DUP2 AND PUSH1 0x1 PUSH1 0xA0 SHL PUSH1 0x1 PUSH1 0x1 PUSH1 0x60 SHL SUB DUP13 AND MUL OR DUP3 SSTORE DUP13 AND DUP1 DUP6 MSTORE PUSH1 0x1 DUP1 DUP13 ADD DUP6 MSTORE SWAP3 DUP6 KECCAK256 DUP1 SLOAD SWAP4 DUP5 ADD DUP2 SSTORE DUP6 MSTORE DUP4 DUP6 KECCAK256 PUSH1 0x8 DUP5 DIV ADD DUP1 SLOAD PUSH4 0xFFFFFFFF PUSH1 0x7 SWAP1 SWAP6 AND PUSH1 0x4 MUL PUSH2 0x100 EXP SWAP5 DUP6 MUL NOT AND PUSH1 0xE0 DUP11 SWAP1 SHR SWAP5 SWAP1 SWAP5 MUL SWAP4 SWAP1 SWAP4 OR SWAP1 SWAP3 SSTORE SWAP4 SWAP1 SWAP3 MSTORE DUP8 SWAP1 MSTORE DUP2 SLOAD PUSH1 0x1 PUSH1 0x1 PUSH1 0xA0 SHL SUB NOT AND OR SWAP1 SSTORE DUP4 PUSH3 0x933 DUP2 PUSH3 0x1205 JUMP JUMPDEST SWAP5 POP POP POP POP DUP1 DUP1 PUSH3 0x945 SWAP1 PUSH3 0x108E JUMP JUMPDEST SWAP2 POP POP PUSH3 0x7B4 JUMP JUMPDEST PUSH1 0x0 DUP2 MLOAD GT PUSH3 0x9A4 JUMPI PUSH1 0x40 MLOAD PUSH3 0x461BCD PUSH1 0xE5 SHL DUP2 MSTORE PUSH1 0x20 PUSH1 0x4 DUP3 ADD MSTORE PUSH1 0x2B PUSH1 0x24 DUP3 ADD MSTORE PUSH1 0x0 DUP1 MLOAD PUSH1 0x20 PUSH3 0x151C DUP4 CODECOPY DUP2 MLOAD SWAP2 MSTORE PUSH1 0x44 DUP3 ADD MSTORE PUSH11 0x1858D95D081D1BC818DD5D PUSH1 0xAA SHL PUSH1 0x64 DUP3 ADD MSTORE PUSH1 0x84 ADD PUSH3 0x3BB JUMP JUMPDEST PUSH1 0x0 DUP1 MLOAD PUSH1 0x20 PUSH3 0x1490 DUP4 CODECOPY DUP2 MLOAD SWAP2 MSTORE PUSH1 0x1 PUSH1 0x1 PUSH1 0xA0 SHL SUB DUP4 AND ISZERO PUSH3 0xA33 JUMPI PUSH1 0x40 MLOAD PUSH3 0x461BCD PUSH1 0xE5 SHL DUP2 MSTORE PUSH1 0x20 PUSH1 0x4 DUP3 ADD MSTORE PUSH1 0x36 PUSH1 0x24 DUP3 ADD MSTORE PUSH32 0x4C69624469616D6F6E644375743A2052656D6F76652066616365742061646472 PUSH1 0x44 DUP3 ADD MSTORE PUSH32 0x657373206D757374206265206164647265737328302900000000000000000000 PUSH1 0x64 DUP3 ADD MSTORE PUSH1 0x84 ADD PUSH3 0x3BB JUMP JUMPDEST PUSH1 0x0 JUMPDEST DUP3 MLOAD DUP2 LT ISZERO PUSH3 0xAAE JUMPI PUSH1 0x0 DUP4 DUP3 DUP2 MLOAD DUP2 LT PUSH3 0xA57 JUMPI PUSH3 0xA57 PUSH3 0x104C JUMP JUMPDEST PUSH1 0x20 SWAP1 DUP2 MUL SWAP2 SWAP1 SWAP2 ADD DUP2 ADD MLOAD PUSH1 0x1 PUSH1 0x1 PUSH1 0xE0 SHL SUB NOT DUP2 AND PUSH1 0x0 SWAP1 DUP2 MSTORE SWAP2 DUP6 SWAP1 MSTORE PUSH1 0x40 SWAP1 SWAP2 KECCAK256 SLOAD SWAP1 SWAP2 POP PUSH1 0x1 PUSH1 0x1 PUSH1 0xA0 SHL SUB AND PUSH3 0xA96 DUP5 DUP3 DUP5 PUSH3 0xBF3 JUMP JUMPDEST POP POP DUP1 DUP1 PUSH3 0xAA5 SWAP1 PUSH3 0x108E JUMP JUMPDEST SWAP2 POP POP PUSH3 0xA36 JUMP JUMPDEST POP POP POP POP JUMP JUMPDEST PUSH1 0x1 PUSH1 0x1 PUSH1 0xA0 SHL SUB DUP3 AND PUSH3 0xAC7 JUMPI POP POP JUMP JUMPDEST PUSH3 0xAEC DUP3 PUSH1 0x40 MLOAD DUP1 PUSH1 0x60 ADD PUSH1 0x40 MSTORE DUP1 PUSH1 0x28 DUP2 MSTORE PUSH1 0x20 ADD PUSH3 0x14B0 PUSH1 0x28 SWAP2 CODECOPY PUSH3 0xFD3 JUMP JUMPDEST PUSH1 0x0 DUP1 DUP4 PUSH1 0x1 PUSH1 0x1 PUSH1 0xA0 SHL SUB AND DUP4 PUSH1 0x40 MLOAD PUSH3 0xB09 SWAP2 SWAP1 PUSH3 0x1236 JUMP JUMPDEST PUSH1 0x0 PUSH1 0x40 MLOAD DUP1 DUP4 SUB DUP2 DUP6 GAS DELEGATECALL SWAP2 POP POP RETURNDATASIZE DUP1 PUSH1 0x0 DUP2 EQ PUSH3 0xB46 JUMPI PUSH1 0x40 MLOAD SWAP2 POP PUSH1 0x1F NOT PUSH1 0x3F RETURNDATASIZE ADD AND DUP3 ADD PUSH1 0x40 MSTORE RETURNDATASIZE DUP3 MSTORE RETURNDATASIZE PUSH1 0x0 PUSH1 0x20 DUP5 ADD RETURNDATACOPY PUSH3 0xB4B JUMP JUMPDEST PUSH1 0x60 SWAP2 POP JUMPDEST POP SWAP2 POP SWAP2 POP DUP2 PUSH3 0xAAE JUMPI DUP1 MLOAD ISZERO PUSH3 0xB67 JUMPI DUP1 MLOAD DUP1 DUP3 PUSH1 0x20 ADD REVERT JUMPDEST DUP4 DUP4 PUSH1 0x40 MLOAD PUSH4 0x192105D7 PUSH1 0xE0 SHL DUP2 MSTORE PUSH1 0x4 ADD PUSH3 0x3BB SWAP3 SWAP2 SWAP1 PUSH3 0x1254 JUMP JUMPDEST PUSH3 0xBAB DUP2 PUSH1 0x40 MLOAD DUP1 PUSH1 0x60 ADD PUSH1 0x40 MSTORE DUP1 PUSH1 0x24 DUP2 MSTORE PUSH1 0x20 ADD PUSH3 0x14F8 PUSH1 0x24 SWAP2 CODECOPY PUSH3 0xFD3 JUMP JUMPDEST PUSH1 0x2 DUP3 ADD DUP1 SLOAD PUSH1 0x1 PUSH1 0x1 PUSH1 0xA0 SHL SUB SWAP1 SWAP3 AND PUSH1 0x0 DUP2 DUP2 MSTORE PUSH1 0x1 SWAP5 DUP6 ADD PUSH1 0x20 SWAP1 DUP2 MSTORE PUSH1 0x40 DUP3 KECCAK256 DUP7 ADD DUP6 SWAP1 SSTORE SWAP5 DUP5 ADD DUP4 SSTORE SWAP2 DUP3 MSTORE SWAP3 SWAP1 KECCAK256 ADD DUP1 SLOAD PUSH1 0x1 PUSH1 0x1 PUSH1 0xA0 SHL SUB NOT AND SWAP1 SWAP2 OR SWAP1 SSTORE JUMP JUMPDEST PUSH1 0x1 PUSH1 0x1 PUSH1 0xA0 SHL SUB DUP3 AND PUSH3 0xC71 JUMPI PUSH1 0x40 MLOAD PUSH3 0x461BCD PUSH1 0xE5 SHL DUP2 MSTORE PUSH1 0x20 PUSH1 0x4 DUP3 ADD MSTORE PUSH1 0x37 PUSH1 0x24 DUP3 ADD MSTORE PUSH32 0x4C69624469616D6F6E644375743A2043616E27742072656D6F76652066756E63 PUSH1 0x44 DUP3 ADD MSTORE PUSH32 0x74696F6E207468617420646F65736E2774206578697374000000000000000000 PUSH1 0x64 DUP3 ADD MSTORE PUSH1 0x84 ADD PUSH3 0x3BB JUMP JUMPDEST ADDRESS PUSH1 0x1 PUSH1 0x1 PUSH1 0xA0 SHL SUB DUP4 AND SUB PUSH3 0xCE2 JUMPI PUSH1 0x40 MLOAD PUSH3 0x461BCD PUSH1 0xE5 SHL DUP2 MSTORE PUSH1 0x20 PUSH1 0x4 DUP3 ADD MSTORE PUSH1 0x2E PUSH1 0x24 DUP3 ADD MSTORE PUSH32 0x4C69624469616D6F6E644375743A2043616E27742072656D6F766520696D6D75 PUSH1 0x44 DUP3 ADD MSTORE PUSH14 0x3A30B1363290333AB731BA34B7B7 PUSH1 0x91 SHL PUSH1 0x64 DUP3 ADD MSTORE PUSH1 0x84 ADD PUSH3 0x3BB JUMP JUMPDEST PUSH1 0x1 PUSH1 0x1 PUSH1 0xE0 SHL SUB NOT DUP2 AND PUSH1 0x0 SWAP1 DUP2 MSTORE PUSH1 0x20 DUP5 DUP2 MSTORE PUSH1 0x40 DUP1 DUP4 KECCAK256 SLOAD PUSH1 0x1 PUSH1 0x1 PUSH1 0xA0 SHL SUB DUP7 AND DUP5 MSTORE PUSH1 0x1 DUP1 DUP9 ADD SWAP1 SWAP4 MSTORE SWAP1 DUP4 KECCAK256 SLOAD PUSH1 0x1 PUSH1 0xA0 SHL SWAP1 SWAP2 DIV PUSH1 0x1 PUSH1 0x1 PUSH1 0x60 SHL SUB AND SWAP3 SWAP2 PUSH3 0xD33 SWAP2 PUSH3 0x1282 JUMP JUMPDEST SWAP1 POP DUP1 DUP3 EQ PUSH3 0xE2C JUMPI PUSH1 0x1 PUSH1 0x1 PUSH1 0xA0 SHL SUB DUP5 AND PUSH1 0x0 SWAP1 DUP2 MSTORE PUSH1 0x1 DUP7 ADD PUSH1 0x20 MSTORE PUSH1 0x40 DUP2 KECCAK256 DUP1 SLOAD DUP4 SWAP1 DUP2 LT PUSH3 0xD6C JUMPI PUSH3 0xD6C PUSH3 0x104C JUMP JUMPDEST PUSH1 0x0 SWAP2 DUP3 MSTORE PUSH1 0x20 DUP1 DUP4 KECCAK256 PUSH1 0x8 DUP4 DIV ADD SLOAD PUSH1 0x1 PUSH1 0x1 PUSH1 0xA0 SHL SUB DUP10 AND DUP5 MSTORE PUSH1 0x1 DUP11 ADD SWAP1 SWAP2 MSTORE PUSH1 0x40 SWAP1 SWAP3 KECCAK256 DUP1 SLOAD PUSH1 0x7 SWAP1 SWAP3 AND PUSH1 0x4 MUL PUSH2 0x100 EXP SWAP1 SWAP3 DIV PUSH1 0xE0 SHL SWAP3 POP DUP3 SWAP2 SWAP1 DUP6 SWAP1 DUP2 LT PUSH3 0xDC0 JUMPI PUSH3 0xDC0 PUSH3 0x104C JUMP JUMPDEST PUSH1 0x0 SWAP2 DUP3 MSTORE PUSH1 0x20 DUP1 DUP4 KECCAK256 PUSH1 0x8 DUP4 DIV ADD DUP1 SLOAD PUSH4 0xFFFFFFFF PUSH1 0x7 SWAP1 SWAP5 AND PUSH1 0x4 MUL PUSH2 0x100 EXP SWAP4 DUP5 MUL NOT AND PUSH1 0xE0 SWAP6 SWAP1 SWAP6 SHR SWAP3 SWAP1 SWAP3 MUL SWAP4 SWAP1 SWAP4 OR SWAP1 SSTORE PUSH1 0x1 PUSH1 0x1 PUSH1 0xE0 SHL SUB NOT SWAP3 SWAP1 SWAP3 AND DUP3 MSTORE DUP7 SWAP1 MSTORE PUSH1 0x40 SWAP1 KECCAK256 DUP1 SLOAD PUSH1 0x1 PUSH1 0x1 PUSH1 0xA0 SHL SUB AND PUSH1 0x1 PUSH1 0xA0 SHL PUSH1 0x1 PUSH1 0x1 PUSH1 0x60 SHL SUB DUP6 AND MUL OR SWAP1 SSTORE JUMPDEST PUSH1 0x1 PUSH1 0x1 PUSH1 0xA0 SHL SUB DUP5 AND PUSH1 0x0 SWAP1 DUP2 MSTORE PUSH1 0x1 DUP7 ADD PUSH1 0x20 MSTORE PUSH1 0x40 SWAP1 KECCAK256 DUP1 SLOAD DUP1 PUSH3 0xE58 JUMPI PUSH3 0xE58 PUSH3 0x129E JUMP JUMPDEST PUSH1 0x0 DUP3 DUP2 MSTORE PUSH1 0x20 DUP1 DUP3 KECCAK256 PUSH1 0x8 PUSH1 0x0 NOT SWAP1 SWAP5 ADD SWAP4 DUP5 DIV ADD DUP1 SLOAD PUSH4 0xFFFFFFFF PUSH1 0x4 PUSH1 0x7 DUP8 AND MUL PUSH2 0x100 EXP MUL NOT AND SWAP1 SSTORE SWAP2 SWAP1 SWAP3 SSTORE PUSH1 0x1 PUSH1 0x1 PUSH1 0xE0 SHL SUB NOT DUP6 AND DUP3 MSTORE DUP7 SWAP1 MSTORE PUSH1 0x40 DUP2 KECCAK256 DUP2 SWAP1 SSTORE DUP2 SWAP1 SUB PUSH3 0x6AF JUMPI PUSH1 0x2 DUP6 ADD SLOAD PUSH1 0x0 SWAP1 PUSH3 0xEBE SWAP1 PUSH1 0x1 SWAP1 PUSH3 0x1282 JUMP JUMPDEST PUSH1 0x1 PUSH1 0x1 PUSH1 0xA0 SHL SUB DUP7 AND PUSH1 0x0 SWAP1 DUP2 MSTORE PUSH1 0x1 DUP1 DUP10 ADD PUSH1 0x20 MSTORE PUSH1 0x40 SWAP1 SWAP2 KECCAK256 ADD SLOAD SWAP1 SWAP2 POP DUP1 DUP3 EQ PUSH3 0xF74 JUMPI PUSH1 0x0 DUP8 PUSH1 0x2 ADD DUP4 DUP2 SLOAD DUP2 LT PUSH3 0xF01 JUMPI PUSH3 0xF01 PUSH3 0x104C JUMP JUMPDEST PUSH1 0x0 SWAP2 DUP3 MSTORE PUSH1 0x20 SWAP1 SWAP2 KECCAK256 ADD SLOAD PUSH1 0x2 DUP10 ADD DUP1 SLOAD PUSH1 0x1 PUSH1 0x1 PUSH1 0xA0 SHL SUB SWAP1 SWAP3 AND SWAP3 POP DUP3 SWAP2 DUP5 SWAP1 DUP2 LT PUSH3 0xF35 JUMPI PUSH3 0xF35 PUSH3 0x104C JUMP JUMPDEST PUSH1 0x0 SWAP2 DUP3 MSTORE PUSH1 0x20 DUP1 DUP4 KECCAK256 SWAP2 SWAP1 SWAP2 ADD DUP1 SLOAD PUSH1 0x1 PUSH1 0x1 PUSH1 0xA0 SHL SUB NOT AND PUSH1 0x1 PUSH1 0x1 PUSH1 0xA0 SHL SUB SWAP5 DUP6 AND OR SWAP1 SSTORE SWAP3 SWAP1 SWAP2 AND DUP2 MSTORE PUSH1 0x1 DUP10 DUP2 ADD SWAP1 SWAP3 MSTORE PUSH1 0x40 SWAP1 KECCAK256 ADD DUP2 SWAP1 SSTORE JUMPDEST DUP7 PUSH1 0x2 ADD DUP1 SLOAD DUP1 PUSH3 0xF8A JUMPI PUSH3 0xF8A PUSH3 0x129E JUMP JUMPDEST PUSH1 0x0 DUP3 DUP2 MSTORE PUSH1 0x20 DUP1 DUP3 KECCAK256 DUP4 ADD PUSH1 0x0 NOT SWAP1 DUP2 ADD DUP1 SLOAD PUSH1 0x1 PUSH1 0x1 PUSH1 0xA0 SHL SUB NOT AND SWAP1 SSTORE SWAP1 SWAP3 ADD SWAP1 SWAP3 SSTORE PUSH1 0x1 PUSH1 0x1 PUSH1 0xA0 SHL SUB DUP9 AND DUP3 MSTORE PUSH1 0x1 DUP10 DUP2 ADD SWAP1 SWAP2 MSTORE PUSH1 0x40 DUP3 KECCAK256 ADD SSTORE POP POP POP POP POP POP POP JUMP JUMPDEST DUP2 EXTCODESIZE DUP2 DUP2 PUSH3 0xAAE JUMPI PUSH1 0x40 MLOAD PUSH3 0x461BCD PUSH1 0xE5 SHL DUP2 MSTORE PUSH1 0x4 ADD PUSH3 0x3BB SWAP2 SWAP1 PUSH3 0x12B4 JUMP JUMPDEST DUP1 MLOAD PUSH1 0x1 PUSH1 0x1 PUSH1 0xA0 SHL SUB DUP2 AND DUP2 EQ PUSH3 0x100F JUMPI PUSH1 0x0 DUP1 REVERT JUMPDEST SWAP2 SWAP1 POP JUMP JUMPDEST PUSH1 0x0 DUP1 PUSH1 0x40 DUP4 DUP6 SUB SLT ISZERO PUSH3 0x1028 JUMPI PUSH1 0x0 DUP1 REVERT JUMPDEST PUSH3 0x1033 DUP4 PUSH3 0xFF7 JUMP JUMPDEST SWAP2 POP PUSH3 0x1043 PUSH1 0x20 DUP5 ADD PUSH3 0xFF7 JUMP JUMPDEST SWAP1 POP SWAP3 POP SWAP3 SWAP1 POP JUMP JUMPDEST PUSH4 0x4E487B71 PUSH1 0xE0 SHL PUSH1 0x0 MSTORE PUSH1 0x32 PUSH1 0x4 MSTORE PUSH1 0x24 PUSH1 0x0 REVERT JUMPDEST PUSH4 0x4E487B71 PUSH1 0xE0 SHL PUSH1 0x0 MSTORE PUSH1 0x21 PUSH1 0x4 MSTORE PUSH1 0x24 PUSH1 0x0 REVERT JUMPDEST PUSH4 0x4E487B71 PUSH1 0xE0 SHL PUSH1 0x0 MSTORE PUSH1 0x11 PUSH1 0x4 MSTORE PUSH1 0x24 PUSH1 0x0 REVERT JUMPDEST PUSH1 0x0 PUSH1 0x1 DUP3 ADD PUSH3 0x10A3 JUMPI PUSH3 0x10A3 PUSH3 0x1078 JUMP JUMPDEST POP PUSH1 0x1 ADD SWAP1 JUMP JUMPDEST PUSH1 0x0 JUMPDEST DUP4 DUP2 LT ISZERO PUSH3 0x10C7 JUMPI DUP2 DUP2 ADD MLOAD DUP4 DUP3 ADD MSTORE PUSH1 0x20 ADD PUSH3 0x10AD JUMP JUMPDEST POP POP PUSH1 0x0 SWAP2 ADD MSTORE JUMP JUMPDEST PUSH1 0x0 DUP2 MLOAD DUP1 DUP5 MSTORE PUSH3 0x10EA DUP2 PUSH1 0x20 DUP7 ADD PUSH1 0x20 DUP7 ADD PUSH3 0x10AA JUMP JUMPDEST PUSH1 0x1F ADD PUSH1 0x1F NOT AND SWAP3 SWAP1 SWAP3 ADD PUSH1 0x20 ADD SWAP3 SWAP2 POP POP JUMP JUMPDEST PUSH1 0x0 PUSH1 0x60 DUP1 DUP4 ADD DUP2 DUP5 MSTORE DUP1 DUP8 MLOAD DUP1 DUP4 MSTORE PUSH1 0x80 SWAP3 POP DUP3 DUP7 ADD SWAP2 POP DUP3 DUP2 PUSH1 0x5 SHL DUP8 ADD ADD PUSH1 0x20 DUP1 DUP12 ADD PUSH1 0x0 JUMPDEST DUP5 DUP2 LT ISZERO PUSH3 0x11D3 JUMPI DUP10 DUP5 SUB PUSH1 0x7F NOT ADD DUP7 MSTORE DUP2 MLOAD DUP1 MLOAD PUSH1 0x1 PUSH1 0x1 PUSH1 0xA0 SHL SUB AND DUP6 MSTORE DUP4 DUP2 ADD MLOAD DUP10 DUP7 ADD SWAP1 PUSH1 0x3 DUP2 LT PUSH3 0x116F JUMPI PUSH4 0x4E487B71 PUSH1 0xE0 SHL PUSH1 0x0 MSTORE PUSH1 0x21 PUSH1 0x4 MSTORE PUSH1 0x24 PUSH1 0x0 REVERT JUMPDEST DUP7 DUP7 ADD MSTORE PUSH1 0x40 SWAP2 DUP3 ADD MLOAD SWAP2 DUP7 ADD DUP11 SWAP1 MSTORE DUP2 MLOAD SWAP1 DUP2 SWAP1 MSTORE SWAP1 DUP5 ADD SWAP1 PUSH1 0x0 SWAP1 DUP10 DUP8 ADD SWAP1 JUMPDEST DUP1 DUP4 LT ISZERO PUSH3 0x11BD JUMPI DUP4 MLOAD PUSH1 0x1 PUSH1 0x1 PUSH1 0xE0 SHL SUB NOT AND DUP3 MSTORE SWAP3 DUP7 ADD SWAP3 PUSH1 0x1 SWAP3 SWAP1 SWAP3 ADD SWAP2 SWAP1 DUP7 ADD SWAP1 PUSH3 0x1191 JUMP JUMPDEST POP SWAP8 DUP6 ADD SWAP8 SWAP6 POP POP POP SWAP1 DUP3 ADD SWAP1 PUSH1 0x1 ADD PUSH3 0x1127 JUMP JUMPDEST POP POP PUSH1 0x1 PUSH1 0x1 PUSH1 0xA0 SHL SUB DUP11 AND SWAP1 DUP9 ADD MSTORE DUP7 DUP2 SUB PUSH1 0x40 DUP9 ADD MSTORE PUSH3 0x11F7 DUP2 DUP10 PUSH3 0x10D0 JUMP JUMPDEST SWAP11 SWAP10 POP POP POP POP POP POP POP POP POP POP JUMP JUMPDEST PUSH1 0x0 PUSH1 0x1 PUSH1 0x1 PUSH1 0x60 SHL SUB DUP3 DUP2 AND PUSH1 0x2 PUSH1 0x1 PUSH1 0x60 SHL SUB NOT DUP2 ADD PUSH3 0x122C JUMPI PUSH3 0x122C PUSH3 0x1078 JUMP JUMPDEST PUSH1 0x1 ADD SWAP4 SWAP3 POP POP POP JUMP JUMPDEST PUSH1 0x0 DUP3 MLOAD PUSH3 0x124A DUP2 DUP5 PUSH1 0x20 DUP8 ADD PUSH3 0x10AA JUMP JUMPDEST SWAP2 SWAP1 SWAP2 ADD SWAP3 SWAP2 POP POP JUMP JUMPDEST PUSH1 0x1 PUSH1 0x1 PUSH1 0xA0 SHL SUB DUP4 AND DUP2 MSTORE PUSH1 0x40 PUSH1 0x20 DUP3 ADD DUP2 SWAP1 MSTORE PUSH1 0x0 SWAP1 PUSH3 0x127A SWAP1 DUP4 ADD DUP5 PUSH3 0x10D0 JUMP JUMPDEST SWAP5 SWAP4 POP POP POP POP JUMP JUMPDEST DUP2 DUP2 SUB DUP2 DUP2 GT ISZERO PUSH3 0x1298 JUMPI PUSH3 0x1298 PUSH3 0x1078 JUMP JUMPDEST SWAP3 SWAP2 POP POP JUMP JUMPDEST PUSH4 0x4E487B71 PUSH1 0xE0 SHL PUSH1 0x0 MSTORE PUSH1 0x31 PUSH1 0x4 MSTORE PUSH1 0x24 PUSH1 0x0 REVERT JUMPDEST PUSH1 0x20 DUP2 MSTORE PUSH1 0x0 PUSH3 0x12C9 PUSH1 0x20 DUP4 ADD DUP5 PUSH3 0x10D0 JUMP JUMPDEST SWAP4 SWAP3 POP POP POP JUMP JUMPDEST PUSH2 0x1B0 DUP1 PUSH3 0x12E0 PUSH1 0x0 CODECOPY PUSH1 0x0 RETURN INVALID PUSH1 0x80 PUSH1 0x40 MSTORE PUSH1 0x4 CALLDATASIZE LT PUSH2 0x22 JUMPI PUSH1 0x0 CALLDATALOAD PUSH1 0xE0 SHR DUP1 PUSH4 0x46E71E6 EQ PUSH2 0xE5 JUMPI PUSH2 0x29 JUMP JUMPDEST CALLDATASIZE PUSH2 0x29 JUMPI STOP JUMPDEST PUSH1 0x0 DUP1 CALLDATALOAD PUSH1 0x1 PUSH1 0x1 PUSH1 0xE0 SHL SUB NOT AND DUP2 MSTORE PUSH32 0xC8FCAD8DB84D3CC18B4C41D551EA0EE66DD599CDE068D998E57D5E09332C131C PUSH1 0x20 DUP2 SWAP1 MSTORE PUSH1 0x40 SWAP1 SWAP2 KECCAK256 SLOAD DUP2 SWAP1 PUSH1 0x1 PUSH1 0x1 PUSH1 0xA0 SHL SUB AND DUP1 PUSH2 0xC1 JUMPI PUSH1 0x40 MLOAD PUSH3 0x461BCD PUSH1 0xE5 SHL DUP2 MSTORE PUSH1 0x20 PUSH1 0x4 DUP3 ADD DUP2 SWAP1 MSTORE PUSH1 0x24 DUP3 ADD MSTORE PUSH32 0x4469616D6F6E643A2046756E6374696F6E20646F6573206E6F74206578697374 PUSH1 0x44 DUP3 ADD MSTORE PUSH1 0x64 ADD PUSH1 0x40 MLOAD DUP1 SWAP2 SUB SWAP1 REVERT JUMPDEST CALLDATASIZE PUSH1 0x0 DUP1 CALLDATACOPY PUSH1 0x0 DUP1 CALLDATASIZE PUSH1 0x0 DUP5 GAS DELEGATECALL RETURNDATASIZE PUSH1 0x0 DUP1 RETURNDATACOPY DUP1 DUP1 ISZERO PUSH2 0xE0 JUMPI RETURNDATASIZE PUSH1 0x0 RETURN JUMPDEST RETURNDATASIZE PUSH1 0x0 REVERT JUMPDEST CALLVALUE DUP1 ISZERO PUSH2 0xF1 JUMPI PUSH1 0x0 DUP1 REVERT JUMPDEST POP PUSH1 0x40 DUP1 MLOAD DUP1 DUP3 ADD DUP3 MSTORE PUSH1 0xF DUP2 MSTORE PUSH15 0x5432475F726F6F743A3A312E302E3 PUSH1 0x8C SHL PUSH1 0x20 DUP3 ADD MSTORE SWAP1 MLOAD PUSH2 0x123 SWAP2 SWAP1 PUSH2 0x12C JUMP JUMPDEST PUSH1 0x40 MLOAD DUP1 SWAP2 SUB SWAP1 RETURN JUMPDEST PUSH1 0x0 PUSH1 0x20 DUP1 DUP4 MSTORE DUP4 MLOAD DUP1 DUP3 DUP6 ADD MSTORE PUSH1 0x0 JUMPDEST DUP2 DUP2 LT ISZERO PUSH2 0x159 JUMPI DUP6 DUP2 ADD DUP4 ADD MLOAD DUP6 DUP3 ADD PUSH1 0x40 ADD MSTORE DUP3 ADD PUSH2 0x13D JUMP JUMPDEST POP PUSH1 0x0 PUSH1 0x40 DUP3 DUP7 ADD ADD MSTORE PUSH1 0x40 PUSH1 0x1F NOT PUSH1 0x1F DUP4 ADD AND DUP6 ADD ADD SWAP3 POP POP POP SWAP3 SWAP2 POP POP JUMP INVALID LOG2 PUSH5 0x6970667358 0x22 SLT KECCAK256 0xC9 0xDC SLOAD PUSH3 0x9F0FC6 AND 0xBD 0x25 BYTE LT 0xB6 0x1F 0xE3 0xB0 0xDA EXP 0x28 PUSH25 0x1719A2349573DE2FA15ABE3A64736F6C63430008130033C8FC 0xAD DUP14 0xB8 0x4D EXTCODECOPY 0xC1 DUP12 0x4C COINBASE 0xD5 MLOAD 0xEA 0xE 0xE6 PUSH14 0xD599CDE068D998E57D5E09332C13 SHR 0x4C PUSH10 0x624469616D6F6E644375 PUSH21 0x3A205F696E6974206164647265737320686173206E PUSH16 0x20636F64654C69624469616D6F6E6443 PUSH22 0x743A204164642066616365742063616E277420624C69 PUSH3 0x446961 PUSH14 0x6F6E644375743A204E6577206661 PUSH4 0x65742068 PUSH2 0x7320 PUSH15 0x6F20636F64654C69624469616D6F6E PUSH5 0x4375743A20 0x4E PUSH16 0x2073656C6563746F727320696E206600 "
				},
				"gasEstimates": {
					"creation": {
						"codeDepositCost": "86400",
						"executionCost": "infinite",
						"totalCost": "infinite"
					},
					"external": {
						"": "infinite",
						"beacon_T2G_Root()": "infinite"
					}
				},
				"methodIdentifiers": {
					"beacon_T2G_Root()": "046e71e6"
				}
			},
			"storageLayout": {
				"storage": [],
				"types": null
			},
			"userdoc": {
				"kind": "user",
				"methods": {},
				"version": 1
			}
		}
	}
}