{
	"contracts/T2G_root.sol": {
		"Hive": {
			"abi": [
				{
					"inputs": [
						{
							"components": [
								{
									"internalType": "address",
									"name": "facetAddress",
									"type": "address"
								},
								{
									"internalType": "enum IDiamond.FacetCutAction",
									"name": "action",
									"type": "uint8"
								},
								{
									"internalType": "bytes4[]",
									"name": "functionSelectors",
									"type": "bytes4[]"
								}
							],
							"internalType": "struct IDiamond.FacetCut[]",
							"name": "_diamondCut",
							"type": "tuple[]"
						},
						{
							"components": [
								{
									"internalType": "address",
									"name": "owner",
									"type": "address"
								},
								{
									"internalType": "address",
									"name": "init",
									"type": "address"
								},
								{
									"internalType": "bytes",
									"name": "initCalldata",
									"type": "bytes"
								}
							],
							"internalType": "struct DiamondArgs",
							"name": "_args",
							"type": "tuple"
						}
					],
					"stateMutability": "nonpayable",
					"type": "constructor"
				},
				{
					"inputs": [
						{
							"internalType": "bytes4",
							"name": "_selector",
							"type": "bytes4"
						}
					],
					"name": "CannotAddFunctionToDiamondThatAlreadyExists",
					"type": "error"
				},
				{
					"inputs": [
						{
							"internalType": "bytes4[]",
							"name": "_selectors",
							"type": "bytes4[]"
						}
					],
					"name": "CannotAddSelectorsToZeroAddress",
					"type": "error"
				},
				{
					"inputs": [
						{
							"internalType": "bytes4",
							"name": "_selector",
							"type": "bytes4"
						}
					],
					"name": "CannotRemoveFunctionThatDoesNotExist",
					"type": "error"
				},
				{
					"inputs": [
						{
							"internalType": "bytes4",
							"name": "_selector",
							"type": "bytes4"
						}
					],
					"name": "CannotRemoveImmutableFunction",
					"type": "error"
				},
				{
					"inputs": [
						{
							"internalType": "bytes4",
							"name": "_selector",
							"type": "bytes4"
						}
					],
					"name": "CannotReplaceFunctionThatDoesNotExists",
					"type": "error"
				},
				{
					"inputs": [
						{
							"internalType": "bytes4",
							"name": "_selector",
							"type": "bytes4"
						}
					],
					"name": "CannotReplaceFunctionWithTheSameFunctionFromTheSameFacet",
					"type": "error"
				},
				{
					"inputs": [
						{
							"internalType": "bytes4[]",
							"name": "_selectors",
							"type": "bytes4[]"
						}
					],
					"name": "CannotReplaceFunctionsFromFacetWithZeroAddress",
					"type": "error"
				},
				{
					"inputs": [
						{
							"internalType": "bytes4",
							"name": "_selector",
							"type": "bytes4"
						}
					],
					"name": "CannotReplaceImmutableFunction",
					"type": "error"
				},
				{
					"inputs": [
						{
							"internalType": "bytes4",
							"name": "_functionSelector",
							"type": "bytes4"
						}
					],
					"name": "FunctionNotFound",
					"type": "error"
				},
				{
					"inputs": [
						{
							"internalType": "uint8",
							"name": "_action",
							"type": "uint8"
						}
					],
					"name": "IncorrectFacetCutAction",
					"type": "error"
				},
				{
					"inputs": [
						{
							"internalType": "address",
							"name": "_initializationContractAddress",
							"type": "address"
						},
						{
							"internalType": "bytes",
							"name": "_calldata",
							"type": "bytes"
						}
					],
					"name": "InitializationFunctionReverted",
					"type": "error"
				},
				{
					"inputs": [
						{
							"internalType": "address",
							"name": "_contractAddress",
							"type": "address"
						},
						{
							"internalType": "string",
							"name": "_message",
							"type": "string"
						}
					],
					"name": "NoBytecodeAtAddress",
					"type": "error"
				},
				{
					"inputs": [
						{
							"internalType": "address",
							"name": "_facetAddress",
							"type": "address"
						}
					],
					"name": "NoSelectorsProvidedForFacetForCut",
					"type": "error"
				},
				{
					"inputs": [
						{
							"internalType": "address",
							"name": "_facetAddress",
							"type": "address"
						}
					],
					"name": "RemoveFacetAddressMustBeZeroAddress",
					"type": "error"
				},
				{
					"anonymous": false,
					"inputs": [
						{
							"components": [
								{
									"internalType": "address",
									"name": "facetAddress",
									"type": "address"
								},
								{
									"internalType": "enum IDiamond.FacetCutAction",
									"name": "action",
									"type": "uint8"
								},
								{
									"internalType": "bytes4[]",
									"name": "functionSelectors",
									"type": "bytes4[]"
								}
							],
							"indexed": false,
							"internalType": "struct IDiamond.FacetCut[]",
							"name": "_diamondCut",
							"type": "tuple[]"
						},
						{
							"indexed": false,
							"internalType": "address",
							"name": "_init",
							"type": "address"
						},
						{
							"indexed": false,
							"internalType": "bytes",
							"name": "_calldata",
							"type": "bytes"
						}
					],
					"name": "DiamondCut",
					"type": "event"
				},
				{
					"anonymous": false,
					"inputs": [
						{
							"indexed": true,
							"internalType": "address",
							"name": "previousOwner",
							"type": "address"
						},
						{
							"indexed": true,
							"internalType": "address",
							"name": "newOwner",
							"type": "address"
						}
					],
					"name": "OwnershipTransferred",
					"type": "event"
				},
				{
					"stateMutability": "payable",
					"type": "fallback"
				},
				{
					"inputs": [],
					"name": "beacon_Hive",
					"outputs": [
						{
							"internalType": "string",
							"name": "",
							"type": "string"
						}
					],
					"stateMutability": "pure",
					"type": "function"
				},
				{
					"stateMutability": "payable",
					"type": "receive"
				}
			],
			"devdoc": {
				"kind": "dev",
				"methods": {},
				"version": 1
			},
			"evm": {
				"assembly": "    /* \"contracts/T2G_root.sol\":1141:2353  contract Hive is Diamond {... */\n  mstore(0x40, 0x80)\n    /* \"contracts/T2G_root.sol\":1396:2350  constructor(IDiamondCut.FacetCut[] memory _diamondCut, DiamondArgs memory _args) Diamond(_diamondCut, _args) {... */\n  callvalue\n  dup1\n  iszero\n  tag_1\n  jumpi\n  0x00\n  dup1\n  revert\ntag_1:\n  pop\n  mload(0x40)\n  sub(codesize, bytecodeSize)\n  dup1\n  bytecodeSize\n  dup4\n  codecopy\n  dup2\n  add\n  0x40\n  dup2\n  swap1\n  mstore\n  tag_2\n  swap2\n  tag_3\n  jump\t// in\ntag_2:\n    /* \"contracts/Diamond.sol\":1124:1135  _args.owner */\n  dup1\n  mload\n    /* \"contracts/T2G_root.sol\":1485:1496  _diamondCut */\n  dup3\n  swap1\n    /* \"contracts/T2G_root.sol\":1498:1503  _args */\n  dup3\n  swap1\n    /* \"contracts/Diamond.sol\":1096:1136  LibDiamond.setContractOwner(_args.owner) */\n  tag_7\n  swap1\n    /* \"contracts/Diamond.sol\":1096:1123  LibDiamond.setContractOwner */\n  tag_8\n    /* \"contracts/Diamond.sol\":1096:1136  LibDiamond.setContractOwner(_args.owner) */\n  jump\t// in\ntag_7:\n    /* \"contracts/Diamond.sol\":1147:1213  LibDiamond.diamondCut(_diamondCut, _args.init, _args.initCalldata) */\n  tag_9\n    /* \"contracts/Diamond.sol\":1169:1180  _diamondCut */\n  dup3\n    /* \"contracts/Diamond.sol\":1182:1187  _args */\n  dup3\n    /* \"contracts/Diamond.sol\":1182:1192  _args.init */\n  0x20\n  add\n  mload\n    /* \"contracts/Diamond.sol\":1194:1199  _args */\n  dup4\n    /* \"contracts/Diamond.sol\":1194:1212  _args.initCalldata */\n  0x40\n  add\n  mload\n    /* \"contracts/Diamond.sol\":1147:1168  LibDiamond.diamondCut */\n  shl(0x20, tag_10)\n    /* \"contracts/Diamond.sol\":1147:1213  LibDiamond.diamondCut(_diamondCut, _args.init, _args.initCalldata) */\n  0x20\n  shr\n  jump\t// in\ntag_9:\n  pop\n  pop\n    /* \"contracts/T2G_root.sol\":1668:1669  0 */\n  0x00\n    /* \"contracts/T2G_root.sol\":1651:1657  s.seed */\n  0x01\n    /* \"contracts/T2G_root.sol\":1651:1670  s.seed = uint256(0) */\n  dup2\n  swap1\n  sstore\n    /* \"contracts/T2G_root.sol\":1689:1700  _args.owner */\n  swap1\n  mload\n    /* \"contracts/T2G_root.sol\":1679:1700  s.owner = _args.owner */\n  dup2\n  sload\n  not(sub(shl(0xa0, 0x01), 0x01))\n  and\n  sub(shl(0xa0, 0x01), 0x01)\n  swap1\n  swap2\n  and\n  or\n  swap1\n  sstore\n  pop\n    /* \"contracts/T2G_root.sol\":1141:2353  contract Hive is Diamond {... */\n  jump(tag_150)\n    /* \"contracts/libraries/LibDiamond.sol\":2483:2752  function setContractOwner(address _newOwner) internal {... */\ntag_8:\n    /* \"contracts/libraries/LibDiamond.sol\":2627:2643  ds.contractOwner */\n  0xc8fcad8db84d3cc18b4c41d551ea0ee66dd599cde068d998e57d5e09332c131f\n  dup1\n  sload\n  not(sub(shl(0xa0, 0x01), 0x01))\n    /* \"contracts/libraries/LibDiamond.sol\":2654:2682  ds.contractOwner = _newOwner */\n  dup2\n  and\n  sub(shl(0xa0, 0x01), 0x01)\n  dup5\n  dup2\n  and\n  swap2\n  dup3\n  or\n  swap1\n  swap4\n  sstore\n    /* \"contracts/libraries/LibDiamond.sol\":2698:2744  OwnershipTransferred(previousOwner, _newOwner) */\n  mload(0x40)\n  0x00\n  dup1\n  mload\n  0x20\n  data_1ac25121ac50ee96730ac9ae618ddfea240cf59a9860f34e3db50d8def79c035\n  dup4\n  codecopy\n  dup2\n  mload\n  swap2\n  mstore\n    /* \"contracts/libraries/LibDiamond.sol\":1639:1684  keccak256(\"diamond.standard.diamond.storage\") */\n  swap4\n    /* \"contracts/libraries/LibDiamond.sol\":2627:2643  ds.contractOwner */\n  swap1\n  swap3\n  and\n  swap2\n  dup3\n  swap1\n    /* \"contracts/libraries/LibDiamond.sol\":2698:2744  OwnershipTransferred(previousOwner, _newOwner) */\n  0x8be0079c531659141344cd1fd0a4f28419497f9722a3daafe3b4186f6b6457e0\n  swap1\n    /* \"contracts/libraries/LibDiamond.sol\":2548:2573  DiamondStorage storage ds */\n  0x00\n  swap1\n    /* \"contracts/libraries/LibDiamond.sol\":2698:2744  OwnershipTransferred(previousOwner, _newOwner) */\n  log3\n    /* \"contracts/libraries/LibDiamond.sol\":2537:2752  {... */\n  pop\n  pop\n    /* \"contracts/libraries/LibDiamond.sol\":2483:2752  function setContractOwner(address _newOwner) internal {... */\n  pop\n  jump\t// out\n    /* \"contracts/libraries/LibDiamond.sol\":3272:4504  function diamondCut(... */\ntag_10:\n    /* \"contracts/libraries/LibDiamond.sol\":3433:3451  uint256 facetIndex */\n  0x00\n    /* \"contracts/libraries/LibDiamond.sol\":3428:4391  for (uint256 facetIndex; facetIndex < _diamondCut.length; facetIndex++) {... */\ntag_17:\n    /* \"contracts/libraries/LibDiamond.sol\":3466:3477  _diamondCut */\n  dup4\n    /* \"contracts/libraries/LibDiamond.sol\":3466:3484  _diamondCut.length */\n  mload\n    /* \"contracts/libraries/LibDiamond.sol\":3453:3463  facetIndex */\n  dup2\n    /* \"contracts/libraries/LibDiamond.sol\":3453:3484  facetIndex < _diamondCut.length */\n  lt\n    /* \"contracts/libraries/LibDiamond.sol\":3428:4391  for (uint256 facetIndex; facetIndex < _diamondCut.length; facetIndex++) {... */\n  iszero\n  tag_18\n  jumpi\n    /* \"contracts/libraries/LibDiamond.sol\":3515:3548  bytes4[] memory functionSelectors */\n  0x00\n    /* \"contracts/libraries/LibDiamond.sol\":3551:3562  _diamondCut */\n  dup5\n    /* \"contracts/libraries/LibDiamond.sol\":3563:3573  facetIndex */\n  dup3\n    /* \"contracts/libraries/LibDiamond.sol\":3551:3574  _diamondCut[facetIndex] */\n  dup2\n  mload\n  dup2\n  lt\n  tag_21\n  jumpi\n  tag_21\n  tag_22\n  jump\t// in\ntag_21:\n  0x20\n  mul\n  0x20\n  add\n  add\n  mload\n    /* \"contracts/libraries/LibDiamond.sol\":3551:3592  _diamondCut[facetIndex].functionSelectors */\n  0x40\n  add\n  mload\n    /* \"contracts/libraries/LibDiamond.sol\":3515:3592  bytes4[] memory functionSelectors = _diamondCut[facetIndex].functionSelectors */\n  swap1\n  pop\n    /* \"contracts/libraries/LibDiamond.sol\":3607:3627  address facetAddress */\n  0x00\n    /* \"contracts/libraries/LibDiamond.sol\":3630:3641  _diamondCut */\n  dup6\n    /* \"contracts/libraries/LibDiamond.sol\":3642:3652  facetIndex */\n  dup4\n    /* \"contracts/libraries/LibDiamond.sol\":3630:3653  _diamondCut[facetIndex] */\n  dup2\n  mload\n  dup2\n  lt\n  tag_24\n  jumpi\n  tag_24\n  tag_22\n  jump\t// in\ntag_24:\n  0x20\n  mul\n  0x20\n  add\n  add\n  mload\n    /* \"contracts/libraries/LibDiamond.sol\":3630:3666  _diamondCut[facetIndex].facetAddress */\n  0x00\n  add\n  mload\n    /* \"contracts/libraries/LibDiamond.sol\":3607:3666  address facetAddress = _diamondCut[facetIndex].facetAddress */\n  swap1\n  pop\n    /* \"contracts/libraries/LibDiamond.sol\":3684:3701  functionSelectors */\n  dup2\n    /* \"contracts/libraries/LibDiamond.sol\":3684:3708  functionSelectors.length */\n  mload\n    /* \"contracts/libraries/LibDiamond.sol\":3712:3713  0 */\n  0x00\n    /* \"contracts/libraries/LibDiamond.sol\":3684:3713  functionSelectors.length == 0 */\n  sub\n    /* \"contracts/libraries/LibDiamond.sol\":3681:3804  if(functionSelectors.length == 0) {... */\n  tag_25\n  jumpi\n    /* \"contracts/libraries/LibDiamond.sol\":3741:3788  NoSelectorsProvidedForFacetForCut(facetAddress) */\n  mload(0x40)\n  shl(0xe0, 0xe767f91f)\n  dup2\n  mstore\n  sub(shl(0xa0, 0x01), 0x01)\n    /* \"#utility.yul\":5075:5107   */\n  dup3\n  and\n    /* \"contracts/libraries/LibDiamond.sol\":3741:3788  NoSelectorsProvidedForFacetForCut(facetAddress) */\n  0x04\n  dup3\n  add\n    /* \"#utility.yul\":5057:5108   */\n  mstore\n    /* \"#utility.yul\":5030:5048   */\n  0x24\n  add\n    /* \"contracts/libraries/LibDiamond.sol\":3741:3788  NoSelectorsProvidedForFacetForCut(facetAddress) */\ntag_26:\n  mload(0x40)\n  dup1\n  swap2\n  sub\n  swap1\n  revert\n    /* \"contracts/libraries/LibDiamond.sol\":3681:3804  if(functionSelectors.length == 0) {... */\ntag_25:\n    /* \"contracts/libraries/LibDiamond.sol\":3818:3851  IDiamondCut.FacetCutAction action */\n  0x00\n    /* \"contracts/libraries/LibDiamond.sol\":3854:3865  _diamondCut */\n  dup7\n    /* \"contracts/libraries/LibDiamond.sol\":3866:3876  facetIndex */\n  dup5\n    /* \"contracts/libraries/LibDiamond.sol\":3854:3877  _diamondCut[facetIndex] */\n  dup2\n  mload\n  dup2\n  lt\n  tag_29\n  jumpi\n  tag_29\n  tag_22\n  jump\t// in\ntag_29:\n  0x20\n  mul\n  0x20\n  add\n  add\n  mload\n    /* \"contracts/libraries/LibDiamond.sol\":3854:3884  _diamondCut[facetIndex].action */\n  0x20\n  add\n  mload\n    /* \"contracts/libraries/LibDiamond.sol\":3818:3884  IDiamondCut.FacetCutAction action = _diamondCut[facetIndex].action */\n  swap1\n  pop\n    /* \"contracts/libraries/LibDiamond.sol\":3913:3940  IDiamond.FacetCutAction.Add */\n  0x00\n    /* \"contracts/libraries/LibDiamond.sol\":3903:3940  action == IDiamond.FacetCutAction.Add */\n  0x02\n  dup2\n  gt\n  iszero\n  tag_31\n  jumpi\n  tag_31\n  tag_32\n  jump\t// in\ntag_31:\n    /* \"contracts/libraries/LibDiamond.sol\":3903:3909  action */\n  dup2\n    /* \"contracts/libraries/LibDiamond.sol\":3903:3940  action == IDiamond.FacetCutAction.Add */\n  0x02\n  dup2\n  gt\n  iszero\n  tag_34\n  jumpi\n  tag_34\n  tag_32\n  jump\t// in\ntag_34:\n  sub\n    /* \"contracts/libraries/LibDiamond.sol\":3899:4380  if (action == IDiamond.FacetCutAction.Add) {... */\n  tag_35\n  jumpi\n    /* \"contracts/libraries/LibDiamond.sol\":3961:4006  addFunctions(facetAddress, functionSelectors) */\n  tag_36\n    /* \"contracts/libraries/LibDiamond.sol\":3974:3986  facetAddress */\n  dup3\n    /* \"contracts/libraries/LibDiamond.sol\":3988:4005  functionSelectors */\n  dup5\n    /* \"contracts/libraries/LibDiamond.sol\":3961:3973  addFunctions */\n  tag_37\n    /* \"contracts/libraries/LibDiamond.sol\":3961:4006  addFunctions(facetAddress, functionSelectors) */\n  jump\t// in\ntag_36:\n    /* \"contracts/libraries/LibDiamond.sol\":3899:4380  if (action == IDiamond.FacetCutAction.Add) {... */\n  jump(tag_54)\ntag_35:\n    /* \"contracts/libraries/LibDiamond.sol\":4042:4073  IDiamond.FacetCutAction.Replace */\n  0x01\n    /* \"contracts/libraries/LibDiamond.sol\":4032:4038  action */\n  dup2\n    /* \"contracts/libraries/LibDiamond.sol\":4032:4073  action == IDiamond.FacetCutAction.Replace */\n  0x02\n  dup2\n  gt\n  iszero\n  tag_42\n  jumpi\n  tag_42\n  tag_32\n  jump\t// in\ntag_42:\n  sub\n    /* \"contracts/libraries/LibDiamond.sol\":4028:4380  if (action == IDiamond.FacetCutAction.Replace) {... */\n  tag_43\n  jumpi\n    /* \"contracts/libraries/LibDiamond.sol\":4094:4143  replaceFunctions(facetAddress, functionSelectors) */\n  tag_36\n    /* \"contracts/libraries/LibDiamond.sol\":4111:4123  facetAddress */\n  dup3\n    /* \"contracts/libraries/LibDiamond.sol\":4125:4142  functionSelectors */\n  dup5\n    /* \"contracts/libraries/LibDiamond.sol\":4094:4110  replaceFunctions */\n  tag_45\n    /* \"contracts/libraries/LibDiamond.sol\":4094:4143  replaceFunctions(facetAddress, functionSelectors) */\n  jump\t// in\n    /* \"contracts/libraries/LibDiamond.sol\":4028:4380  if (action == IDiamond.FacetCutAction.Replace) {... */\ntag_43:\n    /* \"contracts/libraries/LibDiamond.sol\":4179:4209  IDiamond.FacetCutAction.Remove */\n  0x02\n    /* \"contracts/libraries/LibDiamond.sol\":4169:4175  action */\n  dup2\n    /* \"contracts/libraries/LibDiamond.sol\":4169:4209  action == IDiamond.FacetCutAction.Remove */\n  0x02\n  dup2\n  gt\n  iszero\n  tag_50\n  jumpi\n  tag_50\n  tag_32\n  jump\t// in\ntag_50:\n  sub\n    /* \"contracts/libraries/LibDiamond.sol\":4165:4380  if (action == IDiamond.FacetCutAction.Remove) {... */\n  tag_51\n  jumpi\n    /* \"contracts/libraries/LibDiamond.sol\":4230:4278  removeFunctions(facetAddress, functionSelectors) */\n  tag_36\n    /* \"contracts/libraries/LibDiamond.sol\":4246:4258  facetAddress */\n  dup3\n    /* \"contracts/libraries/LibDiamond.sol\":4260:4277  functionSelectors */\n  dup5\n    /* \"contracts/libraries/LibDiamond.sol\":4230:4245  removeFunctions */\n  tag_53\n    /* \"contracts/libraries/LibDiamond.sol\":4230:4278  removeFunctions(facetAddress, functionSelectors) */\n  jump\t// in\n    /* \"contracts/libraries/LibDiamond.sol\":4165:4380  if (action == IDiamond.FacetCutAction.Remove) {... */\ntag_51:\n    /* \"contracts/libraries/LibDiamond.sol\":4356:4362  action */\n  dup1\n    /* \"contracts/libraries/LibDiamond.sol\":4350:4363  uint8(action) */\n  0x02\n  dup2\n  gt\n  iszero\n  tag_56\n  jumpi\n  tag_56\n  tag_32\n  jump\t// in\ntag_56:\n    /* \"contracts/libraries/LibDiamond.sol\":4326:4364  IncorrectFacetCutAction(uint8(action)) */\n  mload(0x40)\n  shl(0xe1, 0x3ff4d20f)\n  dup2\n  mstore\n    /* \"#utility.yul\":5423:5427   */\n  0xff\n    /* \"#utility.yul\":5411:5428   */\n  swap1\n  swap2\n  and\n    /* \"contracts/libraries/LibDiamond.sol\":4326:4364  IncorrectFacetCutAction(uint8(action)) */\n  0x04\n  dup3\n  add\n    /* \"#utility.yul\":5393:5429   */\n  mstore\n    /* \"#utility.yul\":5366:5384   */\n  0x24\n  add\n    /* \"contracts/libraries/LibDiamond.sol\":4326:4364  IncorrectFacetCutAction(uint8(action)) */\n  tag_26\n    /* \"#utility.yul\":5251:5435   */\n  jump\n    /* \"contracts/libraries/LibDiamond.sol\":4165:4380  if (action == IDiamond.FacetCutAction.Remove) {... */\ntag_54:\n  pop\n  pop\n  pop\n    /* \"contracts/libraries/LibDiamond.sol\":3486:3498  facetIndex++ */\n  0x01\n  add\n    /* \"contracts/libraries/LibDiamond.sol\":3428:4391  for (uint256 facetIndex; facetIndex < _diamondCut.length; facetIndex++) {... */\n  jump(tag_17)\ntag_18:\n  pop\n    /* \"contracts/libraries/LibDiamond.sol\":4406:4447  DiamondCut(_diamondCut, _init, _calldata) */\n  0x8faa70878671ccd212d20771b795c50af8fd3ff6cf27f4bde57e5d4de0aeb673\n    /* \"contracts/libraries/LibDiamond.sol\":4417:4428  _diamondCut */\n  dup4\n    /* \"contracts/libraries/LibDiamond.sol\":4430:4435  _init */\n  dup4\n    /* \"contracts/libraries/LibDiamond.sol\":4437:4446  _calldata */\n  dup4\n    /* \"contracts/libraries/LibDiamond.sol\":4406:4447  DiamondCut(_diamondCut, _init, _calldata) */\n  mload(0x40)\n  tag_59\n  swap4\n  swap3\n  swap2\n  swap1\n  tag_60\n  jump\t// in\ntag_59:\n  mload(0x40)\n  dup1\n  swap2\n  sub\n  swap1\n  log1\n    /* \"contracts/libraries/LibDiamond.sol\":4458:4496  initializeDiamondCut(_init, _calldata) */\n  tag_61\n    /* \"contracts/libraries/LibDiamond.sol\":4479:4484  _init */\n  dup3\n    /* \"contracts/libraries/LibDiamond.sol\":4486:4495  _calldata */\n  dup3\n    /* \"contracts/libraries/LibDiamond.sol\":4458:4478  initializeDiamondCut */\n  tag_62\n    /* \"contracts/libraries/LibDiamond.sol\":4458:4496  initializeDiamondCut(_init, _calldata) */\n  jump\t// in\ntag_61:\n    /* \"contracts/libraries/LibDiamond.sol\":3272:4504  function diamondCut(... */\n  pop\n  pop\n  pop\n  jump\t// out\n    /* \"contracts/libraries/LibDiamond.sol\":4512:5589  function addFunctions(address _facetAddress, bytes4[] memory _functionSelectors) internal {        ... */\ntag_37:\n  sub(shl(0xa0, 0x01), 0x01)\n    /* \"contracts/libraries/LibDiamond.sol\":4624:4651  _facetAddress == address(0) */\n  dup3\n  and\n    /* \"contracts/libraries/LibDiamond.sol\":4621:4738  if(_facetAddress == address(0)) {... */\n  tag_65\n  jumpi\n    /* \"contracts/libraries/LibDiamond.sol\":4707:4725  _functionSelectors */\n  dup1\n    /* \"contracts/libraries/LibDiamond.sol\":4675:4726  CannotAddSelectorsToZeroAddress(_functionSelectors) */\n  mload(0x40)\n  shl(0xe2, 0x02b8da07)\n  dup2\n  mstore\n  0x04\n  add\n  tag_26\n  swap2\n  swap1\n  tag_67\n  jump\t// in\n    /* \"contracts/libraries/LibDiamond.sol\":4621:4738  if(_facetAddress == address(0)) {... */\ntag_65:\n  0x00\n  dup1\n  mload\n  0x20\n  data_c0d727610ea16241eff4447d08bb1b4595f7d2ec4515282437a13b7d0df4b922\n  dup4\n  codecopy\n  dup2\n  mload\n  swap2\n  mstore\n    /* \"contracts/libraries/LibDiamond.sol\":4833:4852  ds.selectors.length */\n  sload\n    /* \"contracts/libraries/LibDiamond.sol\":4880:4957  enforceHasContractCode(_facetAddress, \"LibDiamondCut: Add facet has no code\") */\n  0x40\n  dup1\n  mload\n  0x60\n  dup2\n  add\n  swap1\n  swap2\n  mstore\n  0x24\n  dup1\n  dup3\n  mstore\n  0x00\n  dup1\n  mload\n  0x20\n  data_1ac25121ac50ee96730ac9ae618ddfea240cf59a9860f34e3db50d8def79c035\n  dup4\n  codecopy\n  dup2\n  mload\n  swap2\n  mstore\n    /* \"contracts/libraries/LibDiamond.sol\":1639:1684  keccak256(\"diamond.standard.diamond.storage\") */\n  swap3\n    /* \"contracts/libraries/LibDiamond.sol\":4833:4852  ds.selectors.length */\n  swap2\n    /* \"contracts/libraries/LibDiamond.sol\":4880:4957  enforceHasContractCode(_facetAddress, \"LibDiamondCut: Add facet has no code\") */\n  tag_69\n  swap2\n    /* \"contracts/libraries/LibDiamond.sol\":4903:4916  _facetAddress */\n  dup7\n  swap2\n    /* \"contracts/libraries/LibDiamond.sol\":4880:4957  enforceHasContractCode(_facetAddress, \"LibDiamondCut: Add facet has no code\") */\n  swap1\n  data_343e33adc9ef80d2a3b19196e3a71ee2d793419943c19ad2b2a6875f7dd42e8d\n  0x20\n  dup4\n  add\n  codecopy\n    /* \"contracts/libraries/LibDiamond.sol\":4880:4902  enforceHasContractCode */\n  tag_70\n    /* \"contracts/libraries/LibDiamond.sol\":4880:4957  enforceHasContractCode(_facetAddress, \"LibDiamondCut: Add facet has no code\") */\n  jump\t// in\ntag_69:\n    /* \"contracts/libraries/LibDiamond.sol\":4973:4994  uint256 selectorIndex */\n  0x00\n    /* \"contracts/libraries/LibDiamond.sol\":4968:5582  for (uint256 selectorIndex; selectorIndex < _functionSelectors.length; selectorIndex++) {... */\ntag_71:\n    /* \"contracts/libraries/LibDiamond.sol\":5012:5030  _functionSelectors */\n  dup4\n    /* \"contracts/libraries/LibDiamond.sol\":5012:5037  _functionSelectors.length */\n  mload\n    /* \"contracts/libraries/LibDiamond.sol\":4996:5009  selectorIndex */\n  dup2\n    /* \"contracts/libraries/LibDiamond.sol\":4996:5037  selectorIndex < _functionSelectors.length */\n  lt\n    /* \"contracts/libraries/LibDiamond.sol\":4968:5582  for (uint256 selectorIndex; selectorIndex < _functionSelectors.length; selectorIndex++) {... */\n  iszero\n  tag_72\n  jumpi\n    /* \"contracts/libraries/LibDiamond.sol\":5071:5086  bytes4 selector */\n  0x00\n    /* \"contracts/libraries/LibDiamond.sol\":5089:5107  _functionSelectors */\n  dup5\n    /* \"contracts/libraries/LibDiamond.sol\":5108:5121  selectorIndex */\n  dup3\n    /* \"contracts/libraries/LibDiamond.sol\":5089:5122  _functionSelectors[selectorIndex] */\n  dup2\n  mload\n  dup2\n  lt\n  tag_75\n  jumpi\n  tag_75\n  tag_22\n  jump\t// in\ntag_75:\n  0x20\n  swap1\n  dup2\n  mul\n  swap2\n  swap1\n  swap2\n  add\n  dup2\n  add\n  mload\n  not(sub(shl(0xe0, 0x01), 0x01))\n    /* \"contracts/libraries/LibDiamond.sol\":5163:5207  ds.facetAddressAndSelectorPosition[selector] */\n  dup2\n  and\n    /* \"contracts/libraries/LibDiamond.sol\":5137:5160  address oldFacetAddress */\n  0x00\n    /* \"contracts/libraries/LibDiamond.sol\":5163:5207  ds.facetAddressAndSelectorPosition[selector] */\n  swap1\n  dup2\n  mstore\n  swap2\n  dup7\n  swap1\n  mstore\n  0x40\n  swap1\n  swap2\n  keccak256\n    /* \"contracts/libraries/LibDiamond.sol\":5163:5220  ds.facetAddressAndSelectorPosition[selector].facetAddress */\n  sload\n    /* \"contracts/libraries/LibDiamond.sol\":5089:5122  _functionSelectors[selectorIndex] */\n  swap1\n  swap2\n  pop\n  sub(shl(0xa0, 0x01), 0x01)\n    /* \"contracts/libraries/LibDiamond.sol\":5163:5220  ds.facetAddressAndSelectorPosition[selector].facetAddress */\n  and\n    /* \"contracts/libraries/LibDiamond.sol\":5238:5267  oldFacetAddress != address(0) */\n  dup1\n  iszero\n    /* \"contracts/libraries/LibDiamond.sol\":5235:5364  if(oldFacetAddress != address(0)) {... */\n  tag_76\n  jumpi\n    /* \"contracts/libraries/LibDiamond.sol\":5295:5348  CannotAddFunctionToDiamondThatAlreadyExists(selector) */\n  mload(0x40)\n  shl(0xe0, 0xebbf5d07)\n  dup2\n  mstore\n  not(sub(shl(0xe0, 0x01), 0x01))\n    /* \"#utility.yul\":8561:8594   */\n  dup4\n  and\n    /* \"contracts/libraries/LibDiamond.sol\":5295:5348  CannotAddFunctionToDiamondThatAlreadyExists(selector) */\n  0x04\n  dup3\n  add\n    /* \"#utility.yul\":8543:8595   */\n  mstore\n    /* \"#utility.yul\":8516:8534   */\n  0x24\n  add\n    /* \"contracts/libraries/LibDiamond.sol\":5295:5348  CannotAddFunctionToDiamondThatAlreadyExists(selector) */\n  tag_26\n    /* \"#utility.yul\":8399:8601   */\n  jump\n    /* \"contracts/libraries/LibDiamond.sol\":5235:5364  if(oldFacetAddress != address(0)) {... */\ntag_76:\n    /* \"contracts/libraries/LibDiamond.sol\":5437:5498  FacetAddressAndSelectorPosition(_facetAddress, selectorCount) */\n  0x40\n  dup1\n  mload\n  dup1\n  dup3\n  add\n  dup3\n  mstore\n  sub(shl(0xa0, 0x01), 0x01)\n  dup1\n  dup11\n  and\n  dup3\n  mstore\n  0xffff\n  dup1\n  dup9\n  and\n  0x20\n  dup1\n  dup6\n  add\n  swap2\n  dup3\n  mstore\n  not(sub(shl(0xe0, 0x01), 0x01))\n    /* \"contracts/libraries/LibDiamond.sol\":5390:5434  ds.facetAddressAndSelectorPosition[selector] */\n  dup9\n  and\n  0x00\n  swap1\n  dup2\n  mstore\n  dup12\n  dup3\n  mstore\n  swap6\n  dup7\n  keccak256\n    /* \"contracts/libraries/LibDiamond.sol\":5390:5498  ds.facetAddressAndSelectorPosition[selector] = FacetAddressAndSelectorPosition(_facetAddress, selectorCount) */\n  swap5\n  mload\n  dup6\n  sload\n  swap3\n  mload\n  swap1\n  swap4\n  and\n  shl(0xa0, 0x01)\n  mul\n  not(sub(shl(0xb0, 0x01), 0x01))\n  swap1\n  swap3\n  and\n  swap3\n  swap1\n  swap4\n  and\n  swap2\n  swap1\n  swap2\n  or\n  or\n  swap1\n  swap2\n  sstore\n  0x01\n    /* \"contracts/libraries/LibDiamond.sol\":5513:5525  ds.selectors */\n  dup1\n  dup9\n  add\n    /* \"contracts/libraries/LibDiamond.sol\":5513:5540  ds.selectors.push(selector) */\n  dup1\n  sload\n  swap2\n  dup3\n  add\n  dup2\n  sstore\n  dup4\n  mstore\n  swap2\n  keccak256\n  0x08\n  dup3\n  div\n  add\n  dup1\n  sload\n  0xe0\n  dup6\n  swap1\n  shr\n  0x04\n  0x07\n  swap1\n  swap5\n  and\n  swap4\n  swap1\n  swap4\n  mul\n    /* \"contracts/libraries/LibDiamond.sol\":5390:5498  ds.facetAddressAndSelectorPosition[selector] = FacetAddressAndSelectorPosition(_facetAddress, selectorCount) */\n  0x0100\n    /* \"contracts/libraries/LibDiamond.sol\":5513:5540  ds.selectors.push(selector) */\n  exp\n  swap3\n  dup4\n  mul\n  0xffffffff\n  swap1\n  swap4\n  mul\n  not\n  and\n  swap2\n  swap1\n  swap2\n  or\n  swap1\n  sstore\n    /* \"contracts/libraries/LibDiamond.sol\":5484:5497  selectorCount */\n  dup4\n    /* \"contracts/libraries/LibDiamond.sol\":5555:5570  selectorCount++ */\n  tag_80\n    /* \"contracts/libraries/LibDiamond.sol\":5484:5497  selectorCount */\n  dup2\n    /* \"contracts/libraries/LibDiamond.sol\":5555:5570  selectorCount++ */\n  tag_81\n  jump\t// in\ntag_80:\n  swap5\n  pop\n  pop\n    /* \"contracts/libraries/LibDiamond.sol\":5039:5054  selectorIndex++ */\n  0x01\n  swap1\n  swap3\n  add\n  swap2\n  pop\n    /* \"contracts/libraries/LibDiamond.sol\":4968:5582  for (uint256 selectorIndex; selectorIndex < _functionSelectors.length; selectorIndex++) {... */\n  tag_71\n  swap1\n  pop\n  jump\ntag_72:\n  pop\n    /* \"contracts/libraries/LibDiamond.sol\":4602:5589  {        ... */\n  pop\n  pop\n    /* \"contracts/libraries/LibDiamond.sol\":4512:5589  function addFunctions(address _facetAddress, bytes4[] memory _functionSelectors) internal {        ... */\n  pop\n  pop\n  jump\t// out\n    /* \"contracts/libraries/LibDiamond.sol\":5597:6938  function replaceFunctions(address _facetAddress, bytes4[] memory _functionSelectors) internal {        ... */\ntag_45:\n  0x00\n  dup1\n  mload\n  0x20\n  data_1ac25121ac50ee96730ac9ae618ddfea240cf59a9860f34e3db50d8def79c035\n  dup4\n  codecopy\n  dup2\n  mload\n  swap2\n  mstore\n  sub(shl(0xa0, 0x01), 0x01)\n    /* \"contracts/libraries/LibDiamond.sol\":5768:5795  _facetAddress == address(0) */\n  dup4\n  and\n    /* \"contracts/libraries/LibDiamond.sol\":5765:5897  if(_facetAddress == address(0)) {... */\n  tag_84\n  jumpi\n    /* \"contracts/libraries/LibDiamond.sol\":5866:5884  _functionSelectors */\n  dup2\n    /* \"contracts/libraries/LibDiamond.sol\":5819:5885  CannotReplaceFunctionsFromFacetWithZeroAddress(_functionSelectors) */\n  mload(0x40)\n  shl(0xe0, 0xcd98a96f)\n  dup2\n  mstore\n  0x04\n  add\n  tag_26\n  swap2\n  swap1\n  tag_67\n  jump\t// in\n    /* \"contracts/libraries/LibDiamond.sol\":5765:5897  if(_facetAddress == address(0)) {... */\ntag_84:\n    /* \"contracts/libraries/LibDiamond.sol\":5907:5988  enforceHasContractCode(_facetAddress, \"LibDiamondCut: Replace facet has no code\") */\n  tag_86\n    /* \"contracts/libraries/LibDiamond.sol\":5930:5943  _facetAddress */\n  dup4\n    /* \"contracts/libraries/LibDiamond.sol\":5907:5988  enforceHasContractCode(_facetAddress, \"LibDiamondCut: Replace facet has no code\") */\n  mload(0x40)\n  dup1\n  0x60\n  add\n  0x40\n  mstore\n  dup1\n  0x28\n  dup2\n  mstore\n  0x20\n  add\n  data_de246aa8052f872d61bcd9cfb620b8012f8bc6e512400178c0e967944dadacfe\n  0x28\n  swap2\n  codecopy\n    /* \"contracts/libraries/LibDiamond.sol\":5907:5929  enforceHasContractCode */\n  tag_70\n    /* \"contracts/libraries/LibDiamond.sol\":5907:5988  enforceHasContractCode(_facetAddress, \"LibDiamondCut: Replace facet has no code\") */\n  jump\t// in\ntag_86:\n    /* \"contracts/libraries/LibDiamond.sol\":6004:6025  uint256 selectorIndex */\n  0x00\n    /* \"contracts/libraries/LibDiamond.sol\":5999:6931  for (uint256 selectorIndex; selectorIndex < _functionSelectors.length; selectorIndex++) {... */\ntag_87:\n    /* \"contracts/libraries/LibDiamond.sol\":6043:6061  _functionSelectors */\n  dup3\n    /* \"contracts/libraries/LibDiamond.sol\":6043:6068  _functionSelectors.length */\n  mload\n    /* \"contracts/libraries/LibDiamond.sol\":6027:6040  selectorIndex */\n  dup2\n    /* \"contracts/libraries/LibDiamond.sol\":6027:6068  selectorIndex < _functionSelectors.length */\n  lt\n    /* \"contracts/libraries/LibDiamond.sol\":5999:6931  for (uint256 selectorIndex; selectorIndex < _functionSelectors.length; selectorIndex++) {... */\n  iszero\n  tag_88\n  jumpi\n    /* \"contracts/libraries/LibDiamond.sol\":6102:6117  bytes4 selector */\n  0x00\n    /* \"contracts/libraries/LibDiamond.sol\":6120:6138  _functionSelectors */\n  dup4\n    /* \"contracts/libraries/LibDiamond.sol\":6139:6152  selectorIndex */\n  dup3\n    /* \"contracts/libraries/LibDiamond.sol\":6120:6153  _functionSelectors[selectorIndex] */\n  dup2\n  mload\n  dup2\n  lt\n  tag_91\n  jumpi\n  tag_91\n  tag_22\n  jump\t// in\ntag_91:\n  0x20\n  swap1\n  dup2\n  mul\n  swap2\n  swap1\n  swap2\n  add\n  dup2\n  add\n  mload\n  not(sub(shl(0xe0, 0x01), 0x01))\n    /* \"contracts/libraries/LibDiamond.sol\":6194:6238  ds.facetAddressAndSelectorPosition[selector] */\n  dup2\n  and\n    /* \"contracts/libraries/LibDiamond.sol\":6168:6191  address oldFacetAddress */\n  0x00\n    /* \"contracts/libraries/LibDiamond.sol\":6194:6238  ds.facetAddressAndSelectorPosition[selector] */\n  swap1\n  dup2\n  mstore\n  swap2\n  dup6\n  swap1\n  mstore\n  0x40\n  swap1\n  swap2\n  keccak256\n    /* \"contracts/libraries/LibDiamond.sol\":6194:6251  ds.facetAddressAndSelectorPosition[selector].facetAddress */\n  sload\n    /* \"contracts/libraries/LibDiamond.sol\":6120:6153  _functionSelectors[selectorIndex] */\n  swap1\n  swap2\n  pop\n  sub(shl(0xa0, 0x01), 0x01)\n    /* \"contracts/libraries/LibDiamond.sol\":6194:6251  ds.facetAddressAndSelectorPosition[selector].facetAddress */\n  and\n    /* \"contracts/libraries/LibDiamond.sol\":6404:6408  this */\n  address\n    /* \"contracts/libraries/LibDiamond.sol\":6377:6409  oldFacetAddress == address(this) */\n  dup2\n  sub\n    /* \"contracts/libraries/LibDiamond.sol\":6374:6493  if(oldFacetAddress == address(this)) {... */\n  tag_92\n  jumpi\n    /* \"contracts/libraries/LibDiamond.sol\":6437:6477  CannotReplaceImmutableFunction(selector) */\n  mload(0x40)\n  shl(0xe1, 0x2901806d)\n  dup2\n  mstore\n  not(sub(shl(0xe0, 0x01), 0x01))\n    /* \"#utility.yul\":8561:8594   */\n  dup4\n  and\n    /* \"contracts/libraries/LibDiamond.sol\":6437:6477  CannotReplaceImmutableFunction(selector) */\n  0x04\n  dup3\n  add\n    /* \"#utility.yul\":8543:8595   */\n  mstore\n    /* \"#utility.yul\":8516:8534   */\n  0x24\n  add\n    /* \"contracts/libraries/LibDiamond.sol\":6437:6477  CannotReplaceImmutableFunction(selector) */\n  tag_26\n    /* \"#utility.yul\":8399:8601   */\n  jump\n    /* \"contracts/libraries/LibDiamond.sol\":6374:6493  if(oldFacetAddress == address(this)) {... */\ntag_92:\n    /* \"contracts/libraries/LibDiamond.sol\":6529:6542  _facetAddress */\n  dup6\n  sub(shl(0xa0, 0x01), 0x01)\n    /* \"contracts/libraries/LibDiamond.sol\":6510:6542  oldFacetAddress == _facetAddress */\n  and\n    /* \"contracts/libraries/LibDiamond.sol\":6510:6525  oldFacetAddress */\n  dup2\n  sub(shl(0xa0, 0x01), 0x01)\n    /* \"contracts/libraries/LibDiamond.sol\":6510:6542  oldFacetAddress == _facetAddress */\n  and\n  sub\n    /* \"contracts/libraries/LibDiamond.sol\":6507:6652  if(oldFacetAddress == _facetAddress) {... */\n  tag_94\n  jumpi\n    /* \"contracts/libraries/LibDiamond.sol\":6570:6636  CannotReplaceFunctionWithTheSameFunctionFromTheSameFacet(selector) */\n  mload(0x40)\n  shl(0xe1, 0x1ac6ce8d)\n  dup2\n  mstore\n  not(sub(shl(0xe0, 0x01), 0x01))\n    /* \"#utility.yul\":8561:8594   */\n  dup4\n  and\n    /* \"contracts/libraries/LibDiamond.sol\":6570:6636  CannotReplaceFunctionWithTheSameFunctionFromTheSameFacet(selector) */\n  0x04\n  dup3\n  add\n    /* \"#utility.yul\":8543:8595   */\n  mstore\n    /* \"#utility.yul\":8516:8534   */\n  0x24\n  add\n    /* \"contracts/libraries/LibDiamond.sol\":6570:6636  CannotReplaceFunctionWithTheSameFunctionFromTheSameFacet(selector) */\n  tag_26\n    /* \"#utility.yul\":8399:8601   */\n  jump\n    /* \"contracts/libraries/LibDiamond.sol\":6507:6652  if(oldFacetAddress == _facetAddress) {... */\ntag_94:\n  sub(shl(0xa0, 0x01), 0x01)\n    /* \"contracts/libraries/LibDiamond.sol\":6669:6698  oldFacetAddress == address(0) */\n  dup2\n  and\n    /* \"contracts/libraries/LibDiamond.sol\":6666:6790  if(oldFacetAddress == address(0)) {... */\n  tag_96\n  jumpi\n    /* \"contracts/libraries/LibDiamond.sol\":6726:6774  CannotReplaceFunctionThatDoesNotExists(selector) */\n  mload(0x40)\n  shl(0xe0, 0x7479f939)\n  dup2\n  mstore\n  not(sub(shl(0xe0, 0x01), 0x01))\n    /* \"#utility.yul\":8561:8594   */\n  dup4\n  and\n    /* \"contracts/libraries/LibDiamond.sol\":6726:6774  CannotReplaceFunctionThatDoesNotExists(selector) */\n  0x04\n  dup3\n  add\n    /* \"#utility.yul\":8543:8595   */\n  mstore\n    /* \"#utility.yul\":8516:8534   */\n  0x24\n  add\n    /* \"contracts/libraries/LibDiamond.sol\":6726:6774  CannotReplaceFunctionThatDoesNotExists(selector) */\n  tag_26\n    /* \"#utility.yul\":8399:8601   */\n  jump\n    /* \"contracts/libraries/LibDiamond.sol\":6666:6790  if(oldFacetAddress == address(0)) {... */\ntag_96:\n  pop\n  not(sub(shl(0xe0, 0x01), 0x01))\n    /* \"contracts/libraries/LibDiamond.sol\":6846:6890  ds.facetAddressAndSelectorPosition[selector] */\n  and\n    /* \"contracts/libraries/LibDiamond.sol\":6846:6880  ds.facetAddressAndSelectorPosition */\n  0x00\n    /* \"contracts/libraries/LibDiamond.sol\":6846:6890  ds.facetAddressAndSelectorPosition[selector] */\n  swap1\n  dup2\n  mstore\n  0x20\n  dup4\n  swap1\n  mstore\n  0x40\n  swap1\n  keccak256\n    /* \"contracts/libraries/LibDiamond.sol\":6846:6919  ds.facetAddressAndSelectorPosition[selector].facetAddress = _facetAddress */\n  dup1\n  sload\n  not(sub(shl(0xa0, 0x01), 0x01))\n  and\n  sub(shl(0xa0, 0x01), 0x01)\n  dup7\n  and\n  or\n  swap1\n  sstore\n  0x01\n    /* \"contracts/libraries/LibDiamond.sol\":6070:6085  selectorIndex++ */\n  add\n    /* \"contracts/libraries/LibDiamond.sol\":5999:6931  for (uint256 selectorIndex; selectorIndex < _functionSelectors.length; selectorIndex++) {... */\n  jump(tag_87)\ntag_88:\n  pop\n    /* \"contracts/libraries/LibDiamond.sol\":5691:6938  {        ... */\n  pop\n    /* \"contracts/libraries/LibDiamond.sol\":5597:6938  function replaceFunctions(address _facetAddress, bytes4[] memory _functionSelectors) internal {        ... */\n  pop\n  pop\n  jump\t// out\n    /* \"contracts/libraries/LibDiamond.sol\":6946:8690  function removeFunctions(address _facetAddress, bytes4[] memory _functionSelectors) internal {        ... */\ntag_53:\n  0x00\n  dup1\n  mload\n  0x20\n  data_c0d727610ea16241eff4447d08bb1b4595f7d2ec4515282437a13b7d0df4b922\n  dup4\n  codecopy\n  dup2\n  mload\n  swap2\n  mstore\n    /* \"contracts/libraries/LibDiamond.sol\":7137:7156  ds.selectors.length */\n  sload\n  0x00\n  dup1\n  mload\n  0x20\n  data_1ac25121ac50ee96730ac9ae618ddfea240cf59a9860f34e3db50d8def79c035\n  dup4\n  codecopy\n  dup2\n  mload\n  swap2\n  mstore\n    /* \"contracts/libraries/LibDiamond.sol\":1639:1684  keccak256(\"diamond.standard.diamond.storage\") */\n  swap1\n  sub(shl(0xa0, 0x01), 0x01)\n    /* \"contracts/libraries/LibDiamond.sol\":7170:7197  _facetAddress != address(0) */\n  dup5\n  and\n  iszero\n    /* \"contracts/libraries/LibDiamond.sol\":7167:7283  if(_facetAddress != address(0)) {... */\n  tag_100\n  jumpi\n    /* \"contracts/libraries/LibDiamond.sol\":7221:7271  RemoveFacetAddressMustBeZeroAddress(_facetAddress) */\n  mload(0x40)\n  shl(0xe0, 0xd091bc81)\n  dup2\n  mstore\n  sub(shl(0xa0, 0x01), 0x01)\n    /* \"#utility.yul\":5075:5107   */\n  dup6\n  and\n    /* \"contracts/libraries/LibDiamond.sol\":7221:7271  RemoveFacetAddressMustBeZeroAddress(_facetAddress) */\n  0x04\n  dup3\n  add\n    /* \"#utility.yul\":5057:5108   */\n  mstore\n    /* \"#utility.yul\":5030:5048   */\n  0x24\n  add\n    /* \"contracts/libraries/LibDiamond.sol\":7221:7271  RemoveFacetAddressMustBeZeroAddress(_facetAddress) */\n  tag_26\n    /* \"#utility.yul\":4911:5114   */\n  jump\n    /* \"contracts/libraries/LibDiamond.sol\":7167:7283  if(_facetAddress != address(0)) {... */\ntag_100:\n    /* \"contracts/libraries/LibDiamond.sol\":7306:7327  uint256 selectorIndex */\n  0x00\n    /* \"contracts/libraries/LibDiamond.sol\":7301:8683  for (uint256 selectorIndex; selectorIndex < _functionSelectors.length; selectorIndex++) {... */\ntag_102:\n    /* \"contracts/libraries/LibDiamond.sol\":7345:7363  _functionSelectors */\n  dup4\n    /* \"contracts/libraries/LibDiamond.sol\":7345:7370  _functionSelectors.length */\n  mload\n    /* \"contracts/libraries/LibDiamond.sol\":7329:7342  selectorIndex */\n  dup2\n    /* \"contracts/libraries/LibDiamond.sol\":7329:7370  selectorIndex < _functionSelectors.length */\n  lt\n    /* \"contracts/libraries/LibDiamond.sol\":7301:8683  for (uint256 selectorIndex; selectorIndex < _functionSelectors.length; selectorIndex++) {... */\n  iszero\n  tag_72\n  jumpi\n    /* \"contracts/libraries/LibDiamond.sol\":7404:7419  bytes4 selector */\n  0x00\n    /* \"contracts/libraries/LibDiamond.sol\":7422:7440  _functionSelectors */\n  dup5\n    /* \"contracts/libraries/LibDiamond.sol\":7441:7454  selectorIndex */\n  dup3\n    /* \"contracts/libraries/LibDiamond.sol\":7422:7455  _functionSelectors[selectorIndex] */\n  dup2\n  mload\n  dup2\n  lt\n  tag_106\n  jumpi\n  tag_106\n  tag_22\n  jump\t// in\ntag_106:\n  0x20\n  swap1\n  dup2\n  mul\n  swap2\n  swap1\n  swap2\n  add\n  dup2\n  add\n  mload\n  not(sub(shl(0xe0, 0x01), 0x01))\n    /* \"contracts/libraries/LibDiamond.sol\":7546:7590  ds.facetAddressAndSelectorPosition[selector] */\n  dup2\n  and\n    /* \"contracts/libraries/LibDiamond.sol\":7470:7543  FacetAddressAndSelectorPosition memory oldFacetAddressAndSelectorPosition */\n  0x00\n    /* \"contracts/libraries/LibDiamond.sol\":7546:7590  ds.facetAddressAndSelectorPosition[selector] */\n  swap1\n  dup2\n  mstore\n  dup7\n  dup4\n  mstore\n  0x40\n  swap1\n  dup2\n  swap1\n  keccak256\n    /* \"contracts/libraries/LibDiamond.sol\":7470:7590  FacetAddressAndSelectorPosition memory oldFacetAddressAndSelectorPosition = ds.facetAddressAndSelectorPosition[selector] */\n  dup2\n  mload\n  dup1\n  dup4\n  add\n  swap1\n  swap3\n  mstore\n  sload\n  sub(shl(0xa0, 0x01), 0x01)\n  dup2\n  and\n  dup1\n  dup4\n  mstore\n  shl(0xa0, 0x01)\n  swap1\n  swap2\n  div\n  0xffff\n  and\n  swap4\n  dup3\n  add\n  swap4\n  swap1\n  swap4\n  mstore\n    /* \"contracts/libraries/LibDiamond.sol\":7422:7455  _functionSelectors[selectorIndex] */\n  swap1\n  swap3\n  pop\n    /* \"contracts/libraries/LibDiamond.sol\":7470:7590  FacetAddressAndSelectorPosition memory oldFacetAddressAndSelectorPosition = ds.facetAddressAndSelectorPosition[selector] */\n  swap1\n    /* \"contracts/libraries/LibDiamond.sol\":7605:7759  if(oldFacetAddressAndSelectorPosition.facetAddress == address(0)) {... */\n  tag_107\n  jumpi\n    /* \"contracts/libraries/LibDiamond.sol\":7697:7743  CannotRemoveFunctionThatDoesNotExist(selector) */\n  mload(0x40)\n  shl(0xe0, 0x7a08a22d)\n  dup2\n  mstore\n  not(sub(shl(0xe0, 0x01), 0x01))\n    /* \"#utility.yul\":8561:8594   */\n  dup4\n  and\n    /* \"contracts/libraries/LibDiamond.sol\":7697:7743  CannotRemoveFunctionThatDoesNotExist(selector) */\n  0x04\n  dup3\n  add\n    /* \"#utility.yul\":8543:8595   */\n  mstore\n    /* \"#utility.yul\":8516:8534   */\n  0x24\n  add\n    /* \"contracts/libraries/LibDiamond.sol\":7697:7743  CannotRemoveFunctionThatDoesNotExist(selector) */\n  tag_26\n    /* \"#utility.yul\":8399:8601   */\n  jump\n    /* \"contracts/libraries/LibDiamond.sol\":7605:7759  if(oldFacetAddressAndSelectorPosition.facetAddress == address(0)) {... */\ntag_107:\n    /* \"contracts/libraries/LibDiamond.sol\":7898:7945  oldFacetAddressAndSelectorPosition.facetAddress */\n  dup1\n  mload\n    /* \"contracts/libraries/LibDiamond.sol\":7957:7961  this */\n  address\n  sub(shl(0xa0, 0x01), 0x01)\n    /* \"contracts/libraries/LibDiamond.sol\":7898:7962  oldFacetAddressAndSelectorPosition.facetAddress == address(this) */\n  swap1\n  swap2\n  and\n  sub\n    /* \"contracts/libraries/LibDiamond.sol\":7895:8045  if(oldFacetAddressAndSelectorPosition.facetAddress == address(this)) {... */\n  tag_109\n  jumpi\n    /* \"contracts/libraries/LibDiamond.sol\":7990:8029  CannotRemoveImmutableFunction(selector) */\n  mload(0x40)\n  shl(0xe3, 0x0df5fd61)\n  dup2\n  mstore\n  not(sub(shl(0xe0, 0x01), 0x01))\n    /* \"#utility.yul\":8561:8594   */\n  dup4\n  and\n    /* \"contracts/libraries/LibDiamond.sol\":7990:8029  CannotRemoveImmutableFunction(selector) */\n  0x04\n  dup3\n  add\n    /* \"#utility.yul\":8543:8595   */\n  mstore\n    /* \"#utility.yul\":8516:8534   */\n  0x24\n  add\n    /* \"contracts/libraries/LibDiamond.sol\":7990:8029  CannotRemoveImmutableFunction(selector) */\n  tag_26\n    /* \"#utility.yul\":8399:8601   */\n  jump\n    /* \"contracts/libraries/LibDiamond.sol\":7895:8045  if(oldFacetAddressAndSelectorPosition.facetAddress == address(this)) {... */\ntag_109:\n    /* \"contracts/libraries/LibDiamond.sol\":8111:8126  selectorCount-- */\n  dup4\n  tag_111\n  dup2\n  tag_112\n  jump\t// in\ntag_111:\n  swap5\n  pop\n  pop\n    /* \"contracts/libraries/LibDiamond.sol\":8200:8213  selectorCount */\n  dup4\n    /* \"contracts/libraries/LibDiamond.sol\":8145:8179  oldFacetAddressAndSelectorPosition */\n  dup2\n    /* \"contracts/libraries/LibDiamond.sol\":8145:8196  oldFacetAddressAndSelectorPosition.selectorPosition */\n  0x20\n  add\n  mload\n    /* \"contracts/libraries/LibDiamond.sol\":8145:8213  oldFacetAddressAndSelectorPosition.selectorPosition != selectorCount */\n  0xffff\n  and\n  eq\n    /* \"contracts/libraries/LibDiamond.sol\":8141:8536  if (oldFacetAddressAndSelectorPosition.selectorPosition != selectorCount) {... */\n  tag_113\n  jumpi\n    /* \"contracts/libraries/LibDiamond.sol\":8234:8253  bytes4 lastSelector */\n  0x00\n    /* \"contracts/libraries/LibDiamond.sol\":8256:8258  ds */\n  dup6\n    /* \"contracts/libraries/LibDiamond.sol\":8256:8268  ds.selectors */\n  0x01\n  add\n    /* \"contracts/libraries/LibDiamond.sol\":8269:8282  selectorCount */\n  dup6\n    /* \"contracts/libraries/LibDiamond.sol\":8256:8283  ds.selectors[selectorCount] */\n  dup2\n  sload\n  dup2\n  lt\n  tag_115\n  jumpi\n  tag_115\n  tag_22\n  jump\t// in\ntag_115:\n  swap1\n  0x00\n  mstore\n  keccak256(0x00, 0x20)\n  swap1\n  0x08\n  swap2\n  dup3\n  dup3\n  div\n  add\n  swap2\n  swap1\n  mod\n  0x04\n  mul\n  swap1\n  sload\n  swap1\n  0x0100\n  exp\n  swap1\n  div\n  0xe0\n  shl\n    /* \"contracts/libraries/LibDiamond.sol\":8234:8283  bytes4 lastSelector = ds.selectors[selectorCount] */\n  swap1\n  pop\n    /* \"contracts/libraries/LibDiamond.sol\":8370:8382  lastSelector */\n  dup1\n    /* \"contracts/libraries/LibDiamond.sol\":8302:8304  ds */\n  dup7\n    /* \"contracts/libraries/LibDiamond.sol\":8302:8314  ds.selectors */\n  0x01\n  add\n    /* \"contracts/libraries/LibDiamond.sol\":8315:8349  oldFacetAddressAndSelectorPosition */\n  dup4\n    /* \"contracts/libraries/LibDiamond.sol\":8315:8366  oldFacetAddressAndSelectorPosition.selectorPosition */\n  0x20\n  add\n  mload\n    /* \"contracts/libraries/LibDiamond.sol\":8302:8367  ds.selectors[oldFacetAddressAndSelectorPosition.selectorPosition] */\n  0xffff\n  and\n  dup2\n  sload\n  dup2\n  lt\n  tag_118\n  jumpi\n  tag_118\n  tag_22\n  jump\t// in\ntag_118:\n  0x00\n  swap2\n  dup3\n  mstore\n  0x20\n  dup1\n  dup4\n  keccak256\n  0x08\n  dup4\n  div\n  add\n    /* \"contracts/libraries/LibDiamond.sol\":8302:8382  ds.selectors[oldFacetAddressAndSelectorPosition.selectorPosition] = lastSelector */\n  dup1\n  sload\n  0xffffffff\n    /* \"contracts/libraries/LibDiamond.sol\":8302:8367  ds.selectors[oldFacetAddressAndSelectorPosition.selectorPosition] */\n  0x07\n  swap1\n  swap5\n  and\n  0x04\n  mul\n    /* \"contracts/libraries/LibDiamond.sol\":8302:8382  ds.selectors[oldFacetAddressAndSelectorPosition.selectorPosition] = lastSelector */\n  0x0100\n  exp\n  swap4\n  dup5\n  mul\n  not\n  and\n  0xe0\n  swap6\n  swap1\n  swap6\n  shr\n  swap3\n  swap1\n  swap3\n  mul\n  swap4\n  swap1\n  swap4\n  or\n  swap1\n  sstore\n    /* \"contracts/libraries/LibDiamond.sol\":8469:8520  oldFacetAddressAndSelectorPosition.selectorPosition */\n  dup4\n  dup3\n  add\n  mload\n  not(sub(shl(0xe0, 0x01), 0x01))\n    /* \"contracts/libraries/LibDiamond.sol\":8401:8449  ds.facetAddressAndSelectorPosition[lastSelector] */\n  swap4\n  swap1\n  swap4\n  and\n  dup2\n  mstore\n  swap1\n  dup8\n  swap1\n  mstore\n  0x40\n  swap1\n  keccak256\n    /* \"contracts/libraries/LibDiamond.sol\":8401:8520  ds.facetAddressAndSelectorPosition[lastSelector].selectorPosition = oldFacetAddressAndSelectorPosition.selectorPosition */\n  dup1\n  sload\n  not(shl(0xa0, 0xffff))\n  and\n  shl(0xa0, 0x01)\n  0xffff\n  swap1\n  swap4\n  and\n  swap3\n  swap1\n  swap3\n  mul\n  swap2\n  swap1\n  swap2\n  or\n  swap1\n  sstore\n    /* \"contracts/libraries/LibDiamond.sol\":8141:8536  if (oldFacetAddressAndSelectorPosition.selectorPosition != selectorCount) {... */\ntag_113:\n    /* \"contracts/libraries/LibDiamond.sol\":8587:8589  ds */\n  dup5\n    /* \"contracts/libraries/LibDiamond.sol\":8587:8599  ds.selectors */\n  0x01\n  add\n    /* \"contracts/libraries/LibDiamond.sol\":8587:8605  ds.selectors.pop() */\n  dup1\n  sload\n  dup1\n  tag_121\n  jumpi\n  tag_121\n  tag_122\n  jump\t// in\ntag_121:\n  0x00\n  dup3\n  dup2\n  mstore\n  0x20\n  dup1\n  dup3\n  keccak256\n  0x08\n  not(0x00)\n  swap1\n  swap5\n  add\n  swap4\n  dup5\n  div\n  add\n  dup1\n  sload\n  0xffffffff\n  0x04\n  0x07\n  dup8\n  and\n  mul\n  0x0100\n  exp\n  mul\n  not\n  and\n  swap1\n  sstore\n  swap2\n  swap1\n  swap3\n  sstore\n  not(sub(shl(0xe0, 0x01), 0x01))\n    /* \"contracts/libraries/LibDiamond.sol\":8627:8671  ds.facetAddressAndSelectorPosition[selector] */\n  swap1\n  swap4\n  and\n  dup2\n  mstore\n  swap2\n  dup6\n  swap1\n  mstore\n  pop\n  0x40\n  swap1\n  keccak256\n    /* \"contracts/libraries/LibDiamond.sol\":8620:8671  delete ds.facetAddressAndSelectorPosition[selector] */\n  dup1\n  sload\n  not(sub(shl(0xb0, 0x01), 0x01))\n  and\n  swap1\n  sstore\n    /* \"contracts/libraries/LibDiamond.sol\":8587:8605  ds.selectors.pop() */\n  0x01\n    /* \"contracts/libraries/LibDiamond.sol\":7372:7387  selectorIndex++ */\n  add\n    /* \"contracts/libraries/LibDiamond.sol\":7301:8683  for (uint256 selectorIndex; selectorIndex < _functionSelectors.length; selectorIndex++) {... */\n  jump(tag_102)\n    /* \"contracts/libraries/LibDiamond.sol\":8698:9466  function initializeDiamondCut(address _init, bytes memory _calldata) internal {... */\ntag_62:\n  sub(shl(0xa0, 0x01), 0x01)\n    /* \"contracts/libraries/LibDiamond.sol\":8791:8810  _init == address(0) */\n  dup3\n  and\n    /* \"contracts/libraries/LibDiamond.sol\":8787:8845  if (_init == address(0)) {... */\n  tag_125\n  jumpi\n    /* \"contracts/libraries/LibDiamond.sol\":8698:9466  function initializeDiamondCut(address _init, bytes memory _calldata) internal {... */\n  pop\n  pop\n  jump\t// out\n    /* \"contracts/libraries/LibDiamond.sol\":8787:8845  if (_init == address(0)) {... */\ntag_125:\n    /* \"contracts/libraries/LibDiamond.sol\":8855:8928  enforceHasContractCode(_init, \"LibDiamondCut: _init address has no code\") */\n  tag_126\n    /* \"contracts/libraries/LibDiamond.sol\":8878:8883  _init */\n  dup3\n    /* \"contracts/libraries/LibDiamond.sol\":8855:8928  enforceHasContractCode(_init, \"LibDiamondCut: _init address has no code\") */\n  mload(0x40)\n  dup1\n  0x60\n  add\n  0x40\n  mstore\n  dup1\n  0x28\n  dup2\n  mstore\n  0x20\n  add\n  data_460f8f0920c649146ef02741816b1cf9ce4f02ea288ceb73adf027cefe9069a0\n  0x28\n  swap2\n  codecopy\n    /* \"contracts/libraries/LibDiamond.sol\":8855:8877  enforceHasContractCode */\n  tag_70\n    /* \"contracts/libraries/LibDiamond.sol\":8855:8928  enforceHasContractCode(_init, \"LibDiamondCut: _init address has no code\") */\n  jump\t// in\ntag_126:\n    /* \"contracts/libraries/LibDiamond.sol\":8948:8960  bool success */\n  0x00\n    /* \"contracts/libraries/LibDiamond.sol\":8962:8980  bytes memory error */\n  dup1\n    /* \"contracts/libraries/LibDiamond.sol\":8984:8989  _init */\n  dup4\n  sub(shl(0xa0, 0x01), 0x01)\n    /* \"contracts/libraries/LibDiamond.sol\":8984:9002  _init.delegatecall */\n  and\n    /* \"contracts/libraries/LibDiamond.sol\":9003:9012  _calldata */\n  dup4\n    /* \"contracts/libraries/LibDiamond.sol\":8984:9013  _init.delegatecall(_calldata) */\n  mload(0x40)\n  tag_127\n  swap2\n  swap1\n  tag_128\n  jump\t// in\ntag_127:\n  0x00\n  mload(0x40)\n  dup1\n  dup4\n  sub\n  dup2\n  dup6\n  gas\n  delegatecall\n  swap2\n  pop\n  pop\n  returndatasize\n  dup1\n  0x00\n  dup2\n  eq\n  tag_131\n  jumpi\n  mload(0x40)\n  swap2\n  pop\n  and(add(returndatasize, 0x3f), not(0x1f))\n  dup3\n  add\n  0x40\n  mstore\n  returndatasize\n  dup3\n  mstore\n  returndatasize\n  0x00\n  0x20\n  dup5\n  add\n  returndatacopy\n  jump(tag_130)\ntag_131:\n  0x60\n  swap2\n  pop\ntag_130:\n  pop\n    /* \"contracts/libraries/LibDiamond.sol\":8947:9013  (bool success, bytes memory error) = _init.delegatecall(_calldata) */\n  swap2\n  pop\n  swap2\n  pop\n    /* \"contracts/libraries/LibDiamond.sol\":9029:9036  success */\n  dup2\n    /* \"contracts/libraries/LibDiamond.sol\":9024:9451  if (!success) {... */\n  tag_88\n  jumpi\n    /* \"contracts/libraries/LibDiamond.sol\":9057:9069  error.length */\n  dup1\n  mload\n    /* \"contracts/libraries/LibDiamond.sol\":9057:9073  error.length > 0 */\n  iszero\n    /* \"contracts/libraries/LibDiamond.sol\":9053:9440  if (error.length > 0) {... */\n  tag_133\n  jumpi\n    /* \"contracts/libraries/LibDiamond.sol\":9243:9248  error */\n  dup1\n    /* \"contracts/libraries/LibDiamond.sol\":9237:9249  mload(error) */\n  mload\n    /* \"contracts/libraries/LibDiamond.sol\":9294:9309  returndata_size */\n  dup1\n    /* \"contracts/libraries/LibDiamond.sol\":9286:9291  error */\n  dup3\n    /* \"contracts/libraries/LibDiamond.sol\":9282:9284  32 */\n  0x20\n    /* \"contracts/libraries/LibDiamond.sol\":9278:9292  add(32, error) */\n  add\n    /* \"contracts/libraries/LibDiamond.sol\":9271:9310  revert(add(32, error), returndata_size) */\n  revert\n    /* \"contracts/libraries/LibDiamond.sol\":9053:9440  if (error.length > 0) {... */\ntag_133:\n    /* \"contracts/libraries/LibDiamond.sol\":9407:9412  _init */\n  dup4\n    /* \"contracts/libraries/LibDiamond.sol\":9414:9423  _calldata */\n  dup4\n    /* \"contracts/libraries/LibDiamond.sol\":9376:9424  InitializationFunctionReverted(_init, _calldata) */\n  mload(0x40)\n  shl(0xe0, 0x192105d7)\n  dup2\n  mstore\n  0x04\n  add\n  tag_26\n  swap3\n  swap2\n  swap1\n  tag_136\n  jump\t// in\n    /* \"contracts/libraries/LibDiamond.sol\":9474:9809  function enforceHasContractCode(address _contract, string memory _errorMessage) internal view {... */\ntag_70:\n    /* \"contracts/libraries/LibDiamond.sol\":9650:9672  extcodesize(_contract) */\n  dup2\n  extcodesize\n    /* \"contracts/libraries/LibDiamond.sol\":9579:9599  uint256 contractSize */\n  0x00\n    /* \"contracts/libraries/LibDiamond.sol\":9696:9713  contractSize == 0 */\n  dup2\n  swap1\n  sub\n    /* \"contracts/libraries/LibDiamond.sol\":9693:9794  if(contractSize == 0) {... */\n  tag_61\n  jumpi\n    /* \"contracts/libraries/LibDiamond.sol\":9757:9766  _contract */\n  dup3\n    /* \"contracts/libraries/LibDiamond.sol\":9768:9781  _errorMessage */\n  dup3\n    /* \"contracts/libraries/LibDiamond.sol\":9737:9782  NoBytecodeAtAddress(_contract, _errorMessage) */\n  mload(0x40)\n  shl(0xe0, 0x919834b9)\n  dup2\n  mstore\n  0x04\n  add\n  tag_26\n  swap3\n  swap2\n  swap1\n  tag_136\n  jump\t// in\n    /* \"#utility.yul\":14:141   */\ntag_141:\n    /* \"#utility.yul\":75:85   */\n  0x4e487b71\n    /* \"#utility.yul\":70:73   */\n  0xe0\n    /* \"#utility.yul\":66:86   */\n  shl\n    /* \"#utility.yul\":63:64   */\n  0x00\n    /* \"#utility.yul\":56:87   */\n  mstore\n    /* \"#utility.yul\":106:110   */\n  0x41\n    /* \"#utility.yul\":103:104   */\n  0x04\n    /* \"#utility.yul\":96:111   */\n  mstore\n    /* \"#utility.yul\":130:134   */\n  0x24\n    /* \"#utility.yul\":127:128   */\n  0x00\n    /* \"#utility.yul\":120:135   */\n  revert\n    /* \"#utility.yul\":146:399   */\ntag_142:\n    /* \"#utility.yul\":218:220   */\n  0x40\n    /* \"#utility.yul\":212:221   */\n  mload\n    /* \"#utility.yul\":260:264   */\n  0x60\n    /* \"#utility.yul\":248:265   */\n  dup2\n  add\n  sub(shl(0x40, 0x01), 0x01)\n    /* \"#utility.yul\":280:314   */\n  dup2\n  gt\n    /* \"#utility.yul\":316:338   */\n  dup3\n  dup3\n  lt\n    /* \"#utility.yul\":277:339   */\n  or\n    /* \"#utility.yul\":274:362   */\n  iszero\n  tag_154\n  jumpi\n    /* \"#utility.yul\":342:360   */\n  tag_154\n  tag_141\n  jump\t// in\ntag_154:\n    /* \"#utility.yul\":378:380   */\n  0x40\n    /* \"#utility.yul\":371:393   */\n  mstore\n    /* \"#utility.yul\":146:399   */\n  swap1\n  jump\t// out\n    /* \"#utility.yul\":404:679   */\ntag_143:\n    /* \"#utility.yul\":475:477   */\n  0x40\n    /* \"#utility.yul\":469:478   */\n  mload\n    /* \"#utility.yul\":540:542   */\n  0x1f\n    /* \"#utility.yul\":521:534   */\n  dup3\n  add\n  not(0x1f)\n    /* \"#utility.yul\":517:544   */\n  and\n    /* \"#utility.yul\":505:545   */\n  dup2\n  add\n  sub(shl(0x40, 0x01), 0x01)\n    /* \"#utility.yul\":560:594   */\n  dup2\n  gt\n    /* \"#utility.yul\":596:618   */\n  dup3\n  dup3\n  lt\n    /* \"#utility.yul\":557:619   */\n  or\n    /* \"#utility.yul\":554:642   */\n  iszero\n  tag_157\n  jumpi\n    /* \"#utility.yul\":622:640   */\n  tag_157\n  tag_141\n  jump\t// in\ntag_157:\n    /* \"#utility.yul\":658:660   */\n  0x40\n    /* \"#utility.yul\":651:673   */\n  mstore\n    /* \"#utility.yul\":404:679   */\n  swap2\n  swap1\n  pop\n  jump\t// out\n    /* \"#utility.yul\":684:875   */\ntag_144:\n    /* \"#utility.yul\":752:756   */\n  0x00\n  sub(shl(0x40, 0x01), 0x01)\n    /* \"#utility.yul\":774:804   */\n  dup3\n  gt\n    /* \"#utility.yul\":771:827   */\n  iszero\n  tag_160\n  jumpi\n    /* \"#utility.yul\":807:825   */\n  tag_160\n  tag_141\n  jump\t// in\ntag_160:\n  pop\n    /* \"#utility.yul\":852:853   */\n  0x05\n    /* \"#utility.yul\":848:862   */\n  shl\n    /* \"#utility.yul\":864:868   */\n  0x20\n    /* \"#utility.yul\":844:869   */\n  add\n  swap1\n    /* \"#utility.yul\":684:875   */\n  jump\t// out\n    /* \"#utility.yul\":880:1057   */\ntag_145:\n    /* \"#utility.yul\":959:972   */\n  dup1\n  mload\n  sub(shl(0xa0, 0x01), 0x01)\n    /* \"#utility.yul\":1001:1032   */\n  dup2\n  and\n    /* \"#utility.yul\":991:1033   */\n  dup2\n  eq\n    /* \"#utility.yul\":981:1051   */\n  tag_162\n  jumpi\n    /* \"#utility.yul\":1047:1048   */\n  0x00\n    /* \"#utility.yul\":1044:1045   */\n  dup1\n    /* \"#utility.yul\":1037:1049   */\n  revert\n    /* \"#utility.yul\":981:1051   */\ntag_162:\n    /* \"#utility.yul\":880:1057   */\n  swap2\n  swap1\n  pop\n  jump\t// out\n    /* \"#utility.yul\":1062:2005   */\ntag_146:\n    /* \"#utility.yul\":1131:1136   */\n  0x00\n    /* \"#utility.yul\":1179:1183   */\n  0x60\n    /* \"#utility.yul\":1167:1176   */\n  dup3\n    /* \"#utility.yul\":1162:1165   */\n  dup5\n    /* \"#utility.yul\":1158:1177   */\n  sub\n    /* \"#utility.yul\":1154:1184   */\n  slt\n    /* \"#utility.yul\":1151:1201   */\n  iszero\n  tag_164\n  jumpi\n    /* \"#utility.yul\":1197:1198   */\n  0x00\n    /* \"#utility.yul\":1194:1195   */\n  dup1\n    /* \"#utility.yul\":1187:1199   */\n  revert\n    /* \"#utility.yul\":1151:1201   */\ntag_164:\n    /* \"#utility.yul\":1219:1241   */\n  tag_165\n  tag_142\n  jump\t// in\ntag_165:\n    /* \"#utility.yul\":1210:1241   */\n  swap1\n  pop\n    /* \"#utility.yul\":1264:1304   */\n  tag_166\n    /* \"#utility.yul\":1294:1303   */\n  dup3\n    /* \"#utility.yul\":1264:1304   */\n  tag_145\n  jump\t// in\ntag_166:\n    /* \"#utility.yul\":1257:1262   */\n  dup2\n    /* \"#utility.yul\":1250:1305   */\n  mstore\n    /* \"#utility.yul\":1337:1386   */\n  tag_167\n    /* \"#utility.yul\":1382:1384   */\n  0x20\n    /* \"#utility.yul\":1371:1380   */\n  dup4\n    /* \"#utility.yul\":1367:1385   */\n  add\n    /* \"#utility.yul\":1337:1386   */\n  tag_145\n  jump\t// in\ntag_167:\n    /* \"#utility.yul\":1332:1334   */\n  0x20\n    /* \"#utility.yul\":1321:1335   */\n  dup3\n  add\n    /* \"#utility.yul\":1314:1387   */\n  mstore\n    /* \"#utility.yul\":1431:1433   */\n  0x40\n    /* \"#utility.yul\":1416:1434   */\n  dup3\n  add\n    /* \"#utility.yul\":1410:1435   */\n  mload\n  sub(shl(0x40, 0x01), 0x01)\n    /* \"#utility.yul\":1447:1477   */\n  dup2\n  gt\n    /* \"#utility.yul\":1444:1494   */\n  iszero\n  tag_168\n  jumpi\n    /* \"#utility.yul\":1490:1491   */\n  0x00\n    /* \"#utility.yul\":1487:1488   */\n  dup1\n    /* \"#utility.yul\":1480:1492   */\n  revert\n    /* \"#utility.yul\":1444:1494   */\ntag_168:\n    /* \"#utility.yul\":1513:1535   */\n  dup3\n  add\n    /* \"#utility.yul\":1566:1570   */\n  0x1f\n    /* \"#utility.yul\":1558:1571   */\n  dup2\n  add\n    /* \"#utility.yul\":1554:1577   */\n  dup5\n  sgt\n    /* \"#utility.yul\":1544:1595   */\n  tag_169\n  jumpi\n    /* \"#utility.yul\":1591:1592   */\n  0x00\n    /* \"#utility.yul\":1588:1589   */\n  dup1\n    /* \"#utility.yul\":1581:1593   */\n  revert\n    /* \"#utility.yul\":1544:1595   */\ntag_169:\n    /* \"#utility.yul\":1618:1627   */\n  dup1\n  mload\n  sub(shl(0x40, 0x01), 0x01)\n    /* \"#utility.yul\":1639:1669   */\n  dup2\n  gt\n    /* \"#utility.yul\":1636:1692   */\n  iszero\n  tag_171\n  jumpi\n    /* \"#utility.yul\":1672:1690   */\n  tag_171\n  tag_141\n  jump\t// in\ntag_171:\n    /* \"#utility.yul\":1714:1771   */\n  tag_172\n    /* \"#utility.yul\":1761:1763   */\n  0x1f\n    /* \"#utility.yul\":1738:1755   */\n  dup3\n  add\n  not(0x1f)\n    /* \"#utility.yul\":1734:1765   */\n  and\n    /* \"#utility.yul\":1767:1769   */\n  0x20\n    /* \"#utility.yul\":1730:1770   */\n  add\n    /* \"#utility.yul\":1714:1771   */\n  tag_143\n  jump\t// in\ntag_172:\n    /* \"#utility.yul\":1794:1800   */\n  dup2\n    /* \"#utility.yul\":1787:1792   */\n  dup2\n    /* \"#utility.yul\":1780:1801   */\n  mstore\n    /* \"#utility.yul\":1842:1845   */\n  dup6\n    /* \"#utility.yul\":1837:1839   */\n  0x20\n    /* \"#utility.yul\":1828:1834   */\n  dup4\n    /* \"#utility.yul\":1824:1826   */\n  dup6\n    /* \"#utility.yul\":1820:1835   */\n  add\n    /* \"#utility.yul\":1816:1840   */\n  add\n    /* \"#utility.yul\":1813:1846   */\n  gt\n    /* \"#utility.yul\":1810:1863   */\n  iszero\n  tag_173\n  jumpi\n    /* \"#utility.yul\":1859:1860   */\n  0x00\n    /* \"#utility.yul\":1856:1857   */\n  dup1\n    /* \"#utility.yul\":1849:1861   */\n  revert\n    /* \"#utility.yul\":1810:1863   */\ntag_173:\n    /* \"#utility.yul\":1907:1913   */\n  dup2\n    /* \"#utility.yul\":1902:1904   */\n  0x20\n    /* \"#utility.yul\":1898:1900   */\n  dup5\n    /* \"#utility.yul\":1894:1905   */\n  add\n    /* \"#utility.yul\":1889:1891   */\n  0x20\n    /* \"#utility.yul\":1882:1887   */\n  dup4\n    /* \"#utility.yul\":1878:1892   */\n  add\n    /* \"#utility.yul\":1872:1914   */\n  mcopy\n    /* \"#utility.yul\":1959:1960   */\n  0x00\n    /* \"#utility.yul\":1954:1956   */\n  0x20\n    /* \"#utility.yul\":1945:1951   */\n  dup4\n    /* \"#utility.yul\":1938:1943   */\n  dup4\n    /* \"#utility.yul\":1934:1952   */\n  add\n    /* \"#utility.yul\":1930:1957   */\n  add\n    /* \"#utility.yul\":1923:1961   */\n  mstore\n    /* \"#utility.yul\":1993:1998   */\n  dup1\n    /* \"#utility.yul\":1988:1990   */\n  0x40\n    /* \"#utility.yul\":1981:1986   */\n  dup6\n    /* \"#utility.yul\":1977:1991   */\n  add\n    /* \"#utility.yul\":1970:1999   */\n  mstore\n  pop\n  pop\n  pop\n    /* \"#utility.yul\":1062:2005   */\n  swap3\n  swap2\n  pop\n  pop\n  jump\t// out\n    /* \"#utility.yul\":2010:4665   */\ntag_3:\n    /* \"#utility.yul\":2167:2173   */\n  0x00\n    /* \"#utility.yul\":2175:2181   */\n  dup1\n    /* \"#utility.yul\":2228:2230   */\n  0x40\n    /* \"#utility.yul\":2216:2225   */\n  dup4\n    /* \"#utility.yul\":2207:2214   */\n  dup6\n    /* \"#utility.yul\":2203:2226   */\n  sub\n    /* \"#utility.yul\":2199:2231   */\n  slt\n    /* \"#utility.yul\":2196:2248   */\n  iszero\n  tag_175\n  jumpi\n    /* \"#utility.yul\":2244:2245   */\n  0x00\n    /* \"#utility.yul\":2241:2242   */\n  dup1\n    /* \"#utility.yul\":2234:2246   */\n  revert\n    /* \"#utility.yul\":2196:2248   */\ntag_175:\n    /* \"#utility.yul\":2271:2287   */\n  dup3\n  mload\n  sub(shl(0x40, 0x01), 0x01)\n    /* \"#utility.yul\":2299:2329   */\n  dup2\n  gt\n    /* \"#utility.yul\":2296:2346   */\n  iszero\n  tag_176\n  jumpi\n    /* \"#utility.yul\":2342:2343   */\n  0x00\n    /* \"#utility.yul\":2339:2340   */\n  dup1\n    /* \"#utility.yul\":2332:2344   */\n  revert\n    /* \"#utility.yul\":2296:2346   */\ntag_176:\n    /* \"#utility.yul\":2365:2387   */\n  dup4\n  add\n    /* \"#utility.yul\":2418:2422   */\n  0x1f\n    /* \"#utility.yul\":2410:2423   */\n  dup2\n  add\n    /* \"#utility.yul\":2406:2433   */\n  dup6\n  sgt\n    /* \"#utility.yul\":2396:2451   */\n  tag_177\n  jumpi\n    /* \"#utility.yul\":2447:2448   */\n  0x00\n    /* \"#utility.yul\":2444:2445   */\n  dup1\n    /* \"#utility.yul\":2437:2449   */\n  revert\n    /* \"#utility.yul\":2396:2451   */\ntag_177:\n    /* \"#utility.yul\":2480:2482   */\n  dup1\n    /* \"#utility.yul\":2474:2483   */\n  mload\n    /* \"#utility.yul\":2503:2575   */\n  tag_178\n    /* \"#utility.yul\":2519:2574   */\n  tag_179\n    /* \"#utility.yul\":2567:2573   */\n  dup3\n    /* \"#utility.yul\":2519:2574   */\n  tag_144\n  jump\t// in\ntag_179:\n    /* \"#utility.yul\":2503:2575   */\n  tag_143\n  jump\t// in\ntag_178:\n    /* \"#utility.yul\":2597:2600   */\n  dup1\n    /* \"#utility.yul\":2621:2627   */\n  dup3\n    /* \"#utility.yul\":2616:2619   */\n  dup3\n    /* \"#utility.yul\":2609:2628   */\n  mstore\n    /* \"#utility.yul\":2653:2657   */\n  0x20\n    /* \"#utility.yul\":2648:2651   */\n  dup3\n    /* \"#utility.yul\":2644:2658   */\n  add\n    /* \"#utility.yul\":2637:2658   */\n  swap2\n  pop\n    /* \"#utility.yul\":2710:2714   */\n  0x20\n    /* \"#utility.yul\":2700:2706   */\n  dup4\n    /* \"#utility.yul\":2697:2698   */\n  0x05\n    /* \"#utility.yul\":2693:2707   */\n  shl\n    /* \"#utility.yul\":2689:2691   */\n  dup6\n    /* \"#utility.yul\":2685:2708   */\n  add\n    /* \"#utility.yul\":2681:2715   */\n  add\n    /* \"#utility.yul\":2667:2715   */\n  swap3\n  pop\n    /* \"#utility.yul\":2738:2745   */\n  dup8\n    /* \"#utility.yul\":2730:2736   */\n  dup4\n    /* \"#utility.yul\":2727:2746   */\n  gt\n    /* \"#utility.yul\":2724:2763   */\n  iszero\n  tag_180\n  jumpi\n    /* \"#utility.yul\":2759:2760   */\n  0x00\n    /* \"#utility.yul\":2756:2757   */\n  dup1\n    /* \"#utility.yul\":2749:2761   */\n  revert\n    /* \"#utility.yul\":2724:2763   */\ntag_180:\n    /* \"#utility.yul\":2791:2795   */\n  0x20\n    /* \"#utility.yul\":2787:2789   */\n  dup5\n    /* \"#utility.yul\":2783:2796   */\n  add\n    /* \"#utility.yul\":2805:4428   */\ntag_181:\n    /* \"#utility.yul\":2821:2827   */\n  dup4\n    /* \"#utility.yul\":2816:2819   */\n  dup2\n    /* \"#utility.yul\":2813:2828   */\n  lt\n    /* \"#utility.yul\":2805:4428   */\n  iszero\n  tag_183\n  jumpi\n    /* \"#utility.yul\":2896:2906   */\n  dup1\n  mload\n  sub(shl(0x40, 0x01), 0x01)\n    /* \"#utility.yul\":2922:2957   */\n  dup2\n  gt\n    /* \"#utility.yul\":2919:2974   */\n  iszero\n  tag_184\n  jumpi\n    /* \"#utility.yul\":2970:2971   */\n  0x00\n    /* \"#utility.yul\":2967:2968   */\n  dup1\n    /* \"#utility.yul\":2960:2972   */\n  revert\n    /* \"#utility.yul\":2919:2974   */\ntag_184:\n    /* \"#utility.yul\":2997:3017   */\n  dup6\n  add\n    /* \"#utility.yul\":3069:3073   */\n  0x60\n    /* \"#utility.yul\":3041:3057   */\n  dup2\n  dup12\n  sub\n  not(0x1f)\n    /* \"#utility.yul\":3037:3067   */\n  add\n    /* \"#utility.yul\":3033:3074   */\n  slt\n    /* \"#utility.yul\":3030:3091   */\n  iszero\n  tag_185\n  jumpi\n    /* \"#utility.yul\":3087:3088   */\n  0x00\n    /* \"#utility.yul\":3084:3085   */\n  dup1\n    /* \"#utility.yul\":3077:3089   */\n  revert\n    /* \"#utility.yul\":3030:3091   */\ntag_185:\n    /* \"#utility.yul\":3117:3139   */\n  tag_186\n  tag_142\n  jump\t// in\ntag_186:\n    /* \"#utility.yul\":3166:3210   */\n  tag_187\n    /* \"#utility.yul\":3204:3208   */\n  0x20\n    /* \"#utility.yul\":3200:3202   */\n  dup4\n    /* \"#utility.yul\":3196:3209   */\n  add\n    /* \"#utility.yul\":3166:3210   */\n  tag_145\n  jump\t// in\ntag_187:\n    /* \"#utility.yul\":3159:3164   */\n  dup2\n    /* \"#utility.yul\":3152:3211   */\n  mstore\n    /* \"#utility.yul\":3253:3255   */\n  0x40\n    /* \"#utility.yul\":3249:3251   */\n  dup3\n    /* \"#utility.yul\":3245:3256   */\n  add\n    /* \"#utility.yul\":3239:3257   */\n  mload\n    /* \"#utility.yul\":3292:3293   */\n  0x03\n    /* \"#utility.yul\":3283:3290   */\n  dup2\n    /* \"#utility.yul\":3280:3294   */\n  lt\n    /* \"#utility.yul\":3270:3312   */\n  tag_188\n  jumpi\n    /* \"#utility.yul\":3308:3309   */\n  0x00\n    /* \"#utility.yul\":3305:3306   */\n  dup1\n    /* \"#utility.yul\":3298:3310   */\n  revert\n    /* \"#utility.yul\":3270:3312   */\ntag_188:\n    /* \"#utility.yul\":3343:3347   */\n  0x20\n    /* \"#utility.yul\":3332:3348   */\n  dup3\n  add\n    /* \"#utility.yul\":3325:3358   */\n  mstore\n    /* \"#utility.yul\":3401:3405   */\n  0x60\n    /* \"#utility.yul\":3393:3406   */\n  dup3\n  add\n    /* \"#utility.yul\":3387:3407   */\n  mload\n  sub(shl(0x40, 0x01), 0x01)\n    /* \"#utility.yul\":3423:3455   */\n  dup2\n  gt\n    /* \"#utility.yul\":3420:3472   */\n  iszero\n  tag_189\n  jumpi\n    /* \"#utility.yul\":3468:3469   */\n  0x00\n    /* \"#utility.yul\":3465:3466   */\n  dup1\n    /* \"#utility.yul\":3458:3470   */\n  revert\n    /* \"#utility.yul\":3420:3472   */\ntag_189:\n    /* \"#utility.yul\":3518:3522   */\n  0x20\n    /* \"#utility.yul\":3507:3515   */\n  dup2\n    /* \"#utility.yul\":3503:3505   */\n  dup5\n    /* \"#utility.yul\":3499:3516   */\n  add\n    /* \"#utility.yul\":3495:3523   */\n  add\n    /* \"#utility.yul\":3485:3523   */\n  swap3\n  pop\n  pop\n    /* \"#utility.yul\":3565:3572   */\n  dup11\n    /* \"#utility.yul\":3558:3562   */\n  0x1f\n    /* \"#utility.yul\":3554:3556   */\n  dup4\n    /* \"#utility.yul\":3550:3563   */\n  add\n    /* \"#utility.yul\":3546:3573   */\n  slt\n    /* \"#utility.yul\":3536:3591   */\n  tag_190\n  jumpi\n    /* \"#utility.yul\":3587:3588   */\n  0x00\n    /* \"#utility.yul\":3584:3585   */\n  dup1\n    /* \"#utility.yul\":3577:3589   */\n  revert\n    /* \"#utility.yul\":3536:3591   */\ntag_190:\n    /* \"#utility.yul\":3626:3628   */\n  dup2\n    /* \"#utility.yul\":3620:3629   */\n  mload\n    /* \"#utility.yul\":3655:3729   */\n  tag_191\n    /* \"#utility.yul\":3671:3728   */\n  tag_179\n    /* \"#utility.yul\":3719:3727   */\n  dup3\n    /* \"#utility.yul\":3671:3728   */\n  tag_144\n  jump\t// in\n    /* \"#utility.yul\":3655:3729   */\ntag_191:\n    /* \"#utility.yul\":3757:3762   */\n  dup1\n    /* \"#utility.yul\":3789:3797   */\n  dup3\n    /* \"#utility.yul\":3782:3787   */\n  dup3\n    /* \"#utility.yul\":3775:3798   */\n  mstore\n    /* \"#utility.yul\":3831:3835   */\n  0x20\n    /* \"#utility.yul\":3824:3829   */\n  dup3\n    /* \"#utility.yul\":3820:3836   */\n  add\n    /* \"#utility.yul\":3811:3836   */\n  swap2\n  pop\n    /* \"#utility.yul\":3896:3900   */\n  0x20\n    /* \"#utility.yul\":3884:3892   */\n  dup4\n    /* \"#utility.yul\":3881:3882   */\n  0x05\n    /* \"#utility.yul\":3877:3893   */\n  shl\n    /* \"#utility.yul\":3873:3875   */\n  dup7\n    /* \"#utility.yul\":3869:3894   */\n  add\n    /* \"#utility.yul\":3865:3901   */\n  add\n    /* \"#utility.yul\":3849:3901   */\n  swap3\n  pop\n    /* \"#utility.yul\":3930:3937   */\n  dup14\n    /* \"#utility.yul\":3920:3928   */\n  dup4\n    /* \"#utility.yul\":3917:3938   */\n  gt\n    /* \"#utility.yul\":3914:3955   */\n  iszero\n  tag_193\n  jumpi\n    /* \"#utility.yul\":3951:3952   */\n  0x00\n    /* \"#utility.yul\":3948:3949   */\n  dup1\n    /* \"#utility.yul\":3941:3953   */\n  revert\n    /* \"#utility.yul\":3914:3955   */\ntag_193:\n    /* \"#utility.yul\":3989:3993   */\n  0x20\n    /* \"#utility.yul\":3985:3987   */\n  dup6\n    /* \"#utility.yul\":3981:3994   */\n  add\n    /* \"#utility.yul\":3968:3994   */\n  swap5\n  pop\n    /* \"#utility.yul\":4007:4309   */\ntag_194:\n    /* \"#utility.yul\":4025:4033   */\n  dup3\n    /* \"#utility.yul\":4018:4023   */\n  dup6\n    /* \"#utility.yul\":4015:4034   */\n  lt\n    /* \"#utility.yul\":4007:4309   */\n  iszero\n  tag_196\n  jumpi\n    /* \"#utility.yul\":4110:4122   */\n  dup5\n  mload\n  not(sub(shl(0xe0, 0x01), 0x01))\n    /* \"#utility.yul\":4161:4195   */\n  dup2\n  and\n    /* \"#utility.yul\":4149:4196   */\n  dup2\n  eq\n    /* \"#utility.yul\":4139:4214   */\n  tag_197\n  jumpi\n    /* \"#utility.yul\":4210:4211   */\n  0x00\n    /* \"#utility.yul\":4207:4208   */\n  dup1\n    /* \"#utility.yul\":4200:4212   */\n  revert\n    /* \"#utility.yul\":4139:4214   */\ntag_197:\n    /* \"#utility.yul\":4231:4253   */\n  dup3\n  mstore\n    /* \"#utility.yul\":4290:4294   */\n  0x20\n    /* \"#utility.yul\":4046:4062   */\n  swap5\n  dup6\n  add\n  swap5\n    /* \"#utility.yul\":4279:4295   */\n  swap1\n  swap2\n  add\n  swap1\n    /* \"#utility.yul\":4007:4309   */\n  jump(tag_194)\ntag_196:\n    /* \"#utility.yul\":4340:4342   */\n  0x40\n    /* \"#utility.yul\":4329:4343   */\n  dup5\n  add\n    /* \"#utility.yul\":4322:4353   */\n  mstore\n  pop\n  pop\n    /* \"#utility.yul\":4366:4384   */\n  dup5\n  mstore\n  pop\n    /* \"#utility.yul\":4413:4417   */\n  0x20\n    /* \"#utility.yul\":4404:4418   */\n  swap3\n  dup4\n  add\n  swap3\n    /* \"#utility.yul\":2838:2852   */\n  add\n    /* \"#utility.yul\":2805:4428   */\n  jump(tag_181)\ntag_183:\n  pop\n    /* \"#utility.yul\":4498:4502   */\n  0x20\n    /* \"#utility.yul\":4483:4503   */\n  dup8\n  add\n    /* \"#utility.yul\":4477:4504   */\n  mload\n    /* \"#utility.yul\":4447:4452   */\n  swap1\n  swap6\n  pop\n    /* \"#utility.yul\":4477:4504   */\n  swap3\n  pop\n  pop\n  pop\n  sub(shl(0x40, 0x01), 0x01)\n    /* \"#utility.yul\":4516:4548   */\n  dup2\n  gt\n    /* \"#utility.yul\":4513:4565   */\n  iszero\n  tag_198\n  jumpi\n    /* \"#utility.yul\":4561:4562   */\n  0x00\n    /* \"#utility.yul\":4558:4559   */\n  dup1\n    /* \"#utility.yul\":4551:4563   */\n  revert\n    /* \"#utility.yul\":4513:4565   */\ntag_198:\n    /* \"#utility.yul\":4584:4659   */\n  tag_199\n    /* \"#utility.yul\":4651:4658   */\n  dup6\n    /* \"#utility.yul\":4640:4648   */\n  dup3\n    /* \"#utility.yul\":4629:4638   */\n  dup7\n    /* \"#utility.yul\":4625:4649   */\n  add\n    /* \"#utility.yul\":4584:4659   */\n  tag_146\n  jump\t// in\ntag_199:\n    /* \"#utility.yul\":4574:4659   */\n  swap2\n  pop\n  pop\n    /* \"#utility.yul\":2010:4665   */\n  swap3\n  pop\n  swap3\n  swap1\n  pop\n  jump\t// out\n    /* \"#utility.yul\":4670:4797   */\ntag_22:\n    /* \"#utility.yul\":4731:4741   */\n  0x4e487b71\n    /* \"#utility.yul\":4726:4729   */\n  0xe0\n    /* \"#utility.yul\":4722:4742   */\n  shl\n    /* \"#utility.yul\":4719:4720   */\n  0x00\n    /* \"#utility.yul\":4712:4743   */\n  mstore\n    /* \"#utility.yul\":4762:4766   */\n  0x32\n    /* \"#utility.yul\":4759:4760   */\n  0x04\n    /* \"#utility.yul\":4752:4767   */\n  mstore\n    /* \"#utility.yul\":4786:4790   */\n  0x24\n    /* \"#utility.yul\":4783:4784   */\n  0x00\n    /* \"#utility.yul\":4776:4791   */\n  revert\n    /* \"#utility.yul\":5119:5246   */\ntag_32:\n    /* \"#utility.yul\":5180:5190   */\n  0x4e487b71\n    /* \"#utility.yul\":5175:5178   */\n  0xe0\n    /* \"#utility.yul\":5171:5191   */\n  shl\n    /* \"#utility.yul\":5168:5169   */\n  0x00\n    /* \"#utility.yul\":5161:5192   */\n  mstore\n    /* \"#utility.yul\":5211:5215   */\n  0x21\n    /* \"#utility.yul\":5208:5209   */\n  0x04\n    /* \"#utility.yul\":5201:5216   */\n  mstore\n    /* \"#utility.yul\":5235:5239   */\n  0x24\n    /* \"#utility.yul\":5232:5233   */\n  0x00\n    /* \"#utility.yul\":5225:5240   */\n  revert\n    /* \"#utility.yul\":5440:5728   */\ntag_148:\n    /* \"#utility.yul\":5481:5484   */\n  0x00\n    /* \"#utility.yul\":5519:5524   */\n  dup2\n    /* \"#utility.yul\":5513:5525   */\n  mload\n    /* \"#utility.yul\":5546:5552   */\n  dup1\n    /* \"#utility.yul\":5541:5544   */\n  dup5\n    /* \"#utility.yul\":5534:5553   */\n  mstore\n    /* \"#utility.yul\":5602:5608   */\n  dup1\n    /* \"#utility.yul\":5595:5599   */\n  0x20\n    /* \"#utility.yul\":5588:5593   */\n  dup5\n    /* \"#utility.yul\":5584:5600   */\n  add\n    /* \"#utility.yul\":5577:5581   */\n  0x20\n    /* \"#utility.yul\":5572:5575   */\n  dup7\n    /* \"#utility.yul\":5568:5582   */\n  add\n    /* \"#utility.yul\":5562:5609   */\n  mcopy\n    /* \"#utility.yul\":5654:5655   */\n  0x00\n    /* \"#utility.yul\":5647:5651   */\n  0x20\n    /* \"#utility.yul\":5638:5644   */\n  dup3\n    /* \"#utility.yul\":5633:5636   */\n  dup7\n    /* \"#utility.yul\":5629:5645   */\n  add\n    /* \"#utility.yul\":5625:5652   */\n  add\n    /* \"#utility.yul\":5618:5656   */\n  mstore\n    /* \"#utility.yul\":5717:5721   */\n  0x20\n    /* \"#utility.yul\":5710:5712   */\n  0x1f\n    /* \"#utility.yul\":5706:5713   */\n  not\n    /* \"#utility.yul\":5701:5703   */\n  0x1f\n    /* \"#utility.yul\":5693:5699   */\n  dup4\n    /* \"#utility.yul\":5689:5704   */\n  add\n    /* \"#utility.yul\":5685:5714   */\n  and\n    /* \"#utility.yul\":5680:5683   */\n  dup6\n    /* \"#utility.yul\":5676:5715   */\n  add\n    /* \"#utility.yul\":5672:5722   */\n  add\n    /* \"#utility.yul\":5665:5722   */\n  swap2\n  pop\n  pop\n    /* \"#utility.yul\":5440:5728   */\n  swap3\n  swap2\n  pop\n  pop\n  jump\t// out\n    /* \"#utility.yul\":5733:7753   */\ntag_60:\n    /* \"#utility.yul\":5999:6003   */\n  0x00\n    /* \"#utility.yul\":6047:6049   */\n  0x60\n    /* \"#utility.yul\":6036:6045   */\n  dup3\n    /* \"#utility.yul\":6032:6050   */\n  add\n    /* \"#utility.yul\":6077:6079   */\n  0x60\n    /* \"#utility.yul\":6066:6075   */\n  dup4\n    /* \"#utility.yul\":6059:6080   */\n  mstore\n    /* \"#utility.yul\":6100:6106   */\n  dup1\n    /* \"#utility.yul\":6135:6141   */\n  dup7\n    /* \"#utility.yul\":6129:6142   */\n  mload\n    /* \"#utility.yul\":6166:6172   */\n  dup1\n    /* \"#utility.yul\":6158:6164   */\n  dup4\n    /* \"#utility.yul\":6151:6173   */\n  mstore\n    /* \"#utility.yul\":6204:6207   */\n  0x80\n    /* \"#utility.yul\":6193:6202   */\n  dup6\n    /* \"#utility.yul\":6189:6208   */\n  add\n    /* \"#utility.yul\":6182:6208   */\n  swap2\n  pop\n    /* \"#utility.yul\":6267:6270   */\n  0x80\n    /* \"#utility.yul\":6257:6263   */\n  dup2\n    /* \"#utility.yul\":6254:6255   */\n  0x05\n    /* \"#utility.yul\":6250:6264   */\n  shl\n    /* \"#utility.yul\":6239:6248   */\n  dup7\n    /* \"#utility.yul\":6235:6265   */\n  add\n    /* \"#utility.yul\":6231:6271   */\n  add\n    /* \"#utility.yul\":6217:6271   */\n  swap3\n  pop\n    /* \"#utility.yul\":6306:6310   */\n  0x20\n    /* \"#utility.yul\":6298:6304   */\n  dup9\n    /* \"#utility.yul\":6294:6311   */\n  add\n    /* \"#utility.yul\":6329:6330   */\n  0x00\n    /* \"#utility.yul\":6339:7580   */\ntag_207:\n    /* \"#utility.yul\":6353:6359   */\n  dup3\n    /* \"#utility.yul\":6350:6351   */\n  dup2\n    /* \"#utility.yul\":6347:6360   */\n  lt\n    /* \"#utility.yul\":6339:7580   */\n  iszero\n  tag_209\n  jumpi\n    /* \"#utility.yul\":6418:6440   */\n  dup7\n  dup6\n  sub\n  not(0x7f)\n    /* \"#utility.yul\":6414:6451   */\n  add\n    /* \"#utility.yul\":6402:6452   */\n  dup5\n  mstore\n    /* \"#utility.yul\":6475:6488   */\n  dup2\n  mload\n    /* \"#utility.yul\":6562:6571   */\n  dup1\n  mload\n  sub(shl(0xa0, 0x01), 0x01)\n    /* \"#utility.yul\":6558:6593   */\n  and\n    /* \"#utility.yul\":6543:6594   */\n  dup7\n  mstore\n    /* \"#utility.yul\":6641:6645   */\n  0x20\n    /* \"#utility.yul\":6633:6646   */\n  dup2\n  add\n    /* \"#utility.yul\":6627:6647   */\n  mload\n    /* \"#utility.yul\":6527:6529   */\n  0x60\n    /* \"#utility.yul\":6515:6530   */\n  dup8\n  add\n  swap1\n    /* \"#utility.yul\":6687:6688   */\n  0x03\n    /* \"#utility.yul\":6670:6689   */\n  dup2\n  lt\n    /* \"#utility.yul\":6660:6830   */\n  tag_210\n  jumpi\n    /* \"#utility.yul\":6740:6750   */\n  0x4e487b71\n    /* \"#utility.yul\":6735:6738   */\n  0xe0\n    /* \"#utility.yul\":6731:6751   */\n  shl\n    /* \"#utility.yul\":6728:6729   */\n  0x00\n    /* \"#utility.yul\":6721:6752   */\n  mstore\n    /* \"#utility.yul\":6779:6783   */\n  0x21\n    /* \"#utility.yul\":6776:6777   */\n  0x04\n    /* \"#utility.yul\":6769:6784   */\n  mstore\n    /* \"#utility.yul\":6811:6815   */\n  0x24\n    /* \"#utility.yul\":6808:6809   */\n  0x00\n    /* \"#utility.yul\":6801:6816   */\n  revert\n    /* \"#utility.yul\":6660:6830   */\ntag_210:\n    /* \"#utility.yul\":6869:6881   */\n  dup1\n    /* \"#utility.yul\":6862:6866   */\n  0x20\n    /* \"#utility.yul\":6854:6860   */\n  dup10\n    /* \"#utility.yul\":6850:6867   */\n  add\n    /* \"#utility.yul\":6843:6882   */\n  mstore\n  pop\n    /* \"#utility.yul\":6931:6935   */\n  0x40\n    /* \"#utility.yul\":6927:6929   */\n  dup3\n    /* \"#utility.yul\":6923:6936   */\n  add\n    /* \"#utility.yul\":6917:6937   */\n  mload\n    /* \"#utility.yul\":6895:6937   */\n  swap2\n  pop\n    /* \"#utility.yul\":6976:6978   */\n  0x60\n    /* \"#utility.yul\":6969:6973   */\n  0x40\n    /* \"#utility.yul\":6961:6967   */\n  dup9\n    /* \"#utility.yul\":6957:6974   */\n  add\n    /* \"#utility.yul\":6950:6979   */\n  mstore\n    /* \"#utility.yul\":7005:7011   */\n  dup1\n    /* \"#utility.yul\":7046:7060   */\n  dup3\n    /* \"#utility.yul\":7040:7061   */\n  mload\n    /* \"#utility.yul\":7089:7097   */\n  dup1\n    /* \"#utility.yul\":7081:7087   */\n  dup4\n    /* \"#utility.yul\":7074:7098   */\n  mstore\n    /* \"#utility.yul\":7132:7135   */\n  0x80\n    /* \"#utility.yul\":7124:7130   */\n  dup10\n    /* \"#utility.yul\":7120:7136   */\n  add\n    /* \"#utility.yul\":7111:7136   */\n  swap2\n  pop\n    /* \"#utility.yul\":7185:7189   */\n  0x20\n    /* \"#utility.yul\":7169:7183   */\n  dup5\n    /* \"#utility.yul\":7165:7190   */\n  add\n    /* \"#utility.yul\":7149:7190   */\n  swap4\n  pop\n    /* \"#utility.yul\":7214:7215   */\n  0x00\n    /* \"#utility.yul\":7203:7215   */\n  swap3\n  pop\n    /* \"#utility.yul\":7228:7468   */\ntag_211:\n    /* \"#utility.yul\":7244:7252   */\n  dup1\n    /* \"#utility.yul\":7239:7242   */\n  dup4\n    /* \"#utility.yul\":7236:7253   */\n  lt\n    /* \"#utility.yul\":7228:7468   */\n  iszero\n  tag_213\n  jumpi\n    /* \"#utility.yul\":7325:7340   */\n  dup4\n  mload\n  not(sub(shl(0xe0, 0x01), 0x01))\n    /* \"#utility.yul\":7321:7363   */\n  and\n    /* \"#utility.yul\":7307:7364   */\n  dup3\n  mstore\n    /* \"#utility.yul\":7401:7405   */\n  0x20\n    /* \"#utility.yul\":7435:7454   */\n  swap4\n  dup5\n  add\n  swap4\n    /* \"#utility.yul\":7272:7273   */\n  0x01\n    /* \"#utility.yul\":7263:7274   */\n  swap4\n  swap1\n  swap4\n  add\n  swap3\n    /* \"#utility.yul\":7390:7406   */\n  swap1\n  swap2\n  add\n  swap1\n    /* \"#utility.yul\":7228:7468   */\n  jump(tag_211)\ntag_213:\n  pop\n    /* \"#utility.yul\":7491:7496   */\n  swap7\n  pop\n  pop\n  pop\n    /* \"#utility.yul\":7531:7535   */\n  0x20\n    /* \"#utility.yul\":7556:7570   */\n  swap4\n  dup5\n  add\n  swap4\n    /* \"#utility.yul\":7519:7536   */\n  swap2\n  swap1\n  swap2\n  add\n  swap1\n    /* \"#utility.yul\":6375:6376   */\n  0x01\n    /* \"#utility.yul\":6368:6377   */\n  add\n    /* \"#utility.yul\":6339:7580   */\n  jump(tag_207)\ntag_209:\n  pop\n  pop\n  pop\n  sub(shl(0xa0, 0x01), 0x01)\n    /* \"#utility.yul\":4868:4899   */\n  dup7\n  and\n    /* \"#utility.yul\":7631:7635   */\n  0x20\n    /* \"#utility.yul\":7616:7636   */\n  dup6\n  add\n    /* \"#utility.yul\":4856:4900   */\n  mstore\n  pop\n    /* \"#utility.yul\":7687:7696   */\n  dup3\n    /* \"#utility.yul\":7679:7685   */\n  dup2\n    /* \"#utility.yul\":7675:7697   */\n  sub\n    /* \"#utility.yul\":7668:7672   */\n  0x40\n    /* \"#utility.yul\":7657:7666   */\n  dup5\n    /* \"#utility.yul\":7653:7673   */\n  add\n    /* \"#utility.yul\":7646:7698   */\n  mstore\n    /* \"#utility.yul\":7715:7747   */\n  tag_215\n    /* \"#utility.yul\":7740:7746   */\n  dup2\n    /* \"#utility.yul\":7732:7738   */\n  dup6\n    /* \"#utility.yul\":7715:7747   */\n  tag_148\n  jump\t// in\ntag_215:\n    /* \"#utility.yul\":7707:7747   */\n  swap7\n    /* \"#utility.yul\":5733:7753   */\n  swap6\n  pop\n  pop\n  pop\n  pop\n  pop\n  pop\n  jump\t// out\n    /* \"#utility.yul\":7758:8394   */\ntag_67:\n    /* \"#utility.yul\":7946:7948   */\n  0x20\n    /* \"#utility.yul\":7958:7979   */\n  dup1\n  dup3\n  mstore\n    /* \"#utility.yul\":8028:8041   */\n  dup3\n  mload\n    /* \"#utility.yul\":7931:7949   */\n  dup3\n  dup3\n  add\n    /* \"#utility.yul\":8050:8072   */\n  dup2\n  swap1\n  mstore\n    /* \"#utility.yul\":7898:7902   */\n  0x00\n  swap2\n    /* \"#utility.yul\":8129:8144   */\n  dup5\n  add\n  swap1\n    /* \"#utility.yul\":8103:8105   */\n  0x40\n    /* \"#utility.yul\":8088:8106   */\n  dup5\n  add\n  swap1\n    /* \"#utility.yul\":7898:7902   */\n  dup4\n    /* \"#utility.yul\":8172:8368   */\ntag_217:\n    /* \"#utility.yul\":8186:8192   */\n  dup2\n    /* \"#utility.yul\":8183:8184   */\n  dup2\n    /* \"#utility.yul\":8180:8193   */\n  lt\n    /* \"#utility.yul\":8172:8368   */\n  iszero\n  tag_219\n  jumpi\n    /* \"#utility.yul\":8251:8264   */\n  dup4\n  mload\n  not(sub(shl(0xe0, 0x01), 0x01))\n    /* \"#utility.yul\":8247:8287   */\n  and\n    /* \"#utility.yul\":8235:8288   */\n  dup4\n  mstore\n    /* \"#utility.yul\":8317:8319   */\n  0x20\n    /* \"#utility.yul\":8343:8358   */\n  swap4\n  dup5\n  add\n  swap4\n    /* \"#utility.yul\":8308:8320   */\n  swap1\n  swap3\n  add\n  swap2\n    /* \"#utility.yul\":8208:8209   */\n  0x01\n    /* \"#utility.yul\":8201:8210   */\n  add\n    /* \"#utility.yul\":8172:8368   */\n  jump(tag_217)\ntag_219:\n  pop\n    /* \"#utility.yul\":8385:8388   */\n  swap1\n  swap6\n    /* \"#utility.yul\":7758:8394   */\n  swap5\n  pop\n  pop\n  pop\n  pop\n  pop\n  jump\t// out\n    /* \"#utility.yul\":8606:8733   */\ntag_149:\n    /* \"#utility.yul\":8667:8677   */\n  0x4e487b71\n    /* \"#utility.yul\":8662:8665   */\n  0xe0\n    /* \"#utility.yul\":8658:8678   */\n  shl\n    /* \"#utility.yul\":8655:8656   */\n  0x00\n    /* \"#utility.yul\":8648:8679   */\n  mstore\n    /* \"#utility.yul\":8698:8702   */\n  0x11\n    /* \"#utility.yul\":8695:8696   */\n  0x04\n    /* \"#utility.yul\":8688:8703   */\n  mstore\n    /* \"#utility.yul\":8722:8726   */\n  0x24\n    /* \"#utility.yul\":8719:8720   */\n  0x00\n    /* \"#utility.yul\":8712:8727   */\n  revert\n    /* \"#utility.yul\":8738:8918   */\ntag_81:\n    /* \"#utility.yul\":8776:8779   */\n  0x00\n    /* \"#utility.yul\":8820:8826   */\n  0xffff\n    /* \"#utility.yul\":8813:8818   */\n  dup3\n    /* \"#utility.yul\":8809:8827   */\n  and\n    /* \"#utility.yul\":8851:8857   */\n  0xffff\n    /* \"#utility.yul\":8842:8849   */\n  dup2\n    /* \"#utility.yul\":8839:8858   */\n  sub\n    /* \"#utility.yul\":8836:8881   */\n  tag_224\n  jumpi\n    /* \"#utility.yul\":8861:8879   */\n  tag_224\n  tag_149\n  jump\t// in\ntag_224:\n    /* \"#utility.yul\":8910:8911   */\n  0x01\n    /* \"#utility.yul\":8897:8912   */\n  add\n  swap3\n    /* \"#utility.yul\":8738:8918   */\n  swap2\n  pop\n  pop\n  jump\t// out\n    /* \"#utility.yul\":8923:9059   */\ntag_112:\n    /* \"#utility.yul\":8962:8965   */\n  0x00\n    /* \"#utility.yul\":8990:8995   */\n  dup2\n    /* \"#utility.yul\":8980:9019   */\n  tag_227\n  jumpi\n    /* \"#utility.yul\":8999:9017   */\n  tag_227\n  tag_149\n  jump\t// in\ntag_227:\n  pop\n  not(0x00)\n    /* \"#utility.yul\":9035:9053   */\n  add\n  swap1\n    /* \"#utility.yul\":8923:9059   */\n  jump\t// out\n    /* \"#utility.yul\":9064:9191   */\ntag_122:\n    /* \"#utility.yul\":9125:9135   */\n  0x4e487b71\n    /* \"#utility.yul\":9120:9123   */\n  0xe0\n    /* \"#utility.yul\":9116:9136   */\n  shl\n    /* \"#utility.yul\":9113:9114   */\n  0x00\n    /* \"#utility.yul\":9106:9137   */\n  mstore\n    /* \"#utility.yul\":9156:9160   */\n  0x31\n    /* \"#utility.yul\":9153:9154   */\n  0x04\n    /* \"#utility.yul\":9146:9161   */\n  mstore\n    /* \"#utility.yul\":9180:9184   */\n  0x24\n    /* \"#utility.yul\":9177:9178   */\n  0x00\n    /* \"#utility.yul\":9170:9185   */\n  revert\n    /* \"#utility.yul\":9196:9497   */\ntag_128:\n    /* \"#utility.yul\":9325:9328   */\n  0x00\n    /* \"#utility.yul\":9363:9369   */\n  dup3\n    /* \"#utility.yul\":9357:9370   */\n  mload\n    /* \"#utility.yul\":9409:9415   */\n  dup1\n    /* \"#utility.yul\":9402:9406   */\n  0x20\n    /* \"#utility.yul\":9394:9400   */\n  dup6\n    /* \"#utility.yul\":9390:9407   */\n  add\n    /* \"#utility.yul\":9385:9388   */\n  dup5\n    /* \"#utility.yul\":9379:9416   */\n  mcopy\n    /* \"#utility.yul\":9471:9472   */\n  0x00\n    /* \"#utility.yul\":9435:9451   */\n  swap3\n  add\n    /* \"#utility.yul\":9460:9473   */\n  swap2\n  dup3\n  mstore\n  pop\n    /* \"#utility.yul\":9435:9451   */\n  swap2\n    /* \"#utility.yul\":9196:9497   */\n  swap1\n  pop\n  jump\t// out\n    /* \"#utility.yul\":9502:9816   */\ntag_136:\n  sub(shl(0xa0, 0x01), 0x01)\n    /* \"#utility.yul\":9677:9709   */\n  dup4\n  and\n    /* \"#utility.yul\":9659:9710   */\n  dup2\n  mstore\n    /* \"#utility.yul\":9746:9748   */\n  0x40\n    /* \"#utility.yul\":9741:9743   */\n  0x20\n    /* \"#utility.yul\":9726:9744   */\n  dup3\n  add\n    /* \"#utility.yul\":9719:9749   */\n  dup2\n  swap1\n  mstore\n  0x00\n  swap1\n    /* \"#utility.yul\":9766:9810   */\n  tag_231\n  swap1\n    /* \"#utility.yul\":9791:9809   */\n  dup4\n  add\n    /* \"#utility.yul\":9783:9789   */\n  dup5\n    /* \"#utility.yul\":9766:9810   */\n  tag_148\n  jump\t// in\ntag_231:\n    /* \"#utility.yul\":9758:9810   */\n  swap5\n    /* \"#utility.yul\":9502:9816   */\n  swap4\n  pop\n  pop\n  pop\n  pop\n  jump\t// out\n    /* \"#utility.yul\":9821:10137   */\ntag_150:\n    /* \"contracts/T2G_root.sol\":1141:2353  contract Hive is Diamond {... */\n  dataSize(sub_0)\n  dup1\n  dataOffset(sub_0)\n  0x00\n  codecopy\n  0x00\n  return\nstop\ndata_1ac25121ac50ee96730ac9ae618ddfea240cf59a9860f34e3db50d8def79c035 c8fcad8db84d3cc18b4c41d551ea0ee66dd599cde068d998e57d5e09332c131c\ndata_343e33adc9ef80d2a3b19196e3a71ee2d793419943c19ad2b2a6875f7dd42e8d 4c69624469616d6f6e644375743a2041646420666163657420686173206e6f20636f6465\ndata_460f8f0920c649146ef02741816b1cf9ce4f02ea288ceb73adf027cefe9069a0 4c69624469616d6f6e644375743a205f696e6974206164647265737320686173206e6f20636f6465\ndata_c0d727610ea16241eff4447d08bb1b4595f7d2ec4515282437a13b7d0df4b922 c8fcad8db84d3cc18b4c41d551ea0ee66dd599cde068d998e57d5e09332c131d\ndata_de246aa8052f872d61bcd9cfb620b8012f8bc6e512400178c0e967944dadacfe 4c69624469616d6f6e644375743a205265706c61636520666163657420686173206e6f20636f6465\n\nsub_0: assembly {\n        /* \"contracts/T2G_root.sol\":1141:2353  contract Hive is Diamond {... */\n      mstore(0x40, 0x80)\n      jumpi(tag_1, lt(calldatasize, 0x04))\n      shr(0xe0, calldataload(0x00))\n      dup1\n      0x41161089\n      eq\n      tag_3\n      jumpi\n      jump(tag_2)\n    tag_1:\n      jumpi(tag_2, calldatasize)\n      stop\n    tag_2:\n        /* \"contracts/Diamond.sol\":1471:1507  LibDiamond.DiamondStorage storage ds */\n      0x00\n        /* \"contracts/Diamond.sol\":1775:1782  msg.sig */\n      dup1\n      calldataload\n      not(sub(shl(0xe0, 0x01), 0x01))\n      and\n        /* \"contracts/Diamond.sol\":1740:1783  ds.facetAddressAndSelectorPosition[msg.sig] */\n      dup2\n      mstore\n        /* \"contracts/libraries/LibDiamond.sol\":1639:1684  keccak256(\"diamond.standard.diamond.storage\") */\n      0xc8fcad8db84d3cc18b4c41d551ea0ee66dd599cde068d998e57d5e09332c131c\n        /* \"contracts/Diamond.sol\":1740:1783  ds.facetAddressAndSelectorPosition[msg.sig] */\n      0x20\n      dup2\n      swap1\n      mstore\n      0x40\n      swap1\n      swap2\n      keccak256\n        /* \"contracts/Diamond.sol\":1740:1796  ds.facetAddressAndSelectorPosition[msg.sig].facetAddress */\n      sload\n        /* \"contracts/libraries/LibDiamond.sol\":1639:1684  keccak256(\"diamond.standard.diamond.storage\") */\n      dup2\n      swap1\n      sub(shl(0xa0, 0x01), 0x01)\n        /* \"contracts/Diamond.sol\":1740:1796  ds.facetAddressAndSelectorPosition[msg.sig].facetAddress */\n      and\n      dup1\n        /* \"contracts/Diamond.sol\":1807:1890  if(facet == address(0)) {... */\n      tag_8\n      jumpi\n        /* \"contracts/Diamond.sol\":1853:1878  FunctionNotFound(msg.sig) */\n      mload(0x40)\n      shl(0xe3, 0x0a82dd73)\n      dup2\n      mstore\n      not(sub(shl(0xe0, 0x01), 0x01))\n        /* \"contracts/Diamond.sol\":1870:1877  msg.sig */\n      calldataload(0x00)\n      and\n        /* \"contracts/Diamond.sol\":1853:1878  FunctionNotFound(msg.sig) */\n      0x04\n      dup3\n      add\n        /* \"#utility.yul\":158:210   */\n      mstore\n        /* \"#utility.yul\":131:149   */\n      0x24\n      add\n        /* \"contracts/Diamond.sol\":1853:1878  FunctionNotFound(msg.sig) */\n      mload(0x40)\n      dup1\n      swap2\n      sub\n      swap1\n      revert\n        /* \"contracts/Diamond.sol\":1807:1890  if(facet == address(0)) {... */\n    tag_8:\n        /* \"contracts/Diamond.sol\":2090:2104  calldatasize() */\n      calldatasize\n        /* \"contracts/Diamond.sol\":2087:2088  0 */\n      0x00\n        /* \"contracts/Diamond.sol\":2084:2085  0 */\n      dup1\n        /* \"contracts/Diamond.sol\":2071:2105  calldatacopy(0, 0, calldatasize()) */\n      calldatacopy\n        /* \"contracts/Diamond.sol\":2237:2238  0 */\n      0x00\n        /* \"contracts/Diamond.sol\":2234:2235  0 */\n      dup1\n        /* \"contracts/Diamond.sol\":2218:2232  calldatasize() */\n      calldatasize\n        /* \"contracts/Diamond.sol\":2215:2216  0 */\n      0x00\n        /* \"contracts/Diamond.sol\":2208:2213  facet */\n      dup5\n        /* \"contracts/Diamond.sol\":2201:2206  gas() */\n      gas\n        /* \"contracts/Diamond.sol\":2188:2239  delegatecall(gas(), facet, 0, calldatasize(), 0, 0) */\n      delegatecall\n        /* \"contracts/Diamond.sol\":2311:2327  returndatasize() */\n      returndatasize\n        /* \"contracts/Diamond.sol\":2308:2309  0 */\n      0x00\n        /* \"contracts/Diamond.sol\":2305:2306  0 */\n      dup1\n        /* \"contracts/Diamond.sol\":2290:2328  returndatacopy(0, 0, returndatasize()) */\n      returndatacopy\n        /* \"contracts/Diamond.sol\":2417:2423  result */\n      dup1\n        /* \"contracts/Diamond.sol\":2441:2517  case 0 {... */\n      dup1\n      iszero\n      tag_12\n      jumpi\n        /* \"contracts/Diamond.sol\":2576:2592  returndatasize() */\n      returndatasize\n        /* \"contracts/Diamond.sol\":2573:2574  0 */\n      0x00\n        /* \"contracts/Diamond.sol\":2566:2593  return(0, returndatasize()) */\n      return\n        /* \"contracts/Diamond.sol\":2441:2517  case 0 {... */\n    tag_12:\n        /* \"contracts/Diamond.sol\":2481:2497  returndatasize() */\n      returndatasize\n        /* \"contracts/Diamond.sol\":2478:2479  0 */\n      0x00\n        /* \"contracts/Diamond.sol\":2471:2498  revert(0, returndatasize()) */\n      revert\n        /* \"contracts/T2G_root.sol\":1233:1317  function beacon_Hive() public pure returns (string memory) { return \"Hive::1.0.0\"; } */\n    tag_3:\n      callvalue\n      dup1\n      iszero\n      tag_13\n      jumpi\n      0x00\n      dup1\n      revert\n    tag_13:\n      pop\n        /* \"contracts/T2G_root.sol\":1294:1314  return \"Hive::1.0.0\" */\n      0x40\n      dup1\n      mload\n      dup1\n      dup3\n      add\n      dup3\n      mstore\n      0x0b\n      dup2\n      mstore\n      shl(0xac, 0x0486976653a3a312e302e3)\n      0x20\n      dup3\n      add\n      mstore\n        /* \"contracts/T2G_root.sol\":1233:1317  function beacon_Hive() public pure returns (string memory) { return \"Hive::1.0.0\"; } */\n      swap1\n      mload\n      tag_16\n      swap2\n        /* \"contracts/T2G_root.sol\":1294:1314  return \"Hive::1.0.0\" */\n      swap1\n        /* \"contracts/T2G_root.sol\":1233:1317  function beacon_Hive() public pure returns (string memory) { return \"Hive::1.0.0\"; } */\n      tag_17\n      jump\t// in\n    tag_16:\n      mload(0x40)\n      dup1\n      swap2\n      sub\n      swap1\n      return\n        /* \"#utility.yul\":221:639   */\n    tag_17:\n        /* \"#utility.yul\":370:372   */\n      0x20\n        /* \"#utility.yul\":359:368   */\n      dup2\n        /* \"#utility.yul\":352:373   */\n      mstore\n        /* \"#utility.yul\":333:337   */\n      0x00\n        /* \"#utility.yul\":402:408   */\n      dup3\n        /* \"#utility.yul\":396:409   */\n      mload\n        /* \"#utility.yul\":445:451   */\n      dup1\n        /* \"#utility.yul\":440:442   */\n      0x20\n        /* \"#utility.yul\":429:438   */\n      dup5\n        /* \"#utility.yul\":425:443   */\n      add\n        /* \"#utility.yul\":418:452   */\n      mstore\n        /* \"#utility.yul\":504:510   */\n      dup1\n        /* \"#utility.yul\":499:501   */\n      0x20\n        /* \"#utility.yul\":491:497   */\n      dup6\n        /* \"#utility.yul\":487:502   */\n      add\n        /* \"#utility.yul\":482:484   */\n      0x40\n        /* \"#utility.yul\":471:480   */\n      dup6\n        /* \"#utility.yul\":467:485   */\n      add\n        /* \"#utility.yul\":461:511   */\n      mcopy\n        /* \"#utility.yul\":560:561   */\n      0x00\n        /* \"#utility.yul\":555:557   */\n      0x40\n        /* \"#utility.yul\":546:552   */\n      dup3\n        /* \"#utility.yul\":535:544   */\n      dup6\n        /* \"#utility.yul\":531:553   */\n      add\n        /* \"#utility.yul\":527:558   */\n      add\n        /* \"#utility.yul\":520:562   */\n      mstore\n        /* \"#utility.yul\":630:632   */\n      0x40\n        /* \"#utility.yul\":623:625   */\n      0x1f\n        /* \"#utility.yul\":619:626   */\n      not\n        /* \"#utility.yul\":614:616   */\n      0x1f\n        /* \"#utility.yul\":606:612   */\n      dup4\n        /* \"#utility.yul\":602:617   */\n      add\n        /* \"#utility.yul\":598:627   */\n      and\n        /* \"#utility.yul\":587:596   */\n      dup5\n        /* \"#utility.yul\":583:628   */\n      add\n        /* \"#utility.yul\":579:633   */\n      add\n        /* \"#utility.yul\":571:633   */\n      swap2\n      pop\n      pop\n        /* \"#utility.yul\":221:639   */\n      swap3\n      swap2\n      pop\n      pop\n      jump\t// out\n\n    auxdata: 0xa264697066735822122055b91f572fbc8e5b41217ff8d29a0430965b3bf9e45b716222bf47ef0f3b54db64736f6c634300081a0033\n}\n",
				"bytecode": {
					"linkReferences": {},
					"object": "608060405234801561000f575f80fd5b506040516110b43803806110b483398101604081905261002e91610a93565b80518290829061003d90610080565b610056828260200151836040015161010160201b60201c565b50505f6001819055905181546001600160a01b0319166001600160a01b0390911617905550610e8b565b7fc8fcad8db84d3cc18b4c41d551ea0ee66dd599cde068d998e57d5e09332c131f80546001600160a01b031981166001600160a01b038481169182179093556040515f80516020611000833981519152939092169182907f8be0079c531659141344cd1fd0a4f28419497f9722a3daafe3b4186f6b6457e0905f90a3505050565b5f5b8351811015610259575f84828151811061011f5761011f610c41565b60200260200101516040015190505f85838151811061014057610140610c41565b60200260200101515f0151905081515f0361017e5760405163e767f91f60e01b81526001600160a01b03821660048201526024015b60405180910390fd5b5f86848151811061019157610191610c41565b60200260200101516020015190505f60028111156101b1576101b1610c55565b8160028111156101c3576101c3610c55565b036101d7576101d282846102a4565b61024e565b60018160028111156101eb576101eb610c55565b036101fa576101d2828461044a565b600281600281111561020e5761020e610c55565b0361021d576101d282846105ce565b80600281111561022f5761022f610c55565b604051633ff4d20f60e11b815260ff9091166004820152602401610175565b505050600101610103565b507f8faa70878671ccd212d20771b795c50af8fd3ff6cf27f4bde57e5d4de0aeb67383838360405161028d93929190610c97565b60405180910390a161029f8282610842565b505050565b6001600160a01b0382166102cd57806040516302b8da0760e21b81526004016101759190610da1565b5f8051602061106c83398151915254604080516060810190915260248082525f805160206110008339815191529291610310918691906110206020830139610904565b5f5b8351811015610443575f84828151811061032e5761032e610c41565b6020908102919091018101516001600160e01b031981165f908152918690526040909120549091506001600160a01b0316801561038a5760405163ebbf5d0760e01b81526001600160e01b031983166004820152602401610175565b6040805180820182526001600160a01b03808a16825261ffff80881660208085019182526001600160e01b031988165f9081528b8252958620945185549251909316600160a01b026001600160b01b0319909216929093169190911717909155600180880180549182018155835291206008820401805460e085901c60046007909416939093026101000a92830263ffffffff90930219169190911790558361043281610e01565b945050600190920191506103129050565b5050505050565b5f805160206110008339815191526001600160a01b038316610481578160405163cd98a96f60e01b81526004016101759190610da1565b6104a38360405180606001604052806028815260200161108c60289139610904565b5f5b82518110156105c8575f8382815181106104c1576104c1610c41565b6020908102919091018101516001600160e01b031981165f908152918590526040909120549091506001600160a01b031630810361051e57604051632901806d60e11b81526001600160e01b031983166004820152602401610175565b856001600160a01b0316816001600160a01b03160361055c57604051631ac6ce8d60e11b81526001600160e01b031983166004820152602401610175565b6001600160a01b03811661058f57604051637479f93960e01b81526001600160e01b031983166004820152602401610175565b506001600160e01b0319165f90815260208390526040902080546001600160a01b0319166001600160a01b0386161790556001016104a5565b50505050565b5f8051602061106c833981519152545f80516020611000833981519152906001600160a01b0384161561061f5760405163d091bc8160e01b81526001600160a01b0385166004820152602401610175565b5f5b8351811015610443575f84828151811061063d5761063d610c41565b6020908102919091018101516001600160e01b031981165f9081528683526040908190208151808301909252546001600160a01b038116808352600160a01b90910461ffff1693820193909352909250906106b757604051637a08a22d60e01b81526001600160e01b031983166004820152602401610175565b8051306001600160a01b03909116036106ef57604051630df5fd6160e31b81526001600160e01b031983166004820152602401610175565b836106f981610e21565b94505083816020015161ffff16146107d3575f85600101858154811061072157610721610c41565b905f5260205f2090600891828204019190066004029054906101000a900460e01b90508086600101836020015161ffff168154811061076257610762610c41565b5f91825260208083206008830401805463ffffffff60079094166004026101000a938402191660e09590951c92909202939093179055838201516001600160e01b03199390931681529087905260409020805461ffff60a01b1916600160a01b61ffff909316929092029190911790555b846001018054806107e6576107e6610e36565b5f828152602080822060085f1990940193840401805463ffffffff600460078716026101000a0219169055919092556001600160e01b0319909316815291859052506040902080546001600160b01b0319169055600101610621565b6001600160a01b038216610854575050565b6108768260405180606001604052806028815260200161104460289139610904565b5f80836001600160a01b0316836040516108909190610e4a565b5f60405180830381855af49150503d805f81146108c8576040519150601f19603f3d011682016040523d82523d5f602084013e6108cd565b606091505b5091509150816105c8578051156108e75780518082602001fd5b838360405163192105d760e01b8152600401610175929190610e60565b813b5f81900361029f57828260405163919834b960e01b8152600401610175929190610e60565b634e487b7160e01b5f52604160045260245ffd5b604051606081016001600160401b03811182821017156109615761096161092b565b60405290565b604051601f8201601f191681016001600160401b038111828210171561098f5761098f61092b565b604052919050565b5f6001600160401b038211156109af576109af61092b565b5060051b60200190565b80516001600160a01b03811681146109cf575f80fd5b919050565b5f606082840312156109e4575f80fd5b6109ec61093f565b90506109f7826109b9565b8152610a05602083016109b9565b602082015260408201516001600160401b03811115610a22575f80fd5b8201601f81018413610a32575f80fd5b80516001600160401b03811115610a4b57610a4b61092b565b610a5e601f8201601f1916602001610967565b818152856020838501011115610a72575f80fd5b8160208401602083015e5f6020838301015280604085015250505092915050565b5f8060408385031215610aa4575f80fd5b82516001600160401b03811115610ab9575f80fd5b8301601f81018513610ac9575f80fd5b8051610adc610ad782610997565b610967565b8082825260208201915060208360051b850101925087831115610afd575f80fd5b602084015b83811015610c0b5780516001600160401b03811115610b1f575f80fd5b85016060818b03601f19011215610b34575f80fd5b610b3c61093f565b610b48602083016109b9565b8152604082015160038110610b5b575f80fd5b602082015260608201516001600160401b03811115610b78575f80fd5b6020818401019250508a601f830112610b8f575f80fd5b8151610b9d610ad782610997565b8082825260208201915060208360051b86010192508d831115610bbe575f80fd5b6020850194505b82851015610bf55784516001600160e01b031981168114610be4575f80fd5b825260209485019490910190610bc5565b6040840152505084525060209283019201610b02565b506020870151909550925050506001600160401b03811115610c2b575f80fd5b610c37858286016109d4565b9150509250929050565b634e487b7160e01b5f52603260045260245ffd5b634e487b7160e01b5f52602160045260245ffd5b5f81518084528060208401602086015e5f602082860101526020601f19601f83011685010191505092915050565b5f606082016060835280865180835260808501915060808160051b8601019250602088015f5b82811015610d7257868503607f19018452815180516001600160a01b031686526020810151606087019060038110610d0357634e487b7160e01b5f52602160045260245ffd5b8060208901525060408201519150606060408801528082518083526080890191506020840193505f92505b80831015610d5a5783516001600160e01b03191682526020938401936001939093019290910190610d2e565b50965050506020938401939190910190600101610cbd565b5050506001600160a01b0386166020850152508281036040840152610d978185610c69565b9695505050505050565b602080825282518282018190525f918401906040840190835b81811015610de25783516001600160e01b031916835260209384019390920191600101610dba565b509095945050505050565b634e487b7160e01b5f52601160045260245ffd5b5f61ffff821661ffff8103610e1857610e18610ded565b60010192915050565b5f81610e2f57610e2f610ded565b505f190190565b634e487b7160e01b5f52603160045260245ffd5b5f82518060208501845e5f920191825250919050565b6001600160a01b03831681526040602082018190525f90610e8390830184610c69565b949350505050565b61016880610e985f395ff3fe608060405260043610610021575f3560e01c806341161089146100bb57610028565b3661002857005b5f80356001600160e01b03191681527fc8fcad8db84d3cc18b4c41d551ea0ee66dd599cde068d998e57d5e09332c131c602081905260409091205481906001600160a01b03168061009d57604051630a82dd7360e31b81526001600160e01b03195f3516600482015260240160405180910390fd5b365f80375f80365f845af43d5f803e8080156100b7573d5ff35b3d5ffd5b3480156100c6575f80fd5b50604080518082018252600b81526a0486976653a3a312e302e360ac1b602082015290516100f491906100fd565b60405180910390f35b602081525f82518060208401528060208501604085015e5f604082850101526040601f19601f8301168401019150509291505056fea264697066735822122055b91f572fbc8e5b41217ff8d29a0430965b3bf9e45b716222bf47ef0f3b54db64736f6c634300081a0033c8fcad8db84d3cc18b4c41d551ea0ee66dd599cde068d998e57d5e09332c131c4c69624469616d6f6e644375743a2041646420666163657420686173206e6f20636f64654c69624469616d6f6e644375743a205f696e6974206164647265737320686173206e6f20636f6465c8fcad8db84d3cc18b4c41d551ea0ee66dd599cde068d998e57d5e09332c131d4c69624469616d6f6e644375743a205265706c61636520666163657420686173206e6f20636f6465",
					"opcodes": "PUSH1 0x80 PUSH1 0x40 MSTORE CALLVALUE DUP1 ISZERO PUSH2 0xF JUMPI PUSH0 DUP1 REVERT JUMPDEST POP PUSH1 0x40 MLOAD PUSH2 0x10B4 CODESIZE SUB DUP1 PUSH2 0x10B4 DUP4 CODECOPY DUP2 ADD PUSH1 0x40 DUP2 SWAP1 MSTORE PUSH2 0x2E SWAP2 PUSH2 0xA93 JUMP JUMPDEST DUP1 MLOAD DUP3 SWAP1 DUP3 SWAP1 PUSH2 0x3D SWAP1 PUSH2 0x80 JUMP JUMPDEST PUSH2 0x56 DUP3 DUP3 PUSH1 0x20 ADD MLOAD DUP4 PUSH1 0x40 ADD MLOAD PUSH2 0x101 PUSH1 0x20 SHL PUSH1 0x20 SHR JUMP JUMPDEST POP POP PUSH0 PUSH1 0x1 DUP2 SWAP1 SSTORE SWAP1 MLOAD DUP2 SLOAD PUSH1 0x1 PUSH1 0x1 PUSH1 0xA0 SHL SUB NOT AND PUSH1 0x1 PUSH1 0x1 PUSH1 0xA0 SHL SUB SWAP1 SWAP2 AND OR SWAP1 SSTORE POP PUSH2 0xE8B JUMP JUMPDEST PUSH32 0xC8FCAD8DB84D3CC18B4C41D551EA0EE66DD599CDE068D998E57D5E09332C131F DUP1 SLOAD PUSH1 0x1 PUSH1 0x1 PUSH1 0xA0 SHL SUB NOT DUP2 AND PUSH1 0x1 PUSH1 0x1 PUSH1 0xA0 SHL SUB DUP5 DUP2 AND SWAP2 DUP3 OR SWAP1 SWAP4 SSTORE PUSH1 0x40 MLOAD PUSH0 DUP1 MLOAD PUSH1 0x20 PUSH2 0x1000 DUP4 CODECOPY DUP2 MLOAD SWAP2 MSTORE SWAP4 SWAP1 SWAP3 AND SWAP2 DUP3 SWAP1 PUSH32 0x8BE0079C531659141344CD1FD0A4F28419497F9722A3DAAFE3B4186F6B6457E0 SWAP1 PUSH0 SWAP1 LOG3 POP POP POP JUMP JUMPDEST PUSH0 JUMPDEST DUP4 MLOAD DUP2 LT ISZERO PUSH2 0x259 JUMPI PUSH0 DUP5 DUP3 DUP2 MLOAD DUP2 LT PUSH2 0x11F JUMPI PUSH2 0x11F PUSH2 0xC41 JUMP JUMPDEST PUSH1 0x20 MUL PUSH1 0x20 ADD ADD MLOAD PUSH1 0x40 ADD MLOAD SWAP1 POP PUSH0 DUP6 DUP4 DUP2 MLOAD DUP2 LT PUSH2 0x140 JUMPI PUSH2 0x140 PUSH2 0xC41 JUMP JUMPDEST PUSH1 0x20 MUL PUSH1 0x20 ADD ADD MLOAD PUSH0 ADD MLOAD SWAP1 POP DUP2 MLOAD PUSH0 SUB PUSH2 0x17E JUMPI PUSH1 0x40 MLOAD PUSH4 0xE767F91F PUSH1 0xE0 SHL DUP2 MSTORE PUSH1 0x1 PUSH1 0x1 PUSH1 0xA0 SHL SUB DUP3 AND PUSH1 0x4 DUP3 ADD MSTORE PUSH1 0x24 ADD JUMPDEST PUSH1 0x40 MLOAD DUP1 SWAP2 SUB SWAP1 REVERT JUMPDEST PUSH0 DUP7 DUP5 DUP2 MLOAD DUP2 LT PUSH2 0x191 JUMPI PUSH2 0x191 PUSH2 0xC41 JUMP JUMPDEST PUSH1 0x20 MUL PUSH1 0x20 ADD ADD MLOAD PUSH1 0x20 ADD MLOAD SWAP1 POP PUSH0 PUSH1 0x2 DUP2 GT ISZERO PUSH2 0x1B1 JUMPI PUSH2 0x1B1 PUSH2 0xC55 JUMP JUMPDEST DUP2 PUSH1 0x2 DUP2 GT ISZERO PUSH2 0x1C3 JUMPI PUSH2 0x1C3 PUSH2 0xC55 JUMP JUMPDEST SUB PUSH2 0x1D7 JUMPI PUSH2 0x1D2 DUP3 DUP5 PUSH2 0x2A4 JUMP JUMPDEST PUSH2 0x24E JUMP JUMPDEST PUSH1 0x1 DUP2 PUSH1 0x2 DUP2 GT ISZERO PUSH2 0x1EB JUMPI PUSH2 0x1EB PUSH2 0xC55 JUMP JUMPDEST SUB PUSH2 0x1FA JUMPI PUSH2 0x1D2 DUP3 DUP5 PUSH2 0x44A JUMP JUMPDEST PUSH1 0x2 DUP2 PUSH1 0x2 DUP2 GT ISZERO PUSH2 0x20E JUMPI PUSH2 0x20E PUSH2 0xC55 JUMP JUMPDEST SUB PUSH2 0x21D JUMPI PUSH2 0x1D2 DUP3 DUP5 PUSH2 0x5CE JUMP JUMPDEST DUP1 PUSH1 0x2 DUP2 GT ISZERO PUSH2 0x22F JUMPI PUSH2 0x22F PUSH2 0xC55 JUMP JUMPDEST PUSH1 0x40 MLOAD PUSH4 0x3FF4D20F PUSH1 0xE1 SHL DUP2 MSTORE PUSH1 0xFF SWAP1 SWAP2 AND PUSH1 0x4 DUP3 ADD MSTORE PUSH1 0x24 ADD PUSH2 0x175 JUMP JUMPDEST POP POP POP PUSH1 0x1 ADD PUSH2 0x103 JUMP JUMPDEST POP PUSH32 0x8FAA70878671CCD212D20771B795C50AF8FD3FF6CF27F4BDE57E5D4DE0AEB673 DUP4 DUP4 DUP4 PUSH1 0x40 MLOAD PUSH2 0x28D SWAP4 SWAP3 SWAP2 SWAP1 PUSH2 0xC97 JUMP JUMPDEST PUSH1 0x40 MLOAD DUP1 SWAP2 SUB SWAP1 LOG1 PUSH2 0x29F DUP3 DUP3 PUSH2 0x842 JUMP JUMPDEST POP POP POP JUMP JUMPDEST PUSH1 0x1 PUSH1 0x1 PUSH1 0xA0 SHL SUB DUP3 AND PUSH2 0x2CD JUMPI DUP1 PUSH1 0x40 MLOAD PUSH4 0x2B8DA07 PUSH1 0xE2 SHL DUP2 MSTORE PUSH1 0x4 ADD PUSH2 0x175 SWAP2 SWAP1 PUSH2 0xDA1 JUMP JUMPDEST PUSH0 DUP1 MLOAD PUSH1 0x20 PUSH2 0x106C DUP4 CODECOPY DUP2 MLOAD SWAP2 MSTORE SLOAD PUSH1 0x40 DUP1 MLOAD PUSH1 0x60 DUP2 ADD SWAP1 SWAP2 MSTORE PUSH1 0x24 DUP1 DUP3 MSTORE PUSH0 DUP1 MLOAD PUSH1 0x20 PUSH2 0x1000 DUP4 CODECOPY DUP2 MLOAD SWAP2 MSTORE SWAP3 SWAP2 PUSH2 0x310 SWAP2 DUP7 SWAP2 SWAP1 PUSH2 0x1020 PUSH1 0x20 DUP4 ADD CODECOPY PUSH2 0x904 JUMP JUMPDEST PUSH0 JUMPDEST DUP4 MLOAD DUP2 LT ISZERO PUSH2 0x443 JUMPI PUSH0 DUP5 DUP3 DUP2 MLOAD DUP2 LT PUSH2 0x32E JUMPI PUSH2 0x32E PUSH2 0xC41 JUMP JUMPDEST PUSH1 0x20 SWAP1 DUP2 MUL SWAP2 SWAP1 SWAP2 ADD DUP2 ADD MLOAD PUSH1 0x1 PUSH1 0x1 PUSH1 0xE0 SHL SUB NOT DUP2 AND PUSH0 SWAP1 DUP2 MSTORE SWAP2 DUP7 SWAP1 MSTORE PUSH1 0x40 SWAP1 SWAP2 KECCAK256 SLOAD SWAP1 SWAP2 POP PUSH1 0x1 PUSH1 0x1 PUSH1 0xA0 SHL SUB AND DUP1 ISZERO PUSH2 0x38A JUMPI PUSH1 0x40 MLOAD PUSH4 0xEBBF5D07 PUSH1 0xE0 SHL DUP2 MSTORE PUSH1 0x1 PUSH1 0x1 PUSH1 0xE0 SHL SUB NOT DUP4 AND PUSH1 0x4 DUP3 ADD MSTORE PUSH1 0x24 ADD PUSH2 0x175 JUMP JUMPDEST PUSH1 0x40 DUP1 MLOAD DUP1 DUP3 ADD DUP3 MSTORE PUSH1 0x1 PUSH1 0x1 PUSH1 0xA0 SHL SUB DUP1 DUP11 AND DUP3 MSTORE PUSH2 0xFFFF DUP1 DUP9 AND PUSH1 0x20 DUP1 DUP6 ADD SWAP2 DUP3 MSTORE PUSH1 0x1 PUSH1 0x1 PUSH1 0xE0 SHL SUB NOT DUP9 AND PUSH0 SWAP1 DUP2 MSTORE DUP12 DUP3 MSTORE SWAP6 DUP7 KECCAK256 SWAP5 MLOAD DUP6 SLOAD SWAP3 MLOAD SWAP1 SWAP4 AND PUSH1 0x1 PUSH1 0xA0 SHL MUL PUSH1 0x1 PUSH1 0x1 PUSH1 0xB0 SHL SUB NOT SWAP1 SWAP3 AND SWAP3 SWAP1 SWAP4 AND SWAP2 SWAP1 SWAP2 OR OR SWAP1 SWAP2 SSTORE PUSH1 0x1 DUP1 DUP9 ADD DUP1 SLOAD SWAP2 DUP3 ADD DUP2 SSTORE DUP4 MSTORE SWAP2 KECCAK256 PUSH1 0x8 DUP3 DIV ADD DUP1 SLOAD PUSH1 0xE0 DUP6 SWAP1 SHR PUSH1 0x4 PUSH1 0x7 SWAP1 SWAP5 AND SWAP4 SWAP1 SWAP4 MUL PUSH2 0x100 EXP SWAP3 DUP4 MUL PUSH4 0xFFFFFFFF SWAP1 SWAP4 MUL NOT AND SWAP2 SWAP1 SWAP2 OR SWAP1 SSTORE DUP4 PUSH2 0x432 DUP2 PUSH2 0xE01 JUMP JUMPDEST SWAP5 POP POP PUSH1 0x1 SWAP1 SWAP3 ADD SWAP2 POP PUSH2 0x312 SWAP1 POP JUMP JUMPDEST POP POP POP POP POP JUMP JUMPDEST PUSH0 DUP1 MLOAD PUSH1 0x20 PUSH2 0x1000 DUP4 CODECOPY DUP2 MLOAD SWAP2 MSTORE PUSH1 0x1 PUSH1 0x1 PUSH1 0xA0 SHL SUB DUP4 AND PUSH2 0x481 JUMPI DUP2 PUSH1 0x40 MLOAD PUSH4 0xCD98A96F PUSH1 0xE0 SHL DUP2 MSTORE PUSH1 0x4 ADD PUSH2 0x175 SWAP2 SWAP1 PUSH2 0xDA1 JUMP JUMPDEST PUSH2 0x4A3 DUP4 PUSH1 0x40 MLOAD DUP1 PUSH1 0x60 ADD PUSH1 0x40 MSTORE DUP1 PUSH1 0x28 DUP2 MSTORE PUSH1 0x20 ADD PUSH2 0x108C PUSH1 0x28 SWAP2 CODECOPY PUSH2 0x904 JUMP JUMPDEST PUSH0 JUMPDEST DUP3 MLOAD DUP2 LT ISZERO PUSH2 0x5C8 JUMPI PUSH0 DUP4 DUP3 DUP2 MLOAD DUP2 LT PUSH2 0x4C1 JUMPI PUSH2 0x4C1 PUSH2 0xC41 JUMP JUMPDEST PUSH1 0x20 SWAP1 DUP2 MUL SWAP2 SWAP1 SWAP2 ADD DUP2 ADD MLOAD PUSH1 0x1 PUSH1 0x1 PUSH1 0xE0 SHL SUB NOT DUP2 AND PUSH0 SWAP1 DUP2 MSTORE SWAP2 DUP6 SWAP1 MSTORE PUSH1 0x40 SWAP1 SWAP2 KECCAK256 SLOAD SWAP1 SWAP2 POP PUSH1 0x1 PUSH1 0x1 PUSH1 0xA0 SHL SUB AND ADDRESS DUP2 SUB PUSH2 0x51E JUMPI PUSH1 0x40 MLOAD PUSH4 0x2901806D PUSH1 0xE1 SHL DUP2 MSTORE PUSH1 0x1 PUSH1 0x1 PUSH1 0xE0 SHL SUB NOT DUP4 AND PUSH1 0x4 DUP3 ADD MSTORE PUSH1 0x24 ADD PUSH2 0x175 JUMP JUMPDEST DUP6 PUSH1 0x1 PUSH1 0x1 PUSH1 0xA0 SHL SUB AND DUP2 PUSH1 0x1 PUSH1 0x1 PUSH1 0xA0 SHL SUB AND SUB PUSH2 0x55C JUMPI PUSH1 0x40 MLOAD PUSH4 0x1AC6CE8D PUSH1 0xE1 SHL DUP2 MSTORE PUSH1 0x1 PUSH1 0x1 PUSH1 0xE0 SHL SUB NOT DUP4 AND PUSH1 0x4 DUP3 ADD MSTORE PUSH1 0x24 ADD PUSH2 0x175 JUMP JUMPDEST PUSH1 0x1 PUSH1 0x1 PUSH1 0xA0 SHL SUB DUP2 AND PUSH2 0x58F JUMPI PUSH1 0x40 MLOAD PUSH4 0x7479F939 PUSH1 0xE0 SHL DUP2 MSTORE PUSH1 0x1 PUSH1 0x1 PUSH1 0xE0 SHL SUB NOT DUP4 AND PUSH1 0x4 DUP3 ADD MSTORE PUSH1 0x24 ADD PUSH2 0x175 JUMP JUMPDEST POP PUSH1 0x1 PUSH1 0x1 PUSH1 0xE0 SHL SUB NOT AND PUSH0 SWAP1 DUP2 MSTORE PUSH1 0x20 DUP4 SWAP1 MSTORE PUSH1 0x40 SWAP1 KECCAK256 DUP1 SLOAD PUSH1 0x1 PUSH1 0x1 PUSH1 0xA0 SHL SUB NOT AND PUSH1 0x1 PUSH1 0x1 PUSH1 0xA0 SHL SUB DUP7 AND OR SWAP1 SSTORE PUSH1 0x1 ADD PUSH2 0x4A5 JUMP JUMPDEST POP POP POP POP JUMP JUMPDEST PUSH0 DUP1 MLOAD PUSH1 0x20 PUSH2 0x106C DUP4 CODECOPY DUP2 MLOAD SWAP2 MSTORE SLOAD PUSH0 DUP1 MLOAD PUSH1 0x20 PUSH2 0x1000 DUP4 CODECOPY DUP2 MLOAD SWAP2 MSTORE SWAP1 PUSH1 0x1 PUSH1 0x1 PUSH1 0xA0 SHL SUB DUP5 AND ISZERO PUSH2 0x61F JUMPI PUSH1 0x40 MLOAD PUSH4 0xD091BC81 PUSH1 0xE0 SHL DUP2 MSTORE PUSH1 0x1 PUSH1 0x1 PUSH1 0xA0 SHL SUB DUP6 AND PUSH1 0x4 DUP3 ADD MSTORE PUSH1 0x24 ADD PUSH2 0x175 JUMP JUMPDEST PUSH0 JUMPDEST DUP4 MLOAD DUP2 LT ISZERO PUSH2 0x443 JUMPI PUSH0 DUP5 DUP3 DUP2 MLOAD DUP2 LT PUSH2 0x63D JUMPI PUSH2 0x63D PUSH2 0xC41 JUMP JUMPDEST PUSH1 0x20 SWAP1 DUP2 MUL SWAP2 SWAP1 SWAP2 ADD DUP2 ADD MLOAD PUSH1 0x1 PUSH1 0x1 PUSH1 0xE0 SHL SUB NOT DUP2 AND PUSH0 SWAP1 DUP2 MSTORE DUP7 DUP4 MSTORE PUSH1 0x40 SWAP1 DUP2 SWAP1 KECCAK256 DUP2 MLOAD DUP1 DUP4 ADD SWAP1 SWAP3 MSTORE SLOAD PUSH1 0x1 PUSH1 0x1 PUSH1 0xA0 SHL SUB DUP2 AND DUP1 DUP4 MSTORE PUSH1 0x1 PUSH1 0xA0 SHL SWAP1 SWAP2 DIV PUSH2 0xFFFF AND SWAP4 DUP3 ADD SWAP4 SWAP1 SWAP4 MSTORE SWAP1 SWAP3 POP SWAP1 PUSH2 0x6B7 JUMPI PUSH1 0x40 MLOAD PUSH4 0x7A08A22D PUSH1 0xE0 SHL DUP2 MSTORE PUSH1 0x1 PUSH1 0x1 PUSH1 0xE0 SHL SUB NOT DUP4 AND PUSH1 0x4 DUP3 ADD MSTORE PUSH1 0x24 ADD PUSH2 0x175 JUMP JUMPDEST DUP1 MLOAD ADDRESS PUSH1 0x1 PUSH1 0x1 PUSH1 0xA0 SHL SUB SWAP1 SWAP2 AND SUB PUSH2 0x6EF JUMPI PUSH1 0x40 MLOAD PUSH4 0xDF5FD61 PUSH1 0xE3 SHL DUP2 MSTORE PUSH1 0x1 PUSH1 0x1 PUSH1 0xE0 SHL SUB NOT DUP4 AND PUSH1 0x4 DUP3 ADD MSTORE PUSH1 0x24 ADD PUSH2 0x175 JUMP JUMPDEST DUP4 PUSH2 0x6F9 DUP2 PUSH2 0xE21 JUMP JUMPDEST SWAP5 POP POP DUP4 DUP2 PUSH1 0x20 ADD MLOAD PUSH2 0xFFFF AND EQ PUSH2 0x7D3 JUMPI PUSH0 DUP6 PUSH1 0x1 ADD DUP6 DUP2 SLOAD DUP2 LT PUSH2 0x721 JUMPI PUSH2 0x721 PUSH2 0xC41 JUMP JUMPDEST SWAP1 PUSH0 MSTORE PUSH1 0x20 PUSH0 KECCAK256 SWAP1 PUSH1 0x8 SWAP2 DUP3 DUP3 DIV ADD SWAP2 SWAP1 MOD PUSH1 0x4 MUL SWAP1 SLOAD SWAP1 PUSH2 0x100 EXP SWAP1 DIV PUSH1 0xE0 SHL SWAP1 POP DUP1 DUP7 PUSH1 0x1 ADD DUP4 PUSH1 0x20 ADD MLOAD PUSH2 0xFFFF AND DUP2 SLOAD DUP2 LT PUSH2 0x762 JUMPI PUSH2 0x762 PUSH2 0xC41 JUMP JUMPDEST PUSH0 SWAP2 DUP3 MSTORE PUSH1 0x20 DUP1 DUP4 KECCAK256 PUSH1 0x8 DUP4 DIV ADD DUP1 SLOAD PUSH4 0xFFFFFFFF PUSH1 0x7 SWAP1 SWAP5 AND PUSH1 0x4 MUL PUSH2 0x100 EXP SWAP4 DUP5 MUL NOT AND PUSH1 0xE0 SWAP6 SWAP1 SWAP6 SHR SWAP3 SWAP1 SWAP3 MUL SWAP4 SWAP1 SWAP4 OR SWAP1 SSTORE DUP4 DUP3 ADD MLOAD PUSH1 0x1 PUSH1 0x1 PUSH1 0xE0 SHL SUB NOT SWAP4 SWAP1 SWAP4 AND DUP2 MSTORE SWAP1 DUP8 SWAP1 MSTORE PUSH1 0x40 SWAP1 KECCAK256 DUP1 SLOAD PUSH2 0xFFFF PUSH1 0xA0 SHL NOT AND PUSH1 0x1 PUSH1 0xA0 SHL PUSH2 0xFFFF SWAP1 SWAP4 AND SWAP3 SWAP1 SWAP3 MUL SWAP2 SWAP1 SWAP2 OR SWAP1 SSTORE JUMPDEST DUP5 PUSH1 0x1 ADD DUP1 SLOAD DUP1 PUSH2 0x7E6 JUMPI PUSH2 0x7E6 PUSH2 0xE36 JUMP JUMPDEST PUSH0 DUP3 DUP2 MSTORE PUSH1 0x20 DUP1 DUP3 KECCAK256 PUSH1 0x8 PUSH0 NOT SWAP1 SWAP5 ADD SWAP4 DUP5 DIV ADD DUP1 SLOAD PUSH4 0xFFFFFFFF PUSH1 0x4 PUSH1 0x7 DUP8 AND MUL PUSH2 0x100 EXP MUL NOT AND SWAP1 SSTORE SWAP2 SWAP1 SWAP3 SSTORE PUSH1 0x1 PUSH1 0x1 PUSH1 0xE0 SHL SUB NOT SWAP1 SWAP4 AND DUP2 MSTORE SWAP2 DUP6 SWAP1 MSTORE POP PUSH1 0x40 SWAP1 KECCAK256 DUP1 SLOAD PUSH1 0x1 PUSH1 0x1 PUSH1 0xB0 SHL SUB NOT AND SWAP1 SSTORE PUSH1 0x1 ADD PUSH2 0x621 JUMP JUMPDEST PUSH1 0x1 PUSH1 0x1 PUSH1 0xA0 SHL SUB DUP3 AND PUSH2 0x854 JUMPI POP POP JUMP JUMPDEST PUSH2 0x876 DUP3 PUSH1 0x40 MLOAD DUP1 PUSH1 0x60 ADD PUSH1 0x40 MSTORE DUP1 PUSH1 0x28 DUP2 MSTORE PUSH1 0x20 ADD PUSH2 0x1044 PUSH1 0x28 SWAP2 CODECOPY PUSH2 0x904 JUMP JUMPDEST PUSH0 DUP1 DUP4 PUSH1 0x1 PUSH1 0x1 PUSH1 0xA0 SHL SUB AND DUP4 PUSH1 0x40 MLOAD PUSH2 0x890 SWAP2 SWAP1 PUSH2 0xE4A JUMP JUMPDEST PUSH0 PUSH1 0x40 MLOAD DUP1 DUP4 SUB DUP2 DUP6 GAS DELEGATECALL SWAP2 POP POP RETURNDATASIZE DUP1 PUSH0 DUP2 EQ PUSH2 0x8C8 JUMPI PUSH1 0x40 MLOAD SWAP2 POP PUSH1 0x1F NOT PUSH1 0x3F RETURNDATASIZE ADD AND DUP3 ADD PUSH1 0x40 MSTORE RETURNDATASIZE DUP3 MSTORE RETURNDATASIZE PUSH0 PUSH1 0x20 DUP5 ADD RETURNDATACOPY PUSH2 0x8CD JUMP JUMPDEST PUSH1 0x60 SWAP2 POP JUMPDEST POP SWAP2 POP SWAP2 POP DUP2 PUSH2 0x5C8 JUMPI DUP1 MLOAD ISZERO PUSH2 0x8E7 JUMPI DUP1 MLOAD DUP1 DUP3 PUSH1 0x20 ADD REVERT JUMPDEST DUP4 DUP4 PUSH1 0x40 MLOAD PUSH4 0x192105D7 PUSH1 0xE0 SHL DUP2 MSTORE PUSH1 0x4 ADD PUSH2 0x175 SWAP3 SWAP2 SWAP1 PUSH2 0xE60 JUMP JUMPDEST DUP2 EXTCODESIZE PUSH0 DUP2 SWAP1 SUB PUSH2 0x29F JUMPI DUP3 DUP3 PUSH1 0x40 MLOAD PUSH4 0x919834B9 PUSH1 0xE0 SHL DUP2 MSTORE PUSH1 0x4 ADD PUSH2 0x175 SWAP3 SWAP2 SWAP1 PUSH2 0xE60 JUMP JUMPDEST PUSH4 0x4E487B71 PUSH1 0xE0 SHL PUSH0 MSTORE PUSH1 0x41 PUSH1 0x4 MSTORE PUSH1 0x24 PUSH0 REVERT JUMPDEST PUSH1 0x40 MLOAD PUSH1 0x60 DUP2 ADD PUSH1 0x1 PUSH1 0x1 PUSH1 0x40 SHL SUB DUP2 GT DUP3 DUP3 LT OR ISZERO PUSH2 0x961 JUMPI PUSH2 0x961 PUSH2 0x92B JUMP JUMPDEST PUSH1 0x40 MSTORE SWAP1 JUMP JUMPDEST PUSH1 0x40 MLOAD PUSH1 0x1F DUP3 ADD PUSH1 0x1F NOT AND DUP2 ADD PUSH1 0x1 PUSH1 0x1 PUSH1 0x40 SHL SUB DUP2 GT DUP3 DUP3 LT OR ISZERO PUSH2 0x98F JUMPI PUSH2 0x98F PUSH2 0x92B JUMP JUMPDEST PUSH1 0x40 MSTORE SWAP2 SWAP1 POP JUMP JUMPDEST PUSH0 PUSH1 0x1 PUSH1 0x1 PUSH1 0x40 SHL SUB DUP3 GT ISZERO PUSH2 0x9AF JUMPI PUSH2 0x9AF PUSH2 0x92B JUMP JUMPDEST POP PUSH1 0x5 SHL PUSH1 0x20 ADD SWAP1 JUMP JUMPDEST DUP1 MLOAD PUSH1 0x1 PUSH1 0x1 PUSH1 0xA0 SHL SUB DUP2 AND DUP2 EQ PUSH2 0x9CF JUMPI PUSH0 DUP1 REVERT JUMPDEST SWAP2 SWAP1 POP JUMP JUMPDEST PUSH0 PUSH1 0x60 DUP3 DUP5 SUB SLT ISZERO PUSH2 0x9E4 JUMPI PUSH0 DUP1 REVERT JUMPDEST PUSH2 0x9EC PUSH2 0x93F JUMP JUMPDEST SWAP1 POP PUSH2 0x9F7 DUP3 PUSH2 0x9B9 JUMP JUMPDEST DUP2 MSTORE PUSH2 0xA05 PUSH1 0x20 DUP4 ADD PUSH2 0x9B9 JUMP JUMPDEST PUSH1 0x20 DUP3 ADD MSTORE PUSH1 0x40 DUP3 ADD MLOAD PUSH1 0x1 PUSH1 0x1 PUSH1 0x40 SHL SUB DUP2 GT ISZERO PUSH2 0xA22 JUMPI PUSH0 DUP1 REVERT JUMPDEST DUP3 ADD PUSH1 0x1F DUP2 ADD DUP5 SGT PUSH2 0xA32 JUMPI PUSH0 DUP1 REVERT JUMPDEST DUP1 MLOAD PUSH1 0x1 PUSH1 0x1 PUSH1 0x40 SHL SUB DUP2 GT ISZERO PUSH2 0xA4B JUMPI PUSH2 0xA4B PUSH2 0x92B JUMP JUMPDEST PUSH2 0xA5E PUSH1 0x1F DUP3 ADD PUSH1 0x1F NOT AND PUSH1 0x20 ADD PUSH2 0x967 JUMP JUMPDEST DUP2 DUP2 MSTORE DUP6 PUSH1 0x20 DUP4 DUP6 ADD ADD GT ISZERO PUSH2 0xA72 JUMPI PUSH0 DUP1 REVERT JUMPDEST DUP2 PUSH1 0x20 DUP5 ADD PUSH1 0x20 DUP4 ADD MCOPY PUSH0 PUSH1 0x20 DUP4 DUP4 ADD ADD MSTORE DUP1 PUSH1 0x40 DUP6 ADD MSTORE POP POP POP SWAP3 SWAP2 POP POP JUMP JUMPDEST PUSH0 DUP1 PUSH1 0x40 DUP4 DUP6 SUB SLT ISZERO PUSH2 0xAA4 JUMPI PUSH0 DUP1 REVERT JUMPDEST DUP3 MLOAD PUSH1 0x1 PUSH1 0x1 PUSH1 0x40 SHL SUB DUP2 GT ISZERO PUSH2 0xAB9 JUMPI PUSH0 DUP1 REVERT JUMPDEST DUP4 ADD PUSH1 0x1F DUP2 ADD DUP6 SGT PUSH2 0xAC9 JUMPI PUSH0 DUP1 REVERT JUMPDEST DUP1 MLOAD PUSH2 0xADC PUSH2 0xAD7 DUP3 PUSH2 0x997 JUMP JUMPDEST PUSH2 0x967 JUMP JUMPDEST DUP1 DUP3 DUP3 MSTORE PUSH1 0x20 DUP3 ADD SWAP2 POP PUSH1 0x20 DUP4 PUSH1 0x5 SHL DUP6 ADD ADD SWAP3 POP DUP8 DUP4 GT ISZERO PUSH2 0xAFD JUMPI PUSH0 DUP1 REVERT JUMPDEST PUSH1 0x20 DUP5 ADD JUMPDEST DUP4 DUP2 LT ISZERO PUSH2 0xC0B JUMPI DUP1 MLOAD PUSH1 0x1 PUSH1 0x1 PUSH1 0x40 SHL SUB DUP2 GT ISZERO PUSH2 0xB1F JUMPI PUSH0 DUP1 REVERT JUMPDEST DUP6 ADD PUSH1 0x60 DUP2 DUP12 SUB PUSH1 0x1F NOT ADD SLT ISZERO PUSH2 0xB34 JUMPI PUSH0 DUP1 REVERT JUMPDEST PUSH2 0xB3C PUSH2 0x93F JUMP JUMPDEST PUSH2 0xB48 PUSH1 0x20 DUP4 ADD PUSH2 0x9B9 JUMP JUMPDEST DUP2 MSTORE PUSH1 0x40 DUP3 ADD MLOAD PUSH1 0x3 DUP2 LT PUSH2 0xB5B JUMPI PUSH0 DUP1 REVERT JUMPDEST PUSH1 0x20 DUP3 ADD MSTORE PUSH1 0x60 DUP3 ADD MLOAD PUSH1 0x1 PUSH1 0x1 PUSH1 0x40 SHL SUB DUP2 GT ISZERO PUSH2 0xB78 JUMPI PUSH0 DUP1 REVERT JUMPDEST PUSH1 0x20 DUP2 DUP5 ADD ADD SWAP3 POP POP DUP11 PUSH1 0x1F DUP4 ADD SLT PUSH2 0xB8F JUMPI PUSH0 DUP1 REVERT JUMPDEST DUP2 MLOAD PUSH2 0xB9D PUSH2 0xAD7 DUP3 PUSH2 0x997 JUMP JUMPDEST DUP1 DUP3 DUP3 MSTORE PUSH1 0x20 DUP3 ADD SWAP2 POP PUSH1 0x20 DUP4 PUSH1 0x5 SHL DUP7 ADD ADD SWAP3 POP DUP14 DUP4 GT ISZERO PUSH2 0xBBE JUMPI PUSH0 DUP1 REVERT JUMPDEST PUSH1 0x20 DUP6 ADD SWAP5 POP JUMPDEST DUP3 DUP6 LT ISZERO PUSH2 0xBF5 JUMPI DUP5 MLOAD PUSH1 0x1 PUSH1 0x1 PUSH1 0xE0 SHL SUB NOT DUP2 AND DUP2 EQ PUSH2 0xBE4 JUMPI PUSH0 DUP1 REVERT JUMPDEST DUP3 MSTORE PUSH1 0x20 SWAP5 DUP6 ADD SWAP5 SWAP1 SWAP2 ADD SWAP1 PUSH2 0xBC5 JUMP JUMPDEST PUSH1 0x40 DUP5 ADD MSTORE POP POP DUP5 MSTORE POP PUSH1 0x20 SWAP3 DUP4 ADD SWAP3 ADD PUSH2 0xB02 JUMP JUMPDEST POP PUSH1 0x20 DUP8 ADD MLOAD SWAP1 SWAP6 POP SWAP3 POP POP POP PUSH1 0x1 PUSH1 0x1 PUSH1 0x40 SHL SUB DUP2 GT ISZERO PUSH2 0xC2B JUMPI PUSH0 DUP1 REVERT JUMPDEST PUSH2 0xC37 DUP6 DUP3 DUP7 ADD PUSH2 0x9D4 JUMP JUMPDEST SWAP2 POP POP SWAP3 POP SWAP3 SWAP1 POP JUMP JUMPDEST PUSH4 0x4E487B71 PUSH1 0xE0 SHL PUSH0 MSTORE PUSH1 0x32 PUSH1 0x4 MSTORE PUSH1 0x24 PUSH0 REVERT JUMPDEST PUSH4 0x4E487B71 PUSH1 0xE0 SHL PUSH0 MSTORE PUSH1 0x21 PUSH1 0x4 MSTORE PUSH1 0x24 PUSH0 REVERT JUMPDEST PUSH0 DUP2 MLOAD DUP1 DUP5 MSTORE DUP1 PUSH1 0x20 DUP5 ADD PUSH1 0x20 DUP7 ADD MCOPY PUSH0 PUSH1 0x20 DUP3 DUP7 ADD ADD MSTORE PUSH1 0x20 PUSH1 0x1F NOT PUSH1 0x1F DUP4 ADD AND DUP6 ADD ADD SWAP2 POP POP SWAP3 SWAP2 POP POP JUMP JUMPDEST PUSH0 PUSH1 0x60 DUP3 ADD PUSH1 0x60 DUP4 MSTORE DUP1 DUP7 MLOAD DUP1 DUP4 MSTORE PUSH1 0x80 DUP6 ADD SWAP2 POP PUSH1 0x80 DUP2 PUSH1 0x5 SHL DUP7 ADD ADD SWAP3 POP PUSH1 0x20 DUP9 ADD PUSH0 JUMPDEST DUP3 DUP2 LT ISZERO PUSH2 0xD72 JUMPI DUP7 DUP6 SUB PUSH1 0x7F NOT ADD DUP5 MSTORE DUP2 MLOAD DUP1 MLOAD PUSH1 0x1 PUSH1 0x1 PUSH1 0xA0 SHL SUB AND DUP7 MSTORE PUSH1 0x20 DUP2 ADD MLOAD PUSH1 0x60 DUP8 ADD SWAP1 PUSH1 0x3 DUP2 LT PUSH2 0xD03 JUMPI PUSH4 0x4E487B71 PUSH1 0xE0 SHL PUSH0 MSTORE PUSH1 0x21 PUSH1 0x4 MSTORE PUSH1 0x24 PUSH0 REVERT JUMPDEST DUP1 PUSH1 0x20 DUP10 ADD MSTORE POP PUSH1 0x40 DUP3 ADD MLOAD SWAP2 POP PUSH1 0x60 PUSH1 0x40 DUP9 ADD MSTORE DUP1 DUP3 MLOAD DUP1 DUP4 MSTORE PUSH1 0x80 DUP10 ADD SWAP2 POP PUSH1 0x20 DUP5 ADD SWAP4 POP PUSH0 SWAP3 POP JUMPDEST DUP1 DUP4 LT ISZERO PUSH2 0xD5A JUMPI DUP4 MLOAD PUSH1 0x1 PUSH1 0x1 PUSH1 0xE0 SHL SUB NOT AND DUP3 MSTORE PUSH1 0x20 SWAP4 DUP5 ADD SWAP4 PUSH1 0x1 SWAP4 SWAP1 SWAP4 ADD SWAP3 SWAP1 SWAP2 ADD SWAP1 PUSH2 0xD2E JUMP JUMPDEST POP SWAP7 POP POP POP PUSH1 0x20 SWAP4 DUP5 ADD SWAP4 SWAP2 SWAP1 SWAP2 ADD SWAP1 PUSH1 0x1 ADD PUSH2 0xCBD JUMP JUMPDEST POP POP POP PUSH1 0x1 PUSH1 0x1 PUSH1 0xA0 SHL SUB DUP7 AND PUSH1 0x20 DUP6 ADD MSTORE POP DUP3 DUP2 SUB PUSH1 0x40 DUP5 ADD MSTORE PUSH2 0xD97 DUP2 DUP6 PUSH2 0xC69 JUMP JUMPDEST SWAP7 SWAP6 POP POP POP POP POP POP JUMP JUMPDEST PUSH1 0x20 DUP1 DUP3 MSTORE DUP3 MLOAD DUP3 DUP3 ADD DUP2 SWAP1 MSTORE PUSH0 SWAP2 DUP5 ADD SWAP1 PUSH1 0x40 DUP5 ADD SWAP1 DUP4 JUMPDEST DUP2 DUP2 LT ISZERO PUSH2 0xDE2 JUMPI DUP4 MLOAD PUSH1 0x1 PUSH1 0x1 PUSH1 0xE0 SHL SUB NOT AND DUP4 MSTORE PUSH1 0x20 SWAP4 DUP5 ADD SWAP4 SWAP1 SWAP3 ADD SWAP2 PUSH1 0x1 ADD PUSH2 0xDBA JUMP JUMPDEST POP SWAP1 SWAP6 SWAP5 POP POP POP POP POP JUMP JUMPDEST PUSH4 0x4E487B71 PUSH1 0xE0 SHL PUSH0 MSTORE PUSH1 0x11 PUSH1 0x4 MSTORE PUSH1 0x24 PUSH0 REVERT JUMPDEST PUSH0 PUSH2 0xFFFF DUP3 AND PUSH2 0xFFFF DUP2 SUB PUSH2 0xE18 JUMPI PUSH2 0xE18 PUSH2 0xDED JUMP JUMPDEST PUSH1 0x1 ADD SWAP3 SWAP2 POP POP JUMP JUMPDEST PUSH0 DUP2 PUSH2 0xE2F JUMPI PUSH2 0xE2F PUSH2 0xDED JUMP JUMPDEST POP PUSH0 NOT ADD SWAP1 JUMP JUMPDEST PUSH4 0x4E487B71 PUSH1 0xE0 SHL PUSH0 MSTORE PUSH1 0x31 PUSH1 0x4 MSTORE PUSH1 0x24 PUSH0 REVERT JUMPDEST PUSH0 DUP3 MLOAD DUP1 PUSH1 0x20 DUP6 ADD DUP5 MCOPY PUSH0 SWAP3 ADD SWAP2 DUP3 MSTORE POP SWAP2 SWAP1 POP JUMP JUMPDEST PUSH1 0x1 PUSH1 0x1 PUSH1 0xA0 SHL SUB DUP4 AND DUP2 MSTORE PUSH1 0x40 PUSH1 0x20 DUP3 ADD DUP2 SWAP1 MSTORE PUSH0 SWAP1 PUSH2 0xE83 SWAP1 DUP4 ADD DUP5 PUSH2 0xC69 JUMP JUMPDEST SWAP5 SWAP4 POP POP POP POP JUMP JUMPDEST PUSH2 0x168 DUP1 PUSH2 0xE98 PUSH0 CODECOPY PUSH0 RETURN INVALID PUSH1 0x80 PUSH1 0x40 MSTORE PUSH1 0x4 CALLDATASIZE LT PUSH2 0x21 JUMPI PUSH0 CALLDATALOAD PUSH1 0xE0 SHR DUP1 PUSH4 0x41161089 EQ PUSH2 0xBB JUMPI PUSH2 0x28 JUMP JUMPDEST CALLDATASIZE PUSH2 0x28 JUMPI STOP JUMPDEST PUSH0 DUP1 CALLDATALOAD PUSH1 0x1 PUSH1 0x1 PUSH1 0xE0 SHL SUB NOT AND DUP2 MSTORE PUSH32 0xC8FCAD8DB84D3CC18B4C41D551EA0EE66DD599CDE068D998E57D5E09332C131C PUSH1 0x20 DUP2 SWAP1 MSTORE PUSH1 0x40 SWAP1 SWAP2 KECCAK256 SLOAD DUP2 SWAP1 PUSH1 0x1 PUSH1 0x1 PUSH1 0xA0 SHL SUB AND DUP1 PUSH2 0x9D JUMPI PUSH1 0x40 MLOAD PUSH4 0xA82DD73 PUSH1 0xE3 SHL DUP2 MSTORE PUSH1 0x1 PUSH1 0x1 PUSH1 0xE0 SHL SUB NOT PUSH0 CALLDATALOAD AND PUSH1 0x4 DUP3 ADD MSTORE PUSH1 0x24 ADD PUSH1 0x40 MLOAD DUP1 SWAP2 SUB SWAP1 REVERT JUMPDEST CALLDATASIZE PUSH0 DUP1 CALLDATACOPY PUSH0 DUP1 CALLDATASIZE PUSH0 DUP5 GAS DELEGATECALL RETURNDATASIZE PUSH0 DUP1 RETURNDATACOPY DUP1 DUP1 ISZERO PUSH2 0xB7 JUMPI RETURNDATASIZE PUSH0 RETURN JUMPDEST RETURNDATASIZE PUSH0 REVERT JUMPDEST CALLVALUE DUP1 ISZERO PUSH2 0xC6 JUMPI PUSH0 DUP1 REVERT JUMPDEST POP PUSH1 0x40 DUP1 MLOAD DUP1 DUP3 ADD DUP3 MSTORE PUSH1 0xB DUP2 MSTORE PUSH11 0x486976653A3A312E302E3 PUSH1 0xAC SHL PUSH1 0x20 DUP3 ADD MSTORE SWAP1 MLOAD PUSH2 0xF4 SWAP2 SWAP1 PUSH2 0xFD JUMP JUMPDEST PUSH1 0x40 MLOAD DUP1 SWAP2 SUB SWAP1 RETURN JUMPDEST PUSH1 0x20 DUP2 MSTORE PUSH0 DUP3 MLOAD DUP1 PUSH1 0x20 DUP5 ADD MSTORE DUP1 PUSH1 0x20 DUP6 ADD PUSH1 0x40 DUP6 ADD MCOPY PUSH0 PUSH1 0x40 DUP3 DUP6 ADD ADD MSTORE PUSH1 0x40 PUSH1 0x1F NOT PUSH1 0x1F DUP4 ADD AND DUP5 ADD ADD SWAP2 POP POP SWAP3 SWAP2 POP POP JUMP INVALID LOG2 PUSH5 0x6970667358 0x22 SLT KECCAK256 SSTORE 0xB9 0x1F JUMPI 0x2F 0xBC DUP15 JUMPDEST COINBASE 0x21 PUSH32 0xF8D29A0430965B3BF9E45B716222BF47EF0F3B54DB64736F6C634300081A0033 0xC8 0xFC 0xAD DUP14 0xB8 0x4D EXTCODECOPY 0xC1 DUP12 0x4C COINBASE 0xD5 MLOAD 0xEA 0xE 0xE6 PUSH14 0xD599CDE068D998E57D5E09332C13 SHR 0x4C PUSH10 0x624469616D6F6E644375 PUSH21 0x3A2041646420666163657420686173206E6F20636F PUSH5 0x654C696244 PUSH10 0x616D6F6E644375743A20 PUSH0 PUSH10 0x6E697420616464726573 PUSH20 0x20686173206E6F20636F6465C8FCAD8DB84D3CC1 DUP12 0x4C COINBASE 0xD5 MLOAD 0xEA 0xE 0xE6 PUSH14 0xD599CDE068D998E57D5E09332C13 SAR 0x4C PUSH10 0x624469616D6F6E644375 PUSH21 0x3A205265706C61636520666163657420686173206E PUSH16 0x20636F64650000000000000000000000 "
				},
				"gasEstimates": {
					"creation": {
						"codeDepositCost": "72000",
						"executionCost": "infinite",
						"totalCost": "infinite"
					},
					"external": {
						"": "infinite",
						"beacon_Hive()": "infinite"
					}
				},
				"methodIdentifiers": {
					"beacon_Hive()": "41161089"
				}
			},
			"storageLayout": {
				"storage": [
					{
						"astId": 284,
						"contract": "contracts/T2G_root.sol:Hive",
						"label": "s",
						"offset": 0,
						"slot": "0",
						"type": "t_struct(AppStorage)497_storage"
					}
				],
				"types": {
					"t_address": {
						"encoding": "inplace",
						"label": "address",
						"numberOfBytes": "20"
					},
					"t_struct(AppStorage)497_storage": {
						"encoding": "inplace",
						"label": "struct AppStorage",
						"members": [
							{
								"astId": 494,
								"contract": "contracts/T2G_root.sol:Hive",
								"label": "owner",
								"offset": 0,
								"slot": "0",
								"type": "t_address"
							},
							{
								"astId": 496,
								"contract": "contracts/T2G_root.sol:Hive",
								"label": "seed",
								"offset": 0,
								"slot": "1",
								"type": "t_uint256"
							}
						],
						"numberOfBytes": "64"
					},
					"t_uint256": {
						"encoding": "inplace",
						"label": "uint256",
						"numberOfBytes": "32"
					}
				}
			},
			"userdoc": {
				"kind": "user",
				"methods": {},
				"version": 1
			}
		}
	}
}