{
	"contracts/libraries/utils/LibDate.sol": {
		"LibDate": {
			"abi": [
				{
					"inputs": [],
					"name": "beacon_LibDate",
					"outputs": [
						{
							"internalType": "string",
							"name": "",
							"type": "string"
						}
					],
					"stateMutability": "pure",
					"type": "function"
				}
			],
			"devdoc": {
				"details": "Library for Date Management version 1.0.0",
				"kind": "dev",
				"methods": {},
				"title": "LibDate",
				"version": 1
			},
			"evm": {
				"assembly": "    /* \"contracts/libraries/utils/LibDate.sol\":331:6150  library LibDate {... */\n  dataSize(sub_0)\n  dataOffset(sub_0)\n  0x0b\n  dup3\n  dup3\n  dup3\n  codecopy\n  dup1\n  mload\n  0x00\n  byte\n  0x73\n  eq\n  tag_1\n  jumpi\n  mstore(0x00, shl(0xe0, 0x4e487b71))\n  mstore(0x04, 0x00)\n  revert(0x00, 0x24)\ntag_1:\n  mstore(0x00, address)\n  0x73\n  dup2\n  mstore8\n  dup3\n  dup2\n  return\nstop\n\nsub_0: assembly {\n        /* \"contracts/libraries/utils/LibDate.sol\":331:6150  library LibDate {... */\n      eq(address, deployTimeAddress())\n      mstore(0x40, 0x80)\n      jumpi(tag_1, lt(calldatasize, 0x04))\n      shr(0xe0, calldataload(0x00))\n      dup1\n      0x0b0d4180\n      eq\n      tag_2\n      jumpi\n    tag_1:\n      0x00\n      dup1\n      revert\n        /* \"contracts/libraries/utils/LibDate.sol\":623:713  function beacon_LibDate() public pure returns (string memory) { return \"LibDate::1.0.0\"; } */\n    tag_2:\n        /* \"contracts/libraries/utils/LibDate.sol\":687:710  return \"LibDate::1.0.0\" */\n      0x40\n      dup1\n      mload\n      dup1\n      dup3\n      add\n      dup3\n      mstore\n      0x0e\n      dup2\n      mstore\n      shl(0x94, 0x04c6962446174653a3a312e302e3)\n      0x20\n      dup3\n      add\n      mstore\n        /* \"contracts/libraries/utils/LibDate.sol\":623:713  function beacon_LibDate() public pure returns (string memory) { return \"LibDate::1.0.0\"; } */\n      swap1\n      mload\n      tag_5\n      swap2\n        /* \"contracts/libraries/utils/LibDate.sol\":687:710  return \"LibDate::1.0.0\" */\n      swap1\n        /* \"contracts/libraries/utils/LibDate.sol\":623:713  function beacon_LibDate() public pure returns (string memory) { return \"LibDate::1.0.0\"; } */\n      tag_6\n      jump\t// in\n    tag_5:\n      mload(0x40)\n      dup1\n      swap2\n      sub\n      swap1\n      return\n        /* \"#utility.yul\":14:440   */\n    tag_6:\n        /* \"#utility.yul\":171:173   */\n      0x20\n        /* \"#utility.yul\":160:169   */\n      dup2\n        /* \"#utility.yul\":153:174   */\n      mstore\n        /* \"#utility.yul\":134:138   */\n      0x00\n        /* \"#utility.yul\":203:209   */\n      dup3\n        /* \"#utility.yul\":197:210   */\n      mload\n        /* \"#utility.yul\":246:252   */\n      dup1\n        /* \"#utility.yul\":241:243   */\n      0x20\n        /* \"#utility.yul\":230:239   */\n      dup5\n        /* \"#utility.yul\":226:244   */\n      add\n        /* \"#utility.yul\":219:253   */\n      mstore\n        /* \"#utility.yul\":305:311   */\n      dup1\n        /* \"#utility.yul\":300:302   */\n      0x20\n        /* \"#utility.yul\":292:298   */\n      dup6\n        /* \"#utility.yul\":288:303   */\n      add\n        /* \"#utility.yul\":283:285   */\n      0x40\n        /* \"#utility.yul\":272:281   */\n      dup6\n        /* \"#utility.yul\":268:286   */\n      add\n        /* \"#utility.yul\":262:312   */\n      mcopy\n        /* \"#utility.yul\":361:362   */\n      0x00\n        /* \"#utility.yul\":356:358   */\n      0x40\n        /* \"#utility.yul\":347:353   */\n      dup3\n        /* \"#utility.yul\":336:345   */\n      dup6\n        /* \"#utility.yul\":332:354   */\n      add\n        /* \"#utility.yul\":328:359   */\n      add\n        /* \"#utility.yul\":321:363   */\n      mstore\n        /* \"#utility.yul\":431:433   */\n      0x40\n        /* \"#utility.yul\":424:426   */\n      0x1f\n        /* \"#utility.yul\":420:427   */\n      not\n        /* \"#utility.yul\":415:417   */\n      0x1f\n        /* \"#utility.yul\":407:413   */\n      dup4\n        /* \"#utility.yul\":403:418   */\n      add\n        /* \"#utility.yul\":399:428   */\n      and\n        /* \"#utility.yul\":388:397   */\n      dup5\n        /* \"#utility.yul\":384:429   */\n      add\n        /* \"#utility.yul\":380:434   */\n      add\n        /* \"#utility.yul\":372:434   */\n      swap2\n      pop\n      pop\n        /* \"#utility.yul\":14:440   */\n      swap3\n      swap2\n      pop\n      pop\n      jump\t// out\n\n    auxdata: 0xa26469706673582212203b378ca9cf87ca223abab66429e3cbd01f5fa0677665d3c6ef87baf9acfbb48664736f6c634300081a0033\n}\n",
				"bytecode": {
					"linkReferences": {},
					"object": "60d8610033600b8282823980515f1a607314602757634e487b7160e01b5f525f60045260245ffd5b305f52607381538281f3fe73000000000000000000000000000000000000000030146080604052600436106032575f3560e01c80630b0d4180146036575b5f80fd5b604080518082018252600e81526d04c6962446174653a3a312e302e360941b6020820152905160649190606d565b60405180910390f35b602081525f82518060208401528060208501604085015e5f604082850101526040601f19601f8301168401019150509291505056fea26469706673582212203b378ca9cf87ca223abab66429e3cbd01f5fa0677665d3c6ef87baf9acfbb48664736f6c634300081a0033",
					"opcodes": "PUSH1 0xD8 PUSH2 0x33 PUSH1 0xB DUP3 DUP3 DUP3 CODECOPY DUP1 MLOAD PUSH0 BYTE PUSH1 0x73 EQ PUSH1 0x27 JUMPI PUSH4 0x4E487B71 PUSH1 0xE0 SHL PUSH0 MSTORE PUSH0 PUSH1 0x4 MSTORE PUSH1 0x24 PUSH0 REVERT JUMPDEST ADDRESS PUSH0 MSTORE PUSH1 0x73 DUP2 MSTORE8 DUP3 DUP2 RETURN INVALID PUSH20 0x0 ADDRESS EQ PUSH1 0x80 PUSH1 0x40 MSTORE PUSH1 0x4 CALLDATASIZE LT PUSH1 0x32 JUMPI PUSH0 CALLDATALOAD PUSH1 0xE0 SHR DUP1 PUSH4 0xB0D4180 EQ PUSH1 0x36 JUMPI JUMPDEST PUSH0 DUP1 REVERT JUMPDEST PUSH1 0x40 DUP1 MLOAD DUP1 DUP3 ADD DUP3 MSTORE PUSH1 0xE DUP2 MSTORE PUSH14 0x4C6962446174653A3A312E302E3 PUSH1 0x94 SHL PUSH1 0x20 DUP3 ADD MSTORE SWAP1 MLOAD PUSH1 0x64 SWAP2 SWAP1 PUSH1 0x6D JUMP JUMPDEST PUSH1 0x40 MLOAD DUP1 SWAP2 SUB SWAP1 RETURN JUMPDEST PUSH1 0x20 DUP2 MSTORE PUSH0 DUP3 MLOAD DUP1 PUSH1 0x20 DUP5 ADD MSTORE DUP1 PUSH1 0x20 DUP6 ADD PUSH1 0x40 DUP6 ADD MCOPY PUSH0 PUSH1 0x40 DUP3 DUP6 ADD ADD MSTORE PUSH1 0x40 PUSH1 0x1F NOT PUSH1 0x1F DUP4 ADD AND DUP5 ADD ADD SWAP2 POP POP SWAP3 SWAP2 POP POP JUMP INVALID LOG2 PUSH5 0x6970667358 0x22 SLT KECCAK256 EXTCODESIZE CALLDATACOPY DUP13 0xA9 0xCF DUP8 0xCA 0x22 GASPRICE 0xBA 0xB6 PUSH5 0x29E3CBD01F PUSH0 LOG0 PUSH8 0x7665D3C6EF87BAF9 0xAC 0xFB 0xB4 DUP7 PUSH5 0x736F6C6343 STOP ADDMOD BYTE STOP CALLER "
				},
				"gasEstimates": {
					"creation": {
						"codeDepositCost": "43200",
						"executionCost": "123",
						"totalCost": "43323"
					},
					"external": {
						"beacon_LibDate()": "infinite"
					},
					"internal": {
						"appendUintToString(string memory,uint256)": "infinite",
						"getDaysInMonth(uint8,uint16)": "infinite",
						"getHour(uint256)": "infinite",
						"getMinute(uint256)": "infinite",
						"getSecond(uint256)": "infinite",
						"getWeekday(uint256)": "infinite",
						"getYear(uint256)": "infinite",
						"isLeapYear(uint16)": "infinite",
						"leapYearsBefore(uint256)": "infinite",
						"parseTimestamp(struct TimeStamp storage pointer)": "infinite",
						"toTimestamp(struct TimeStamp storage pointer)": "infinite",
						"uintToString(uint256)": "infinite"
					}
				},
				"methodIdentifiers": {
					"beacon_LibDate()": "0b0d4180"
				}
			},
			"storageLayout": {
				"storage": [],
				"types": null
			},
			"userdoc": {
				"kind": "user",
				"methods": {},
				"version": 1
			}
		}
	}
}