{
	"contracts/T2G_root.sol": {
		"T2G_root": {
			"abi": [
				{
					"inputs": [
						{
							"internalType": "address",
							"name": "_contractOwner",
							"type": "address"
						},
						{
							"internalType": "address",
							"name": "_diamondCutFacet",
							"type": "address"
						}
					],
					"stateMutability": "payable",
					"type": "constructor"
				},
				{
					"inputs": [
						{
							"internalType": "address",
							"name": "_initializationContractAddress",
							"type": "address"
						},
						{
							"internalType": "bytes",
							"name": "_calldata",
							"type": "bytes"
						}
					],
					"name": "InitializationFunctionReverted",
					"type": "error"
				},
				{
					"anonymous": false,
					"inputs": [
						{
							"components": [
								{
									"internalType": "address",
									"name": "facetAddress",
									"type": "address"
								},
								{
									"internalType": "enum IDiamondCut.FacetCutAction",
									"name": "action",
									"type": "uint8"
								},
								{
									"internalType": "bytes4[]",
									"name": "functionSelectors",
									"type": "bytes4[]"
								}
							],
							"indexed": false,
							"internalType": "struct IDiamondCut.FacetCut[]",
							"name": "_diamondCut",
							"type": "tuple[]"
						},
						{
							"indexed": false,
							"internalType": "address",
							"name": "_init",
							"type": "address"
						},
						{
							"indexed": false,
							"internalType": "bytes",
							"name": "_calldata",
							"type": "bytes"
						}
					],
					"name": "DiamondCut",
					"type": "event"
				},
				{
					"anonymous": false,
					"inputs": [
						{
							"indexed": true,
							"internalType": "address",
							"name": "previousOwner",
							"type": "address"
						},
						{
							"indexed": true,
							"internalType": "address",
							"name": "newOwner",
							"type": "address"
						}
					],
					"name": "OwnershipTransferred",
					"type": "event"
				},
				{
					"stateMutability": "payable",
					"type": "fallback"
				},
				{
					"inputs": [],
					"name": "beacon_T2G_Root",
					"outputs": [
						{
							"internalType": "string",
							"name": "",
							"type": "string"
						}
					],
					"stateMutability": "pure",
					"type": "function"
				},
				{
					"stateMutability": "payable",
					"type": "receive"
				}
			],
			"devdoc": {
				"kind": "dev",
				"methods": {},
				"version": 1
			},
			"evm": {
				"assembly": "    /* \"contracts/T2G_root.sol\":1328:2563  contract T2G_root is Diamond {... */\n  mstore(0x40, 0x80)\n    /* \"contracts/T2G_root.sol\":1599:2560  constructor(address _contractOwner, address _diamondCutFacet) Diamond(_contractOwner, _diamondCutFacet) payable {... */\n  mload(0x40)\n  sub(codesize, bytecodeSize)\n  dup1\n  bytecodeSize\n  dup4\n  codecopy\n  dup2\n  add\n  0x40\n  dup2\n  swap1\n  mstore\n  tag_1\n  swap2\n  tag_2\n  jump\t// in\ntag_1:\n    /* \"contracts/T2G_root.sol\":1669:1683  _contractOwner */\n  dup2\n    /* \"contracts/T2G_root.sol\":1685:1701  _diamondCutFacet */\n  dup2\n    /* \"contracts/Diamond.sol\":600:643  LibDiamond.setContractOwner(_contractOwner) */\n  tag_6\n    /* \"contracts/T2G_root.sol\":1669:1683  _contractOwner */\n  dup3\n    /* \"contracts/Diamond.sol\":600:627  LibDiamond.setContractOwner */\n  tag_7\n    /* \"contracts/Diamond.sol\":600:643  LibDiamond.setContractOwner(_contractOwner) */\n  jump\t// in\ntag_6:\n    /* \"contracts/Diamond.sol\":766:795  new IDiamondCut.FacetCut[](1) */\n  0x40\n  dup1\n  mload\n    /* \"contracts/Diamond.sol\":793:794  1 */\n  0x01\n    /* \"contracts/Diamond.sol\":766:795  new IDiamondCut.FacetCut[](1) */\n  dup1\n  dup3\n  mstore\n  dup2\n  dup4\n  add\n  swap1\n  swap3\n  mstore\n    /* \"contracts/Diamond.sol\":730:763  IDiamondCut.FacetCut[] memory cut */\n  0x00\n  swap2\n    /* \"contracts/Diamond.sol\":766:795  new IDiamondCut.FacetCut[](1) */\n  dup2\n  0x20\n  add\ntag_12:\n    /* \"contracts/T2G_root.sol\":1328:2563  contract T2G_root is Diamond {... */\n  0x40\n  dup1\n  mload\n  0x60\n  dup1\n  dup3\n  add\n  dup4\n  mstore\n  0x00\n  dup1\n  dup4\n  mstore\n  0x20\n  dup4\n  add\n  mstore\n  swap2\n  dup2\n  add\n  swap2\n  swap1\n  swap2\n  mstore\n    /* \"contracts/Diamond.sol\":766:795  new IDiamondCut.FacetCut[](1) */\n  dup2\n  mstore\n  0x20\n  add\n  swap1\n  0x01\n  swap1\n  sub\n  swap1\n  dup2\n  tag_12\n  jumpi\n  pop\n  pop\n    /* \"contracts/Diamond.sol\":842:857  new bytes4[](1) */\n  0x40\n  dup1\n  mload\n    /* \"contracts/Diamond.sol\":855:856  1 */\n  0x01\n    /* \"contracts/Diamond.sol\":842:857  new bytes4[](1) */\n  dup1\n  dup3\n  mstore\n  dup2\n  dup4\n  add\n  swap1\n  swap3\n  mstore\n    /* \"contracts/Diamond.sol\":730:795  IDiamondCut.FacetCut[] memory cut = new IDiamondCut.FacetCut[](1) */\n  swap2\n  swap3\n  pop\n    /* \"contracts/Diamond.sol\":806:839  bytes4[] memory functionSelectors */\n  0x00\n  swap2\n    /* \"contracts/Diamond.sol\":842:857  new bytes4[](1) */\n  swap1\n  0x20\n  dup1\n  dup4\n  add\n  swap1\n  dup1\n  calldatasize\n  dup4\n  calldatacopy\n  add\n  swap1\n  pop\n  pop\n    /* \"contracts/Diamond.sol\":806:857  bytes4[] memory functionSelectors = new bytes4[](1) */\n  swap1\n  pop\n    /* \"contracts/Diamond.sol\":891:922  IDiamondCut.diamondCut.selector */\n  shl(0xe0, 0x1f931c1c)\n    /* \"contracts/Diamond.sol\":868:885  functionSelectors */\n  dup2\n    /* \"contracts/Diamond.sol\":886:887  0 */\n  0x00\n    /* \"contracts/Diamond.sol\":868:888  functionSelectors[0] */\n  dup2\n  mload\n  dup2\n  lt\n  tag_19\n  jumpi\n  tag_19\n  tag_20\n  jump\t// in\ntag_19:\n  not(sub(shl(0xe0, 0x01), 0x01))\n    /* \"contracts/Diamond.sol\":868:922  functionSelectors[0] = IDiamondCut.diamondCut.selector */\n  swap1\n  swap3\n  and\n    /* \"contracts/Diamond.sol\":868:888  functionSelectors[0] */\n  0x20\n  swap3\n  dup4\n  mul\n  swap2\n  swap1\n  swap2\n  add\n  dup3\n  add\n    /* \"contracts/Diamond.sol\":868:922  functionSelectors[0] = IDiamondCut.diamondCut.selector */\n  mstore\n    /* \"contracts/Diamond.sol\":942:1126  IDiamondCut.FacetCut({... */\n  0x40\n  dup1\n  mload\n  0x60\n  dup2\n  add\n  swap1\n  swap2\n  mstore\n  sub(shl(0xa0, 0x01), 0x01)\n  dup6\n  and\n  dup2\n  mstore\n  swap1\n  dup2\n  add\n  0x00\n  dup2\n  mstore\n  0x20\n  add\n    /* \"contracts/Diamond.sol\":1097:1114  functionSelectors */\n  dup3\n    /* \"contracts/Diamond.sol\":942:1126  IDiamondCut.FacetCut({... */\n  dup2\n  mstore\n  pop\n    /* \"contracts/Diamond.sol\":933:936  cut */\n  dup3\n    /* \"contracts/Diamond.sol\":937:938  0 */\n  0x00\n    /* \"contracts/Diamond.sol\":933:939  cut[0] */\n  dup2\n  mload\n  dup2\n  lt\n  tag_25\n  jumpi\n  tag_25\n  tag_20\n  jump\t// in\ntag_25:\n  0x20\n  mul\n  0x20\n  add\n  add\n    /* \"contracts/Diamond.sol\":933:1126  cut[0] = IDiamondCut.FacetCut({... */\n  dup2\n  swap1\n  mstore\n  pop\n    /* \"contracts/Diamond.sol\":1137:1179  LibDiamond.diamondCut(cut, address(0), \"\") */\n  tag_26\n    /* \"contracts/Diamond.sol\":1159:1162  cut */\n  dup3\n    /* \"contracts/Diamond.sol\":1172:1173  0 */\n  0x00\n    /* \"contracts/Diamond.sol\":1137:1179  LibDiamond.diamondCut(cut, address(0), \"\") */\n  mload(0x40)\n  dup1\n  0x20\n  add\n  0x40\n  mstore\n  dup1\n  0x00\n  dup2\n  mstore\n  pop\n    /* \"contracts/Diamond.sol\":1137:1158  LibDiamond.diamondCut */\n  shl(0x20, tag_27)\n    /* \"contracts/Diamond.sol\":1137:1179  LibDiamond.diamondCut(cut, address(0), \"\") */\n  0x20\n  shr\n  jump\t// in\ntag_26:\n    /* \"contracts/Diamond.sol\":581:1195  {        ... */\n  pop\n  pop\n    /* \"contracts/Diamond.sol\":511:1195  constructor(address _contractOwner, address _diamondCutFacet) payable {        ... */\n  pop\n  pop\n    /* \"contracts/T2G_root.sol\":1599:2560  constructor(address _contractOwner, address _diamondCutFacet) Diamond(_contractOwner, _diamondCutFacet) payable {... */\n  pop\n  pop\n    /* \"contracts/T2G_root.sol\":1328:2563  contract T2G_root is Diamond {... */\n  jump(tag_199)\n    /* \"contracts/libraries/LibDiamond.sol\":2146:2415  function setContractOwner(address _newOwner) internal {... */\ntag_7:\n    /* \"contracts/libraries/LibDiamond.sol\":2290:2306  ds.contractOwner */\n  0xc8fcad8db84d3cc18b4c41d551ea0ee66dd599cde068d998e57d5e09332c1320\n  dup1\n  sload\n  not(sub(shl(0xa0, 0x01), 0x01))\n    /* \"contracts/libraries/LibDiamond.sol\":2317:2345  ds.contractOwner = _newOwner */\n  dup2\n  and\n  sub(shl(0xa0, 0x01), 0x01)\n  dup5\n  dup2\n  and\n  swap2\n  dup3\n  or\n  swap1\n  swap4\n  sstore\n    /* \"contracts/libraries/LibDiamond.sol\":2361:2407  OwnershipTransferred(previousOwner, _newOwner) */\n  mload(0x40)\n  mload(0x00)\n  codecopy(0x00, data_1ac25121ac50ee96730ac9ae618ddfea240cf59a9860f34e3db50d8def79c035, 0x20)\n  mload(0x00)\n  swap1\n  0x00\n  mstore\n    /* \"contracts/libraries/LibDiamond.sol\":751:796  keccak256(\"diamond.standard.diamond.storage\") */\n  swap4\n    /* \"contracts/libraries/LibDiamond.sol\":2290:2306  ds.contractOwner */\n  swap1\n  swap3\n  and\n  swap2\n  dup3\n  swap1\n    /* \"contracts/libraries/LibDiamond.sol\":2361:2407  OwnershipTransferred(previousOwner, _newOwner) */\n  0x8be0079c531659141344cd1fd0a4f28419497f9722a3daafe3b4186f6b6457e0\n  swap1\n    /* \"contracts/libraries/LibDiamond.sol\":2211:2236  DiamondStorage storage ds */\n  0x00\n  swap1\n    /* \"contracts/libraries/LibDiamond.sol\":2361:2407  OwnershipTransferred(previousOwner, _newOwner) */\n  log3\n    /* \"contracts/libraries/LibDiamond.sol\":2200:2415  {... */\n  pop\n  pop\n    /* \"contracts/libraries/LibDiamond.sol\":2146:2415  function setContractOwner(address _newOwner) internal {... */\n  pop\n  jump\t// out\n    /* \"contracts/libraries/LibDiamond.sol\":2876:3962  function diamondCut(... */\ntag_27:\n    /* \"contracts/libraries/LibDiamond.sol\":3037:3055  uint256 facetIndex */\n  0x00\n    /* \"contracts/libraries/LibDiamond.sol\":3032:3849  for (uint256 facetIndex; facetIndex < _diamondCut.length; facetIndex++) {... */\ntag_34:\n    /* \"contracts/libraries/LibDiamond.sol\":3070:3081  _diamondCut */\n  dup4\n    /* \"contracts/libraries/LibDiamond.sol\":3070:3088  _diamondCut.length */\n  mload\n    /* \"contracts/libraries/LibDiamond.sol\":3057:3067  facetIndex */\n  dup2\n    /* \"contracts/libraries/LibDiamond.sol\":3057:3088  facetIndex < _diamondCut.length */\n  lt\n    /* \"contracts/libraries/LibDiamond.sol\":3032:3849  for (uint256 facetIndex; facetIndex < _diamondCut.length; facetIndex++) {... */\n  iszero\n  tag_35\n  jumpi\n    /* \"contracts/libraries/LibDiamond.sol\":3119:3152  IDiamondCut.FacetCutAction action */\n  0x00\n    /* \"contracts/libraries/LibDiamond.sol\":3155:3166  _diamondCut */\n  dup5\n    /* \"contracts/libraries/LibDiamond.sol\":3167:3177  facetIndex */\n  dup3\n    /* \"contracts/libraries/LibDiamond.sol\":3155:3178  _diamondCut[facetIndex] */\n  dup2\n  mload\n  dup2\n  lt\n  tag_38\n  jumpi\n  tag_38\n  tag_20\n  jump\t// in\ntag_38:\n  0x20\n  mul\n  0x20\n  add\n  add\n  mload\n    /* \"contracts/libraries/LibDiamond.sol\":3155:3185  _diamondCut[facetIndex].action */\n  0x20\n  add\n  mload\n    /* \"contracts/libraries/LibDiamond.sol\":3119:3185  IDiamondCut.FacetCutAction action = _diamondCut[facetIndex].action */\n  swap1\n  pop\n    /* \"contracts/libraries/LibDiamond.sol\":3214:3244  IDiamondCut.FacetCutAction.Add */\n  0x00\n    /* \"contracts/libraries/LibDiamond.sol\":3204:3244  action == IDiamondCut.FacetCutAction.Add */\n  0x02\n  dup2\n  gt\n  iszero\n  tag_40\n  jumpi\n  tag_40\n  tag_23\n  jump\t// in\ntag_40:\n    /* \"contracts/libraries/LibDiamond.sol\":3204:3210  action */\n  dup2\n    /* \"contracts/libraries/LibDiamond.sol\":3204:3244  action == IDiamondCut.FacetCutAction.Add */\n  0x02\n  dup2\n  gt\n  iszero\n  tag_42\n  jumpi\n  tag_42\n  tag_23\n  jump\t// in\ntag_42:\n  sub\n    /* \"contracts/libraries/LibDiamond.sol\":3200:3838  if (action == IDiamondCut.FacetCutAction.Add) {... */\n  tag_43\n  jumpi\n    /* \"contracts/libraries/LibDiamond.sol\":3265:3358  addFunctions(_diamondCut[facetIndex].facetAddress, _diamondCut[facetIndex].functionSelectors) */\n  tag_44\n    /* \"contracts/libraries/LibDiamond.sol\":3278:3289  _diamondCut */\n  dup6\n    /* \"contracts/libraries/LibDiamond.sol\":3290:3300  facetIndex */\n  dup4\n    /* \"contracts/libraries/LibDiamond.sol\":3278:3301  _diamondCut[facetIndex] */\n  dup2\n  mload\n  dup2\n  lt\n  tag_46\n  jumpi\n  tag_46\n  tag_20\n  jump\t// in\ntag_46:\n  0x20\n  mul\n  0x20\n  add\n  add\n  mload\n    /* \"contracts/libraries/LibDiamond.sol\":3278:3314  _diamondCut[facetIndex].facetAddress */\n  0x00\n  add\n  mload\n    /* \"contracts/libraries/LibDiamond.sol\":3316:3327  _diamondCut */\n  dup7\n    /* \"contracts/libraries/LibDiamond.sol\":3328:3338  facetIndex */\n  dup5\n    /* \"contracts/libraries/LibDiamond.sol\":3316:3339  _diamondCut[facetIndex] */\n  dup2\n  mload\n  dup2\n  lt\n  tag_48\n  jumpi\n  tag_48\n  tag_20\n  jump\t// in\ntag_48:\n  0x20\n  mul\n  0x20\n  add\n  add\n  mload\n    /* \"contracts/libraries/LibDiamond.sol\":3316:3357  _diamondCut[facetIndex].functionSelectors */\n  0x40\n  add\n  mload\n    /* \"contracts/libraries/LibDiamond.sol\":3265:3277  addFunctions */\n  shl(0x20, tag_49)\n    /* \"contracts/libraries/LibDiamond.sol\":3265:3358  addFunctions(_diamondCut[facetIndex].facetAddress, _diamondCut[facetIndex].functionSelectors) */\n  0x20\n  shr\n  jump\t// in\ntag_44:\n    /* \"contracts/libraries/LibDiamond.sol\":3200:3838  if (action == IDiamondCut.FacetCutAction.Add) {... */\n  jump(tag_74)\ntag_43:\n    /* \"contracts/libraries/LibDiamond.sol\":3394:3428  IDiamondCut.FacetCutAction.Replace */\n  0x01\n    /* \"contracts/libraries/LibDiamond.sol\":3384:3390  action */\n  dup2\n    /* \"contracts/libraries/LibDiamond.sol\":3384:3428  action == IDiamondCut.FacetCutAction.Replace */\n  0x02\n  dup2\n  gt\n  iszero\n  tag_54\n  jumpi\n  tag_54\n  tag_23\n  jump\t// in\ntag_54:\n  sub\n    /* \"contracts/libraries/LibDiamond.sol\":3380:3838  if (action == IDiamondCut.FacetCutAction.Replace) {... */\n  tag_55\n  jumpi\n    /* \"contracts/libraries/LibDiamond.sol\":3449:3546  replaceFunctions(_diamondCut[facetIndex].facetAddress, _diamondCut[facetIndex].functionSelectors) */\n  tag_44\n    /* \"contracts/libraries/LibDiamond.sol\":3466:3477  _diamondCut */\n  dup6\n    /* \"contracts/libraries/LibDiamond.sol\":3478:3488  facetIndex */\n  dup4\n    /* \"contracts/libraries/LibDiamond.sol\":3466:3489  _diamondCut[facetIndex] */\n  dup2\n  mload\n  dup2\n  lt\n  tag_58\n  jumpi\n  tag_58\n  tag_20\n  jump\t// in\ntag_58:\n  0x20\n  mul\n  0x20\n  add\n  add\n  mload\n    /* \"contracts/libraries/LibDiamond.sol\":3466:3502  _diamondCut[facetIndex].facetAddress */\n  0x00\n  add\n  mload\n    /* \"contracts/libraries/LibDiamond.sol\":3504:3515  _diamondCut */\n  dup7\n    /* \"contracts/libraries/LibDiamond.sol\":3516:3526  facetIndex */\n  dup5\n    /* \"contracts/libraries/LibDiamond.sol\":3504:3527  _diamondCut[facetIndex] */\n  dup2\n  mload\n  dup2\n  lt\n  tag_60\n  jumpi\n  tag_60\n  tag_20\n  jump\t// in\ntag_60:\n  0x20\n  mul\n  0x20\n  add\n  add\n  mload\n    /* \"contracts/libraries/LibDiamond.sol\":3504:3545  _diamondCut[facetIndex].functionSelectors */\n  0x40\n  add\n  mload\n    /* \"contracts/libraries/LibDiamond.sol\":3449:3465  replaceFunctions */\n  shl(0x20, tag_61)\n    /* \"contracts/libraries/LibDiamond.sol\":3449:3546  replaceFunctions(_diamondCut[facetIndex].facetAddress, _diamondCut[facetIndex].functionSelectors) */\n  0x20\n  shr\n  jump\t// in\n    /* \"contracts/libraries/LibDiamond.sol\":3380:3838  if (action == IDiamondCut.FacetCutAction.Replace) {... */\ntag_55:\n    /* \"contracts/libraries/LibDiamond.sol\":3582:3615  IDiamondCut.FacetCutAction.Remove */\n  0x02\n    /* \"contracts/libraries/LibDiamond.sol\":3572:3578  action */\n  dup2\n    /* \"contracts/libraries/LibDiamond.sol\":3572:3615  action == IDiamondCut.FacetCutAction.Remove */\n  0x02\n  dup2\n  gt\n  iszero\n  tag_66\n  jumpi\n  tag_66\n  tag_23\n  jump\t// in\ntag_66:\n  sub\n    /* \"contracts/libraries/LibDiamond.sol\":3568:3838  if (action == IDiamondCut.FacetCutAction.Remove) {... */\n  tag_67\n  jumpi\n    /* \"contracts/libraries/LibDiamond.sol\":3636:3732  removeFunctions(_diamondCut[facetIndex].facetAddress, _diamondCut[facetIndex].functionSelectors) */\n  tag_44\n    /* \"contracts/libraries/LibDiamond.sol\":3652:3663  _diamondCut */\n  dup6\n    /* \"contracts/libraries/LibDiamond.sol\":3664:3674  facetIndex */\n  dup4\n    /* \"contracts/libraries/LibDiamond.sol\":3652:3675  _diamondCut[facetIndex] */\n  dup2\n  mload\n  dup2\n  lt\n  tag_70\n  jumpi\n  tag_70\n  tag_20\n  jump\t// in\ntag_70:\n  0x20\n  mul\n  0x20\n  add\n  add\n  mload\n    /* \"contracts/libraries/LibDiamond.sol\":3652:3688  _diamondCut[facetIndex].facetAddress */\n  0x00\n  add\n  mload\n    /* \"contracts/libraries/LibDiamond.sol\":3690:3701  _diamondCut */\n  dup7\n    /* \"contracts/libraries/LibDiamond.sol\":3702:3712  facetIndex */\n  dup5\n    /* \"contracts/libraries/LibDiamond.sol\":3690:3713  _diamondCut[facetIndex] */\n  dup2\n  mload\n  dup2\n  lt\n  tag_72\n  jumpi\n  tag_72\n  tag_20\n  jump\t// in\ntag_72:\n  0x20\n  mul\n  0x20\n  add\n  add\n  mload\n    /* \"contracts/libraries/LibDiamond.sol\":3690:3731  _diamondCut[facetIndex].functionSelectors */\n  0x40\n  add\n  mload\n    /* \"contracts/libraries/LibDiamond.sol\":3636:3651  removeFunctions */\n  shl(0x20, tag_73)\n    /* \"contracts/libraries/LibDiamond.sol\":3636:3732  removeFunctions(_diamondCut[facetIndex].facetAddress, _diamondCut[facetIndex].functionSelectors) */\n  0x20\n  shr\n  jump\t// in\n    /* \"contracts/libraries/LibDiamond.sol\":3568:3838  if (action == IDiamondCut.FacetCutAction.Remove) {... */\ntag_67:\n    /* \"contracts/libraries/LibDiamond.sol\":3773:3822  revert(\"LibDiamondCut: Incorrect FacetCutAction\") */\n  mload(0x40)\n  shl(0xe5, 0x461bcd)\n  dup2\n  mstore\n    /* \"#utility.yul\":1092:1094   */\n  0x20\n    /* \"contracts/libraries/LibDiamond.sol\":3773:3822  revert(\"LibDiamondCut: Incorrect FacetCutAction\") */\n  0x04\n  dup3\n  add\n    /* \"#utility.yul\":1074:1095   */\n  mstore\n    /* \"#utility.yul\":1131:1133   */\n  0x27\n    /* \"#utility.yul\":1111:1129   */\n  0x24\n  dup3\n  add\n    /* \"#utility.yul\":1104:1134   */\n  mstore\n    /* \"#utility.yul\":1170:1204   */\n  0x4c69624469616d6f6e644375743a20496e636f72726563742046616365744375\n    /* \"#utility.yul\":1150:1168   */\n  0x44\n  dup3\n  add\n    /* \"#utility.yul\":1143:1205   */\n  mstore\n  shl(0xc9, 0x3a20b1ba34b7b7)\n    /* \"#utility.yul\":1221:1239   */\n  0x64\n  dup3\n  add\n    /* \"#utility.yul\":1214:1251   */\n  mstore\n    /* \"#utility.yul\":1268:1287   */\n  0x84\n  add\n    /* \"contracts/libraries/LibDiamond.sol\":3773:3822  revert(\"LibDiamondCut: Incorrect FacetCutAction\") */\ntag_75:\n  mload(0x40)\n  dup1\n  swap2\n  sub\n  swap1\n  revert\n    /* \"contracts/libraries/LibDiamond.sol\":3568:3838  if (action == IDiamondCut.FacetCutAction.Remove) {... */\ntag_74:\n  pop\n    /* \"contracts/libraries/LibDiamond.sol\":3090:3102  facetIndex++ */\n  0x01\n  add\n    /* \"contracts/libraries/LibDiamond.sol\":3032:3849  for (uint256 facetIndex; facetIndex < _diamondCut.length; facetIndex++) {... */\n  jump(tag_34)\ntag_35:\n  pop\n    /* \"contracts/libraries/LibDiamond.sol\":3864:3905  DiamondCut(_diamondCut, _init, _calldata) */\n  0x8faa70878671ccd212d20771b795c50af8fd3ff6cf27f4bde57e5d4de0aeb673\n    /* \"contracts/libraries/LibDiamond.sol\":3875:3886  _diamondCut */\n  dup4\n    /* \"contracts/libraries/LibDiamond.sol\":3888:3893  _init */\n  dup4\n    /* \"contracts/libraries/LibDiamond.sol\":3895:3904  _calldata */\n  dup4\n    /* \"contracts/libraries/LibDiamond.sol\":3864:3905  DiamondCut(_diamondCut, _init, _calldata) */\n  mload(0x40)\n  tag_77\n  swap4\n  swap3\n  swap2\n  swap1\n  tag_78\n  jump\t// in\ntag_77:\n  mload(0x40)\n  dup1\n  swap2\n  sub\n  swap1\n  log1\n    /* \"contracts/libraries/LibDiamond.sol\":3916:3954  initializeDiamondCut(_init, _calldata) */\n  tag_79\n    /* \"contracts/libraries/LibDiamond.sol\":3937:3942  _init */\n  dup3\n    /* \"contracts/libraries/LibDiamond.sol\":3944:3953  _calldata */\n  dup3\n    /* \"contracts/libraries/LibDiamond.sol\":3916:3936  initializeDiamondCut */\n  tag_80\n    /* \"contracts/libraries/LibDiamond.sol\":3916:3954  initializeDiamondCut(_init, _calldata) */\n  jump\t// in\ntag_79:\n    /* \"contracts/libraries/LibDiamond.sol\":2876:3962  function diamondCut(... */\n  pop\n  pop\n  pop\n  jump\t// out\n    /* \"contracts/libraries/LibDiamond.sol\":3970:5075  function addFunctions(address _facetAddress, bytes4[] memory _functionSelectors) internal {... */\ntag_49:\n    /* \"contracts/libraries/LibDiamond.sol\":4107:4108  0 */\n  0x00\n    /* \"contracts/libraries/LibDiamond.sol\":4079:4097  _functionSelectors */\n  dup2\n    /* \"contracts/libraries/LibDiamond.sol\":4079:4104  _functionSelectors.length */\n  mload\n    /* \"contracts/libraries/LibDiamond.sol\":4079:4108  _functionSelectors.length > 0 */\n  gt\n    /* \"contracts/libraries/LibDiamond.sol\":4071:4156  require(_functionSelectors.length > 0, \"LibDiamondCut: No selectors in facet to cut\") */\n  tag_83\n  jumpi\n  mload(0x40)\n  shl(0xe5, 0x461bcd)\n  dup2\n  mstore\n    /* \"#utility.yul\":3927:3929   */\n  0x20\n    /* \"contracts/libraries/LibDiamond.sol\":4071:4156  require(_functionSelectors.length > 0, \"LibDiamondCut: No selectors in facet to cut\") */\n  0x04\n  dup3\n  add\n    /* \"#utility.yul\":3909:3930   */\n  mstore\n    /* \"#utility.yul\":3966:3968   */\n  0x2b\n    /* \"#utility.yul\":3946:3964   */\n  0x24\n  dup3\n  add\n    /* \"#utility.yul\":3939:3969   */\n  mstore\n  mload(0x00)\n  codecopy(0x00, data_ef6ab6a2a8a2da01fe010ebde85afcb72a60b2c7c9acd06f2affb5f0f96595b1, 0x20)\n  mload(0x00)\n  swap1\n  0x00\n  mstore\n    /* \"#utility.yul\":3985:4003   */\n  0x44\n  dup3\n  add\n    /* \"#utility.yul\":3978:4040   */\n  mstore\n  shl(0xaa, 0x1858d95d081d1bc818dd5d)\n    /* \"#utility.yul\":4056:4074   */\n  0x64\n  dup3\n  add\n    /* \"#utility.yul\":4049:4090   */\n  mstore\n    /* \"#utility.yul\":4107:4126   */\n  0x84\n  add\n    /* \"contracts/libraries/LibDiamond.sol\":4071:4156  require(_functionSelectors.length > 0, \"LibDiamondCut: No selectors in facet to cut\") */\n  tag_75\n    /* \"#utility.yul\":3725:4132   */\n  jump\n    /* \"contracts/libraries/LibDiamond.sol\":4071:4156  require(_functionSelectors.length > 0, \"LibDiamondCut: No selectors in facet to cut\") */\ntag_83:\n  mload(0x00)\n  codecopy(0x00, data_1ac25121ac50ee96730ac9ae618ddfea240cf59a9860f34e3db50d8def79c035, 0x20)\n  mload(0x00)\n  swap1\n  0x00\n  mstore\n  sub(shl(0xa0, 0x01), 0x01)\n    /* \"contracts/libraries/LibDiamond.sol\":4238:4265  _facetAddress != address(0) */\n  dup4\n  and\n    /* \"contracts/libraries/LibDiamond.sol\":4230:4314  require(_facetAddress != address(0), \"LibDiamondCut: Add facet can't be address(0)\") */\n  tag_87\n  jumpi\n  mload(0x40)\n  shl(0xe5, 0x461bcd)\n  dup2\n  mstore\n    /* \"#utility.yul\":4339:4341   */\n  0x20\n    /* \"contracts/libraries/LibDiamond.sol\":4230:4314  require(_facetAddress != address(0), \"LibDiamondCut: Add facet can't be address(0)\") */\n  0x04\n  dup3\n  add\n    /* \"#utility.yul\":4321:4342   */\n  mstore\n    /* \"#utility.yul\":4378:4380   */\n  0x2c\n    /* \"#utility.yul\":4358:4376   */\n  0x24\n  dup3\n  add\n    /* \"#utility.yul\":4351:4381   */\n  mstore\n  mload(0x00)\n  codecopy(0x00, data_5fa5c068a317e88499bc559323e1ff95bb74759dc0609ba03d5281082008ea42, 0x20)\n  mload(0x00)\n  swap1\n  0x00\n  mstore\n    /* \"#utility.yul\":4397:4415   */\n  0x44\n  dup3\n  add\n    /* \"#utility.yul\":4390:4452   */\n  mstore\n  shl(0xa0, 0x652061646472657373283029)\n    /* \"#utility.yul\":4468:4486   */\n  0x64\n  dup3\n  add\n    /* \"#utility.yul\":4461:4503   */\n  mstore\n    /* \"#utility.yul\":4520:4539   */\n  0x84\n  add\n    /* \"contracts/libraries/LibDiamond.sol\":4230:4314  require(_facetAddress != address(0), \"LibDiamondCut: Add facet can't be address(0)\") */\n  tag_75\n    /* \"#utility.yul\":4137:4545   */\n  jump\n    /* \"contracts/libraries/LibDiamond.sol\":4230:4314  require(_facetAddress != address(0), \"LibDiamondCut: Add facet can't be address(0)\") */\ntag_87:\n  sub(shl(0xa0, 0x01), 0x01)\n    /* \"contracts/libraries/LibDiamond.sol\":4358:4398  ds.facetFunctionSelectors[_facetAddress] */\n  dup4\n  and\n    /* \"contracts/libraries/LibDiamond.sol\":4325:4348  uint96 selectorPosition */\n  0x00\n    /* \"contracts/libraries/LibDiamond.sol\":4358:4398  ds.facetFunctionSelectors[_facetAddress] */\n  swap1\n  dup2\n  mstore\n    /* \"contracts/libraries/LibDiamond.sol\":4358:4383  ds.facetFunctionSelectors */\n  0x01\n  dup3\n  add\n    /* \"contracts/libraries/LibDiamond.sol\":4358:4398  ds.facetFunctionSelectors[_facetAddress] */\n  0x20\n  mstore\n  0x40\n  dup2\n  keccak256\n    /* \"contracts/libraries/LibDiamond.sol\":4358:4423  ds.facetFunctionSelectors[_facetAddress].functionSelectors.length */\n  sload\n  swap1\n  sub(shl(0x60, 0x01), 0x01)\n    /* \"contracts/libraries/LibDiamond.sol\":4494:4515  selectorPosition == 0 */\n  dup3\n  and\n  swap1\n  sub\n    /* \"contracts/libraries/LibDiamond.sol\":4490:4583  if (selectorPosition == 0) {... */\n  tag_91\n  jumpi\n    /* \"contracts/libraries/LibDiamond.sol\":4532:4559  addFacet(ds, _facetAddress) */\n  tag_91\n    /* \"contracts/libraries/LibDiamond.sol\":4541:4543  ds */\n  dup3\n    /* \"contracts/libraries/LibDiamond.sol\":4545:4558  _facetAddress */\n  dup6\n    /* \"contracts/libraries/LibDiamond.sol\":4532:4540  addFacet */\n  tag_92\n    /* \"contracts/libraries/LibDiamond.sol\":4532:4559  addFacet(ds, _facetAddress) */\n  jump\t// in\ntag_91:\n    /* \"contracts/libraries/LibDiamond.sol\":4598:4619  uint256 selectorIndex */\n  0x00\n    /* \"contracts/libraries/LibDiamond.sol\":4593:5068  for (uint256 selectorIndex; selectorIndex < _functionSelectors.length; selectorIndex++) {... */\ntag_93:\n    /* \"contracts/libraries/LibDiamond.sol\":4637:4655  _functionSelectors */\n  dup4\n    /* \"contracts/libraries/LibDiamond.sol\":4637:4662  _functionSelectors.length */\n  mload\n    /* \"contracts/libraries/LibDiamond.sol\":4621:4634  selectorIndex */\n  dup2\n    /* \"contracts/libraries/LibDiamond.sol\":4621:4662  selectorIndex < _functionSelectors.length */\n  lt\n    /* \"contracts/libraries/LibDiamond.sol\":4593:5068  for (uint256 selectorIndex; selectorIndex < _functionSelectors.length; selectorIndex++) {... */\n  iszero\n  tag_94\n  jumpi\n    /* \"contracts/libraries/LibDiamond.sol\":4696:4711  bytes4 selector */\n  0x00\n    /* \"contracts/libraries/LibDiamond.sol\":4714:4732  _functionSelectors */\n  dup5\n    /* \"contracts/libraries/LibDiamond.sol\":4733:4746  selectorIndex */\n  dup3\n    /* \"contracts/libraries/LibDiamond.sol\":4714:4747  _functionSelectors[selectorIndex] */\n  dup2\n  mload\n  dup2\n  lt\n  tag_97\n  jumpi\n  tag_97\n  tag_20\n  jump\t// in\ntag_97:\n  0x20\n  swap1\n  dup2\n  mul\n  swap2\n  swap1\n  swap2\n  add\n  dup2\n  add\n  mload\n  not(sub(shl(0xe0, 0x01), 0x01))\n    /* \"contracts/libraries/LibDiamond.sol\":4788:4827  ds.selectorToFacetAndPosition[selector] */\n  dup2\n  and\n    /* \"contracts/libraries/LibDiamond.sol\":4762:4785  address oldFacetAddress */\n  0x00\n    /* \"contracts/libraries/LibDiamond.sol\":4788:4827  ds.selectorToFacetAndPosition[selector] */\n  swap1\n  dup2\n  mstore\n  swap2\n  dup7\n  swap1\n  mstore\n  0x40\n  swap1\n  swap2\n  keccak256\n    /* \"contracts/libraries/LibDiamond.sol\":4788:4840  ds.selectorToFacetAndPosition[selector].facetAddress */\n  sload\n    /* \"contracts/libraries/LibDiamond.sol\":4714:4747  _functionSelectors[selectorIndex] */\n  swap1\n  swap2\n  pop\n  sub(shl(0xa0, 0x01), 0x01)\n    /* \"contracts/libraries/LibDiamond.sol\":4788:4840  ds.selectorToFacetAndPosition[selector].facetAddress */\n  and\n    /* \"contracts/libraries/LibDiamond.sol\":4863:4892  oldFacetAddress == address(0) */\n  dup1\n  iszero\n    /* \"contracts/libraries/LibDiamond.sol\":4855:4950  require(oldFacetAddress == address(0), \"LibDiamondCut: Can't add function that already exists\") */\n  tag_98\n  jumpi\n  mload(0x40)\n  shl(0xe5, 0x461bcd)\n  dup2\n  mstore\n    /* \"#utility.yul\":4752:4754   */\n  0x20\n    /* \"contracts/libraries/LibDiamond.sol\":4855:4950  require(oldFacetAddress == address(0), \"LibDiamondCut: Can't add function that already exists\") */\n  0x04\n  dup3\n  add\n    /* \"#utility.yul\":4734:4755   */\n  mstore\n    /* \"#utility.yul\":4791:4793   */\n  0x35\n    /* \"#utility.yul\":4771:4789   */\n  0x24\n  dup3\n  add\n    /* \"#utility.yul\":4764:4794   */\n  mstore\n    /* \"#utility.yul\":4830:4864   */\n  0x4c69624469616d6f6e644375743a2043616e2774206164642066756e6374696f\n    /* \"#utility.yul\":4810:4828   */\n  0x44\n  dup3\n  add\n    /* \"#utility.yul\":4803:4865   */\n  mstore\n    /* \"#utility.yul\":4901:4924   */\n  0x6e207468617420616c7265616479206578697374730000000000000000000000\n    /* \"#utility.yul\":4881:4899   */\n  0x64\n  dup3\n  add\n    /* \"#utility.yul\":4874:4925   */\n  mstore\n    /* \"#utility.yul\":4942:4961   */\n  0x84\n  add\n    /* \"contracts/libraries/LibDiamond.sol\":4855:4950  require(oldFacetAddress == address(0), \"LibDiamondCut: Can't add function that already exists\") */\n  tag_75\n    /* \"#utility.yul\":4550:4967   */\n  jump\n    /* \"contracts/libraries/LibDiamond.sol\":4855:4950  require(oldFacetAddress == address(0), \"LibDiamondCut: Can't add function that already exists\") */\ntag_98:\n  not(sub(shl(0xe0, 0x01), 0x01))\n    /* \"contracts/libraries/LibDiamond.sol\":7475:7515  ds.selectorToFacetAndPosition[_selector] */\n  dup3\n  and\n    /* \"contracts/libraries/LibDiamond.sol\":7475:7504  ds.selectorToFacetAndPosition */\n  0x00\n    /* \"contracts/libraries/LibDiamond.sol\":7475:7515  ds.selectorToFacetAndPosition[_selector] */\n  dup2\n  dup2\n  mstore\n  0x20\n  dup8\n  dup2\n  mstore\n  0x40\n  dup1\n  dup4\n  keccak256\n    /* \"contracts/libraries/LibDiamond.sol\":7475:7560  ds.selectorToFacetAndPosition[_selector].functionSelectorPosition = _selectorPosition */\n  dup1\n  sload\n  sub(shl(0xa0, 0x01), 0x01)\n  swap1\n  dup2\n  and\n  shl(0xa0, 0x01)\n  sub(shl(0x60, 0x01), 0x01)\n  dup13\n  and\n  mul\n  or\n  dup3\n  sstore\n    /* \"contracts/libraries/LibDiamond.sol\":7571:7611  ds.facetFunctionSelectors[_facetAddress] */\n  dup13\n  and\n  dup1\n  dup6\n  mstore\n  0x01\n    /* \"contracts/libraries/LibDiamond.sol\":7571:7596  ds.facetFunctionSelectors */\n  dup1\n  dup13\n  add\n    /* \"contracts/libraries/LibDiamond.sol\":7571:7611  ds.facetFunctionSelectors[_facetAddress] */\n  dup6\n  mstore\n  swap3\n  dup6\n  keccak256\n    /* \"contracts/libraries/LibDiamond.sol\":7571:7645  ds.facetFunctionSelectors[_facetAddress].functionSelectors.push(_selector) */\n  dup1\n  sload\n  swap4\n  dup5\n  add\n  dup2\n  sstore\n  dup6\n  mstore\n  dup4\n  dup6\n  keccak256\n  0x08\n  dup5\n  div\n  add\n  dup1\n  sload\n  0xffffffff\n  0x07\n  swap1\n  swap6\n  and\n  0x04\n  mul\n    /* \"contracts/libraries/LibDiamond.sol\":7475:7560  ds.selectorToFacetAndPosition[_selector].functionSelectorPosition = _selectorPosition */\n  0x0100\n    /* \"contracts/libraries/LibDiamond.sol\":7571:7645  ds.facetFunctionSelectors[_facetAddress].functionSelectors.push(_selector) */\n  exp\n  swap5\n  dup6\n  mul\n  not\n  and\n  0xe0\n  dup11\n  swap1\n  shr\n  swap5\n  swap1\n  swap5\n  mul\n  swap4\n  swap1\n  swap4\n  or\n  swap1\n  swap3\n  sstore\n    /* \"contracts/libraries/LibDiamond.sol\":7656:7696  ds.selectorToFacetAndPosition[_selector] */\n  swap4\n  swap1\n  swap3\n  mstore\n  dup8\n  swap1\n  mstore\n    /* \"contracts/libraries/LibDiamond.sol\":7656:7725  ds.selectorToFacetAndPosition[_selector].facetAddress = _facetAddress */\n  dup2\n  sload\n  not(sub(shl(0xa0, 0x01), 0x01))\n  and\n  or\n  swap1\n  sstore\n    /* \"contracts/libraries/LibDiamond.sol\":5038:5056  selectorPosition++ */\n  dup4\n  tag_103\n  dup2\n  tag_104\n  jump\t// in\ntag_103:\n  swap5\n  pop\n  pop\n    /* \"contracts/libraries/LibDiamond.sol\":4664:4679  selectorIndex++ */\n  0x01\n  swap1\n  swap3\n  add\n  swap2\n  pop\n    /* \"contracts/libraries/LibDiamond.sol\":4593:5068  for (uint256 selectorIndex; selectorIndex < _functionSelectors.length; selectorIndex++) {... */\n  tag_93\n  swap1\n  pop\n  jump\ntag_94:\n  pop\n    /* \"contracts/libraries/LibDiamond.sol\":4060:5075  {... */\n  pop\n  pop\n    /* \"contracts/libraries/LibDiamond.sol\":3970:5075  function addFunctions(address _facetAddress, bytes4[] memory _functionSelectors) internal {... */\n  pop\n  pop\n  jump\t// out\n    /* \"contracts/libraries/LibDiamond.sol\":5083:6238  function replaceFunctions(address _facetAddress, bytes4[] memory _functionSelectors) internal {... */\ntag_61:\n    /* \"contracts/libraries/LibDiamond.sol\":5224:5225  0 */\n  0x00\n    /* \"contracts/libraries/LibDiamond.sol\":5196:5214  _functionSelectors */\n  dup2\n    /* \"contracts/libraries/LibDiamond.sol\":5196:5221  _functionSelectors.length */\n  mload\n    /* \"contracts/libraries/LibDiamond.sol\":5196:5225  _functionSelectors.length > 0 */\n  gt\n    /* \"contracts/libraries/LibDiamond.sol\":5188:5273  require(_functionSelectors.length > 0, \"LibDiamondCut: No selectors in facet to cut\") */\n  tag_106\n  jumpi\n  mload(0x40)\n  shl(0xe5, 0x461bcd)\n  dup2\n  mstore\n    /* \"#utility.yul\":3927:3929   */\n  0x20\n    /* \"contracts/libraries/LibDiamond.sol\":5188:5273  require(_functionSelectors.length > 0, \"LibDiamondCut: No selectors in facet to cut\") */\n  0x04\n  dup3\n  add\n    /* \"#utility.yul\":3909:3930   */\n  mstore\n    /* \"#utility.yul\":3966:3968   */\n  0x2b\n    /* \"#utility.yul\":3946:3964   */\n  0x24\n  dup3\n  add\n    /* \"#utility.yul\":3939:3969   */\n  mstore\n  mload(0x00)\n  codecopy(0x00, data_ef6ab6a2a8a2da01fe010ebde85afcb72a60b2c7c9acd06f2affb5f0f96595b1, 0x20)\n  mload(0x00)\n  swap1\n  0x00\n  mstore\n    /* \"#utility.yul\":3985:4003   */\n  0x44\n  dup3\n  add\n    /* \"#utility.yul\":3978:4040   */\n  mstore\n  shl(0xaa, 0x1858d95d081d1bc818dd5d)\n    /* \"#utility.yul\":4056:4074   */\n  0x64\n  dup3\n  add\n    /* \"#utility.yul\":4049:4090   */\n  mstore\n    /* \"#utility.yul\":4107:4126   */\n  0x84\n  add\n    /* \"contracts/libraries/LibDiamond.sol\":5188:5273  require(_functionSelectors.length > 0, \"LibDiamondCut: No selectors in facet to cut\") */\n  tag_75\n    /* \"#utility.yul\":3725:4132   */\n  jump\n    /* \"contracts/libraries/LibDiamond.sol\":5188:5273  require(_functionSelectors.length > 0, \"LibDiamondCut: No selectors in facet to cut\") */\ntag_106:\n  mload(0x00)\n  codecopy(0x00, data_1ac25121ac50ee96730ac9ae618ddfea240cf59a9860f34e3db50d8def79c035, 0x20)\n  mload(0x00)\n  swap1\n  0x00\n  mstore\n  sub(shl(0xa0, 0x01), 0x01)\n    /* \"contracts/libraries/LibDiamond.sol\":5347:5374  _facetAddress != address(0) */\n  dup4\n  and\n    /* \"contracts/libraries/LibDiamond.sol\":5339:5423  require(_facetAddress != address(0), \"LibDiamondCut: Add facet can't be address(0)\") */\n  tag_109\n  jumpi\n  mload(0x40)\n  shl(0xe5, 0x461bcd)\n  dup2\n  mstore\n    /* \"#utility.yul\":4339:4341   */\n  0x20\n    /* \"contracts/libraries/LibDiamond.sol\":5339:5423  require(_facetAddress != address(0), \"LibDiamondCut: Add facet can't be address(0)\") */\n  0x04\n  dup3\n  add\n    /* \"#utility.yul\":4321:4342   */\n  mstore\n    /* \"#utility.yul\":4378:4380   */\n  0x2c\n    /* \"#utility.yul\":4358:4376   */\n  0x24\n  dup3\n  add\n    /* \"#utility.yul\":4351:4381   */\n  mstore\n  mload(0x00)\n  codecopy(0x00, data_5fa5c068a317e88499bc559323e1ff95bb74759dc0609ba03d5281082008ea42, 0x20)\n  mload(0x00)\n  swap1\n  0x00\n  mstore\n    /* \"#utility.yul\":4397:4415   */\n  0x44\n  dup3\n  add\n    /* \"#utility.yul\":4390:4452   */\n  mstore\n  shl(0xa0, 0x652061646472657373283029)\n    /* \"#utility.yul\":4468:4486   */\n  0x64\n  dup3\n  add\n    /* \"#utility.yul\":4461:4503   */\n  mstore\n    /* \"#utility.yul\":4520:4539   */\n  0x84\n  add\n    /* \"contracts/libraries/LibDiamond.sol\":5339:5423  require(_facetAddress != address(0), \"LibDiamondCut: Add facet can't be address(0)\") */\n  tag_75\n    /* \"#utility.yul\":4137:4545   */\n  jump\n    /* \"contracts/libraries/LibDiamond.sol\":5339:5423  require(_facetAddress != address(0), \"LibDiamondCut: Add facet can't be address(0)\") */\ntag_109:\n  sub(shl(0xa0, 0x01), 0x01)\n    /* \"contracts/libraries/LibDiamond.sol\":5467:5507  ds.facetFunctionSelectors[_facetAddress] */\n  dup4\n  and\n    /* \"contracts/libraries/LibDiamond.sol\":5434:5457  uint96 selectorPosition */\n  0x00\n    /* \"contracts/libraries/LibDiamond.sol\":5467:5507  ds.facetFunctionSelectors[_facetAddress] */\n  swap1\n  dup2\n  mstore\n    /* \"contracts/libraries/LibDiamond.sol\":5467:5492  ds.facetFunctionSelectors */\n  0x01\n  dup3\n  add\n    /* \"contracts/libraries/LibDiamond.sol\":5467:5507  ds.facetFunctionSelectors[_facetAddress] */\n  0x20\n  mstore\n  0x40\n  dup2\n  keccak256\n    /* \"contracts/libraries/LibDiamond.sol\":5467:5532  ds.facetFunctionSelectors[_facetAddress].functionSelectors.length */\n  sload\n  swap1\n  sub(shl(0x60, 0x01), 0x01)\n    /* \"contracts/libraries/LibDiamond.sol\":5603:5624  selectorPosition == 0 */\n  dup3\n  and\n  swap1\n  sub\n    /* \"contracts/libraries/LibDiamond.sol\":5599:5680  if (selectorPosition == 0) {... */\n  tag_112\n  jumpi\n    /* \"contracts/libraries/LibDiamond.sol\":5641:5668  addFacet(ds, _facetAddress) */\n  tag_112\n    /* \"contracts/libraries/LibDiamond.sol\":5650:5652  ds */\n  dup3\n    /* \"contracts/libraries/LibDiamond.sol\":5654:5667  _facetAddress */\n  dup6\n    /* \"contracts/libraries/LibDiamond.sol\":5641:5649  addFacet */\n  tag_92\n    /* \"contracts/libraries/LibDiamond.sol\":5641:5668  addFacet(ds, _facetAddress) */\n  jump\t// in\ntag_112:\n    /* \"contracts/libraries/LibDiamond.sol\":5695:5716  uint256 selectorIndex */\n  0x00\n    /* \"contracts/libraries/LibDiamond.sol\":5690:6231  for (uint256 selectorIndex; selectorIndex < _functionSelectors.length; selectorIndex++) {... */\ntag_113:\n    /* \"contracts/libraries/LibDiamond.sol\":5734:5752  _functionSelectors */\n  dup4\n    /* \"contracts/libraries/LibDiamond.sol\":5734:5759  _functionSelectors.length */\n  mload\n    /* \"contracts/libraries/LibDiamond.sol\":5718:5731  selectorIndex */\n  dup2\n    /* \"contracts/libraries/LibDiamond.sol\":5718:5759  selectorIndex < _functionSelectors.length */\n  lt\n    /* \"contracts/libraries/LibDiamond.sol\":5690:6231  for (uint256 selectorIndex; selectorIndex < _functionSelectors.length; selectorIndex++) {... */\n  iszero\n  tag_94\n  jumpi\n    /* \"contracts/libraries/LibDiamond.sol\":5793:5808  bytes4 selector */\n  0x00\n    /* \"contracts/libraries/LibDiamond.sol\":5811:5829  _functionSelectors */\n  dup5\n    /* \"contracts/libraries/LibDiamond.sol\":5830:5843  selectorIndex */\n  dup3\n    /* \"contracts/libraries/LibDiamond.sol\":5811:5844  _functionSelectors[selectorIndex] */\n  dup2\n  mload\n  dup2\n  lt\n  tag_117\n  jumpi\n  tag_117\n  tag_20\n  jump\t// in\ntag_117:\n  0x20\n  swap1\n  dup2\n  mul\n  swap2\n  swap1\n  swap2\n  add\n  dup2\n  add\n  mload\n  not(sub(shl(0xe0, 0x01), 0x01))\n    /* \"contracts/libraries/LibDiamond.sol\":5885:5924  ds.selectorToFacetAndPosition[selector] */\n  dup2\n  and\n    /* \"contracts/libraries/LibDiamond.sol\":5859:5882  address oldFacetAddress */\n  0x00\n    /* \"contracts/libraries/LibDiamond.sol\":5885:5924  ds.selectorToFacetAndPosition[selector] */\n  swap1\n  dup2\n  mstore\n  swap2\n  dup7\n  swap1\n  mstore\n  0x40\n  swap1\n  swap2\n  keccak256\n    /* \"contracts/libraries/LibDiamond.sol\":5885:5937  ds.selectorToFacetAndPosition[selector].facetAddress */\n  sload\n    /* \"contracts/libraries/LibDiamond.sol\":5811:5844  _functionSelectors[selectorIndex] */\n  swap1\n  swap2\n  pop\n  sub(shl(0xa0, 0x01), 0x01)\n    /* \"contracts/libraries/LibDiamond.sol\":5885:5937  ds.selectorToFacetAndPosition[selector].facetAddress */\n  swap1\n  dup2\n  and\n  swap1\n    /* \"contracts/libraries/LibDiamond.sol\":5960:5992  oldFacetAddress != _facetAddress */\n  dup8\n  and\n  dup2\n  sub\n    /* \"contracts/libraries/LibDiamond.sol\":5952:6053  require(oldFacetAddress != _facetAddress, \"LibDiamondCut: Can't replace function with same function\") */\n  tag_118\n  jumpi\n  mload(0x40)\n  shl(0xe5, 0x461bcd)\n  dup2\n  mstore\n    /* \"#utility.yul\":5515:5517   */\n  0x20\n    /* \"contracts/libraries/LibDiamond.sol\":5952:6053  require(oldFacetAddress != _facetAddress, \"LibDiamondCut: Can't replace function with same function\") */\n  0x04\n  dup3\n  add\n    /* \"#utility.yul\":5497:5518   */\n  mstore\n    /* \"#utility.yul\":5554:5556   */\n  0x38\n    /* \"#utility.yul\":5534:5552   */\n  0x24\n  dup3\n  add\n    /* \"#utility.yul\":5527:5557   */\n  mstore\n    /* \"#utility.yul\":5593:5627   */\n  0x4c69624469616d6f6e644375743a2043616e2774207265706c6163652066756e\n    /* \"#utility.yul\":5573:5591   */\n  0x44\n  dup3\n  add\n    /* \"#utility.yul\":5566:5628   */\n  mstore\n    /* \"#utility.yul\":5664:5690   */\n  0x6374696f6e20776974682073616d652066756e6374696f6e0000000000000000\n    /* \"#utility.yul\":5644:5662   */\n  0x64\n  dup3\n  add\n    /* \"#utility.yul\":5637:5691   */\n  mstore\n    /* \"#utility.yul\":5708:5727   */\n  0x84\n  add\n    /* \"contracts/libraries/LibDiamond.sol\":5952:6053  require(oldFacetAddress != _facetAddress, \"LibDiamondCut: Can't replace function with same function\") */\n  tag_75\n    /* \"#utility.yul\":5313:5733   */\n  jump\n    /* \"contracts/libraries/LibDiamond.sol\":5952:6053  require(oldFacetAddress != _facetAddress, \"LibDiamondCut: Can't replace function with same function\") */\ntag_118:\n    /* \"contracts/libraries/LibDiamond.sol\":6068:6113  removeFunction(ds, oldFacetAddress, selector) */\n  tag_121\n    /* \"contracts/libraries/LibDiamond.sol\":6083:6085  ds */\n  dup6\n    /* \"contracts/libraries/LibDiamond.sol\":6087:6102  oldFacetAddress */\n  dup3\n    /* \"contracts/libraries/LibDiamond.sol\":6104:6112  selector */\n  dup5\n    /* \"contracts/libraries/LibDiamond.sol\":6068:6082  removeFunction */\n  tag_122\n    /* \"contracts/libraries/LibDiamond.sol\":6068:6113  removeFunction(ds, oldFacetAddress, selector) */\n  jump\t// in\ntag_121:\n  not(sub(shl(0xe0, 0x01), 0x01))\n    /* \"contracts/libraries/LibDiamond.sol\":7475:7515  ds.selectorToFacetAndPosition[_selector] */\n  dup3\n  and\n    /* \"contracts/libraries/LibDiamond.sol\":7475:7504  ds.selectorToFacetAndPosition */\n  0x00\n    /* \"contracts/libraries/LibDiamond.sol\":7475:7515  ds.selectorToFacetAndPosition[_selector] */\n  dup2\n  dup2\n  mstore\n  0x20\n  dup8\n  dup2\n  mstore\n  0x40\n  dup1\n  dup4\n  keccak256\n    /* \"contracts/libraries/LibDiamond.sol\":7475:7560  ds.selectorToFacetAndPosition[_selector].functionSelectorPosition = _selectorPosition */\n  dup1\n  sload\n  sub(shl(0xa0, 0x01), 0x01)\n  swap1\n  dup2\n  and\n  shl(0xa0, 0x01)\n  sub(shl(0x60, 0x01), 0x01)\n  dup13\n  and\n  mul\n  or\n  dup3\n  sstore\n    /* \"contracts/libraries/LibDiamond.sol\":7571:7611  ds.facetFunctionSelectors[_facetAddress] */\n  dup13\n  and\n  dup1\n  dup6\n  mstore\n  0x01\n    /* \"contracts/libraries/LibDiamond.sol\":7571:7596  ds.facetFunctionSelectors */\n  dup1\n  dup13\n  add\n    /* \"contracts/libraries/LibDiamond.sol\":7571:7611  ds.facetFunctionSelectors[_facetAddress] */\n  dup6\n  mstore\n  swap3\n  dup6\n  keccak256\n    /* \"contracts/libraries/LibDiamond.sol\":7571:7645  ds.facetFunctionSelectors[_facetAddress].functionSelectors.push(_selector) */\n  dup1\n  sload\n  swap4\n  dup5\n  add\n  dup2\n  sstore\n  dup6\n  mstore\n  dup4\n  dup6\n  keccak256\n  0x08\n  dup5\n  div\n  add\n  dup1\n  sload\n  0xffffffff\n  0x07\n  swap1\n  swap6\n  and\n  0x04\n  mul\n    /* \"contracts/libraries/LibDiamond.sol\":7475:7560  ds.selectorToFacetAndPosition[_selector].functionSelectorPosition = _selectorPosition */\n  0x0100\n    /* \"contracts/libraries/LibDiamond.sol\":7571:7645  ds.facetFunctionSelectors[_facetAddress].functionSelectors.push(_selector) */\n  exp\n  swap5\n  dup6\n  mul\n  not\n  and\n  0xe0\n  dup11\n  swap1\n  shr\n  swap5\n  swap1\n  swap5\n  mul\n  swap4\n  swap1\n  swap4\n  or\n  swap1\n  swap3\n  sstore\n    /* \"contracts/libraries/LibDiamond.sol\":7656:7696  ds.selectorToFacetAndPosition[_selector] */\n  swap4\n  swap1\n  swap3\n  mstore\n  dup8\n  swap1\n  mstore\n    /* \"contracts/libraries/LibDiamond.sol\":7656:7725  ds.selectorToFacetAndPosition[_selector].facetAddress = _facetAddress */\n  dup2\n  sload\n  not(sub(shl(0xa0, 0x01), 0x01))\n  and\n  or\n  swap1\n  sstore\n    /* \"contracts/libraries/LibDiamond.sol\":6201:6219  selectorPosition++ */\n  dup4\n  tag_124\n  dup2\n  tag_104\n  jump\t// in\ntag_124:\n  swap5\n  pop\n  pop\n    /* \"contracts/libraries/LibDiamond.sol\":5761:5776  selectorIndex++ */\n  0x01\n  swap1\n  swap3\n  add\n  swap2\n  pop\n    /* \"contracts/libraries/LibDiamond.sol\":5690:6231  for (uint256 selectorIndex; selectorIndex < _functionSelectors.length; selectorIndex++) {... */\n  tag_113\n  swap1\n  pop\n  jump\n    /* \"contracts/libraries/LibDiamond.sol\":6246:6998  function removeFunctions(address _facetAddress, bytes4[] memory _functionSelectors) internal {... */\ntag_73:\n    /* \"contracts/libraries/LibDiamond.sol\":6386:6387  0 */\n  0x00\n    /* \"contracts/libraries/LibDiamond.sol\":6358:6376  _functionSelectors */\n  dup2\n    /* \"contracts/libraries/LibDiamond.sol\":6358:6383  _functionSelectors.length */\n  mload\n    /* \"contracts/libraries/LibDiamond.sol\":6358:6387  _functionSelectors.length > 0 */\n  gt\n    /* \"contracts/libraries/LibDiamond.sol\":6350:6435  require(_functionSelectors.length > 0, \"LibDiamondCut: No selectors in facet to cut\") */\n  tag_126\n  jumpi\n  mload(0x40)\n  shl(0xe5, 0x461bcd)\n  dup2\n  mstore\n    /* \"#utility.yul\":3927:3929   */\n  0x20\n    /* \"contracts/libraries/LibDiamond.sol\":6350:6435  require(_functionSelectors.length > 0, \"LibDiamondCut: No selectors in facet to cut\") */\n  0x04\n  dup3\n  add\n    /* \"#utility.yul\":3909:3930   */\n  mstore\n    /* \"#utility.yul\":3966:3968   */\n  0x2b\n    /* \"#utility.yul\":3946:3964   */\n  0x24\n  dup3\n  add\n    /* \"#utility.yul\":3939:3969   */\n  mstore\n  mload(0x00)\n  codecopy(0x00, data_ef6ab6a2a8a2da01fe010ebde85afcb72a60b2c7c9acd06f2affb5f0f96595b1, 0x20)\n  mload(0x00)\n  swap1\n  0x00\n  mstore\n    /* \"#utility.yul\":3985:4003   */\n  0x44\n  dup3\n  add\n    /* \"#utility.yul\":3978:4040   */\n  mstore\n  shl(0xaa, 0x1858d95d081d1bc818dd5d)\n    /* \"#utility.yul\":4056:4074   */\n  0x64\n  dup3\n  add\n    /* \"#utility.yul\":4049:4090   */\n  mstore\n    /* \"#utility.yul\":4107:4126   */\n  0x84\n  add\n    /* \"contracts/libraries/LibDiamond.sol\":6350:6435  require(_functionSelectors.length > 0, \"LibDiamondCut: No selectors in facet to cut\") */\n  tag_75\n    /* \"#utility.yul\":3725:4132   */\n  jump\n    /* \"contracts/libraries/LibDiamond.sol\":6350:6435  require(_functionSelectors.length > 0, \"LibDiamondCut: No selectors in facet to cut\") */\ntag_126:\n  mload(0x00)\n  codecopy(0x00, data_1ac25121ac50ee96730ac9ae618ddfea240cf59a9860f34e3db50d8def79c035, 0x20)\n  mload(0x00)\n  swap1\n  0x00\n  mstore\n  sub(shl(0xa0, 0x01), 0x01)\n    /* \"contracts/libraries/LibDiamond.sol\":6575:6602  _facetAddress == address(0) */\n  dup4\n  and\n  iszero\n    /* \"contracts/libraries/LibDiamond.sol\":6567:6661  require(_facetAddress == address(0), \"LibDiamondCut: Remove facet address must be address(0)\") */\n  tag_129\n  jumpi\n  mload(0x40)\n  shl(0xe5, 0x461bcd)\n  dup2\n  mstore\n    /* \"#utility.yul\":5940:5942   */\n  0x20\n    /* \"contracts/libraries/LibDiamond.sol\":6567:6661  require(_facetAddress == address(0), \"LibDiamondCut: Remove facet address must be address(0)\") */\n  0x04\n  dup3\n  add\n    /* \"#utility.yul\":5922:5943   */\n  mstore\n    /* \"#utility.yul\":5979:5981   */\n  0x36\n    /* \"#utility.yul\":5959:5977   */\n  0x24\n  dup3\n  add\n    /* \"#utility.yul\":5952:5982   */\n  mstore\n    /* \"#utility.yul\":6018:6052   */\n  0x4c69624469616d6f6e644375743a2052656d6f76652066616365742061646472\n    /* \"#utility.yul\":5998:6016   */\n  0x44\n  dup3\n  add\n    /* \"#utility.yul\":5991:6053   */\n  mstore\n    /* \"#utility.yul\":6089:6113   */\n  0x657373206d757374206265206164647265737328302900000000000000000000\n    /* \"#utility.yul\":6069:6087   */\n  0x64\n  dup3\n  add\n    /* \"#utility.yul\":6062:6114   */\n  mstore\n    /* \"#utility.yul\":6131:6150   */\n  0x84\n  add\n    /* \"contracts/libraries/LibDiamond.sol\":6567:6661  require(_facetAddress == address(0), \"LibDiamondCut: Remove facet address must be address(0)\") */\n  tag_75\n    /* \"#utility.yul\":5738:6156   */\n  jump\n    /* \"contracts/libraries/LibDiamond.sol\":6567:6661  require(_facetAddress == address(0), \"LibDiamondCut: Remove facet address must be address(0)\") */\ntag_129:\n    /* \"contracts/libraries/LibDiamond.sol\":6677:6698  uint256 selectorIndex */\n  0x00\n    /* \"contracts/libraries/LibDiamond.sol\":6672:6991  for (uint256 selectorIndex; selectorIndex < _functionSelectors.length; selectorIndex++) {... */\ntag_132:\n    /* \"contracts/libraries/LibDiamond.sol\":6716:6734  _functionSelectors */\n  dup3\n    /* \"contracts/libraries/LibDiamond.sol\":6716:6741  _functionSelectors.length */\n  mload\n    /* \"contracts/libraries/LibDiamond.sol\":6700:6713  selectorIndex */\n  dup2\n    /* \"contracts/libraries/LibDiamond.sol\":6700:6741  selectorIndex < _functionSelectors.length */\n  lt\n    /* \"contracts/libraries/LibDiamond.sol\":6672:6991  for (uint256 selectorIndex; selectorIndex < _functionSelectors.length; selectorIndex++) {... */\n  iszero\n  tag_133\n  jumpi\n    /* \"contracts/libraries/LibDiamond.sol\":6775:6790  bytes4 selector */\n  0x00\n    /* \"contracts/libraries/LibDiamond.sol\":6793:6811  _functionSelectors */\n  dup4\n    /* \"contracts/libraries/LibDiamond.sol\":6812:6825  selectorIndex */\n  dup3\n    /* \"contracts/libraries/LibDiamond.sol\":6793:6826  _functionSelectors[selectorIndex] */\n  dup2\n  mload\n  dup2\n  lt\n  tag_136\n  jumpi\n  tag_136\n  tag_20\n  jump\t// in\ntag_136:\n  0x20\n  swap1\n  dup2\n  mul\n  swap2\n  swap1\n  swap2\n  add\n  dup2\n  add\n  mload\n  not(sub(shl(0xe0, 0x01), 0x01))\n    /* \"contracts/libraries/LibDiamond.sol\":6867:6906  ds.selectorToFacetAndPosition[selector] */\n  dup2\n  and\n    /* \"contracts/libraries/LibDiamond.sol\":6841:6864  address oldFacetAddress */\n  0x00\n    /* \"contracts/libraries/LibDiamond.sol\":6867:6906  ds.selectorToFacetAndPosition[selector] */\n  swap1\n  dup2\n  mstore\n  swap2\n  dup6\n  swap1\n  mstore\n  0x40\n  swap1\n  swap2\n  keccak256\n    /* \"contracts/libraries/LibDiamond.sol\":6867:6919  ds.selectorToFacetAndPosition[selector].facetAddress */\n  sload\n    /* \"contracts/libraries/LibDiamond.sol\":6793:6826  _functionSelectors[selectorIndex] */\n  swap1\n  swap2\n  pop\n  sub(shl(0xa0, 0x01), 0x01)\n    /* \"contracts/libraries/LibDiamond.sol\":6867:6919  ds.selectorToFacetAndPosition[selector].facetAddress */\n  and\n    /* \"contracts/libraries/LibDiamond.sol\":6934:6979  removeFunction(ds, oldFacetAddress, selector) */\n  tag_137\n    /* \"contracts/libraries/LibDiamond.sol\":6867:6869  ds */\n  dup5\n    /* \"contracts/libraries/LibDiamond.sol\":6867:6919  ds.selectorToFacetAndPosition[selector].facetAddress */\n  dup3\n    /* \"contracts/libraries/LibDiamond.sol\":6793:6826  _functionSelectors[selectorIndex] */\n  dup5\n    /* \"contracts/libraries/LibDiamond.sol\":6934:6948  removeFunction */\n  tag_122\n    /* \"contracts/libraries/LibDiamond.sol\":6934:6979  removeFunction(ds, oldFacetAddress, selector) */\n  jump\t// in\ntag_137:\n  pop\n  pop\n    /* \"contracts/libraries/LibDiamond.sol\":6743:6758  selectorIndex++ */\n  0x01\n  add\n    /* \"contracts/libraries/LibDiamond.sol\":6672:6991  for (uint256 selectorIndex; selectorIndex < _functionSelectors.length; selectorIndex++) {... */\n  jump(tag_132)\ntag_133:\n  pop\n    /* \"contracts/libraries/LibDiamond.sol\":6339:6998  {... */\n  pop\n    /* \"contracts/libraries/LibDiamond.sol\":6246:6998  function removeFunctions(address _facetAddress, bytes4[] memory _functionSelectors) internal {... */\n  pop\n  pop\n  jump\t// out\n    /* \"contracts/libraries/LibDiamond.sol\":9969:10729  function initializeDiamondCut(address _init, bytes memory _calldata) internal {... */\ntag_80:\n  sub(shl(0xa0, 0x01), 0x01)\n    /* \"contracts/libraries/LibDiamond.sol\":10062:10081  _init == address(0) */\n  dup3\n  and\n    /* \"contracts/libraries/LibDiamond.sol\":10058:10116  if (_init == address(0)) {... */\n  tag_139\n  jumpi\n    /* \"contracts/libraries/LibDiamond.sol\":9969:10729  function initializeDiamondCut(address _init, bytes memory _calldata) internal {... */\n  pop\n  pop\n  jump\t// out\n    /* \"contracts/libraries/LibDiamond.sol\":10058:10116  if (_init == address(0)) {... */\ntag_139:\n    /* \"contracts/libraries/LibDiamond.sol\":10126:10199  enforceHasContractCode(_init, \"LibDiamondCut: _init address has no code\") */\n  tag_140\n    /* \"contracts/libraries/LibDiamond.sol\":10149:10154  _init */\n  dup3\n    /* \"contracts/libraries/LibDiamond.sol\":10126:10199  enforceHasContractCode(_init, \"LibDiamondCut: _init address has no code\") */\n  mload(0x40)\n  dup1\n  0x60\n  add\n  0x40\n  mstore\n  dup1\n  0x28\n  dup2\n  mstore\n  0x20\n  add\n  data_460f8f0920c649146ef02741816b1cf9ce4f02ea288ceb73adf027cefe9069a0\n  0x28\n  swap2\n  codecopy\n    /* \"contracts/libraries/LibDiamond.sol\":10126:10148  enforceHasContractCode */\n  tag_141\n    /* \"contracts/libraries/LibDiamond.sol\":10126:10199  enforceHasContractCode(_init, \"LibDiamondCut: _init address has no code\") */\n  jump\t// in\ntag_140:\n    /* \"contracts/libraries/LibDiamond.sol\":10219:10231  bool success */\n  0x00\n    /* \"contracts/libraries/LibDiamond.sol\":10233:10251  bytes memory error */\n  0x00\n    /* \"contracts/libraries/LibDiamond.sol\":10255:10260  _init */\n  dup4\n  sub(shl(0xa0, 0x01), 0x01)\n    /* \"contracts/libraries/LibDiamond.sol\":10255:10273  _init.delegatecall */\n  and\n    /* \"contracts/libraries/LibDiamond.sol\":10274:10283  _calldata */\n  dup4\n    /* \"contracts/libraries/LibDiamond.sol\":10255:10284  _init.delegatecall(_calldata) */\n  mload(0x40)\n  tag_142\n  swap2\n  swap1\n  tag_143\n  jump\t// in\ntag_142:\n  0x00\n  mload(0x40)\n  dup1\n  dup4\n  sub\n  dup2\n  dup6\n  gas\n  delegatecall\n  swap2\n  pop\n  pop\n  returndatasize\n  dup1\n  0x00\n  dup2\n  eq\n  tag_146\n  jumpi\n  mload(0x40)\n  swap2\n  pop\n  and(add(returndatasize, 0x3f), not(0x1f))\n  dup3\n  add\n  0x40\n  mstore\n  returndatasize\n  dup3\n  mstore\n  returndatasize\n  0x00\n  0x20\n  dup5\n  add\n  returndatacopy\n  jump(tag_145)\ntag_146:\n  0x60\n  swap2\n  pop\ntag_145:\n  pop\n    /* \"contracts/libraries/LibDiamond.sol\":10218:10284  (bool success, bytes memory error) = _init.delegatecall(_calldata) */\n  swap2\n  pop\n  swap2\n  pop\n    /* \"contracts/libraries/LibDiamond.sol\":10300:10307  success */\n  dup2\n    /* \"contracts/libraries/LibDiamond.sol\":10295:10722  if (!success) {... */\n  tag_133\n  jumpi\n    /* \"contracts/libraries/LibDiamond.sol\":10328:10340  error.length */\n  dup1\n  mload\n    /* \"contracts/libraries/LibDiamond.sol\":10328:10344  error.length > 0 */\n  iszero\n    /* \"contracts/libraries/LibDiamond.sol\":10324:10711  if (error.length > 0) {... */\n  tag_148\n  jumpi\n    /* \"contracts/libraries/LibDiamond.sol\":10514:10519  error */\n  dup1\n    /* \"contracts/libraries/LibDiamond.sol\":10508:10520  mload(error) */\n  mload\n    /* \"contracts/libraries/LibDiamond.sol\":10565:10580  returndata_size */\n  dup1\n    /* \"contracts/libraries/LibDiamond.sol\":10557:10562  error */\n  dup3\n    /* \"contracts/libraries/LibDiamond.sol\":10553:10555  32 */\n  0x20\n    /* \"contracts/libraries/LibDiamond.sol\":10549:10563  add(32, error) */\n  add\n    /* \"contracts/libraries/LibDiamond.sol\":10542:10581  revert(add(32, error), returndata_size) */\n  revert\n    /* \"contracts/libraries/LibDiamond.sol\":10324:10711  if (error.length > 0) {... */\ntag_148:\n    /* \"contracts/libraries/LibDiamond.sol\":10678:10683  _init */\n  dup4\n    /* \"contracts/libraries/LibDiamond.sol\":10685:10694  _calldata */\n  dup4\n    /* \"contracts/libraries/LibDiamond.sol\":10647:10695  InitializationFunctionReverted(_init, _calldata) */\n  mload(0x40)\n  shl(0xe0, 0x192105d7)\n  dup2\n  mstore\n  0x04\n  add\n  tag_75\n  swap3\n  swap2\n  swap1\n  tag_151\n  jump\t// in\n    /* \"contracts/libraries/LibDiamond.sol\":7006:7326  function addFacet(DiamondStorage storage ds, address _facetAddress) internal {... */\ntag_92:\n    /* \"contracts/libraries/LibDiamond.sol\":7094:7171  enforceHasContractCode(_facetAddress, \"LibDiamondCut: New facet has no code\") */\n  tag_153\n    /* \"contracts/libraries/LibDiamond.sol\":7117:7130  _facetAddress */\n  dup2\n    /* \"contracts/libraries/LibDiamond.sol\":7094:7171  enforceHasContractCode(_facetAddress, \"LibDiamondCut: New facet has no code\") */\n  mload(0x40)\n  dup1\n  0x60\n  add\n  0x40\n  mstore\n  dup1\n  0x24\n  dup2\n  mstore\n  0x20\n  add\n  data_846ccbeb9c32d4d40d2c1bf991251db6ab65744a2f52b273947cee088a65504b\n  0x24\n  swap2\n  codecopy\n    /* \"contracts/libraries/LibDiamond.sol\":7094:7116  enforceHasContractCode */\n  tag_141\n    /* \"contracts/libraries/LibDiamond.sol\":7094:7171  enforceHasContractCode(_facetAddress, \"LibDiamondCut: New facet has no code\") */\n  jump\t// in\ntag_153:\n    /* \"contracts/libraries/LibDiamond.sol\":7246:7263  ds.facetAddresses */\n  0x02\n  dup3\n  add\n    /* \"contracts/libraries/LibDiamond.sol\":7246:7270  ds.facetAddresses.length */\n  dup1\n  sload\n  sub(shl(0xa0, 0x01), 0x01)\n    /* \"contracts/libraries/LibDiamond.sol\":7182:7222  ds.facetFunctionSelectors[_facetAddress] */\n  swap1\n  swap3\n  and\n  0x00\n  dup2\n  dup2\n  mstore\n    /* \"contracts/libraries/LibDiamond.sol\":7182:7207  ds.facetFunctionSelectors */\n  0x01\n  swap5\n  dup6\n  add\n    /* \"contracts/libraries/LibDiamond.sol\":7182:7222  ds.facetFunctionSelectors[_facetAddress] */\n  0x20\n  swap1\n  dup2\n  mstore\n  0x40\n  dup3\n  keccak256\n    /* \"contracts/libraries/LibDiamond.sol\":7182:7243  ds.facetFunctionSelectors[_facetAddress].facetAddressPosition */\n  dup7\n  add\n    /* \"contracts/libraries/LibDiamond.sol\":7182:7270  ds.facetFunctionSelectors[_facetAddress].facetAddressPosition = ds.facetAddresses.length */\n  dup6\n  swap1\n  sstore\n    /* \"contracts/libraries/LibDiamond.sol\":7281:7318  ds.facetAddresses.push(_facetAddress) */\n  swap5\n  dup5\n  add\n  dup4\n  sstore\n  swap2\n  dup3\n  mstore\n  swap3\n  swap1\n  keccak256\n  add\n  dup1\n  sload\n  not(sub(shl(0xa0, 0x01), 0x01))\n  and\n  swap1\n  swap2\n  or\n  swap1\n  sstore\n    /* \"contracts/libraries/LibDiamond.sol\":7006:7326  function addFacet(DiamondStorage storage ds, address _facetAddress) internal {... */\n  jump\t// out\n    /* \"contracts/libraries/LibDiamond.sol\":7741:9961  function removeFunction(DiamondStorage storage ds, address _facetAddress, bytes4 _selector) internal {        ... */\ntag_122:\n  sub(shl(0xa0, 0x01), 0x01)\n    /* \"contracts/libraries/LibDiamond.sol\":7869:7896  _facetAddress != address(0) */\n  dup3\n  and\n    /* \"contracts/libraries/LibDiamond.sol\":7861:7956  require(_facetAddress != address(0), \"LibDiamondCut: Can't remove function that doesn't exist\") */\n  tag_158\n  jumpi\n  mload(0x40)\n  shl(0xe5, 0x461bcd)\n  dup2\n  mstore\n    /* \"#utility.yul\":6988:6990   */\n  0x20\n    /* \"contracts/libraries/LibDiamond.sol\":7861:7956  require(_facetAddress != address(0), \"LibDiamondCut: Can't remove function that doesn't exist\") */\n  0x04\n  dup3\n  add\n    /* \"#utility.yul\":6970:6991   */\n  mstore\n    /* \"#utility.yul\":7027:7029   */\n  0x37\n    /* \"#utility.yul\":7007:7025   */\n  0x24\n  dup3\n  add\n    /* \"#utility.yul\":7000:7030   */\n  mstore\n    /* \"#utility.yul\":7066:7100   */\n  0x4c69624469616d6f6e644375743a2043616e27742072656d6f76652066756e63\n    /* \"#utility.yul\":7046:7064   */\n  0x44\n  dup3\n  add\n    /* \"#utility.yul\":7039:7101   */\n  mstore\n    /* \"#utility.yul\":7137:7162   */\n  0x74696f6e207468617420646f65736e2774206578697374000000000000000000\n    /* \"#utility.yul\":7117:7135   */\n  0x64\n  dup3\n  add\n    /* \"#utility.yul\":7110:7163   */\n  mstore\n    /* \"#utility.yul\":7180:7199   */\n  0x84\n  add\n    /* \"contracts/libraries/LibDiamond.sol\":7861:7956  require(_facetAddress != address(0), \"LibDiamondCut: Can't remove function that doesn't exist\") */\n  tag_75\n    /* \"#utility.yul\":6786:7205   */\n  jump\n    /* \"contracts/libraries/LibDiamond.sol\":7861:7956  require(_facetAddress != address(0), \"LibDiamondCut: Can't remove function that doesn't exist\") */\ntag_158:\n    /* \"contracts/libraries/LibDiamond.sol\":8078:8082  this */\n  address\n  sub(shl(0xa0, 0x01), 0x01)\n    /* \"contracts/libraries/LibDiamond.sol\":8053:8083  _facetAddress != address(this) */\n  dup4\n  and\n  sub\n    /* \"contracts/libraries/LibDiamond.sol\":8045:8134  require(_facetAddress != address(this), \"LibDiamondCut: Can't remove immutable function\") */\n  tag_161\n  jumpi\n  mload(0x40)\n  shl(0xe5, 0x461bcd)\n  dup2\n  mstore\n    /* \"#utility.yul\":7412:7414   */\n  0x20\n    /* \"contracts/libraries/LibDiamond.sol\":8045:8134  require(_facetAddress != address(this), \"LibDiamondCut: Can't remove immutable function\") */\n  0x04\n  dup3\n  add\n    /* \"#utility.yul\":7394:7415   */\n  mstore\n    /* \"#utility.yul\":7451:7453   */\n  0x2e\n    /* \"#utility.yul\":7431:7449   */\n  0x24\n  dup3\n  add\n    /* \"#utility.yul\":7424:7454   */\n  mstore\n    /* \"#utility.yul\":7490:7524   */\n  0x4c69624469616d6f6e644375743a2043616e27742072656d6f766520696d6d75\n    /* \"#utility.yul\":7470:7488   */\n  0x44\n  dup3\n  add\n    /* \"#utility.yul\":7463:7525   */\n  mstore\n  shl(0x91, 0x3a30b1363290333ab731ba34b7b7)\n    /* \"#utility.yul\":7541:7559   */\n  0x64\n  dup3\n  add\n    /* \"#utility.yul\":7534:7578   */\n  mstore\n    /* \"#utility.yul\":7595:7614   */\n  0x84\n  add\n    /* \"contracts/libraries/LibDiamond.sol\":8045:8134  require(_facetAddress != address(this), \"LibDiamondCut: Can't remove immutable function\") */\n  tag_75\n    /* \"#utility.yul\":7210:7620   */\n  jump\n    /* \"contracts/libraries/LibDiamond.sol\":8045:8134  require(_facetAddress != address(this), \"LibDiamondCut: Can't remove immutable function\") */\ntag_161:\n  not(sub(shl(0xe0, 0x01), 0x01))\n    /* \"contracts/libraries/LibDiamond.sol\":8247:8287  ds.selectorToFacetAndPosition[_selector] */\n  dup2\n  and\n    /* \"contracts/libraries/LibDiamond.sol\":8220:8244  uint256 selectorPosition */\n  0x00\n    /* \"contracts/libraries/LibDiamond.sol\":8247:8287  ds.selectorToFacetAndPosition[_selector] */\n  swap1\n  dup2\n  mstore\n  0x20\n  dup5\n  dup2\n  mstore\n  0x40\n  dup1\n  dup4\n  keccak256\n    /* \"contracts/libraries/LibDiamond.sol\":8247:8312  ds.selectorToFacetAndPosition[_selector].functionSelectorPosition */\n  sload\n  sub(shl(0xa0, 0x01), 0x01)\n    /* \"contracts/libraries/LibDiamond.sol\":8354:8394  ds.facetFunctionSelectors[_facetAddress] */\n  dup7\n  and\n  dup5\n  mstore\n    /* \"contracts/libraries/LibDiamond.sol\":8422:8423  1 */\n  0x01\n    /* \"contracts/libraries/LibDiamond.sol\":8354:8379  ds.facetFunctionSelectors */\n  dup1\n  dup9\n  add\n    /* \"contracts/libraries/LibDiamond.sol\":8354:8394  ds.facetFunctionSelectors[_facetAddress] */\n  swap1\n  swap4\n  mstore\n  swap1\n  dup4\n  keccak256\n    /* \"contracts/libraries/LibDiamond.sol\":8354:8419  ds.facetFunctionSelectors[_facetAddress].functionSelectors.length */\n  sload\n  shl(0xa0, 0x01)\n    /* \"contracts/libraries/LibDiamond.sol\":8247:8312  ds.selectorToFacetAndPosition[_selector].functionSelectorPosition */\n  swap1\n  swap2\n  div\n  sub(shl(0x60, 0x01), 0x01)\n  and\n  swap3\n    /* \"contracts/libraries/LibDiamond.sol\":8220:8244  uint256 selectorPosition */\n  swap2\n    /* \"contracts/libraries/LibDiamond.sol\":8354:8423  ds.facetFunctionSelectors[_facetAddress].functionSelectors.length - 1 */\n  tag_164\n  swap2\n  tag_165\n  jump\t// in\ntag_164:\n    /* \"contracts/libraries/LibDiamond.sol\":8323:8423  uint256 lastSelectorPosition = ds.facetFunctionSelectors[_facetAddress].functionSelectors.length - 1 */\n  swap1\n  pop\n    /* \"contracts/libraries/LibDiamond.sol\":8527:8547  lastSelectorPosition */\n  dup1\n    /* \"contracts/libraries/LibDiamond.sol\":8507:8523  selectorPosition */\n  dup3\n    /* \"contracts/libraries/LibDiamond.sol\":8507:8547  selectorPosition != lastSelectorPosition */\n  eq\n    /* \"contracts/libraries/LibDiamond.sol\":8503:8894  if (selectorPosition != lastSelectorPosition) {... */\n  tag_166\n  jumpi\n  sub(shl(0xa0, 0x01), 0x01)\n    /* \"contracts/libraries/LibDiamond.sol\":8586:8626  ds.facetFunctionSelectors[_facetAddress] */\n  dup5\n  and\n    /* \"contracts/libraries/LibDiamond.sol\":8564:8583  bytes4 lastSelector */\n  0x00\n    /* \"contracts/libraries/LibDiamond.sol\":8586:8626  ds.facetFunctionSelectors[_facetAddress] */\n  swap1\n  dup2\n  mstore\n    /* \"contracts/libraries/LibDiamond.sol\":8586:8611  ds.facetFunctionSelectors */\n  0x01\n  dup7\n  add\n    /* \"contracts/libraries/LibDiamond.sol\":8586:8626  ds.facetFunctionSelectors[_facetAddress] */\n  0x20\n  mstore\n  0x40\n  dup2\n  keccak256\n    /* \"contracts/libraries/LibDiamond.sol\":8586:8666  ds.facetFunctionSelectors[_facetAddress].functionSelectors[lastSelectorPosition] */\n  dup1\n  sload\n    /* \"contracts/libraries/LibDiamond.sol\":8645:8665  lastSelectorPosition */\n  dup4\n  swap1\n    /* \"contracts/libraries/LibDiamond.sol\":8586:8666  ds.facetFunctionSelectors[_facetAddress].functionSelectors[lastSelectorPosition] */\n  dup2\n  lt\n  tag_168\n  jumpi\n  tag_168\n  tag_20\n  jump\t// in\ntag_168:\n  0x00\n  swap2\n  dup3\n  mstore\n  0x20\n  dup1\n  dup4\n  keccak256\n  0x08\n  dup4\n  div\n  add\n  sload\n  sub(shl(0xa0, 0x01), 0x01)\n    /* \"contracts/libraries/LibDiamond.sol\":8681:8721  ds.facetFunctionSelectors[_facetAddress] */\n  dup10\n  and\n  dup5\n  mstore\n    /* \"contracts/libraries/LibDiamond.sol\":8681:8706  ds.facetFunctionSelectors */\n  0x01\n  dup11\n  add\n    /* \"contracts/libraries/LibDiamond.sol\":8681:8721  ds.facetFunctionSelectors[_facetAddress] */\n  swap1\n  swap2\n  mstore\n  0x40\n  swap1\n  swap3\n  keccak256\n    /* \"contracts/libraries/LibDiamond.sol\":8681:8757  ds.facetFunctionSelectors[_facetAddress].functionSelectors[selectorPosition] */\n  dup1\n  sload\n    /* \"contracts/libraries/LibDiamond.sol\":8586:8666  ds.facetFunctionSelectors[_facetAddress].functionSelectors[lastSelectorPosition] */\n  0x07\n  swap1\n  swap3\n  and\n  0x04\n  mul\n  0x0100\n  exp\n  swap1\n  swap3\n  div\n  0xe0\n  shl\n  swap3\n  pop\n  dup3\n  swap2\n    /* \"contracts/libraries/LibDiamond.sol\":8681:8721  ds.facetFunctionSelectors[_facetAddress] */\n  swap1\n    /* \"contracts/libraries/LibDiamond.sol\":8740:8756  selectorPosition */\n  dup6\n  swap1\n    /* \"contracts/libraries/LibDiamond.sol\":8681:8757  ds.facetFunctionSelectors[_facetAddress].functionSelectors[selectorPosition] */\n  dup2\n  lt\n  tag_171\n  jumpi\n  tag_171\n  tag_20\n  jump\t// in\ntag_171:\n  0x00\n  swap2\n  dup3\n  mstore\n  0x20\n  dup1\n  dup4\n  keccak256\n  0x08\n  dup4\n  div\n  add\n    /* \"contracts/libraries/LibDiamond.sol\":8681:8772  ds.facetFunctionSelectors[_facetAddress].functionSelectors[selectorPosition] = lastSelector */\n  dup1\n  sload\n  0xffffffff\n    /* \"contracts/libraries/LibDiamond.sol\":8681:8757  ds.facetFunctionSelectors[_facetAddress].functionSelectors[selectorPosition] */\n  0x07\n  swap1\n  swap5\n  and\n  0x04\n  mul\n    /* \"contracts/libraries/LibDiamond.sol\":8681:8772  ds.facetFunctionSelectors[_facetAddress].functionSelectors[selectorPosition] = lastSelector */\n  0x0100\n  exp\n  swap4\n  dup5\n  mul\n  not\n  and\n  0xe0\n  swap6\n  swap1\n  swap6\n  shr\n  swap3\n  swap1\n  swap3\n  mul\n  swap4\n  swap1\n  swap4\n  or\n  swap1\n  sstore\n  not(sub(shl(0xe0, 0x01), 0x01))\n    /* \"contracts/libraries/LibDiamond.sol\":8787:8830  ds.selectorToFacetAndPosition[lastSelector] */\n  swap3\n  swap1\n  swap3\n  and\n  dup3\n  mstore\n  dup7\n  swap1\n  mstore\n  0x40\n  swap1\n  keccak256\n    /* \"contracts/libraries/LibDiamond.sol\":8787:8882  ds.selectorToFacetAndPosition[lastSelector].functionSelectorPosition = uint96(selectorPosition) */\n  dup1\n  sload\n  sub(shl(0xa0, 0x01), 0x01)\n  and\n  shl(0xa0, 0x01)\n  sub(shl(0x60, 0x01), 0x01)\n  dup6\n  and\n  mul\n  or\n  swap1\n  sstore\n    /* \"contracts/libraries/LibDiamond.sol\":8503:8894  if (selectorPosition != lastSelectorPosition) {... */\ntag_166:\n  sub(shl(0xa0, 0x01), 0x01)\n    /* \"contracts/libraries/LibDiamond.sol\":8941:8981  ds.facetFunctionSelectors[_facetAddress] */\n  dup5\n  and\n  0x00\n  swap1\n  dup2\n  mstore\n    /* \"contracts/libraries/LibDiamond.sol\":8941:8966  ds.facetFunctionSelectors */\n  0x01\n  dup7\n  add\n    /* \"contracts/libraries/LibDiamond.sol\":8941:8981  ds.facetFunctionSelectors[_facetAddress] */\n  0x20\n  mstore\n  0x40\n  swap1\n  keccak256\n    /* \"contracts/libraries/LibDiamond.sol\":8941:9005  ds.facetFunctionSelectors[_facetAddress].functionSelectors.pop() */\n  dup1\n  sload\n  dup1\n  tag_174\n  jumpi\n  tag_174\n  tag_175\n  jump\t// in\ntag_174:\n  0x00\n  dup3\n  dup2\n  mstore\n  0x20\n  dup1\n  dup3\n  keccak256\n  0x08\n  not(0x00)\n  swap1\n  swap5\n  add\n  swap4\n  dup5\n  div\n  add\n  dup1\n  sload\n  0xffffffff\n  0x04\n  0x07\n  dup8\n  and\n  mul\n  0x0100\n  exp\n  mul\n  not\n  and\n  swap1\n  sstore\n  swap2\n  swap1\n  swap3\n  sstore\n  not(sub(shl(0xe0, 0x01), 0x01))\n    /* \"contracts/libraries/LibDiamond.sol\":9023:9063  ds.selectorToFacetAndPosition[_selector] */\n  dup6\n  and\n  dup3\n  mstore\n  dup7\n  swap1\n  mstore\n  0x40\n  dup2\n  keccak256\n    /* \"contracts/libraries/LibDiamond.sol\":9016:9063  delete ds.selectorToFacetAndPosition[_selector] */\n  dup2\n  swap1\n  sstore\n    /* \"contracts/libraries/LibDiamond.sol\":9161:9186  lastSelectorPosition == 0 */\n  dup2\n  swap1\n  sub\n    /* \"contracts/libraries/LibDiamond.sol\":9157:9954  if (lastSelectorPosition == 0) {... */\n  tag_94\n  jumpi\n    /* \"contracts/libraries/LibDiamond.sol\":9330:9347  ds.facetAddresses */\n  0x02\n  dup6\n  add\n    /* \"contracts/libraries/LibDiamond.sol\":9330:9354  ds.facetAddresses.length */\n  sload\n    /* \"contracts/libraries/LibDiamond.sol\":9295:9327  uint256 lastFacetAddressPosition */\n  0x00\n  swap1\n    /* \"contracts/libraries/LibDiamond.sol\":9330:9358  ds.facetAddresses.length - 1 */\n  tag_178\n  swap1\n    /* \"contracts/libraries/LibDiamond.sol\":9357:9358  1 */\n  0x01\n  swap1\n    /* \"contracts/libraries/LibDiamond.sol\":9330:9358  ds.facetAddresses.length - 1 */\n  tag_165\n  jump\t// in\ntag_178:\n  sub(shl(0xa0, 0x01), 0x01)\n    /* \"contracts/libraries/LibDiamond.sol\":9404:9444  ds.facetFunctionSelectors[_facetAddress] */\n  dup7\n  and\n    /* \"contracts/libraries/LibDiamond.sol\":9373:9401  uint256 facetAddressPosition */\n  0x00\n    /* \"contracts/libraries/LibDiamond.sol\":9404:9444  ds.facetFunctionSelectors[_facetAddress] */\n  swap1\n  dup2\n  mstore\n    /* \"contracts/libraries/LibDiamond.sol\":9404:9429  ds.facetFunctionSelectors */\n  0x01\n  dup1\n  dup10\n  add\n    /* \"contracts/libraries/LibDiamond.sol\":9404:9444  ds.facetFunctionSelectors[_facetAddress] */\n  0x20\n  mstore\n  0x40\n  swap1\n  swap2\n  keccak256\n    /* \"contracts/libraries/LibDiamond.sol\":9404:9465  ds.facetFunctionSelectors[_facetAddress].facetAddressPosition */\n  add\n  sload\n    /* \"contracts/libraries/LibDiamond.sol\":9295:9358  uint256 lastFacetAddressPosition = ds.facetAddresses.length - 1 */\n  swap1\n  swap2\n  pop\n    /* \"contracts/libraries/LibDiamond.sol\":9484:9532  facetAddressPosition != lastFacetAddressPosition */\n  dup1\n  dup3\n  eq\n    /* \"contracts/libraries/LibDiamond.sol\":9480:9822  if (facetAddressPosition != lastFacetAddressPosition) {... */\n  tag_179\n  jumpi\n    /* \"contracts/libraries/LibDiamond.sol\":9553:9577  address lastFacetAddress */\n  0x00\n    /* \"contracts/libraries/LibDiamond.sol\":9580:9582  ds */\n  dup8\n    /* \"contracts/libraries/LibDiamond.sol\":9580:9597  ds.facetAddresses */\n  0x02\n  add\n    /* \"contracts/libraries/LibDiamond.sol\":9598:9622  lastFacetAddressPosition */\n  dup4\n    /* \"contracts/libraries/LibDiamond.sol\":9580:9623  ds.facetAddresses[lastFacetAddressPosition] */\n  dup2\n  sload\n  dup2\n  lt\n  tag_181\n  jumpi\n  tag_181\n  tag_20\n  jump\t// in\ntag_181:\n  0x00\n  swap2\n  dup3\n  mstore\n  0x20\n  swap1\n  swap2\n  keccak256\n  add\n  sload\n    /* \"contracts/libraries/LibDiamond.sol\":9642:9659  ds.facetAddresses */\n  0x02\n  dup10\n  add\n    /* \"contracts/libraries/LibDiamond.sol\":9642:9681  ds.facetAddresses[facetAddressPosition] */\n  dup1\n  sload\n  sub(shl(0xa0, 0x01), 0x01)\n    /* \"contracts/libraries/LibDiamond.sol\":9580:9623  ds.facetAddresses[lastFacetAddressPosition] */\n  swap1\n  swap3\n  and\n  swap3\n  pop\n  dup3\n  swap2\n    /* \"contracts/libraries/LibDiamond.sol\":9660:9680  facetAddressPosition */\n  dup5\n  swap1\n    /* \"contracts/libraries/LibDiamond.sol\":9642:9681  ds.facetAddresses[facetAddressPosition] */\n  dup2\n  lt\n  tag_184\n  jumpi\n  tag_184\n  tag_20\n  jump\t// in\ntag_184:\n  0x00\n  swap2\n  dup3\n  mstore\n  0x20\n  dup1\n  dup4\n  keccak256\n  swap2\n  swap1\n  swap2\n  add\n    /* \"contracts/libraries/LibDiamond.sol\":9642:9700  ds.facetAddresses[facetAddressPosition] = lastFacetAddress */\n  dup1\n  sload\n  not(sub(shl(0xa0, 0x01), 0x01))\n  and\n  sub(shl(0xa0, 0x01), 0x01)\n  swap5\n  dup6\n  and\n  or\n  swap1\n  sstore\n    /* \"contracts/libraries/LibDiamond.sol\":9719:9762  ds.facetFunctionSelectors[lastFacetAddress] */\n  swap3\n  swap1\n  swap2\n  and\n  dup2\n  mstore\n  0x01\n    /* \"contracts/libraries/LibDiamond.sol\":9719:9744  ds.facetFunctionSelectors */\n  dup10\n  dup2\n  add\n    /* \"contracts/libraries/LibDiamond.sol\":9719:9762  ds.facetFunctionSelectors[lastFacetAddress] */\n  swap1\n  swap3\n  mstore\n  0x40\n  swap1\n  keccak256\n    /* \"contracts/libraries/LibDiamond.sol\":9719:9783  ds.facetFunctionSelectors[lastFacetAddress].facetAddressPosition */\n  add\n    /* \"contracts/libraries/LibDiamond.sol\":9719:9806  ds.facetFunctionSelectors[lastFacetAddress].facetAddressPosition = facetAddressPosition */\n  dup2\n  swap1\n  sstore\n    /* \"contracts/libraries/LibDiamond.sol\":9480:9822  if (facetAddressPosition != lastFacetAddressPosition) {... */\ntag_179:\n    /* \"contracts/libraries/LibDiamond.sol\":9836:9838  ds */\n  dup7\n    /* \"contracts/libraries/LibDiamond.sol\":9836:9853  ds.facetAddresses */\n  0x02\n  add\n    /* \"contracts/libraries/LibDiamond.sol\":9836:9859  ds.facetAddresses.pop() */\n  dup1\n  sload\n  dup1\n  tag_187\n  jumpi\n  tag_187\n  tag_175\n  jump\t// in\ntag_187:\n  0x00\n  dup3\n  dup2\n  mstore\n  0x20\n  dup1\n  dup3\n  keccak256\n  dup4\n  add\n  not(0x00)\n  swap1\n  dup2\n  add\n  dup1\n  sload\n  not(sub(shl(0xa0, 0x01), 0x01))\n  and\n  swap1\n  sstore\n  swap1\n  swap3\n  add\n  swap1\n  swap3\n  sstore\n  sub(shl(0xa0, 0x01), 0x01)\n    /* \"contracts/libraries/LibDiamond.sol\":9881:9921  ds.facetFunctionSelectors[_facetAddress] */\n  dup9\n  and\n  dup3\n  mstore\n    /* \"contracts/libraries/LibDiamond.sol\":9836:9859  ds.facetAddresses.pop() */\n  0x01\n    /* \"contracts/libraries/LibDiamond.sol\":9881:9906  ds.facetFunctionSelectors */\n  dup10\n  dup2\n  add\n    /* \"contracts/libraries/LibDiamond.sol\":9881:9921  ds.facetFunctionSelectors[_facetAddress] */\n  swap1\n  swap2\n  mstore\n  0x40\n  dup3\n  keccak256\n    /* \"contracts/libraries/LibDiamond.sol\":9881:9942  ds.facetFunctionSelectors[_facetAddress].facetAddressPosition */\n  add\n    /* \"contracts/libraries/LibDiamond.sol\":9874:9942  delete ds.facetFunctionSelectors[_facetAddress].facetAddressPosition */\n  sstore\n  pop\n  pop\n    /* \"contracts/libraries/LibDiamond.sol\":7842:9961  {        ... */\n  pop\n  pop\n    /* \"contracts/libraries/LibDiamond.sol\":7741:9961  function removeFunction(DiamondStorage storage ds, address _facetAddress, bytes4 _selector) internal {        ... */\n  pop\n  pop\n  pop\n  jump\t// out\n    /* \"contracts/libraries/LibDiamond.sol\":10737:11004  function enforceHasContractCode(address _contract, string memory _errorMessage) internal view {... */\ntag_141:\n    /* \"contracts/libraries/LibDiamond.sol\":10913:10935  extcodesize(_contract) */\n  dup2\n  extcodesize\n    /* \"contracts/libraries/LibDiamond.sol\":10982:10995  _errorMessage */\n  dup2\n    /* \"contracts/libraries/LibDiamond.sol\":10964:10980  contractSize > 0 */\n  dup2\n    /* \"contracts/libraries/LibDiamond.sol\":10956:10996  require(contractSize > 0, _errorMessage) */\n  tag_133\n  jumpi\n  mload(0x40)\n  shl(0xe5, 0x461bcd)\n  dup2\n  mstore\n  0x04\n  add\n  tag_75\n  swap2\n  swap1\n  tag_192\n  jump\t// in\n    /* \"#utility.yul\":14:191   */\ntag_195:\n    /* \"#utility.yul\":93:106   */\n  dup1\n  mload\n  sub(shl(0xa0, 0x01), 0x01)\n    /* \"#utility.yul\":135:166   */\n  dup2\n  and\n    /* \"#utility.yul\":125:167   */\n  dup2\n  eq\n    /* \"#utility.yul\":115:185   */\n  tag_201\n  jumpi\n    /* \"#utility.yul\":181:182   */\n  0x00\n    /* \"#utility.yul\":178:179   */\n  0x00\n    /* \"#utility.yul\":171:183   */\n  revert\n    /* \"#utility.yul\":115:185   */\ntag_201:\n    /* \"#utility.yul\":14:191   */\n  swap2\n  swap1\n  pop\n  jump\t// out\n    /* \"#utility.yul\":196:489   */\ntag_2:\n    /* \"#utility.yul\":275:281   */\n  0x00\n    /* \"#utility.yul\":283:289   */\n  0x00\n    /* \"#utility.yul\":336:338   */\n  0x40\n    /* \"#utility.yul\":324:333   */\n  dup4\n    /* \"#utility.yul\":315:322   */\n  dup6\n    /* \"#utility.yul\":311:334   */\n  sub\n    /* \"#utility.yul\":307:339   */\n  slt\n    /* \"#utility.yul\":304:356   */\n  iszero\n  tag_203\n  jumpi\n    /* \"#utility.yul\":352:353   */\n  0x00\n    /* \"#utility.yul\":349:350   */\n  0x00\n    /* \"#utility.yul\":342:354   */\n  revert\n    /* \"#utility.yul\":304:356   */\ntag_203:\n    /* \"#utility.yul\":375:415   */\n  tag_204\n    /* \"#utility.yul\":405:414   */\n  dup4\n    /* \"#utility.yul\":375:415   */\n  tag_195\n  jump\t// in\ntag_204:\n    /* \"#utility.yul\":365:415   */\n  swap2\n  pop\n    /* \"#utility.yul\":434:483   */\n  tag_205\n    /* \"#utility.yul\":479:481   */\n  0x20\n    /* \"#utility.yul\":468:477   */\n  dup5\n    /* \"#utility.yul\":464:482   */\n  add\n    /* \"#utility.yul\":434:483   */\n  tag_195\n  jump\t// in\ntag_205:\n    /* \"#utility.yul\":424:483   */\n  swap1\n  pop\n    /* \"#utility.yul\":196:489   */\n  swap3\n  pop\n  swap3\n  swap1\n  pop\n  jump\t// out\n    /* \"#utility.yul\":626:753   */\ntag_20:\n    /* \"#utility.yul\":687:697   */\n  0x4e487b71\n    /* \"#utility.yul\":682:685   */\n  0xe0\n    /* \"#utility.yul\":678:698   */\n  shl\n    /* \"#utility.yul\":675:676   */\n  0x00\n    /* \"#utility.yul\":668:699   */\n  mstore\n    /* \"#utility.yul\":718:722   */\n  0x32\n    /* \"#utility.yul\":715:716   */\n  0x04\n    /* \"#utility.yul\":708:723   */\n  mstore\n    /* \"#utility.yul\":742:746   */\n  0x24\n    /* \"#utility.yul\":739:740   */\n  0x00\n    /* \"#utility.yul\":732:747   */\n  revert\n    /* \"#utility.yul\":758:885   */\ntag_23:\n    /* \"#utility.yul\":819:829   */\n  0x4e487b71\n    /* \"#utility.yul\":814:817   */\n  0xe0\n    /* \"#utility.yul\":810:830   */\n  shl\n    /* \"#utility.yul\":807:808   */\n  0x00\n    /* \"#utility.yul\":800:831   */\n  mstore\n    /* \"#utility.yul\":850:854   */\n  0x21\n    /* \"#utility.yul\":847:848   */\n  0x04\n    /* \"#utility.yul\":840:855   */\n  mstore\n    /* \"#utility.yul\":874:878   */\n  0x24\n    /* \"#utility.yul\":871:872   */\n  0x00\n    /* \"#utility.yul\":864:879   */\n  revert\n    /* \"#utility.yul\":1407:1695   */\ntag_197:\n    /* \"#utility.yul\":1448:1451   */\n  0x00\n    /* \"#utility.yul\":1486:1491   */\n  dup2\n    /* \"#utility.yul\":1480:1492   */\n  mload\n    /* \"#utility.yul\":1513:1519   */\n  dup1\n    /* \"#utility.yul\":1508:1511   */\n  dup5\n    /* \"#utility.yul\":1501:1520   */\n  mstore\n    /* \"#utility.yul\":1569:1575   */\n  dup1\n    /* \"#utility.yul\":1562:1566   */\n  0x20\n    /* \"#utility.yul\":1555:1560   */\n  dup5\n    /* \"#utility.yul\":1551:1567   */\n  add\n    /* \"#utility.yul\":1544:1548   */\n  0x20\n    /* \"#utility.yul\":1539:1542   */\n  dup7\n    /* \"#utility.yul\":1535:1549   */\n  add\n    /* \"#utility.yul\":1529:1576   */\n  mcopy\n    /* \"#utility.yul\":1621:1622   */\n  0x00\n    /* \"#utility.yul\":1614:1618   */\n  0x20\n    /* \"#utility.yul\":1605:1611   */\n  dup3\n    /* \"#utility.yul\":1600:1603   */\n  dup7\n    /* \"#utility.yul\":1596:1612   */\n  add\n    /* \"#utility.yul\":1592:1619   */\n  add\n    /* \"#utility.yul\":1585:1623   */\n  mstore\n    /* \"#utility.yul\":1684:1688   */\n  0x20\n    /* \"#utility.yul\":1677:1679   */\n  0x1f\n    /* \"#utility.yul\":1673:1680   */\n  not\n    /* \"#utility.yul\":1668:1670   */\n  0x1f\n    /* \"#utility.yul\":1660:1666   */\n  dup4\n    /* \"#utility.yul\":1656:1671   */\n  add\n    /* \"#utility.yul\":1652:1681   */\n  and\n    /* \"#utility.yul\":1647:1650   */\n  dup6\n    /* \"#utility.yul\":1643:1682   */\n  add\n    /* \"#utility.yul\":1639:1689   */\n  add\n    /* \"#utility.yul\":1632:1689   */\n  swap2\n  pop\n  pop\n    /* \"#utility.yul\":1407:1695   */\n  swap3\n  swap2\n  pop\n  pop\n  jump\t// out\n    /* \"#utility.yul\":1700:3720   */\ntag_78:\n    /* \"#utility.yul\":1966:1970   */\n  0x00\n    /* \"#utility.yul\":2014:2016   */\n  0x60\n    /* \"#utility.yul\":2003:2012   */\n  dup3\n    /* \"#utility.yul\":1999:2017   */\n  add\n    /* \"#utility.yul\":2044:2046   */\n  0x60\n    /* \"#utility.yul\":2033:2042   */\n  dup4\n    /* \"#utility.yul\":2026:2047   */\n  mstore\n    /* \"#utility.yul\":2067:2073   */\n  dup1\n    /* \"#utility.yul\":2102:2108   */\n  dup7\n    /* \"#utility.yul\":2096:2109   */\n  mload\n    /* \"#utility.yul\":2133:2139   */\n  dup1\n    /* \"#utility.yul\":2125:2131   */\n  dup4\n    /* \"#utility.yul\":2118:2140   */\n  mstore\n    /* \"#utility.yul\":2171:2174   */\n  0x80\n    /* \"#utility.yul\":2160:2169   */\n  dup6\n    /* \"#utility.yul\":2156:2175   */\n  add\n    /* \"#utility.yul\":2149:2175   */\n  swap2\n  pop\n    /* \"#utility.yul\":2234:2237   */\n  0x80\n    /* \"#utility.yul\":2224:2230   */\n  dup2\n    /* \"#utility.yul\":2221:2222   */\n  0x05\n    /* \"#utility.yul\":2217:2231   */\n  shl\n    /* \"#utility.yul\":2206:2215   */\n  dup7\n    /* \"#utility.yul\":2202:2232   */\n  add\n    /* \"#utility.yul\":2198:2238   */\n  add\n    /* \"#utility.yul\":2184:2238   */\n  swap3\n  pop\n    /* \"#utility.yul\":2273:2277   */\n  0x20\n    /* \"#utility.yul\":2265:2271   */\n  dup9\n    /* \"#utility.yul\":2261:2278   */\n  add\n    /* \"#utility.yul\":2296:2297   */\n  0x00\n    /* \"#utility.yul\":2306:3547   */\ntag_213:\n    /* \"#utility.yul\":2320:2326   */\n  dup3\n    /* \"#utility.yul\":2317:2318   */\n  dup2\n    /* \"#utility.yul\":2314:2327   */\n  lt\n    /* \"#utility.yul\":2306:3547   */\n  iszero\n  tag_215\n  jumpi\n    /* \"#utility.yul\":2385:2407   */\n  dup7\n  dup6\n  sub\n  not(0x7f)\n    /* \"#utility.yul\":2381:2418   */\n  add\n    /* \"#utility.yul\":2369:2419   */\n  dup5\n  mstore\n    /* \"#utility.yul\":2442:2455   */\n  dup2\n  mload\n    /* \"#utility.yul\":2529:2538   */\n  dup1\n  mload\n  sub(shl(0xa0, 0x01), 0x01)\n    /* \"#utility.yul\":2525:2560   */\n  and\n    /* \"#utility.yul\":2510:2561   */\n  dup7\n  mstore\n    /* \"#utility.yul\":2608:2612   */\n  0x20\n    /* \"#utility.yul\":2600:2613   */\n  dup2\n  add\n    /* \"#utility.yul\":2594:2614   */\n  mload\n    /* \"#utility.yul\":2494:2496   */\n  0x60\n    /* \"#utility.yul\":2482:2497   */\n  dup8\n  add\n  swap1\n    /* \"#utility.yul\":2654:2655   */\n  0x03\n    /* \"#utility.yul\":2637:2656   */\n  dup2\n  lt\n    /* \"#utility.yul\":2627:2797   */\n  tag_216\n  jumpi\n    /* \"#utility.yul\":2707:2717   */\n  0x4e487b71\n    /* \"#utility.yul\":2702:2705   */\n  0xe0\n    /* \"#utility.yul\":2698:2718   */\n  shl\n    /* \"#utility.yul\":2695:2696   */\n  0x00\n    /* \"#utility.yul\":2688:2719   */\n  mstore\n    /* \"#utility.yul\":2746:2750   */\n  0x21\n    /* \"#utility.yul\":2743:2744   */\n  0x04\n    /* \"#utility.yul\":2736:2751   */\n  mstore\n    /* \"#utility.yul\":2778:2782   */\n  0x24\n    /* \"#utility.yul\":2775:2776   */\n  0x00\n    /* \"#utility.yul\":2768:2783   */\n  revert\n    /* \"#utility.yul\":2627:2797   */\ntag_216:\n    /* \"#utility.yul\":2836:2848   */\n  dup1\n    /* \"#utility.yul\":2829:2833   */\n  0x20\n    /* \"#utility.yul\":2821:2827   */\n  dup10\n    /* \"#utility.yul\":2817:2834   */\n  add\n    /* \"#utility.yul\":2810:2849   */\n  mstore\n  pop\n    /* \"#utility.yul\":2898:2902   */\n  0x40\n    /* \"#utility.yul\":2894:2896   */\n  dup3\n    /* \"#utility.yul\":2890:2903   */\n  add\n    /* \"#utility.yul\":2884:2904   */\n  mload\n    /* \"#utility.yul\":2862:2904   */\n  swap2\n  pop\n    /* \"#utility.yul\":2943:2945   */\n  0x60\n    /* \"#utility.yul\":2936:2940   */\n  0x40\n    /* \"#utility.yul\":2928:2934   */\n  dup9\n    /* \"#utility.yul\":2924:2941   */\n  add\n    /* \"#utility.yul\":2917:2946   */\n  mstore\n    /* \"#utility.yul\":2972:2978   */\n  dup1\n    /* \"#utility.yul\":3013:3027   */\n  dup3\n    /* \"#utility.yul\":3007:3028   */\n  mload\n    /* \"#utility.yul\":3056:3064   */\n  dup1\n    /* \"#utility.yul\":3048:3054   */\n  dup4\n    /* \"#utility.yul\":3041:3065   */\n  mstore\n    /* \"#utility.yul\":3099:3102   */\n  0x80\n    /* \"#utility.yul\":3091:3097   */\n  dup10\n    /* \"#utility.yul\":3087:3103   */\n  add\n    /* \"#utility.yul\":3078:3103   */\n  swap2\n  pop\n    /* \"#utility.yul\":3152:3156   */\n  0x20\n    /* \"#utility.yul\":3136:3150   */\n  dup5\n    /* \"#utility.yul\":3132:3157   */\n  add\n    /* \"#utility.yul\":3116:3157   */\n  swap4\n  pop\n    /* \"#utility.yul\":3181:3182   */\n  0x00\n    /* \"#utility.yul\":3170:3182   */\n  swap3\n  pop\n    /* \"#utility.yul\":3195:3435   */\ntag_217:\n    /* \"#utility.yul\":3211:3219   */\n  dup1\n    /* \"#utility.yul\":3206:3209   */\n  dup4\n    /* \"#utility.yul\":3203:3220   */\n  lt\n    /* \"#utility.yul\":3195:3435   */\n  iszero\n  tag_219\n  jumpi\n    /* \"#utility.yul\":3292:3307   */\n  dup4\n  mload\n  not(sub(shl(0xe0, 0x01), 0x01))\n    /* \"#utility.yul\":3288:3330   */\n  and\n    /* \"#utility.yul\":3274:3331   */\n  dup3\n  mstore\n    /* \"#utility.yul\":3368:3372   */\n  0x20\n    /* \"#utility.yul\":3402:3421   */\n  swap4\n  dup5\n  add\n  swap4\n    /* \"#utility.yul\":3239:3240   */\n  0x01\n    /* \"#utility.yul\":3230:3241   */\n  swap4\n  swap1\n  swap4\n  add\n  swap3\n    /* \"#utility.yul\":3357:3373   */\n  swap1\n  swap2\n  add\n  swap1\n    /* \"#utility.yul\":3195:3435   */\n  jump(tag_217)\ntag_219:\n  pop\n    /* \"#utility.yul\":3458:3463   */\n  swap7\n  pop\n  pop\n  pop\n    /* \"#utility.yul\":3498:3502   */\n  0x20\n    /* \"#utility.yul\":3523:3537   */\n  swap4\n  dup5\n  add\n  swap4\n    /* \"#utility.yul\":3486:3503   */\n  swap2\n  swap1\n  swap2\n  add\n  swap1\n    /* \"#utility.yul\":2342:2343   */\n  0x01\n    /* \"#utility.yul\":2335:2344   */\n  add\n    /* \"#utility.yul\":2306:3547   */\n  jump(tag_213)\ntag_215:\n  pop\n  pop\n  pop\n  sub(shl(0xa0, 0x01), 0x01)\n    /* \"#utility.yul\":1364:1395   */\n  dup7\n  and\n    /* \"#utility.yul\":3598:3602   */\n  0x20\n    /* \"#utility.yul\":3583:3603   */\n  dup6\n  add\n    /* \"#utility.yul\":1352:1396   */\n  mstore\n  pop\n    /* \"#utility.yul\":3654:3663   */\n  dup3\n    /* \"#utility.yul\":3646:3652   */\n  dup2\n    /* \"#utility.yul\":3642:3664   */\n  sub\n    /* \"#utility.yul\":3635:3639   */\n  0x40\n    /* \"#utility.yul\":3624:3633   */\n  dup5\n    /* \"#utility.yul\":3620:3640   */\n  add\n    /* \"#utility.yul\":3613:3665   */\n  mstore\n    /* \"#utility.yul\":3682:3714   */\n  tag_221\n    /* \"#utility.yul\":3707:3713   */\n  dup2\n    /* \"#utility.yul\":3699:3705   */\n  dup6\n    /* \"#utility.yul\":3682:3714   */\n  tag_197\n  jump\t// in\ntag_221:\n    /* \"#utility.yul\":3674:3714   */\n  swap7\n    /* \"#utility.yul\":1700:3720   */\n  swap6\n  pop\n  pop\n  pop\n  pop\n  pop\n  pop\n  jump\t// out\n    /* \"#utility.yul\":4972:5099   */\ntag_198:\n    /* \"#utility.yul\":5033:5043   */\n  0x4e487b71\n    /* \"#utility.yul\":5028:5031   */\n  0xe0\n    /* \"#utility.yul\":5024:5044   */\n  shl\n    /* \"#utility.yul\":5021:5022   */\n  0x00\n    /* \"#utility.yul\":5014:5045   */\n  mstore\n    /* \"#utility.yul\":5064:5068   */\n  0x11\n    /* \"#utility.yul\":5061:5062   */\n  0x04\n    /* \"#utility.yul\":5054:5069   */\n  mstore\n    /* \"#utility.yul\":5088:5092   */\n  0x24\n    /* \"#utility.yul\":5085:5086   */\n  0x00\n    /* \"#utility.yul\":5078:5093   */\n  revert\n    /* \"#utility.yul\":5104:5308   */\ntag_104:\n    /* \"#utility.yul\":5142:5145   */\n  0x00\n  sub(shl(0x60, 0x01), 0x01)\n    /* \"#utility.yul\":5175:5205   */\n  dup3\n  and\n  not(sub(shl(0x60, 0x01), 0x02))\n    /* \"#utility.yul\":5217:5248   */\n  dup2\n  add\n    /* \"#utility.yul\":5214:5271   */\n  tag_228\n  jumpi\n    /* \"#utility.yul\":5251:5269   */\n  tag_228\n  tag_198\n  jump\t// in\ntag_228:\n    /* \"#utility.yul\":5300:5301   */\n  0x01\n    /* \"#utility.yul\":5287:5302   */\n  add\n  swap3\n    /* \"#utility.yul\":5104:5308   */\n  swap2\n  pop\n  pop\n  jump\t// out\n    /* \"#utility.yul\":6161:6462   */\ntag_143:\n    /* \"#utility.yul\":6290:6293   */\n  0x00\n    /* \"#utility.yul\":6328:6334   */\n  dup3\n    /* \"#utility.yul\":6322:6335   */\n  mload\n    /* \"#utility.yul\":6374:6380   */\n  dup1\n    /* \"#utility.yul\":6367:6371   */\n  0x20\n    /* \"#utility.yul\":6359:6365   */\n  dup6\n    /* \"#utility.yul\":6355:6372   */\n  add\n    /* \"#utility.yul\":6350:6353   */\n  dup5\n    /* \"#utility.yul\":6344:6381   */\n  mcopy\n    /* \"#utility.yul\":6436:6437   */\n  0x00\n    /* \"#utility.yul\":6400:6416   */\n  swap3\n  add\n    /* \"#utility.yul\":6425:6438   */\n  swap2\n  dup3\n  mstore\n  pop\n    /* \"#utility.yul\":6400:6416   */\n  swap2\n    /* \"#utility.yul\":6161:6462   */\n  swap1\n  pop\n  jump\t// out\n    /* \"#utility.yul\":6467:6781   */\ntag_151:\n  sub(shl(0xa0, 0x01), 0x01)\n    /* \"#utility.yul\":6642:6674   */\n  dup4\n  and\n    /* \"#utility.yul\":6624:6675   */\n  dup2\n  mstore\n    /* \"#utility.yul\":6711:6713   */\n  0x40\n    /* \"#utility.yul\":6706:6708   */\n  0x20\n    /* \"#utility.yul\":6691:6709   */\n  dup3\n  add\n    /* \"#utility.yul\":6684:6714   */\n  dup2\n  swap1\n  mstore\n  0x00\n  swap1\n    /* \"#utility.yul\":6731:6775   */\n  tag_233\n  swap1\n    /* \"#utility.yul\":6756:6774   */\n  dup4\n  add\n    /* \"#utility.yul\":6748:6754   */\n  dup5\n    /* \"#utility.yul\":6731:6775   */\n  tag_197\n  jump\t// in\ntag_233:\n    /* \"#utility.yul\":6723:6775   */\n  swap5\n    /* \"#utility.yul\":6467:6781   */\n  swap4\n  pop\n  pop\n  pop\n  pop\n  jump\t// out\n    /* \"#utility.yul\":7625:7753   */\ntag_165:\n    /* \"#utility.yul\":7692:7701   */\n  dup2\n  dup2\n  sub\n    /* \"#utility.yul\":7713:7724   */\n  dup2\n  dup2\n  gt\n    /* \"#utility.yul\":7710:7747   */\n  iszero\n  tag_238\n  jumpi\n    /* \"#utility.yul\":7727:7745   */\n  tag_238\n  tag_198\n  jump\t// in\ntag_238:\n    /* \"#utility.yul\":7625:7753   */\n  swap3\n  swap2\n  pop\n  pop\n  jump\t// out\n    /* \"#utility.yul\":7758:7885   */\ntag_175:\n    /* \"#utility.yul\":7819:7829   */\n  0x4e487b71\n    /* \"#utility.yul\":7814:7817   */\n  0xe0\n    /* \"#utility.yul\":7810:7830   */\n  shl\n    /* \"#utility.yul\":7807:7808   */\n  0x00\n    /* \"#utility.yul\":7800:7831   */\n  mstore\n    /* \"#utility.yul\":7850:7854   */\n  0x31\n    /* \"#utility.yul\":7847:7848   */\n  0x04\n    /* \"#utility.yul\":7840:7855   */\n  mstore\n    /* \"#utility.yul\":7874:7878   */\n  0x24\n    /* \"#utility.yul\":7871:7872   */\n  0x00\n    /* \"#utility.yul\":7864:7879   */\n  revert\n    /* \"#utility.yul\":7890:8109   */\ntag_192:\n    /* \"#utility.yul\":8039:8041   */\n  0x20\n    /* \"#utility.yul\":8028:8037   */\n  dup2\n    /* \"#utility.yul\":8021:8042   */\n  mstore\n    /* \"#utility.yul\":8002:8006   */\n  0x00\n    /* \"#utility.yul\":8059:8103   */\n  tag_241\n    /* \"#utility.yul\":8099:8101   */\n  0x20\n    /* \"#utility.yul\":8088:8097   */\n  dup4\n    /* \"#utility.yul\":8084:8102   */\n  add\n    /* \"#utility.yul\":8076:8082   */\n  dup5\n    /* \"#utility.yul\":8059:8103   */\n  tag_197\n  jump\t// in\ntag_241:\n    /* \"#utility.yul\":8051:8103   */\n  swap4\n    /* \"#utility.yul\":7890:8109   */\n  swap3\n  pop\n  pop\n  pop\n  jump\t// out\ntag_199:\n    /* \"contracts/T2G_root.sol\":1328:2563  contract T2G_root is Diamond {... */\n  dataSize(sub_0)\n  dup1\n  dataOffset(sub_0)\n  0x00\n  codecopy\n  0x00\n  return\nstop\ndata_1ac25121ac50ee96730ac9ae618ddfea240cf59a9860f34e3db50d8def79c035 c8fcad8db84d3cc18b4c41d551ea0ee66dd599cde068d998e57d5e09332c131c\ndata_460f8f0920c649146ef02741816b1cf9ce4f02ea288ceb73adf027cefe9069a0 4c69624469616d6f6e644375743a205f696e6974206164647265737320686173206e6f20636f6465\ndata_5fa5c068a317e88499bc559323e1ff95bb74759dc0609ba03d5281082008ea42 4c69624469616d6f6e644375743a204164642066616365742063616e27742062\ndata_846ccbeb9c32d4d40d2c1bf991251db6ab65744a2f52b273947cee088a65504b 4c69624469616d6f6e644375743a204e657720666163657420686173206e6f20636f6465\ndata_ef6ab6a2a8a2da01fe010ebde85afcb72a60b2c7c9acd06f2affb5f0f96595b1 4c69624469616d6f6e644375743a204e6f2073656c6563746f727320696e2066\n\nsub_0: assembly {\n        /* \"contracts/T2G_root.sol\":1328:2563  contract T2G_root is Diamond {... */\n      mstore(0x40, 0x80)\n      jumpi(tag_1, lt(calldatasize, 0x04))\n      shr(0xe0, calldataload(0x00))\n      dup1\n      0x046e71e6\n      eq\n      tag_3\n      jumpi\n      jump(tag_2)\n    tag_1:\n      jumpi(tag_2, calldatasize)\n      stop\n    tag_2:\n        /* \"contracts/Diamond.sol\":1364:1400  LibDiamond.DiamondStorage storage ds */\n      0x00\n        /* \"contracts/Diamond.sol\":1667:1674  msg.sig */\n      dup1\n      calldataload\n      not(sub(shl(0xe0, 0x01), 0x01))\n      and\n        /* \"contracts/Diamond.sol\":1637:1675  ds.selectorToFacetAndPosition[msg.sig] */\n      dup2\n      mstore\n        /* \"contracts/libraries/LibDiamond.sol\":751:796  keccak256(\"diamond.standard.diamond.storage\") */\n      0xc8fcad8db84d3cc18b4c41d551ea0ee66dd599cde068d998e57d5e09332c131c\n        /* \"contracts/Diamond.sol\":1637:1675  ds.selectorToFacetAndPosition[msg.sig] */\n      0x20\n      dup2\n      swap1\n      mstore\n      0x40\n      swap1\n      swap2\n      keccak256\n        /* \"contracts/Diamond.sol\":1637:1688  ds.selectorToFacetAndPosition[msg.sig].facetAddress */\n      sload\n        /* \"contracts/libraries/LibDiamond.sol\":751:796  keccak256(\"diamond.standard.diamond.storage\") */\n      dup2\n      swap1\n      sub(shl(0xa0, 0x01), 0x01)\n        /* \"contracts/Diamond.sol\":1637:1688  ds.selectorToFacetAndPosition[msg.sig].facetAddress */\n      and\n      dup1\n        /* \"contracts/Diamond.sol\":1699:1763  require(facet != address(0), \"Diamond: Function does not exist\") */\n      tag_8\n      jumpi\n      mload(0x40)\n      shl(0xe5, 0x461bcd)\n      dup2\n      mstore\n        /* \"#utility.yul\":216:218   */\n      0x20\n        /* \"contracts/Diamond.sol\":1699:1763  require(facet != address(0), \"Diamond: Function does not exist\") */\n      0x04\n      dup3\n      add\n        /* \"#utility.yul\":198:219   */\n      dup2\n      swap1\n      mstore\n        /* \"#utility.yul\":235:253   */\n      0x24\n      dup3\n      add\n        /* \"#utility.yul\":228:258   */\n      mstore\n        /* \"#utility.yul\":294:328   */\n      0x4469616d6f6e643a2046756e6374696f6e20646f6573206e6f74206578697374\n        /* \"#utility.yul\":274:292   */\n      0x44\n      dup3\n      add\n        /* \"#utility.yul\":267:329   */\n      mstore\n        /* \"#utility.yul\":346:364   */\n      0x64\n      add\n        /* \"contracts/Diamond.sol\":1699:1763  require(facet != address(0), \"Diamond: Function does not exist\") */\n      mload(0x40)\n      dup1\n      swap2\n      sub\n      swap1\n      revert\n    tag_8:\n        /* \"contracts/Diamond.sol\":1968:1982  calldatasize() */\n      calldatasize\n        /* \"contracts/Diamond.sol\":1965:1966  0 */\n      0x00\n        /* \"contracts/Diamond.sol\":1962:1963  0 */\n      0x00\n        /* \"contracts/Diamond.sol\":1949:1983  calldatacopy(0, 0, calldatasize()) */\n      calldatacopy\n        /* \"contracts/Diamond.sol\":2115:2116  0 */\n      0x00\n        /* \"contracts/Diamond.sol\":2112:2113  0 */\n      0x00\n        /* \"contracts/Diamond.sol\":2096:2110  calldatasize() */\n      calldatasize\n        /* \"contracts/Diamond.sol\":2093:2094  0 */\n      0x00\n        /* \"contracts/Diamond.sol\":2086:2091  facet */\n      dup5\n        /* \"contracts/Diamond.sol\":2079:2084  gas() */\n      gas\n        /* \"contracts/Diamond.sol\":2066:2117  delegatecall(gas(), facet, 0, calldatasize(), 0, 0) */\n      delegatecall\n        /* \"contracts/Diamond.sol\":2189:2205  returndatasize() */\n      returndatasize\n        /* \"contracts/Diamond.sol\":2186:2187  0 */\n      0x00\n        /* \"contracts/Diamond.sol\":2183:2184  0 */\n      0x00\n        /* \"contracts/Diamond.sol\":2168:2206  returndatacopy(0, 0, returndatasize()) */\n      returndatacopy\n        /* \"contracts/Diamond.sol\":2295:2301  result */\n      dup1\n        /* \"contracts/Diamond.sol\":2319:2395  case 0 {... */\n      dup1\n      iszero\n      tag_12\n      jumpi\n        /* \"contracts/Diamond.sol\":2454:2470  returndatasize() */\n      returndatasize\n        /* \"contracts/Diamond.sol\":2451:2452  0 */\n      0x00\n        /* \"contracts/Diamond.sol\":2444:2471  return(0, returndatasize()) */\n      return\n        /* \"contracts/Diamond.sol\":2319:2395  case 0 {... */\n    tag_12:\n        /* \"contracts/Diamond.sol\":2359:2375  returndatasize() */\n      returndatasize\n        /* \"contracts/Diamond.sol\":2356:2357  0 */\n      0x00\n        /* \"contracts/Diamond.sol\":2349:2376  revert(0, returndatasize()) */\n      revert\n        /* \"contracts/T2G_root.sol\":1426:1518  function beacon_T2G_Root() public pure returns (string memory) { return \"T2G_root::1.0.0\"; } */\n    tag_3:\n      callvalue\n      dup1\n      iszero\n      tag_13\n      jumpi\n      revert(0x00, 0x00)\n    tag_13:\n      pop\n        /* \"contracts/T2G_root.sol\":1491:1515  return \"T2G_root::1.0.0\" */\n      0x40\n      dup1\n      mload\n      dup1\n      dup3\n      add\n      dup3\n      mstore\n      0x0f\n      dup2\n      mstore\n      shl(0x8c, 0x05432475f726f6f743a3a312e302e3)\n      0x20\n      dup3\n      add\n      mstore\n        /* \"contracts/T2G_root.sol\":1426:1518  function beacon_T2G_Root() public pure returns (string memory) { return \"T2G_root::1.0.0\"; } */\n      swap1\n      mload\n      tag_16\n      swap2\n        /* \"contracts/T2G_root.sol\":1491:1515  return \"T2G_root::1.0.0\" */\n      swap1\n        /* \"contracts/T2G_root.sol\":1426:1518  function beacon_T2G_Root() public pure returns (string memory) { return \"T2G_root::1.0.0\"; } */\n      tag_17\n      jump\t// in\n    tag_16:\n      mload(0x40)\n      dup1\n      swap2\n      sub\n      swap1\n      return\n        /* \"#utility.yul\":375:793   */\n    tag_17:\n        /* \"#utility.yul\":524:526   */\n      0x20\n        /* \"#utility.yul\":513:522   */\n      dup2\n        /* \"#utility.yul\":506:527   */\n      mstore\n        /* \"#utility.yul\":487:491   */\n      0x00\n        /* \"#utility.yul\":556:562   */\n      dup3\n        /* \"#utility.yul\":550:563   */\n      mload\n        /* \"#utility.yul\":599:605   */\n      dup1\n        /* \"#utility.yul\":594:596   */\n      0x20\n        /* \"#utility.yul\":583:592   */\n      dup5\n        /* \"#utility.yul\":579:597   */\n      add\n        /* \"#utility.yul\":572:606   */\n      mstore\n        /* \"#utility.yul\":658:664   */\n      dup1\n        /* \"#utility.yul\":653:655   */\n      0x20\n        /* \"#utility.yul\":645:651   */\n      dup6\n        /* \"#utility.yul\":641:656   */\n      add\n        /* \"#utility.yul\":636:638   */\n      0x40\n        /* \"#utility.yul\":625:634   */\n      dup6\n        /* \"#utility.yul\":621:639   */\n      add\n        /* \"#utility.yul\":615:665   */\n      mcopy\n        /* \"#utility.yul\":714:715   */\n      0x00\n        /* \"#utility.yul\":709:711   */\n      0x40\n        /* \"#utility.yul\":700:706   */\n      dup3\n        /* \"#utility.yul\":689:698   */\n      dup6\n        /* \"#utility.yul\":685:707   */\n      add\n        /* \"#utility.yul\":681:712   */\n      add\n        /* \"#utility.yul\":674:716   */\n      mstore\n        /* \"#utility.yul\":784:786   */\n      0x40\n        /* \"#utility.yul\":777:779   */\n      0x1f\n        /* \"#utility.yul\":773:780   */\n      not\n        /* \"#utility.yul\":768:770   */\n      0x1f\n        /* \"#utility.yul\":760:766   */\n      dup4\n        /* \"#utility.yul\":756:771   */\n      add\n        /* \"#utility.yul\":752:781   */\n      and\n        /* \"#utility.yul\":741:750   */\n      dup5\n        /* \"#utility.yul\":737:782   */\n      add\n        /* \"#utility.yul\":733:787   */\n      add\n        /* \"#utility.yul\":725:787   */\n      swap2\n      pop\n      pop\n        /* \"#utility.yul\":375:793   */\n      swap3\n      swap2\n      pop\n      pop\n      jump\t// out\n\n    auxdata: 0xa2646970667358221220f4d79b3519aa0e3dc174e2b634cc39f24214e252f6738b0f4aa55a8e9894fc4e64736f6c634300081b0033\n}\n",
				"bytecode": {
					"linkReferences": {},
					"object": "60806040526040516113a43803806113a483398101604081905261002291610f06565b818161002d82610132565b6040805160018082528183019092525f91816020015b60408051606080820183525f8083526020830152918101919091528152602001906001900390816100435750506040805160018082528183019092529192505f919060208083019080368337019050509050631f931c1c60e01b815f815181106100af576100af610f37565b6001600160e01b031990921660209283029190910182015260408051606081019091526001600160a01b03851681529081015f815260200182815250825f815181106100fd576100fd610f37565b6020026020010181905250610127825f60405180602001604052805f8152506101b360201b60201c565b50505050505061115d565b7fc8fcad8db84d3cc18b4c41d551ea0ee66dd599cde068d998e57d5e09332c132080546001600160a01b031981166001600160a01b038481169182179093556040515f5160206112f85f395f51905f52939092169182907f8be0079c531659141344cd1fd0a4f28419497f9722a3daafe3b4186f6b6457e0905f90a3505050565b5f5b8351811015610380575f8482815181106101d1576101d1610f37565b60200260200101516020015190505f60028111156101f1576101f1610f4b565b81600281111561020357610203610f4b565b036102565761025185838151811061021d5761021d610f37565b60200260200101515f015186848151811061023a5761023a610f37565b6020026020010151604001516103cb60201b60201c565b610377565b600181600281111561026a5761026a610f4b565b036102b85761025185838151811061028457610284610f37565b60200260200101515f01518684815181106102a1576102a1610f37565b60200260200101516040015161063360201b60201c565b60028160028111156102cc576102cc610f4b565b0361031a576102518583815181106102e6576102e6610f37565b60200260200101515f015186848151811061030357610303610f37565b6020026020010151604001516108a460201b60201c565b60405162461bcd60e51b815260206004820152602760248201527f4c69624469616d6f6e644375743a20496e636f727265637420466163657443756044820152663a20b1ba34b7b760c91b60648201526084015b60405180910390fd5b506001016101b5565b507f8faa70878671ccd212d20771b795c50af8fd3ff6cf27f4bde57e5d4de0aeb6738383836040516103b493929190610f8d565b60405180910390a16103c682826109ea565b505050565b5f81511161041c5760405162461bcd60e51b815260206004820152602b60248201525f5160206113845f395f51905f5260448201526a1858d95d081d1bc818dd5d60aa1b606482015260840161036e565b5f5160206112f85f395f51905f526001600160a01b0383166104825760405162461bcd60e51b815260206004820152602c60248201525f5160206113405f395f51905f5260448201526b65206164647265737328302960a01b606482015260840161036e565b6001600160a01b0383165f908152600182016020526040812054906001600160601b03821690036104b7576104b78285610aac565b5f5b835181101561062c575f8482815181106104d5576104d5610f37565b6020908102919091018101516001600160e01b031981165f908152918690526040909120549091506001600160a01b0316801561057a5760405162461bcd60e51b815260206004820152603560248201527f4c69624469616d6f6e644375743a2043616e2774206164642066756e6374696f60448201527f6e207468617420616c7265616479206578697374730000000000000000000000606482015260840161036e565b6001600160e01b031982165f8181526020878152604080832080546001600160a01b03908116600160a01b6001600160601b038c16021782558c168085526001808c0185529285208054938401815585528385206008840401805463ffffffff60079095166004026101000a948502191660e08a901c94909402939093179092559390925287905281546001600160a01b0319161790558361061b816110ab565b945050600190920191506104b99050565b5050505050565b5f8151116106845760405162461bcd60e51b815260206004820152602b60248201525f5160206113845f395f51905f5260448201526a1858d95d081d1bc818dd5d60aa1b606482015260840161036e565b5f5160206112f85f395f51905f526001600160a01b0383166106ea5760405162461bcd60e51b815260206004820152602c60248201525f5160206113405f395f51905f5260448201526b65206164647265737328302960a01b606482015260840161036e565b6001600160a01b0383165f908152600182016020526040812054906001600160601b038216900361071f5761071f8285610aac565b5f5b835181101561062c575f84828151811061073d5761073d610f37565b6020908102919091018101516001600160e01b031981165f908152918690526040909120549091506001600160a01b0390811690871681036107e75760405162461bcd60e51b815260206004820152603860248201527f4c69624469616d6f6e644375743a2043616e2774207265706c6163652066756e60448201527f6374696f6e20776974682073616d652066756e6374696f6e0000000000000000606482015260840161036e565b6107f2858284610b15565b6001600160e01b031982165f8181526020878152604080832080546001600160a01b03908116600160a01b6001600160601b038c16021782558c168085526001808c0185529285208054938401815585528385206008840401805463ffffffff60079095166004026101000a948502191660e08a901c94909402939093179092559390925287905281546001600160a01b03191617905583610893816110ab565b945050600190920191506107219050565b5f8151116108f55760405162461bcd60e51b815260206004820152602b60248201525f5160206113845f395f51905f5260448201526a1858d95d081d1bc818dd5d60aa1b606482015260840161036e565b5f5160206112f85f395f51905f526001600160a01b038316156109805760405162461bcd60e51b815260206004820152603660248201527f4c69624469616d6f6e644375743a2052656d6f7665206661636574206164647260448201527f657373206d757374206265206164647265737328302900000000000000000000606482015260840161036e565b5f5b82518110156109e4575f83828151811061099e5761099e610f37565b6020908102919091018101516001600160e01b031981165f908152918590526040909120549091506001600160a01b03166109da848284610b15565b5050600101610982565b50505050565b6001600160a01b0382166109fc575050565b610a1e8260405180606001604052806028815260200161131860289139610eca565b5f5f836001600160a01b031683604051610a3891906110d6565b5f60405180830381855af49150503d805f8114610a70576040519150601f19603f3d011682016040523d82523d5f602084013e610a75565b606091505b5091509150816109e457805115610a8f5780518082602001fd5b838360405163192105d760e01b815260040161036e9291906110ec565b610ace8160405180606001604052806024815260200161136060249139610eca565b6002820180546001600160a01b039092165f8181526001948501602090815260408220860185905594840183559182529290200180546001600160a01b0319169091179055565b6001600160a01b038216610b915760405162461bcd60e51b815260206004820152603760248201527f4c69624469616d6f6e644375743a2043616e27742072656d6f76652066756e6360448201527f74696f6e207468617420646f65736e2774206578697374000000000000000000606482015260840161036e565b306001600160a01b03831603610c005760405162461bcd60e51b815260206004820152602e60248201527f4c69624469616d6f6e644375743a2043616e27742072656d6f766520696d6d7560448201526d3a30b1363290333ab731ba34b7b760911b606482015260840161036e565b6001600160e01b031981165f90815260208481526040808320546001600160a01b0386168452600180880190935290832054600160a01b9091046001600160601b03169291610c4e91611117565b9050808214610d3d576001600160a01b0384165f9081526001860160205260408120805483908110610c8257610c82610f37565b5f91825260208083206008830401546001600160a01b038916845260018a019091526040909220805460079092166004026101000a90920460e01b925082919085908110610cd257610cd2610f37565b5f91825260208083206008830401805463ffffffff60079094166004026101000a938402191660e09590951c929092029390931790556001600160e01b03199290921682528690526040902080546001600160a01b0316600160a01b6001600160601b038516021790555b6001600160a01b0384165f9081526001860160205260409020805480610d6557610d65611130565b5f828152602080822060085f1990940193840401805463ffffffff600460078716026101000a0219169055919092556001600160e01b0319851682528690526040812081905581900361062c5760028501545f90610dc590600190611117565b6001600160a01b0386165f908152600180890160205260409091200154909150808214610e70575f876002018381548110610e0257610e02610f37565b5f918252602090912001546002890180546001600160a01b039092169250829184908110610e3257610e32610f37565b5f91825260208083209190910180546001600160a01b0319166001600160a01b03948516179055929091168152600189810190925260409020018190555b86600201805480610e8357610e83611130565b5f828152602080822083015f1990810180546001600160a01b03191690559092019092556001600160a01b0388168252600189810190915260408220015550505050505050565b813b81816109e45760405162461bcd60e51b815260040161036e9190611144565b80516001600160a01b0381168114610f01575f5ffd5b919050565b5f5f60408385031215610f17575f5ffd5b610f2083610eeb565b9150610f2e60208401610eeb565b90509250929050565b634e487b7160e01b5f52603260045260245ffd5b634e487b7160e01b5f52602160045260245ffd5b5f81518084528060208401602086015e5f602082860101526020601f19601f83011685010191505092915050565b5f606082016060835280865180835260808501915060808160051b8601019250602088015f5b8281101561106857868503607f19018452815180516001600160a01b031686526020810151606087019060038110610ff957634e487b7160e01b5f52602160045260245ffd5b8060208901525060408201519150606060408801528082518083526080890191506020840193505f92505b808310156110505783516001600160e01b03191682526020938401936001939093019290910190611024565b50965050506020938401939190910190600101610fb3565b5050506001600160a01b038616602085015250828103604084015261108d8185610f5f565b9695505050505050565b634e487b7160e01b5f52601160045260245ffd5b5f6001600160601b0382166002600160601b031981016110cd576110cd611097565b60010192915050565b5f82518060208501845e5f920191825250919050565b6001600160a01b03831681526040602082018190525f9061110f90830184610f5f565b949350505050565b8181038181111561112a5761112a611097565b92915050565b634e487b7160e01b5f52603160045260245ffd5b602081525f6111566020830184610f5f565b9392505050565b61018e8061116a5f395ff3fe608060405260043610610021575f3560e01c8063046e71e6146100dd57610028565b3661002857005b5f80356001600160e01b03191681527fc8fcad8db84d3cc18b4c41d551ea0ee66dd599cde068d998e57d5e09332c131c602081905260409091205481906001600160a01b0316806100bf5760405162461bcd60e51b815260206004820181905260248201527f4469616d6f6e643a2046756e6374696f6e20646f6573206e6f74206578697374604482015260640160405180910390fd5b365f5f375f5f365f845af43d5f5f3e8080156100d9573d5ff35b3d5ffd5b3480156100e8575f5ffd5b50604080518082018252600f81526e05432475f726f6f743a3a312e302e3608c1b6020820152905161011a9190610123565b60405180910390f35b602081525f82518060208401528060208501604085015e5f604082850101526040601f19601f8301168401019150509291505056fea2646970667358221220f4d79b3519aa0e3dc174e2b634cc39f24214e252f6738b0f4aa55a8e9894fc4e64736f6c634300081b0033c8fcad8db84d3cc18b4c41d551ea0ee66dd599cde068d998e57d5e09332c131c4c69624469616d6f6e644375743a205f696e6974206164647265737320686173206e6f20636f64654c69624469616d6f6e644375743a204164642066616365742063616e277420624c69624469616d6f6e644375743a204e657720666163657420686173206e6f20636f64654c69624469616d6f6e644375743a204e6f2073656c6563746f727320696e2066",
					"opcodes": "PUSH1 0x80 PUSH1 0x40 MSTORE PUSH1 0x40 MLOAD PUSH2 0x13A4 CODESIZE SUB DUP1 PUSH2 0x13A4 DUP4 CODECOPY DUP2 ADD PUSH1 0x40 DUP2 SWAP1 MSTORE PUSH2 0x22 SWAP2 PUSH2 0xF06 JUMP JUMPDEST DUP2 DUP2 PUSH2 0x2D DUP3 PUSH2 0x132 JUMP JUMPDEST PUSH1 0x40 DUP1 MLOAD PUSH1 0x1 DUP1 DUP3 MSTORE DUP2 DUP4 ADD SWAP1 SWAP3 MSTORE PUSH0 SWAP2 DUP2 PUSH1 0x20 ADD JUMPDEST PUSH1 0x40 DUP1 MLOAD PUSH1 0x60 DUP1 DUP3 ADD DUP4 MSTORE PUSH0 DUP1 DUP4 MSTORE PUSH1 0x20 DUP4 ADD MSTORE SWAP2 DUP2 ADD SWAP2 SWAP1 SWAP2 MSTORE DUP2 MSTORE PUSH1 0x20 ADD SWAP1 PUSH1 0x1 SWAP1 SUB SWAP1 DUP2 PUSH2 0x43 JUMPI POP POP PUSH1 0x40 DUP1 MLOAD PUSH1 0x1 DUP1 DUP3 MSTORE DUP2 DUP4 ADD SWAP1 SWAP3 MSTORE SWAP2 SWAP3 POP PUSH0 SWAP2 SWAP1 PUSH1 0x20 DUP1 DUP4 ADD SWAP1 DUP1 CALLDATASIZE DUP4 CALLDATACOPY ADD SWAP1 POP POP SWAP1 POP PUSH4 0x1F931C1C PUSH1 0xE0 SHL DUP2 PUSH0 DUP2 MLOAD DUP2 LT PUSH2 0xAF JUMPI PUSH2 0xAF PUSH2 0xF37 JUMP JUMPDEST PUSH1 0x1 PUSH1 0x1 PUSH1 0xE0 SHL SUB NOT SWAP1 SWAP3 AND PUSH1 0x20 SWAP3 DUP4 MUL SWAP2 SWAP1 SWAP2 ADD DUP3 ADD MSTORE PUSH1 0x40 DUP1 MLOAD PUSH1 0x60 DUP2 ADD SWAP1 SWAP2 MSTORE PUSH1 0x1 PUSH1 0x1 PUSH1 0xA0 SHL SUB DUP6 AND DUP2 MSTORE SWAP1 DUP2 ADD PUSH0 DUP2 MSTORE PUSH1 0x20 ADD DUP3 DUP2 MSTORE POP DUP3 PUSH0 DUP2 MLOAD DUP2 LT PUSH2 0xFD JUMPI PUSH2 0xFD PUSH2 0xF37 JUMP JUMPDEST PUSH1 0x20 MUL PUSH1 0x20 ADD ADD DUP2 SWAP1 MSTORE POP PUSH2 0x127 DUP3 PUSH0 PUSH1 0x40 MLOAD DUP1 PUSH1 0x20 ADD PUSH1 0x40 MSTORE DUP1 PUSH0 DUP2 MSTORE POP PUSH2 0x1B3 PUSH1 0x20 SHL PUSH1 0x20 SHR JUMP JUMPDEST POP POP POP POP POP POP PUSH2 0x115D JUMP JUMPDEST PUSH32 0xC8FCAD8DB84D3CC18B4C41D551EA0EE66DD599CDE068D998E57D5E09332C1320 DUP1 SLOAD PUSH1 0x1 PUSH1 0x1 PUSH1 0xA0 SHL SUB NOT DUP2 AND PUSH1 0x1 PUSH1 0x1 PUSH1 0xA0 SHL SUB DUP5 DUP2 AND SWAP2 DUP3 OR SWAP1 SWAP4 SSTORE PUSH1 0x40 MLOAD PUSH0 MLOAD PUSH1 0x20 PUSH2 0x12F8 PUSH0 CODECOPY PUSH0 MLOAD SWAP1 PUSH0 MSTORE SWAP4 SWAP1 SWAP3 AND SWAP2 DUP3 SWAP1 PUSH32 0x8BE0079C531659141344CD1FD0A4F28419497F9722A3DAAFE3B4186F6B6457E0 SWAP1 PUSH0 SWAP1 LOG3 POP POP POP JUMP JUMPDEST PUSH0 JUMPDEST DUP4 MLOAD DUP2 LT ISZERO PUSH2 0x380 JUMPI PUSH0 DUP5 DUP3 DUP2 MLOAD DUP2 LT PUSH2 0x1D1 JUMPI PUSH2 0x1D1 PUSH2 0xF37 JUMP JUMPDEST PUSH1 0x20 MUL PUSH1 0x20 ADD ADD MLOAD PUSH1 0x20 ADD MLOAD SWAP1 POP PUSH0 PUSH1 0x2 DUP2 GT ISZERO PUSH2 0x1F1 JUMPI PUSH2 0x1F1 PUSH2 0xF4B JUMP JUMPDEST DUP2 PUSH1 0x2 DUP2 GT ISZERO PUSH2 0x203 JUMPI PUSH2 0x203 PUSH2 0xF4B JUMP JUMPDEST SUB PUSH2 0x256 JUMPI PUSH2 0x251 DUP6 DUP4 DUP2 MLOAD DUP2 LT PUSH2 0x21D JUMPI PUSH2 0x21D PUSH2 0xF37 JUMP JUMPDEST PUSH1 0x20 MUL PUSH1 0x20 ADD ADD MLOAD PUSH0 ADD MLOAD DUP7 DUP5 DUP2 MLOAD DUP2 LT PUSH2 0x23A JUMPI PUSH2 0x23A PUSH2 0xF37 JUMP JUMPDEST PUSH1 0x20 MUL PUSH1 0x20 ADD ADD MLOAD PUSH1 0x40 ADD MLOAD PUSH2 0x3CB PUSH1 0x20 SHL PUSH1 0x20 SHR JUMP JUMPDEST PUSH2 0x377 JUMP JUMPDEST PUSH1 0x1 DUP2 PUSH1 0x2 DUP2 GT ISZERO PUSH2 0x26A JUMPI PUSH2 0x26A PUSH2 0xF4B JUMP JUMPDEST SUB PUSH2 0x2B8 JUMPI PUSH2 0x251 DUP6 DUP4 DUP2 MLOAD DUP2 LT PUSH2 0x284 JUMPI PUSH2 0x284 PUSH2 0xF37 JUMP JUMPDEST PUSH1 0x20 MUL PUSH1 0x20 ADD ADD MLOAD PUSH0 ADD MLOAD DUP7 DUP5 DUP2 MLOAD DUP2 LT PUSH2 0x2A1 JUMPI PUSH2 0x2A1 PUSH2 0xF37 JUMP JUMPDEST PUSH1 0x20 MUL PUSH1 0x20 ADD ADD MLOAD PUSH1 0x40 ADD MLOAD PUSH2 0x633 PUSH1 0x20 SHL PUSH1 0x20 SHR JUMP JUMPDEST PUSH1 0x2 DUP2 PUSH1 0x2 DUP2 GT ISZERO PUSH2 0x2CC JUMPI PUSH2 0x2CC PUSH2 0xF4B JUMP JUMPDEST SUB PUSH2 0x31A JUMPI PUSH2 0x251 DUP6 DUP4 DUP2 MLOAD DUP2 LT PUSH2 0x2E6 JUMPI PUSH2 0x2E6 PUSH2 0xF37 JUMP JUMPDEST PUSH1 0x20 MUL PUSH1 0x20 ADD ADD MLOAD PUSH0 ADD MLOAD DUP7 DUP5 DUP2 MLOAD DUP2 LT PUSH2 0x303 JUMPI PUSH2 0x303 PUSH2 0xF37 JUMP JUMPDEST PUSH1 0x20 MUL PUSH1 0x20 ADD ADD MLOAD PUSH1 0x40 ADD MLOAD PUSH2 0x8A4 PUSH1 0x20 SHL PUSH1 0x20 SHR JUMP JUMPDEST PUSH1 0x40 MLOAD PUSH3 0x461BCD PUSH1 0xE5 SHL DUP2 MSTORE PUSH1 0x20 PUSH1 0x4 DUP3 ADD MSTORE PUSH1 0x27 PUSH1 0x24 DUP3 ADD MSTORE PUSH32 0x4C69624469616D6F6E644375743A20496E636F72726563742046616365744375 PUSH1 0x44 DUP3 ADD MSTORE PUSH7 0x3A20B1BA34B7B7 PUSH1 0xC9 SHL PUSH1 0x64 DUP3 ADD MSTORE PUSH1 0x84 ADD JUMPDEST PUSH1 0x40 MLOAD DUP1 SWAP2 SUB SWAP1 REVERT JUMPDEST POP PUSH1 0x1 ADD PUSH2 0x1B5 JUMP JUMPDEST POP PUSH32 0x8FAA70878671CCD212D20771B795C50AF8FD3FF6CF27F4BDE57E5D4DE0AEB673 DUP4 DUP4 DUP4 PUSH1 0x40 MLOAD PUSH2 0x3B4 SWAP4 SWAP3 SWAP2 SWAP1 PUSH2 0xF8D JUMP JUMPDEST PUSH1 0x40 MLOAD DUP1 SWAP2 SUB SWAP1 LOG1 PUSH2 0x3C6 DUP3 DUP3 PUSH2 0x9EA JUMP JUMPDEST POP POP POP JUMP JUMPDEST PUSH0 DUP2 MLOAD GT PUSH2 0x41C JUMPI PUSH1 0x40 MLOAD PUSH3 0x461BCD PUSH1 0xE5 SHL DUP2 MSTORE PUSH1 0x20 PUSH1 0x4 DUP3 ADD MSTORE PUSH1 0x2B PUSH1 0x24 DUP3 ADD MSTORE PUSH0 MLOAD PUSH1 0x20 PUSH2 0x1384 PUSH0 CODECOPY PUSH0 MLOAD SWAP1 PUSH0 MSTORE PUSH1 0x44 DUP3 ADD MSTORE PUSH11 0x1858D95D081D1BC818DD5D PUSH1 0xAA SHL PUSH1 0x64 DUP3 ADD MSTORE PUSH1 0x84 ADD PUSH2 0x36E JUMP JUMPDEST PUSH0 MLOAD PUSH1 0x20 PUSH2 0x12F8 PUSH0 CODECOPY PUSH0 MLOAD SWAP1 PUSH0 MSTORE PUSH1 0x1 PUSH1 0x1 PUSH1 0xA0 SHL SUB DUP4 AND PUSH2 0x482 JUMPI PUSH1 0x40 MLOAD PUSH3 0x461BCD PUSH1 0xE5 SHL DUP2 MSTORE PUSH1 0x20 PUSH1 0x4 DUP3 ADD MSTORE PUSH1 0x2C PUSH1 0x24 DUP3 ADD MSTORE PUSH0 MLOAD PUSH1 0x20 PUSH2 0x1340 PUSH0 CODECOPY PUSH0 MLOAD SWAP1 PUSH0 MSTORE PUSH1 0x44 DUP3 ADD MSTORE PUSH12 0x652061646472657373283029 PUSH1 0xA0 SHL PUSH1 0x64 DUP3 ADD MSTORE PUSH1 0x84 ADD PUSH2 0x36E JUMP JUMPDEST PUSH1 0x1 PUSH1 0x1 PUSH1 0xA0 SHL SUB DUP4 AND PUSH0 SWAP1 DUP2 MSTORE PUSH1 0x1 DUP3 ADD PUSH1 0x20 MSTORE PUSH1 0x40 DUP2 KECCAK256 SLOAD SWAP1 PUSH1 0x1 PUSH1 0x1 PUSH1 0x60 SHL SUB DUP3 AND SWAP1 SUB PUSH2 0x4B7 JUMPI PUSH2 0x4B7 DUP3 DUP6 PUSH2 0xAAC JUMP JUMPDEST PUSH0 JUMPDEST DUP4 MLOAD DUP2 LT ISZERO PUSH2 0x62C JUMPI PUSH0 DUP5 DUP3 DUP2 MLOAD DUP2 LT PUSH2 0x4D5 JUMPI PUSH2 0x4D5 PUSH2 0xF37 JUMP JUMPDEST PUSH1 0x20 SWAP1 DUP2 MUL SWAP2 SWAP1 SWAP2 ADD DUP2 ADD MLOAD PUSH1 0x1 PUSH1 0x1 PUSH1 0xE0 SHL SUB NOT DUP2 AND PUSH0 SWAP1 DUP2 MSTORE SWAP2 DUP7 SWAP1 MSTORE PUSH1 0x40 SWAP1 SWAP2 KECCAK256 SLOAD SWAP1 SWAP2 POP PUSH1 0x1 PUSH1 0x1 PUSH1 0xA0 SHL SUB AND DUP1 ISZERO PUSH2 0x57A JUMPI PUSH1 0x40 MLOAD PUSH3 0x461BCD PUSH1 0xE5 SHL DUP2 MSTORE PUSH1 0x20 PUSH1 0x4 DUP3 ADD MSTORE PUSH1 0x35 PUSH1 0x24 DUP3 ADD MSTORE PUSH32 0x4C69624469616D6F6E644375743A2043616E2774206164642066756E6374696F PUSH1 0x44 DUP3 ADD MSTORE PUSH32 0x6E207468617420616C7265616479206578697374730000000000000000000000 PUSH1 0x64 DUP3 ADD MSTORE PUSH1 0x84 ADD PUSH2 0x36E JUMP JUMPDEST PUSH1 0x1 PUSH1 0x1 PUSH1 0xE0 SHL SUB NOT DUP3 AND PUSH0 DUP2 DUP2 MSTORE PUSH1 0x20 DUP8 DUP2 MSTORE PUSH1 0x40 DUP1 DUP4 KECCAK256 DUP1 SLOAD PUSH1 0x1 PUSH1 0x1 PUSH1 0xA0 SHL SUB SWAP1 DUP2 AND PUSH1 0x1 PUSH1 0xA0 SHL PUSH1 0x1 PUSH1 0x1 PUSH1 0x60 SHL SUB DUP13 AND MUL OR DUP3 SSTORE DUP13 AND DUP1 DUP6 MSTORE PUSH1 0x1 DUP1 DUP13 ADD DUP6 MSTORE SWAP3 DUP6 KECCAK256 DUP1 SLOAD SWAP4 DUP5 ADD DUP2 SSTORE DUP6 MSTORE DUP4 DUP6 KECCAK256 PUSH1 0x8 DUP5 DIV ADD DUP1 SLOAD PUSH4 0xFFFFFFFF PUSH1 0x7 SWAP1 SWAP6 AND PUSH1 0x4 MUL PUSH2 0x100 EXP SWAP5 DUP6 MUL NOT AND PUSH1 0xE0 DUP11 SWAP1 SHR SWAP5 SWAP1 SWAP5 MUL SWAP4 SWAP1 SWAP4 OR SWAP1 SWAP3 SSTORE SWAP4 SWAP1 SWAP3 MSTORE DUP8 SWAP1 MSTORE DUP2 SLOAD PUSH1 0x1 PUSH1 0x1 PUSH1 0xA0 SHL SUB NOT AND OR SWAP1 SSTORE DUP4 PUSH2 0x61B DUP2 PUSH2 0x10AB JUMP JUMPDEST SWAP5 POP POP PUSH1 0x1 SWAP1 SWAP3 ADD SWAP2 POP PUSH2 0x4B9 SWAP1 POP JUMP JUMPDEST POP POP POP POP POP JUMP JUMPDEST PUSH0 DUP2 MLOAD GT PUSH2 0x684 JUMPI PUSH1 0x40 MLOAD PUSH3 0x461BCD PUSH1 0xE5 SHL DUP2 MSTORE PUSH1 0x20 PUSH1 0x4 DUP3 ADD MSTORE PUSH1 0x2B PUSH1 0x24 DUP3 ADD MSTORE PUSH0 MLOAD PUSH1 0x20 PUSH2 0x1384 PUSH0 CODECOPY PUSH0 MLOAD SWAP1 PUSH0 MSTORE PUSH1 0x44 DUP3 ADD MSTORE PUSH11 0x1858D95D081D1BC818DD5D PUSH1 0xAA SHL PUSH1 0x64 DUP3 ADD MSTORE PUSH1 0x84 ADD PUSH2 0x36E JUMP JUMPDEST PUSH0 MLOAD PUSH1 0x20 PUSH2 0x12F8 PUSH0 CODECOPY PUSH0 MLOAD SWAP1 PUSH0 MSTORE PUSH1 0x1 PUSH1 0x1 PUSH1 0xA0 SHL SUB DUP4 AND PUSH2 0x6EA JUMPI PUSH1 0x40 MLOAD PUSH3 0x461BCD PUSH1 0xE5 SHL DUP2 MSTORE PUSH1 0x20 PUSH1 0x4 DUP3 ADD MSTORE PUSH1 0x2C PUSH1 0x24 DUP3 ADD MSTORE PUSH0 MLOAD PUSH1 0x20 PUSH2 0x1340 PUSH0 CODECOPY PUSH0 MLOAD SWAP1 PUSH0 MSTORE PUSH1 0x44 DUP3 ADD MSTORE PUSH12 0x652061646472657373283029 PUSH1 0xA0 SHL PUSH1 0x64 DUP3 ADD MSTORE PUSH1 0x84 ADD PUSH2 0x36E JUMP JUMPDEST PUSH1 0x1 PUSH1 0x1 PUSH1 0xA0 SHL SUB DUP4 AND PUSH0 SWAP1 DUP2 MSTORE PUSH1 0x1 DUP3 ADD PUSH1 0x20 MSTORE PUSH1 0x40 DUP2 KECCAK256 SLOAD SWAP1 PUSH1 0x1 PUSH1 0x1 PUSH1 0x60 SHL SUB DUP3 AND SWAP1 SUB PUSH2 0x71F JUMPI PUSH2 0x71F DUP3 DUP6 PUSH2 0xAAC JUMP JUMPDEST PUSH0 JUMPDEST DUP4 MLOAD DUP2 LT ISZERO PUSH2 0x62C JUMPI PUSH0 DUP5 DUP3 DUP2 MLOAD DUP2 LT PUSH2 0x73D JUMPI PUSH2 0x73D PUSH2 0xF37 JUMP JUMPDEST PUSH1 0x20 SWAP1 DUP2 MUL SWAP2 SWAP1 SWAP2 ADD DUP2 ADD MLOAD PUSH1 0x1 PUSH1 0x1 PUSH1 0xE0 SHL SUB NOT DUP2 AND PUSH0 SWAP1 DUP2 MSTORE SWAP2 DUP7 SWAP1 MSTORE PUSH1 0x40 SWAP1 SWAP2 KECCAK256 SLOAD SWAP1 SWAP2 POP PUSH1 0x1 PUSH1 0x1 PUSH1 0xA0 SHL SUB SWAP1 DUP2 AND SWAP1 DUP8 AND DUP2 SUB PUSH2 0x7E7 JUMPI PUSH1 0x40 MLOAD PUSH3 0x461BCD PUSH1 0xE5 SHL DUP2 MSTORE PUSH1 0x20 PUSH1 0x4 DUP3 ADD MSTORE PUSH1 0x38 PUSH1 0x24 DUP3 ADD MSTORE PUSH32 0x4C69624469616D6F6E644375743A2043616E2774207265706C6163652066756E PUSH1 0x44 DUP3 ADD MSTORE PUSH32 0x6374696F6E20776974682073616D652066756E6374696F6E0000000000000000 PUSH1 0x64 DUP3 ADD MSTORE PUSH1 0x84 ADD PUSH2 0x36E JUMP JUMPDEST PUSH2 0x7F2 DUP6 DUP3 DUP5 PUSH2 0xB15 JUMP JUMPDEST PUSH1 0x1 PUSH1 0x1 PUSH1 0xE0 SHL SUB NOT DUP3 AND PUSH0 DUP2 DUP2 MSTORE PUSH1 0x20 DUP8 DUP2 MSTORE PUSH1 0x40 DUP1 DUP4 KECCAK256 DUP1 SLOAD PUSH1 0x1 PUSH1 0x1 PUSH1 0xA0 SHL SUB SWAP1 DUP2 AND PUSH1 0x1 PUSH1 0xA0 SHL PUSH1 0x1 PUSH1 0x1 PUSH1 0x60 SHL SUB DUP13 AND MUL OR DUP3 SSTORE DUP13 AND DUP1 DUP6 MSTORE PUSH1 0x1 DUP1 DUP13 ADD DUP6 MSTORE SWAP3 DUP6 KECCAK256 DUP1 SLOAD SWAP4 DUP5 ADD DUP2 SSTORE DUP6 MSTORE DUP4 DUP6 KECCAK256 PUSH1 0x8 DUP5 DIV ADD DUP1 SLOAD PUSH4 0xFFFFFFFF PUSH1 0x7 SWAP1 SWAP6 AND PUSH1 0x4 MUL PUSH2 0x100 EXP SWAP5 DUP6 MUL NOT AND PUSH1 0xE0 DUP11 SWAP1 SHR SWAP5 SWAP1 SWAP5 MUL SWAP4 SWAP1 SWAP4 OR SWAP1 SWAP3 SSTORE SWAP4 SWAP1 SWAP3 MSTORE DUP8 SWAP1 MSTORE DUP2 SLOAD PUSH1 0x1 PUSH1 0x1 PUSH1 0xA0 SHL SUB NOT AND OR SWAP1 SSTORE DUP4 PUSH2 0x893 DUP2 PUSH2 0x10AB JUMP JUMPDEST SWAP5 POP POP PUSH1 0x1 SWAP1 SWAP3 ADD SWAP2 POP PUSH2 0x721 SWAP1 POP JUMP JUMPDEST PUSH0 DUP2 MLOAD GT PUSH2 0x8F5 JUMPI PUSH1 0x40 MLOAD PUSH3 0x461BCD PUSH1 0xE5 SHL DUP2 MSTORE PUSH1 0x20 PUSH1 0x4 DUP3 ADD MSTORE PUSH1 0x2B PUSH1 0x24 DUP3 ADD MSTORE PUSH0 MLOAD PUSH1 0x20 PUSH2 0x1384 PUSH0 CODECOPY PUSH0 MLOAD SWAP1 PUSH0 MSTORE PUSH1 0x44 DUP3 ADD MSTORE PUSH11 0x1858D95D081D1BC818DD5D PUSH1 0xAA SHL PUSH1 0x64 DUP3 ADD MSTORE PUSH1 0x84 ADD PUSH2 0x36E JUMP JUMPDEST PUSH0 MLOAD PUSH1 0x20 PUSH2 0x12F8 PUSH0 CODECOPY PUSH0 MLOAD SWAP1 PUSH0 MSTORE PUSH1 0x1 PUSH1 0x1 PUSH1 0xA0 SHL SUB DUP4 AND ISZERO PUSH2 0x980 JUMPI PUSH1 0x40 MLOAD PUSH3 0x461BCD PUSH1 0xE5 SHL DUP2 MSTORE PUSH1 0x20 PUSH1 0x4 DUP3 ADD MSTORE PUSH1 0x36 PUSH1 0x24 DUP3 ADD MSTORE PUSH32 0x4C69624469616D6F6E644375743A2052656D6F76652066616365742061646472 PUSH1 0x44 DUP3 ADD MSTORE PUSH32 0x657373206D757374206265206164647265737328302900000000000000000000 PUSH1 0x64 DUP3 ADD MSTORE PUSH1 0x84 ADD PUSH2 0x36E JUMP JUMPDEST PUSH0 JUMPDEST DUP3 MLOAD DUP2 LT ISZERO PUSH2 0x9E4 JUMPI PUSH0 DUP4 DUP3 DUP2 MLOAD DUP2 LT PUSH2 0x99E JUMPI PUSH2 0x99E PUSH2 0xF37 JUMP JUMPDEST PUSH1 0x20 SWAP1 DUP2 MUL SWAP2 SWAP1 SWAP2 ADD DUP2 ADD MLOAD PUSH1 0x1 PUSH1 0x1 PUSH1 0xE0 SHL SUB NOT DUP2 AND PUSH0 SWAP1 DUP2 MSTORE SWAP2 DUP6 SWAP1 MSTORE PUSH1 0x40 SWAP1 SWAP2 KECCAK256 SLOAD SWAP1 SWAP2 POP PUSH1 0x1 PUSH1 0x1 PUSH1 0xA0 SHL SUB AND PUSH2 0x9DA DUP5 DUP3 DUP5 PUSH2 0xB15 JUMP JUMPDEST POP POP PUSH1 0x1 ADD PUSH2 0x982 JUMP JUMPDEST POP POP POP POP JUMP JUMPDEST PUSH1 0x1 PUSH1 0x1 PUSH1 0xA0 SHL SUB DUP3 AND PUSH2 0x9FC JUMPI POP POP JUMP JUMPDEST PUSH2 0xA1E DUP3 PUSH1 0x40 MLOAD DUP1 PUSH1 0x60 ADD PUSH1 0x40 MSTORE DUP1 PUSH1 0x28 DUP2 MSTORE PUSH1 0x20 ADD PUSH2 0x1318 PUSH1 0x28 SWAP2 CODECOPY PUSH2 0xECA JUMP JUMPDEST PUSH0 PUSH0 DUP4 PUSH1 0x1 PUSH1 0x1 PUSH1 0xA0 SHL SUB AND DUP4 PUSH1 0x40 MLOAD PUSH2 0xA38 SWAP2 SWAP1 PUSH2 0x10D6 JUMP JUMPDEST PUSH0 PUSH1 0x40 MLOAD DUP1 DUP4 SUB DUP2 DUP6 GAS DELEGATECALL SWAP2 POP POP RETURNDATASIZE DUP1 PUSH0 DUP2 EQ PUSH2 0xA70 JUMPI PUSH1 0x40 MLOAD SWAP2 POP PUSH1 0x1F NOT PUSH1 0x3F RETURNDATASIZE ADD AND DUP3 ADD PUSH1 0x40 MSTORE RETURNDATASIZE DUP3 MSTORE RETURNDATASIZE PUSH0 PUSH1 0x20 DUP5 ADD RETURNDATACOPY PUSH2 0xA75 JUMP JUMPDEST PUSH1 0x60 SWAP2 POP JUMPDEST POP SWAP2 POP SWAP2 POP DUP2 PUSH2 0x9E4 JUMPI DUP1 MLOAD ISZERO PUSH2 0xA8F JUMPI DUP1 MLOAD DUP1 DUP3 PUSH1 0x20 ADD REVERT JUMPDEST DUP4 DUP4 PUSH1 0x40 MLOAD PUSH4 0x192105D7 PUSH1 0xE0 SHL DUP2 MSTORE PUSH1 0x4 ADD PUSH2 0x36E SWAP3 SWAP2 SWAP1 PUSH2 0x10EC JUMP JUMPDEST PUSH2 0xACE DUP2 PUSH1 0x40 MLOAD DUP1 PUSH1 0x60 ADD PUSH1 0x40 MSTORE DUP1 PUSH1 0x24 DUP2 MSTORE PUSH1 0x20 ADD PUSH2 0x1360 PUSH1 0x24 SWAP2 CODECOPY PUSH2 0xECA JUMP JUMPDEST PUSH1 0x2 DUP3 ADD DUP1 SLOAD PUSH1 0x1 PUSH1 0x1 PUSH1 0xA0 SHL SUB SWAP1 SWAP3 AND PUSH0 DUP2 DUP2 MSTORE PUSH1 0x1 SWAP5 DUP6 ADD PUSH1 0x20 SWAP1 DUP2 MSTORE PUSH1 0x40 DUP3 KECCAK256 DUP7 ADD DUP6 SWAP1 SSTORE SWAP5 DUP5 ADD DUP4 SSTORE SWAP2 DUP3 MSTORE SWAP3 SWAP1 KECCAK256 ADD DUP1 SLOAD PUSH1 0x1 PUSH1 0x1 PUSH1 0xA0 SHL SUB NOT AND SWAP1 SWAP2 OR SWAP1 SSTORE JUMP JUMPDEST PUSH1 0x1 PUSH1 0x1 PUSH1 0xA0 SHL SUB DUP3 AND PUSH2 0xB91 JUMPI PUSH1 0x40 MLOAD PUSH3 0x461BCD PUSH1 0xE5 SHL DUP2 MSTORE PUSH1 0x20 PUSH1 0x4 DUP3 ADD MSTORE PUSH1 0x37 PUSH1 0x24 DUP3 ADD MSTORE PUSH32 0x4C69624469616D6F6E644375743A2043616E27742072656D6F76652066756E63 PUSH1 0x44 DUP3 ADD MSTORE PUSH32 0x74696F6E207468617420646F65736E2774206578697374000000000000000000 PUSH1 0x64 DUP3 ADD MSTORE PUSH1 0x84 ADD PUSH2 0x36E JUMP JUMPDEST ADDRESS PUSH1 0x1 PUSH1 0x1 PUSH1 0xA0 SHL SUB DUP4 AND SUB PUSH2 0xC00 JUMPI PUSH1 0x40 MLOAD PUSH3 0x461BCD PUSH1 0xE5 SHL DUP2 MSTORE PUSH1 0x20 PUSH1 0x4 DUP3 ADD MSTORE PUSH1 0x2E PUSH1 0x24 DUP3 ADD MSTORE PUSH32 0x4C69624469616D6F6E644375743A2043616E27742072656D6F766520696D6D75 PUSH1 0x44 DUP3 ADD MSTORE PUSH14 0x3A30B1363290333AB731BA34B7B7 PUSH1 0x91 SHL PUSH1 0x64 DUP3 ADD MSTORE PUSH1 0x84 ADD PUSH2 0x36E JUMP JUMPDEST PUSH1 0x1 PUSH1 0x1 PUSH1 0xE0 SHL SUB NOT DUP2 AND PUSH0 SWAP1 DUP2 MSTORE PUSH1 0x20 DUP5 DUP2 MSTORE PUSH1 0x40 DUP1 DUP4 KECCAK256 SLOAD PUSH1 0x1 PUSH1 0x1 PUSH1 0xA0 SHL SUB DUP7 AND DUP5 MSTORE PUSH1 0x1 DUP1 DUP9 ADD SWAP1 SWAP4 MSTORE SWAP1 DUP4 KECCAK256 SLOAD PUSH1 0x1 PUSH1 0xA0 SHL SWAP1 SWAP2 DIV PUSH1 0x1 PUSH1 0x1 PUSH1 0x60 SHL SUB AND SWAP3 SWAP2 PUSH2 0xC4E SWAP2 PUSH2 0x1117 JUMP JUMPDEST SWAP1 POP DUP1 DUP3 EQ PUSH2 0xD3D JUMPI PUSH1 0x1 PUSH1 0x1 PUSH1 0xA0 SHL SUB DUP5 AND PUSH0 SWAP1 DUP2 MSTORE PUSH1 0x1 DUP7 ADD PUSH1 0x20 MSTORE PUSH1 0x40 DUP2 KECCAK256 DUP1 SLOAD DUP4 SWAP1 DUP2 LT PUSH2 0xC82 JUMPI PUSH2 0xC82 PUSH2 0xF37 JUMP JUMPDEST PUSH0 SWAP2 DUP3 MSTORE PUSH1 0x20 DUP1 DUP4 KECCAK256 PUSH1 0x8 DUP4 DIV ADD SLOAD PUSH1 0x1 PUSH1 0x1 PUSH1 0xA0 SHL SUB DUP10 AND DUP5 MSTORE PUSH1 0x1 DUP11 ADD SWAP1 SWAP2 MSTORE PUSH1 0x40 SWAP1 SWAP3 KECCAK256 DUP1 SLOAD PUSH1 0x7 SWAP1 SWAP3 AND PUSH1 0x4 MUL PUSH2 0x100 EXP SWAP1 SWAP3 DIV PUSH1 0xE0 SHL SWAP3 POP DUP3 SWAP2 SWAP1 DUP6 SWAP1 DUP2 LT PUSH2 0xCD2 JUMPI PUSH2 0xCD2 PUSH2 0xF37 JUMP JUMPDEST PUSH0 SWAP2 DUP3 MSTORE PUSH1 0x20 DUP1 DUP4 KECCAK256 PUSH1 0x8 DUP4 DIV ADD DUP1 SLOAD PUSH4 0xFFFFFFFF PUSH1 0x7 SWAP1 SWAP5 AND PUSH1 0x4 MUL PUSH2 0x100 EXP SWAP4 DUP5 MUL NOT AND PUSH1 0xE0 SWAP6 SWAP1 SWAP6 SHR SWAP3 SWAP1 SWAP3 MUL SWAP4 SWAP1 SWAP4 OR SWAP1 SSTORE PUSH1 0x1 PUSH1 0x1 PUSH1 0xE0 SHL SUB NOT SWAP3 SWAP1 SWAP3 AND DUP3 MSTORE DUP7 SWAP1 MSTORE PUSH1 0x40 SWAP1 KECCAK256 DUP1 SLOAD PUSH1 0x1 PUSH1 0x1 PUSH1 0xA0 SHL SUB AND PUSH1 0x1 PUSH1 0xA0 SHL PUSH1 0x1 PUSH1 0x1 PUSH1 0x60 SHL SUB DUP6 AND MUL OR SWAP1 SSTORE JUMPDEST PUSH1 0x1 PUSH1 0x1 PUSH1 0xA0 SHL SUB DUP5 AND PUSH0 SWAP1 DUP2 MSTORE PUSH1 0x1 DUP7 ADD PUSH1 0x20 MSTORE PUSH1 0x40 SWAP1 KECCAK256 DUP1 SLOAD DUP1 PUSH2 0xD65 JUMPI PUSH2 0xD65 PUSH2 0x1130 JUMP JUMPDEST PUSH0 DUP3 DUP2 MSTORE PUSH1 0x20 DUP1 DUP3 KECCAK256 PUSH1 0x8 PUSH0 NOT SWAP1 SWAP5 ADD SWAP4 DUP5 DIV ADD DUP1 SLOAD PUSH4 0xFFFFFFFF PUSH1 0x4 PUSH1 0x7 DUP8 AND MUL PUSH2 0x100 EXP MUL NOT AND SWAP1 SSTORE SWAP2 SWAP1 SWAP3 SSTORE PUSH1 0x1 PUSH1 0x1 PUSH1 0xE0 SHL SUB NOT DUP6 AND DUP3 MSTORE DUP7 SWAP1 MSTORE PUSH1 0x40 DUP2 KECCAK256 DUP2 SWAP1 SSTORE DUP2 SWAP1 SUB PUSH2 0x62C JUMPI PUSH1 0x2 DUP6 ADD SLOAD PUSH0 SWAP1 PUSH2 0xDC5 SWAP1 PUSH1 0x1 SWAP1 PUSH2 0x1117 JUMP JUMPDEST PUSH1 0x1 PUSH1 0x1 PUSH1 0xA0 SHL SUB DUP7 AND PUSH0 SWAP1 DUP2 MSTORE PUSH1 0x1 DUP1 DUP10 ADD PUSH1 0x20 MSTORE PUSH1 0x40 SWAP1 SWAP2 KECCAK256 ADD SLOAD SWAP1 SWAP2 POP DUP1 DUP3 EQ PUSH2 0xE70 JUMPI PUSH0 DUP8 PUSH1 0x2 ADD DUP4 DUP2 SLOAD DUP2 LT PUSH2 0xE02 JUMPI PUSH2 0xE02 PUSH2 0xF37 JUMP JUMPDEST PUSH0 SWAP2 DUP3 MSTORE PUSH1 0x20 SWAP1 SWAP2 KECCAK256 ADD SLOAD PUSH1 0x2 DUP10 ADD DUP1 SLOAD PUSH1 0x1 PUSH1 0x1 PUSH1 0xA0 SHL SUB SWAP1 SWAP3 AND SWAP3 POP DUP3 SWAP2 DUP5 SWAP1 DUP2 LT PUSH2 0xE32 JUMPI PUSH2 0xE32 PUSH2 0xF37 JUMP JUMPDEST PUSH0 SWAP2 DUP3 MSTORE PUSH1 0x20 DUP1 DUP4 KECCAK256 SWAP2 SWAP1 SWAP2 ADD DUP1 SLOAD PUSH1 0x1 PUSH1 0x1 PUSH1 0xA0 SHL SUB NOT AND PUSH1 0x1 PUSH1 0x1 PUSH1 0xA0 SHL SUB SWAP5 DUP6 AND OR SWAP1 SSTORE SWAP3 SWAP1 SWAP2 AND DUP2 MSTORE PUSH1 0x1 DUP10 DUP2 ADD SWAP1 SWAP3 MSTORE PUSH1 0x40 SWAP1 KECCAK256 ADD DUP2 SWAP1 SSTORE JUMPDEST DUP7 PUSH1 0x2 ADD DUP1 SLOAD DUP1 PUSH2 0xE83 JUMPI PUSH2 0xE83 PUSH2 0x1130 JUMP JUMPDEST PUSH0 DUP3 DUP2 MSTORE PUSH1 0x20 DUP1 DUP3 KECCAK256 DUP4 ADD PUSH0 NOT SWAP1 DUP2 ADD DUP1 SLOAD PUSH1 0x1 PUSH1 0x1 PUSH1 0xA0 SHL SUB NOT AND SWAP1 SSTORE SWAP1 SWAP3 ADD SWAP1 SWAP3 SSTORE PUSH1 0x1 PUSH1 0x1 PUSH1 0xA0 SHL SUB DUP9 AND DUP3 MSTORE PUSH1 0x1 DUP10 DUP2 ADD SWAP1 SWAP2 MSTORE PUSH1 0x40 DUP3 KECCAK256 ADD SSTORE POP POP POP POP POP POP POP JUMP JUMPDEST DUP2 EXTCODESIZE DUP2 DUP2 PUSH2 0x9E4 JUMPI PUSH1 0x40 MLOAD PUSH3 0x461BCD PUSH1 0xE5 SHL DUP2 MSTORE PUSH1 0x4 ADD PUSH2 0x36E SWAP2 SWAP1 PUSH2 0x1144 JUMP JUMPDEST DUP1 MLOAD PUSH1 0x1 PUSH1 0x1 PUSH1 0xA0 SHL SUB DUP2 AND DUP2 EQ PUSH2 0xF01 JUMPI PUSH0 PUSH0 REVERT JUMPDEST SWAP2 SWAP1 POP JUMP JUMPDEST PUSH0 PUSH0 PUSH1 0x40 DUP4 DUP6 SUB SLT ISZERO PUSH2 0xF17 JUMPI PUSH0 PUSH0 REVERT JUMPDEST PUSH2 0xF20 DUP4 PUSH2 0xEEB JUMP JUMPDEST SWAP2 POP PUSH2 0xF2E PUSH1 0x20 DUP5 ADD PUSH2 0xEEB JUMP JUMPDEST SWAP1 POP SWAP3 POP SWAP3 SWAP1 POP JUMP JUMPDEST PUSH4 0x4E487B71 PUSH1 0xE0 SHL PUSH0 MSTORE PUSH1 0x32 PUSH1 0x4 MSTORE PUSH1 0x24 PUSH0 REVERT JUMPDEST PUSH4 0x4E487B71 PUSH1 0xE0 SHL PUSH0 MSTORE PUSH1 0x21 PUSH1 0x4 MSTORE PUSH1 0x24 PUSH0 REVERT JUMPDEST PUSH0 DUP2 MLOAD DUP1 DUP5 MSTORE DUP1 PUSH1 0x20 DUP5 ADD PUSH1 0x20 DUP7 ADD MCOPY PUSH0 PUSH1 0x20 DUP3 DUP7 ADD ADD MSTORE PUSH1 0x20 PUSH1 0x1F NOT PUSH1 0x1F DUP4 ADD AND DUP6 ADD ADD SWAP2 POP POP SWAP3 SWAP2 POP POP JUMP JUMPDEST PUSH0 PUSH1 0x60 DUP3 ADD PUSH1 0x60 DUP4 MSTORE DUP1 DUP7 MLOAD DUP1 DUP4 MSTORE PUSH1 0x80 DUP6 ADD SWAP2 POP PUSH1 0x80 DUP2 PUSH1 0x5 SHL DUP7 ADD ADD SWAP3 POP PUSH1 0x20 DUP9 ADD PUSH0 JUMPDEST DUP3 DUP2 LT ISZERO PUSH2 0x1068 JUMPI DUP7 DUP6 SUB PUSH1 0x7F NOT ADD DUP5 MSTORE DUP2 MLOAD DUP1 MLOAD PUSH1 0x1 PUSH1 0x1 PUSH1 0xA0 SHL SUB AND DUP7 MSTORE PUSH1 0x20 DUP2 ADD MLOAD PUSH1 0x60 DUP8 ADD SWAP1 PUSH1 0x3 DUP2 LT PUSH2 0xFF9 JUMPI PUSH4 0x4E487B71 PUSH1 0xE0 SHL PUSH0 MSTORE PUSH1 0x21 PUSH1 0x4 MSTORE PUSH1 0x24 PUSH0 REVERT JUMPDEST DUP1 PUSH1 0x20 DUP10 ADD MSTORE POP PUSH1 0x40 DUP3 ADD MLOAD SWAP2 POP PUSH1 0x60 PUSH1 0x40 DUP9 ADD MSTORE DUP1 DUP3 MLOAD DUP1 DUP4 MSTORE PUSH1 0x80 DUP10 ADD SWAP2 POP PUSH1 0x20 DUP5 ADD SWAP4 POP PUSH0 SWAP3 POP JUMPDEST DUP1 DUP4 LT ISZERO PUSH2 0x1050 JUMPI DUP4 MLOAD PUSH1 0x1 PUSH1 0x1 PUSH1 0xE0 SHL SUB NOT AND DUP3 MSTORE PUSH1 0x20 SWAP4 DUP5 ADD SWAP4 PUSH1 0x1 SWAP4 SWAP1 SWAP4 ADD SWAP3 SWAP1 SWAP2 ADD SWAP1 PUSH2 0x1024 JUMP JUMPDEST POP SWAP7 POP POP POP PUSH1 0x20 SWAP4 DUP5 ADD SWAP4 SWAP2 SWAP1 SWAP2 ADD SWAP1 PUSH1 0x1 ADD PUSH2 0xFB3 JUMP JUMPDEST POP POP POP PUSH1 0x1 PUSH1 0x1 PUSH1 0xA0 SHL SUB DUP7 AND PUSH1 0x20 DUP6 ADD MSTORE POP DUP3 DUP2 SUB PUSH1 0x40 DUP5 ADD MSTORE PUSH2 0x108D DUP2 DUP6 PUSH2 0xF5F JUMP JUMPDEST SWAP7 SWAP6 POP POP POP POP POP POP JUMP JUMPDEST PUSH4 0x4E487B71 PUSH1 0xE0 SHL PUSH0 MSTORE PUSH1 0x11 PUSH1 0x4 MSTORE PUSH1 0x24 PUSH0 REVERT JUMPDEST PUSH0 PUSH1 0x1 PUSH1 0x1 PUSH1 0x60 SHL SUB DUP3 AND PUSH1 0x2 PUSH1 0x1 PUSH1 0x60 SHL SUB NOT DUP2 ADD PUSH2 0x10CD JUMPI PUSH2 0x10CD PUSH2 0x1097 JUMP JUMPDEST PUSH1 0x1 ADD SWAP3 SWAP2 POP POP JUMP JUMPDEST PUSH0 DUP3 MLOAD DUP1 PUSH1 0x20 DUP6 ADD DUP5 MCOPY PUSH0 SWAP3 ADD SWAP2 DUP3 MSTORE POP SWAP2 SWAP1 POP JUMP JUMPDEST PUSH1 0x1 PUSH1 0x1 PUSH1 0xA0 SHL SUB DUP4 AND DUP2 MSTORE PUSH1 0x40 PUSH1 0x20 DUP3 ADD DUP2 SWAP1 MSTORE PUSH0 SWAP1 PUSH2 0x110F SWAP1 DUP4 ADD DUP5 PUSH2 0xF5F JUMP JUMPDEST SWAP5 SWAP4 POP POP POP POP JUMP JUMPDEST DUP2 DUP2 SUB DUP2 DUP2 GT ISZERO PUSH2 0x112A JUMPI PUSH2 0x112A PUSH2 0x1097 JUMP JUMPDEST SWAP3 SWAP2 POP POP JUMP JUMPDEST PUSH4 0x4E487B71 PUSH1 0xE0 SHL PUSH0 MSTORE PUSH1 0x31 PUSH1 0x4 MSTORE PUSH1 0x24 PUSH0 REVERT JUMPDEST PUSH1 0x20 DUP2 MSTORE PUSH0 PUSH2 0x1156 PUSH1 0x20 DUP4 ADD DUP5 PUSH2 0xF5F JUMP JUMPDEST SWAP4 SWAP3 POP POP POP JUMP JUMPDEST PUSH2 0x18E DUP1 PUSH2 0x116A PUSH0 CODECOPY PUSH0 RETURN INVALID PUSH1 0x80 PUSH1 0x40 MSTORE PUSH1 0x4 CALLDATASIZE LT PUSH2 0x21 JUMPI PUSH0 CALLDATALOAD PUSH1 0xE0 SHR DUP1 PUSH4 0x46E71E6 EQ PUSH2 0xDD JUMPI PUSH2 0x28 JUMP JUMPDEST CALLDATASIZE PUSH2 0x28 JUMPI STOP JUMPDEST PUSH0 DUP1 CALLDATALOAD PUSH1 0x1 PUSH1 0x1 PUSH1 0xE0 SHL SUB NOT AND DUP2 MSTORE PUSH32 0xC8FCAD8DB84D3CC18B4C41D551EA0EE66DD599CDE068D998E57D5E09332C131C PUSH1 0x20 DUP2 SWAP1 MSTORE PUSH1 0x40 SWAP1 SWAP2 KECCAK256 SLOAD DUP2 SWAP1 PUSH1 0x1 PUSH1 0x1 PUSH1 0xA0 SHL SUB AND DUP1 PUSH2 0xBF JUMPI PUSH1 0x40 MLOAD PUSH3 0x461BCD PUSH1 0xE5 SHL DUP2 MSTORE PUSH1 0x20 PUSH1 0x4 DUP3 ADD DUP2 SWAP1 MSTORE PUSH1 0x24 DUP3 ADD MSTORE PUSH32 0x4469616D6F6E643A2046756E6374696F6E20646F6573206E6F74206578697374 PUSH1 0x44 DUP3 ADD MSTORE PUSH1 0x64 ADD PUSH1 0x40 MLOAD DUP1 SWAP2 SUB SWAP1 REVERT JUMPDEST CALLDATASIZE PUSH0 PUSH0 CALLDATACOPY PUSH0 PUSH0 CALLDATASIZE PUSH0 DUP5 GAS DELEGATECALL RETURNDATASIZE PUSH0 PUSH0 RETURNDATACOPY DUP1 DUP1 ISZERO PUSH2 0xD9 JUMPI RETURNDATASIZE PUSH0 RETURN JUMPDEST RETURNDATASIZE PUSH0 REVERT JUMPDEST CALLVALUE DUP1 ISZERO PUSH2 0xE8 JUMPI PUSH0 PUSH0 REVERT JUMPDEST POP PUSH1 0x40 DUP1 MLOAD DUP1 DUP3 ADD DUP3 MSTORE PUSH1 0xF DUP2 MSTORE PUSH15 0x5432475F726F6F743A3A312E302E3 PUSH1 0x8C SHL PUSH1 0x20 DUP3 ADD MSTORE SWAP1 MLOAD PUSH2 0x11A SWAP2 SWAP1 PUSH2 0x123 JUMP JUMPDEST PUSH1 0x40 MLOAD DUP1 SWAP2 SUB SWAP1 RETURN JUMPDEST PUSH1 0x20 DUP2 MSTORE PUSH0 DUP3 MLOAD DUP1 PUSH1 0x20 DUP5 ADD MSTORE DUP1 PUSH1 0x20 DUP6 ADD PUSH1 0x40 DUP6 ADD MCOPY PUSH0 PUSH1 0x40 DUP3 DUP6 ADD ADD MSTORE PUSH1 0x40 PUSH1 0x1F NOT PUSH1 0x1F DUP4 ADD AND DUP5 ADD ADD SWAP2 POP POP SWAP3 SWAP2 POP POP JUMP INVALID LOG2 PUSH5 0x6970667358 0x22 SLT KECCAK256 DELEGATECALL 0xD7 SWAP12 CALLDATALOAD NOT 0xAA 0xE RETURNDATASIZE 0xC1 PUSH21 0xE2B634CC39F24214E252F6738B0F4AA55A8E9894FC 0x4E PUSH5 0x736F6C6343 STOP ADDMOD SHL STOP CALLER 0xC8 0xFC 0xAD DUP14 0xB8 0x4D EXTCODECOPY 0xC1 DUP12 0x4C COINBASE 0xD5 MLOAD 0xEA 0xE 0xE6 PUSH14 0xD599CDE068D998E57D5E09332C13 SHR 0x4C PUSH10 0x624469616D6F6E644375 PUSH21 0x3A205F696E6974206164647265737320686173206E PUSH16 0x20636F64654C69624469616D6F6E6443 PUSH22 0x743A204164642066616365742063616E277420624C69 PUSH3 0x446961 PUSH14 0x6F6E644375743A204E6577206661 PUSH4 0x65742068 PUSH2 0x7320 PUSH15 0x6F20636F64654C69624469616D6F6E PUSH5 0x4375743A20 0x4E PUSH16 0x2073656C6563746F727320696E206600 "
				},
				"gasEstimates": {
					"creation": {
						"codeDepositCost": "79600",
						"executionCost": "infinite",
						"totalCost": "infinite"
					},
					"external": {
						"": "infinite",
						"beacon_T2G_Root()": "infinite"
					}
				},
				"methodIdentifiers": {
					"beacon_T2G_Root()": "046e71e6"
				}
			},
			"storageLayout": {
				"storage": [],
				"types": null
			},
			"userdoc": {
				"kind": "user",
				"methods": {},
				"version": 1
			}
		}
	}
}