{
	"data": {
		"bytecode": {
			"linkReferences": {},
			"object": "6080604052348015600e575f5ffd5b5061095a8061001c5f395ff3fe60806040526004361061003e575f3560e01c806340c10f191461004257806342966c6814610057578063722713f714610076578063a144819414610042575b5f5ffd5b610055610050366004610891565b610095565b005b348015610062575f5ffd5b506100556100713660046108c6565b6100a3565b348015610081575f5ffd5b504760405190815260200160405180910390f35b61009f82826100af565b5050565b6100ac8161011a565b50565b6001600160a01b0382166100dd57604051633250574960e11b81525f60048201526024015b60405180910390fd5b5f6100e983835f610152565b90506001600160a01b03811615610115576040516339e3563760e11b81525f60048201526024016100d4565b505050565b5f6101265f835f610152565b90506001600160a01b03811661009f57604051637e27328960e01b8152600481018390526024016100d4565b5f5f61015d846102e8565b90506001600160a01b038316156101795761017981848661030d565b6001600160a01b038116156101c2576101945f855f5f610371565b600161019e6104ac565b6001600160a01b0383165f9081526004919091016020526040902080549190910390555b6001600160a01b038516156101fe5760016101db6104ac565b6001600160a01b0387165f90815260049190910160205260409020805490910190555b846102076104ac565b5f868152600391909101602052604080822080546001600160a01b0319166001600160a01b0394851617905551869288811692908516917fddf252ad1be2c89b69c2b068fc378daa952ba7f163c4a11628f55a4df523b3ef9190a46001600160a01b03811661027e57610279846104d0565b6102a1565b846001600160a01b0316816001600160a01b0316146102a1576102a18185610516565b6001600160a01b0385166102bd576102b88461062d565b6102e0565b846001600160a01b0316816001600160a01b0316146102e0576102e0858561071c565b949350505050565b5f6102f16104ac565b5f9283526003016020525060409020546001600160a01b031690565b61031883838361079f565b610115576001600160a01b03831661034657604051637e27328960e01b8152600481018290526024016100d4565b60405163177e802f60e01b81526001600160a01b0383166004820152602481018290526044016100d4565b808061038557506001600160a01b03821615155b15610471575f6103948461082f565b90506001600160a01b038316158015906103c05750826001600160a01b0316816001600160a01b031614155b80156103fe57506103cf6104ac565b6001600160a01b038083165f90815260069290920160209081526040808420928716845291905290205460ff16155b156104275760405163a9fbf51f60e01b81526001600160a01b03841660048201526024016100d4565b811561046f5783856001600160a01b0316826001600160a01b03167f8c5be1e5ebec7d5bd14f71427d1e84f3dd0314c0f7b2291e5b200ac8c7c3b92560405160405180910390a45b505b8361047a6104ac565b5f948552600501602052604090932080546001600160a01b0319166001600160a01b0390941693909317909255505050565b7ff2dec0acaef95de6625646379d631adff4db9f6c79b84a31adcb9a23bf6cea7890565b6104d86104ac565b600201546104e46104ac565b5f83815260099190910160205260409020556104fe6104ac565b60020180546001810182555f91825260209091200155565b5f61051f6104ac565b6001600160a01b0384165f908152600491909101602052604081205491506105456104ac565b5f848152600891909101602052604090205490508181146105dc575f6105696104ac565b6001600160a01b0386165f9081526007919091016020908152604080832086845290915290205490508061059b6104ac565b6001600160a01b0387165f90815260079190910160209081526040808320868452909152902055816105cb6104ac565b5f9283526008016020526040909120555b6105e46104ac565b5f84815260089190910160205260408120556105fe6104ac565b6001600160a01b039094165f908152600794909401602090815260408086209386529290525082209190915550565b5f60016106386104ac565b6002015461064691906108dd565b90505f6106516104ac565b5f8481526009919091016020526040812054915061066d6104ac565b6002018381548110610681576106816108fc565b905f5260205f2001549050806106956104ac565b60020183815481106106a9576106a96108fc565b5f91825260209091200155816106bd6104ac565b5f83815260099190910160205260409020556106d76104ac565b5f85815260099190910160205260408120556106f16104ac565b60020180548061070357610703610910565b600190038181905f5260205f20015f9055905550505050565b5f60016107276104ac565b6001600160a01b0385165f908152600491909101602052604090205461074d91906108dd565b9050816107586104ac565b6001600160a01b0385165f90815260079190910160209081526040808320858452909152902055806107886104ac565b5f9384526008016020526040909220919091555050565b5f6001600160a01b038316158015906102e05750826001600160a01b0316846001600160a01b0316148061080457506107d66104ac565b6001600160a01b038086165f90815260069290920160209081526040808420928716845291905290205460ff165b806102e05750826001600160a01b031661081d8361086c565b6001600160a01b031614949350505050565b5f5f61083a836102e8565b90506001600160a01b03811661086657604051637e27328960e01b8152600481018490526024016100d4565b92915050565b5f6108756104ac565b5f9283526005016020525060409020546001600160a01b031690565b5f5f604083850312156108a2575f5ffd5b82356001600160a01b03811681146108b8575f5ffd5b946020939093013593505050565b5f602082840312156108d6575f5ffd5b5035919050565b8181038181111561086657634e487b7160e01b5f52601160045260245ffd5b634e487b7160e01b5f52603260045260245ffd5b634e487b7160e01b5f52603160045260245ffdfea264697066735822122044970c2beef576ce75e1369d601c7c88e1437d7020be77fc793beebc682190df64736f6c634300081b0033",
			"opcodes": "PUSH1 0x80 PUSH1 0x40 MSTORE CALLVALUE DUP1 ISZERO PUSH1 0xE JUMPI PUSH0 PUSH0 REVERT JUMPDEST POP PUSH2 0x95A DUP1 PUSH2 0x1C PUSH0 CODECOPY PUSH0 RETURN INVALID PUSH1 0x80 PUSH1 0x40 MSTORE PUSH1 0x4 CALLDATASIZE LT PUSH2 0x3E JUMPI PUSH0 CALLDATALOAD PUSH1 0xE0 SHR DUP1 PUSH4 0x40C10F19 EQ PUSH2 0x42 JUMPI DUP1 PUSH4 0x42966C68 EQ PUSH2 0x57 JUMPI DUP1 PUSH4 0x722713F7 EQ PUSH2 0x76 JUMPI DUP1 PUSH4 0xA1448194 EQ PUSH2 0x42 JUMPI JUMPDEST PUSH0 PUSH0 REVERT JUMPDEST PUSH2 0x55 PUSH2 0x50 CALLDATASIZE PUSH1 0x4 PUSH2 0x891 JUMP JUMPDEST PUSH2 0x95 JUMP JUMPDEST STOP JUMPDEST CALLVALUE DUP1 ISZERO PUSH2 0x62 JUMPI PUSH0 PUSH0 REVERT JUMPDEST POP PUSH2 0x55 PUSH2 0x71 CALLDATASIZE PUSH1 0x4 PUSH2 0x8C6 JUMP JUMPDEST PUSH2 0xA3 JUMP JUMPDEST CALLVALUE DUP1 ISZERO PUSH2 0x81 JUMPI PUSH0 PUSH0 REVERT JUMPDEST POP SELFBALANCE PUSH1 0x40 MLOAD SWAP1 DUP2 MSTORE PUSH1 0x20 ADD PUSH1 0x40 MLOAD DUP1 SWAP2 SUB SWAP1 RETURN JUMPDEST PUSH2 0x9F DUP3 DUP3 PUSH2 0xAF JUMP JUMPDEST POP POP JUMP JUMPDEST PUSH2 0xAC DUP2 PUSH2 0x11A JUMP JUMPDEST POP JUMP JUMPDEST PUSH1 0x1 PUSH1 0x1 PUSH1 0xA0 SHL SUB DUP3 AND PUSH2 0xDD JUMPI PUSH1 0x40 MLOAD PUSH4 0x32505749 PUSH1 0xE1 SHL DUP2 MSTORE PUSH0 PUSH1 0x4 DUP3 ADD MSTORE PUSH1 0x24 ADD JUMPDEST PUSH1 0x40 MLOAD DUP1 SWAP2 SUB SWAP1 REVERT JUMPDEST PUSH0 PUSH2 0xE9 DUP4 DUP4 PUSH0 PUSH2 0x152 JUMP JUMPDEST SWAP1 POP PUSH1 0x1 PUSH1 0x1 PUSH1 0xA0 SHL SUB DUP2 AND ISZERO PUSH2 0x115 JUMPI PUSH1 0x40 MLOAD PUSH4 0x39E35637 PUSH1 0xE1 SHL DUP2 MSTORE PUSH0 PUSH1 0x4 DUP3 ADD MSTORE PUSH1 0x24 ADD PUSH2 0xD4 JUMP JUMPDEST POP POP POP JUMP JUMPDEST PUSH0 PUSH2 0x126 PUSH0 DUP4 PUSH0 PUSH2 0x152 JUMP JUMPDEST SWAP1 POP PUSH1 0x1 PUSH1 0x1 PUSH1 0xA0 SHL SUB DUP2 AND PUSH2 0x9F JUMPI PUSH1 0x40 MLOAD PUSH4 0x7E273289 PUSH1 0xE0 SHL DUP2 MSTORE PUSH1 0x4 DUP2 ADD DUP4 SWAP1 MSTORE PUSH1 0x24 ADD PUSH2 0xD4 JUMP JUMPDEST PUSH0 PUSH0 PUSH2 0x15D DUP5 PUSH2 0x2E8 JUMP JUMPDEST SWAP1 POP PUSH1 0x1 PUSH1 0x1 PUSH1 0xA0 SHL SUB DUP4 AND ISZERO PUSH2 0x179 JUMPI PUSH2 0x179 DUP2 DUP5 DUP7 PUSH2 0x30D JUMP JUMPDEST PUSH1 0x1 PUSH1 0x1 PUSH1 0xA0 SHL SUB DUP2 AND ISZERO PUSH2 0x1C2 JUMPI PUSH2 0x194 PUSH0 DUP6 PUSH0 PUSH0 PUSH2 0x371 JUMP JUMPDEST PUSH1 0x1 PUSH2 0x19E PUSH2 0x4AC JUMP JUMPDEST PUSH1 0x1 PUSH1 0x1 PUSH1 0xA0 SHL SUB DUP4 AND PUSH0 SWAP1 DUP2 MSTORE PUSH1 0x4 SWAP2 SWAP1 SWAP2 ADD PUSH1 0x20 MSTORE PUSH1 0x40 SWAP1 KECCAK256 DUP1 SLOAD SWAP2 SWAP1 SWAP2 SUB SWAP1 SSTORE JUMPDEST PUSH1 0x1 PUSH1 0x1 PUSH1 0xA0 SHL SUB DUP6 AND ISZERO PUSH2 0x1FE JUMPI PUSH1 0x1 PUSH2 0x1DB PUSH2 0x4AC JUMP JUMPDEST PUSH1 0x1 PUSH1 0x1 PUSH1 0xA0 SHL SUB DUP8 AND PUSH0 SWAP1 DUP2 MSTORE PUSH1 0x4 SWAP2 SWAP1 SWAP2 ADD PUSH1 0x20 MSTORE PUSH1 0x40 SWAP1 KECCAK256 DUP1 SLOAD SWAP1 SWAP2 ADD SWAP1 SSTORE JUMPDEST DUP5 PUSH2 0x207 PUSH2 0x4AC JUMP JUMPDEST PUSH0 DUP7 DUP2 MSTORE PUSH1 0x3 SWAP2 SWAP1 SWAP2 ADD PUSH1 0x20 MSTORE PUSH1 0x40 DUP1 DUP3 KECCAK256 DUP1 SLOAD PUSH1 0x1 PUSH1 0x1 PUSH1 0xA0 SHL SUB NOT AND PUSH1 0x1 PUSH1 0x1 PUSH1 0xA0 SHL SUB SWAP5 DUP6 AND OR SWAP1 SSTORE MLOAD DUP7 SWAP3 DUP9 DUP2 AND SWAP3 SWAP1 DUP6 AND SWAP2 PUSH32 0xDDF252AD1BE2C89B69C2B068FC378DAA952BA7F163C4A11628F55A4DF523B3EF SWAP2 SWAP1 LOG4 PUSH1 0x1 PUSH1 0x1 PUSH1 0xA0 SHL SUB DUP2 AND PUSH2 0x27E JUMPI PUSH2 0x279 DUP5 PUSH2 0x4D0 JUMP JUMPDEST PUSH2 0x2A1 JUMP JUMPDEST DUP5 PUSH1 0x1 PUSH1 0x1 PUSH1 0xA0 SHL SUB AND DUP2 PUSH1 0x1 PUSH1 0x1 PUSH1 0xA0 SHL SUB AND EQ PUSH2 0x2A1 JUMPI PUSH2 0x2A1 DUP2 DUP6 PUSH2 0x516 JUMP JUMPDEST PUSH1 0x1 PUSH1 0x1 PUSH1 0xA0 SHL SUB DUP6 AND PUSH2 0x2BD JUMPI PUSH2 0x2B8 DUP5 PUSH2 0x62D JUMP JUMPDEST PUSH2 0x2E0 JUMP JUMPDEST DUP5 PUSH1 0x1 PUSH1 0x1 PUSH1 0xA0 SHL SUB AND DUP2 PUSH1 0x1 PUSH1 0x1 PUSH1 0xA0 SHL SUB AND EQ PUSH2 0x2E0 JUMPI PUSH2 0x2E0 DUP6 DUP6 PUSH2 0x71C JUMP JUMPDEST SWAP5 SWAP4 POP POP POP POP JUMP JUMPDEST PUSH0 PUSH2 0x2F1 PUSH2 0x4AC JUMP JUMPDEST PUSH0 SWAP3 DUP4 MSTORE PUSH1 0x3 ADD PUSH1 0x20 MSTORE POP PUSH1 0x40 SWAP1 KECCAK256 SLOAD PUSH1 0x1 PUSH1 0x1 PUSH1 0xA0 SHL SUB AND SWAP1 JUMP JUMPDEST PUSH2 0x318 DUP4 DUP4 DUP4 PUSH2 0x79F JUMP JUMPDEST PUSH2 0x115 JUMPI PUSH1 0x1 PUSH1 0x1 PUSH1 0xA0 SHL SUB DUP4 AND PUSH2 0x346 JUMPI PUSH1 0x40 MLOAD PUSH4 0x7E273289 PUSH1 0xE0 SHL DUP2 MSTORE PUSH1 0x4 DUP2 ADD DUP3 SWAP1 MSTORE PUSH1 0x24 ADD PUSH2 0xD4 JUMP JUMPDEST PUSH1 0x40 MLOAD PUSH4 0x177E802F PUSH1 0xE0 SHL DUP2 MSTORE PUSH1 0x1 PUSH1 0x1 PUSH1 0xA0 SHL SUB DUP4 AND PUSH1 0x4 DUP3 ADD MSTORE PUSH1 0x24 DUP2 ADD DUP3 SWAP1 MSTORE PUSH1 0x44 ADD PUSH2 0xD4 JUMP JUMPDEST DUP1 DUP1 PUSH2 0x385 JUMPI POP PUSH1 0x1 PUSH1 0x1 PUSH1 0xA0 SHL SUB DUP3 AND ISZERO ISZERO JUMPDEST ISZERO PUSH2 0x471 JUMPI PUSH0 PUSH2 0x394 DUP5 PUSH2 0x82F JUMP JUMPDEST SWAP1 POP PUSH1 0x1 PUSH1 0x1 PUSH1 0xA0 SHL SUB DUP4 AND ISZERO DUP1 ISZERO SWAP1 PUSH2 0x3C0 JUMPI POP DUP3 PUSH1 0x1 PUSH1 0x1 PUSH1 0xA0 SHL SUB AND DUP2 PUSH1 0x1 PUSH1 0x1 PUSH1 0xA0 SHL SUB AND EQ ISZERO JUMPDEST DUP1 ISZERO PUSH2 0x3FE JUMPI POP PUSH2 0x3CF PUSH2 0x4AC JUMP JUMPDEST PUSH1 0x1 PUSH1 0x1 PUSH1 0xA0 SHL SUB DUP1 DUP4 AND PUSH0 SWAP1 DUP2 MSTORE PUSH1 0x6 SWAP3 SWAP1 SWAP3 ADD PUSH1 0x20 SWAP1 DUP2 MSTORE PUSH1 0x40 DUP1 DUP5 KECCAK256 SWAP3 DUP8 AND DUP5 MSTORE SWAP2 SWAP1 MSTORE SWAP1 KECCAK256 SLOAD PUSH1 0xFF AND ISZERO JUMPDEST ISZERO PUSH2 0x427 JUMPI PUSH1 0x40 MLOAD PUSH4 0xA9FBF51F PUSH1 0xE0 SHL DUP2 MSTORE PUSH1 0x1 PUSH1 0x1 PUSH1 0xA0 SHL SUB DUP5 AND PUSH1 0x4 DUP3 ADD MSTORE PUSH1 0x24 ADD PUSH2 0xD4 JUMP JUMPDEST DUP2 ISZERO PUSH2 0x46F JUMPI DUP4 DUP6 PUSH1 0x1 PUSH1 0x1 PUSH1 0xA0 SHL SUB AND DUP3 PUSH1 0x1 PUSH1 0x1 PUSH1 0xA0 SHL SUB AND PUSH32 0x8C5BE1E5EBEC7D5BD14F71427D1E84F3DD0314C0F7B2291E5B200AC8C7C3B925 PUSH1 0x40 MLOAD PUSH1 0x40 MLOAD DUP1 SWAP2 SUB SWAP1 LOG4 JUMPDEST POP JUMPDEST DUP4 PUSH2 0x47A PUSH2 0x4AC JUMP JUMPDEST PUSH0 SWAP5 DUP6 MSTORE PUSH1 0x5 ADD PUSH1 0x20 MSTORE PUSH1 0x40 SWAP1 SWAP4 KECCAK256 DUP1 SLOAD PUSH1 0x1 PUSH1 0x1 PUSH1 0xA0 SHL SUB NOT AND PUSH1 0x1 PUSH1 0x1 PUSH1 0xA0 SHL SUB SWAP1 SWAP5 AND SWAP4 SWAP1 SWAP4 OR SWAP1 SWAP3 SSTORE POP POP POP JUMP JUMPDEST PUSH32 0xF2DEC0ACAEF95DE6625646379D631ADFF4DB9F6C79B84A31ADCB9A23BF6CEA78 SWAP1 JUMP JUMPDEST PUSH2 0x4D8 PUSH2 0x4AC JUMP JUMPDEST PUSH1 0x2 ADD SLOAD PUSH2 0x4E4 PUSH2 0x4AC JUMP JUMPDEST PUSH0 DUP4 DUP2 MSTORE PUSH1 0x9 SWAP2 SWAP1 SWAP2 ADD PUSH1 0x20 MSTORE PUSH1 0x40 SWAP1 KECCAK256 SSTORE PUSH2 0x4FE PUSH2 0x4AC JUMP JUMPDEST PUSH1 0x2 ADD DUP1 SLOAD PUSH1 0x1 DUP2 ADD DUP3 SSTORE PUSH0 SWAP2 DUP3 MSTORE PUSH1 0x20 SWAP1 SWAP2 KECCAK256 ADD SSTORE JUMP JUMPDEST PUSH0 PUSH2 0x51F PUSH2 0x4AC JUMP JUMPDEST PUSH1 0x1 PUSH1 0x1 PUSH1 0xA0 SHL SUB DUP5 AND PUSH0 SWAP1 DUP2 MSTORE PUSH1 0x4 SWAP2 SWAP1 SWAP2 ADD PUSH1 0x20 MSTORE PUSH1 0x40 DUP2 KECCAK256 SLOAD SWAP2 POP PUSH2 0x545 PUSH2 0x4AC JUMP JUMPDEST PUSH0 DUP5 DUP2 MSTORE PUSH1 0x8 SWAP2 SWAP1 SWAP2 ADD PUSH1 0x20 MSTORE PUSH1 0x40 SWAP1 KECCAK256 SLOAD SWAP1 POP DUP2 DUP2 EQ PUSH2 0x5DC JUMPI PUSH0 PUSH2 0x569 PUSH2 0x4AC JUMP JUMPDEST PUSH1 0x1 PUSH1 0x1 PUSH1 0xA0 SHL SUB DUP7 AND PUSH0 SWAP1 DUP2 MSTORE PUSH1 0x7 SWAP2 SWAP1 SWAP2 ADD PUSH1 0x20 SWAP1 DUP2 MSTORE PUSH1 0x40 DUP1 DUP4 KECCAK256 DUP7 DUP5 MSTORE SWAP1 SWAP2 MSTORE SWAP1 KECCAK256 SLOAD SWAP1 POP DUP1 PUSH2 0x59B PUSH2 0x4AC JUMP JUMPDEST PUSH1 0x1 PUSH1 0x1 PUSH1 0xA0 SHL SUB DUP8 AND PUSH0 SWAP1 DUP2 MSTORE PUSH1 0x7 SWAP2 SWAP1 SWAP2 ADD PUSH1 0x20 SWAP1 DUP2 MSTORE PUSH1 0x40 DUP1 DUP4 KECCAK256 DUP7 DUP5 MSTORE SWAP1 SWAP2 MSTORE SWAP1 KECCAK256 SSTORE DUP2 PUSH2 0x5CB PUSH2 0x4AC JUMP JUMPDEST PUSH0 SWAP3 DUP4 MSTORE PUSH1 0x8 ADD PUSH1 0x20 MSTORE PUSH1 0x40 SWAP1 SWAP2 KECCAK256 SSTORE JUMPDEST PUSH2 0x5E4 PUSH2 0x4AC JUMP JUMPDEST PUSH0 DUP5 DUP2 MSTORE PUSH1 0x8 SWAP2 SWAP1 SWAP2 ADD PUSH1 0x20 MSTORE PUSH1 0x40 DUP2 KECCAK256 SSTORE PUSH2 0x5FE PUSH2 0x4AC JUMP JUMPDEST PUSH1 0x1 PUSH1 0x1 PUSH1 0xA0 SHL SUB SWAP1 SWAP5 AND PUSH0 SWAP1 DUP2 MSTORE PUSH1 0x7 SWAP5 SWAP1 SWAP5 ADD PUSH1 0x20 SWAP1 DUP2 MSTORE PUSH1 0x40 DUP1 DUP7 KECCAK256 SWAP4 DUP7 MSTORE SWAP3 SWAP1 MSTORE POP DUP3 KECCAK256 SWAP2 SWAP1 SWAP2 SSTORE POP JUMP JUMPDEST PUSH0 PUSH1 0x1 PUSH2 0x638 PUSH2 0x4AC JUMP JUMPDEST PUSH1 0x2 ADD SLOAD PUSH2 0x646 SWAP2 SWAP1 PUSH2 0x8DD JUMP JUMPDEST SWAP1 POP PUSH0 PUSH2 0x651 PUSH2 0x4AC JUMP JUMPDEST PUSH0 DUP5 DUP2 MSTORE PUSH1 0x9 SWAP2 SWAP1 SWAP2 ADD PUSH1 0x20 MSTORE PUSH1 0x40 DUP2 KECCAK256 SLOAD SWAP2 POP PUSH2 0x66D PUSH2 0x4AC JUMP JUMPDEST PUSH1 0x2 ADD DUP4 DUP2 SLOAD DUP2 LT PUSH2 0x681 JUMPI PUSH2 0x681 PUSH2 0x8FC JUMP JUMPDEST SWAP1 PUSH0 MSTORE PUSH1 0x20 PUSH0 KECCAK256 ADD SLOAD SWAP1 POP DUP1 PUSH2 0x695 PUSH2 0x4AC JUMP JUMPDEST PUSH1 0x2 ADD DUP4 DUP2 SLOAD DUP2 LT PUSH2 0x6A9 JUMPI PUSH2 0x6A9 PUSH2 0x8FC JUMP JUMPDEST PUSH0 SWAP2 DUP3 MSTORE PUSH1 0x20 SWAP1 SWAP2 KECCAK256 ADD SSTORE DUP2 PUSH2 0x6BD PUSH2 0x4AC JUMP JUMPDEST PUSH0 DUP4 DUP2 MSTORE PUSH1 0x9 SWAP2 SWAP1 SWAP2 ADD PUSH1 0x20 MSTORE PUSH1 0x40 SWAP1 KECCAK256 SSTORE PUSH2 0x6D7 PUSH2 0x4AC JUMP JUMPDEST PUSH0 DUP6 DUP2 MSTORE PUSH1 0x9 SWAP2 SWAP1 SWAP2 ADD PUSH1 0x20 MSTORE PUSH1 0x40 DUP2 KECCAK256 SSTORE PUSH2 0x6F1 PUSH2 0x4AC JUMP JUMPDEST PUSH1 0x2 ADD DUP1 SLOAD DUP1 PUSH2 0x703 JUMPI PUSH2 0x703 PUSH2 0x910 JUMP JUMPDEST PUSH1 0x1 SWAP1 SUB DUP2 DUP2 SWAP1 PUSH0 MSTORE PUSH1 0x20 PUSH0 KECCAK256 ADD PUSH0 SWAP1 SSTORE SWAP1 SSTORE POP POP POP POP JUMP JUMPDEST PUSH0 PUSH1 0x1 PUSH2 0x727 PUSH2 0x4AC JUMP JUMPDEST PUSH1 0x1 PUSH1 0x1 PUSH1 0xA0 SHL SUB DUP6 AND PUSH0 SWAP1 DUP2 MSTORE PUSH1 0x4 SWAP2 SWAP1 SWAP2 ADD PUSH1 0x20 MSTORE PUSH1 0x40 SWAP1 KECCAK256 SLOAD PUSH2 0x74D SWAP2 SWAP1 PUSH2 0x8DD JUMP JUMPDEST SWAP1 POP DUP2 PUSH2 0x758 PUSH2 0x4AC JUMP JUMPDEST PUSH1 0x1 PUSH1 0x1 PUSH1 0xA0 SHL SUB DUP6 AND PUSH0 SWAP1 DUP2 MSTORE PUSH1 0x7 SWAP2 SWAP1 SWAP2 ADD PUSH1 0x20 SWAP1 DUP2 MSTORE PUSH1 0x40 DUP1 DUP4 KECCAK256 DUP6 DUP5 MSTORE SWAP1 SWAP2 MSTORE SWAP1 KECCAK256 SSTORE DUP1 PUSH2 0x788 PUSH2 0x4AC JUMP JUMPDEST PUSH0 SWAP4 DUP5 MSTORE PUSH1 0x8 ADD PUSH1 0x20 MSTORE PUSH1 0x40 SWAP1 SWAP3 KECCAK256 SWAP2 SWAP1 SWAP2 SSTORE POP POP JUMP JUMPDEST PUSH0 PUSH1 0x1 PUSH1 0x1 PUSH1 0xA0 SHL SUB DUP4 AND ISZERO DUP1 ISZERO SWAP1 PUSH2 0x2E0 JUMPI POP DUP3 PUSH1 0x1 PUSH1 0x1 PUSH1 0xA0 SHL SUB AND DUP5 PUSH1 0x1 PUSH1 0x1 PUSH1 0xA0 SHL SUB AND EQ DUP1 PUSH2 0x804 JUMPI POP PUSH2 0x7D6 PUSH2 0x4AC JUMP JUMPDEST PUSH1 0x1 PUSH1 0x1 PUSH1 0xA0 SHL SUB DUP1 DUP7 AND PUSH0 SWAP1 DUP2 MSTORE PUSH1 0x6 SWAP3 SWAP1 SWAP3 ADD PUSH1 0x20 SWAP1 DUP2 MSTORE PUSH1 0x40 DUP1 DUP5 KECCAK256 SWAP3 DUP8 AND DUP5 MSTORE SWAP2 SWAP1 MSTORE SWAP1 KECCAK256 SLOAD PUSH1 0xFF AND JUMPDEST DUP1 PUSH2 0x2E0 JUMPI POP DUP3 PUSH1 0x1 PUSH1 0x1 PUSH1 0xA0 SHL SUB AND PUSH2 0x81D DUP4 PUSH2 0x86C JUMP JUMPDEST PUSH1 0x1 PUSH1 0x1 PUSH1 0xA0 SHL SUB AND EQ SWAP5 SWAP4 POP POP POP POP JUMP JUMPDEST PUSH0 PUSH0 PUSH2 0x83A DUP4 PUSH2 0x2E8 JUMP JUMPDEST SWAP1 POP PUSH1 0x1 PUSH1 0x1 PUSH1 0xA0 SHL SUB DUP2 AND PUSH2 0x866 JUMPI PUSH1 0x40 MLOAD PUSH4 0x7E273289 PUSH1 0xE0 SHL DUP2 MSTORE PUSH1 0x4 DUP2 ADD DUP5 SWAP1 MSTORE PUSH1 0x24 ADD PUSH2 0xD4 JUMP JUMPDEST SWAP3 SWAP2 POP POP JUMP JUMPDEST PUSH0 PUSH2 0x875 PUSH2 0x4AC JUMP JUMPDEST PUSH0 SWAP3 DUP4 MSTORE PUSH1 0x5 ADD PUSH1 0x20 MSTORE POP PUSH1 0x40 SWAP1 KECCAK256 SLOAD PUSH1 0x1 PUSH1 0x1 PUSH1 0xA0 SHL SUB AND SWAP1 JUMP JUMPDEST PUSH0 PUSH0 PUSH1 0x40 DUP4 DUP6 SUB SLT ISZERO PUSH2 0x8A2 JUMPI PUSH0 PUSH0 REVERT JUMPDEST DUP3 CALLDATALOAD PUSH1 0x1 PUSH1 0x1 PUSH1 0xA0 SHL SUB DUP2 AND DUP2 EQ PUSH2 0x8B8 JUMPI PUSH0 PUSH0 REVERT JUMPDEST SWAP5 PUSH1 0x20 SWAP4 SWAP1 SWAP4 ADD CALLDATALOAD SWAP4 POP POP POP JUMP JUMPDEST PUSH0 PUSH1 0x20 DUP3 DUP5 SUB SLT ISZERO PUSH2 0x8D6 JUMPI PUSH0 PUSH0 REVERT JUMPDEST POP CALLDATALOAD SWAP2 SWAP1 POP JUMP JUMPDEST DUP2 DUP2 SUB DUP2 DUP2 GT ISZERO PUSH2 0x866 JUMPI PUSH4 0x4E487B71 PUSH1 0xE0 SHL PUSH0 MSTORE PUSH1 0x11 PUSH1 0x4 MSTORE PUSH1 0x24 PUSH0 REVERT JUMPDEST PUSH4 0x4E487B71 PUSH1 0xE0 SHL PUSH0 MSTORE PUSH1 0x32 PUSH1 0x4 MSTORE PUSH1 0x24 PUSH0 REVERT JUMPDEST PUSH4 0x4E487B71 PUSH1 0xE0 SHL PUSH0 MSTORE PUSH1 0x31 PUSH1 0x4 MSTORE PUSH1 0x24 PUSH0 REVERT INVALID LOG2 PUSH5 0x6970667358 0x22 SLT KECCAK256 PREVRANDAO SWAP8 0xC 0x2B 0xEE CREATE2 PUSH23 0xCE75E1369D601C7C88E1437D7020BE77FC793BEEBC6821 SWAP1 0xDF PUSH5 0x736F6C6343 STOP ADDMOD SHL STOP CALLER "
		},
		"gasEstimates": {
			"creation": {
				"codeDepositCost": "478800",
				"executionCost": "509",
				"totalCost": "479309"
			},
			"external": {
				"balanceOf()": "191",
				"burn(uint256)": "infinite",
				"mint(address,uint256)": "infinite",
				"safeMint(address,uint256)": "infinite"
			}
		},
		"methodIdentifiers": {
			"balanceOf()": "722713f7",
			"burn(uint256)": "42966c68",
			"mint(address,uint256)": "40c10f19",
			"safeMint(address,uint256)": "a1448194"
		}
	},
	"abi": [
		{
			"inputs": [
				{
					"internalType": "address",
					"name": "operator",
					"type": "address"
				},
				{
					"internalType": "uint256",
					"name": "tokenId",
					"type": "uint256"
				}
			],
			"name": "ERC721InsufficientApproval",
			"type": "error"
		},
		{
			"inputs": [
				{
					"internalType": "address",
					"name": "approver",
					"type": "address"
				}
			],
			"name": "ERC721InvalidApprover",
			"type": "error"
		},
		{
			"inputs": [
				{
					"internalType": "address",
					"name": "receiver",
					"type": "address"
				}
			],
			"name": "ERC721InvalidReceiver",
			"type": "error"
		},
		{
			"inputs": [
				{
					"internalType": "address",
					"name": "sender",
					"type": "address"
				}
			],
			"name": "ERC721InvalidSender",
			"type": "error"
		},
		{
			"inputs": [
				{
					"internalType": "uint256",
					"name": "tokenId",
					"type": "uint256"
				}
			],
			"name": "ERC721NonexistentToken",
			"type": "error"
		},
		{
			"anonymous": false,
			"inputs": [
				{
					"indexed": true,
					"internalType": "address",
					"name": "owner",
					"type": "address"
				},
				{
					"indexed": true,
					"internalType": "address",
					"name": "approved",
					"type": "address"
				},
				{
					"indexed": true,
					"internalType": "uint256",
					"name": "tokenId",
					"type": "uint256"
				}
			],
			"name": "Approval",
			"type": "event"
		},
		{
			"anonymous": false,
			"inputs": [
				{
					"indexed": true,
					"internalType": "address",
					"name": "from",
					"type": "address"
				},
				{
					"indexed": true,
					"internalType": "address",
					"name": "to",
					"type": "address"
				},
				{
					"indexed": true,
					"internalType": "uint256",
					"name": "tokenId",
					"type": "uint256"
				}
			],
			"name": "Transfer",
			"type": "event"
		},
		{
			"inputs": [],
			"name": "balanceOf",
			"outputs": [
				{
					"internalType": "uint256",
					"name": "",
					"type": "uint256"
				}
			],
			"stateMutability": "view",
			"type": "function"
		},
		{
			"inputs": [
				{
					"internalType": "uint256",
					"name": "_tokenId",
					"type": "uint256"
				}
			],
			"name": "burn",
			"outputs": [],
			"stateMutability": "nonpayable",
			"type": "function"
		},
		{
			"inputs": [
				{
					"internalType": "address",
					"name": "_to",
					"type": "address"
				},
				{
					"internalType": "uint256",
					"name": "_tokenId",
					"type": "uint256"
				}
			],
			"name": "mint",
			"outputs": [],
			"stateMutability": "payable",
			"type": "function"
		},
		{
			"inputs": [
				{
					"internalType": "address",
					"name": "_to",
					"type": "address"
				},
				{
					"internalType": "uint256",
					"name": "_tokenId",
					"type": "uint256"
				}
			],
			"name": "safeMint",
			"outputs": [],
			"stateMutability": "payable",
			"type": "function"
		}
	]
}