{
	"contracts/facets/ERC721Facet.sol": {
		"ERC721Facet": {
			"abi": [
				{
					"inputs": [
						{
							"internalType": "address",
							"name": "sender",
							"type": "address"
						},
						{
							"internalType": "uint256",
							"name": "tokenId",
							"type": "uint256"
						},
						{
							"internalType": "address",
							"name": "owner",
							"type": "address"
						}
					],
					"name": "ERC721IncorrectOwner",
					"type": "error"
				},
				{
					"inputs": [
						{
							"internalType": "address",
							"name": "operator",
							"type": "address"
						},
						{
							"internalType": "uint256",
							"name": "tokenId",
							"type": "uint256"
						}
					],
					"name": "ERC721InsufficientApproval",
					"type": "error"
				},
				{
					"inputs": [
						{
							"internalType": "address",
							"name": "approver",
							"type": "address"
						}
					],
					"name": "ERC721InvalidApprover",
					"type": "error"
				},
				{
					"inputs": [
						{
							"internalType": "address",
							"name": "operator",
							"type": "address"
						}
					],
					"name": "ERC721InvalidOperator",
					"type": "error"
				},
				{
					"inputs": [
						{
							"internalType": "address",
							"name": "owner",
							"type": "address"
						}
					],
					"name": "ERC721InvalidOwner",
					"type": "error"
				},
				{
					"inputs": [
						{
							"internalType": "address",
							"name": "receiver",
							"type": "address"
						}
					],
					"name": "ERC721InvalidReceiver",
					"type": "error"
				},
				{
					"inputs": [
						{
							"internalType": "uint256",
							"name": "tokenId",
							"type": "uint256"
						}
					],
					"name": "ERC721NonexistentToken",
					"type": "error"
				},
				{
					"inputs": [
						{
							"internalType": "address",
							"name": "owner",
							"type": "address"
						},
						{
							"internalType": "uint256",
							"name": "index",
							"type": "uint256"
						}
					],
					"name": "ERC721OutOfBoundsIndex",
					"type": "error"
				},
				{
					"anonymous": false,
					"inputs": [
						{
							"indexed": true,
							"internalType": "address",
							"name": "owner",
							"type": "address"
						},
						{
							"indexed": true,
							"internalType": "address",
							"name": "approved",
							"type": "address"
						},
						{
							"indexed": true,
							"internalType": "uint256",
							"name": "tokenId",
							"type": "uint256"
						}
					],
					"name": "Approval",
					"type": "event"
				},
				{
					"anonymous": false,
					"inputs": [
						{
							"indexed": true,
							"internalType": "address",
							"name": "owner",
							"type": "address"
						},
						{
							"indexed": true,
							"internalType": "address",
							"name": "operator",
							"type": "address"
						},
						{
							"indexed": false,
							"internalType": "bool",
							"name": "approved",
							"type": "bool"
						}
					],
					"name": "ApprovalForAll",
					"type": "event"
				},
				{
					"anonymous": false,
					"inputs": [
						{
							"indexed": true,
							"internalType": "address",
							"name": "from",
							"type": "address"
						},
						{
							"indexed": true,
							"internalType": "address",
							"name": "to",
							"type": "address"
						},
						{
							"indexed": true,
							"internalType": "uint256",
							"name": "tokenId",
							"type": "uint256"
						}
					],
					"name": "Transfer",
					"type": "event"
				},
				{
					"inputs": [
						{
							"internalType": "address",
							"name": "to",
							"type": "address"
						},
						{
							"internalType": "uint256",
							"name": "tokenId",
							"type": "uint256"
						}
					],
					"name": "approve",
					"outputs": [],
					"stateMutability": "nonpayable",
					"type": "function"
				},
				{
					"inputs": [
						{
							"internalType": "address",
							"name": "owner",
							"type": "address"
						}
					],
					"name": "balanceOf",
					"outputs": [
						{
							"internalType": "uint256",
							"name": "",
							"type": "uint256"
						}
					],
					"stateMutability": "view",
					"type": "function"
				},
				{
					"inputs": [],
					"name": "contractURI",
					"outputs": [
						{
							"internalType": "string",
							"name": "",
							"type": "string"
						}
					],
					"stateMutability": "view",
					"type": "function"
				},
				{
					"inputs": [
						{
							"internalType": "uint256",
							"name": "tokenId",
							"type": "uint256"
						}
					],
					"name": "getApproved",
					"outputs": [
						{
							"internalType": "address",
							"name": "",
							"type": "address"
						}
					],
					"stateMutability": "view",
					"type": "function"
				},
				{
					"inputs": [
						{
							"internalType": "address",
							"name": "owner",
							"type": "address"
						},
						{
							"internalType": "address",
							"name": "operator",
							"type": "address"
						}
					],
					"name": "isApprovedForAll",
					"outputs": [
						{
							"internalType": "bool",
							"name": "",
							"type": "bool"
						}
					],
					"stateMutability": "view",
					"type": "function"
				},
				{
					"inputs": [],
					"name": "name",
					"outputs": [
						{
							"internalType": "string",
							"name": "",
							"type": "string"
						}
					],
					"stateMutability": "view",
					"type": "function"
				},
				{
					"inputs": [
						{
							"internalType": "uint256",
							"name": "tokenId",
							"type": "uint256"
						}
					],
					"name": "ownerOf",
					"outputs": [
						{
							"internalType": "address",
							"name": "",
							"type": "address"
						}
					],
					"stateMutability": "view",
					"type": "function"
				},
				{
					"inputs": [
						{
							"internalType": "address",
							"name": "from",
							"type": "address"
						},
						{
							"internalType": "address",
							"name": "to",
							"type": "address"
						},
						{
							"internalType": "uint256",
							"name": "tokenId",
							"type": "uint256"
						}
					],
					"name": "safeTransferFrom",
					"outputs": [],
					"stateMutability": "nonpayable",
					"type": "function"
				},
				{
					"inputs": [
						{
							"internalType": "address",
							"name": "from",
							"type": "address"
						},
						{
							"internalType": "address",
							"name": "to",
							"type": "address"
						},
						{
							"internalType": "uint256",
							"name": "tokenId",
							"type": "uint256"
						},
						{
							"internalType": "bytes",
							"name": "data",
							"type": "bytes"
						}
					],
					"name": "safeTransferFrom",
					"outputs": [],
					"stateMutability": "nonpayable",
					"type": "function"
				},
				{
					"inputs": [
						{
							"internalType": "address",
							"name": "operator",
							"type": "address"
						},
						{
							"internalType": "bool",
							"name": "approved",
							"type": "bool"
						}
					],
					"name": "setApprovalForAll",
					"outputs": [],
					"stateMutability": "nonpayable",
					"type": "function"
				},
				{
					"inputs": [],
					"name": "symbol",
					"outputs": [
						{
							"internalType": "string",
							"name": "",
							"type": "string"
						}
					],
					"stateMutability": "view",
					"type": "function"
				},
				{
					"inputs": [
						{
							"internalType": "uint256",
							"name": "index",
							"type": "uint256"
						}
					],
					"name": "tokenByIndex",
					"outputs": [
						{
							"internalType": "uint256",
							"name": "",
							"type": "uint256"
						}
					],
					"stateMutability": "view",
					"type": "function"
				},
				{
					"inputs": [
						{
							"internalType": "address",
							"name": "owner",
							"type": "address"
						},
						{
							"internalType": "uint256",
							"name": "index",
							"type": "uint256"
						}
					],
					"name": "tokenOfOwnerByIndex",
					"outputs": [
						{
							"internalType": "uint256",
							"name": "",
							"type": "uint256"
						}
					],
					"stateMutability": "view",
					"type": "function"
				},
				{
					"inputs": [
						{
							"internalType": "uint256",
							"name": "tokenId",
							"type": "uint256"
						}
					],
					"name": "tokenURI",
					"outputs": [
						{
							"internalType": "string",
							"name": "",
							"type": "string"
						}
					],
					"stateMutability": "view",
					"type": "function"
				},
				{
					"inputs": [],
					"name": "totalSupply",
					"outputs": [
						{
							"internalType": "uint256",
							"name": "",
							"type": "uint256"
						}
					],
					"stateMutability": "view",
					"type": "function"
				},
				{
					"inputs": [
						{
							"internalType": "address",
							"name": "from",
							"type": "address"
						},
						{
							"internalType": "address",
							"name": "to",
							"type": "address"
						},
						{
							"internalType": "uint256",
							"name": "tokenId",
							"type": "uint256"
						}
					],
					"name": "transferFrom",
					"outputs": [],
					"stateMutability": "nonpayable",
					"type": "function"
				}
			],
			"devdoc": {
				"errors": {
					"ERC721IncorrectOwner(address,uint256,address)": [
						{
							"details": "Indicates an error related to the ownership over a particular token. Used in transfers.",
							"params": {
								"owner": "Address of the current owner of a token.",
								"sender": "Address whose tokens are being transferred.",
								"tokenId": "Identifier number of a token."
							}
						}
					],
					"ERC721InsufficientApproval(address,uint256)": [
						{
							"details": "Indicates a failure with the `operator`’s approval. Used in transfers.",
							"params": {
								"operator": "Address that may be allowed to operate on tokens without being their owner.",
								"tokenId": "Identifier number of a token."
							}
						}
					],
					"ERC721InvalidApprover(address)": [
						{
							"details": "Indicates a failure with the `approver` of a token to be approved. Used in approvals.",
							"params": {
								"approver": "Address initiating an approval operation."
							}
						}
					],
					"ERC721InvalidOperator(address)": [
						{
							"details": "Indicates a failure with the `operator` to be approved. Used in approvals.",
							"params": {
								"operator": "Address that may be allowed to operate on tokens without being their owner."
							}
						}
					],
					"ERC721InvalidOwner(address)": [
						{
							"details": "Indicates that an address can't be an owner. For example, `address(0)` is a forbidden owner in ERC-20. Used in balance queries.",
							"params": {
								"owner": "Address of the current owner of a token."
							}
						}
					],
					"ERC721InvalidReceiver(address)": [
						{
							"details": "Indicates a failure with the token `receiver`. Used in transfers.",
							"params": {
								"receiver": "Address to which tokens are being transferred."
							}
						}
					],
					"ERC721NonexistentToken(uint256)": [
						{
							"details": "Indicates a `tokenId` whose `owner` is the zero address.",
							"params": {
								"tokenId": "Identifier number of a token."
							}
						}
					],
					"ERC721OutOfBoundsIndex(address,uint256)": [
						{
							"details": "An `owner`'s token query was out of bounds for `index`. NOTE: The owner being `address(0)` indicates a global out of bounds index."
						}
					]
				},
				"events": {
					"Approval(address,address,uint256)": {
						"details": "Emitted when `owner` enables `approved` to manage the `tokenId` token."
					},
					"ApprovalForAll(address,address,bool)": {
						"details": "Emitted when `owner` enables or disables (`approved`) `operator` to manage all of its assets."
					},
					"Transfer(address,address,uint256)": {
						"details": "Emitted when `tokenId` token is transferred from `from` to `to`."
					}
				},
				"kind": "dev",
				"methods": {
					"approve(address,uint256)": {
						"details": "Gives permission to `to` to transfer `tokenId` token to another account. The approval is cleared when the token is transferred. Only a single account can be approved at a time, so approving the zero address clears previous approvals. Requirements: - The caller must own the token or be an approved operator. - `tokenId` must exist. Emits an {Approval} event."
					},
					"balanceOf(address)": {
						"details": "Returns the number of tokens in ``owner``'s account."
					},
					"getApproved(uint256)": {
						"details": "Returns the account approved for `tokenId` token. Requirements: - `tokenId` must exist."
					},
					"isApprovedForAll(address,address)": {
						"details": "Returns if the `operator` is allowed to manage all of the assets of `owner`. See {setApprovalForAll}"
					},
					"name()": {
						"details": "Returns the token collection name."
					},
					"ownerOf(uint256)": {
						"details": "Returns the owner of the `tokenId` token. Requirements: - `tokenId` must exist."
					},
					"safeTransferFrom(address,address,uint256)": {
						"details": "Safely transfers `tokenId` token from `from` to `to`, checking first that contract recipients are aware of the ERC721 protocol to prevent tokens from being forever locked. Requirements: - `from` cannot be the zero address. - `to` cannot be the zero address. - `tokenId` token must exist and be owned by `from`. - If the caller is not `from`, it must have been allowed to move this token by either {approve} or   {setApprovalForAll}. - If `to` refers to a smart contract, it must implement {IERC721Receiver-onERC721Received}, which is called upon   a safe transfer. Emits a {Transfer} event."
					},
					"safeTransferFrom(address,address,uint256,bytes)": {
						"details": "Safely transfers `tokenId` token from `from` to `to`. Requirements: - `from` cannot be the zero address. - `to` cannot be the zero address. - `tokenId` token must exist and be owned by `from`. - If the caller is not `from`, it must be approved to move this token by either {approve} or {setApprovalForAll}. - If `to` refers to a smart contract, it must implement {IERC721Receiver-onERC721Received}, which is called upon   a safe transfer. Emits a {Transfer} event."
					},
					"setApprovalForAll(address,bool)": {
						"details": "Approve or remove `operator` as an operator for the caller. Operators can call {transferFrom} or {safeTransferFrom} for any token owned by the caller. Requirements: - The `operator` cannot be the address zero. Emits an {ApprovalForAll} event."
					},
					"symbol()": {
						"details": "Returns the token collection symbol."
					},
					"tokenByIndex(uint256)": {
						"details": "Returns a token ID at a given `index` of all the tokens stored by the contract. Use along with {totalSupply} to enumerate all tokens."
					},
					"tokenOfOwnerByIndex(address,uint256)": {
						"details": "Returns a token ID owned by `owner` at a given `index` of its token list. Use along with {balanceOf} to enumerate all of ``owner``'s tokens."
					},
					"tokenURI(uint256)": {
						"details": "Returns the Uniform Resource Identifier (URI) for `tokenId` token."
					},
					"totalSupply()": {
						"details": "Returns the total amount of tokens stored by the contract."
					},
					"transferFrom(address,address,uint256)": {
						"details": "Transfers `tokenId` token from `from` to `to`. WARNING: Note that the caller is responsible to confirm that the recipient is capable of receiving ERC721 or else they may be permanently lost. Usage of {safeTransferFrom} prevents loss, though the caller must understand this adds an external call which potentially creates a reentrancy vulnerability. Requirements: - `from` cannot be the zero address. - `to` cannot be the zero address. - `tokenId` token must be owned by `from`. - If the caller is not `from`, it must be approved to move this token by either {approve} or {setApprovalForAll}. Emits a {Transfer} event."
					}
				},
				"version": 1
			},
			"evm": {
				"assembly": "    /* \"contracts/facets/ERC721Facet.sol\":418:4968  contract ERC721Facet is IERC721Metadata, IERC721Enumerable {... */\n  mstore(0x40, 0x80)\n  callvalue\n  dup1\n  iszero\n  tag_1\n  jumpi\n  revert(0x00, 0x00)\ntag_1:\n  pop\n  dataSize(sub_0)\n  dup1\n  dataOffset(sub_0)\n  0x00\n  codecopy\n  0x00\n  return\nstop\n\nsub_0: assembly {\n        /* \"contracts/facets/ERC721Facet.sol\":418:4968  contract ERC721Facet is IERC721Metadata, IERC721Enumerable {... */\n      mstore(0x40, 0x80)\n      callvalue\n      dup1\n      iszero\n      tag_1\n      jumpi\n      revert(0x00, 0x00)\n    tag_1:\n      pop\n      jumpi(tag_2, lt(calldatasize, 0x04))\n      shr(0xe0, calldataload(0x00))\n      dup1\n      0x6352211e\n      gt\n      tag_19\n      jumpi\n      dup1\n      0xb88d4fde\n      gt\n      tag_20\n      jumpi\n      dup1\n      0xb88d4fde\n      eq\n      tag_15\n      jumpi\n      dup1\n      0xc87b56dd\n      eq\n      tag_16\n      jumpi\n      dup1\n      0xe8a3d485\n      eq\n      tag_17\n      jumpi\n      dup1\n      0xe985e9c5\n      eq\n      tag_18\n      jumpi\n      revert(0x00, 0x00)\n    tag_20:\n      dup1\n      0x6352211e\n      eq\n      tag_11\n      jumpi\n      dup1\n      0x70a08231\n      eq\n      tag_12\n      jumpi\n      dup1\n      0x95d89b41\n      eq\n      tag_13\n      jumpi\n      dup1\n      0xa22cb465\n      eq\n      tag_14\n      jumpi\n      revert(0x00, 0x00)\n    tag_19:\n      dup1\n      0x23b872dd\n      gt\n      tag_21\n      jumpi\n      dup1\n      0x23b872dd\n      eq\n      tag_7\n      jumpi\n      dup1\n      0x2f745c59\n      eq\n      tag_8\n      jumpi\n      dup1\n      0x42842e0e\n      eq\n      tag_9\n      jumpi\n      dup1\n      0x4f6ccce7\n      eq\n      tag_10\n      jumpi\n      revert(0x00, 0x00)\n    tag_21:\n      dup1\n      0x06fdde03\n      eq\n      tag_3\n      jumpi\n      dup1\n      0x081812fc\n      eq\n      tag_4\n      jumpi\n      dup1\n      0x095ea7b3\n      eq\n      tag_5\n      jumpi\n      dup1\n      0x18160ddd\n      eq\n      tag_6\n      jumpi\n    tag_2:\n      revert(0x00, 0x00)\n        /* \"contracts/facets/ERC721Facet.sol\":515:616  function name() public view returns (string memory) {... */\n    tag_3:\n      tag_22\n      tag_23\n      jump\t// in\n    tag_22:\n      mload(0x40)\n      tag_24\n      swap2\n      swap1\n      tag_25\n      jump\t// in\n    tag_24:\n      mload(0x40)\n      dup1\n      swap2\n      sub\n      swap1\n      return\n        /* \"contracts/facets/ERC721Facet.sol\":3027:3197  function getApproved(uint256 tokenId) public view returns (address) {... */\n    tag_4:\n      tag_26\n      tag_27\n      calldatasize\n      0x04\n      tag_28\n      jump\t// in\n    tag_27:\n      tag_29\n      jump\t// in\n    tag_26:\n      mload(0x40)\n      sub(shl(0xa0, 0x01), 0x01)\n        /* \"#utility.yul\":950:982   */\n      swap1\n      swap2\n      and\n        /* \"#utility.yul\":932:983   */\n      dup2\n      mstore\n        /* \"#utility.yul\":920:922   */\n      0x20\n        /* \"#utility.yul\":905:923   */\n      add\n        /* \"contracts/facets/ERC721Facet.sol\":3027:3197  function getApproved(uint256 tokenId) public view returns (address) {... */\n      tag_24\n        /* \"#utility.yul\":786:989   */\n      jump\n        /* \"contracts/facets/ERC721Facet.sol\":2742:2857  function approve(address to, uint256 tokenId) public {... */\n    tag_5:\n      tag_32\n      tag_33\n      calldatasize\n      0x04\n      tag_34\n      jump\t// in\n    tag_33:\n      tag_35\n      jump\t// in\n    tag_32:\n      stop\n        /* \"contracts/facets/ERC721Facet.sol\":737:851  function totalSupply() public view returns (uint256) {... */\n    tag_6:\n      tag_36\n      tag_37\n      jump\t// in\n    tag_36:\n      mload(0x40)\n        /* \"#utility.yul\":1623:1648   */\n      swap1\n      dup2\n      mstore\n        /* \"#utility.yul\":1611:1613   */\n      0x20\n        /* \"#utility.yul\":1596:1614   */\n      add\n        /* \"contracts/facets/ERC721Facet.sol\":737:851  function totalSupply() public view returns (uint256) {... */\n      tag_24\n        /* \"#utility.yul\":1477:1654   */\n      jump\n        /* \"contracts/facets/ERC721Facet.sol\":2247:2734  function transferFrom(... */\n    tag_7:\n      tag_32\n      tag_41\n      calldatasize\n      0x04\n      tag_42\n      jump\t// in\n    tag_41:\n      tag_43\n      jump\t// in\n        /* \"contracts/facets/ERC721Facet.sol\":859:1175  function tokenOfOwnerByIndex(... */\n    tag_8:\n      tag_36\n      tag_45\n      calldatasize\n      0x04\n      tag_34\n      jump\t// in\n    tag_45:\n      tag_46\n      jump\t// in\n        /* \"contracts/facets/ERC721Facet.sol\":1796:1964  function safeTransferFrom(... */\n    tag_9:\n      tag_32\n      tag_49\n      calldatasize\n      0x04\n      tag_42\n      jump\t// in\n    tag_49:\n      tag_50\n      jump\t// in\n        /* \"contracts/facets/ERC721Facet.sol\":1183:1445  function tokenByIndex(uint256 index) public view virtual returns (uint256) {... */\n    tag_10:\n      tag_36\n      tag_52\n      calldatasize\n      0x04\n      tag_28\n      jump\t// in\n    tag_52:\n      tag_53\n      jump\t// in\n        /* \"contracts/facets/ERC721Facet.sol\":1666:1788  function ownerOf(uint256 tokenId) public view returns (address) {... */\n    tag_11:\n      tag_26\n      tag_56\n      calldatasize\n      0x04\n      tag_28\n      jump\t// in\n    tag_56:\n      tag_57\n      jump\t// in\n        /* \"contracts/facets/ERC721Facet.sol\":1453:1658  function balanceOf(address owner) public view returns (uint256) {... */\n    tag_12:\n      tag_36\n      tag_60\n      calldatasize\n      0x04\n      tag_61\n      jump\t// in\n    tag_60:\n      tag_62\n      jump\t// in\n        /* \"contracts/facets/ERC721Facet.sol\":624:729  function symbol() public view returns (string memory) {... */\n    tag_13:\n      tag_22\n      tag_65\n      jump\t// in\n        /* \"contracts/facets/ERC721Facet.sol\":2865:3019  function setApprovalForAll(address operator, bool approved) public virtual {... */\n    tag_14:\n      tag_32\n      tag_68\n      calldatasize\n      0x04\n      tag_69\n      jump\t// in\n    tag_68:\n      tag_70\n      jump\t// in\n        /* \"contracts/facets/ERC721Facet.sol\":1972:2239  function safeTransferFrom(... */\n    tag_15:\n      tag_32\n      tag_72\n      calldatasize\n      0x04\n      tag_73\n      jump\t// in\n    tag_72:\n      tag_74\n      jump\t// in\n        /* \"contracts/facets/ERC721Facet.sol\":4160:4478  function tokenURI(uint256 tokenId) public view returns (string memory) {... */\n    tag_16:\n      tag_22\n      tag_76\n      calldatasize\n      0x04\n      tag_28\n      jump\t// in\n    tag_76:\n      tag_77\n      jump\t// in\n        /* \"contracts/facets/ERC721Facet.sol\":3403:4152  function contractURI() public view returns (string memory) {... */\n    tag_17:\n      tag_22\n      tag_80\n      jump\t// in\n        /* \"contracts/facets/ERC721Facet.sol\":3205:3395  function isApprovedForAll(... */\n    tag_18:\n      tag_82\n      tag_83\n      calldatasize\n      0x04\n      tag_84\n      jump\t// in\n    tag_83:\n      tag_85\n      jump\t// in\n    tag_82:\n      mload(0x40)\n        /* \"#utility.yul\":4355:4369   */\n      swap1\n      iszero\n        /* \"#utility.yul\":4348:4370   */\n      iszero\n        /* \"#utility.yul\":4330:4371   */\n      dup2\n      mstore\n        /* \"#utility.yul\":4318:4320   */\n      0x20\n        /* \"#utility.yul\":4303:4321   */\n      add\n        /* \"contracts/facets/ERC721Facet.sol\":3205:3395  function isApprovedForAll(... */\n      tag_24\n        /* \"#utility.yul\":4190:4377   */\n      jump\n        /* \"contracts/facets/ERC721Facet.sol\":515:616  function name() public view returns (string memory) {... */\n    tag_23:\n        /* \"contracts/facets/ERC721Facet.sol\":552:565  string memory */\n      0x60\n        /* \"contracts/facets/ERC721Facet.sol\":585:603  LibERC721.layout() */\n      tag_89\n        /* \"contracts/facets/ERC721Facet.sol\":585:601  LibERC721.layout */\n      tag_90\n        /* \"contracts/facets/ERC721Facet.sol\":585:603  LibERC721.layout() */\n      jump\t// in\n    tag_89:\n        /* \"contracts/facets/ERC721Facet.sol\":578:608  return LibERC721.layout().name */\n      dup1\n      sload\n      tag_91\n      swap1\n      tag_92\n      jump\t// in\n    tag_91:\n      dup1\n      0x1f\n      add\n      0x20\n      dup1\n      swap2\n      div\n      mul\n      0x20\n      add\n      mload(0x40)\n      swap1\n      dup2\n      add\n      0x40\n      mstore\n      dup1\n      swap3\n      swap2\n      swap1\n      dup2\n      dup2\n      mstore\n      0x20\n      add\n      dup3\n      dup1\n      sload\n      tag_93\n      swap1\n      tag_92\n      jump\t// in\n    tag_93:\n      dup1\n      iszero\n      tag_94\n      jumpi\n      dup1\n      0x1f\n      lt\n      tag_95\n      jumpi\n      0x0100\n      dup1\n      dup4\n      sload\n      div\n      mul\n      dup4\n      mstore\n      swap2\n      0x20\n      add\n      swap2\n      jump(tag_94)\n    tag_95:\n      dup3\n      add\n      swap2\n      swap1\n      0x00\n      mstore\n      keccak256(0x00, 0x20)\n      swap1\n    tag_96:\n      dup2\n      sload\n      dup2\n      mstore\n      swap1\n      0x01\n      add\n      swap1\n      0x20\n      add\n      dup1\n      dup4\n      gt\n      tag_96\n      jumpi\n      dup3\n      swap1\n      sub\n      0x1f\n      and\n      dup3\n      add\n      swap2\n    tag_94:\n      pop\n      pop\n      pop\n      pop\n      pop\n      swap1\n      pop\n        /* \"contracts/facets/ERC721Facet.sol\":515:616  function name() public view returns (string memory) {... */\n      swap1\n      jump\t// out\n        /* \"contracts/facets/ERC721Facet.sol\":3027:3197  function getApproved(uint256 tokenId) public view returns (address) {... */\n    tag_29:\n        /* \"contracts/facets/ERC721Facet.sol\":3086:3093  address */\n      0x00\n        /* \"contracts/facets/ERC721Facet.sol\":3106:3138  LibERC721._requireOwned(tokenId) */\n      tag_98\n        /* \"contracts/facets/ERC721Facet.sol\":3130:3137  tokenId */\n      dup3\n        /* \"contracts/facets/ERC721Facet.sol\":3106:3129  LibERC721._requireOwned */\n      tag_99\n        /* \"contracts/facets/ERC721Facet.sol\":3106:3138  LibERC721._requireOwned(tokenId) */\n      jump\t// in\n    tag_98:\n      pop\n        /* \"contracts/facets/ERC721Facet.sol\":3158:3189  LibERC721._getApproved(tokenId) */\n      tag_100\n        /* \"contracts/facets/ERC721Facet.sol\":3181:3188  tokenId */\n      dup3\n        /* \"contracts/facets/ERC721Facet.sol\":3158:3180  LibERC721._getApproved */\n      tag_101\n        /* \"contracts/facets/ERC721Facet.sol\":3158:3189  LibERC721._getApproved(tokenId) */\n      jump\t// in\n    tag_100:\n        /* \"contracts/facets/ERC721Facet.sol\":3151:3189  return LibERC721._getApproved(tokenId) */\n      swap3\n        /* \"contracts/facets/ERC721Facet.sol\":3027:3197  function getApproved(uint256 tokenId) public view returns (address) {... */\n      swap2\n      pop\n      pop\n      jump\t// out\n        /* \"contracts/facets/ERC721Facet.sol\":2742:2857  function approve(address to, uint256 tokenId) public {... */\n    tag_35:\n        /* \"contracts/facets/ERC721Facet.sol\":2806:2849  LibERC721._approve(to, tokenId, msg.sender) */\n      tag_103\n        /* \"contracts/facets/ERC721Facet.sol\":2825:2827  to */\n      dup3\n        /* \"contracts/facets/ERC721Facet.sol\":2829:2836  tokenId */\n      dup3\n        /* \"contracts/facets/ERC721Facet.sol\":2838:2848  msg.sender */\n      caller\n        /* \"contracts/facets/ERC721Facet.sol\":2806:2824  LibERC721._approve */\n      tag_104\n        /* \"contracts/facets/ERC721Facet.sol\":2806:2849  LibERC721._approve(to, tokenId, msg.sender) */\n      jump\t// in\n    tag_103:\n        /* \"contracts/facets/ERC721Facet.sol\":2742:2857  function approve(address to, uint256 tokenId) public {... */\n      pop\n      pop\n      jump\t// out\n        /* \"contracts/facets/ERC721Facet.sol\":737:851  function totalSupply() public view returns (uint256) {... */\n    tag_37:\n        /* \"contracts/facets/ERC721Facet.sol\":781:788  uint256 */\n      0x00\n        /* \"contracts/facets/ERC721Facet.sol\":808:826  LibERC721.layout() */\n      tag_106\n        /* \"contracts/facets/ERC721Facet.sol\":808:824  LibERC721.layout */\n      tag_90\n        /* \"contracts/facets/ERC721Facet.sol\":808:826  LibERC721.layout() */\n      jump\t// in\n    tag_106:\n        /* \"contracts/facets/ERC721Facet.sol\":808:836  LibERC721.layout().allTokens */\n      0x02\n      add\n        /* \"contracts/facets/ERC721Facet.sol\":808:843  LibERC721.layout().allTokens.length */\n      sload\n      swap2\n        /* \"contracts/facets/ERC721Facet.sol\":737:851  function totalSupply() public view returns (uint256) {... */\n      swap1\n      pop\n      jump\t// out\n        /* \"contracts/facets/ERC721Facet.sol\":2247:2734  function transferFrom(... */\n    tag_43:\n      sub(shl(0xa0, 0x01), 0x01)\n        /* \"contracts/facets/ERC721Facet.sol\":2376:2392  to == address(0) */\n      dup3\n      and\n        /* \"contracts/facets/ERC721Facet.sol\":2372:2460  if (to == address(0))... */\n      tag_108\n      jumpi\n        /* \"contracts/facets/ERC721Facet.sol\":2414:2460  ERC721Errors.ERC721InvalidReceiver(address(0)) */\n      mload(0x40)\n      shl(0xe1, 0x32505749)\n      dup2\n      mstore\n        /* \"contracts/facets/ERC721Facet.sol\":2457:2458  0 */\n      0x00\n        /* \"contracts/facets/ERC721Facet.sol\":2414:2460  ERC721Errors.ERC721InvalidReceiver(address(0)) */\n      0x04\n      dup3\n      add\n        /* \"#utility.yul\":932:983   */\n      mstore\n        /* \"#utility.yul\":905:923   */\n      0x24\n      add\n        /* \"contracts/facets/ERC721Facet.sol\":2414:2460  ERC721Errors.ERC721InvalidReceiver(address(0)) */\n    tag_109:\n      mload(0x40)\n      dup1\n      swap2\n      sub\n      swap1\n      revert\n        /* \"contracts/facets/ERC721Facet.sol\":2372:2460  if (to == address(0))... */\n    tag_108:\n        /* \"contracts/facets/ERC721Facet.sol\":2473:2494  address previousOwner */\n      0x00\n        /* \"contracts/facets/ERC721Facet.sol\":2497:2539  LibERC721._update(to, tokenId, msg.sender) */\n      tag_110\n        /* \"contracts/facets/ERC721Facet.sol\":2515:2517  to */\n      dup4\n        /* \"contracts/facets/ERC721Facet.sol\":2519:2526  tokenId */\n      dup4\n        /* \"contracts/facets/ERC721Facet.sol\":2528:2538  msg.sender */\n      caller\n        /* \"contracts/facets/ERC721Facet.sol\":2497:2514  LibERC721._update */\n      tag_111\n        /* \"contracts/facets/ERC721Facet.sol\":2497:2539  LibERC721._update(to, tokenId, msg.sender) */\n      jump\t// in\n    tag_110:\n        /* \"contracts/facets/ERC721Facet.sol\":2473:2539  address previousOwner = LibERC721._update(to, tokenId, msg.sender) */\n      swap1\n      pop\n        /* \"contracts/facets/ERC721Facet.sol\":2571:2575  from */\n      dup4\n      sub(shl(0xa0, 0x01), 0x01)\n        /* \"contracts/facets/ERC721Facet.sol\":2554:2575  previousOwner != from */\n      and\n        /* \"contracts/facets/ERC721Facet.sol\":2554:2567  previousOwner */\n      dup2\n      sub(shl(0xa0, 0x01), 0x01)\n        /* \"contracts/facets/ERC721Facet.sol\":2554:2575  previousOwner != from */\n      and\n      eq\n        /* \"contracts/facets/ERC721Facet.sol\":2550:2726  if (previousOwner != from)... */\n      tag_112\n      jumpi\n        /* \"contracts/facets/ERC721Facet.sol\":2597:2726  ERC721Errors.ERC721IncorrectOwner(... */\n      mload(0x40)\n      shl(0xe0, 0x64283d7b)\n      dup2\n      mstore\n      sub(shl(0xa0, 0x01), 0x01)\n        /* \"#utility.yul\":4987:5019   */\n      dup1\n      dup7\n      and\n        /* \"contracts/facets/ERC721Facet.sol\":2597:2726  ERC721Errors.ERC721IncorrectOwner(... */\n      0x04\n      dup4\n      add\n        /* \"#utility.yul\":4969:5020   */\n      mstore\n        /* \"#utility.yul\":5036:5054   */\n      0x24\n      dup3\n      add\n        /* \"#utility.yul\":5029:5063   */\n      dup5\n      swap1\n      mstore\n        /* \"#utility.yul\":5099:5131   */\n      dup3\n      and\n        /* \"#utility.yul\":5079:5097   */\n      0x44\n      dup3\n      add\n        /* \"#utility.yul\":5072:5132   */\n      mstore\n        /* \"#utility.yul\":4942:4960   */\n      0x64\n      add\n        /* \"contracts/facets/ERC721Facet.sol\":2597:2726  ERC721Errors.ERC721IncorrectOwner(... */\n      tag_109\n        /* \"#utility.yul\":4767:5138   */\n      jump\n        /* \"contracts/facets/ERC721Facet.sol\":2550:2726  if (previousOwner != from)... */\n    tag_112:\n        /* \"contracts/facets/ERC721Facet.sol\":2361:2734  {... */\n      pop\n        /* \"contracts/facets/ERC721Facet.sol\":2247:2734  function transferFrom(... */\n      pop\n      pop\n      pop\n      jump\t// out\n        /* \"contracts/facets/ERC721Facet.sol\":859:1175  function tokenOfOwnerByIndex(... */\n    tag_46:\n        /* \"contracts/facets/ERC721Facet.sol\":972:979  uint256 */\n      0x00\n        /* \"contracts/facets/ERC721Facet.sol\":1005:1021  balanceOf(owner) */\n      tag_116\n        /* \"contracts/facets/ERC721Facet.sol\":1015:1020  owner */\n      dup4\n        /* \"contracts/facets/ERC721Facet.sol\":1005:1014  balanceOf */\n      tag_62\n        /* \"contracts/facets/ERC721Facet.sol\":1005:1021  balanceOf(owner) */\n      jump\t// in\n    tag_116:\n        /* \"contracts/facets/ERC721Facet.sol\":996:1001  index */\n      dup3\n        /* \"contracts/facets/ERC721Facet.sol\":996:1021  index >= balanceOf(owner) */\n      lt\n        /* \"contracts/facets/ERC721Facet.sol\":992:1106  if (index >= balanceOf(owner)) {... */\n      tag_117\n      jumpi\n        /* \"contracts/facets/ERC721Facet.sol\":1045:1094  ERC721Errors.ERC721OutOfBoundsIndex(owner, index) */\n      mload(0x40)\n      shl(0xe2, 0x295f44f7)\n      dup2\n      mstore\n      sub(shl(0xa0, 0x01), 0x01)\n        /* \"#utility.yul\":5335:5367   */\n      dup5\n      and\n        /* \"contracts/facets/ERC721Facet.sol\":1045:1094  ERC721Errors.ERC721OutOfBoundsIndex(owner, index) */\n      0x04\n      dup3\n      add\n        /* \"#utility.yul\":5317:5368   */\n      mstore\n        /* \"#utility.yul\":5384:5402   */\n      0x24\n      dup2\n      add\n        /* \"#utility.yul\":5377:5411   */\n      dup4\n      swap1\n      mstore\n        /* \"#utility.yul\":5290:5308   */\n      0x44\n      add\n        /* \"contracts/facets/ERC721Facet.sol\":1045:1094  ERC721Errors.ERC721OutOfBoundsIndex(owner, index) */\n      tag_109\n        /* \"#utility.yul\":5143:5417   */\n      jump\n        /* \"contracts/facets/ERC721Facet.sol\":992:1106  if (index >= balanceOf(owner)) {... */\n    tag_117:\n        /* \"contracts/facets/ERC721Facet.sol\":1123:1141  LibERC721.layout() */\n      tag_120\n        /* \"contracts/facets/ERC721Facet.sol\":1123:1139  LibERC721.layout */\n      tag_90\n        /* \"contracts/facets/ERC721Facet.sol\":1123:1141  LibERC721.layout() */\n      jump\t// in\n    tag_120:\n      sub(shl(0xa0, 0x01), 0x01)\n        /* \"contracts/facets/ERC721Facet.sol\":1123:1160  LibERC721.layout().ownedTokens[owner] */\n      swap4\n      swap1\n      swap4\n      and\n      0x00\n      swap1\n      dup2\n      mstore\n        /* \"contracts/facets/ERC721Facet.sol\":1123:1153  LibERC721.layout().ownedTokens */\n      0x07\n      swap1\n      swap4\n      add\n        /* \"contracts/facets/ERC721Facet.sol\":1123:1160  LibERC721.layout().ownedTokens[owner] */\n      0x20\n      swap1\n      dup2\n      mstore\n      0x40\n      dup1\n      dup6\n      keccak256\n        /* \"contracts/facets/ERC721Facet.sol\":1123:1167  LibERC721.layout().ownedTokens[owner][index] */\n      swap4\n      dup6\n      mstore\n      swap3\n      swap1\n      mstore\n      pop\n      swap1\n      keccak256\n      sload\n      swap1\n        /* \"contracts/facets/ERC721Facet.sol\":859:1175  function tokenOfOwnerByIndex(... */\n      jump\t// out\n        /* \"contracts/facets/ERC721Facet.sol\":1796:1964  function safeTransferFrom(... */\n    tag_50:\n        /* \"contracts/facets/ERC721Facet.sol\":1917:1956  safeTransferFrom(from, to, tokenId, \"\") */\n      tag_122\n        /* \"contracts/facets/ERC721Facet.sol\":1934:1938  from */\n      dup4\n        /* \"contracts/facets/ERC721Facet.sol\":1940:1942  to */\n      dup4\n        /* \"contracts/facets/ERC721Facet.sol\":1944:1951  tokenId */\n      dup4\n        /* \"contracts/facets/ERC721Facet.sol\":1917:1956  safeTransferFrom(from, to, tokenId, \"\") */\n      mload(0x40)\n      dup1\n      0x20\n      add\n      0x40\n      mstore\n      dup1\n      0x00\n      dup2\n      mstore\n      pop\n        /* \"contracts/facets/ERC721Facet.sol\":1917:1933  safeTransferFrom */\n      tag_74\n        /* \"contracts/facets/ERC721Facet.sol\":1917:1956  safeTransferFrom(from, to, tokenId, \"\") */\n      jump\t// in\n    tag_122:\n        /* \"contracts/facets/ERC721Facet.sol\":1796:1964  function safeTransferFrom(... */\n      pop\n      pop\n      pop\n      jump\t// out\n        /* \"contracts/facets/ERC721Facet.sol\":1183:1445  function tokenByIndex(uint256 index) public view virtual returns (uint256) {... */\n    tag_53:\n        /* \"contracts/facets/ERC721Facet.sol\":1249:1256  uint256 */\n      0x00\n        /* \"contracts/facets/ERC721Facet.sol\":1282:1295  totalSupply() */\n      tag_124\n        /* \"contracts/facets/ERC721Facet.sol\":1282:1293  totalSupply */\n      tag_37\n        /* \"contracts/facets/ERC721Facet.sol\":1282:1295  totalSupply() */\n      jump\t// in\n    tag_124:\n        /* \"contracts/facets/ERC721Facet.sol\":1273:1278  index */\n      dup3\n        /* \"contracts/facets/ERC721Facet.sol\":1273:1295  index >= totalSupply() */\n      lt\n        /* \"contracts/facets/ERC721Facet.sol\":1269:1385  if (index >= totalSupply()) {... */\n      tag_125\n      jumpi\n        /* \"contracts/facets/ERC721Facet.sol\":1319:1373  ERC721Errors.ERC721OutOfBoundsIndex(address(0), index) */\n      mload(0x40)\n      shl(0xe2, 0x295f44f7)\n      dup2\n      mstore\n        /* \"contracts/facets/ERC721Facet.sol\":1363:1364  0 */\n      0x00\n        /* \"contracts/facets/ERC721Facet.sol\":1319:1373  ERC721Errors.ERC721OutOfBoundsIndex(address(0), index) */\n      0x04\n      dup3\n      add\n        /* \"#utility.yul\":5317:5368   */\n      mstore\n        /* \"#utility.yul\":5384:5402   */\n      0x24\n      dup2\n      add\n        /* \"#utility.yul\":5377:5411   */\n      dup4\n      swap1\n      mstore\n        /* \"#utility.yul\":5290:5308   */\n      0x44\n      add\n        /* \"contracts/facets/ERC721Facet.sol\":1319:1373  ERC721Errors.ERC721OutOfBoundsIndex(address(0), index) */\n      tag_109\n        /* \"#utility.yul\":5143:5417   */\n      jump\n        /* \"contracts/facets/ERC721Facet.sol\":1269:1385  if (index >= totalSupply()) {... */\n    tag_125:\n        /* \"contracts/facets/ERC721Facet.sol\":1402:1420  LibERC721.layout() */\n      tag_127\n        /* \"contracts/facets/ERC721Facet.sol\":1402:1418  LibERC721.layout */\n      tag_90\n        /* \"contracts/facets/ERC721Facet.sol\":1402:1420  LibERC721.layout() */\n      jump\t// in\n    tag_127:\n        /* \"contracts/facets/ERC721Facet.sol\":1402:1430  LibERC721.layout().allTokens */\n      0x02\n      add\n        /* \"contracts/facets/ERC721Facet.sol\":1431:1436  index */\n      dup3\n        /* \"contracts/facets/ERC721Facet.sol\":1402:1437  LibERC721.layout().allTokens[index] */\n      dup2\n      sload\n      dup2\n      lt\n      tag_129\n      jumpi\n      tag_129\n      tag_130\n      jump\t// in\n    tag_129:\n      swap1\n      0x00\n      mstore\n      keccak256(0x00, 0x20)\n      add\n      sload\n        /* \"contracts/facets/ERC721Facet.sol\":1395:1437  return LibERC721.layout().allTokens[index] */\n      swap1\n      pop\n        /* \"contracts/facets/ERC721Facet.sol\":1183:1445  function tokenByIndex(uint256 index) public view virtual returns (uint256) {... */\n      swap2\n      swap1\n      pop\n      jump\t// out\n        /* \"contracts/facets/ERC721Facet.sol\":1666:1788  function ownerOf(uint256 tokenId) public view returns (address) {... */\n    tag_57:\n        /* \"contracts/facets/ERC721Facet.sol\":1721:1728  address */\n      0x00\n        /* \"contracts/facets/ERC721Facet.sol\":1748:1780  LibERC721._requireOwned(tokenId) */\n      tag_100\n        /* \"contracts/facets/ERC721Facet.sol\":1772:1779  tokenId */\n      dup3\n        /* \"contracts/facets/ERC721Facet.sol\":1748:1771  LibERC721._requireOwned */\n      tag_99\n        /* \"contracts/facets/ERC721Facet.sol\":1748:1780  LibERC721._requireOwned(tokenId) */\n      jump\t// in\n        /* \"contracts/facets/ERC721Facet.sol\":1453:1658  function balanceOf(address owner) public view returns (uint256) {... */\n    tag_62:\n        /* \"contracts/facets/ERC721Facet.sol\":1508:1515  uint256 */\n      0x00\n      sub(shl(0xa0, 0x01), 0x01)\n        /* \"contracts/facets/ERC721Facet.sol\":1532:1551  owner == address(0) */\n      dup3\n      and\n        /* \"contracts/facets/ERC721Facet.sol\":1528:1598  if (owner == address(0)) revert ERC721Errors.ERC721InvalidOwner(owner) */\n      tag_135\n      jumpi\n        /* \"contracts/facets/ERC721Facet.sol\":1560:1598  ERC721Errors.ERC721InvalidOwner(owner) */\n      mload(0x40)\n      shl(0xe2, 0x22718ad9)\n      dup2\n      mstore\n      sub(shl(0xa0, 0x01), 0x01)\n        /* \"#utility.yul\":950:982   */\n      dup4\n      and\n        /* \"contracts/facets/ERC721Facet.sol\":1560:1598  ERC721Errors.ERC721InvalidOwner(owner) */\n      0x04\n      dup3\n      add\n        /* \"#utility.yul\":932:983   */\n      mstore\n        /* \"#utility.yul\":905:923   */\n      0x24\n      add\n        /* \"contracts/facets/ERC721Facet.sol\":1560:1598  ERC721Errors.ERC721InvalidOwner(owner) */\n      tag_109\n        /* \"#utility.yul\":786:989   */\n      jump\n        /* \"contracts/facets/ERC721Facet.sol\":1528:1598  if (owner == address(0)) revert ERC721Errors.ERC721InvalidOwner(owner) */\n    tag_135:\n        /* \"contracts/facets/ERC721Facet.sol\":1616:1634  LibERC721.layout() */\n      tag_137\n        /* \"contracts/facets/ERC721Facet.sol\":1616:1632  LibERC721.layout */\n      tag_90\n        /* \"contracts/facets/ERC721Facet.sol\":1616:1634  LibERC721.layout() */\n      jump\t// in\n    tag_137:\n      sub(shl(0xa0, 0x01), 0x01)\n        /* \"contracts/facets/ERC721Facet.sol\":1616:1650  LibERC721.layout().balances[owner] */\n      swap1\n      swap3\n      and\n      0x00\n      swap1\n      dup2\n      mstore\n        /* \"contracts/facets/ERC721Facet.sol\":1616:1643  LibERC721.layout().balances */\n      0x04\n      swap3\n      swap1\n      swap3\n      add\n        /* \"contracts/facets/ERC721Facet.sol\":1616:1650  LibERC721.layout().balances[owner] */\n      0x20\n      mstore\n      pop\n      0x40\n      swap1\n      keccak256\n      sload\n      swap1\n        /* \"contracts/facets/ERC721Facet.sol\":1453:1658  function balanceOf(address owner) public view returns (uint256) {... */\n      jump\t// out\n        /* \"contracts/facets/ERC721Facet.sol\":624:729  function symbol() public view returns (string memory) {... */\n    tag_65:\n        /* \"contracts/facets/ERC721Facet.sol\":663:676  string memory */\n      0x60\n        /* \"contracts/facets/ERC721Facet.sol\":696:714  LibERC721.layout() */\n      tag_139\n        /* \"contracts/facets/ERC721Facet.sol\":696:712  LibERC721.layout */\n      tag_90\n        /* \"contracts/facets/ERC721Facet.sol\":696:714  LibERC721.layout() */\n      jump\t// in\n    tag_139:\n        /* \"contracts/facets/ERC721Facet.sol\":696:721  LibERC721.layout().symbol */\n      0x01\n      add\n        /* \"contracts/facets/ERC721Facet.sol\":689:721  return LibERC721.layout().symbol */\n      dup1\n      sload\n      tag_91\n      swap1\n      tag_92\n      jump\t// in\n        /* \"contracts/facets/ERC721Facet.sol\":2865:3019  function setApprovalForAll(address operator, bool approved) public virtual {... */\n    tag_70:\n        /* \"contracts/facets/ERC721Facet.sol\":2951:3011  LibERC721._setApprovalForAll(msg.sender, operator, approved) */\n      tag_103\n        /* \"contracts/facets/ERC721Facet.sol\":2980:2990  msg.sender */\n      caller\n        /* \"contracts/facets/ERC721Facet.sol\":2992:3000  operator */\n      dup4\n        /* \"contracts/facets/ERC721Facet.sol\":3002:3010  approved */\n      dup4\n        /* \"contracts/facets/ERC721Facet.sol\":2951:2979  LibERC721._setApprovalForAll */\n      tag_147\n        /* \"contracts/facets/ERC721Facet.sol\":2951:3011  LibERC721._setApprovalForAll(msg.sender, operator, approved) */\n      jump\t// in\n        /* \"contracts/facets/ERC721Facet.sol\":1972:2239  function safeTransferFrom(... */\n    tag_74:\n        /* \"contracts/facets/ERC721Facet.sol\":2121:2152  transferFrom(from, to, tokenId) */\n      tag_149\n        /* \"contracts/facets/ERC721Facet.sol\":2134:2138  from */\n      dup5\n        /* \"contracts/facets/ERC721Facet.sol\":2140:2142  to */\n      dup5\n        /* \"contracts/facets/ERC721Facet.sol\":2144:2151  tokenId */\n      dup5\n        /* \"contracts/facets/ERC721Facet.sol\":2121:2133  transferFrom */\n      tag_43\n        /* \"contracts/facets/ERC721Facet.sol\":2121:2152  transferFrom(from, to, tokenId) */\n      jump\t// in\n    tag_149:\n        /* \"contracts/facets/ERC721Facet.sol\":2163:2231  LibERC721.checkOnERC721Received(msg.sender, from, to, tokenId, data) */\n      tag_112\n        /* \"contracts/facets/ERC721Facet.sol\":2195:2205  msg.sender */\n      caller\n        /* \"contracts/facets/ERC721Facet.sol\":2207:2211  from */\n      dup6\n        /* \"contracts/facets/ERC721Facet.sol\":2213:2215  to */\n      dup6\n        /* \"contracts/facets/ERC721Facet.sol\":2217:2224  tokenId */\n      dup6\n        /* \"contracts/facets/ERC721Facet.sol\":2226:2230  data */\n      dup6\n        /* \"contracts/facets/ERC721Facet.sol\":2163:2194  LibERC721.checkOnERC721Received */\n      tag_151\n        /* \"contracts/facets/ERC721Facet.sol\":2163:2231  LibERC721.checkOnERC721Received(msg.sender, from, to, tokenId, data) */\n      jump\t// in\n        /* \"contracts/facets/ERC721Facet.sol\":4160:4478  function tokenURI(uint256 tokenId) public view returns (string memory) {... */\n    tag_77:\n        /* \"contracts/facets/ERC721Facet.sol\":4216:4229  string memory */\n      0x60\n        /* \"contracts/facets/ERC721Facet.sol\":4242:4274  LibERC721._requireOwned(tokenId) */\n      tag_153\n        /* \"contracts/facets/ERC721Facet.sol\":4266:4273  tokenId */\n      dup3\n        /* \"contracts/facets/ERC721Facet.sol\":4242:4265  LibERC721._requireOwned */\n      tag_99\n        /* \"contracts/facets/ERC721Facet.sol\":4242:4274  LibERC721._requireOwned(tokenId) */\n      jump\t// in\n    tag_153:\n      pop\n        /* \"contracts/facets/ERC721Facet.sol\":4287:4308  string memory baseURI */\n      0x00\n        /* \"contracts/facets/ERC721Facet.sol\":4311:4321  _baseURI() */\n      tag_154\n        /* \"contracts/facets/ERC721Facet.sol\":4563:4589  return \"ipfs://something/\" */\n      0x40\n      dup1\n      mload\n      dup1\n      dup3\n      add\n      swap1\n      swap2\n      mstore\n      0x11\n      dup2\n      mstore\n      shl(0x78, 0x697066733a2f2f736f6d657468696e672f)\n      0x20\n      dup3\n      add\n      mstore\n      swap1\n        /* \"contracts/facets/ERC721Facet.sol\":4486:4597  function _baseURI() internal view virtual returns (string memory) {... */\n      jump\n        /* \"contracts/facets/ERC721Facet.sol\":4311:4321  _baseURI() */\n    tag_154:\n        /* \"contracts/facets/ERC721Facet.sol\":4287:4321  string memory baseURI = _baseURI() */\n      swap1\n      pop\n        /* \"contracts/facets/ERC721Facet.sol\":4376:4377  0 */\n      0x00\n        /* \"contracts/facets/ERC721Facet.sol\":4358:4365  baseURI */\n      dup2\n        /* \"contracts/facets/ERC721Facet.sol\":4352:4373  bytes(baseURI).length */\n      mload\n        /* \"contracts/facets/ERC721Facet.sol\":4352:4377  bytes(baseURI).length > 0 */\n      gt\n        /* \"contracts/facets/ERC721Facet.sol\":4352:4470  bytes(baseURI).length > 0... */\n      tag_156\n      jumpi\n      mload(0x40)\n      dup1\n      0x20\n      add\n      0x40\n      mstore\n      dup1\n      0x00\n      dup2\n      mstore\n      pop\n      jump(tag_157)\n    tag_156:\n        /* \"contracts/facets/ERC721Facet.sol\":4411:4418  baseURI */\n      dup1\n        /* \"contracts/facets/ERC721Facet.sol\":4420:4438  tokenId.toString() */\n      tag_158\n        /* \"contracts/facets/ERC721Facet.sol\":4420:4427  tokenId */\n      dup5\n        /* \"contracts/facets/ERC721Facet.sol\":4420:4436  tokenId.toString */\n      tag_159\n        /* \"contracts/facets/ERC721Facet.sol\":4420:4438  tokenId.toString() */\n      jump\t// in\n    tag_158:\n        /* \"contracts/facets/ERC721Facet.sol\":4397:4448  string.concat(baseURI, tokenId.toString(), \".json\") */\n      add(0x20, mload(0x40))\n      tag_160\n      swap3\n      swap2\n      swap1\n      tag_161\n      jump\t// in\n    tag_160:\n      mload(0x40)\n      0x20\n      dup2\n      dup4\n      sub\n      sub\n      dup2\n      mstore\n      swap1\n      0x40\n      mstore\n        /* \"contracts/facets/ERC721Facet.sol\":4352:4470  bytes(baseURI).length > 0... */\n    tag_157:\n        /* \"contracts/facets/ERC721Facet.sol\":4332:4470  return... */\n      swap4\n        /* \"contracts/facets/ERC721Facet.sol\":4160:4478  function tokenURI(uint256 tokenId) public view returns (string memory) {... */\n      swap3\n      pop\n      pop\n      pop\n      jump\t// out\n        /* \"contracts/facets/ERC721Facet.sol\":3403:4152  function contractURI() public view returns (string memory) {... */\n    tag_80:\n        /* \"contracts/facets/ERC721Facet.sol\":3447:3460  string memory */\n      0x60\n        /* \"contracts/facets/ERC721Facet.sol\":3654:4068  Base64.encode(... */\n      tag_163\n        /* \"contracts/facets/ERC721Facet.sol\":3783:3789  name() */\n      tag_164\n        /* \"contracts/facets/ERC721Facet.sol\":3783:3787  name */\n      tag_23\n        /* \"contracts/facets/ERC721Facet.sol\":3783:3789  name() */\n      jump\t// in\n    tag_164:\n        /* \"contracts/facets/ERC721Facet.sol\":3870:3892  _contractDescription() */\n      tag_165\n        /* \"contracts/facets/ERC721Facet.sol\":3870:3890  _contractDescription */\n      tag_166\n        /* \"contracts/facets/ERC721Facet.sol\":3870:3892  _contractDescription() */\n      jump\t// in\n    tag_165:\n        /* \"contracts/facets/ERC721Facet.sol\":3967:3983  _contractImage() */\n      tag_167\n        /* \"contracts/facets/ERC721Facet.sol\":3967:3981  _contractImage */\n      tag_168\n        /* \"contracts/facets/ERC721Facet.sol\":3967:3983  _contractImage() */\n      jump\t// in\n    tag_167:\n        /* \"contracts/facets/ERC721Facet.sol\":3694:4045  abi.encodePacked(... */\n      add(0x20, mload(0x40))\n      tag_169\n      swap4\n      swap3\n      swap2\n      swap1\n      tag_170\n      jump\t// in\n    tag_169:\n      mload(0x40)\n      0x20\n      dup2\n      dup4\n      sub\n      sub\n      dup2\n      mstore\n      swap1\n      0x40\n      mstore\n        /* \"contracts/facets/ERC721Facet.sol\":3654:3667  Base64.encode */\n      tag_171\n        /* \"contracts/facets/ERC721Facet.sol\":3654:4068  Base64.encode(... */\n      jump\t// in\n    tag_163:\n        /* \"contracts/facets/ERC721Facet.sol\":3518:4129  abi.encodePacked(... */\n      add(0x20, mload(0x40))\n      tag_172\n      swap2\n      swap1\n      tag_173\n      jump\t// in\n    tag_172:\n      mload(0x40)\n      0x20\n      dup2\n      dup4\n      sub\n      sub\n      dup2\n      mstore\n      swap1\n      0x40\n      mstore\n        /* \"contracts/facets/ERC721Facet.sol\":3473:4144  return... */\n      swap1\n      pop\n        /* \"contracts/facets/ERC721Facet.sol\":3403:4152  function contractURI() public view returns (string memory) {... */\n      swap1\n      jump\t// out\n        /* \"contracts/facets/ERC721Facet.sol\":3205:3395  function isApprovedForAll(... */\n    tag_85:\n        /* \"contracts/facets/ERC721Facet.sol\":3310:3314  bool */\n      0x00\n        /* \"contracts/facets/ERC721Facet.sol\":3334:3352  LibERC721.layout() */\n      tag_175\n        /* \"contracts/facets/ERC721Facet.sol\":3334:3350  LibERC721.layout */\n      tag_90\n        /* \"contracts/facets/ERC721Facet.sol\":3334:3352  LibERC721.layout() */\n      jump\t// in\n    tag_175:\n      sub(shl(0xa0, 0x01), 0x01)\n        /* \"contracts/facets/ERC721Facet.sol\":3334:3377  LibERC721.layout().operatorApprovals[owner] */\n      swap4\n      dup5\n      and\n      0x00\n      swap1\n      dup2\n      mstore\n        /* \"contracts/facets/ERC721Facet.sol\":3334:3370  LibERC721.layout().operatorApprovals */\n      0x06\n      swap2\n      swap1\n      swap2\n      add\n        /* \"contracts/facets/ERC721Facet.sol\":3334:3377  LibERC721.layout().operatorApprovals[owner] */\n      0x20\n      swap1\n      dup2\n      mstore\n      0x40\n      dup1\n      dup4\n      keccak256\n        /* \"contracts/facets/ERC721Facet.sol\":3334:3387  LibERC721.layout().operatorApprovals[owner][operator] */\n      swap5\n      swap1\n      swap6\n      and\n      dup3\n      mstore\n      swap3\n      swap1\n      swap3\n      mstore\n      pop\n      keccak256\n      sload\n      0xff\n      and\n      swap1\n        /* \"contracts/facets/ERC721Facet.sol\":3205:3395  function isApprovedForAll(... */\n      jump\t// out\n        /* \"contracts/libraries/LibERC721.sol\":923:1087  function layout() internal pure returns (Layout storage l) {... */\n    tag_90:\n        /* \"contracts/libraries/LibERC721.sol\":296:331  keccak256(\"diamond.storage.erc721\") */\n      0xf2dec0acaef95de6625646379d631adff4db9f6c79b84a31adcb9a23bf6cea78\n      swap1\n        /* \"contracts/libraries/LibERC721.sol\":923:1087  function layout() internal pure returns (Layout storage l) {... */\n      jump\t// out\n        /* \"contracts/libraries/LibERC721.sol\":17646:17906  function _requireOwned(uint256 tokenId) internal view returns (address) {... */\n    tag_99:\n        /* \"contracts/libraries/LibERC721.sol\":17709:17716  address */\n      0x00\n        /* \"contracts/libraries/LibERC721.sol\":17729:17742  address owner */\n      0x00\n        /* \"contracts/libraries/LibERC721.sol\":17745:17762  _ownerOf(tokenId) */\n      tag_178\n        /* \"contracts/libraries/LibERC721.sol\":17754:17761  tokenId */\n      dup4\n        /* \"contracts/libraries/LibERC721.sol\":17745:17753  _ownerOf */\n      tag_179\n        /* \"contracts/libraries/LibERC721.sol\":17745:17762  _ownerOf(tokenId) */\n      jump\t// in\n    tag_178:\n        /* \"contracts/libraries/LibERC721.sol\":17729:17762  address owner = _ownerOf(tokenId) */\n      swap1\n      pop\n      sub(shl(0xa0, 0x01), 0x01)\n        /* \"contracts/libraries/LibERC721.sol\":17777:17796  owner == address(0) */\n      dup2\n      and\n        /* \"contracts/libraries/LibERC721.sol\":17773:17876  if (owner == address(0)) {... */\n      tag_100\n      jumpi\n        /* \"contracts/libraries/LibERC721.sol\":17820:17864  ERC721Errors.ERC721NonexistentToken(tokenId) */\n      mload(0x40)\n      shl(0xe0, 0x7e273289)\n      dup2\n      mstore\n      0x04\n      dup2\n      add\n        /* \"#utility.yul\":1623:1648   */\n      dup5\n      swap1\n      mstore\n        /* \"#utility.yul\":1596:1614   */\n      0x24\n      add\n        /* \"contracts/libraries/LibERC721.sol\":17820:17864  ERC721Errors.ERC721NonexistentToken(tokenId) */\n      tag_109\n        /* \"#utility.yul\":1477:1654   */\n      jump\n        /* \"contracts/libraries/LibERC721.sol\":1850:1979  function _getApproved(uint256 tokenId) internal view returns (address) {... */\n    tag_101:\n        /* \"contracts/libraries/LibERC721.sol\":1912:1919  address */\n      0x00\n        /* \"contracts/libraries/LibERC721.sol\":1939:1947  layout() */\n      tag_183\n        /* \"contracts/libraries/LibERC721.sol\":1939:1945  layout */\n      tag_90\n        /* \"contracts/libraries/LibERC721.sol\":1939:1947  layout() */\n      jump\t// in\n    tag_183:\n        /* \"contracts/libraries/LibERC721.sol\":1939:1971  layout().tokenApprovals[tokenId] */\n      0x00\n      swap3\n      dup4\n      mstore\n        /* \"contracts/libraries/LibERC721.sol\":1939:1962  layout().tokenApprovals */\n      0x05\n      add\n        /* \"contracts/libraries/LibERC721.sol\":1939:1971  layout().tokenApprovals[tokenId] */\n      0x20\n      mstore\n      pop\n      0x40\n      swap1\n      keccak256\n      sload\n      sub(shl(0xa0, 0x01), 0x01)\n      and\n      swap1\n        /* \"contracts/libraries/LibERC721.sol\":1850:1979  function _getApproved(uint256 tokenId) internal view returns (address) {... */\n      jump\t// out\n        /* \"contracts/libraries/LibERC721.sol\":15673:15795  function _approve(address to, uint256 tokenId, address auth) internal {... */\n    tag_104:\n        /* \"contracts/libraries/LibERC721.sol\":15754:15787  _approve(to, tokenId, auth, true) */\n      tag_122\n        /* \"contracts/libraries/LibERC721.sol\":15763:15765  to */\n      dup4\n        /* \"contracts/libraries/LibERC721.sol\":15767:15774  tokenId */\n      dup4\n        /* \"contracts/libraries/LibERC721.sol\":15776:15780  auth */\n      dup4\n        /* \"contracts/libraries/LibERC721.sol\":15782:15786  true */\n      0x01\n        /* \"contracts/libraries/LibERC721.sol\":15754:15762  _approve */\n      tag_186\n        /* \"contracts/libraries/LibERC721.sol\":15754:15787  _approve(to, tokenId, auth, true) */\n      jump\t// in\n        /* \"contracts/libraries/LibERC721.sol\":5106:6475  function _update(... */\n    tag_111:\n        /* \"contracts/libraries/LibERC721.sol\":5218:5225  address */\n      0x00\n        /* \"contracts/libraries/LibERC721.sol\":5238:5259  address previousOwner */\n      0x00\n        /* \"contracts/libraries/LibERC721.sol\":5262:5279  _ownerOf(tokenId) */\n      tag_188\n        /* \"contracts/libraries/LibERC721.sol\":5271:5278  tokenId */\n      dup5\n        /* \"contracts/libraries/LibERC721.sol\":5262:5270  _ownerOf */\n      tag_179\n        /* \"contracts/libraries/LibERC721.sol\":5262:5279  _ownerOf(tokenId) */\n      jump\t// in\n    tag_188:\n        /* \"contracts/libraries/LibERC721.sol\":5238:5279  address previousOwner = _ownerOf(tokenId) */\n      swap1\n      pop\n      sub(shl(0xa0, 0x01), 0x01)\n        /* \"contracts/libraries/LibERC721.sol\":5342:5360  auth != address(0) */\n      dup4\n      and\n      iszero\n        /* \"contracts/libraries/LibERC721.sol\":5338:5435  if (auth != address(0)) {... */\n      tag_190\n      jumpi\n        /* \"contracts/libraries/LibERC721.sol\":5377:5423  _checkAuthorized(previousOwner, auth, tokenId) */\n      tag_190\n        /* \"contracts/libraries/LibERC721.sol\":5394:5407  previousOwner */\n      dup2\n        /* \"contracts/libraries/LibERC721.sol\":5409:5413  auth */\n      dup5\n        /* \"contracts/libraries/LibERC721.sol\":5415:5422  tokenId */\n      dup7\n        /* \"contracts/libraries/LibERC721.sol\":5377:5393  _checkAuthorized */\n      tag_191\n        /* \"contracts/libraries/LibERC721.sol\":5377:5423  _checkAuthorized(previousOwner, auth, tokenId) */\n      jump\t// in\n    tag_190:\n      sub(shl(0xa0, 0x01), 0x01)\n        /* \"contracts/libraries/LibERC721.sol\":5482:5509  previousOwner != address(0) */\n      dup2\n      and\n      iszero\n        /* \"contracts/libraries/LibERC721.sol\":5478:5767  if (previousOwner != address(0)) {... */\n      tag_192\n      jumpi\n        /* \"contracts/libraries/LibERC721.sol\":5609:5657  _approve(address(0), tokenId, address(0), false) */\n      tag_193\n        /* \"contracts/libraries/LibERC721.sol\":5626:5627  0 */\n      0x00\n        /* \"contracts/libraries/LibERC721.sol\":5630:5637  tokenId */\n      dup6\n        /* \"contracts/libraries/LibERC721.sol\":5647:5648  0 */\n      0x00\n        /* \"contracts/libraries/LibERC721.sol\":5651:5656  false */\n      0x00\n        /* \"contracts/libraries/LibERC721.sol\":5609:5617  _approve */\n      tag_186\n        /* \"contracts/libraries/LibERC721.sol\":5609:5657  _approve(address(0), tokenId, address(0), false) */\n      jump\t// in\n    tag_193:\n        /* \"contracts/libraries/LibERC721.sol\":5739:5740  1 */\n      0x01\n        /* \"contracts/libraries/LibERC721.sol\":5703:5711  layout() */\n      tag_194\n        /* \"contracts/libraries/LibERC721.sol\":5703:5709  layout */\n      tag_90\n        /* \"contracts/libraries/LibERC721.sol\":5703:5711  layout() */\n      jump\t// in\n    tag_194:\n      sub(shl(0xa0, 0x01), 0x01)\n        /* \"contracts/libraries/LibERC721.sol\":5703:5735  layout().balances[previousOwner] */\n      dup4\n      and\n      0x00\n      swap1\n      dup2\n      mstore\n        /* \"contracts/libraries/LibERC721.sol\":5703:5720  layout().balances */\n      0x04\n      swap2\n      swap1\n      swap2\n      add\n        /* \"contracts/libraries/LibERC721.sol\":5703:5735  layout().balances[previousOwner] */\n      0x20\n      mstore\n      0x40\n      swap1\n      keccak256\n        /* \"contracts/libraries/LibERC721.sol\":5703:5740  layout().balances[previousOwner] -= 1 */\n      dup1\n      sload\n      swap2\n      swap1\n      swap2\n      sub\n      swap1\n      sstore\n        /* \"contracts/libraries/LibERC721.sol\":5478:5767  if (previousOwner != address(0)) {... */\n    tag_192:\n      sub(shl(0xa0, 0x01), 0x01)\n        /* \"contracts/libraries/LibERC721.sol\":5783:5799  to != address(0) */\n      dup6\n      and\n      iszero\n        /* \"contracts/libraries/LibERC721.sol\":5779:5898  if (to != address(0)) {... */\n      tag_195\n      jumpi\n        /* \"contracts/libraries/LibERC721.sol\":5870:5871  1 */\n      0x01\n        /* \"contracts/libraries/LibERC721.sol\":5845:5853  layout() */\n      tag_196\n        /* \"contracts/libraries/LibERC721.sol\":5845:5851  layout */\n      tag_90\n        /* \"contracts/libraries/LibERC721.sol\":5845:5853  layout() */\n      jump\t// in\n    tag_196:\n      sub(shl(0xa0, 0x01), 0x01)\n        /* \"contracts/libraries/LibERC721.sol\":5845:5866  layout().balances[to] */\n      dup8\n      and\n      0x00\n      swap1\n      dup2\n      mstore\n        /* \"contracts/libraries/LibERC721.sol\":5845:5862  layout().balances */\n      0x04\n      swap2\n      swap1\n      swap2\n      add\n        /* \"contracts/libraries/LibERC721.sol\":5845:5866  layout().balances[to] */\n      0x20\n      mstore\n      0x40\n      swap1\n      keccak256\n        /* \"contracts/libraries/LibERC721.sol\":5845:5871  layout().balances[to] += 1 */\n      dup1\n      sload\n      swap1\n      swap2\n      add\n      swap1\n      sstore\n        /* \"contracts/libraries/LibERC721.sol\":5779:5898  if (to != address(0)) {... */\n    tag_195:\n        /* \"contracts/libraries/LibERC721.sol\":5937:5939  to */\n      dup5\n        /* \"contracts/libraries/LibERC721.sol\":5910:5918  layout() */\n      tag_197\n        /* \"contracts/libraries/LibERC721.sol\":5910:5916  layout */\n      tag_90\n        /* \"contracts/libraries/LibERC721.sol\":5910:5918  layout() */\n      jump\t// in\n    tag_197:\n        /* \"contracts/libraries/LibERC721.sol\":5910:5934  layout().owners[tokenId] */\n      0x00\n      dup7\n      dup2\n      mstore\n        /* \"contracts/libraries/LibERC721.sol\":5910:5925  layout().owners */\n      0x03\n      swap2\n      swap1\n      swap2\n      add\n        /* \"contracts/libraries/LibERC721.sol\":5910:5934  layout().owners[tokenId] */\n      0x20\n      mstore\n      0x40\n      dup1\n      dup3\n      keccak256\n        /* \"contracts/libraries/LibERC721.sol\":5910:5939  layout().owners[tokenId] = to */\n      dup1\n      sload\n      not(sub(shl(0xa0, 0x01), 0x01))\n      and\n      sub(shl(0xa0, 0x01), 0x01)\n      swap5\n      dup6\n      and\n      or\n      swap1\n      sstore\n        /* \"contracts/libraries/LibERC721.sol\":5957:6006  ERC721Events.Transfer(previousOwner, to, tokenId) */\n      mload\n        /* \"contracts/libraries/LibERC721.sol\":5910:5934  layout().owners[tokenId] */\n      dup7\n      swap3\n        /* \"contracts/libraries/LibERC721.sol\":5957:6006  ERC721Events.Transfer(previousOwner, to, tokenId) */\n      dup9\n      dup2\n      and\n      swap3\n      swap1\n      dup6\n      and\n      swap2\n      0xddf252ad1be2c89b69c2b068fc378daa952ba7f163c4a11628f55a4df523b3ef\n      swap2\n        /* \"contracts/libraries/LibERC721.sol\":5910:5934  layout().owners[tokenId] */\n      swap1\n        /* \"contracts/libraries/LibERC721.sol\":5957:6006  ERC721Events.Transfer(previousOwner, to, tokenId) */\n      log4\n      sub(shl(0xa0, 0x01), 0x01)\n        /* \"contracts/libraries/LibERC721.sol\":6023:6050  previousOwner == address(0) */\n      dup2\n      and\n        /* \"contracts/libraries/LibERC721.sol\":6019:6233  if (previousOwner == address(0)) {... */\n      tag_198\n      jumpi\n        /* \"contracts/libraries/LibERC721.sol\":6067:6107  _addTokenToAllTokensEnumeration(tokenId) */\n      tag_199\n        /* \"contracts/libraries/LibERC721.sol\":6099:6106  tokenId */\n      dup5\n        /* \"contracts/libraries/LibERC721.sol\":6067:6098  _addTokenToAllTokensEnumeration */\n      tag_200\n        /* \"contracts/libraries/LibERC721.sol\":6067:6107  _addTokenToAllTokensEnumeration(tokenId) */\n      jump\t// in\n    tag_199:\n        /* \"contracts/libraries/LibERC721.sol\":6019:6233  if (previousOwner == address(0)) {... */\n      jump(tag_203)\n    tag_198:\n        /* \"contracts/libraries/LibERC721.sol\":6146:6148  to */\n      dup5\n      sub(shl(0xa0, 0x01), 0x01)\n        /* \"contracts/libraries/LibERC721.sol\":6129:6148  previousOwner != to */\n      and\n        /* \"contracts/libraries/LibERC721.sol\":6129:6142  previousOwner */\n      dup2\n      sub(shl(0xa0, 0x01), 0x01)\n        /* \"contracts/libraries/LibERC721.sol\":6129:6148  previousOwner != to */\n      and\n      eq\n        /* \"contracts/libraries/LibERC721.sol\":6125:6233  if (previousOwner != to) {... */\n      tag_203\n      jumpi\n        /* \"contracts/libraries/LibERC721.sol\":6165:6221  _removeTokenFromOwnerEnumeration(previousOwner, tokenId) */\n      tag_203\n        /* \"contracts/libraries/LibERC721.sol\":6198:6211  previousOwner */\n      dup2\n        /* \"contracts/libraries/LibERC721.sol\":6213:6220  tokenId */\n      dup6\n        /* \"contracts/libraries/LibERC721.sol\":6165:6197  _removeTokenFromOwnerEnumeration */\n      tag_204\n        /* \"contracts/libraries/LibERC721.sol\":6165:6221  _removeTokenFromOwnerEnumeration(previousOwner, tokenId) */\n      jump\t// in\n    tag_203:\n      sub(shl(0xa0, 0x01), 0x01)\n        /* \"contracts/libraries/LibERC721.sol\":6247:6263  to == address(0) */\n      dup6\n      and\n        /* \"contracts/libraries/LibERC721.sol\":6243:6435  if (to == address(0)) {... */\n      tag_205\n      jumpi\n        /* \"contracts/libraries/LibERC721.sol\":6280:6325  _removeTokenFromAllTokensEnumeration(tokenId) */\n      tag_206\n        /* \"contracts/libraries/LibERC721.sol\":6317:6324  tokenId */\n      dup5\n        /* \"contracts/libraries/LibERC721.sol\":6280:6316  _removeTokenFromAllTokensEnumeration */\n      tag_207\n        /* \"contracts/libraries/LibERC721.sol\":6280:6325  _removeTokenFromAllTokensEnumeration(tokenId) */\n      jump\t// in\n    tag_206:\n        /* \"contracts/libraries/LibERC721.sol\":6243:6435  if (to == address(0)) {... */\n      jump(tag_210)\n    tag_205:\n        /* \"contracts/libraries/LibERC721.sol\":6364:6366  to */\n      dup5\n      sub(shl(0xa0, 0x01), 0x01)\n        /* \"contracts/libraries/LibERC721.sol\":6347:6366  previousOwner != to */\n      and\n        /* \"contracts/libraries/LibERC721.sol\":6347:6360  previousOwner */\n      dup2\n      sub(shl(0xa0, 0x01), 0x01)\n        /* \"contracts/libraries/LibERC721.sol\":6347:6366  previousOwner != to */\n      and\n      eq\n        /* \"contracts/libraries/LibERC721.sol\":6343:6435  if (previousOwner != to) {... */\n      tag_210\n      jumpi\n        /* \"contracts/libraries/LibERC721.sol\":6383:6423  _addTokenToOwnerEnumeration(to, tokenId) */\n      tag_210\n        /* \"contracts/libraries/LibERC721.sol\":6411:6413  to */\n      dup6\n        /* \"contracts/libraries/LibERC721.sol\":6415:6422  tokenId */\n      dup6\n        /* \"contracts/libraries/LibERC721.sol\":6383:6410  _addTokenToOwnerEnumeration */\n      tag_211\n        /* \"contracts/libraries/LibERC721.sol\":6383:6423  _addTokenToOwnerEnumeration(to, tokenId) */\n      jump\t// in\n    tag_210:\n        /* \"contracts/libraries/LibERC721.sol\":6454:6467  previousOwner */\n      swap5\n        /* \"contracts/libraries/LibERC721.sol\":5106:6475  function _update(... */\n      swap4\n      pop\n      pop\n      pop\n      pop\n      jump\t// out\n        /* \"contracts/libraries/LibERC721.sol\":17025:17403  function _setApprovalForAll(... */\n    tag_147:\n      sub(shl(0xa0, 0x01), 0x01)\n        /* \"contracts/libraries/LibERC721.sol\":17159:17181  operator == address(0) */\n      dup3\n      and\n        /* \"contracts/libraries/LibERC721.sol\":17155:17261  if (operator == address(0)) {... */\n      tag_213\n      jumpi\n        /* \"contracts/libraries/LibERC721.sol\":17205:17249  ERC721Errors.ERC721InvalidOperator(operator) */\n      mload(0x40)\n      shl(0xe3, 0x0b611743)\n      dup2\n      mstore\n      sub(shl(0xa0, 0x01), 0x01)\n        /* \"#utility.yul\":950:982   */\n      dup4\n      and\n        /* \"contracts/libraries/LibERC721.sol\":17205:17249  ERC721Errors.ERC721InvalidOperator(operator) */\n      0x04\n      dup3\n      add\n        /* \"#utility.yul\":932:983   */\n      mstore\n        /* \"#utility.yul\":905:923   */\n      0x24\n      add\n        /* \"contracts/libraries/LibERC721.sol\":17205:17249  ERC721Errors.ERC721InvalidOperator(operator) */\n      tag_109\n        /* \"#utility.yul\":786:989   */\n      jump\n        /* \"contracts/libraries/LibERC721.sol\":17155:17261  if (operator == address(0)) {... */\n    tag_213:\n        /* \"contracts/libraries/LibERC721.sol\":17317:17325  approved */\n      dup1\n        /* \"contracts/libraries/LibERC721.sol\":17271:17279  layout() */\n      tag_215\n        /* \"contracts/libraries/LibERC721.sol\":17271:17277  layout */\n      tag_90\n        /* \"contracts/libraries/LibERC721.sol\":17271:17279  layout() */\n      jump\t// in\n    tag_215:\n      sub(shl(0xa0, 0x01), 0x01)\n        /* \"contracts/libraries/LibERC721.sol\":17271:17304  layout().operatorApprovals[owner] */\n      dup6\n      dup2\n      and\n      0x00\n      dup2\n      dup2\n      mstore\n        /* \"contracts/libraries/LibERC721.sol\":17271:17297  layout().operatorApprovals */\n      0x06\n      swap4\n      swap1\n      swap4\n      add\n        /* \"contracts/libraries/LibERC721.sol\":17271:17304  layout().operatorApprovals[owner] */\n      0x20\n      swap1\n      dup2\n      mstore\n      0x40\n      dup1\n      dup6\n      keccak256\n        /* \"contracts/libraries/LibERC721.sol\":17271:17314  layout().operatorApprovals[owner][operator] */\n      swap4\n      dup9\n      and\n      dup1\n      dup7\n      mstore\n      swap4\n      dup3\n      mstore\n      swap4\n      dup5\n      swap1\n      keccak256\n        /* \"contracts/libraries/LibERC721.sol\":17271:17325  layout().operatorApprovals[owner][operator] = approved */\n      dup1\n      sload\n      not(0xff)\n      and\n      swap6\n      iszero\n      iszero\n      swap6\n      swap1\n      swap6\n      or\n      swap1\n      swap5\n      sstore\n        /* \"contracts/libraries/LibERC721.sol\":17341:17395  ERC721Events.ApprovalForAll(owner, operator, approved) */\n      swap2\n      mload\n        /* \"#utility.yul\":4355:4369   */\n      dup5\n      iszero\n        /* \"#utility.yul\":4348:4370   */\n      iszero\n        /* \"#utility.yul\":4330:4371   */\n      dup2\n      mstore\n        /* \"contracts/libraries/LibERC721.sol\":17271:17314  layout().operatorApprovals[owner][operator] */\n      swap1\n      swap3\n        /* \"contracts/libraries/LibERC721.sol\":17341:17395  ERC721Events.ApprovalForAll(owner, operator, approved) */\n      0x17307eab39ab6107e8899845ad3d59bd9653f200f220920489ca2b5937696c31\n      swap2\n        /* \"#utility.yul\":4303:4321   */\n      add\n        /* \"contracts/libraries/LibERC721.sol\":17341:17395  ERC721Events.ApprovalForAll(owner, operator, approved) */\n      mload(0x40)\n      dup1\n      swap2\n      sub\n      swap1\n      log3\n        /* \"contracts/libraries/LibERC721.sol\":17025:17403  function _setApprovalForAll(... */\n      pop\n      pop\n      pop\n      jump\t// out\n        /* \"contracts/libraries/LibERC721.sol\":18453:19572  function checkOnERC721Received(... */\n    tag_151:\n      sub(shl(0xa0, 0x01), 0x01)\n        /* \"contracts/libraries/LibERC721.sol\":18640:18654  to.code.length */\n      dup4\n      and\n      extcodesize\n        /* \"contracts/libraries/LibERC721.sol\":18640:18658  to.code.length > 0 */\n      iszero\n        /* \"contracts/libraries/LibERC721.sol\":18636:19565  if (to.code.length > 0) {... */\n      tag_233\n      jumpi\n        /* \"contracts/libraries/LibERC721.sol\":18696:18866  IERC721Receiver(to).onERC721Received(... */\n      mload(0x40)\n      shl(0xe1, 0x0a85bd01)\n      dup2\n      mstore\n      sub(shl(0xa0, 0x01), 0x01)\n        /* \"contracts/libraries/LibERC721.sol\":18696:18732  IERC721Receiver(to).onERC721Received */\n      dup5\n      and\n      swap1\n      0x150b7a02\n      swap1\n        /* \"contracts/libraries/LibERC721.sol\":18696:18866  IERC721Receiver(to).onERC721Received(... */\n      tag_219\n      swap1\n        /* \"contracts/libraries/LibERC721.sol\":18755:18763  operator */\n      dup9\n      swap1\n        /* \"contracts/libraries/LibERC721.sol\":18786:18790  from */\n      dup9\n      swap1\n        /* \"contracts/libraries/LibERC721.sol\":18813:18820  tokenId */\n      dup8\n      swap1\n        /* \"contracts/libraries/LibERC721.sol\":18843:18847  data */\n      dup8\n      swap1\n        /* \"contracts/libraries/LibERC721.sol\":18696:18866  IERC721Receiver(to).onERC721Received(... */\n      0x04\n      add\n      tag_220\n      jump\t// in\n    tag_219:\n      0x20\n      mload(0x40)\n      dup1\n      dup4\n      sub\n      dup2\n      0x00\n      dup8\n      gas\n      call\n      swap3\n      pop\n      pop\n      pop\n      dup1\n      iszero\n      tag_221\n      jumpi\n      pop\n      0x40\n      dup1\n      mload\n      0x1f\n      returndatasize\n      swap1\n      dup2\n      add\n      not(0x1f)\n      and\n      dup3\n      add\n      swap1\n      swap3\n      mstore\n      tag_222\n      swap2\n      dup2\n      add\n      swap1\n      tag_223\n      jump\t// in\n    tag_222:\n      0x01\n    tag_221:\n        /* \"contracts/libraries/LibERC721.sol\":18675:19554  try... */\n      tag_224\n      jumpi\n      returndatasize\n      dup1\n      dup1\n      iszero\n      tag_229\n      jumpi\n      mload(0x40)\n      swap2\n      pop\n      and(add(returndatasize, 0x3f), not(0x1f))\n      dup3\n      add\n      0x40\n      mstore\n      returndatasize\n      dup3\n      mstore\n      returndatasize\n      0x00\n      0x20\n      dup5\n      add\n      returndatacopy\n      jump(tag_228)\n    tag_229:\n      0x60\n      swap2\n      pop\n    tag_228:\n      pop\n        /* \"contracts/libraries/LibERC721.sol\":19174:19180  reason */\n      dup1\n        /* \"contracts/libraries/LibERC721.sol\":19174:19187  reason.length */\n      mload\n        /* \"contracts/libraries/LibERC721.sol\":19191:19192  0 */\n      0x00\n        /* \"contracts/libraries/LibERC721.sol\":19174:19192  reason.length == 0 */\n      sub\n        /* \"contracts/libraries/LibERC721.sol\":19170:19539  if (reason.length == 0) {... */\n      tag_230\n      jumpi\n        /* \"contracts/libraries/LibERC721.sol\":19280:19318  ERC721Errors.ERC721InvalidReceiver(to) */\n      mload(0x40)\n      shl(0xe1, 0x32505749)\n      dup2\n      mstore\n      sub(shl(0xa0, 0x01), 0x01)\n        /* \"#utility.yul\":950:982   */\n      dup6\n      and\n        /* \"contracts/libraries/LibERC721.sol\":19280:19318  ERC721Errors.ERC721InvalidReceiver(to) */\n      0x04\n      dup3\n      add\n        /* \"#utility.yul\":932:983   */\n      mstore\n        /* \"#utility.yul\":905:923   */\n      0x24\n      add\n        /* \"contracts/libraries/LibERC721.sol\":19280:19318  ERC721Errors.ERC721InvalidReceiver(to) */\n      tag_109\n        /* \"#utility.yul\":786:989   */\n      jump\n        /* \"contracts/libraries/LibERC721.sol\":19170:19539  if (reason.length == 0) {... */\n    tag_230:\n        /* \"contracts/libraries/LibERC721.sol\":19489:19495  reason */\n      dup1\n        /* \"contracts/libraries/LibERC721.sol\":19483:19496  mload(reason) */\n      mload\n        /* \"contracts/libraries/LibERC721.sol\":19474:19480  reason */\n      dup2\n        /* \"contracts/libraries/LibERC721.sol\":19470:19472  32 */\n      0x20\n        /* \"contracts/libraries/LibERC721.sol\":19466:19481  add(32, reason) */\n      add\n        /* \"contracts/libraries/LibERC721.sol\":19459:19497  revert(add(32, reason), mload(reason)) */\n      revert\n        /* \"contracts/libraries/LibERC721.sol\":18675:19554  try... */\n    tag_224:\n      not(sub(shl(0xe0, 0x01), 0x01))\n        /* \"contracts/libraries/LibERC721.sol\":18927:18978  retval != IERC721Receiver.onERC721Received.selector */\n      dup2\n      and\n      shl(0xe1, 0x0a85bd01)\n      eq\n        /* \"contracts/libraries/LibERC721.sol\":18923:19107  if (retval != IERC721Receiver.onERC721Received.selector) {... */\n      tag_234\n      jumpi\n        /* \"contracts/libraries/LibERC721.sol\":19049:19087  ERC721Errors.ERC721InvalidReceiver(to) */\n      mload(0x40)\n      shl(0xe1, 0x32505749)\n      dup2\n      mstore\n      sub(shl(0xa0, 0x01), 0x01)\n        /* \"#utility.yul\":950:982   */\n      dup6\n      and\n        /* \"contracts/libraries/LibERC721.sol\":19049:19087  ERC721Errors.ERC721InvalidReceiver(to) */\n      0x04\n      dup3\n      add\n        /* \"#utility.yul\":932:983   */\n      mstore\n        /* \"#utility.yul\":905:923   */\n      0x24\n      add\n        /* \"contracts/libraries/LibERC721.sol\":19049:19087  ERC721Errors.ERC721InvalidReceiver(to) */\n      tag_109\n        /* \"#utility.yul\":786:989   */\n      jump\n        /* \"contracts/libraries/LibERC721.sol\":18923:19107  if (retval != IERC721Receiver.onERC721Received.selector) {... */\n    tag_234:\n        /* \"contracts/libraries/LibERC721.sol\":18880:19122  returns (bytes4 retval) {... */\n      pop\n        /* \"contracts/libraries/LibERC721.sol\":18675:19554  try... */\n    tag_233:\n        /* \"contracts/libraries/LibERC721.sol\":18453:19572  function checkOnERC721Received(... */\n      pop\n      pop\n      pop\n      pop\n      pop\n      jump\t// out\n        /* \"@openzeppelin/contracts/utils/Strings.sol\":637:1335  function toString(uint256 value) internal pure returns (string memory) {... */\n    tag_159:\n        /* \"@openzeppelin/contracts/utils/Strings.sol\":693:706  string memory */\n      0x60\n        /* \"@openzeppelin/contracts/utils/Strings.sol\":742:756  uint256 length */\n      0x00\n        /* \"@openzeppelin/contracts/utils/Strings.sol\":759:776  Math.log10(value) */\n      tag_238\n        /* \"@openzeppelin/contracts/utils/Strings.sol\":770:775  value */\n      dup4\n        /* \"@openzeppelin/contracts/utils/Strings.sol\":759:769  Math.log10 */\n      tag_239\n        /* \"@openzeppelin/contracts/utils/Strings.sol\":759:776  Math.log10(value) */\n      jump\t// in\n    tag_238:\n        /* \"@openzeppelin/contracts/utils/Strings.sol\":779:780  1 */\n      0x01\n        /* \"@openzeppelin/contracts/utils/Strings.sol\":759:780  Math.log10(value) + 1 */\n      add\n        /* \"@openzeppelin/contracts/utils/Strings.sol\":742:780  uint256 length = Math.log10(value) + 1 */\n      swap1\n      pop\n        /* \"@openzeppelin/contracts/utils/Strings.sol\":794:814  string memory buffer */\n      0x00\n        /* \"@openzeppelin/contracts/utils/Strings.sol\":828:834  length */\n      dup2\n        /* \"@openzeppelin/contracts/utils/Strings.sol\":817:835  new string(length) */\n      0xffffffffffffffff\n      dup2\n      gt\n      iszero\n      tag_241\n      jumpi\n      tag_241\n      tag_242\n      jump\t// in\n    tag_241:\n      mload(0x40)\n      swap1\n      dup1\n      dup3\n      mstore\n      dup1\n      0x1f\n      add\n      not(0x1f)\n      and\n      0x20\n      add\n      dup3\n      add\n      0x40\n      mstore\n      dup1\n      iszero\n      tag_243\n      jumpi\n      0x20\n      dup3\n      add\n      dup2\n      dup1\n      calldatasize\n      dup4\n      calldatacopy\n      add\n      swap1\n      pop\n    tag_243:\n      pop\n        /* \"@openzeppelin/contracts/utils/Strings.sol\":794:835  string memory buffer = new string(length) */\n      swap1\n      pop\n        /* \"@openzeppelin/contracts/utils/Strings.sol\":955:983  add(buffer, add(32, length)) */\n      dup2\n      dup2\n      add\n        /* \"@openzeppelin/contracts/utils/Strings.sol\":971:973  32 */\n      0x20\n        /* \"@openzeppelin/contracts/utils/Strings.sol\":955:983  add(buffer, add(32, length)) */\n      add\n        /* \"@openzeppelin/contracts/utils/Strings.sol\":1010:1292  while (true) {... */\n    tag_244:\n      not(0x00)\n        /* \"@openzeppelin/contracts/utils/Strings.sol\":1041:1046  ptr-- */\n      add\n      shl(0x81, 0x181899199a1a9b1b9c1cb0b131b232b3)\n        /* \"@openzeppelin/contracts/utils/Strings.sol\":1175:1177  10 */\n      0x0a\n        /* \"@openzeppelin/contracts/utils/Strings.sol\":1164:1178  mod(value, 10) */\n      dup7\n      mod\n        /* \"@openzeppelin/contracts/utils/Strings.sol\":1159:1191  byte(mod(value, 10), HEX_DIGITS) */\n      byte\n        /* \"@openzeppelin/contracts/utils/Strings.sol\":1041:1046  ptr-- */\n      dup2\n        /* \"@openzeppelin/contracts/utils/Strings.sol\":1146:1192  mstore8(ptr, byte(mod(value, 10), HEX_DIGITS)) */\n      mstore8\n        /* \"@openzeppelin/contracts/utils/Strings.sol\":1236:1238  10 */\n      0x0a\n        /* \"@openzeppelin/contracts/utils/Strings.sol\":1227:1238  value /= 10 */\n      dup6\n      div\n      swap5\n      pop\n        /* \"@openzeppelin/contracts/utils/Strings.sol\":1256:1277  if (value == 0) break */\n      dup5\n        /* \"@openzeppelin/contracts/utils/Strings.sol\":1010:1292  while (true) {... */\n      tag_244\n        /* \"@openzeppelin/contracts/utils/Strings.sol\":1256:1277  if (value == 0) break */\n      jumpi\n      pop\n        /* \"@openzeppelin/contracts/utils/Strings.sol\":1312:1318  buffer */\n      swap4\n        /* \"@openzeppelin/contracts/utils/Strings.sol\":637:1335  function toString(uint256 value) internal pure returns (string memory) {... */\n      swap3\n      pop\n      pop\n      pop\n      jump\t// out\n        /* \"contracts/facets/ERC721Facet.sol\":4757:4965  function _contractDescription() internal pure returns (string memory) {... */\n    tag_166:\n        /* \"contracts/facets/ERC721Facet.sol\":4812:4825  string memory */\n      0x60\n        /* \"contracts/facets/ERC721Facet.sol\":4838:4957  return... */\n      mload(0x40)\n      dup1\n      0x80\n      add\n      0x40\n      mstore\n      dup1\n      0x51\n      dup2\n      mstore\n      0x20\n      add\n      data_181e845e6c0eb8c054a077e1938a77f4971788cb2d26cf8484daf453967e5fbd\n      0x51\n      swap2\n      codecopy\n      swap1\n      pop\n        /* \"contracts/facets/ERC721Facet.sol\":4757:4965  function _contractDescription() internal pure returns (string memory) {... */\n      swap1\n      jump\t// out\n        /* \"contracts/facets/ERC721Facet.sol\":4605:4749  function _contractImage() internal pure returns (bytes memory) {... */\n    tag_168:\n        /* \"contracts/facets/ERC721Facet.sol\":4654:4666  bytes memory */\n      0x60\n        /* \"contracts/facets/ERC721Facet.sol\":4679:4741  return \"ipfs://Qmcig9eH8XWEZZuF9ZGQD7gAAHMDj79sT8ud787PgD57uN\" */\n      mload(0x40)\n      dup1\n      0x60\n      add\n      0x40\n      mstore\n      dup1\n      0x35\n      dup2\n      mstore\n      0x20\n      add\n      data_585614bb91ad8ba7a82ca696a2a8c1013b91b1a829f17f122d730fe2aca1b7b6\n      0x35\n      swap2\n      codecopy\n      swap1\n      pop\n        /* \"contracts/facets/ERC721Facet.sol\":4605:4749  function _contractImage() internal pure returns (bytes memory) {... */\n      swap1\n      jump\t// out\n        /* \"@openzeppelin/contracts/utils/Base64.sol\":476:3858  function encode(bytes memory data) internal pure returns (string memory) {... */\n    tag_171:\n        /* \"@openzeppelin/contracts/utils/Base64.sol\":534:547  string memory */\n      0x60\n        /* \"@openzeppelin/contracts/utils/Base64.sol\":766:770  data */\n      dup2\n        /* \"@openzeppelin/contracts/utils/Base64.sol\":766:777  data.length */\n      mload\n        /* \"@openzeppelin/contracts/utils/Base64.sol\":781:782  0 */\n      0x00\n        /* \"@openzeppelin/contracts/utils/Base64.sol\":766:782  data.length == 0 */\n      sub\n        /* \"@openzeppelin/contracts/utils/Base64.sol\":762:793  if (data.length == 0) return \"\" */\n      tag_253\n      jumpi\n      pop\n      pop\n        /* \"@openzeppelin/contracts/utils/Base64.sol\":784:793  return \"\" */\n      0x40\n      dup1\n      mload\n      0x20\n      dup2\n      add\n      swap1\n      swap2\n      mstore\n      0x00\n      dup2\n      mstore\n      swap1\n        /* \"@openzeppelin/contracts/utils/Base64.sol\":476:3858  function encode(bytes memory data) internal pure returns (string memory) {... */\n      jump\t// out\n        /* \"@openzeppelin/contracts/utils/Base64.sol\":762:793  if (data.length == 0) return \"\" */\n    tag_253:\n        /* \"@openzeppelin/contracts/utils/Base64.sol\":843:862  string memory table */\n      0x00\n        /* \"@openzeppelin/contracts/utils/Base64.sol\":865:871  _TABLE */\n      mload(0x40)\n      dup1\n      0x60\n      add\n      0x40\n      mstore\n      dup1\n      0x40\n      dup2\n      mstore\n      0x20\n      add\n      data_84d8a590de33e00cbdc16e1f28c3506f5ec15c599fab9a6a4bcd575cc2f110ce\n      0x40\n      swap2\n      codecopy\n        /* \"@openzeppelin/contracts/utils/Base64.sol\":843:871  string memory table = _TABLE */\n      swap1\n      pop\n        /* \"@openzeppelin/contracts/utils/Base64.sol\":1274:1294  string memory result */\n      0x00\n        /* \"@openzeppelin/contracts/utils/Base64.sol\":1333:1334  3 */\n      0x03\n        /* \"@openzeppelin/contracts/utils/Base64.sol\":1314:1318  data */\n      dup5\n        /* \"@openzeppelin/contracts/utils/Base64.sol\":1314:1325  data.length */\n      mload\n        /* \"@openzeppelin/contracts/utils/Base64.sol\":1328:1329  2 */\n      0x02\n        /* \"@openzeppelin/contracts/utils/Base64.sol\":1314:1329  data.length + 2 */\n      tag_254\n      swap2\n      swap1\n      tag_255\n      jump\t// in\n    tag_254:\n        /* \"@openzeppelin/contracts/utils/Base64.sol\":1313:1334  (data.length + 2) / 3 */\n      tag_256\n      swap2\n      swap1\n      tag_257\n      jump\t// in\n    tag_256:\n        /* \"@openzeppelin/contracts/utils/Base64.sol\":1308:1335  4 * ((data.length + 2) / 3) */\n      tag_258\n      swap1\n        /* \"@openzeppelin/contracts/utils/Base64.sol\":1308:1309  4 */\n      0x04\n        /* \"@openzeppelin/contracts/utils/Base64.sol\":1308:1335  4 * ((data.length + 2) / 3) */\n      tag_259\n      jump\t// in\n    tag_258:\n        /* \"@openzeppelin/contracts/utils/Base64.sol\":1297:1336  new string(4 * ((data.length + 2) / 3)) */\n      0xffffffffffffffff\n      dup2\n      gt\n      iszero\n      tag_261\n      jumpi\n      tag_261\n      tag_242\n      jump\t// in\n    tag_261:\n      mload(0x40)\n      swap1\n      dup1\n      dup3\n      mstore\n      dup1\n      0x1f\n      add\n      not(0x1f)\n      and\n      0x20\n      add\n      dup3\n      add\n      0x40\n      mstore\n      dup1\n      iszero\n      tag_262\n      jumpi\n      0x20\n      dup3\n      add\n      dup2\n      dup1\n      calldatasize\n      dup4\n      calldatacopy\n      add\n      swap1\n      pop\n    tag_262:\n      pop\n        /* \"@openzeppelin/contracts/utils/Base64.sol\":1274:1336  string memory result = new string(4 * ((data.length + 2) / 3)) */\n      swap1\n      pop\n        /* \"@openzeppelin/contracts/utils/Base64.sol\":1511:1512  1 */\n      0x01\n        /* \"@openzeppelin/contracts/utils/Base64.sol\":1504:1509  table */\n      dup3\n        /* \"@openzeppelin/contracts/utils/Base64.sol\":1500:1513  add(table, 1) */\n      add\n        /* \"@openzeppelin/contracts/utils/Base64.sol\":1612:1616  0x20 */\n      0x20\n        /* \"@openzeppelin/contracts/utils/Base64.sol\":1604:1610  result */\n      dup3\n        /* \"@openzeppelin/contracts/utils/Base64.sol\":1600:1617  add(result, 0x20) */\n      add\n        /* \"@openzeppelin/contracts/utils/Base64.sol\":1645:1649  data */\n      dup6\n        /* \"@openzeppelin/contracts/utils/Base64.sol\":1692:1696  data */\n      dup7\n        /* \"@openzeppelin/contracts/utils/Base64.sol\":1686:1697  mload(data) */\n      mload\n        /* \"@openzeppelin/contracts/utils/Base64.sol\":1680:1684  data */\n      dup8\n        /* \"@openzeppelin/contracts/utils/Base64.sol\":1676:1698  add(data, mload(data)) */\n      add\n        /* \"@openzeppelin/contracts/utils/Base64.sol\":1940:1944  0x20 */\n      0x20\n        /* \"@openzeppelin/contracts/utils/Base64.sol\":1932:1938  endPtr */\n      dup2\n        /* \"@openzeppelin/contracts/utils/Base64.sol\":1928:1945  add(endPtr, 0x20) */\n      add\n        /* \"@openzeppelin/contracts/utils/Base64.sol\":1982:1990  afterPtr */\n      dup1\n        /* \"@openzeppelin/contracts/utils/Base64.sol\":1976:1991  mload(afterPtr) */\n      mload\n        /* \"@openzeppelin/contracts/utils/Base64.sol\":2021:2025  0x00 */\n      0x00\n        /* \"@openzeppelin/contracts/utils/Base64.sol\":2011:2019  afterPtr */\n      dup3\n        /* \"@openzeppelin/contracts/utils/Base64.sol\":2004:2026  mstore(afterPtr, 0x00) */\n      mstore\n        /* \"@openzeppelin/contracts/utils/Base64.sol\":2093:3352  for {... */\n    tag_263:\n        /* \"@openzeppelin/contracts/utils/Base64.sol\":2126:2132  endPtr */\n      dup3\n        /* \"@openzeppelin/contracts/utils/Base64.sol\":2117:2124  dataPtr */\n      dup5\n        /* \"@openzeppelin/contracts/utils/Base64.sol\":2114:2133  lt(dataPtr, endPtr) */\n      lt\n        /* \"@openzeppelin/contracts/utils/Base64.sol\":2093:3352  for {... */\n      iszero\n      tag_265\n      jumpi\n        /* \"@openzeppelin/contracts/utils/Base64.sol\":2228:2229  3 */\n      0x03\n        /* \"@openzeppelin/contracts/utils/Base64.sol\":2219:2226  dataPtr */\n      dup5\n        /* \"@openzeppelin/contracts/utils/Base64.sol\":2215:2230  add(dataPtr, 3) */\n      add\n        /* \"@openzeppelin/contracts/utils/Base64.sol\":2204:2230  dataPtr := add(dataPtr, 3) */\n      swap4\n      pop\n        /* \"@openzeppelin/contracts/utils/Base64.sol\":2266:2273  dataPtr */\n      dup4\n        /* \"@openzeppelin/contracts/utils/Base64.sol\":2260:2274  mload(dataPtr) */\n      mload\n        /* \"@openzeppelin/contracts/utils/Base64.sol\":2853:2857  0x3F */\n      0x3f\n        /* \"@openzeppelin/contracts/utils/Base64.sol\":2845:2850  input */\n      dup2\n        /* \"@openzeppelin/contracts/utils/Base64.sol\":2841:2843  18 */\n      0x12\n        /* \"@openzeppelin/contracts/utils/Base64.sol\":2837:2851  shr(18, input) */\n      shr\n        /* \"@openzeppelin/contracts/utils/Base64.sol\":2833:2858  and(shr(18, input), 0x3F) */\n      and\n        /* \"@openzeppelin/contracts/utils/Base64.sol\":2823:2831  tablePtr */\n      dup8\n        /* \"@openzeppelin/contracts/utils/Base64.sol\":2819:2859  add(tablePtr, and(shr(18, input), 0x3F)) */\n      add\n        /* \"@openzeppelin/contracts/utils/Base64.sol\":2813:2860  mload(add(tablePtr, and(shr(18, input), 0x3F))) */\n      mload\n        /* \"@openzeppelin/contracts/utils/Base64.sol\":2802:2811  resultPtr */\n      dup7\n        /* \"@openzeppelin/contracts/utils/Base64.sol\":2794:2861  mstore8(resultPtr, mload(add(tablePtr, and(shr(18, input), 0x3F)))) */\n      mstore8\n        /* \"@openzeppelin/contracts/utils/Base64.sol\":2906:2907  1 */\n      0x01\n        /* \"@openzeppelin/contracts/utils/Base64.sol\":2895:2904  resultPtr */\n      dup7\n        /* \"@openzeppelin/contracts/utils/Base64.sol\":2891:2908  add(resultPtr, 1) */\n      add\n        /* \"@openzeppelin/contracts/utils/Base64.sol\":2878:2908  resultPtr := add(resultPtr, 1) */\n      swap6\n      pop\n        /* \"@openzeppelin/contracts/utils/Base64.sol\":2996:3000  0x3F */\n      0x3f\n        /* \"@openzeppelin/contracts/utils/Base64.sol\":2988:2993  input */\n      dup2\n        /* \"@openzeppelin/contracts/utils/Base64.sol\":2984:2986  12 */\n      0x0c\n        /* \"@openzeppelin/contracts/utils/Base64.sol\":2980:2994  shr(12, input) */\n      shr\n        /* \"@openzeppelin/contracts/utils/Base64.sol\":2976:3001  and(shr(12, input), 0x3F) */\n      and\n        /* \"@openzeppelin/contracts/utils/Base64.sol\":2966:2974  tablePtr */\n      dup8\n        /* \"@openzeppelin/contracts/utils/Base64.sol\":2962:3002  add(tablePtr, and(shr(12, input), 0x3F)) */\n      add\n        /* \"@openzeppelin/contracts/utils/Base64.sol\":2956:3003  mload(add(tablePtr, and(shr(12, input), 0x3F))) */\n      mload\n        /* \"@openzeppelin/contracts/utils/Base64.sol\":2945:2954  resultPtr */\n      dup7\n        /* \"@openzeppelin/contracts/utils/Base64.sol\":2937:3004  mstore8(resultPtr, mload(add(tablePtr, and(shr(12, input), 0x3F)))) */\n      mstore8\n        /* \"@openzeppelin/contracts/utils/Base64.sol\":3049:3050  1 */\n      0x01\n        /* \"@openzeppelin/contracts/utils/Base64.sol\":3038:3047  resultPtr */\n      dup7\n        /* \"@openzeppelin/contracts/utils/Base64.sol\":3034:3051  add(resultPtr, 1) */\n      add\n        /* \"@openzeppelin/contracts/utils/Base64.sol\":3021:3051  resultPtr := add(resultPtr, 1) */\n      swap6\n      pop\n        /* \"@openzeppelin/contracts/utils/Base64.sol\":3138:3142  0x3F */\n      0x3f\n        /* \"@openzeppelin/contracts/utils/Base64.sol\":3130:3135  input */\n      dup2\n        /* \"@openzeppelin/contracts/utils/Base64.sol\":3127:3128  6 */\n      0x06\n        /* \"@openzeppelin/contracts/utils/Base64.sol\":3123:3136  shr(6, input) */\n      shr\n        /* \"@openzeppelin/contracts/utils/Base64.sol\":3119:3143  and(shr(6, input), 0x3F) */\n      and\n        /* \"@openzeppelin/contracts/utils/Base64.sol\":3109:3117  tablePtr */\n      dup8\n        /* \"@openzeppelin/contracts/utils/Base64.sol\":3105:3144  add(tablePtr, and(shr(6, input), 0x3F)) */\n      add\n        /* \"@openzeppelin/contracts/utils/Base64.sol\":3099:3145  mload(add(tablePtr, and(shr(6, input), 0x3F))) */\n      mload\n        /* \"@openzeppelin/contracts/utils/Base64.sol\":3088:3097  resultPtr */\n      dup7\n        /* \"@openzeppelin/contracts/utils/Base64.sol\":3080:3146  mstore8(resultPtr, mload(add(tablePtr, and(shr(6, input), 0x3F)))) */\n      mstore8\n        /* \"@openzeppelin/contracts/utils/Base64.sol\":3191:3192  1 */\n      0x01\n        /* \"@openzeppelin/contracts/utils/Base64.sol\":3180:3189  resultPtr */\n      dup7\n        /* \"@openzeppelin/contracts/utils/Base64.sol\":3176:3193  add(resultPtr, 1) */\n      add\n        /* \"@openzeppelin/contracts/utils/Base64.sol\":3163:3193  resultPtr := add(resultPtr, 1) */\n      swap6\n      pop\n        /* \"@openzeppelin/contracts/utils/Base64.sol\":3272:3276  0x3F */\n      0x3f\n        /* \"@openzeppelin/contracts/utils/Base64.sol\":3265:3270  input */\n      dup2\n        /* \"@openzeppelin/contracts/utils/Base64.sol\":3261:3277  and(input, 0x3F) */\n      and\n        /* \"@openzeppelin/contracts/utils/Base64.sol\":3251:3259  tablePtr */\n      dup8\n        /* \"@openzeppelin/contracts/utils/Base64.sol\":3247:3278  add(tablePtr, and(input, 0x3F)) */\n      add\n        /* \"@openzeppelin/contracts/utils/Base64.sol\":3241:3279  mload(add(tablePtr, and(input, 0x3F))) */\n      mload\n        /* \"@openzeppelin/contracts/utils/Base64.sol\":3230:3239  resultPtr */\n      dup7\n        /* \"@openzeppelin/contracts/utils/Base64.sol\":3222:3280  mstore8(resultPtr, mload(add(tablePtr, and(input, 0x3F)))) */\n      mstore8\n      pop\n        /* \"@openzeppelin/contracts/utils/Base64.sol\":3325:3326  1 */\n      0x01\n        /* \"@openzeppelin/contracts/utils/Base64.sol\":3314:3323  resultPtr */\n      dup6\n        /* \"@openzeppelin/contracts/utils/Base64.sol\":3310:3327  add(resultPtr, 1) */\n      add\n        /* \"@openzeppelin/contracts/utils/Base64.sol\":3297:3327  resultPtr := add(resultPtr, 1) */\n      swap5\n      pop\n        /* \"@openzeppelin/contracts/utils/Base64.sol\":2093:3352  for {... */\n      jump(tag_263)\n    tag_265:\n        /* \"@openzeppelin/contracts/utils/Base64.sol\":3413:3441  mstore(afterPtr, afterCache) */\n      swap1\n      mstore\n      pop\n      pop\n        /* \"@openzeppelin/contracts/utils/Base64.sol\":3586:3597  mload(data) */\n      dup6\n      mload\n        /* \"@openzeppelin/contracts/utils/Base64.sol\":3599:3600  3 */\n      0x03\n        /* \"@openzeppelin/contracts/utils/Base64.sol\":3582:3601  mod(mload(data), 3) */\n      swap1\n      mod\n        /* \"@openzeppelin/contracts/utils/Base64.sol\":3619:3620  1 */\n      0x01\n        /* \"@openzeppelin/contracts/utils/Base64.sol\":3614:3734  case 1 {... */\n      dup2\n      eq\n      tag_267\n      jumpi\n        /* \"@openzeppelin/contracts/utils/Base64.sol\":3752:3753  2 */\n      0x02\n        /* \"@openzeppelin/contracts/utils/Base64.sol\":3747:3818  case 2 {... */\n      dup2\n      eq\n      tag_268\n      jumpi\n        /* \"@openzeppelin/contracts/utils/Base64.sol\":3575:3818  switch mod(mload(data), 3)... */\n      jump(tag_266)\n        /* \"@openzeppelin/contracts/utils/Base64.sol\":3614:3734  case 1 {... */\n    tag_267:\n        /* \"@openzeppelin/contracts/utils/Base64.sol\":3666:3670  0x3d */\n      0x3d\n        /* \"@openzeppelin/contracts/utils/Base64.sol\":3662:3663  1 */\n      0x01\n        /* \"@openzeppelin/contracts/utils/Base64.sol\":3651:3660  resultPtr */\n      dup4\n        /* \"@openzeppelin/contracts/utils/Base64.sol\":3647:3664  sub(resultPtr, 1) */\n      sub\n        /* \"@openzeppelin/contracts/utils/Base64.sol\":3639:3671  mstore8(sub(resultPtr, 1), 0x3d) */\n      mstore8\n        /* \"@openzeppelin/contracts/utils/Base64.sol\":3715:3719  0x3d */\n      0x3d\n        /* \"@openzeppelin/contracts/utils/Base64.sol\":3711:3712  2 */\n      0x02\n        /* \"@openzeppelin/contracts/utils/Base64.sol\":3700:3709  resultPtr */\n      dup4\n        /* \"@openzeppelin/contracts/utils/Base64.sol\":3696:3713  sub(resultPtr, 2) */\n      sub\n        /* \"@openzeppelin/contracts/utils/Base64.sol\":3688:3720  mstore8(sub(resultPtr, 2), 0x3d) */\n      mstore8\n        /* \"@openzeppelin/contracts/utils/Base64.sol\":3614:3734  case 1 {... */\n      jump(tag_266)\n        /* \"@openzeppelin/contracts/utils/Base64.sol\":3747:3818  case 2 {... */\n    tag_268:\n        /* \"@openzeppelin/contracts/utils/Base64.sol\":3799:3803  0x3d */\n      0x3d\n        /* \"@openzeppelin/contracts/utils/Base64.sol\":3795:3796  1 */\n      0x01\n        /* \"@openzeppelin/contracts/utils/Base64.sol\":3784:3793  resultPtr */\n      dup4\n        /* \"@openzeppelin/contracts/utils/Base64.sol\":3780:3797  sub(resultPtr, 1) */\n      sub\n        /* \"@openzeppelin/contracts/utils/Base64.sol\":3772:3804  mstore8(sub(resultPtr, 1), 0x3d) */\n      mstore8\n        /* \"@openzeppelin/contracts/utils/Base64.sol\":3575:3818  switch mod(mload(data), 3)... */\n    tag_266:\n      pop\n        /* \"@openzeppelin/contracts/utils/Base64.sol\":3845:3851  result */\n      swap2\n      swap6\n        /* \"@openzeppelin/contracts/utils/Base64.sol\":476:3858  function encode(bytes memory data) internal pure returns (string memory) {... */\n      swap5\n      pop\n      pop\n      pop\n      pop\n      pop\n      jump\t// out\n        /* \"contracts/libraries/LibERC721.sol\":1612:1729  function _ownerOf(uint256 tokenId) internal view returns (address) {... */\n    tag_179:\n        /* \"contracts/libraries/LibERC721.sol\":1670:1677  address */\n      0x00\n        /* \"contracts/libraries/LibERC721.sol\":1697:1705  layout() */\n      tag_270\n        /* \"contracts/libraries/LibERC721.sol\":1697:1703  layout */\n      tag_90\n        /* \"contracts/libraries/LibERC721.sol\":1697:1705  layout() */\n      jump\t// in\n    tag_270:\n        /* \"contracts/libraries/LibERC721.sol\":1697:1721  layout().owners[tokenId] */\n      0x00\n      swap3\n      dup4\n      mstore\n        /* \"contracts/libraries/LibERC721.sol\":1697:1712  layout().owners */\n      0x03\n      add\n        /* \"contracts/libraries/LibERC721.sol\":1697:1721  layout().owners[tokenId] */\n      0x20\n      mstore\n      pop\n      0x40\n      swap1\n      keccak256\n      sload\n      sub(shl(0xa0, 0x01), 0x01)\n      and\n      swap1\n        /* \"contracts/libraries/LibERC721.sol\":1612:1729  function _ownerOf(uint256 tokenId) internal view returns (address) {... */\n      jump\t// out\n        /* \"contracts/libraries/LibERC721.sol\":15983:16806  function _approve(... */\n    tag_186:\n        /* \"contracts/libraries/LibERC721.sol\":16180:16189  emitEvent */\n      dup1\n        /* \"contracts/libraries/LibERC721.sol\":16180:16211  emitEvent || auth != address(0) */\n      dup1\n      tag_272\n      jumpi\n      pop\n      sub(shl(0xa0, 0x01), 0x01)\n        /* \"contracts/libraries/LibERC721.sol\":16193:16211  auth != address(0) */\n      dup3\n      and\n      iszero\n      iszero\n        /* \"contracts/libraries/LibERC721.sol\":16180:16211  emitEvent || auth != address(0) */\n    tag_272:\n        /* \"contracts/libraries/LibERC721.sol\":16176:16749  if (emitEvent || auth != address(0)) {... */\n      iszero\n      tag_273\n      jumpi\n        /* \"contracts/libraries/LibERC721.sol\":16228:16241  address owner */\n      0x00\n        /* \"contracts/libraries/LibERC721.sol\":16244:16266  _requireOwned(tokenId) */\n      tag_274\n        /* \"contracts/libraries/LibERC721.sol\":16258:16265  tokenId */\n      dup5\n        /* \"contracts/libraries/LibERC721.sol\":16244:16257  _requireOwned */\n      tag_99\n        /* \"contracts/libraries/LibERC721.sol\":16244:16266  _requireOwned(tokenId) */\n      jump\t// in\n    tag_274:\n        /* \"contracts/libraries/LibERC721.sol\":16228:16266  address owner = _requireOwned(tokenId) */\n      swap1\n      pop\n      sub(shl(0xa0, 0x01), 0x01)\n        /* \"contracts/libraries/LibERC721.sol\":16415:16433  auth != address(0) */\n      dup4\n      and\n      iszero\n      dup1\n      iszero\n      swap1\n        /* \"contracts/libraries/LibERC721.sol\":16415:16467  auth != address(0) &&... */\n      tag_275\n      jumpi\n      pop\n        /* \"contracts/libraries/LibERC721.sol\":16463:16467  auth */\n      dup3\n      sub(shl(0xa0, 0x01), 0x01)\n        /* \"contracts/libraries/LibERC721.sol\":16454:16467  owner != auth */\n      and\n        /* \"contracts/libraries/LibERC721.sol\":16454:16459  owner */\n      dup2\n      sub(shl(0xa0, 0x01), 0x01)\n        /* \"contracts/libraries/LibERC721.sol\":16454:16467  owner != auth */\n      and\n      eq\n      iszero\n        /* \"contracts/libraries/LibERC721.sol\":16415:16467  auth != address(0) &&... */\n    tag_275:\n        /* \"contracts/libraries/LibERC721.sol\":16415:16528  auth != address(0) &&... */\n      dup1\n      iszero\n      tag_276\n      jumpi\n      pop\n        /* \"contracts/libraries/LibERC721.sol\":16489:16497  layout() */\n      tag_277\n        /* \"contracts/libraries/LibERC721.sol\":16489:16495  layout */\n      tag_90\n        /* \"contracts/libraries/LibERC721.sol\":16489:16497  layout() */\n      jump\t// in\n    tag_277:\n      sub(shl(0xa0, 0x01), 0x01)\n        /* \"contracts/libraries/LibERC721.sol\":16489:16522  layout().operatorApprovals[owner] */\n      dup1\n      dup4\n      and\n      0x00\n      swap1\n      dup2\n      mstore\n        /* \"contracts/libraries/LibERC721.sol\":16489:16515  layout().operatorApprovals */\n      0x06\n      swap3\n      swap1\n      swap3\n      add\n        /* \"contracts/libraries/LibERC721.sol\":16489:16522  layout().operatorApprovals[owner] */\n      0x20\n      swap1\n      dup2\n      mstore\n      0x40\n      dup1\n      dup5\n      keccak256\n        /* \"contracts/libraries/LibERC721.sol\":16489:16528  layout().operatorApprovals[owner][auth] */\n      swap3\n      dup8\n      and\n      dup5\n      mstore\n      swap2\n      swap1\n      mstore\n      swap1\n      keccak256\n      sload\n      0xff\n      and\n        /* \"contracts/libraries/LibERC721.sol\":16488:16528  !layout().operatorApprovals[owner][auth] */\n      iszero\n        /* \"contracts/libraries/LibERC721.sol\":16415:16528  auth != address(0) &&... */\n    tag_276:\n        /* \"contracts/libraries/LibERC721.sol\":16393:16626  if (... */\n      iszero\n      tag_278\n      jumpi\n        /* \"contracts/libraries/LibERC721.sol\":16570:16610  ERC721Errors.ERC721InvalidApprover(auth) */\n      mload(0x40)\n      shl(0xe0, 0xa9fbf51f)\n      dup2\n      mstore\n      sub(shl(0xa0, 0x01), 0x01)\n        /* \"#utility.yul\":950:982   */\n      dup5\n      and\n        /* \"contracts/libraries/LibERC721.sol\":16570:16610  ERC721Errors.ERC721InvalidApprover(auth) */\n      0x04\n      dup3\n      add\n        /* \"#utility.yul\":932:983   */\n      mstore\n        /* \"#utility.yul\":905:923   */\n      0x24\n      add\n        /* \"contracts/libraries/LibERC721.sol\":16570:16610  ERC721Errors.ERC721InvalidApprover(auth) */\n      tag_109\n        /* \"#utility.yul\":786:989   */\n      jump\n        /* \"contracts/libraries/LibERC721.sol\":16393:16626  if (... */\n    tag_278:\n        /* \"contracts/libraries/LibERC721.sol\":16646:16655  emitEvent */\n      dup2\n        /* \"contracts/libraries/LibERC721.sol\":16642:16738  if (emitEvent) {... */\n      iszero\n      tag_280\n      jumpi\n        /* \"contracts/libraries/LibERC721.sol\":16714:16721  tokenId */\n      dup4\n        /* \"contracts/libraries/LibERC721.sol\":16710:16712  to */\n      dup6\n      sub(shl(0xa0, 0x01), 0x01)\n        /* \"contracts/libraries/LibERC721.sol\":16681:16722  ERC721Events.Approval(owner, to, tokenId) */\n      and\n        /* \"contracts/libraries/LibERC721.sol\":16703:16708  owner */\n      dup3\n      sub(shl(0xa0, 0x01), 0x01)\n        /* \"contracts/libraries/LibERC721.sol\":16681:16722  ERC721Events.Approval(owner, to, tokenId) */\n      and\n      0x8c5be1e5ebec7d5bd14f71427d1e84f3dd0314c0f7b2291e5b200ac8c7c3b925\n      mload(0x40)\n      mload(0x40)\n      dup1\n      swap2\n      sub\n      swap1\n      log4\n        /* \"contracts/libraries/LibERC721.sol\":16642:16738  if (emitEvent) {... */\n    tag_280:\n        /* \"contracts/libraries/LibERC721.sol\":16213:16749  {... */\n      pop\n        /* \"contracts/libraries/LibERC721.sol\":16176:16749  if (emitEvent || auth != address(0)) {... */\n    tag_273:\n        /* \"contracts/libraries/LibERC721.sol\":16796:16798  to */\n      dup4\n        /* \"contracts/libraries/LibERC721.sol\":16761:16769  layout() */\n      tag_281\n        /* \"contracts/libraries/LibERC721.sol\":16761:16767  layout */\n      tag_90\n        /* \"contracts/libraries/LibERC721.sol\":16761:16769  layout() */\n      jump\t// in\n    tag_281:\n        /* \"contracts/libraries/LibERC721.sol\":16761:16793  layout().tokenApprovals[tokenId] */\n      0x00\n      swap5\n      dup6\n      mstore\n        /* \"contracts/libraries/LibERC721.sol\":16761:16784  layout().tokenApprovals */\n      0x05\n      add\n        /* \"contracts/libraries/LibERC721.sol\":16761:16793  layout().tokenApprovals[tokenId] */\n      0x20\n      mstore\n      0x40\n      swap1\n      swap4\n      keccak256\n        /* \"contracts/libraries/LibERC721.sol\":16761:16798  layout().tokenApprovals[tokenId] = to */\n      dup1\n      sload\n      not(sub(shl(0xa0, 0x01), 0x01))\n      and\n      sub(shl(0xa0, 0x01), 0x01)\n      swap1\n      swap5\n      and\n      swap4\n      swap1\n      swap4\n      or\n      swap1\n      swap3\n      sstore\n      pop\n      pop\n      pop\n        /* \"contracts/libraries/LibERC721.sol\":15983:16806  function _approve(... */\n      jump\t// out\n        /* \"contracts/libraries/LibERC721.sol\":3089:3578  function _checkAuthorized(... */\n    tag_191:\n        /* \"contracts/libraries/LibERC721.sol\":3228:3266  _isAuthorized(owner, spender, tokenId) */\n      tag_283\n        /* \"contracts/libraries/LibERC721.sol\":3242:3247  owner */\n      dup4\n        /* \"contracts/libraries/LibERC721.sol\":3249:3256  spender */\n      dup4\n        /* \"contracts/libraries/LibERC721.sol\":3258:3265  tokenId */\n      dup4\n        /* \"contracts/libraries/LibERC721.sol\":3228:3241  _isAuthorized */\n      tag_284\n        /* \"contracts/libraries/LibERC721.sol\":3228:3266  _isAuthorized(owner, spender, tokenId) */\n      jump\t// in\n    tag_283:\n        /* \"contracts/libraries/LibERC721.sol\":3223:3571  if (!_isAuthorized(owner, spender, tokenId)) {... */\n      tag_122\n      jumpi\n      sub(shl(0xa0, 0x01), 0x01)\n        /* \"contracts/libraries/LibERC721.sol\":3287:3306  owner == address(0) */\n      dup4\n      and\n        /* \"contracts/libraries/LibERC721.sol\":3283:3560  if (owner == address(0)) {... */\n      tag_286\n      jumpi\n        /* \"contracts/libraries/LibERC721.sol\":3334:3378  ERC721Errors.ERC721NonexistentToken(tokenId) */\n      mload(0x40)\n      shl(0xe0, 0x7e273289)\n      dup2\n      mstore\n      0x04\n      dup2\n      add\n        /* \"#utility.yul\":1623:1648   */\n      dup3\n      swap1\n      mstore\n        /* \"#utility.yul\":1596:1614   */\n      0x24\n      add\n        /* \"contracts/libraries/LibERC721.sol\":3334:3378  ERC721Errors.ERC721NonexistentToken(tokenId) */\n      tag_109\n        /* \"#utility.yul\":1477:1654   */\n      jump\n        /* \"contracts/libraries/LibERC721.sol\":3283:3560  if (owner == address(0)) {... */\n    tag_286:\n        /* \"contracts/libraries/LibERC721.sol\":3426:3544  ERC721Errors.ERC721InsufficientApproval(... */\n      mload(0x40)\n      shl(0xe0, 0x177e802f)\n      dup2\n      mstore\n      sub(shl(0xa0, 0x01), 0x01)\n        /* \"#utility.yul\":5335:5367   */\n      dup4\n      and\n        /* \"contracts/libraries/LibERC721.sol\":3426:3544  ERC721Errors.ERC721InsufficientApproval(... */\n      0x04\n      dup3\n      add\n        /* \"#utility.yul\":5317:5368   */\n      mstore\n        /* \"#utility.yul\":5384:5402   */\n      0x24\n      dup2\n      add\n        /* \"#utility.yul\":5377:5411   */\n      dup3\n      swap1\n      mstore\n        /* \"#utility.yul\":5290:5308   */\n      0x44\n      add\n        /* \"contracts/libraries/LibERC721.sol\":3426:3544  ERC721Errors.ERC721InsufficientApproval(... */\n      tag_109\n        /* \"#utility.yul\":5143:5417   */\n      jump\n        /* \"contracts/libraries/LibERC721.sol\":7220:7409  function _addTokenToAllTokensEnumeration(uint256 tokenId) internal {... */\n    tag_200:\n        /* \"contracts/libraries/LibERC721.sol\":7333:7341  layout() */\n      tag_291\n        /* \"contracts/libraries/LibERC721.sol\":7333:7339  layout */\n      tag_90\n        /* \"contracts/libraries/LibERC721.sol\":7333:7341  layout() */\n      jump\t// in\n    tag_291:\n        /* \"contracts/libraries/LibERC721.sol\":7333:7351  layout().allTokens */\n      0x02\n      add\n        /* \"contracts/libraries/LibERC721.sol\":7333:7358  layout().allTokens.length */\n      sload\n        /* \"contracts/libraries/LibERC721.sol\":7298:7306  layout() */\n      tag_292\n        /* \"contracts/libraries/LibERC721.sol\":7298:7304  layout */\n      tag_90\n        /* \"contracts/libraries/LibERC721.sol\":7298:7306  layout() */\n      jump\t// in\n    tag_292:\n        /* \"contracts/libraries/LibERC721.sol\":7298:7330  layout().allTokensIndex[tokenId] */\n      0x00\n      dup4\n      dup2\n      mstore\n        /* \"contracts/libraries/LibERC721.sol\":7298:7321  layout().allTokensIndex */\n      0x09\n      swap2\n      swap1\n      swap2\n      add\n        /* \"contracts/libraries/LibERC721.sol\":7298:7330  layout().allTokensIndex[tokenId] */\n      0x20\n      mstore\n      0x40\n      swap1\n      keccak256\n        /* \"contracts/libraries/LibERC721.sol\":7298:7358  layout().allTokensIndex[tokenId] = layout().allTokens.length */\n      sstore\n        /* \"contracts/libraries/LibERC721.sol\":7369:7377  layout() */\n      tag_293\n        /* \"contracts/libraries/LibERC721.sol\":7369:7375  layout */\n      tag_90\n        /* \"contracts/libraries/LibERC721.sol\":7369:7377  layout() */\n      jump\t// in\n    tag_293:\n        /* \"contracts/libraries/LibERC721.sol\":7369:7387  layout().allTokens */\n      0x02\n      add\n        /* \"contracts/libraries/LibERC721.sol\":7369:7401  layout().allTokens.push(tokenId) */\n      dup1\n      sload\n      0x01\n      dup2\n      add\n      dup3\n      sstore\n      0x00\n      swap2\n      dup3\n      mstore\n      0x20\n      swap1\n      swap2\n      keccak256\n      add\n      sstore\n        /* \"contracts/libraries/LibERC721.sol\":7220:7409  function _addTokenToAllTokensEnumeration(uint256 tokenId) internal {... */\n      jump\t// out\n        /* \"contracts/libraries/LibERC721.sol\":8036:9095  function _removeTokenFromOwnerEnumeration(... */\n    tag_204:\n        /* \"contracts/libraries/LibERC721.sol\":8328:8350  uint256 lastTokenIndex */\n      0x00\n        /* \"contracts/libraries/LibERC721.sol\":8353:8361  layout() */\n      tag_296\n        /* \"contracts/libraries/LibERC721.sol\":8353:8359  layout */\n      tag_90\n        /* \"contracts/libraries/LibERC721.sol\":8353:8361  layout() */\n      jump\t// in\n    tag_296:\n      sub(shl(0xa0, 0x01), 0x01)\n        /* \"contracts/libraries/LibERC721.sol\":8353:8376  layout().balances[from] */\n      dup5\n      and\n      0x00\n      swap1\n      dup2\n      mstore\n        /* \"contracts/libraries/LibERC721.sol\":8353:8370  layout().balances */\n      0x04\n      swap2\n      swap1\n      swap2\n      add\n        /* \"contracts/libraries/LibERC721.sol\":8353:8376  layout().balances[from] */\n      0x20\n      mstore\n      0x40\n      dup2\n      keccak256\n      sload\n      swap2\n      pop\n        /* \"contracts/libraries/LibERC721.sol\":8408:8416  layout() */\n      tag_297\n        /* \"contracts/libraries/LibERC721.sol\":8408:8414  layout */\n      tag_90\n        /* \"contracts/libraries/LibERC721.sol\":8408:8416  layout() */\n      jump\t// in\n    tag_297:\n        /* \"contracts/libraries/LibERC721.sol\":8408:8442  layout().ownedTokensIndex[tokenId] */\n      0x00\n      dup5\n      dup2\n      mstore\n        /* \"contracts/libraries/LibERC721.sol\":8408:8433  layout().ownedTokensIndex */\n      0x08\n      swap2\n      swap1\n      swap2\n      add\n        /* \"contracts/libraries/LibERC721.sol\":8408:8442  layout().ownedTokensIndex[tokenId] */\n      0x20\n      mstore\n      0x40\n      swap1\n      keccak256\n      sload\n      swap1\n      pop\n        /* \"contracts/libraries/LibERC721.sol\":8549:8577  tokenIndex != lastTokenIndex */\n      dup2\n      dup2\n      eq\n        /* \"contracts/libraries/LibERC721.sol\":8545:8897  if (tokenIndex != lastTokenIndex) {... */\n      tag_298\n      jumpi\n        /* \"contracts/libraries/LibERC721.sol\":8594:8613  uint256 lastTokenId */\n      0x00\n        /* \"contracts/libraries/LibERC721.sol\":8616:8624  layout() */\n      tag_299\n        /* \"contracts/libraries/LibERC721.sol\":8616:8622  layout */\n      tag_90\n        /* \"contracts/libraries/LibERC721.sol\":8616:8624  layout() */\n      jump\t// in\n    tag_299:\n      sub(shl(0xa0, 0x01), 0x01)\n        /* \"contracts/libraries/LibERC721.sol\":8616:8642  layout().ownedTokens[from] */\n      dup7\n      and\n      0x00\n      swap1\n      dup2\n      mstore\n        /* \"contracts/libraries/LibERC721.sol\":8616:8636  layout().ownedTokens */\n      0x07\n      swap2\n      swap1\n      swap2\n      add\n        /* \"contracts/libraries/LibERC721.sol\":8616:8642  layout().ownedTokens[from] */\n      0x20\n      swap1\n      dup2\n      mstore\n      0x40\n      dup1\n      dup4\n      keccak256\n        /* \"contracts/libraries/LibERC721.sol\":8616:8658  layout().ownedTokens[from][lastTokenIndex] */\n      dup7\n      dup5\n      mstore\n      swap1\n      swap2\n      mstore\n      swap1\n      keccak256\n      sload\n      swap1\n      pop\n      dup1\n        /* \"contracts/libraries/LibERC721.sol\":8675:8683  layout() */\n      tag_300\n        /* \"contracts/libraries/LibERC721.sol\":8675:8681  layout */\n      tag_90\n        /* \"contracts/libraries/LibERC721.sol\":8675:8683  layout() */\n      jump\t// in\n    tag_300:\n      sub(shl(0xa0, 0x01), 0x01)\n        /* \"contracts/libraries/LibERC721.sol\":8675:8701  layout().ownedTokens[from] */\n      dup8\n      and\n      0x00\n      swap1\n      dup2\n      mstore\n        /* \"contracts/libraries/LibERC721.sol\":8675:8695  layout().ownedTokens */\n      0x07\n      swap2\n      swap1\n      swap2\n      add\n        /* \"contracts/libraries/LibERC721.sol\":8675:8701  layout().ownedTokens[from] */\n      0x20\n      swap1\n      dup2\n      mstore\n      0x40\n      dup1\n      dup4\n      keccak256\n        /* \"contracts/libraries/LibERC721.sol\":8675:8713  layout().ownedTokens[from][tokenIndex] */\n      dup7\n      dup5\n      mstore\n      swap1\n      swap2\n      mstore\n      swap1\n      keccak256\n        /* \"contracts/libraries/LibERC721.sol\":8675:8727  layout().ownedTokens[from][tokenIndex] = lastTokenId */\n      sstore\n        /* \"contracts/libraries/LibERC721.sol\":8702:8712  tokenIndex */\n      dup2\n        /* \"contracts/libraries/LibERC721.sol\":8800:8808  layout() */\n      tag_301\n        /* \"contracts/libraries/LibERC721.sol\":8800:8806  layout */\n      tag_90\n        /* \"contracts/libraries/LibERC721.sol\":8800:8808  layout() */\n      jump\t// in\n    tag_301:\n        /* \"contracts/libraries/LibERC721.sol\":8800:8838  layout().ownedTokensIndex[lastTokenId] */\n      0x00\n      swap3\n      dup4\n      mstore\n        /* \"contracts/libraries/LibERC721.sol\":8800:8825  layout().ownedTokensIndex */\n      0x08\n      add\n        /* \"contracts/libraries/LibERC721.sol\":8800:8838  layout().ownedTokensIndex[lastTokenId] */\n      0x20\n      mstore\n      0x40\n      swap1\n      swap2\n      keccak256\n        /* \"contracts/libraries/LibERC721.sol\":8800:8851  layout().ownedTokensIndex[lastTokenId] = tokenIndex */\n      sstore\n        /* \"contracts/libraries/LibERC721.sol\":8545:8897  if (tokenIndex != lastTokenIndex) {... */\n    tag_298:\n        /* \"contracts/libraries/LibERC721.sol\":8993:9001  layout() */\n      tag_302\n        /* \"contracts/libraries/LibERC721.sol\":8993:8999  layout */\n      tag_90\n        /* \"contracts/libraries/LibERC721.sol\":8993:9001  layout() */\n      jump\t// in\n    tag_302:\n        /* \"contracts/libraries/LibERC721.sol\":8993:9027  layout().ownedTokensIndex[tokenId] */\n      0x00\n      dup5\n      dup2\n      mstore\n        /* \"contracts/libraries/LibERC721.sol\":8993:9018  layout().ownedTokensIndex */\n      0x08\n      swap2\n      swap1\n      swap2\n      add\n        /* \"contracts/libraries/LibERC721.sol\":8993:9027  layout().ownedTokensIndex[tokenId] */\n      0x20\n      mstore\n      0x40\n      dup2\n      keccak256\n        /* \"contracts/libraries/LibERC721.sol\":8986:9027  delete layout().ownedTokensIndex[tokenId] */\n      sstore\n        /* \"contracts/libraries/LibERC721.sol\":9045:9053  layout() */\n      tag_303\n        /* \"contracts/libraries/LibERC721.sol\":9045:9051  layout */\n      tag_90\n        /* \"contracts/libraries/LibERC721.sol\":9045:9053  layout() */\n      jump\t// in\n    tag_303:\n      sub(shl(0xa0, 0x01), 0x01)\n        /* \"contracts/libraries/LibERC721.sol\":9045:9071  layout().ownedTokens[from] */\n      swap1\n      swap5\n      and\n      0x00\n      swap1\n      dup2\n      mstore\n        /* \"contracts/libraries/LibERC721.sol\":9045:9065  layout().ownedTokens */\n      0x07\n      swap5\n      swap1\n      swap5\n      add\n        /* \"contracts/libraries/LibERC721.sol\":9045:9071  layout().ownedTokens[from] */\n      0x20\n      swap1\n      dup2\n      mstore\n      0x40\n      dup1\n      dup7\n      keccak256\n        /* \"contracts/libraries/LibERC721.sol\":9045:9087  layout().ownedTokens[from][lastTokenIndex] */\n      swap4\n      dup7\n      mstore\n      swap3\n      swap1\n      mstore\n      pop\n      dup3\n      keccak256\n        /* \"contracts/libraries/LibERC721.sol\":9038:9087  delete layout().ownedTokens[from][lastTokenIndex] */\n      swap2\n      swap1\n      swap2\n      sstore\n      pop\n        /* \"contracts/libraries/LibERC721.sol\":8036:9095  function _removeTokenFromOwnerEnumeration(... */\n      jump\t// out\n        /* \"contracts/libraries/LibERC721.sol\":9394:10530  function _removeTokenFromAllTokensEnumeration(uint256 tokenId) internal {... */\n    tag_207:\n        /* \"contracts/libraries/LibERC721.sol\":9648:9670  uint256 lastTokenIndex */\n      0x00\n        /* \"contracts/libraries/LibERC721.sol\":9701:9702  1 */\n      0x01\n        /* \"contracts/libraries/LibERC721.sol\":9673:9681  layout() */\n      tag_305\n        /* \"contracts/libraries/LibERC721.sol\":9673:9679  layout */\n      tag_90\n        /* \"contracts/libraries/LibERC721.sol\":9673:9681  layout() */\n      jump\t// in\n    tag_305:\n        /* \"contracts/libraries/LibERC721.sol\":9673:9691  layout().allTokens */\n      0x02\n      add\n        /* \"contracts/libraries/LibERC721.sol\":9673:9698  layout().allTokens.length */\n      sload\n        /* \"contracts/libraries/LibERC721.sol\":9673:9702  layout().allTokens.length - 1 */\n      tag_306\n      swap2\n      swap1\n      tag_307\n      jump\t// in\n    tag_306:\n        /* \"contracts/libraries/LibERC721.sol\":9648:9702  uint256 lastTokenIndex = layout().allTokens.length - 1 */\n      swap1\n      pop\n        /* \"contracts/libraries/LibERC721.sol\":9713:9731  uint256 tokenIndex */\n      0x00\n        /* \"contracts/libraries/LibERC721.sol\":9734:9742  layout() */\n      tag_308\n        /* \"contracts/libraries/LibERC721.sol\":9734:9740  layout */\n      tag_90\n        /* \"contracts/libraries/LibERC721.sol\":9734:9742  layout() */\n      jump\t// in\n    tag_308:\n        /* \"contracts/libraries/LibERC721.sol\":9734:9766  layout().allTokensIndex[tokenId] */\n      0x00\n      dup5\n      dup2\n      mstore\n        /* \"contracts/libraries/LibERC721.sol\":9734:9757  layout().allTokensIndex */\n      0x09\n      swap2\n      swap1\n      swap2\n      add\n        /* \"contracts/libraries/LibERC721.sol\":9734:9766  layout().allTokensIndex[tokenId] */\n      0x20\n      mstore\n      0x40\n      dup2\n      keccak256\n      sload\n      swap2\n      pop\n        /* \"contracts/libraries/LibERC721.sol\":10115:10123  layout() */\n      tag_309\n        /* \"contracts/libraries/LibERC721.sol\":10115:10121  layout */\n      tag_90\n        /* \"contracts/libraries/LibERC721.sol\":10115:10123  layout() */\n      jump\t// in\n    tag_309:\n        /* \"contracts/libraries/LibERC721.sol\":10115:10133  layout().allTokens */\n      0x02\n      add\n        /* \"contracts/libraries/LibERC721.sol\":10134:10148  lastTokenIndex */\n      dup4\n        /* \"contracts/libraries/LibERC721.sol\":10115:10149  layout().allTokens[lastTokenIndex] */\n      dup2\n      sload\n      dup2\n      lt\n      tag_311\n      jumpi\n      tag_311\n      tag_130\n      jump\t// in\n    tag_311:\n      swap1\n      0x00\n      mstore\n      keccak256(0x00, 0x20)\n      add\n      sload\n        /* \"contracts/libraries/LibERC721.sol\":10093:10149  uint256 lastTokenId = layout().allTokens[lastTokenIndex] */\n      swap1\n      pop\n        /* \"contracts/libraries/LibERC721.sol\":10195:10206  lastTokenId */\n      dup1\n        /* \"contracts/libraries/LibERC721.sol\":10162:10170  layout() */\n      tag_313\n        /* \"contracts/libraries/LibERC721.sol\":10162:10168  layout */\n      tag_90\n        /* \"contracts/libraries/LibERC721.sol\":10162:10170  layout() */\n      jump\t// in\n    tag_313:\n        /* \"contracts/libraries/LibERC721.sol\":10162:10180  layout().allTokens */\n      0x02\n      add\n        /* \"contracts/libraries/LibERC721.sol\":10181:10191  tokenIndex */\n      dup4\n        /* \"contracts/libraries/LibERC721.sol\":10162:10192  layout().allTokens[tokenIndex] */\n      dup2\n      sload\n      dup2\n      lt\n      tag_315\n      jumpi\n      tag_315\n      tag_130\n      jump\t// in\n    tag_315:\n      0x00\n      swap2\n      dup3\n      mstore\n      0x20\n      swap1\n      swap2\n      keccak256\n      add\n        /* \"contracts/libraries/LibERC721.sol\":10162:10206  layout().allTokens[tokenIndex] = lastTokenId */\n      sstore\n        /* \"contracts/libraries/LibERC721.sol\":10314:10324  tokenIndex */\n      dup2\n        /* \"contracts/libraries/LibERC721.sol\":10275:10283  layout() */\n      tag_317\n        /* \"contracts/libraries/LibERC721.sol\":10275:10281  layout */\n      tag_90\n        /* \"contracts/libraries/LibERC721.sol\":10275:10283  layout() */\n      jump\t// in\n    tag_317:\n        /* \"contracts/libraries/LibERC721.sol\":10275:10311  layout().allTokensIndex[lastTokenId] */\n      0x00\n      dup4\n      dup2\n      mstore\n        /* \"contracts/libraries/LibERC721.sol\":10275:10298  layout().allTokensIndex */\n      0x09\n      swap2\n      swap1\n      swap2\n      add\n        /* \"contracts/libraries/LibERC721.sol\":10275:10311  layout().allTokensIndex[lastTokenId] */\n      0x20\n      mstore\n      0x40\n      swap1\n      keccak256\n        /* \"contracts/libraries/LibERC721.sol\":10275:10324  layout().allTokensIndex[lastTokenId] = tokenIndex */\n      sstore\n        /* \"contracts/libraries/LibERC721.sol\":10455:10463  layout() */\n      tag_318\n        /* \"contracts/libraries/LibERC721.sol\":10455:10461  layout */\n      tag_90\n        /* \"contracts/libraries/LibERC721.sol\":10455:10463  layout() */\n      jump\t// in\n    tag_318:\n        /* \"contracts/libraries/LibERC721.sol\":10455:10487  layout().allTokensIndex[tokenId] */\n      0x00\n      dup6\n      dup2\n      mstore\n        /* \"contracts/libraries/LibERC721.sol\":10455:10478  layout().allTokensIndex */\n      0x09\n      swap2\n      swap1\n      swap2\n      add\n        /* \"contracts/libraries/LibERC721.sol\":10455:10487  layout().allTokensIndex[tokenId] */\n      0x20\n      mstore\n      0x40\n      dup2\n      keccak256\n        /* \"contracts/libraries/LibERC721.sol\":10448:10487  delete layout().allTokensIndex[tokenId] */\n      sstore\n        /* \"contracts/libraries/LibERC721.sol\":10498:10506  layout() */\n      tag_319\n        /* \"contracts/libraries/LibERC721.sol\":10498:10504  layout */\n      tag_90\n        /* \"contracts/libraries/LibERC721.sol\":10498:10506  layout() */\n      jump\t// in\n    tag_319:\n        /* \"contracts/libraries/LibERC721.sol\":10498:10516  layout().allTokens */\n      0x02\n      add\n        /* \"contracts/libraries/LibERC721.sol\":10498:10522  layout().allTokens.pop() */\n      dup1\n      sload\n      dup1\n      tag_321\n      jumpi\n      tag_321\n      tag_322\n      jump\t// in\n    tag_321:\n      0x01\n      swap1\n      sub\n      dup2\n      dup2\n      swap1\n      0x00\n      mstore\n      keccak256(0x00, 0x20)\n      add\n      0x00\n      swap1\n      sstore\n      swap1\n      sstore\n        /* \"contracts/libraries/LibERC721.sol\":9466:10530  {... */\n      pop\n      pop\n      pop\n        /* \"contracts/libraries/LibERC721.sol\":9394:10530  function _removeTokenFromAllTokensEnumeration(uint256 tokenId) internal {... */\n      pop\n      jump\t// out\n        /* \"contracts/libraries/LibERC721.sol\":6776:7019  function _addTokenToOwnerEnumeration(address to, uint256 tokenId) internal {... */\n    tag_211:\n        /* \"contracts/libraries/LibERC721.sol\":6862:6876  uint256 length */\n      0x00\n        /* \"contracts/libraries/LibERC721.sol\":6903:6904  1 */\n      0x01\n        /* \"contracts/libraries/LibERC721.sol\":6879:6887  layout() */\n      tag_325\n        /* \"contracts/libraries/LibERC721.sol\":6879:6885  layout */\n      tag_90\n        /* \"contracts/libraries/LibERC721.sol\":6879:6887  layout() */\n      jump\t// in\n    tag_325:\n      sub(shl(0xa0, 0x01), 0x01)\n        /* \"contracts/libraries/LibERC721.sol\":6879:6900  layout().balances[to] */\n      dup6\n      and\n      0x00\n      swap1\n      dup2\n      mstore\n        /* \"contracts/libraries/LibERC721.sol\":6879:6896  layout().balances */\n      0x04\n      swap2\n      swap1\n      swap2\n      add\n        /* \"contracts/libraries/LibERC721.sol\":6879:6900  layout().balances[to] */\n      0x20\n      mstore\n      0x40\n      swap1\n      keccak256\n      sload\n        /* \"contracts/libraries/LibERC721.sol\":6879:6904  layout().balances[to] - 1 */\n      tag_326\n      swap2\n      swap1\n      tag_307\n      jump\t// in\n    tag_326:\n        /* \"contracts/libraries/LibERC721.sol\":6862:6904  uint256 length = layout().balances[to] - 1 */\n      swap1\n      pop\n        /* \"contracts/libraries/LibERC721.sol\":6950:6957  tokenId */\n      dup2\n        /* \"contracts/libraries/LibERC721.sol\":6915:6923  layout() */\n      tag_327\n        /* \"contracts/libraries/LibERC721.sol\":6915:6921  layout */\n      tag_90\n        /* \"contracts/libraries/LibERC721.sol\":6915:6923  layout() */\n      jump\t// in\n    tag_327:\n      sub(shl(0xa0, 0x01), 0x01)\n        /* \"contracts/libraries/LibERC721.sol\":6915:6939  layout().ownedTokens[to] */\n      dup6\n      and\n      0x00\n      swap1\n      dup2\n      mstore\n        /* \"contracts/libraries/LibERC721.sol\":6915:6935  layout().ownedTokens */\n      0x07\n      swap2\n      swap1\n      swap2\n      add\n        /* \"contracts/libraries/LibERC721.sol\":6915:6939  layout().ownedTokens[to] */\n      0x20\n      swap1\n      dup2\n      mstore\n      0x40\n      dup1\n      dup4\n      keccak256\n        /* \"contracts/libraries/LibERC721.sol\":6915:6947  layout().ownedTokens[to][length] */\n      dup6\n      dup5\n      mstore\n      swap1\n      swap2\n      mstore\n      swap1\n      keccak256\n        /* \"contracts/libraries/LibERC721.sol\":6915:6957  layout().ownedTokens[to][length] = tokenId */\n      sstore\n        /* \"contracts/libraries/LibERC721.sol\":6940:6946  length */\n      dup1\n        /* \"contracts/libraries/LibERC721.sol\":6968:6976  layout() */\n      tag_328\n        /* \"contracts/libraries/LibERC721.sol\":6968:6974  layout */\n      tag_90\n        /* \"contracts/libraries/LibERC721.sol\":6968:6976  layout() */\n      jump\t// in\n    tag_328:\n        /* \"contracts/libraries/LibERC721.sol\":6968:7002  layout().ownedTokensIndex[tokenId] */\n      0x00\n      swap4\n      dup5\n      mstore\n        /* \"contracts/libraries/LibERC721.sol\":6968:6993  layout().ownedTokensIndex */\n      0x08\n      add\n        /* \"contracts/libraries/LibERC721.sol\":6968:7002  layout().ownedTokensIndex[tokenId] */\n      0x20\n      mstore\n      0x40\n      swap1\n      swap3\n      keccak256\n        /* \"contracts/libraries/LibERC721.sol\":6968:7011  layout().ownedTokensIndex[tokenId] = length */\n      swap2\n      swap1\n      swap2\n      sstore\n      pop\n      pop\n        /* \"contracts/libraries/LibERC721.sol\":6776:7019  function _addTokenToOwnerEnumeration(address to, uint256 tokenId) internal {... */\n      jump\t// out\n        /* \"@openzeppelin/contracts/utils/math/Math.sol\":12214:13130  function log10(uint256 value) internal pure returns (uint256) {... */\n    tag_239:\n        /* \"@openzeppelin/contracts/utils/math/Math.sol\":12267:12274  uint256 */\n      0x00\n      dup1\n      shl(0x40, 0x184f03e93ff9f4daa797ed6e38ed64bf6a1f01)\n        /* \"@openzeppelin/contracts/utils/math/Math.sol\":12342:12359  value >= 10 ** 64 */\n      dup4\n      lt\n        /* \"@openzeppelin/contracts/utils/math/Math.sol\":12338:12441  if (value >= 10 ** 64) {... */\n      tag_330\n      jumpi\n      shl(0x40, 0x184f03e93ff9f4daa797ed6e38ed64bf6a1f01)\n        /* \"@openzeppelin/contracts/utils/math/Math.sol\":12379:12396  value /= 10 ** 64 */\n      dup4\n      div\n      swap3\n      pop\n        /* \"@openzeppelin/contracts/utils/math/Math.sol\":12424:12426  64 */\n      0x40\n        /* \"@openzeppelin/contracts/utils/math/Math.sol\":12414:12426  result += 64 */\n      add\n        /* \"@openzeppelin/contracts/utils/math/Math.sol\":12338:12441  if (value >= 10 ** 64) {... */\n    tag_330:\n        /* \"@openzeppelin/contracts/utils/math/Math.sol\":12467:12475  10 ** 32 */\n      0x04ee2d6d415b85acef8100000000\n        /* \"@openzeppelin/contracts/utils/math/Math.sol\":12458:12463  value */\n      dup4\n        /* \"@openzeppelin/contracts/utils/math/Math.sol\":12458:12475  value >= 10 ** 32 */\n      lt\n        /* \"@openzeppelin/contracts/utils/math/Math.sol\":12454:12557  if (value >= 10 ** 32) {... */\n      tag_333\n      jumpi\n        /* \"@openzeppelin/contracts/utils/math/Math.sol\":12504:12512  10 ** 32 */\n      0x04ee2d6d415b85acef8100000000\n        /* \"@openzeppelin/contracts/utils/math/Math.sol\":12495:12512  value /= 10 ** 32 */\n      dup4\n      div\n      swap3\n      pop\n        /* \"@openzeppelin/contracts/utils/math/Math.sol\":12540:12542  32 */\n      0x20\n        /* \"@openzeppelin/contracts/utils/math/Math.sol\":12530:12542  result += 32 */\n      add\n        /* \"@openzeppelin/contracts/utils/math/Math.sol\":12454:12557  if (value >= 10 ** 32) {... */\n    tag_333:\n        /* \"@openzeppelin/contracts/utils/math/Math.sol\":12583:12591  10 ** 16 */\n      0x2386f26fc10000\n        /* \"@openzeppelin/contracts/utils/math/Math.sol\":12574:12579  value */\n      dup4\n        /* \"@openzeppelin/contracts/utils/math/Math.sol\":12574:12591  value >= 10 ** 16 */\n      lt\n        /* \"@openzeppelin/contracts/utils/math/Math.sol\":12570:12673  if (value >= 10 ** 16) {... */\n      tag_336\n      jumpi\n        /* \"@openzeppelin/contracts/utils/math/Math.sol\":12620:12628  10 ** 16 */\n      0x2386f26fc10000\n        /* \"@openzeppelin/contracts/utils/math/Math.sol\":12611:12628  value /= 10 ** 16 */\n      dup4\n      div\n      swap3\n      pop\n        /* \"@openzeppelin/contracts/utils/math/Math.sol\":12656:12658  16 */\n      0x10\n        /* \"@openzeppelin/contracts/utils/math/Math.sol\":12646:12658  result += 16 */\n      add\n        /* \"@openzeppelin/contracts/utils/math/Math.sol\":12570:12673  if (value >= 10 ** 16) {... */\n    tag_336:\n        /* \"@openzeppelin/contracts/utils/math/Math.sol\":12699:12706  10 ** 8 */\n      0x05f5e100\n        /* \"@openzeppelin/contracts/utils/math/Math.sol\":12690:12695  value */\n      dup4\n        /* \"@openzeppelin/contracts/utils/math/Math.sol\":12690:12706  value >= 10 ** 8 */\n      lt\n        /* \"@openzeppelin/contracts/utils/math/Math.sol\":12686:12786  if (value >= 10 ** 8) {... */\n      tag_339\n      jumpi\n        /* \"@openzeppelin/contracts/utils/math/Math.sol\":12735:12742  10 ** 8 */\n      0x05f5e100\n        /* \"@openzeppelin/contracts/utils/math/Math.sol\":12726:12742  value /= 10 ** 8 */\n      dup4\n      div\n      swap3\n      pop\n        /* \"@openzeppelin/contracts/utils/math/Math.sol\":12770:12771  8 */\n      0x08\n        /* \"@openzeppelin/contracts/utils/math/Math.sol\":12760:12771  result += 8 */\n      add\n        /* \"@openzeppelin/contracts/utils/math/Math.sol\":12686:12786  if (value >= 10 ** 8) {... */\n    tag_339:\n        /* \"@openzeppelin/contracts/utils/math/Math.sol\":12812:12819  10 ** 4 */\n      0x2710\n        /* \"@openzeppelin/contracts/utils/math/Math.sol\":12803:12808  value */\n      dup4\n        /* \"@openzeppelin/contracts/utils/math/Math.sol\":12803:12819  value >= 10 ** 4 */\n      lt\n        /* \"@openzeppelin/contracts/utils/math/Math.sol\":12799:12899  if (value >= 10 ** 4) {... */\n      tag_342\n      jumpi\n        /* \"@openzeppelin/contracts/utils/math/Math.sol\":12848:12855  10 ** 4 */\n      0x2710\n        /* \"@openzeppelin/contracts/utils/math/Math.sol\":12839:12855  value /= 10 ** 4 */\n      dup4\n      div\n      swap3\n      pop\n        /* \"@openzeppelin/contracts/utils/math/Math.sol\":12883:12884  4 */\n      0x04\n        /* \"@openzeppelin/contracts/utils/math/Math.sol\":12873:12884  result += 4 */\n      add\n        /* \"@openzeppelin/contracts/utils/math/Math.sol\":12799:12899  if (value >= 10 ** 4) {... */\n    tag_342:\n        /* \"@openzeppelin/contracts/utils/math/Math.sol\":12925:12932  10 ** 2 */\n      0x64\n        /* \"@openzeppelin/contracts/utils/math/Math.sol\":12916:12921  value */\n      dup4\n        /* \"@openzeppelin/contracts/utils/math/Math.sol\":12916:12932  value >= 10 ** 2 */\n      lt\n        /* \"@openzeppelin/contracts/utils/math/Math.sol\":12912:13012  if (value >= 10 ** 2) {... */\n      tag_345\n      jumpi\n        /* \"@openzeppelin/contracts/utils/math/Math.sol\":12961:12968  10 ** 2 */\n      0x64\n        /* \"@openzeppelin/contracts/utils/math/Math.sol\":12952:12968  value /= 10 ** 2 */\n      dup4\n      div\n      swap3\n      pop\n        /* \"@openzeppelin/contracts/utils/math/Math.sol\":12996:12997  2 */\n      0x02\n        /* \"@openzeppelin/contracts/utils/math/Math.sol\":12986:12997  result += 2 */\n      add\n        /* \"@openzeppelin/contracts/utils/math/Math.sol\":12912:13012  if (value >= 10 ** 2) {... */\n    tag_345:\n        /* \"@openzeppelin/contracts/utils/math/Math.sol\":13038:13045  10 ** 1 */\n      0x0a\n        /* \"@openzeppelin/contracts/utils/math/Math.sol\":13029:13034  value */\n      dup4\n        /* \"@openzeppelin/contracts/utils/math/Math.sol\":13029:13045  value >= 10 ** 1 */\n      lt\n        /* \"@openzeppelin/contracts/utils/math/Math.sol\":13025:13091  if (value >= 10 ** 1) {... */\n      tag_100\n      jumpi\n        /* \"@openzeppelin/contracts/utils/math/Math.sol\":13075:13076  1 */\n      0x01\n        /* \"@openzeppelin/contracts/utils/math/Math.sol\":13065:13076  result += 1 */\n      add\n        /* \"@openzeppelin/contracts/utils/math/Math.sol\":13117:13123  result */\n      swap3\n        /* \"@openzeppelin/contracts/utils/math/Math.sol\":12214:13130  function log10(uint256 value) internal pure returns (uint256) {... */\n      swap2\n      pop\n      pop\n      jump\t// out\n        /* \"contracts/libraries/LibERC721.sol\":2299:2645  function _isAuthorized(... */\n    tag_284:\n        /* \"contracts/libraries/LibERC721.sol\":2428:2432  bool */\n      0x00\n      sub(shl(0xa0, 0x01), 0x01)\n        /* \"contracts/libraries/LibERC721.sol\":2465:2486  spender != address(0) */\n      dup4\n      and\n      iszero\n      dup1\n      iszero\n      swap1\n        /* \"contracts/libraries/LibERC721.sol\":2465:2637  spender != address(0) &&... */\n      tag_210\n      jumpi\n      pop\n        /* \"contracts/libraries/LibERC721.sol\":2513:2520  spender */\n      dup3\n      sub(shl(0xa0, 0x01), 0x01)\n        /* \"contracts/libraries/LibERC721.sol\":2504:2520  owner == spender */\n      and\n        /* \"contracts/libraries/LibERC721.sol\":2504:2509  owner */\n      dup5\n      sub(shl(0xa0, 0x01), 0x01)\n        /* \"contracts/libraries/LibERC721.sol\":2504:2520  owner == spender */\n      and\n      eq\n        /* \"contracts/libraries/LibERC721.sol\":2504:2583  owner == spender ||... */\n      dup1\n      tag_351\n      jumpi\n      pop\n        /* \"contracts/libraries/LibERC721.sol\":2541:2549  layout() */\n      tag_352\n        /* \"contracts/libraries/LibERC721.sol\":2541:2547  layout */\n      tag_90\n        /* \"contracts/libraries/LibERC721.sol\":2541:2549  layout() */\n      jump\t// in\n    tag_352:\n      sub(shl(0xa0, 0x01), 0x01)\n        /* \"contracts/libraries/LibERC721.sol\":2541:2574  layout().operatorApprovals[owner] */\n      dup1\n      dup7\n      and\n      0x00\n      swap1\n      dup2\n      mstore\n        /* \"contracts/libraries/LibERC721.sol\":2541:2567  layout().operatorApprovals */\n      0x06\n      swap3\n      swap1\n      swap3\n      add\n        /* \"contracts/libraries/LibERC721.sol\":2541:2574  layout().operatorApprovals[owner] */\n      0x20\n      swap1\n      dup2\n      mstore\n      0x40\n      dup1\n      dup5\n      keccak256\n        /* \"contracts/libraries/LibERC721.sol\":2541:2583  layout().operatorApprovals[owner][spender] */\n      swap3\n      dup8\n      and\n      dup5\n      mstore\n      swap2\n      swap1\n      mstore\n      swap1\n      keccak256\n      sload\n      0xff\n      and\n        /* \"contracts/libraries/LibERC721.sol\":2504:2583  owner == spender ||... */\n    tag_351:\n        /* \"contracts/libraries/LibERC721.sol\":2504:2636  owner == spender ||... */\n      dup1\n      tag_210\n      jumpi\n      pop\n        /* \"contracts/libraries/LibERC721.sol\":2629:2636  spender */\n      dup3\n      sub(shl(0xa0, 0x01), 0x01)\n        /* \"contracts/libraries/LibERC721.sol\":2604:2636  _getApproved(tokenId) == spender */\n      and\n        /* \"contracts/libraries/LibERC721.sol\":2604:2625  _getApproved(tokenId) */\n      tag_354\n        /* \"contracts/libraries/LibERC721.sol\":2617:2624  tokenId */\n      dup4\n        /* \"contracts/libraries/LibERC721.sol\":2604:2616  _getApproved */\n      tag_101\n        /* \"contracts/libraries/LibERC721.sol\":2604:2625  _getApproved(tokenId) */\n      jump\t// in\n    tag_354:\n      sub(shl(0xa0, 0x01), 0x01)\n        /* \"contracts/libraries/LibERC721.sol\":2604:2636  _getApproved(tokenId) == spender */\n      and\n      eq\n        /* \"contracts/libraries/LibERC721.sol\":2445:2637  return... */\n      swap5\n        /* \"contracts/libraries/LibERC721.sol\":2299:2645  function _isAuthorized(... */\n      swap4\n      pop\n      pop\n      pop\n      pop\n      jump\t// out\n        /* \"#utility.yul\":14:314   */\n    tag_355:\n        /* \"#utility.yul\":67:70   */\n      0x00\n        /* \"#utility.yul\":105:110   */\n      dup2\n        /* \"#utility.yul\":99:111   */\n      mload\n        /* \"#utility.yul\":132:138   */\n      dup1\n        /* \"#utility.yul\":127:130   */\n      dup5\n        /* \"#utility.yul\":120:139   */\n      mstore\n        /* \"#utility.yul\":188:194   */\n      dup1\n        /* \"#utility.yul\":181:185   */\n      0x20\n        /* \"#utility.yul\":174:179   */\n      dup5\n        /* \"#utility.yul\":170:186   */\n      add\n        /* \"#utility.yul\":163:167   */\n      0x20\n        /* \"#utility.yul\":158:161   */\n      dup7\n        /* \"#utility.yul\":154:168   */\n      add\n        /* \"#utility.yul\":148:195   */\n      mcopy\n        /* \"#utility.yul\":240:241   */\n      0x00\n        /* \"#utility.yul\":233:237   */\n      0x20\n        /* \"#utility.yul\":224:230   */\n      dup3\n        /* \"#utility.yul\":219:222   */\n      dup7\n        /* \"#utility.yul\":215:231   */\n      add\n        /* \"#utility.yul\":211:238   */\n      add\n        /* \"#utility.yul\":204:242   */\n      mstore\n        /* \"#utility.yul\":303:307   */\n      0x20\n        /* \"#utility.yul\":296:298   */\n      0x1f\n        /* \"#utility.yul\":292:299   */\n      not\n        /* \"#utility.yul\":287:289   */\n      0x1f\n        /* \"#utility.yul\":279:285   */\n      dup4\n        /* \"#utility.yul\":275:290   */\n      add\n        /* \"#utility.yul\":271:300   */\n      and\n        /* \"#utility.yul\":266:269   */\n      dup6\n        /* \"#utility.yul\":262:301   */\n      add\n        /* \"#utility.yul\":258:308   */\n      add\n        /* \"#utility.yul\":251:308   */\n      swap2\n      pop\n      pop\n        /* \"#utility.yul\":14:314   */\n      swap3\n      swap2\n      pop\n      pop\n      jump\t// out\n        /* \"#utility.yul\":319:550   */\n    tag_25:\n        /* \"#utility.yul\":468:470   */\n      0x20\n        /* \"#utility.yul\":457:466   */\n      dup2\n        /* \"#utility.yul\":450:471   */\n      mstore\n        /* \"#utility.yul\":431:435   */\n      0x00\n        /* \"#utility.yul\":488:544   */\n      tag_157\n        /* \"#utility.yul\":540:542   */\n      0x20\n        /* \"#utility.yul\":529:538   */\n      dup4\n        /* \"#utility.yul\":525:543   */\n      add\n        /* \"#utility.yul\":517:523   */\n      dup5\n        /* \"#utility.yul\":488:544   */\n      tag_355\n      jump\t// in\n        /* \"#utility.yul\":555:781   */\n    tag_28:\n        /* \"#utility.yul\":614:620   */\n      0x00\n        /* \"#utility.yul\":667:669   */\n      0x20\n        /* \"#utility.yul\":655:664   */\n      dup3\n        /* \"#utility.yul\":646:653   */\n      dup5\n        /* \"#utility.yul\":642:665   */\n      sub\n        /* \"#utility.yul\":638:670   */\n      slt\n        /* \"#utility.yul\":635:687   */\n      iszero\n      tag_364\n      jumpi\n        /* \"#utility.yul\":683:684   */\n      0x00\n        /* \"#utility.yul\":680:681   */\n      0x00\n        /* \"#utility.yul\":673:685   */\n      revert\n        /* \"#utility.yul\":635:687   */\n    tag_364:\n      pop\n        /* \"#utility.yul\":728:751   */\n      calldataload\n      swap2\n        /* \"#utility.yul\":555:781   */\n      swap1\n      pop\n      jump\t// out\n        /* \"#utility.yul\":994:1167   */\n    tag_356:\n        /* \"#utility.yul\":1062:1082   */\n      dup1\n      calldataload\n      sub(shl(0xa0, 0x01), 0x01)\n        /* \"#utility.yul\":1111:1142   */\n      dup2\n      and\n        /* \"#utility.yul\":1101:1143   */\n      dup2\n      eq\n        /* \"#utility.yul\":1091:1161   */\n      tag_367\n      jumpi\n        /* \"#utility.yul\":1157:1158   */\n      0x00\n        /* \"#utility.yul\":1154:1155   */\n      0x00\n        /* \"#utility.yul\":1147:1159   */\n      revert\n        /* \"#utility.yul\":1091:1161   */\n    tag_367:\n        /* \"#utility.yul\":994:1167   */\n      swap2\n      swap1\n      pop\n      jump\t// out\n        /* \"#utility.yul\":1172:1472   */\n    tag_34:\n        /* \"#utility.yul\":1240:1246   */\n      0x00\n        /* \"#utility.yul\":1248:1254   */\n      0x00\n        /* \"#utility.yul\":1301:1303   */\n      0x40\n        /* \"#utility.yul\":1289:1298   */\n      dup4\n        /* \"#utility.yul\":1280:1287   */\n      dup6\n        /* \"#utility.yul\":1276:1299   */\n      sub\n        /* \"#utility.yul\":1272:1304   */\n      slt\n        /* \"#utility.yul\":1269:1321   */\n      iszero\n      tag_369\n      jumpi\n        /* \"#utility.yul\":1317:1318   */\n      0x00\n        /* \"#utility.yul\":1314:1315   */\n      0x00\n        /* \"#utility.yul\":1307:1319   */\n      revert\n        /* \"#utility.yul\":1269:1321   */\n    tag_369:\n        /* \"#utility.yul\":1340:1369   */\n      tag_370\n        /* \"#utility.yul\":1359:1368   */\n      dup4\n        /* \"#utility.yul\":1340:1369   */\n      tag_356\n      jump\t// in\n    tag_370:\n        /* \"#utility.yul\":1330:1369   */\n      swap5\n        /* \"#utility.yul\":1438:1440   */\n      0x20\n        /* \"#utility.yul\":1423:1441   */\n      swap4\n      swap1\n      swap4\n      add\n        /* \"#utility.yul\":1410:1442   */\n      calldataload\n      swap4\n      pop\n      pop\n      pop\n        /* \"#utility.yul\":1172:1472   */\n      jump\t// out\n        /* \"#utility.yul\":1659:2033   */\n    tag_42:\n        /* \"#utility.yul\":1736:1742   */\n      0x00\n        /* \"#utility.yul\":1744:1750   */\n      0x00\n        /* \"#utility.yul\":1752:1758   */\n      0x00\n        /* \"#utility.yul\":1805:1807   */\n      0x60\n        /* \"#utility.yul\":1793:1802   */\n      dup5\n        /* \"#utility.yul\":1784:1791   */\n      dup7\n        /* \"#utility.yul\":1780:1803   */\n      sub\n        /* \"#utility.yul\":1776:1808   */\n      slt\n        /* \"#utility.yul\":1773:1825   */\n      iszero\n      tag_373\n      jumpi\n        /* \"#utility.yul\":1821:1822   */\n      0x00\n        /* \"#utility.yul\":1818:1819   */\n      0x00\n        /* \"#utility.yul\":1811:1823   */\n      revert\n        /* \"#utility.yul\":1773:1825   */\n    tag_373:\n        /* \"#utility.yul\":1844:1873   */\n      tag_374\n        /* \"#utility.yul\":1863:1872   */\n      dup5\n        /* \"#utility.yul\":1844:1873   */\n      tag_356\n      jump\t// in\n    tag_374:\n        /* \"#utility.yul\":1834:1873   */\n      swap3\n      pop\n        /* \"#utility.yul\":1892:1930   */\n      tag_375\n        /* \"#utility.yul\":1926:1928   */\n      0x20\n        /* \"#utility.yul\":1915:1924   */\n      dup6\n        /* \"#utility.yul\":1911:1929   */\n      add\n        /* \"#utility.yul\":1892:1930   */\n      tag_356\n      jump\t// in\n    tag_375:\n        /* \"#utility.yul\":1659:2033   */\n      swap3\n      swap6\n        /* \"#utility.yul\":1882:1930   */\n      swap3\n      swap5\n      pop\n      pop\n      pop\n        /* \"#utility.yul\":1999:2001   */\n      0x40\n        /* \"#utility.yul\":1984:2002   */\n      swap2\n      swap1\n      swap2\n      add\n        /* \"#utility.yul\":1971:2003   */\n      calldataload\n      swap1\n        /* \"#utility.yul\":1659:2033   */\n      jump\t// out\n        /* \"#utility.yul\":2038:2224   */\n    tag_61:\n        /* \"#utility.yul\":2097:2103   */\n      0x00\n        /* \"#utility.yul\":2150:2152   */\n      0x20\n        /* \"#utility.yul\":2138:2147   */\n      dup3\n        /* \"#utility.yul\":2129:2136   */\n      dup5\n        /* \"#utility.yul\":2125:2148   */\n      sub\n        /* \"#utility.yul\":2121:2153   */\n      slt\n        /* \"#utility.yul\":2118:2170   */\n      iszero\n      tag_377\n      jumpi\n        /* \"#utility.yul\":2166:2167   */\n      0x00\n        /* \"#utility.yul\":2163:2164   */\n      0x00\n        /* \"#utility.yul\":2156:2168   */\n      revert\n        /* \"#utility.yul\":2118:2170   */\n    tag_377:\n        /* \"#utility.yul\":2189:2218   */\n      tag_157\n        /* \"#utility.yul\":2208:2217   */\n      dup3\n        /* \"#utility.yul\":2189:2218   */\n      tag_356\n      jump\t// in\n        /* \"#utility.yul\":2229:2576   */\n    tag_69:\n        /* \"#utility.yul\":2294:2300   */\n      0x00\n        /* \"#utility.yul\":2302:2308   */\n      0x00\n        /* \"#utility.yul\":2355:2357   */\n      0x40\n        /* \"#utility.yul\":2343:2352   */\n      dup4\n        /* \"#utility.yul\":2334:2341   */\n      dup6\n        /* \"#utility.yul\":2330:2353   */\n      sub\n        /* \"#utility.yul\":2326:2358   */\n      slt\n        /* \"#utility.yul\":2323:2375   */\n      iszero\n      tag_380\n      jumpi\n        /* \"#utility.yul\":2371:2372   */\n      0x00\n        /* \"#utility.yul\":2368:2369   */\n      0x00\n        /* \"#utility.yul\":2361:2373   */\n      revert\n        /* \"#utility.yul\":2323:2375   */\n    tag_380:\n        /* \"#utility.yul\":2394:2423   */\n      tag_381\n        /* \"#utility.yul\":2413:2422   */\n      dup4\n        /* \"#utility.yul\":2394:2423   */\n      tag_356\n      jump\t// in\n    tag_381:\n        /* \"#utility.yul\":2384:2423   */\n      swap2\n      pop\n        /* \"#utility.yul\":2473:2475   */\n      0x20\n        /* \"#utility.yul\":2462:2471   */\n      dup4\n        /* \"#utility.yul\":2458:2476   */\n      add\n        /* \"#utility.yul\":2445:2477   */\n      calldataload\n        /* \"#utility.yul\":2520:2525   */\n      dup1\n        /* \"#utility.yul\":2513:2526   */\n      iszero\n        /* \"#utility.yul\":2506:2527   */\n      iszero\n        /* \"#utility.yul\":2499:2504   */\n      dup2\n        /* \"#utility.yul\":2496:2528   */\n      eq\n        /* \"#utility.yul\":2486:2546   */\n      tag_382\n      jumpi\n        /* \"#utility.yul\":2542:2543   */\n      0x00\n        /* \"#utility.yul\":2539:2540   */\n      0x00\n        /* \"#utility.yul\":2532:2544   */\n      revert\n        /* \"#utility.yul\":2486:2546   */\n    tag_382:\n        /* \"#utility.yul\":2565:2570   */\n      dup1\n        /* \"#utility.yul\":2555:2570   */\n      swap2\n      pop\n      pop\n        /* \"#utility.yul\":2229:2576   */\n      swap3\n      pop\n      swap3\n      swap1\n      pop\n      jump\t// out\n        /* \"#utility.yul\":2581:2708   */\n    tag_242:\n        /* \"#utility.yul\":2642:2652   */\n      0x4e487b71\n        /* \"#utility.yul\":2637:2640   */\n      0xe0\n        /* \"#utility.yul\":2633:2653   */\n      shl\n        /* \"#utility.yul\":2630:2631   */\n      0x00\n        /* \"#utility.yul\":2623:2654   */\n      mstore\n        /* \"#utility.yul\":2673:2677   */\n      0x41\n        /* \"#utility.yul\":2670:2671   */\n      0x04\n        /* \"#utility.yul\":2663:2678   */\n      mstore\n        /* \"#utility.yul\":2697:2701   */\n      0x24\n        /* \"#utility.yul\":2694:2695   */\n      0x00\n        /* \"#utility.yul\":2687:2702   */\n      revert\n        /* \"#utility.yul\":2713:3920   */\n    tag_73:\n        /* \"#utility.yul\":2808:2814   */\n      0x00\n        /* \"#utility.yul\":2816:2822   */\n      0x00\n        /* \"#utility.yul\":2824:2830   */\n      0x00\n        /* \"#utility.yul\":2832:2838   */\n      0x00\n        /* \"#utility.yul\":2885:2888   */\n      0x80\n        /* \"#utility.yul\":2873:2882   */\n      dup6\n        /* \"#utility.yul\":2864:2871   */\n      dup8\n        /* \"#utility.yul\":2860:2883   */\n      sub\n        /* \"#utility.yul\":2856:2889   */\n      slt\n        /* \"#utility.yul\":2853:2906   */\n      iszero\n      tag_385\n      jumpi\n        /* \"#utility.yul\":2902:2903   */\n      0x00\n        /* \"#utility.yul\":2899:2900   */\n      0x00\n        /* \"#utility.yul\":2892:2904   */\n      revert\n        /* \"#utility.yul\":2853:2906   */\n    tag_385:\n        /* \"#utility.yul\":2925:2954   */\n      tag_386\n        /* \"#utility.yul\":2944:2953   */\n      dup6\n        /* \"#utility.yul\":2925:2954   */\n      tag_356\n      jump\t// in\n    tag_386:\n        /* \"#utility.yul\":2915:2954   */\n      swap4\n      pop\n        /* \"#utility.yul\":2973:3011   */\n      tag_387\n        /* \"#utility.yul\":3007:3009   */\n      0x20\n        /* \"#utility.yul\":2996:3005   */\n      dup7\n        /* \"#utility.yul\":2992:3010   */\n      add\n        /* \"#utility.yul\":2973:3011   */\n      tag_356\n      jump\t// in\n    tag_387:\n        /* \"#utility.yul\":2963:3011   */\n      swap3\n      pop\n        /* \"#utility.yul\":3080:3082   */\n      0x40\n        /* \"#utility.yul\":3065:3083   */\n      dup6\n      add\n        /* \"#utility.yul\":3052:3084   */\n      calldataload\n      swap2\n      pop\n        /* \"#utility.yul\":3159:3161   */\n      0x60\n        /* \"#utility.yul\":3144:3162   */\n      dup6\n      add\n        /* \"#utility.yul\":3131:3163   */\n      calldataload\n        /* \"#utility.yul\":3186:3204   */\n      0xffffffffffffffff\n        /* \"#utility.yul\":3175:3205   */\n      dup2\n      gt\n        /* \"#utility.yul\":3172:3222   */\n      iszero\n      tag_388\n      jumpi\n        /* \"#utility.yul\":3218:3219   */\n      0x00\n        /* \"#utility.yul\":3215:3216   */\n      0x00\n        /* \"#utility.yul\":3208:3220   */\n      revert\n        /* \"#utility.yul\":3172:3222   */\n    tag_388:\n        /* \"#utility.yul\":3241:3263   */\n      dup6\n      add\n        /* \"#utility.yul\":3294:3298   */\n      0x1f\n        /* \"#utility.yul\":3286:3299   */\n      dup2\n      add\n        /* \"#utility.yul\":3282:3309   */\n      dup8\n      sgt\n        /* \"#utility.yul\":3272:3327   */\n      tag_389\n      jumpi\n        /* \"#utility.yul\":3323:3324   */\n      0x00\n        /* \"#utility.yul\":3320:3321   */\n      0x00\n        /* \"#utility.yul\":3313:3325   */\n      revert\n        /* \"#utility.yul\":3272:3327   */\n    tag_389:\n        /* \"#utility.yul\":3363:3365   */\n      dup1\n        /* \"#utility.yul\":3350:3366   */\n      calldataload\n        /* \"#utility.yul\":3389:3407   */\n      0xffffffffffffffff\n        /* \"#utility.yul\":3381:3387   */\n      dup2\n        /* \"#utility.yul\":3378:3408   */\n      gt\n        /* \"#utility.yul\":3375:3431   */\n      iszero\n      tag_391\n      jumpi\n        /* \"#utility.yul\":3411:3429   */\n      tag_391\n      tag_242\n      jump\t// in\n    tag_391:\n        /* \"#utility.yul\":3460:3462   */\n      0x40\n        /* \"#utility.yul\":3454:3463   */\n      mload\n        /* \"#utility.yul\":3552:3554   */\n      0x1f\n        /* \"#utility.yul\":3514:3531   */\n      dup3\n      add\n      not(0x1f)\n        /* \"#utility.yul\":3510:3541   */\n      swap1\n      dup2\n      and\n        /* \"#utility.yul\":3543:3545   */\n      0x3f\n        /* \"#utility.yul\":3506:3546   */\n      add\n        /* \"#utility.yul\":3502:3556   */\n      and\n        /* \"#utility.yul\":3490:3557   */\n      dup2\n      add\n        /* \"#utility.yul\":3587:3605   */\n      0xffffffffffffffff\n        /* \"#utility.yul\":3572:3606   */\n      dup2\n      gt\n        /* \"#utility.yul\":3608:3630   */\n      dup3\n      dup3\n      lt\n        /* \"#utility.yul\":3569:3631   */\n      or\n        /* \"#utility.yul\":3566:3654   */\n      iszero\n      tag_393\n      jumpi\n        /* \"#utility.yul\":3634:3652   */\n      tag_393\n      tag_242\n      jump\t// in\n    tag_393:\n        /* \"#utility.yul\":3670:3672   */\n      0x40\n        /* \"#utility.yul\":3663:3685   */\n      mstore\n        /* \"#utility.yul\":3694:3716   */\n      dup2\n      dup2\n      mstore\n        /* \"#utility.yul\":3735:3750   */\n      dup3\n      dup3\n      add\n        /* \"#utility.yul\":3752:3754   */\n      0x20\n        /* \"#utility.yul\":3731:3755   */\n      add\n        /* \"#utility.yul\":3728:3765   */\n      dup10\n      lt\n        /* \"#utility.yul\":3725:3782   */\n      iszero\n      tag_394\n      jumpi\n        /* \"#utility.yul\":3778:3779   */\n      0x00\n        /* \"#utility.yul\":3775:3776   */\n      0x00\n        /* \"#utility.yul\":3768:3780   */\n      revert\n        /* \"#utility.yul\":3725:3782   */\n    tag_394:\n        /* \"#utility.yul\":3834:3840   */\n      dup2\n        /* \"#utility.yul\":3829:3831   */\n      0x20\n        /* \"#utility.yul\":3825:3827   */\n      dup5\n        /* \"#utility.yul\":3821:3832   */\n      add\n        /* \"#utility.yul\":3816:3818   */\n      0x20\n        /* \"#utility.yul\":3808:3814   */\n      dup4\n        /* \"#utility.yul\":3804:3819   */\n      add\n        /* \"#utility.yul\":3791:3841   */\n      calldatacopy\n        /* \"#utility.yul\":3887:3888   */\n      0x00\n        /* \"#utility.yul\":3882:3884   */\n      0x20\n        /* \"#utility.yul\":3873:3879   */\n      dup4\n        /* \"#utility.yul\":3865:3871   */\n      dup4\n        /* \"#utility.yul\":3861:3880   */\n      add\n        /* \"#utility.yul\":3857:3885   */\n      add\n        /* \"#utility.yul\":3850:3889   */\n      mstore\n        /* \"#utility.yul\":3908:3914   */\n      dup1\n        /* \"#utility.yul\":3898:3914   */\n      swap4\n      pop\n      pop\n      pop\n      pop\n        /* \"#utility.yul\":2713:3920   */\n      swap3\n      swap6\n      swap2\n      swap5\n      pop\n      swap3\n      pop\n      jump\t// out\n        /* \"#utility.yul\":3925:4185   */\n    tag_84:\n        /* \"#utility.yul\":3993:3999   */\n      0x00\n        /* \"#utility.yul\":4001:4007   */\n      0x00\n        /* \"#utility.yul\":4054:4056   */\n      0x40\n        /* \"#utility.yul\":4042:4051   */\n      dup4\n        /* \"#utility.yul\":4033:4040   */\n      dup6\n        /* \"#utility.yul\":4029:4052   */\n      sub\n        /* \"#utility.yul\":4025:4057   */\n      slt\n        /* \"#utility.yul\":4022:4074   */\n      iszero\n      tag_396\n      jumpi\n        /* \"#utility.yul\":4070:4071   */\n      0x00\n        /* \"#utility.yul\":4067:4068   */\n      0x00\n        /* \"#utility.yul\":4060:4072   */\n      revert\n        /* \"#utility.yul\":4022:4074   */\n    tag_396:\n        /* \"#utility.yul\":4093:4122   */\n      tag_397\n        /* \"#utility.yul\":4112:4121   */\n      dup4\n        /* \"#utility.yul\":4093:4122   */\n      tag_356\n      jump\t// in\n    tag_397:\n        /* \"#utility.yul\":4083:4122   */\n      swap2\n      pop\n        /* \"#utility.yul\":4141:4179   */\n      tag_398\n        /* \"#utility.yul\":4175:4177   */\n      0x20\n        /* \"#utility.yul\":4164:4173   */\n      dup5\n        /* \"#utility.yul\":4160:4178   */\n      add\n        /* \"#utility.yul\":4141:4179   */\n      tag_356\n      jump\t// in\n    tag_398:\n        /* \"#utility.yul\":4131:4179   */\n      swap1\n      pop\n        /* \"#utility.yul\":3925:4185   */\n      swap3\n      pop\n      swap3\n      swap1\n      pop\n      jump\t// out\n        /* \"#utility.yul\":4382:4762   */\n    tag_92:\n        /* \"#utility.yul\":4461:4462   */\n      0x01\n        /* \"#utility.yul\":4457:4469   */\n      dup2\n      dup2\n      shr\n      swap1\n        /* \"#utility.yul\":4504:4516   */\n      dup3\n      and\n      dup1\n        /* \"#utility.yul\":4525:4586   */\n      tag_401\n      jumpi\n        /* \"#utility.yul\":4579:4583   */\n      0x7f\n        /* \"#utility.yul\":4571:4577   */\n      dup3\n        /* \"#utility.yul\":4567:4584   */\n      and\n        /* \"#utility.yul\":4557:4584   */\n      swap2\n      pop\n        /* \"#utility.yul\":4525:4586   */\n    tag_401:\n        /* \"#utility.yul\":4632:4634   */\n      0x20\n        /* \"#utility.yul\":4624:4630   */\n      dup3\n        /* \"#utility.yul\":4621:4635   */\n      lt\n        /* \"#utility.yul\":4601:4619   */\n      dup2\n        /* \"#utility.yul\":4598:4636   */\n      sub\n        /* \"#utility.yul\":4595:4756   */\n      tag_402\n      jumpi\n        /* \"#utility.yul\":4678:4688   */\n      0x4e487b71\n        /* \"#utility.yul\":4673:4676   */\n      0xe0\n        /* \"#utility.yul\":4669:4689   */\n      shl\n        /* \"#utility.yul\":4666:4667   */\n      0x00\n        /* \"#utility.yul\":4659:4690   */\n      mstore\n        /* \"#utility.yul\":4713:4717   */\n      0x22\n        /* \"#utility.yul\":4710:4711   */\n      0x04\n        /* \"#utility.yul\":4703:4718   */\n      mstore\n        /* \"#utility.yul\":4741:4745   */\n      0x24\n        /* \"#utility.yul\":4738:4739   */\n      0x00\n        /* \"#utility.yul\":4731:4746   */\n      revert\n        /* \"#utility.yul\":4595:4756   */\n    tag_402:\n      pop\n        /* \"#utility.yul\":4382:4762   */\n      swap2\n      swap1\n      pop\n      jump\t// out\n        /* \"#utility.yul\":5422:5549   */\n    tag_130:\n        /* \"#utility.yul\":5483:5493   */\n      0x4e487b71\n        /* \"#utility.yul\":5478:5481   */\n      0xe0\n        /* \"#utility.yul\":5474:5494   */\n      shl\n        /* \"#utility.yul\":5471:5472   */\n      0x00\n        /* \"#utility.yul\":5464:5495   */\n      mstore\n        /* \"#utility.yul\":5514:5518   */\n      0x32\n        /* \"#utility.yul\":5511:5512   */\n      0x04\n        /* \"#utility.yul\":5504:5519   */\n      mstore\n        /* \"#utility.yul\":5538:5542   */\n      0x24\n        /* \"#utility.yul\":5535:5536   */\n      0x00\n        /* \"#utility.yul\":5528:5543   */\n      revert\n        /* \"#utility.yul\":5554:5766   */\n    tag_357:\n        /* \"#utility.yul\":5596:5599   */\n      0x00\n        /* \"#utility.yul\":5634:5639   */\n      dup2\n        /* \"#utility.yul\":5628:5640   */\n      mload\n        /* \"#utility.yul\":5678:5684   */\n      dup1\n        /* \"#utility.yul\":5671:5675   */\n      0x20\n        /* \"#utility.yul\":5664:5669   */\n      dup5\n        /* \"#utility.yul\":5660:5676   */\n      add\n        /* \"#utility.yul\":5655:5658   */\n      dup6\n        /* \"#utility.yul\":5649:5685   */\n      mcopy\n        /* \"#utility.yul\":5740:5741   */\n      0x00\n        /* \"#utility.yul\":5704:5720   */\n      swap4\n      add\n        /* \"#utility.yul\":5729:5742   */\n      swap3\n      dup4\n      mstore\n      pop\n        /* \"#utility.yul\":5704:5720   */\n      swap1\n      swap2\n        /* \"#utility.yul\":5554:5766   */\n      swap1\n      pop\n      jump\t// out\n        /* \"#utility.yul\":5771:6194   */\n    tag_161:\n        /* \"#utility.yul\":6040:6043   */\n      0x00\n        /* \"#utility.yul\":6071:6128   */\n      tag_408\n        /* \"#utility.yul\":6097:6127   */\n      tag_409\n        /* \"#utility.yul\":6123:6126   */\n      dup4\n        /* \"#utility.yul\":6115:6121   */\n      dup7\n        /* \"#utility.yul\":6097:6127   */\n      tag_357\n      jump\t// in\n    tag_409:\n        /* \"#utility.yul\":6089:6095   */\n      dup5\n        /* \"#utility.yul\":6071:6128   */\n      tag_357\n      jump\t// in\n    tag_408:\n      shl(0xd9, 0x173539b7b7)\n        /* \"#utility.yul\":6137:6159   */\n      dup2\n      mstore\n        /* \"#utility.yul\":6186:6187   */\n      0x05\n        /* \"#utility.yul\":6175:6188   */\n      add\n      swap5\n        /* \"#utility.yul\":5771:6194   */\n      swap4\n      pop\n      pop\n      pop\n      pop\n      jump\t// out\n        /* \"#utility.yul\":6199:7249   */\n    tag_170:\n      shl(0xb9, 0x3d913730b6b2911d11)\n        /* \"#utility.yul\":6846:6889   */\n      dup2\n      mstore\n        /* \"#utility.yul\":6828:6831   */\n      0x00\n        /* \"#utility.yul\":6908:6946   */\n      tag_411\n        /* \"#utility.yul\":6943:6944   */\n      0x09\n        /* \"#utility.yul\":6934:6945   */\n      dup4\n      add\n        /* \"#utility.yul\":6926:6932   */\n      dup7\n        /* \"#utility.yul\":6908:6946   */\n      tag_357\n      jump\t// in\n    tag_411:\n      shl(0x79, 0x1116113232b9b1b934b83a34b7b7111d11)\n        /* \"#utility.yul\":6955:7013   */\n      dup2\n      mstore\n        /* \"#utility.yul\":7032:7070   */\n      tag_412\n        /* \"#utility.yul\":7066:7068   */\n      0x11\n        /* \"#utility.yul\":7058:7069   */\n      dup3\n      add\n        /* \"#utility.yul\":7050:7056   */\n      dup7\n        /* \"#utility.yul\":7032:7070   */\n      tag_357\n      jump\t// in\n    tag_412:\n      shl(0xa9, 0x11161134b6b0b3b2911d11)\n        /* \"#utility.yul\":7079:7125   */\n      dup2\n      mstore\n        /* \"#utility.yul\":7022:7070   */\n      swap1\n      pop\n        /* \"#utility.yul\":7144:7182   */\n      tag_413\n        /* \"#utility.yul\":7178:7180   */\n      0x0b\n        /* \"#utility.yul\":7170:7181   */\n      dup3\n      add\n        /* \"#utility.yul\":7162:7168   */\n      dup6\n        /* \"#utility.yul\":7144:7182   */\n      tag_357\n      jump\t// in\n    tag_413:\n      shl(0xf0, 0x227d)\n        /* \"#utility.yul\":7191:7217   */\n      dup2\n      mstore\n        /* \"#utility.yul\":7241:7242   */\n      0x02\n        /* \"#utility.yul\":7233:7243   */\n      add\n      swap7\n        /* \"#utility.yul\":6199:7249   */\n      swap6\n      pop\n      pop\n      pop\n      pop\n      pop\n      pop\n      jump\t// out\n        /* \"#utility.yul\":7254:7609   */\n    tag_173:\n        /* \"#utility.yul\":7516:7547   */\n      0x646174613a6170706c69636174696f6e2f6a736f6e3b6261736536342c000000\n        /* \"#utility.yul\":7511:7514   */\n      dup2\n        /* \"#utility.yul\":7504:7548   */\n      mstore\n        /* \"#utility.yul\":7486:7489   */\n      0x00\n        /* \"#utility.yul\":7564:7603   */\n      tag_157\n        /* \"#utility.yul\":7599:7601   */\n      0x1d\n        /* \"#utility.yul\":7594:7597   */\n      dup4\n        /* \"#utility.yul\":7590:7602   */\n      add\n        /* \"#utility.yul\":7582:7588   */\n      dup5\n        /* \"#utility.yul\":7564:7603   */\n      tag_357\n      jump\t// in\n        /* \"#utility.yul\":7614:8110   */\n    tag_220:\n      sub(shl(0xa0, 0x01), 0x01)\n        /* \"#utility.yul\":7845:7877   */\n      dup6\n      dup2\n      and\n        /* \"#utility.yul\":7827:7878   */\n      dup3\n      mstore\n        /* \"#utility.yul\":7914:7946   */\n      dup5\n      and\n        /* \"#utility.yul\":7909:7911   */\n      0x20\n        /* \"#utility.yul\":7894:7912   */\n      dup3\n      add\n        /* \"#utility.yul\":7887:7947   */\n      mstore\n        /* \"#utility.yul\":7978:7980   */\n      0x40\n        /* \"#utility.yul\":7963:7981   */\n      dup2\n      add\n        /* \"#utility.yul\":7956:7990   */\n      dup4\n      swap1\n      mstore\n        /* \"#utility.yul\":8026:8029   */\n      0x80\n        /* \"#utility.yul\":8021:8023   */\n      0x60\n        /* \"#utility.yul\":8006:8024   */\n      dup3\n      add\n        /* \"#utility.yul\":7999:8030   */\n      dup2\n      swap1\n      mstore\n      0x00\n      swap1\n        /* \"#utility.yul\":8047:8104   */\n      tag_417\n      swap1\n        /* \"#utility.yul\":8084:8103   */\n      dup4\n      add\n        /* \"#utility.yul\":8076:8082   */\n      dup5\n        /* \"#utility.yul\":8047:8104   */\n      tag_355\n      jump\t// in\n    tag_417:\n        /* \"#utility.yul\":8039:8104   */\n      swap7\n        /* \"#utility.yul\":7614:8110   */\n      swap6\n      pop\n      pop\n      pop\n      pop\n      pop\n      pop\n      jump\t// out\n        /* \"#utility.yul\":8115:8405   */\n    tag_223:\n        /* \"#utility.yul\":8184:8190   */\n      0x00\n        /* \"#utility.yul\":8237:8239   */\n      0x20\n        /* \"#utility.yul\":8225:8234   */\n      dup3\n        /* \"#utility.yul\":8216:8223   */\n      dup5\n        /* \"#utility.yul\":8212:8235   */\n      sub\n        /* \"#utility.yul\":8208:8240   */\n      slt\n        /* \"#utility.yul\":8205:8257   */\n      iszero\n      tag_419\n      jumpi\n        /* \"#utility.yul\":8253:8254   */\n      0x00\n        /* \"#utility.yul\":8250:8251   */\n      0x00\n        /* \"#utility.yul\":8243:8255   */\n      revert\n        /* \"#utility.yul\":8205:8257   */\n    tag_419:\n        /* \"#utility.yul\":8279:8295   */\n      dup2\n      mload\n      not(sub(shl(0xe0, 0x01), 0x01))\n        /* \"#utility.yul\":8324:8356   */\n      dup2\n      and\n        /* \"#utility.yul\":8314:8357   */\n      dup2\n      eq\n        /* \"#utility.yul\":8304:8375   */\n      tag_157\n      jumpi\n        /* \"#utility.yul\":8371:8372   */\n      0x00\n        /* \"#utility.yul\":8368:8369   */\n      0x00\n        /* \"#utility.yul\":8361:8373   */\n      revert\n        /* \"#utility.yul\":8542:8669   */\n    tag_358:\n        /* \"#utility.yul\":8603:8613   */\n      0x4e487b71\n        /* \"#utility.yul\":8598:8601   */\n      0xe0\n        /* \"#utility.yul\":8594:8614   */\n      shl\n        /* \"#utility.yul\":8591:8592   */\n      0x00\n        /* \"#utility.yul\":8584:8615   */\n      mstore\n        /* \"#utility.yul\":8634:8638   */\n      0x11\n        /* \"#utility.yul\":8631:8632   */\n      0x04\n        /* \"#utility.yul\":8624:8639   */\n      mstore\n        /* \"#utility.yul\":8658:8662   */\n      0x24\n        /* \"#utility.yul\":8655:8656   */\n      0x00\n        /* \"#utility.yul\":8648:8663   */\n      revert\n        /* \"#utility.yul\":8674:8799   */\n    tag_255:\n        /* \"#utility.yul\":8739:8748   */\n      dup1\n      dup3\n      add\n        /* \"#utility.yul\":8760:8770   */\n      dup1\n      dup3\n      gt\n        /* \"#utility.yul\":8757:8793   */\n      iszero\n      tag_100\n      jumpi\n        /* \"#utility.yul\":8773:8791   */\n      tag_100\n      tag_358\n      jump\t// in\n        /* \"#utility.yul\":8804:9021   */\n    tag_257:\n        /* \"#utility.yul\":8844:8845   */\n      0x00\n        /* \"#utility.yul\":8870:8871   */\n      dup3\n        /* \"#utility.yul\":8860:8992   */\n      tag_427\n      jumpi\n        /* \"#utility.yul\":8914:8924   */\n      0x4e487b71\n        /* \"#utility.yul\":8909:8912   */\n      0xe0\n        /* \"#utility.yul\":8905:8925   */\n      shl\n        /* \"#utility.yul\":8902:8903   */\n      0x00\n        /* \"#utility.yul\":8895:8926   */\n      mstore\n        /* \"#utility.yul\":8949:8953   */\n      0x12\n        /* \"#utility.yul\":8946:8947   */\n      0x04\n        /* \"#utility.yul\":8939:8954   */\n      mstore\n        /* \"#utility.yul\":8977:8981   */\n      0x24\n        /* \"#utility.yul\":8974:8975   */\n      0x00\n        /* \"#utility.yul\":8967:8982   */\n      revert\n        /* \"#utility.yul\":8860:8992   */\n    tag_427:\n      pop\n        /* \"#utility.yul\":9006:9015   */\n      div\n      swap1\n        /* \"#utility.yul\":8804:9021   */\n      jump\t// out\n        /* \"#utility.yul\":9026:9194   */\n    tag_259:\n        /* \"#utility.yul\":9099:9108   */\n      dup1\n      dup3\n      mul\n        /* \"#utility.yul\":9130:9139   */\n      dup2\n      iszero\n        /* \"#utility.yul\":9147:9162   */\n      dup3\n      dup3\n      div\n        /* \"#utility.yul\":9141:9163   */\n      dup5\n      eq\n        /* \"#utility.yul\":9127:9164   */\n      or\n        /* \"#utility.yul\":9117:9188   */\n      tag_100\n      jumpi\n        /* \"#utility.yul\":9168:9186   */\n      tag_100\n      tag_358\n      jump\t// in\n        /* \"#utility.yul\":9199:9327   */\n    tag_307:\n        /* \"#utility.yul\":9266:9275   */\n      dup2\n      dup2\n      sub\n        /* \"#utility.yul\":9287:9298   */\n      dup2\n      dup2\n      gt\n        /* \"#utility.yul\":9284:9321   */\n      iszero\n      tag_100\n      jumpi\n        /* \"#utility.yul\":9301:9319   */\n      tag_100\n      tag_358\n      jump\t// in\n        /* \"#utility.yul\":9332:9459   */\n    tag_322:\n        /* \"#utility.yul\":9393:9403   */\n      0x4e487b71\n        /* \"#utility.yul\":9388:9391   */\n      0xe0\n        /* \"#utility.yul\":9384:9404   */\n      shl\n        /* \"#utility.yul\":9381:9382   */\n      0x00\n        /* \"#utility.yul\":9374:9405   */\n      mstore\n        /* \"#utility.yul\":9424:9428   */\n      0x31\n        /* \"#utility.yul\":9421:9422   */\n      0x04\n        /* \"#utility.yul\":9414:9429   */\n      mstore\n        /* \"#utility.yul\":9448:9452   */\n      0x24\n        /* \"#utility.yul\":9445:9446   */\n      0x00\n        /* \"#utility.yul\":9438:9453   */\n      revert\n    stop\n    data_181e845e6c0eb8c054a077e1938a77f4971788cb2d26cf8484daf453967e5fbd 5468697320697320636f6e7472616374206465736372697074696f6e2e4465706f6c796564206279206a757374776569277320455243373231204469616d6f6e6420696d706c656d656e746174696f6e2e\n    data_585614bb91ad8ba7a82ca696a2a8c1013b91b1a829f17f122d730fe2aca1b7b6 697066733a2f2f516d636967396548385857455a5a7546395a47514437674141484d446a373973543875643738375067443537754e\n    data_84d8a590de33e00cbdc16e1f28c3506f5ec15c599fab9a6a4bcd575cc2f110ce 4142434445464748494a4b4c4d4e4f505152535455565758595a6162636465666768696a6b6c6d6e6f707172737475767778797a303132333435363738392b2f\n\n    auxdata: 0xa2646970667358221220bb3bbb00633feec7a66a2814ddfa954d94e7d141b2c1dfd4782ec799c68541b464736f6c634300081b0033\n}\n",
				"bytecode": {
					"linkReferences": {},
					"object": "6080604052348015600e575f5ffd5b506117e88061001c5f395ff3fe608060405234801561000f575f5ffd5b50600436106100fb575f3560e01c80636352211e11610093578063b88d4fde11610063578063b88d4fde14610200578063c87b56dd14610213578063e8a3d48514610226578063e985e9c51461022e575f5ffd5b80636352211e146101bf57806370a08231146101d257806395d89b41146101e5578063a22cb465146101ed575f5ffd5b806323b872dd116100ce57806323b872dd146101735780632f745c591461018657806342842e0e146101995780634f6ccce7146101ac575f5ffd5b806306fdde03146100ff578063081812fc1461011d578063095ea7b31461014857806318160ddd1461015d575b5f5ffd5b610107610251565b60405161011491906112b7565b60405180910390f35b61013061012b3660046112c9565b6102e7565b6040516001600160a01b039091168152602001610114565b61015b6101563660046112fb565b610301565b005b610165610310565b604051908152602001610114565b61015b610181366004611323565b610322565b6101656101943660046112fb565b6103b0565b61015b6101a7366004611323565b61041f565b6101656101ba3660046112c9565b61043e565b6101306101cd3660046112c9565b61049b565b6101656101e036600461135d565b6104a5565b610107610501565b61015b6101fb366004611376565b610519565b61015b61020e3660046113c3565b610524565b6101076102213660046112c9565b61053c565b6101076105c7565b61024161023c3660046114a0565b61062e565b6040519015158152602001610114565b606061025b610669565b8054610266906114d1565b80601f0160208091040260200160405190810160405280929190818152602001828054610292906114d1565b80156102dd5780601f106102b4576101008083540402835291602001916102dd565b820191905f5260205f20905b8154815290600101906020018083116102c057829003601f168201915b5050505050905090565b5f6102f18261068d565b506102fb826106c4565b92915050565b61030c8282336106e9565b5050565b5f610319610669565b60020154919050565b6001600160a01b03821661035057604051633250574960e11b81525f60048201526024015b60405180910390fd5b5f61035c8383336106f6565b9050836001600160a01b0316816001600160a01b0316146103aa576040516364283d7b60e01b81526001600160a01b0380861660048301526024820184905282166044820152606401610347565b50505050565b5f6103ba836104a5565b82106103eb5760405163295f44f760e21b81526001600160a01b038416600482015260248101839052604401610347565b6103f3610669565b6001600160a01b03939093165f9081526007909301602090815260408085209385529290525090205490565b61043983838360405180602001604052805f815250610524565b505050565b5f610447610310565b821061046f5760405163295f44f760e21b81525f600482015260248101839052604401610347565b610477610669565b600201828154811061048b5761048b611509565b905f5260205f2001549050919050565b5f6102fb8261068d565b5f6001600160a01b0382166104d8576040516322718ad960e21b81526001600160a01b0383166004820152602401610347565b6104e0610669565b6001600160a01b039092165f90815260049290920160205250604090205490565b606061050b610669565b6001018054610266906114d1565b61030c33838361088c565b61052f848484610322565b6103aa338585858561093c565b60606105478261068d565b505f610577604080518082019091526011815270697066733a2f2f736f6d657468696e672f60781b602082015290565b90505f8151116105955760405180602001604052805f8152506105c0565b8061059f84610a64565b6040516020016105b0929190611534565b6040516020818303038152906040525b9392505050565b606061060a6105d4610251565b6105dc610af4565b6105e4610b14565b6040516020016105f69392919061155e565b604051602081830303815290604052610b34565b60405160200161061a91906115d4565b604051602081830303815290604052905090565b5f610637610669565b6001600160a01b039384165f908152600691909101602090815260408083209490951682529290925250205460ff1690565b7ff2dec0acaef95de6625646379d631adff4db9f6c79b84a31adcb9a23bf6cea7890565b5f5f61069883610c8f565b90506001600160a01b0381166102fb57604051637e27328960e01b815260048101849052602401610347565b5f6106cd610669565b5f9283526005016020525060409020546001600160a01b031690565b6104398383836001610cb4565b5f5f61070184610c8f565b90506001600160a01b0383161561071d5761071d818486610def565b6001600160a01b03811615610766576107385f855f5f610cb4565b6001610742610669565b6001600160a01b0383165f9081526004919091016020526040902080549190910390555b6001600160a01b038516156107a257600161077f610669565b6001600160a01b0387165f90815260049190910160205260409020805490910190555b846107ab610669565b5f868152600391909101602052604080822080546001600160a01b0319166001600160a01b0394851617905551869288811692908516917fddf252ad1be2c89b69c2b068fc378daa952ba7f163c4a11628f55a4df523b3ef9190a46001600160a01b0381166108225761081d84610e53565b610845565b846001600160a01b0316816001600160a01b031614610845576108458185610e99565b6001600160a01b0385166108615761085c84610fb0565b610884565b846001600160a01b0316816001600160a01b03161461088457610884858561109f565b949350505050565b6001600160a01b0382166108be57604051630b61174360e31b81526001600160a01b0383166004820152602401610347565b806108c7610669565b6001600160a01b038581165f8181526006939093016020908152604080852093881680865293825293849020805460ff1916951515959095179094559151841515815290927f17307eab39ab6107e8899845ad3d59bd9653f200f220920489ca2b5937696c31910160405180910390a3505050565b6001600160a01b0383163b15610a5d57604051630a85bd0160e11b81526001600160a01b0384169063150b7a029061097e908890889087908790600401611605565b6020604051808303815f875af19250505080156109b8575060408051601f3d908101601f191682019092526109b591810190611641565b60015b610a1f573d8080156109e5576040519150601f19603f3d011682016040523d82523d5f602084013e6109ea565b606091505b5080515f03610a1757604051633250574960e11b81526001600160a01b0385166004820152602401610347565b805181602001fd5b6001600160e01b03198116630a85bd0160e11b14610a5b57604051633250574960e11b81526001600160a01b0385166004820152602401610347565b505b5050505050565b60605f610a7083611122565b60010190505f8167ffffffffffffffff811115610a8f57610a8f6113af565b6040519080825280601f01601f191660200182016040528015610ab9576020820181803683370190505b5090508181016020015b5f19016f181899199a1a9b1b9c1cb0b131b232b360811b600a86061a8153600a8504945084610ac357509392505050565b60606040518060800160405280605181526020016116ed60519139905090565b606060405180606001604052806035815260200161173e60359139905090565b606081515f03610b5157505060408051602081019091525f815290565b5f6040518060600160405280604081526020016117736040913990505f600384516002610b7e919061167c565b610b88919061168f565b610b939060046116ae565b67ffffffffffffffff811115610bab57610bab6113af565b6040519080825280601f01601f191660200182016040528015610bd5576020820181803683370190505b509050600182016020820185865187016020810180515f82525b82841015610c4a576003840193508351603f8160121c168701518653600186019550603f81600c1c168701518653600186019550603f8160061c168701518653600186019550603f8116870151865350600185019450610bef565b9052505085516003900660018114610c695760028114610c7c57610c84565b603d6001830353603d6002830353610c84565b603d60018303535b509195945050505050565b5f610c98610669565b5f9283526003016020525060409020546001600160a01b031690565b8080610cc857506001600160a01b03821615155b15610db4575f610cd78461068d565b90506001600160a01b03831615801590610d035750826001600160a01b0316816001600160a01b031614155b8015610d415750610d12610669565b6001600160a01b038083165f90815260069290920160209081526040808420928716845291905290205460ff16155b15610d6a5760405163a9fbf51f60e01b81526001600160a01b0384166004820152602401610347565b8115610db25783856001600160a01b0316826001600160a01b03167f8c5be1e5ebec7d5bd14f71427d1e84f3dd0314c0f7b2291e5b200ac8c7c3b92560405160405180910390a45b505b83610dbd610669565b5f948552600501602052604090932080546001600160a01b0319166001600160a01b0390941693909317909255505050565b610dfa8383836111f9565b610439576001600160a01b038316610e2857604051637e27328960e01b815260048101829052602401610347565b60405163177e802f60e01b81526001600160a01b038316600482015260248101829052604401610347565b610e5b610669565b60020154610e67610669565b5f8381526009919091016020526040902055610e81610669565b60020180546001810182555f91825260209091200155565b5f610ea2610669565b6001600160a01b0384165f90815260049190910160205260408120549150610ec8610669565b5f84815260089190910160205260409020549050818114610f5f575f610eec610669565b6001600160a01b0386165f90815260079190910160209081526040808320868452909152902054905080610f1e610669565b6001600160a01b0387165f9081526007919091016020908152604080832086845290915290205581610f4e610669565b5f9283526008016020526040909120555b610f67610669565b5f8481526008919091016020526040812055610f81610669565b6001600160a01b039094165f908152600794909401602090815260408086209386529290525082209190915550565b5f6001610fbb610669565b60020154610fc991906116c5565b90505f610fd4610669565b5f84815260099190910160205260408120549150610ff0610669565b600201838154811061100457611004611509565b905f5260205f200154905080611018610669565b600201838154811061102c5761102c611509565b5f9182526020909120015581611040610669565b5f838152600991909101602052604090205561105a610669565b5f8581526009919091016020526040812055611074610669565b600201805480611086576110866116d8565b600190038181905f5260205f20015f9055905550505050565b5f60016110aa610669565b6001600160a01b0385165f90815260049190910160205260409020546110d091906116c5565b9050816110db610669565b6001600160a01b0385165f908152600791909101602090815260408083208584529091529020558061110b610669565b5f9384526008016020526040909220919091555050565b5f8072184f03e93ff9f4daa797ed6e38ed64bf6a1f0160401b83106111605772184f03e93ff9f4daa797ed6e38ed64bf6a1f0160401b830492506040015b6d04ee2d6d415b85acef8100000000831061118c576d04ee2d6d415b85acef8100000000830492506020015b662386f26fc1000083106111aa57662386f26fc10000830492506010015b6305f5e10083106111c2576305f5e100830492506008015b61271083106111d657612710830492506004015b606483106111e8576064830492506002015b600a83106102fb5760010192915050565b5f6001600160a01b038316158015906108845750826001600160a01b0316846001600160a01b0316148061125e5750611230610669565b6001600160a01b038086165f90815260069290920160209081526040808420928716845291905290205460ff165b806108845750826001600160a01b0316611277836106c4565b6001600160a01b031614949350505050565b5f81518084528060208401602086015e5f602082860101526020601f19601f83011685010191505092915050565b602081525f6105c06020830184611289565b5f602082840312156112d9575f5ffd5b5035919050565b80356001600160a01b03811681146112f6575f5ffd5b919050565b5f5f6040838503121561130c575f5ffd5b611315836112e0565b946020939093013593505050565b5f5f5f60608486031215611335575f5ffd5b61133e846112e0565b925061134c602085016112e0565b929592945050506040919091013590565b5f6020828403121561136d575f5ffd5b6105c0826112e0565b5f5f60408385031215611387575f5ffd5b611390836112e0565b9150602083013580151581146113a4575f5ffd5b809150509250929050565b634e487b7160e01b5f52604160045260245ffd5b5f5f5f5f608085870312156113d6575f5ffd5b6113df856112e0565b93506113ed602086016112e0565b925060408501359150606085013567ffffffffffffffff81111561140f575f5ffd5b8501601f8101871361141f575f5ffd5b803567ffffffffffffffff811115611439576114396113af565b604051601f8201601f19908116603f0116810167ffffffffffffffff81118282101715611468576114686113af565b60405281815282820160200189101561147f575f5ffd5b816020840160208301375f6020838301015280935050505092959194509250565b5f5f604083850312156114b1575f5ffd5b6114ba836112e0565b91506114c8602084016112e0565b90509250929050565b600181811c908216806114e557607f821691505b60208210810361150357634e487b7160e01b5f52602260045260245ffd5b50919050565b634e487b7160e01b5f52603260045260245ffd5b5f81518060208401855e5f93019283525090919050565b5f611548611542838661151d565b8461151d565b64173539b7b760d91b8152600501949350505050565b683d913730b6b2911d1160b91b81525f61157b600983018661151d565b701116113232b9b1b934b83a34b7b7111d1160791b815261159f601182018661151d565b6a11161134b6b0b3b2911d1160a91b815290506115bf600b82018561151d565b61227d60f01b81526002019695505050505050565b7f646174613a6170706c69636174696f6e2f6a736f6e3b6261736536342c00000081525f6105c0601d83018461151d565b6001600160a01b03858116825284166020820152604081018390526080606082018190525f9061163790830184611289565b9695505050505050565b5f60208284031215611651575f5ffd5b81516001600160e01b0319811681146105c0575f5ffd5b634e487b7160e01b5f52601160045260245ffd5b808201808211156102fb576102fb611668565b5f826116a957634e487b7160e01b5f52601260045260245ffd5b500490565b80820281158282048414176102fb576102fb611668565b818103818111156102fb576102fb611668565b634e487b7160e01b5f52603160045260245ffdfe5468697320697320636f6e7472616374206465736372697074696f6e2e4465706f6c796564206279206a757374776569277320455243373231204469616d6f6e6420696d706c656d656e746174696f6e2e697066733a2f2f516d636967396548385857455a5a7546395a47514437674141484d446a373973543875643738375067443537754e4142434445464748494a4b4c4d4e4f505152535455565758595a6162636465666768696a6b6c6d6e6f707172737475767778797a303132333435363738392b2fa2646970667358221220bb3bbb00633feec7a66a2814ddfa954d94e7d141b2c1dfd4782ec799c68541b464736f6c634300081b0033",
					"opcodes": "PUSH1 0x80 PUSH1 0x40 MSTORE CALLVALUE DUP1 ISZERO PUSH1 0xE JUMPI PUSH0 PUSH0 REVERT JUMPDEST POP PUSH2 0x17E8 DUP1 PUSH2 0x1C PUSH0 CODECOPY PUSH0 RETURN INVALID PUSH1 0x80 PUSH1 0x40 MSTORE CALLVALUE DUP1 ISZERO PUSH2 0xF JUMPI PUSH0 PUSH0 REVERT JUMPDEST POP PUSH1 0x4 CALLDATASIZE LT PUSH2 0xFB JUMPI PUSH0 CALLDATALOAD PUSH1 0xE0 SHR DUP1 PUSH4 0x6352211E GT PUSH2 0x93 JUMPI DUP1 PUSH4 0xB88D4FDE GT PUSH2 0x63 JUMPI DUP1 PUSH4 0xB88D4FDE EQ PUSH2 0x200 JUMPI DUP1 PUSH4 0xC87B56DD EQ PUSH2 0x213 JUMPI DUP1 PUSH4 0xE8A3D485 EQ PUSH2 0x226 JUMPI DUP1 PUSH4 0xE985E9C5 EQ PUSH2 0x22E JUMPI PUSH0 PUSH0 REVERT JUMPDEST DUP1 PUSH4 0x6352211E EQ PUSH2 0x1BF JUMPI DUP1 PUSH4 0x70A08231 EQ PUSH2 0x1D2 JUMPI DUP1 PUSH4 0x95D89B41 EQ PUSH2 0x1E5 JUMPI DUP1 PUSH4 0xA22CB465 EQ PUSH2 0x1ED JUMPI PUSH0 PUSH0 REVERT JUMPDEST DUP1 PUSH4 0x23B872DD GT PUSH2 0xCE JUMPI DUP1 PUSH4 0x23B872DD EQ PUSH2 0x173 JUMPI DUP1 PUSH4 0x2F745C59 EQ PUSH2 0x186 JUMPI DUP1 PUSH4 0x42842E0E EQ PUSH2 0x199 JUMPI DUP1 PUSH4 0x4F6CCCE7 EQ PUSH2 0x1AC JUMPI PUSH0 PUSH0 REVERT JUMPDEST DUP1 PUSH4 0x6FDDE03 EQ PUSH2 0xFF JUMPI DUP1 PUSH4 0x81812FC EQ PUSH2 0x11D JUMPI DUP1 PUSH4 0x95EA7B3 EQ PUSH2 0x148 JUMPI DUP1 PUSH4 0x18160DDD EQ PUSH2 0x15D JUMPI JUMPDEST PUSH0 PUSH0 REVERT JUMPDEST PUSH2 0x107 PUSH2 0x251 JUMP JUMPDEST PUSH1 0x40 MLOAD PUSH2 0x114 SWAP2 SWAP1 PUSH2 0x12B7 JUMP JUMPDEST PUSH1 0x40 MLOAD DUP1 SWAP2 SUB SWAP1 RETURN JUMPDEST PUSH2 0x130 PUSH2 0x12B CALLDATASIZE PUSH1 0x4 PUSH2 0x12C9 JUMP JUMPDEST PUSH2 0x2E7 JUMP JUMPDEST PUSH1 0x40 MLOAD PUSH1 0x1 PUSH1 0x1 PUSH1 0xA0 SHL SUB SWAP1 SWAP2 AND DUP2 MSTORE PUSH1 0x20 ADD PUSH2 0x114 JUMP JUMPDEST PUSH2 0x15B PUSH2 0x156 CALLDATASIZE PUSH1 0x4 PUSH2 0x12FB JUMP JUMPDEST PUSH2 0x301 JUMP JUMPDEST STOP JUMPDEST PUSH2 0x165 PUSH2 0x310 JUMP JUMPDEST PUSH1 0x40 MLOAD SWAP1 DUP2 MSTORE PUSH1 0x20 ADD PUSH2 0x114 JUMP JUMPDEST PUSH2 0x15B PUSH2 0x181 CALLDATASIZE PUSH1 0x4 PUSH2 0x1323 JUMP JUMPDEST PUSH2 0x322 JUMP JUMPDEST PUSH2 0x165 PUSH2 0x194 CALLDATASIZE PUSH1 0x4 PUSH2 0x12FB JUMP JUMPDEST PUSH2 0x3B0 JUMP JUMPDEST PUSH2 0x15B PUSH2 0x1A7 CALLDATASIZE PUSH1 0x4 PUSH2 0x1323 JUMP JUMPDEST PUSH2 0x41F JUMP JUMPDEST PUSH2 0x165 PUSH2 0x1BA CALLDATASIZE PUSH1 0x4 PUSH2 0x12C9 JUMP JUMPDEST PUSH2 0x43E JUMP JUMPDEST PUSH2 0x130 PUSH2 0x1CD CALLDATASIZE PUSH1 0x4 PUSH2 0x12C9 JUMP JUMPDEST PUSH2 0x49B JUMP JUMPDEST PUSH2 0x165 PUSH2 0x1E0 CALLDATASIZE PUSH1 0x4 PUSH2 0x135D JUMP JUMPDEST PUSH2 0x4A5 JUMP JUMPDEST PUSH2 0x107 PUSH2 0x501 JUMP JUMPDEST PUSH2 0x15B PUSH2 0x1FB CALLDATASIZE PUSH1 0x4 PUSH2 0x1376 JUMP JUMPDEST PUSH2 0x519 JUMP JUMPDEST PUSH2 0x15B PUSH2 0x20E CALLDATASIZE PUSH1 0x4 PUSH2 0x13C3 JUMP JUMPDEST PUSH2 0x524 JUMP JUMPDEST PUSH2 0x107 PUSH2 0x221 CALLDATASIZE PUSH1 0x4 PUSH2 0x12C9 JUMP JUMPDEST PUSH2 0x53C JUMP JUMPDEST PUSH2 0x107 PUSH2 0x5C7 JUMP JUMPDEST PUSH2 0x241 PUSH2 0x23C CALLDATASIZE PUSH1 0x4 PUSH2 0x14A0 JUMP JUMPDEST PUSH2 0x62E JUMP JUMPDEST PUSH1 0x40 MLOAD SWAP1 ISZERO ISZERO DUP2 MSTORE PUSH1 0x20 ADD PUSH2 0x114 JUMP JUMPDEST PUSH1 0x60 PUSH2 0x25B PUSH2 0x669 JUMP JUMPDEST DUP1 SLOAD PUSH2 0x266 SWAP1 PUSH2 0x14D1 JUMP JUMPDEST DUP1 PUSH1 0x1F ADD PUSH1 0x20 DUP1 SWAP2 DIV MUL PUSH1 0x20 ADD PUSH1 0x40 MLOAD SWAP1 DUP2 ADD PUSH1 0x40 MSTORE DUP1 SWAP3 SWAP2 SWAP1 DUP2 DUP2 MSTORE PUSH1 0x20 ADD DUP3 DUP1 SLOAD PUSH2 0x292 SWAP1 PUSH2 0x14D1 JUMP JUMPDEST DUP1 ISZERO PUSH2 0x2DD JUMPI DUP1 PUSH1 0x1F LT PUSH2 0x2B4 JUMPI PUSH2 0x100 DUP1 DUP4 SLOAD DIV MUL DUP4 MSTORE SWAP2 PUSH1 0x20 ADD SWAP2 PUSH2 0x2DD JUMP JUMPDEST DUP3 ADD SWAP2 SWAP1 PUSH0 MSTORE PUSH1 0x20 PUSH0 KECCAK256 SWAP1 JUMPDEST DUP2 SLOAD DUP2 MSTORE SWAP1 PUSH1 0x1 ADD SWAP1 PUSH1 0x20 ADD DUP1 DUP4 GT PUSH2 0x2C0 JUMPI DUP3 SWAP1 SUB PUSH1 0x1F AND DUP3 ADD SWAP2 JUMPDEST POP POP POP POP POP SWAP1 POP SWAP1 JUMP JUMPDEST PUSH0 PUSH2 0x2F1 DUP3 PUSH2 0x68D JUMP JUMPDEST POP PUSH2 0x2FB DUP3 PUSH2 0x6C4 JUMP JUMPDEST SWAP3 SWAP2 POP POP JUMP JUMPDEST PUSH2 0x30C DUP3 DUP3 CALLER PUSH2 0x6E9 JUMP JUMPDEST POP POP JUMP JUMPDEST PUSH0 PUSH2 0x319 PUSH2 0x669 JUMP JUMPDEST PUSH1 0x2 ADD SLOAD SWAP2 SWAP1 POP JUMP JUMPDEST PUSH1 0x1 PUSH1 0x1 PUSH1 0xA0 SHL SUB DUP3 AND PUSH2 0x350 JUMPI PUSH1 0x40 MLOAD PUSH4 0x32505749 PUSH1 0xE1 SHL DUP2 MSTORE PUSH0 PUSH1 0x4 DUP3 ADD MSTORE PUSH1 0x24 ADD JUMPDEST PUSH1 0x40 MLOAD DUP1 SWAP2 SUB SWAP1 REVERT JUMPDEST PUSH0 PUSH2 0x35C DUP4 DUP4 CALLER PUSH2 0x6F6 JUMP JUMPDEST SWAP1 POP DUP4 PUSH1 0x1 PUSH1 0x1 PUSH1 0xA0 SHL SUB AND DUP2 PUSH1 0x1 PUSH1 0x1 PUSH1 0xA0 SHL SUB AND EQ PUSH2 0x3AA JUMPI PUSH1 0x40 MLOAD PUSH4 0x64283D7B PUSH1 0xE0 SHL DUP2 MSTORE PUSH1 0x1 PUSH1 0x1 PUSH1 0xA0 SHL SUB DUP1 DUP7 AND PUSH1 0x4 DUP4 ADD MSTORE PUSH1 0x24 DUP3 ADD DUP5 SWAP1 MSTORE DUP3 AND PUSH1 0x44 DUP3 ADD MSTORE PUSH1 0x64 ADD PUSH2 0x347 JUMP JUMPDEST POP POP POP POP JUMP JUMPDEST PUSH0 PUSH2 0x3BA DUP4 PUSH2 0x4A5 JUMP JUMPDEST DUP3 LT PUSH2 0x3EB JUMPI PUSH1 0x40 MLOAD PUSH4 0x295F44F7 PUSH1 0xE2 SHL DUP2 MSTORE PUSH1 0x1 PUSH1 0x1 PUSH1 0xA0 SHL SUB DUP5 AND PUSH1 0x4 DUP3 ADD MSTORE PUSH1 0x24 DUP2 ADD DUP4 SWAP1 MSTORE PUSH1 0x44 ADD PUSH2 0x347 JUMP JUMPDEST PUSH2 0x3F3 PUSH2 0x669 JUMP JUMPDEST PUSH1 0x1 PUSH1 0x1 PUSH1 0xA0 SHL SUB SWAP4 SWAP1 SWAP4 AND PUSH0 SWAP1 DUP2 MSTORE PUSH1 0x7 SWAP1 SWAP4 ADD PUSH1 0x20 SWAP1 DUP2 MSTORE PUSH1 0x40 DUP1 DUP6 KECCAK256 SWAP4 DUP6 MSTORE SWAP3 SWAP1 MSTORE POP SWAP1 KECCAK256 SLOAD SWAP1 JUMP JUMPDEST PUSH2 0x439 DUP4 DUP4 DUP4 PUSH1 0x40 MLOAD DUP1 PUSH1 0x20 ADD PUSH1 0x40 MSTORE DUP1 PUSH0 DUP2 MSTORE POP PUSH2 0x524 JUMP JUMPDEST POP POP POP JUMP JUMPDEST PUSH0 PUSH2 0x447 PUSH2 0x310 JUMP JUMPDEST DUP3 LT PUSH2 0x46F JUMPI PUSH1 0x40 MLOAD PUSH4 0x295F44F7 PUSH1 0xE2 SHL DUP2 MSTORE PUSH0 PUSH1 0x4 DUP3 ADD MSTORE PUSH1 0x24 DUP2 ADD DUP4 SWAP1 MSTORE PUSH1 0x44 ADD PUSH2 0x347 JUMP JUMPDEST PUSH2 0x477 PUSH2 0x669 JUMP JUMPDEST PUSH1 0x2 ADD DUP3 DUP2 SLOAD DUP2 LT PUSH2 0x48B JUMPI PUSH2 0x48B PUSH2 0x1509 JUMP JUMPDEST SWAP1 PUSH0 MSTORE PUSH1 0x20 PUSH0 KECCAK256 ADD SLOAD SWAP1 POP SWAP2 SWAP1 POP JUMP JUMPDEST PUSH0 PUSH2 0x2FB DUP3 PUSH2 0x68D JUMP JUMPDEST PUSH0 PUSH1 0x1 PUSH1 0x1 PUSH1 0xA0 SHL SUB DUP3 AND PUSH2 0x4D8 JUMPI PUSH1 0x40 MLOAD PUSH4 0x22718AD9 PUSH1 0xE2 SHL DUP2 MSTORE PUSH1 0x1 PUSH1 0x1 PUSH1 0xA0 SHL SUB DUP4 AND PUSH1 0x4 DUP3 ADD MSTORE PUSH1 0x24 ADD PUSH2 0x347 JUMP JUMPDEST PUSH2 0x4E0 PUSH2 0x669 JUMP JUMPDEST PUSH1 0x1 PUSH1 0x1 PUSH1 0xA0 SHL SUB SWAP1 SWAP3 AND PUSH0 SWAP1 DUP2 MSTORE PUSH1 0x4 SWAP3 SWAP1 SWAP3 ADD PUSH1 0x20 MSTORE POP PUSH1 0x40 SWAP1 KECCAK256 SLOAD SWAP1 JUMP JUMPDEST PUSH1 0x60 PUSH2 0x50B PUSH2 0x669 JUMP JUMPDEST PUSH1 0x1 ADD DUP1 SLOAD PUSH2 0x266 SWAP1 PUSH2 0x14D1 JUMP JUMPDEST PUSH2 0x30C CALLER DUP4 DUP4 PUSH2 0x88C JUMP JUMPDEST PUSH2 0x52F DUP5 DUP5 DUP5 PUSH2 0x322 JUMP JUMPDEST PUSH2 0x3AA CALLER DUP6 DUP6 DUP6 DUP6 PUSH2 0x93C JUMP JUMPDEST PUSH1 0x60 PUSH2 0x547 DUP3 PUSH2 0x68D JUMP JUMPDEST POP PUSH0 PUSH2 0x577 PUSH1 0x40 DUP1 MLOAD DUP1 DUP3 ADD SWAP1 SWAP2 MSTORE PUSH1 0x11 DUP2 MSTORE PUSH17 0x697066733A2F2F736F6D657468696E672F PUSH1 0x78 SHL PUSH1 0x20 DUP3 ADD MSTORE SWAP1 JUMP JUMPDEST SWAP1 POP PUSH0 DUP2 MLOAD GT PUSH2 0x595 JUMPI PUSH1 0x40 MLOAD DUP1 PUSH1 0x20 ADD PUSH1 0x40 MSTORE DUP1 PUSH0 DUP2 MSTORE POP PUSH2 0x5C0 JUMP JUMPDEST DUP1 PUSH2 0x59F DUP5 PUSH2 0xA64 JUMP JUMPDEST PUSH1 0x40 MLOAD PUSH1 0x20 ADD PUSH2 0x5B0 SWAP3 SWAP2 SWAP1 PUSH2 0x1534 JUMP JUMPDEST PUSH1 0x40 MLOAD PUSH1 0x20 DUP2 DUP4 SUB SUB DUP2 MSTORE SWAP1 PUSH1 0x40 MSTORE JUMPDEST SWAP4 SWAP3 POP POP POP JUMP JUMPDEST PUSH1 0x60 PUSH2 0x60A PUSH2 0x5D4 PUSH2 0x251 JUMP JUMPDEST PUSH2 0x5DC PUSH2 0xAF4 JUMP JUMPDEST PUSH2 0x5E4 PUSH2 0xB14 JUMP JUMPDEST PUSH1 0x40 MLOAD PUSH1 0x20 ADD PUSH2 0x5F6 SWAP4 SWAP3 SWAP2 SWAP1 PUSH2 0x155E JUMP JUMPDEST PUSH1 0x40 MLOAD PUSH1 0x20 DUP2 DUP4 SUB SUB DUP2 MSTORE SWAP1 PUSH1 0x40 MSTORE PUSH2 0xB34 JUMP JUMPDEST PUSH1 0x40 MLOAD PUSH1 0x20 ADD PUSH2 0x61A SWAP2 SWAP1 PUSH2 0x15D4 JUMP JUMPDEST PUSH1 0x40 MLOAD PUSH1 0x20 DUP2 DUP4 SUB SUB DUP2 MSTORE SWAP1 PUSH1 0x40 MSTORE SWAP1 POP SWAP1 JUMP JUMPDEST PUSH0 PUSH2 0x637 PUSH2 0x669 JUMP JUMPDEST PUSH1 0x1 PUSH1 0x1 PUSH1 0xA0 SHL SUB SWAP4 DUP5 AND PUSH0 SWAP1 DUP2 MSTORE PUSH1 0x6 SWAP2 SWAP1 SWAP2 ADD PUSH1 0x20 SWAP1 DUP2 MSTORE PUSH1 0x40 DUP1 DUP4 KECCAK256 SWAP5 SWAP1 SWAP6 AND DUP3 MSTORE SWAP3 SWAP1 SWAP3 MSTORE POP KECCAK256 SLOAD PUSH1 0xFF AND SWAP1 JUMP JUMPDEST PUSH32 0xF2DEC0ACAEF95DE6625646379D631ADFF4DB9F6C79B84A31ADCB9A23BF6CEA78 SWAP1 JUMP JUMPDEST PUSH0 PUSH0 PUSH2 0x698 DUP4 PUSH2 0xC8F JUMP JUMPDEST SWAP1 POP PUSH1 0x1 PUSH1 0x1 PUSH1 0xA0 SHL SUB DUP2 AND PUSH2 0x2FB JUMPI PUSH1 0x40 MLOAD PUSH4 0x7E273289 PUSH1 0xE0 SHL DUP2 MSTORE PUSH1 0x4 DUP2 ADD DUP5 SWAP1 MSTORE PUSH1 0x24 ADD PUSH2 0x347 JUMP JUMPDEST PUSH0 PUSH2 0x6CD PUSH2 0x669 JUMP JUMPDEST PUSH0 SWAP3 DUP4 MSTORE PUSH1 0x5 ADD PUSH1 0x20 MSTORE POP PUSH1 0x40 SWAP1 KECCAK256 SLOAD PUSH1 0x1 PUSH1 0x1 PUSH1 0xA0 SHL SUB AND SWAP1 JUMP JUMPDEST PUSH2 0x439 DUP4 DUP4 DUP4 PUSH1 0x1 PUSH2 0xCB4 JUMP JUMPDEST PUSH0 PUSH0 PUSH2 0x701 DUP5 PUSH2 0xC8F JUMP JUMPDEST SWAP1 POP PUSH1 0x1 PUSH1 0x1 PUSH1 0xA0 SHL SUB DUP4 AND ISZERO PUSH2 0x71D JUMPI PUSH2 0x71D DUP2 DUP5 DUP7 PUSH2 0xDEF JUMP JUMPDEST PUSH1 0x1 PUSH1 0x1 PUSH1 0xA0 SHL SUB DUP2 AND ISZERO PUSH2 0x766 JUMPI PUSH2 0x738 PUSH0 DUP6 PUSH0 PUSH0 PUSH2 0xCB4 JUMP JUMPDEST PUSH1 0x1 PUSH2 0x742 PUSH2 0x669 JUMP JUMPDEST PUSH1 0x1 PUSH1 0x1 PUSH1 0xA0 SHL SUB DUP4 AND PUSH0 SWAP1 DUP2 MSTORE PUSH1 0x4 SWAP2 SWAP1 SWAP2 ADD PUSH1 0x20 MSTORE PUSH1 0x40 SWAP1 KECCAK256 DUP1 SLOAD SWAP2 SWAP1 SWAP2 SUB SWAP1 SSTORE JUMPDEST PUSH1 0x1 PUSH1 0x1 PUSH1 0xA0 SHL SUB DUP6 AND ISZERO PUSH2 0x7A2 JUMPI PUSH1 0x1 PUSH2 0x77F PUSH2 0x669 JUMP JUMPDEST PUSH1 0x1 PUSH1 0x1 PUSH1 0xA0 SHL SUB DUP8 AND PUSH0 SWAP1 DUP2 MSTORE PUSH1 0x4 SWAP2 SWAP1 SWAP2 ADD PUSH1 0x20 MSTORE PUSH1 0x40 SWAP1 KECCAK256 DUP1 SLOAD SWAP1 SWAP2 ADD SWAP1 SSTORE JUMPDEST DUP5 PUSH2 0x7AB PUSH2 0x669 JUMP JUMPDEST PUSH0 DUP7 DUP2 MSTORE PUSH1 0x3 SWAP2 SWAP1 SWAP2 ADD PUSH1 0x20 MSTORE PUSH1 0x40 DUP1 DUP3 KECCAK256 DUP1 SLOAD PUSH1 0x1 PUSH1 0x1 PUSH1 0xA0 SHL SUB NOT AND PUSH1 0x1 PUSH1 0x1 PUSH1 0xA0 SHL SUB SWAP5 DUP6 AND OR SWAP1 SSTORE MLOAD DUP7 SWAP3 DUP9 DUP2 AND SWAP3 SWAP1 DUP6 AND SWAP2 PUSH32 0xDDF252AD1BE2C89B69C2B068FC378DAA952BA7F163C4A11628F55A4DF523B3EF SWAP2 SWAP1 LOG4 PUSH1 0x1 PUSH1 0x1 PUSH1 0xA0 SHL SUB DUP2 AND PUSH2 0x822 JUMPI PUSH2 0x81D DUP5 PUSH2 0xE53 JUMP JUMPDEST PUSH2 0x845 JUMP JUMPDEST DUP5 PUSH1 0x1 PUSH1 0x1 PUSH1 0xA0 SHL SUB AND DUP2 PUSH1 0x1 PUSH1 0x1 PUSH1 0xA0 SHL SUB AND EQ PUSH2 0x845 JUMPI PUSH2 0x845 DUP2 DUP6 PUSH2 0xE99 JUMP JUMPDEST PUSH1 0x1 PUSH1 0x1 PUSH1 0xA0 SHL SUB DUP6 AND PUSH2 0x861 JUMPI PUSH2 0x85C DUP5 PUSH2 0xFB0 JUMP JUMPDEST PUSH2 0x884 JUMP JUMPDEST DUP5 PUSH1 0x1 PUSH1 0x1 PUSH1 0xA0 SHL SUB AND DUP2 PUSH1 0x1 PUSH1 0x1 PUSH1 0xA0 SHL SUB AND EQ PUSH2 0x884 JUMPI PUSH2 0x884 DUP6 DUP6 PUSH2 0x109F JUMP JUMPDEST SWAP5 SWAP4 POP POP POP POP JUMP JUMPDEST PUSH1 0x1 PUSH1 0x1 PUSH1 0xA0 SHL SUB DUP3 AND PUSH2 0x8BE JUMPI PUSH1 0x40 MLOAD PUSH4 0xB611743 PUSH1 0xE3 SHL DUP2 MSTORE PUSH1 0x1 PUSH1 0x1 PUSH1 0xA0 SHL SUB DUP4 AND PUSH1 0x4 DUP3 ADD MSTORE PUSH1 0x24 ADD PUSH2 0x347 JUMP JUMPDEST DUP1 PUSH2 0x8C7 PUSH2 0x669 JUMP JUMPDEST PUSH1 0x1 PUSH1 0x1 PUSH1 0xA0 SHL SUB DUP6 DUP2 AND PUSH0 DUP2 DUP2 MSTORE PUSH1 0x6 SWAP4 SWAP1 SWAP4 ADD PUSH1 0x20 SWAP1 DUP2 MSTORE PUSH1 0x40 DUP1 DUP6 KECCAK256 SWAP4 DUP9 AND DUP1 DUP7 MSTORE SWAP4 DUP3 MSTORE SWAP4 DUP5 SWAP1 KECCAK256 DUP1 SLOAD PUSH1 0xFF NOT AND SWAP6 ISZERO ISZERO SWAP6 SWAP1 SWAP6 OR SWAP1 SWAP5 SSTORE SWAP2 MLOAD DUP5 ISZERO ISZERO DUP2 MSTORE SWAP1 SWAP3 PUSH32 0x17307EAB39AB6107E8899845AD3D59BD9653F200F220920489CA2B5937696C31 SWAP2 ADD PUSH1 0x40 MLOAD DUP1 SWAP2 SUB SWAP1 LOG3 POP POP POP JUMP JUMPDEST PUSH1 0x1 PUSH1 0x1 PUSH1 0xA0 SHL SUB DUP4 AND EXTCODESIZE ISZERO PUSH2 0xA5D JUMPI PUSH1 0x40 MLOAD PUSH4 0xA85BD01 PUSH1 0xE1 SHL DUP2 MSTORE PUSH1 0x1 PUSH1 0x1 PUSH1 0xA0 SHL SUB DUP5 AND SWAP1 PUSH4 0x150B7A02 SWAP1 PUSH2 0x97E SWAP1 DUP9 SWAP1 DUP9 SWAP1 DUP8 SWAP1 DUP8 SWAP1 PUSH1 0x4 ADD PUSH2 0x1605 JUMP JUMPDEST PUSH1 0x20 PUSH1 0x40 MLOAD DUP1 DUP4 SUB DUP2 PUSH0 DUP8 GAS CALL SWAP3 POP POP POP DUP1 ISZERO PUSH2 0x9B8 JUMPI POP PUSH1 0x40 DUP1 MLOAD PUSH1 0x1F RETURNDATASIZE SWAP1 DUP2 ADD PUSH1 0x1F NOT AND DUP3 ADD SWAP1 SWAP3 MSTORE PUSH2 0x9B5 SWAP2 DUP2 ADD SWAP1 PUSH2 0x1641 JUMP JUMPDEST PUSH1 0x1 JUMPDEST PUSH2 0xA1F JUMPI RETURNDATASIZE DUP1 DUP1 ISZERO PUSH2 0x9E5 JUMPI PUSH1 0x40 MLOAD SWAP2 POP PUSH1 0x1F NOT PUSH1 0x3F RETURNDATASIZE ADD AND DUP3 ADD PUSH1 0x40 MSTORE RETURNDATASIZE DUP3 MSTORE RETURNDATASIZE PUSH0 PUSH1 0x20 DUP5 ADD RETURNDATACOPY PUSH2 0x9EA JUMP JUMPDEST PUSH1 0x60 SWAP2 POP JUMPDEST POP DUP1 MLOAD PUSH0 SUB PUSH2 0xA17 JUMPI PUSH1 0x40 MLOAD PUSH4 0x32505749 PUSH1 0xE1 SHL DUP2 MSTORE PUSH1 0x1 PUSH1 0x1 PUSH1 0xA0 SHL SUB DUP6 AND PUSH1 0x4 DUP3 ADD MSTORE PUSH1 0x24 ADD PUSH2 0x347 JUMP JUMPDEST DUP1 MLOAD DUP2 PUSH1 0x20 ADD REVERT JUMPDEST PUSH1 0x1 PUSH1 0x1 PUSH1 0xE0 SHL SUB NOT DUP2 AND PUSH4 0xA85BD01 PUSH1 0xE1 SHL EQ PUSH2 0xA5B JUMPI PUSH1 0x40 MLOAD PUSH4 0x32505749 PUSH1 0xE1 SHL DUP2 MSTORE PUSH1 0x1 PUSH1 0x1 PUSH1 0xA0 SHL SUB DUP6 AND PUSH1 0x4 DUP3 ADD MSTORE PUSH1 0x24 ADD PUSH2 0x347 JUMP JUMPDEST POP JUMPDEST POP POP POP POP POP JUMP JUMPDEST PUSH1 0x60 PUSH0 PUSH2 0xA70 DUP4 PUSH2 0x1122 JUMP JUMPDEST PUSH1 0x1 ADD SWAP1 POP PUSH0 DUP2 PUSH8 0xFFFFFFFFFFFFFFFF DUP2 GT ISZERO PUSH2 0xA8F JUMPI PUSH2 0xA8F PUSH2 0x13AF JUMP JUMPDEST PUSH1 0x40 MLOAD SWAP1 DUP1 DUP3 MSTORE DUP1 PUSH1 0x1F ADD PUSH1 0x1F NOT AND PUSH1 0x20 ADD DUP3 ADD PUSH1 0x40 MSTORE DUP1 ISZERO PUSH2 0xAB9 JUMPI PUSH1 0x20 DUP3 ADD DUP2 DUP1 CALLDATASIZE DUP4 CALLDATACOPY ADD SWAP1 POP JUMPDEST POP SWAP1 POP DUP2 DUP2 ADD PUSH1 0x20 ADD JUMPDEST PUSH0 NOT ADD PUSH16 0x181899199A1A9B1B9C1CB0B131B232B3 PUSH1 0x81 SHL PUSH1 0xA DUP7 MOD BYTE DUP2 MSTORE8 PUSH1 0xA DUP6 DIV SWAP5 POP DUP5 PUSH2 0xAC3 JUMPI POP SWAP4 SWAP3 POP POP POP JUMP JUMPDEST PUSH1 0x60 PUSH1 0x40 MLOAD DUP1 PUSH1 0x80 ADD PUSH1 0x40 MSTORE DUP1 PUSH1 0x51 DUP2 MSTORE PUSH1 0x20 ADD PUSH2 0x16ED PUSH1 0x51 SWAP2 CODECOPY SWAP1 POP SWAP1 JUMP JUMPDEST PUSH1 0x60 PUSH1 0x40 MLOAD DUP1 PUSH1 0x60 ADD PUSH1 0x40 MSTORE DUP1 PUSH1 0x35 DUP2 MSTORE PUSH1 0x20 ADD PUSH2 0x173E PUSH1 0x35 SWAP2 CODECOPY SWAP1 POP SWAP1 JUMP JUMPDEST PUSH1 0x60 DUP2 MLOAD PUSH0 SUB PUSH2 0xB51 JUMPI POP POP PUSH1 0x40 DUP1 MLOAD PUSH1 0x20 DUP2 ADD SWAP1 SWAP2 MSTORE PUSH0 DUP2 MSTORE SWAP1 JUMP JUMPDEST PUSH0 PUSH1 0x40 MLOAD DUP1 PUSH1 0x60 ADD PUSH1 0x40 MSTORE DUP1 PUSH1 0x40 DUP2 MSTORE PUSH1 0x20 ADD PUSH2 0x1773 PUSH1 0x40 SWAP2 CODECOPY SWAP1 POP PUSH0 PUSH1 0x3 DUP5 MLOAD PUSH1 0x2 PUSH2 0xB7E SWAP2 SWAP1 PUSH2 0x167C JUMP JUMPDEST PUSH2 0xB88 SWAP2 SWAP1 PUSH2 0x168F JUMP JUMPDEST PUSH2 0xB93 SWAP1 PUSH1 0x4 PUSH2 0x16AE JUMP JUMPDEST PUSH8 0xFFFFFFFFFFFFFFFF DUP2 GT ISZERO PUSH2 0xBAB JUMPI PUSH2 0xBAB PUSH2 0x13AF JUMP JUMPDEST PUSH1 0x40 MLOAD SWAP1 DUP1 DUP3 MSTORE DUP1 PUSH1 0x1F ADD PUSH1 0x1F NOT AND PUSH1 0x20 ADD DUP3 ADD PUSH1 0x40 MSTORE DUP1 ISZERO PUSH2 0xBD5 JUMPI PUSH1 0x20 DUP3 ADD DUP2 DUP1 CALLDATASIZE DUP4 CALLDATACOPY ADD SWAP1 POP JUMPDEST POP SWAP1 POP PUSH1 0x1 DUP3 ADD PUSH1 0x20 DUP3 ADD DUP6 DUP7 MLOAD DUP8 ADD PUSH1 0x20 DUP2 ADD DUP1 MLOAD PUSH0 DUP3 MSTORE JUMPDEST DUP3 DUP5 LT ISZERO PUSH2 0xC4A JUMPI PUSH1 0x3 DUP5 ADD SWAP4 POP DUP4 MLOAD PUSH1 0x3F DUP2 PUSH1 0x12 SHR AND DUP8 ADD MLOAD DUP7 MSTORE8 PUSH1 0x1 DUP7 ADD SWAP6 POP PUSH1 0x3F DUP2 PUSH1 0xC SHR AND DUP8 ADD MLOAD DUP7 MSTORE8 PUSH1 0x1 DUP7 ADD SWAP6 POP PUSH1 0x3F DUP2 PUSH1 0x6 SHR AND DUP8 ADD MLOAD DUP7 MSTORE8 PUSH1 0x1 DUP7 ADD SWAP6 POP PUSH1 0x3F DUP2 AND DUP8 ADD MLOAD DUP7 MSTORE8 POP PUSH1 0x1 DUP6 ADD SWAP5 POP PUSH2 0xBEF JUMP JUMPDEST SWAP1 MSTORE POP POP DUP6 MLOAD PUSH1 0x3 SWAP1 MOD PUSH1 0x1 DUP2 EQ PUSH2 0xC69 JUMPI PUSH1 0x2 DUP2 EQ PUSH2 0xC7C JUMPI PUSH2 0xC84 JUMP JUMPDEST PUSH1 0x3D PUSH1 0x1 DUP4 SUB MSTORE8 PUSH1 0x3D PUSH1 0x2 DUP4 SUB MSTORE8 PUSH2 0xC84 JUMP JUMPDEST PUSH1 0x3D PUSH1 0x1 DUP4 SUB MSTORE8 JUMPDEST POP SWAP2 SWAP6 SWAP5 POP POP POP POP POP JUMP JUMPDEST PUSH0 PUSH2 0xC98 PUSH2 0x669 JUMP JUMPDEST PUSH0 SWAP3 DUP4 MSTORE PUSH1 0x3 ADD PUSH1 0x20 MSTORE POP PUSH1 0x40 SWAP1 KECCAK256 SLOAD PUSH1 0x1 PUSH1 0x1 PUSH1 0xA0 SHL SUB AND SWAP1 JUMP JUMPDEST DUP1 DUP1 PUSH2 0xCC8 JUMPI POP PUSH1 0x1 PUSH1 0x1 PUSH1 0xA0 SHL SUB DUP3 AND ISZERO ISZERO JUMPDEST ISZERO PUSH2 0xDB4 JUMPI PUSH0 PUSH2 0xCD7 DUP5 PUSH2 0x68D JUMP JUMPDEST SWAP1 POP PUSH1 0x1 PUSH1 0x1 PUSH1 0xA0 SHL SUB DUP4 AND ISZERO DUP1 ISZERO SWAP1 PUSH2 0xD03 JUMPI POP DUP3 PUSH1 0x1 PUSH1 0x1 PUSH1 0xA0 SHL SUB AND DUP2 PUSH1 0x1 PUSH1 0x1 PUSH1 0xA0 SHL SUB AND EQ ISZERO JUMPDEST DUP1 ISZERO PUSH2 0xD41 JUMPI POP PUSH2 0xD12 PUSH2 0x669 JUMP JUMPDEST PUSH1 0x1 PUSH1 0x1 PUSH1 0xA0 SHL SUB DUP1 DUP4 AND PUSH0 SWAP1 DUP2 MSTORE PUSH1 0x6 SWAP3 SWAP1 SWAP3 ADD PUSH1 0x20 SWAP1 DUP2 MSTORE PUSH1 0x40 DUP1 DUP5 KECCAK256 SWAP3 DUP8 AND DUP5 MSTORE SWAP2 SWAP1 MSTORE SWAP1 KECCAK256 SLOAD PUSH1 0xFF AND ISZERO JUMPDEST ISZERO PUSH2 0xD6A JUMPI PUSH1 0x40 MLOAD PUSH4 0xA9FBF51F PUSH1 0xE0 SHL DUP2 MSTORE PUSH1 0x1 PUSH1 0x1 PUSH1 0xA0 SHL SUB DUP5 AND PUSH1 0x4 DUP3 ADD MSTORE PUSH1 0x24 ADD PUSH2 0x347 JUMP JUMPDEST DUP2 ISZERO PUSH2 0xDB2 JUMPI DUP4 DUP6 PUSH1 0x1 PUSH1 0x1 PUSH1 0xA0 SHL SUB AND DUP3 PUSH1 0x1 PUSH1 0x1 PUSH1 0xA0 SHL SUB AND PUSH32 0x8C5BE1E5EBEC7D5BD14F71427D1E84F3DD0314C0F7B2291E5B200AC8C7C3B925 PUSH1 0x40 MLOAD PUSH1 0x40 MLOAD DUP1 SWAP2 SUB SWAP1 LOG4 JUMPDEST POP JUMPDEST DUP4 PUSH2 0xDBD PUSH2 0x669 JUMP JUMPDEST PUSH0 SWAP5 DUP6 MSTORE PUSH1 0x5 ADD PUSH1 0x20 MSTORE PUSH1 0x40 SWAP1 SWAP4 KECCAK256 DUP1 SLOAD PUSH1 0x1 PUSH1 0x1 PUSH1 0xA0 SHL SUB NOT AND PUSH1 0x1 PUSH1 0x1 PUSH1 0xA0 SHL SUB SWAP1 SWAP5 AND SWAP4 SWAP1 SWAP4 OR SWAP1 SWAP3 SSTORE POP POP POP JUMP JUMPDEST PUSH2 0xDFA DUP4 DUP4 DUP4 PUSH2 0x11F9 JUMP JUMPDEST PUSH2 0x439 JUMPI PUSH1 0x1 PUSH1 0x1 PUSH1 0xA0 SHL SUB DUP4 AND PUSH2 0xE28 JUMPI PUSH1 0x40 MLOAD PUSH4 0x7E273289 PUSH1 0xE0 SHL DUP2 MSTORE PUSH1 0x4 DUP2 ADD DUP3 SWAP1 MSTORE PUSH1 0x24 ADD PUSH2 0x347 JUMP JUMPDEST PUSH1 0x40 MLOAD PUSH4 0x177E802F PUSH1 0xE0 SHL DUP2 MSTORE PUSH1 0x1 PUSH1 0x1 PUSH1 0xA0 SHL SUB DUP4 AND PUSH1 0x4 DUP3 ADD MSTORE PUSH1 0x24 DUP2 ADD DUP3 SWAP1 MSTORE PUSH1 0x44 ADD PUSH2 0x347 JUMP JUMPDEST PUSH2 0xE5B PUSH2 0x669 JUMP JUMPDEST PUSH1 0x2 ADD SLOAD PUSH2 0xE67 PUSH2 0x669 JUMP JUMPDEST PUSH0 DUP4 DUP2 MSTORE PUSH1 0x9 SWAP2 SWAP1 SWAP2 ADD PUSH1 0x20 MSTORE PUSH1 0x40 SWAP1 KECCAK256 SSTORE PUSH2 0xE81 PUSH2 0x669 JUMP JUMPDEST PUSH1 0x2 ADD DUP1 SLOAD PUSH1 0x1 DUP2 ADD DUP3 SSTORE PUSH0 SWAP2 DUP3 MSTORE PUSH1 0x20 SWAP1 SWAP2 KECCAK256 ADD SSTORE JUMP JUMPDEST PUSH0 PUSH2 0xEA2 PUSH2 0x669 JUMP JUMPDEST PUSH1 0x1 PUSH1 0x1 PUSH1 0xA0 SHL SUB DUP5 AND PUSH0 SWAP1 DUP2 MSTORE PUSH1 0x4 SWAP2 SWAP1 SWAP2 ADD PUSH1 0x20 MSTORE PUSH1 0x40 DUP2 KECCAK256 SLOAD SWAP2 POP PUSH2 0xEC8 PUSH2 0x669 JUMP JUMPDEST PUSH0 DUP5 DUP2 MSTORE PUSH1 0x8 SWAP2 SWAP1 SWAP2 ADD PUSH1 0x20 MSTORE PUSH1 0x40 SWAP1 KECCAK256 SLOAD SWAP1 POP DUP2 DUP2 EQ PUSH2 0xF5F JUMPI PUSH0 PUSH2 0xEEC PUSH2 0x669 JUMP JUMPDEST PUSH1 0x1 PUSH1 0x1 PUSH1 0xA0 SHL SUB DUP7 AND PUSH0 SWAP1 DUP2 MSTORE PUSH1 0x7 SWAP2 SWAP1 SWAP2 ADD PUSH1 0x20 SWAP1 DUP2 MSTORE PUSH1 0x40 DUP1 DUP4 KECCAK256 DUP7 DUP5 MSTORE SWAP1 SWAP2 MSTORE SWAP1 KECCAK256 SLOAD SWAP1 POP DUP1 PUSH2 0xF1E PUSH2 0x669 JUMP JUMPDEST PUSH1 0x1 PUSH1 0x1 PUSH1 0xA0 SHL SUB DUP8 AND PUSH0 SWAP1 DUP2 MSTORE PUSH1 0x7 SWAP2 SWAP1 SWAP2 ADD PUSH1 0x20 SWAP1 DUP2 MSTORE PUSH1 0x40 DUP1 DUP4 KECCAK256 DUP7 DUP5 MSTORE SWAP1 SWAP2 MSTORE SWAP1 KECCAK256 SSTORE DUP2 PUSH2 0xF4E PUSH2 0x669 JUMP JUMPDEST PUSH0 SWAP3 DUP4 MSTORE PUSH1 0x8 ADD PUSH1 0x20 MSTORE PUSH1 0x40 SWAP1 SWAP2 KECCAK256 SSTORE JUMPDEST PUSH2 0xF67 PUSH2 0x669 JUMP JUMPDEST PUSH0 DUP5 DUP2 MSTORE PUSH1 0x8 SWAP2 SWAP1 SWAP2 ADD PUSH1 0x20 MSTORE PUSH1 0x40 DUP2 KECCAK256 SSTORE PUSH2 0xF81 PUSH2 0x669 JUMP JUMPDEST PUSH1 0x1 PUSH1 0x1 PUSH1 0xA0 SHL SUB SWAP1 SWAP5 AND PUSH0 SWAP1 DUP2 MSTORE PUSH1 0x7 SWAP5 SWAP1 SWAP5 ADD PUSH1 0x20 SWAP1 DUP2 MSTORE PUSH1 0x40 DUP1 DUP7 KECCAK256 SWAP4 DUP7 MSTORE SWAP3 SWAP1 MSTORE POP DUP3 KECCAK256 SWAP2 SWAP1 SWAP2 SSTORE POP JUMP JUMPDEST PUSH0 PUSH1 0x1 PUSH2 0xFBB PUSH2 0x669 JUMP JUMPDEST PUSH1 0x2 ADD SLOAD PUSH2 0xFC9 SWAP2 SWAP1 PUSH2 0x16C5 JUMP JUMPDEST SWAP1 POP PUSH0 PUSH2 0xFD4 PUSH2 0x669 JUMP JUMPDEST PUSH0 DUP5 DUP2 MSTORE PUSH1 0x9 SWAP2 SWAP1 SWAP2 ADD PUSH1 0x20 MSTORE PUSH1 0x40 DUP2 KECCAK256 SLOAD SWAP2 POP PUSH2 0xFF0 PUSH2 0x669 JUMP JUMPDEST PUSH1 0x2 ADD DUP4 DUP2 SLOAD DUP2 LT PUSH2 0x1004 JUMPI PUSH2 0x1004 PUSH2 0x1509 JUMP JUMPDEST SWAP1 PUSH0 MSTORE PUSH1 0x20 PUSH0 KECCAK256 ADD SLOAD SWAP1 POP DUP1 PUSH2 0x1018 PUSH2 0x669 JUMP JUMPDEST PUSH1 0x2 ADD DUP4 DUP2 SLOAD DUP2 LT PUSH2 0x102C JUMPI PUSH2 0x102C PUSH2 0x1509 JUMP JUMPDEST PUSH0 SWAP2 DUP3 MSTORE PUSH1 0x20 SWAP1 SWAP2 KECCAK256 ADD SSTORE DUP2 PUSH2 0x1040 PUSH2 0x669 JUMP JUMPDEST PUSH0 DUP4 DUP2 MSTORE PUSH1 0x9 SWAP2 SWAP1 SWAP2 ADD PUSH1 0x20 MSTORE PUSH1 0x40 SWAP1 KECCAK256 SSTORE PUSH2 0x105A PUSH2 0x669 JUMP JUMPDEST PUSH0 DUP6 DUP2 MSTORE PUSH1 0x9 SWAP2 SWAP1 SWAP2 ADD PUSH1 0x20 MSTORE PUSH1 0x40 DUP2 KECCAK256 SSTORE PUSH2 0x1074 PUSH2 0x669 JUMP JUMPDEST PUSH1 0x2 ADD DUP1 SLOAD DUP1 PUSH2 0x1086 JUMPI PUSH2 0x1086 PUSH2 0x16D8 JUMP JUMPDEST PUSH1 0x1 SWAP1 SUB DUP2 DUP2 SWAP1 PUSH0 MSTORE PUSH1 0x20 PUSH0 KECCAK256 ADD PUSH0 SWAP1 SSTORE SWAP1 SSTORE POP POP POP POP JUMP JUMPDEST PUSH0 PUSH1 0x1 PUSH2 0x10AA PUSH2 0x669 JUMP JUMPDEST PUSH1 0x1 PUSH1 0x1 PUSH1 0xA0 SHL SUB DUP6 AND PUSH0 SWAP1 DUP2 MSTORE PUSH1 0x4 SWAP2 SWAP1 SWAP2 ADD PUSH1 0x20 MSTORE PUSH1 0x40 SWAP1 KECCAK256 SLOAD PUSH2 0x10D0 SWAP2 SWAP1 PUSH2 0x16C5 JUMP JUMPDEST SWAP1 POP DUP2 PUSH2 0x10DB PUSH2 0x669 JUMP JUMPDEST PUSH1 0x1 PUSH1 0x1 PUSH1 0xA0 SHL SUB DUP6 AND PUSH0 SWAP1 DUP2 MSTORE PUSH1 0x7 SWAP2 SWAP1 SWAP2 ADD PUSH1 0x20 SWAP1 DUP2 MSTORE PUSH1 0x40 DUP1 DUP4 KECCAK256 DUP6 DUP5 MSTORE SWAP1 SWAP2 MSTORE SWAP1 KECCAK256 SSTORE DUP1 PUSH2 0x110B PUSH2 0x669 JUMP JUMPDEST PUSH0 SWAP4 DUP5 MSTORE PUSH1 0x8 ADD PUSH1 0x20 MSTORE PUSH1 0x40 SWAP1 SWAP3 KECCAK256 SWAP2 SWAP1 SWAP2 SSTORE POP POP JUMP JUMPDEST PUSH0 DUP1 PUSH19 0x184F03E93FF9F4DAA797ED6E38ED64BF6A1F01 PUSH1 0x40 SHL DUP4 LT PUSH2 0x1160 JUMPI PUSH19 0x184F03E93FF9F4DAA797ED6E38ED64BF6A1F01 PUSH1 0x40 SHL DUP4 DIV SWAP3 POP PUSH1 0x40 ADD JUMPDEST PUSH14 0x4EE2D6D415B85ACEF8100000000 DUP4 LT PUSH2 0x118C JUMPI PUSH14 0x4EE2D6D415B85ACEF8100000000 DUP4 DIV SWAP3 POP PUSH1 0x20 ADD JUMPDEST PUSH7 0x2386F26FC10000 DUP4 LT PUSH2 0x11AA JUMPI PUSH7 0x2386F26FC10000 DUP4 DIV SWAP3 POP PUSH1 0x10 ADD JUMPDEST PUSH4 0x5F5E100 DUP4 LT PUSH2 0x11C2 JUMPI PUSH4 0x5F5E100 DUP4 DIV SWAP3 POP PUSH1 0x8 ADD JUMPDEST PUSH2 0x2710 DUP4 LT PUSH2 0x11D6 JUMPI PUSH2 0x2710 DUP4 DIV SWAP3 POP PUSH1 0x4 ADD JUMPDEST PUSH1 0x64 DUP4 LT PUSH2 0x11E8 JUMPI PUSH1 0x64 DUP4 DIV SWAP3 POP PUSH1 0x2 ADD JUMPDEST PUSH1 0xA DUP4 LT PUSH2 0x2FB JUMPI PUSH1 0x1 ADD SWAP3 SWAP2 POP POP JUMP JUMPDEST PUSH0 PUSH1 0x1 PUSH1 0x1 PUSH1 0xA0 SHL SUB DUP4 AND ISZERO DUP1 ISZERO SWAP1 PUSH2 0x884 JUMPI POP DUP3 PUSH1 0x1 PUSH1 0x1 PUSH1 0xA0 SHL SUB AND DUP5 PUSH1 0x1 PUSH1 0x1 PUSH1 0xA0 SHL SUB AND EQ DUP1 PUSH2 0x125E JUMPI POP PUSH2 0x1230 PUSH2 0x669 JUMP JUMPDEST PUSH1 0x1 PUSH1 0x1 PUSH1 0xA0 SHL SUB DUP1 DUP7 AND PUSH0 SWAP1 DUP2 MSTORE PUSH1 0x6 SWAP3 SWAP1 SWAP3 ADD PUSH1 0x20 SWAP1 DUP2 MSTORE PUSH1 0x40 DUP1 DUP5 KECCAK256 SWAP3 DUP8 AND DUP5 MSTORE SWAP2 SWAP1 MSTORE SWAP1 KECCAK256 SLOAD PUSH1 0xFF AND JUMPDEST DUP1 PUSH2 0x884 JUMPI POP DUP3 PUSH1 0x1 PUSH1 0x1 PUSH1 0xA0 SHL SUB AND PUSH2 0x1277 DUP4 PUSH2 0x6C4 JUMP JUMPDEST PUSH1 0x1 PUSH1 0x1 PUSH1 0xA0 SHL SUB AND EQ SWAP5 SWAP4 POP POP POP POP JUMP JUMPDEST PUSH0 DUP2 MLOAD DUP1 DUP5 MSTORE DUP1 PUSH1 0x20 DUP5 ADD PUSH1 0x20 DUP7 ADD MCOPY PUSH0 PUSH1 0x20 DUP3 DUP7 ADD ADD MSTORE PUSH1 0x20 PUSH1 0x1F NOT PUSH1 0x1F DUP4 ADD AND DUP6 ADD ADD SWAP2 POP POP SWAP3 SWAP2 POP POP JUMP JUMPDEST PUSH1 0x20 DUP2 MSTORE PUSH0 PUSH2 0x5C0 PUSH1 0x20 DUP4 ADD DUP5 PUSH2 0x1289 JUMP JUMPDEST PUSH0 PUSH1 0x20 DUP3 DUP5 SUB SLT ISZERO PUSH2 0x12D9 JUMPI PUSH0 PUSH0 REVERT JUMPDEST POP CALLDATALOAD SWAP2 SWAP1 POP JUMP JUMPDEST DUP1 CALLDATALOAD PUSH1 0x1 PUSH1 0x1 PUSH1 0xA0 SHL SUB DUP2 AND DUP2 EQ PUSH2 0x12F6 JUMPI PUSH0 PUSH0 REVERT JUMPDEST SWAP2 SWAP1 POP JUMP JUMPDEST PUSH0 PUSH0 PUSH1 0x40 DUP4 DUP6 SUB SLT ISZERO PUSH2 0x130C JUMPI PUSH0 PUSH0 REVERT JUMPDEST PUSH2 0x1315 DUP4 PUSH2 0x12E0 JUMP JUMPDEST SWAP5 PUSH1 0x20 SWAP4 SWAP1 SWAP4 ADD CALLDATALOAD SWAP4 POP POP POP JUMP JUMPDEST PUSH0 PUSH0 PUSH0 PUSH1 0x60 DUP5 DUP7 SUB SLT ISZERO PUSH2 0x1335 JUMPI PUSH0 PUSH0 REVERT JUMPDEST PUSH2 0x133E DUP5 PUSH2 0x12E0 JUMP JUMPDEST SWAP3 POP PUSH2 0x134C PUSH1 0x20 DUP6 ADD PUSH2 0x12E0 JUMP JUMPDEST SWAP3 SWAP6 SWAP3 SWAP5 POP POP POP PUSH1 0x40 SWAP2 SWAP1 SWAP2 ADD CALLDATALOAD SWAP1 JUMP JUMPDEST PUSH0 PUSH1 0x20 DUP3 DUP5 SUB SLT ISZERO PUSH2 0x136D JUMPI PUSH0 PUSH0 REVERT JUMPDEST PUSH2 0x5C0 DUP3 PUSH2 0x12E0 JUMP JUMPDEST PUSH0 PUSH0 PUSH1 0x40 DUP4 DUP6 SUB SLT ISZERO PUSH2 0x1387 JUMPI PUSH0 PUSH0 REVERT JUMPDEST PUSH2 0x1390 DUP4 PUSH2 0x12E0 JUMP JUMPDEST SWAP2 POP PUSH1 0x20 DUP4 ADD CALLDATALOAD DUP1 ISZERO ISZERO DUP2 EQ PUSH2 0x13A4 JUMPI PUSH0 PUSH0 REVERT JUMPDEST DUP1 SWAP2 POP POP SWAP3 POP SWAP3 SWAP1 POP JUMP JUMPDEST PUSH4 0x4E487B71 PUSH1 0xE0 SHL PUSH0 MSTORE PUSH1 0x41 PUSH1 0x4 MSTORE PUSH1 0x24 PUSH0 REVERT JUMPDEST PUSH0 PUSH0 PUSH0 PUSH0 PUSH1 0x80 DUP6 DUP8 SUB SLT ISZERO PUSH2 0x13D6 JUMPI PUSH0 PUSH0 REVERT JUMPDEST PUSH2 0x13DF DUP6 PUSH2 0x12E0 JUMP JUMPDEST SWAP4 POP PUSH2 0x13ED PUSH1 0x20 DUP7 ADD PUSH2 0x12E0 JUMP JUMPDEST SWAP3 POP PUSH1 0x40 DUP6 ADD CALLDATALOAD SWAP2 POP PUSH1 0x60 DUP6 ADD CALLDATALOAD PUSH8 0xFFFFFFFFFFFFFFFF DUP2 GT ISZERO PUSH2 0x140F JUMPI PUSH0 PUSH0 REVERT JUMPDEST DUP6 ADD PUSH1 0x1F DUP2 ADD DUP8 SGT PUSH2 0x141F JUMPI PUSH0 PUSH0 REVERT JUMPDEST DUP1 CALLDATALOAD PUSH8 0xFFFFFFFFFFFFFFFF DUP2 GT ISZERO PUSH2 0x1439 JUMPI PUSH2 0x1439 PUSH2 0x13AF JUMP JUMPDEST PUSH1 0x40 MLOAD PUSH1 0x1F DUP3 ADD PUSH1 0x1F NOT SWAP1 DUP2 AND PUSH1 0x3F ADD AND DUP2 ADD PUSH8 0xFFFFFFFFFFFFFFFF DUP2 GT DUP3 DUP3 LT OR ISZERO PUSH2 0x1468 JUMPI PUSH2 0x1468 PUSH2 0x13AF JUMP JUMPDEST PUSH1 0x40 MSTORE DUP2 DUP2 MSTORE DUP3 DUP3 ADD PUSH1 0x20 ADD DUP10 LT ISZERO PUSH2 0x147F JUMPI PUSH0 PUSH0 REVERT JUMPDEST DUP2 PUSH1 0x20 DUP5 ADD PUSH1 0x20 DUP4 ADD CALLDATACOPY PUSH0 PUSH1 0x20 DUP4 DUP4 ADD ADD MSTORE DUP1 SWAP4 POP POP POP POP SWAP3 SWAP6 SWAP2 SWAP5 POP SWAP3 POP JUMP JUMPDEST PUSH0 PUSH0 PUSH1 0x40 DUP4 DUP6 SUB SLT ISZERO PUSH2 0x14B1 JUMPI PUSH0 PUSH0 REVERT JUMPDEST PUSH2 0x14BA DUP4 PUSH2 0x12E0 JUMP JUMPDEST SWAP2 POP PUSH2 0x14C8 PUSH1 0x20 DUP5 ADD PUSH2 0x12E0 JUMP JUMPDEST SWAP1 POP SWAP3 POP SWAP3 SWAP1 POP JUMP JUMPDEST PUSH1 0x1 DUP2 DUP2 SHR SWAP1 DUP3 AND DUP1 PUSH2 0x14E5 JUMPI PUSH1 0x7F DUP3 AND SWAP2 POP JUMPDEST PUSH1 0x20 DUP3 LT DUP2 SUB PUSH2 0x1503 JUMPI PUSH4 0x4E487B71 PUSH1 0xE0 SHL PUSH0 MSTORE PUSH1 0x22 PUSH1 0x4 MSTORE PUSH1 0x24 PUSH0 REVERT JUMPDEST POP SWAP2 SWAP1 POP JUMP JUMPDEST PUSH4 0x4E487B71 PUSH1 0xE0 SHL PUSH0 MSTORE PUSH1 0x32 PUSH1 0x4 MSTORE PUSH1 0x24 PUSH0 REVERT JUMPDEST PUSH0 DUP2 MLOAD DUP1 PUSH1 0x20 DUP5 ADD DUP6 MCOPY PUSH0 SWAP4 ADD SWAP3 DUP4 MSTORE POP SWAP1 SWAP2 SWAP1 POP JUMP JUMPDEST PUSH0 PUSH2 0x1548 PUSH2 0x1542 DUP4 DUP7 PUSH2 0x151D JUMP JUMPDEST DUP5 PUSH2 0x151D JUMP JUMPDEST PUSH5 0x173539B7B7 PUSH1 0xD9 SHL DUP2 MSTORE PUSH1 0x5 ADD SWAP5 SWAP4 POP POP POP POP JUMP JUMPDEST PUSH9 0x3D913730B6B2911D11 PUSH1 0xB9 SHL DUP2 MSTORE PUSH0 PUSH2 0x157B PUSH1 0x9 DUP4 ADD DUP7 PUSH2 0x151D JUMP JUMPDEST PUSH17 0x1116113232B9B1B934B83A34B7B7111D11 PUSH1 0x79 SHL DUP2 MSTORE PUSH2 0x159F PUSH1 0x11 DUP3 ADD DUP7 PUSH2 0x151D JUMP JUMPDEST PUSH11 0x11161134B6B0B3B2911D11 PUSH1 0xA9 SHL DUP2 MSTORE SWAP1 POP PUSH2 0x15BF PUSH1 0xB DUP3 ADD DUP6 PUSH2 0x151D JUMP JUMPDEST PUSH2 0x227D PUSH1 0xF0 SHL DUP2 MSTORE PUSH1 0x2 ADD SWAP7 SWAP6 POP POP POP POP POP POP JUMP JUMPDEST PUSH32 0x646174613A6170706C69636174696F6E2F6A736F6E3B6261736536342C000000 DUP2 MSTORE PUSH0 PUSH2 0x5C0 PUSH1 0x1D DUP4 ADD DUP5 PUSH2 0x151D JUMP JUMPDEST PUSH1 0x1 PUSH1 0x1 PUSH1 0xA0 SHL SUB DUP6 DUP2 AND DUP3 MSTORE DUP5 AND PUSH1 0x20 DUP3 ADD MSTORE PUSH1 0x40 DUP2 ADD DUP4 SWAP1 MSTORE PUSH1 0x80 PUSH1 0x60 DUP3 ADD DUP2 SWAP1 MSTORE PUSH0 SWAP1 PUSH2 0x1637 SWAP1 DUP4 ADD DUP5 PUSH2 0x1289 JUMP JUMPDEST SWAP7 SWAP6 POP POP POP POP POP POP JUMP JUMPDEST PUSH0 PUSH1 0x20 DUP3 DUP5 SUB SLT ISZERO PUSH2 0x1651 JUMPI PUSH0 PUSH0 REVERT JUMPDEST DUP2 MLOAD PUSH1 0x1 PUSH1 0x1 PUSH1 0xE0 SHL SUB NOT DUP2 AND DUP2 EQ PUSH2 0x5C0 JUMPI PUSH0 PUSH0 REVERT JUMPDEST PUSH4 0x4E487B71 PUSH1 0xE0 SHL PUSH0 MSTORE PUSH1 0x11 PUSH1 0x4 MSTORE PUSH1 0x24 PUSH0 REVERT JUMPDEST DUP1 DUP3 ADD DUP1 DUP3 GT ISZERO PUSH2 0x2FB JUMPI PUSH2 0x2FB PUSH2 0x1668 JUMP JUMPDEST PUSH0 DUP3 PUSH2 0x16A9 JUMPI PUSH4 0x4E487B71 PUSH1 0xE0 SHL PUSH0 MSTORE PUSH1 0x12 PUSH1 0x4 MSTORE PUSH1 0x24 PUSH0 REVERT JUMPDEST POP DIV SWAP1 JUMP JUMPDEST DUP1 DUP3 MUL DUP2 ISZERO DUP3 DUP3 DIV DUP5 EQ OR PUSH2 0x2FB JUMPI PUSH2 0x2FB PUSH2 0x1668 JUMP JUMPDEST DUP2 DUP2 SUB DUP2 DUP2 GT ISZERO PUSH2 0x2FB JUMPI PUSH2 0x2FB PUSH2 0x1668 JUMP JUMPDEST PUSH4 0x4E487B71 PUSH1 0xE0 SHL PUSH0 MSTORE PUSH1 0x31 PUSH1 0x4 MSTORE PUSH1 0x24 PUSH0 REVERT INVALID SLOAD PUSH9 0x697320697320636F6E PUSH21 0x72616374206465736372697074696F6E2E4465706F PUSH13 0x796564206279206A7573747765 PUSH10 0x27732045524337323120 PREVRANDAO PUSH10 0x616D6F6E6420696D706C PUSH6 0x6D656E746174 PUSH10 0x6F6E2E697066733A2F2F MLOAD PUSH14 0x636967396548385857455A5A7546 CODECOPY GAS SELFBALANCE MLOAD PREVRANDAO CALLDATACOPY PUSH8 0x4141484D446A3739 PUSH20 0x543875643738375067443537754E414243444546 SELFBALANCE BASEFEE BLOBHASH BLOBBASEFEE 0x4B 0x4C 0x4D 0x4E 0x4F POP MLOAD MSTORE MSTORE8 SLOAD SSTORE JUMP JUMPI PC MSIZE GAS PUSH2 0x6263 PUSH5 0x6566676869 PUSH11 0x6B6C6D6E6F707172737475 PUSH23 0x7778797A303132333435363738392B2FA2646970667358 0x22 SLT KECCAK256 0xBB EXTCODESIZE 0xBB STOP PUSH4 0x3FEEC7A6 PUSH11 0x2814DDFA954D94E7D141B2 0xC1 0xDF 0xD4 PUSH25 0x2EC799C68541B464736F6C634300081B003300000000000000 "
				},
				"gasEstimates": {
					"creation": {
						"codeDepositCost": "1224000",
						"executionCost": "1273",
						"totalCost": "1225273"
					},
					"external": {
						"approve(address,uint256)": "infinite",
						"balanceOf(address)": "2678",
						"contractURI()": "infinite",
						"getApproved(uint256)": "infinite",
						"isApprovedForAll(address,address)": "infinite",
						"name()": "infinite",
						"ownerOf(uint256)": "infinite",
						"safeTransferFrom(address,address,uint256)": "infinite",
						"safeTransferFrom(address,address,uint256,bytes)": "infinite",
						"setApprovalForAll(address,bool)": "26804",
						"symbol()": "infinite",
						"tokenByIndex(uint256)": "infinite",
						"tokenOfOwnerByIndex(address,uint256)": "infinite",
						"tokenURI(uint256)": "infinite",
						"totalSupply()": "2436",
						"transferFrom(address,address,uint256)": "infinite"
					},
					"internal": {
						"_baseURI()": "infinite",
						"_contractDescription()": "infinite",
						"_contractImage()": "infinite"
					}
				},
				"methodIdentifiers": {
					"approve(address,uint256)": "095ea7b3",
					"balanceOf(address)": "70a08231",
					"contractURI()": "e8a3d485",
					"getApproved(uint256)": "081812fc",
					"isApprovedForAll(address,address)": "e985e9c5",
					"name()": "06fdde03",
					"ownerOf(uint256)": "6352211e",
					"safeTransferFrom(address,address,uint256)": "42842e0e",
					"safeTransferFrom(address,address,uint256,bytes)": "b88d4fde",
					"setApprovalForAll(address,bool)": "a22cb465",
					"symbol()": "95d89b41",
					"tokenByIndex(uint256)": "4f6ccce7",
					"tokenOfOwnerByIndex(address,uint256)": "2f745c59",
					"tokenURI(uint256)": "c87b56dd",
					"totalSupply()": "18160ddd",
					"transferFrom(address,address,uint256)": "23b872dd"
				}
			},
			"storageLayout": {
				"storage": [],
				"types": null
			},
			"userdoc": {
				"kind": "user",
				"methods": {},
				"version": 1
			}
		}
	}
}