{
	"contracts/facets/MintFacet.sol": {
		"MintFacet": {
			"abi": [
				{
					"inputs": [
						{
							"internalType": "address",
							"name": "operator",
							"type": "address"
						},
						{
							"internalType": "uint256",
							"name": "tokenId",
							"type": "uint256"
						}
					],
					"name": "ERC721InsufficientApproval",
					"type": "error"
				},
				{
					"inputs": [
						{
							"internalType": "address",
							"name": "approver",
							"type": "address"
						}
					],
					"name": "ERC721InvalidApprover",
					"type": "error"
				},
				{
					"inputs": [
						{
							"internalType": "address",
							"name": "receiver",
							"type": "address"
						}
					],
					"name": "ERC721InvalidReceiver",
					"type": "error"
				},
				{
					"inputs": [
						{
							"internalType": "address",
							"name": "sender",
							"type": "address"
						}
					],
					"name": "ERC721InvalidSender",
					"type": "error"
				},
				{
					"inputs": [
						{
							"internalType": "uint256",
							"name": "tokenId",
							"type": "uint256"
						}
					],
					"name": "ERC721NonexistentToken",
					"type": "error"
				},
				{
					"anonymous": false,
					"inputs": [
						{
							"indexed": true,
							"internalType": "address",
							"name": "owner",
							"type": "address"
						},
						{
							"indexed": true,
							"internalType": "address",
							"name": "approved",
							"type": "address"
						},
						{
							"indexed": true,
							"internalType": "uint256",
							"name": "tokenId",
							"type": "uint256"
						}
					],
					"name": "Approval",
					"type": "event"
				},
				{
					"anonymous": false,
					"inputs": [
						{
							"indexed": true,
							"internalType": "address",
							"name": "from",
							"type": "address"
						},
						{
							"indexed": true,
							"internalType": "address",
							"name": "to",
							"type": "address"
						},
						{
							"indexed": true,
							"internalType": "uint256",
							"name": "tokenId",
							"type": "uint256"
						}
					],
					"name": "Transfer",
					"type": "event"
				},
				{
					"inputs": [],
					"name": "balanceOf",
					"outputs": [
						{
							"internalType": "uint256",
							"name": "",
							"type": "uint256"
						}
					],
					"stateMutability": "view",
					"type": "function"
				},
				{
					"inputs": [
						{
							"internalType": "uint256",
							"name": "_tokenId",
							"type": "uint256"
						}
					],
					"name": "burn",
					"outputs": [],
					"stateMutability": "nonpayable",
					"type": "function"
				},
				{
					"inputs": [
						{
							"internalType": "address",
							"name": "_to",
							"type": "address"
						},
						{
							"internalType": "uint256",
							"name": "_tokenId",
							"type": "uint256"
						}
					],
					"name": "mint",
					"outputs": [],
					"stateMutability": "payable",
					"type": "function"
				},
				{
					"inputs": [
						{
							"internalType": "address",
							"name": "_to",
							"type": "address"
						},
						{
							"internalType": "uint256",
							"name": "_tokenId",
							"type": "uint256"
						}
					],
					"name": "safeMint",
					"outputs": [],
					"stateMutability": "payable",
					"type": "function"
				}
			],
			"devdoc": {
				"errors": {
					"ERC721InsufficientApproval(address,uint256)": [
						{
							"details": "Indicates a failure with the `operator`’s approval. Used in transfers.",
							"params": {
								"operator": "Address that may be allowed to operate on tokens without being their owner.",
								"tokenId": "Identifier number of a token."
							}
						}
					],
					"ERC721InvalidApprover(address)": [
						{
							"details": "Indicates a failure with the `approver` of a token to be approved. Used in approvals.",
							"params": {
								"approver": "Address initiating an approval operation."
							}
						}
					],
					"ERC721InvalidReceiver(address)": [
						{
							"details": "Indicates a failure with the token `receiver`. Used in transfers.",
							"params": {
								"receiver": "Address to which tokens are being transferred."
							}
						}
					],
					"ERC721InvalidSender(address)": [
						{
							"details": "Indicates a failure with the token `sender`. Used in transfers.",
							"params": {
								"sender": "Address whose tokens are being transferred."
							}
						}
					],
					"ERC721NonexistentToken(uint256)": [
						{
							"details": "Indicates a `tokenId` whose `owner` is the zero address.",
							"params": {
								"tokenId": "Identifier number of a token."
							}
						}
					]
				},
				"events": {
					"Approval(address,address,uint256)": {
						"details": "Emitted when `owner` enables `approved` to manage the `tokenId` token."
					},
					"Transfer(address,address,uint256)": {
						"details": "Emitted when `tokenId` token is transferred from `from` to `to`."
					}
				},
				"kind": "dev",
				"methods": {},
				"version": 1
			},
			"evm": {
				"assembly": "    /* \"contracts/facets/MintFacet.sol\":118:591  contract MintFacet {... */\n  mstore(0x40, 0x80)\n  callvalue\n  dup1\n  iszero\n  tag_1\n  jumpi\n  revert(0x00, 0x00)\ntag_1:\n  pop\n  dataSize(sub_0)\n  dup1\n  dataOffset(sub_0)\n  0x00\n  codecopy\n  0x00\n  return\nstop\n\nsub_0: assembly {\n        /* \"contracts/facets/MintFacet.sol\":118:591  contract MintFacet {... */\n      mstore(0x40, 0x80)\n      jumpi(tag_1, lt(calldatasize, 0x04))\n      shr(0xe0, calldataload(0x00))\n      dup1\n      0x40c10f19\n      eq\n      tag_2\n      jumpi\n      dup1\n      0x42966c68\n      eq\n      tag_3\n      jumpi\n      dup1\n      0x722713f7\n      eq\n      tag_4\n      jumpi\n      dup1\n      0xa1448194\n      eq\n      tag_2\n      jumpi\n    tag_1:\n      revert(0x00, 0x00)\n        /* \"contracts/facets/MintFacet.sol\":146:257  function mint(address _to, uint256 _tokenId) external payable {... */\n    tag_2:\n      tag_6\n      tag_7\n      calldatasize\n      0x04\n      tag_8\n      jump\t// in\n    tag_7:\n      tag_9\n      jump\t// in\n    tag_6:\n      stop\n        /* \"contracts/facets/MintFacet.sol\":501:586  function burn(uint256 _tokenId) external {... */\n    tag_3:\n      callvalue\n      dup1\n      iszero\n      tag_10\n      jumpi\n      revert(0x00, 0x00)\n    tag_10:\n      pop\n      tag_6\n      tag_12\n      calldatasize\n      0x04\n      tag_13\n      jump\t// in\n    tag_12:\n      tag_14\n      jump\t// in\n        /* \"contracts/facets/MintFacet.sol\":265:370  function balanceOf() external view returns (uint) {... */\n    tag_4:\n      callvalue\n      dup1\n      iszero\n      tag_15\n      jumpi\n      revert(0x00, 0x00)\n    tag_15:\n      pop\n        /* \"contracts/facets/MintFacet.sol\":333:354  address(this).balance */\n      selfbalance\n        /* \"contracts/facets/MintFacet.sol\":265:370  function balanceOf() external view returns (uint) {... */\n      mload(0x40)\n        /* \"#utility.yul\":802:827   */\n      swap1\n      dup2\n      mstore\n        /* \"#utility.yul\":790:792   */\n      0x20\n        /* \"#utility.yul\":775:793   */\n      add\n        /* \"contracts/facets/MintFacet.sol\":265:370  function balanceOf() external view returns (uint) {... */\n      mload(0x40)\n      dup1\n      swap2\n      sub\n      swap1\n      return\n        /* \"contracts/facets/MintFacet.sol\":146:257  function mint(address _to, uint256 _tokenId) external payable {... */\n    tag_9:\n        /* \"contracts/facets/MintFacet.sol\":219:249  LibERC721._mint(_to, _tokenId) */\n      tag_24\n        /* \"contracts/facets/MintFacet.sol\":235:238  _to */\n      dup3\n        /* \"contracts/facets/MintFacet.sol\":240:248  _tokenId */\n      dup3\n        /* \"contracts/facets/MintFacet.sol\":219:234  LibERC721._mint */\n      tag_25\n        /* \"contracts/facets/MintFacet.sol\":219:249  LibERC721._mint(_to, _tokenId) */\n      jump\t// in\n    tag_24:\n        /* \"contracts/facets/MintFacet.sol\":146:257  function mint(address _to, uint256 _tokenId) external payable {... */\n      pop\n      pop\n      jump\t// out\n        /* \"contracts/facets/MintFacet.sol\":501:586  function burn(uint256 _tokenId) external {... */\n    tag_14:\n        /* \"contracts/facets/MintFacet.sol\":553:578  LibERC721._burn(_tokenId) */\n      tag_27\n        /* \"contracts/facets/MintFacet.sol\":569:577  _tokenId */\n      dup2\n        /* \"contracts/facets/MintFacet.sol\":553:568  LibERC721._burn */\n      tag_28\n        /* \"contracts/facets/MintFacet.sol\":553:578  LibERC721._burn(_tokenId) */\n      jump\t// in\n    tag_27:\n        /* \"contracts/facets/MintFacet.sol\":501:586  function burn(uint256 _tokenId) external {... */\n      pop\n      jump\t// out\n        /* \"contracts/libraries/LibERC721.sol\":10866:11227  function _mint(address to, uint256 tokenId) internal {... */\n    tag_25:\n      sub(shl(0xa0, 0x01), 0x01)\n        /* \"contracts/libraries/LibERC721.sol\":10934:10950  to == address(0) */\n      dup3\n      and\n        /* \"contracts/libraries/LibERC721.sol\":10930:11032  if (to == address(0)) {... */\n      tag_33\n      jumpi\n        /* \"contracts/libraries/LibERC721.sol\":10974:11020  ERC721Errors.ERC721InvalidReceiver(address(0)) */\n      mload(0x40)\n      shl(0xe1, 0x32505749)\n      dup2\n      mstore\n        /* \"contracts/libraries/LibERC721.sol\":11017:11018  0 */\n      0x00\n        /* \"contracts/libraries/LibERC721.sol\":10974:11020  ERC721Errors.ERC721InvalidReceiver(address(0)) */\n      0x04\n      dup3\n      add\n        /* \"#utility.yul\":984:1035   */\n      mstore\n        /* \"#utility.yul\":957:975   */\n      0x24\n      add\n        /* \"contracts/libraries/LibERC721.sol\":10974:11020  ERC721Errors.ERC721InvalidReceiver(address(0)) */\n    tag_34:\n      mload(0x40)\n      dup1\n      swap2\n      sub\n      swap1\n      revert\n        /* \"contracts/libraries/LibERC721.sol\":10930:11032  if (to == address(0)) {... */\n    tag_33:\n        /* \"contracts/libraries/LibERC721.sol\":11042:11063  address previousOwner */\n      0x00\n        /* \"contracts/libraries/LibERC721.sol\":11066:11098  _update(to, tokenId, address(0)) */\n      tag_36\n        /* \"contracts/libraries/LibERC721.sol\":11074:11076  to */\n      dup4\n        /* \"contracts/libraries/LibERC721.sol\":11078:11085  tokenId */\n      dup4\n        /* \"contracts/libraries/LibERC721.sol\":11095:11096  0 */\n      0x00\n        /* \"contracts/libraries/LibERC721.sol\":11066:11073  _update */\n      tag_37\n        /* \"contracts/libraries/LibERC721.sol\":11066:11098  _update(to, tokenId, address(0)) */\n      jump\t// in\n    tag_36:\n        /* \"contracts/libraries/LibERC721.sol\":11042:11098  address previousOwner = _update(to, tokenId, address(0)) */\n      swap1\n      pop\n      sub(shl(0xa0, 0x01), 0x01)\n        /* \"contracts/libraries/LibERC721.sol\":11113:11140  previousOwner != address(0) */\n      dup2\n      and\n      iszero\n        /* \"contracts/libraries/LibERC721.sol\":11109:11220  if (previousOwner != address(0)) {... */\n      tag_38\n      jumpi\n        /* \"contracts/libraries/LibERC721.sol\":11164:11208  ERC721Errors.ERC721InvalidSender(address(0)) */\n      mload(0x40)\n      shl(0xe1, 0x39e35637)\n      dup2\n      mstore\n        /* \"contracts/libraries/LibERC721.sol\":11205:11206  0 */\n      0x00\n        /* \"contracts/libraries/LibERC721.sol\":11164:11208  ERC721Errors.ERC721InvalidSender(address(0)) */\n      0x04\n      dup3\n      add\n        /* \"#utility.yul\":984:1035   */\n      mstore\n        /* \"#utility.yul\":957:975   */\n      0x24\n      add\n        /* \"contracts/libraries/LibERC721.sol\":11164:11208  ERC721Errors.ERC721InvalidSender(address(0)) */\n      tag_34\n        /* \"#utility.yul\":838:1041   */\n      jump\n        /* \"contracts/libraries/LibERC721.sol\":11109:11220  if (previousOwner != address(0)) {... */\n    tag_38:\n        /* \"contracts/libraries/LibERC721.sol\":10919:11227  {... */\n      pop\n        /* \"contracts/libraries/LibERC721.sol\":10866:11227  function _mint(address to, uint256 tokenId) internal {... */\n      pop\n      pop\n      jump\t// out\n        /* \"contracts/libraries/LibERC721.sol\":12480:12725  function _burn(uint256 tokenId) internal {... */\n    tag_28:\n        /* \"contracts/libraries/LibERC721.sol\":12532:12553  address previousOwner */\n      0x00\n        /* \"contracts/libraries/LibERC721.sol\":12556:12596  _update(address(0), tokenId, address(0)) */\n      tag_41\n        /* \"contracts/libraries/LibERC721.sol\":12572:12573  0 */\n      0x00\n        /* \"contracts/libraries/LibERC721.sol\":12576:12583  tokenId */\n      dup4\n        /* \"contracts/libraries/LibERC721.sol\":12593:12594  0 */\n      0x00\n        /* \"contracts/libraries/LibERC721.sol\":12556:12563  _update */\n      tag_37\n        /* \"contracts/libraries/LibERC721.sol\":12556:12596  _update(address(0), tokenId, address(0)) */\n      jump\t// in\n    tag_41:\n        /* \"contracts/libraries/LibERC721.sol\":12532:12596  address previousOwner = _update(address(0), tokenId, address(0)) */\n      swap1\n      pop\n      sub(shl(0xa0, 0x01), 0x01)\n        /* \"contracts/libraries/LibERC721.sol\":12611:12638  previousOwner == address(0) */\n      dup2\n      and\n        /* \"contracts/libraries/LibERC721.sol\":12607:12718  if (previousOwner == address(0)) {... */\n      tag_24\n      jumpi\n        /* \"contracts/libraries/LibERC721.sol\":12662:12706  ERC721Errors.ERC721NonexistentToken(tokenId) */\n      mload(0x40)\n      shl(0xe0, 0x7e273289)\n      dup2\n      mstore\n      0x04\n      dup2\n      add\n        /* \"#utility.yul\":802:827   */\n      dup4\n      swap1\n      mstore\n        /* \"#utility.yul\":775:793   */\n      0x24\n      add\n        /* \"contracts/libraries/LibERC721.sol\":12662:12706  ERC721Errors.ERC721NonexistentToken(tokenId) */\n      tag_34\n        /* \"#utility.yul\":656:833   */\n      jump\n        /* \"contracts/libraries/LibERC721.sol\":5106:6475  function _update(... */\n    tag_37:\n        /* \"contracts/libraries/LibERC721.sol\":5218:5225  address */\n      0x00\n        /* \"contracts/libraries/LibERC721.sol\":5238:5259  address previousOwner */\n      0x00\n        /* \"contracts/libraries/LibERC721.sol\":5262:5279  _ownerOf(tokenId) */\n      tag_45\n        /* \"contracts/libraries/LibERC721.sol\":5271:5278  tokenId */\n      dup5\n        /* \"contracts/libraries/LibERC721.sol\":5262:5270  _ownerOf */\n      tag_46\n        /* \"contracts/libraries/LibERC721.sol\":5262:5279  _ownerOf(tokenId) */\n      jump\t// in\n    tag_45:\n        /* \"contracts/libraries/LibERC721.sol\":5238:5279  address previousOwner = _ownerOf(tokenId) */\n      swap1\n      pop\n      sub(shl(0xa0, 0x01), 0x01)\n        /* \"contracts/libraries/LibERC721.sol\":5342:5360  auth != address(0) */\n      dup4\n      and\n      iszero\n        /* \"contracts/libraries/LibERC721.sol\":5338:5435  if (auth != address(0)) {... */\n      tag_48\n      jumpi\n        /* \"contracts/libraries/LibERC721.sol\":5377:5423  _checkAuthorized(previousOwner, auth, tokenId) */\n      tag_48\n        /* \"contracts/libraries/LibERC721.sol\":5394:5407  previousOwner */\n      dup2\n        /* \"contracts/libraries/LibERC721.sol\":5409:5413  auth */\n      dup5\n        /* \"contracts/libraries/LibERC721.sol\":5415:5422  tokenId */\n      dup7\n        /* \"contracts/libraries/LibERC721.sol\":5377:5393  _checkAuthorized */\n      tag_49\n        /* \"contracts/libraries/LibERC721.sol\":5377:5423  _checkAuthorized(previousOwner, auth, tokenId) */\n      jump\t// in\n    tag_48:\n      sub(shl(0xa0, 0x01), 0x01)\n        /* \"contracts/libraries/LibERC721.sol\":5482:5509  previousOwner != address(0) */\n      dup2\n      and\n      iszero\n        /* \"contracts/libraries/LibERC721.sol\":5478:5767  if (previousOwner != address(0)) {... */\n      tag_50\n      jumpi\n        /* \"contracts/libraries/LibERC721.sol\":5609:5657  _approve(address(0), tokenId, address(0), false) */\n      tag_51\n        /* \"contracts/libraries/LibERC721.sol\":5626:5627  0 */\n      0x00\n        /* \"contracts/libraries/LibERC721.sol\":5630:5637  tokenId */\n      dup6\n        /* \"contracts/libraries/LibERC721.sol\":5647:5648  0 */\n      0x00\n        /* \"contracts/libraries/LibERC721.sol\":5651:5656  false */\n      0x00\n        /* \"contracts/libraries/LibERC721.sol\":5609:5617  _approve */\n      tag_52\n        /* \"contracts/libraries/LibERC721.sol\":5609:5657  _approve(address(0), tokenId, address(0), false) */\n      jump\t// in\n    tag_51:\n        /* \"contracts/libraries/LibERC721.sol\":5739:5740  1 */\n      0x01\n        /* \"contracts/libraries/LibERC721.sol\":5703:5711  layout() */\n      tag_53\n        /* \"contracts/libraries/LibERC721.sol\":5703:5709  layout */\n      tag_54\n        /* \"contracts/libraries/LibERC721.sol\":5703:5711  layout() */\n      jump\t// in\n    tag_53:\n      sub(shl(0xa0, 0x01), 0x01)\n        /* \"contracts/libraries/LibERC721.sol\":5703:5735  layout().balances[previousOwner] */\n      dup4\n      and\n      0x00\n      swap1\n      dup2\n      mstore\n        /* \"contracts/libraries/LibERC721.sol\":5703:5720  layout().balances */\n      0x04\n      swap2\n      swap1\n      swap2\n      add\n        /* \"contracts/libraries/LibERC721.sol\":5703:5735  layout().balances[previousOwner] */\n      0x20\n      mstore\n      0x40\n      swap1\n      keccak256\n        /* \"contracts/libraries/LibERC721.sol\":5703:5740  layout().balances[previousOwner] -= 1 */\n      dup1\n      sload\n      swap2\n      swap1\n      swap2\n      sub\n      swap1\n      sstore\n        /* \"contracts/libraries/LibERC721.sol\":5478:5767  if (previousOwner != address(0)) {... */\n    tag_50:\n      sub(shl(0xa0, 0x01), 0x01)\n        /* \"contracts/libraries/LibERC721.sol\":5783:5799  to != address(0) */\n      dup6\n      and\n      iszero\n        /* \"contracts/libraries/LibERC721.sol\":5779:5898  if (to != address(0)) {... */\n      tag_55\n      jumpi\n        /* \"contracts/libraries/LibERC721.sol\":5870:5871  1 */\n      0x01\n        /* \"contracts/libraries/LibERC721.sol\":5845:5853  layout() */\n      tag_56\n        /* \"contracts/libraries/LibERC721.sol\":5845:5851  layout */\n      tag_54\n        /* \"contracts/libraries/LibERC721.sol\":5845:5853  layout() */\n      jump\t// in\n    tag_56:\n      sub(shl(0xa0, 0x01), 0x01)\n        /* \"contracts/libraries/LibERC721.sol\":5845:5866  layout().balances[to] */\n      dup8\n      and\n      0x00\n      swap1\n      dup2\n      mstore\n        /* \"contracts/libraries/LibERC721.sol\":5845:5862  layout().balances */\n      0x04\n      swap2\n      swap1\n      swap2\n      add\n        /* \"contracts/libraries/LibERC721.sol\":5845:5866  layout().balances[to] */\n      0x20\n      mstore\n      0x40\n      swap1\n      keccak256\n        /* \"contracts/libraries/LibERC721.sol\":5845:5871  layout().balances[to] += 1 */\n      dup1\n      sload\n      swap1\n      swap2\n      add\n      swap1\n      sstore\n        /* \"contracts/libraries/LibERC721.sol\":5779:5898  if (to != address(0)) {... */\n    tag_55:\n        /* \"contracts/libraries/LibERC721.sol\":5937:5939  to */\n      dup5\n        /* \"contracts/libraries/LibERC721.sol\":5910:5918  layout() */\n      tag_57\n        /* \"contracts/libraries/LibERC721.sol\":5910:5916  layout */\n      tag_54\n        /* \"contracts/libraries/LibERC721.sol\":5910:5918  layout() */\n      jump\t// in\n    tag_57:\n        /* \"contracts/libraries/LibERC721.sol\":5910:5934  layout().owners[tokenId] */\n      0x00\n      dup7\n      dup2\n      mstore\n        /* \"contracts/libraries/LibERC721.sol\":5910:5925  layout().owners */\n      0x03\n      swap2\n      swap1\n      swap2\n      add\n        /* \"contracts/libraries/LibERC721.sol\":5910:5934  layout().owners[tokenId] */\n      0x20\n      mstore\n      0x40\n      dup1\n      dup3\n      keccak256\n        /* \"contracts/libraries/LibERC721.sol\":5910:5939  layout().owners[tokenId] = to */\n      dup1\n      sload\n      not(sub(shl(0xa0, 0x01), 0x01))\n      and\n      sub(shl(0xa0, 0x01), 0x01)\n      swap5\n      dup6\n      and\n      or\n      swap1\n      sstore\n        /* \"contracts/libraries/LibERC721.sol\":5957:6006  ERC721Events.Transfer(previousOwner, to, tokenId) */\n      mload\n        /* \"contracts/libraries/LibERC721.sol\":5910:5934  layout().owners[tokenId] */\n      dup7\n      swap3\n        /* \"contracts/libraries/LibERC721.sol\":5957:6006  ERC721Events.Transfer(previousOwner, to, tokenId) */\n      dup9\n      dup2\n      and\n      swap3\n      swap1\n      dup6\n      and\n      swap2\n      0xddf252ad1be2c89b69c2b068fc378daa952ba7f163c4a11628f55a4df523b3ef\n      swap2\n        /* \"contracts/libraries/LibERC721.sol\":5910:5934  layout().owners[tokenId] */\n      swap1\n        /* \"contracts/libraries/LibERC721.sol\":5957:6006  ERC721Events.Transfer(previousOwner, to, tokenId) */\n      log4\n      sub(shl(0xa0, 0x01), 0x01)\n        /* \"contracts/libraries/LibERC721.sol\":6023:6050  previousOwner == address(0) */\n      dup2\n      and\n        /* \"contracts/libraries/LibERC721.sol\":6019:6233  if (previousOwner == address(0)) {... */\n      tag_58\n      jumpi\n        /* \"contracts/libraries/LibERC721.sol\":6067:6107  _addTokenToAllTokensEnumeration(tokenId) */\n      tag_59\n        /* \"contracts/libraries/LibERC721.sol\":6099:6106  tokenId */\n      dup5\n        /* \"contracts/libraries/LibERC721.sol\":6067:6098  _addTokenToAllTokensEnumeration */\n      tag_60\n        /* \"contracts/libraries/LibERC721.sol\":6067:6107  _addTokenToAllTokensEnumeration(tokenId) */\n      jump\t// in\n    tag_59:\n        /* \"contracts/libraries/LibERC721.sol\":6019:6233  if (previousOwner == address(0)) {... */\n      jump(tag_63)\n    tag_58:\n        /* \"contracts/libraries/LibERC721.sol\":6146:6148  to */\n      dup5\n      sub(shl(0xa0, 0x01), 0x01)\n        /* \"contracts/libraries/LibERC721.sol\":6129:6148  previousOwner != to */\n      and\n        /* \"contracts/libraries/LibERC721.sol\":6129:6142  previousOwner */\n      dup2\n      sub(shl(0xa0, 0x01), 0x01)\n        /* \"contracts/libraries/LibERC721.sol\":6129:6148  previousOwner != to */\n      and\n      eq\n        /* \"contracts/libraries/LibERC721.sol\":6125:6233  if (previousOwner != to) {... */\n      tag_63\n      jumpi\n        /* \"contracts/libraries/LibERC721.sol\":6165:6221  _removeTokenFromOwnerEnumeration(previousOwner, tokenId) */\n      tag_63\n        /* \"contracts/libraries/LibERC721.sol\":6198:6211  previousOwner */\n      dup2\n        /* \"contracts/libraries/LibERC721.sol\":6213:6220  tokenId */\n      dup6\n        /* \"contracts/libraries/LibERC721.sol\":6165:6197  _removeTokenFromOwnerEnumeration */\n      tag_64\n        /* \"contracts/libraries/LibERC721.sol\":6165:6221  _removeTokenFromOwnerEnumeration(previousOwner, tokenId) */\n      jump\t// in\n    tag_63:\n      sub(shl(0xa0, 0x01), 0x01)\n        /* \"contracts/libraries/LibERC721.sol\":6247:6263  to == address(0) */\n      dup6\n      and\n        /* \"contracts/libraries/LibERC721.sol\":6243:6435  if (to == address(0)) {... */\n      tag_65\n      jumpi\n        /* \"contracts/libraries/LibERC721.sol\":6280:6325  _removeTokenFromAllTokensEnumeration(tokenId) */\n      tag_66\n        /* \"contracts/libraries/LibERC721.sol\":6317:6324  tokenId */\n      dup5\n        /* \"contracts/libraries/LibERC721.sol\":6280:6316  _removeTokenFromAllTokensEnumeration */\n      tag_67\n        /* \"contracts/libraries/LibERC721.sol\":6280:6325  _removeTokenFromAllTokensEnumeration(tokenId) */\n      jump\t// in\n    tag_66:\n        /* \"contracts/libraries/LibERC721.sol\":6243:6435  if (to == address(0)) {... */\n      jump(tag_70)\n    tag_65:\n        /* \"contracts/libraries/LibERC721.sol\":6364:6366  to */\n      dup5\n      sub(shl(0xa0, 0x01), 0x01)\n        /* \"contracts/libraries/LibERC721.sol\":6347:6366  previousOwner != to */\n      and\n        /* \"contracts/libraries/LibERC721.sol\":6347:6360  previousOwner */\n      dup2\n      sub(shl(0xa0, 0x01), 0x01)\n        /* \"contracts/libraries/LibERC721.sol\":6347:6366  previousOwner != to */\n      and\n      eq\n        /* \"contracts/libraries/LibERC721.sol\":6343:6435  if (previousOwner != to) {... */\n      tag_70\n      jumpi\n        /* \"contracts/libraries/LibERC721.sol\":6383:6423  _addTokenToOwnerEnumeration(to, tokenId) */\n      tag_70\n        /* \"contracts/libraries/LibERC721.sol\":6411:6413  to */\n      dup6\n        /* \"contracts/libraries/LibERC721.sol\":6415:6422  tokenId */\n      dup6\n        /* \"contracts/libraries/LibERC721.sol\":6383:6410  _addTokenToOwnerEnumeration */\n      tag_71\n        /* \"contracts/libraries/LibERC721.sol\":6383:6423  _addTokenToOwnerEnumeration(to, tokenId) */\n      jump\t// in\n    tag_70:\n        /* \"contracts/libraries/LibERC721.sol\":6454:6467  previousOwner */\n      swap5\n        /* \"contracts/libraries/LibERC721.sol\":5106:6475  function _update(... */\n      swap4\n      pop\n      pop\n      pop\n      pop\n      jump\t// out\n        /* \"contracts/libraries/LibERC721.sol\":1612:1729  function _ownerOf(uint256 tokenId) internal view returns (address) {... */\n    tag_46:\n        /* \"contracts/libraries/LibERC721.sol\":1670:1677  address */\n      0x00\n        /* \"contracts/libraries/LibERC721.sol\":1697:1705  layout() */\n      tag_73\n        /* \"contracts/libraries/LibERC721.sol\":1697:1703  layout */\n      tag_54\n        /* \"contracts/libraries/LibERC721.sol\":1697:1705  layout() */\n      jump\t// in\n    tag_73:\n        /* \"contracts/libraries/LibERC721.sol\":1697:1721  layout().owners[tokenId] */\n      0x00\n      swap3\n      dup4\n      mstore\n        /* \"contracts/libraries/LibERC721.sol\":1697:1712  layout().owners */\n      0x03\n      add\n        /* \"contracts/libraries/LibERC721.sol\":1697:1721  layout().owners[tokenId] */\n      0x20\n      mstore\n      pop\n      0x40\n      swap1\n      keccak256\n      sload\n      sub(shl(0xa0, 0x01), 0x01)\n      and\n      swap1\n        /* \"contracts/libraries/LibERC721.sol\":1612:1729  function _ownerOf(uint256 tokenId) internal view returns (address) {... */\n      jump\t// out\n        /* \"contracts/libraries/LibERC721.sol\":3089:3578  function _checkAuthorized(... */\n    tag_49:\n        /* \"contracts/libraries/LibERC721.sol\":3228:3266  _isAuthorized(owner, spender, tokenId) */\n      tag_75\n        /* \"contracts/libraries/LibERC721.sol\":3242:3247  owner */\n      dup4\n        /* \"contracts/libraries/LibERC721.sol\":3249:3256  spender */\n      dup4\n        /* \"contracts/libraries/LibERC721.sol\":3258:3265  tokenId */\n      dup4\n        /* \"contracts/libraries/LibERC721.sol\":3228:3241  _isAuthorized */\n      tag_76\n        /* \"contracts/libraries/LibERC721.sol\":3228:3266  _isAuthorized(owner, spender, tokenId) */\n      jump\t// in\n    tag_75:\n        /* \"contracts/libraries/LibERC721.sol\":3223:3571  if (!_isAuthorized(owner, spender, tokenId)) {... */\n      tag_38\n      jumpi\n      sub(shl(0xa0, 0x01), 0x01)\n        /* \"contracts/libraries/LibERC721.sol\":3287:3306  owner == address(0) */\n      dup4\n      and\n        /* \"contracts/libraries/LibERC721.sol\":3283:3560  if (owner == address(0)) {... */\n      tag_78\n      jumpi\n        /* \"contracts/libraries/LibERC721.sol\":3334:3378  ERC721Errors.ERC721NonexistentToken(tokenId) */\n      mload(0x40)\n      shl(0xe0, 0x7e273289)\n      dup2\n      mstore\n      0x04\n      dup2\n      add\n        /* \"#utility.yul\":802:827   */\n      dup3\n      swap1\n      mstore\n        /* \"#utility.yul\":775:793   */\n      0x24\n      add\n        /* \"contracts/libraries/LibERC721.sol\":3334:3378  ERC721Errors.ERC721NonexistentToken(tokenId) */\n      tag_34\n        /* \"#utility.yul\":656:833   */\n      jump\n        /* \"contracts/libraries/LibERC721.sol\":3283:3560  if (owner == address(0)) {... */\n    tag_78:\n        /* \"contracts/libraries/LibERC721.sol\":3426:3544  ERC721Errors.ERC721InsufficientApproval(... */\n      mload(0x40)\n      shl(0xe0, 0x177e802f)\n      dup2\n      mstore\n      sub(shl(0xa0, 0x01), 0x01)\n        /* \"#utility.yul\":1238:1270   */\n      dup4\n      and\n        /* \"contracts/libraries/LibERC721.sol\":3426:3544  ERC721Errors.ERC721InsufficientApproval(... */\n      0x04\n      dup3\n      add\n        /* \"#utility.yul\":1220:1271   */\n      mstore\n        /* \"#utility.yul\":1287:1305   */\n      0x24\n      dup2\n      add\n        /* \"#utility.yul\":1280:1314   */\n      dup3\n      swap1\n      mstore\n        /* \"#utility.yul\":1193:1211   */\n      0x44\n      add\n        /* \"contracts/libraries/LibERC721.sol\":3426:3544  ERC721Errors.ERC721InsufficientApproval(... */\n      tag_34\n        /* \"#utility.yul\":1046:1320   */\n      jump\n        /* \"contracts/libraries/LibERC721.sol\":15983:16806  function _approve(... */\n    tag_52:\n        /* \"contracts/libraries/LibERC721.sol\":16180:16189  emitEvent */\n      dup1\n        /* \"contracts/libraries/LibERC721.sol\":16180:16211  emitEvent || auth != address(0) */\n      dup1\n      tag_84\n      jumpi\n      pop\n      sub(shl(0xa0, 0x01), 0x01)\n        /* \"contracts/libraries/LibERC721.sol\":16193:16211  auth != address(0) */\n      dup3\n      and\n      iszero\n      iszero\n        /* \"contracts/libraries/LibERC721.sol\":16180:16211  emitEvent || auth != address(0) */\n    tag_84:\n        /* \"contracts/libraries/LibERC721.sol\":16176:16749  if (emitEvent || auth != address(0)) {... */\n      iszero\n      tag_85\n      jumpi\n        /* \"contracts/libraries/LibERC721.sol\":16228:16241  address owner */\n      0x00\n        /* \"contracts/libraries/LibERC721.sol\":16244:16266  _requireOwned(tokenId) */\n      tag_86\n        /* \"contracts/libraries/LibERC721.sol\":16258:16265  tokenId */\n      dup5\n        /* \"contracts/libraries/LibERC721.sol\":16244:16257  _requireOwned */\n      tag_87\n        /* \"contracts/libraries/LibERC721.sol\":16244:16266  _requireOwned(tokenId) */\n      jump\t// in\n    tag_86:\n        /* \"contracts/libraries/LibERC721.sol\":16228:16266  address owner = _requireOwned(tokenId) */\n      swap1\n      pop\n      sub(shl(0xa0, 0x01), 0x01)\n        /* \"contracts/libraries/LibERC721.sol\":16415:16433  auth != address(0) */\n      dup4\n      and\n      iszero\n      dup1\n      iszero\n      swap1\n        /* \"contracts/libraries/LibERC721.sol\":16415:16467  auth != address(0) &&... */\n      tag_88\n      jumpi\n      pop\n        /* \"contracts/libraries/LibERC721.sol\":16463:16467  auth */\n      dup3\n      sub(shl(0xa0, 0x01), 0x01)\n        /* \"contracts/libraries/LibERC721.sol\":16454:16467  owner != auth */\n      and\n        /* \"contracts/libraries/LibERC721.sol\":16454:16459  owner */\n      dup2\n      sub(shl(0xa0, 0x01), 0x01)\n        /* \"contracts/libraries/LibERC721.sol\":16454:16467  owner != auth */\n      and\n      eq\n      iszero\n        /* \"contracts/libraries/LibERC721.sol\":16415:16467  auth != address(0) &&... */\n    tag_88:\n        /* \"contracts/libraries/LibERC721.sol\":16415:16528  auth != address(0) &&... */\n      dup1\n      iszero\n      tag_89\n      jumpi\n      pop\n        /* \"contracts/libraries/LibERC721.sol\":16489:16497  layout() */\n      tag_90\n        /* \"contracts/libraries/LibERC721.sol\":16489:16495  layout */\n      tag_54\n        /* \"contracts/libraries/LibERC721.sol\":16489:16497  layout() */\n      jump\t// in\n    tag_90:\n      sub(shl(0xa0, 0x01), 0x01)\n        /* \"contracts/libraries/LibERC721.sol\":16489:16522  layout().operatorApprovals[owner] */\n      dup1\n      dup4\n      and\n      0x00\n      swap1\n      dup2\n      mstore\n        /* \"contracts/libraries/LibERC721.sol\":16489:16515  layout().operatorApprovals */\n      0x06\n      swap3\n      swap1\n      swap3\n      add\n        /* \"contracts/libraries/LibERC721.sol\":16489:16522  layout().operatorApprovals[owner] */\n      0x20\n      swap1\n      dup2\n      mstore\n      0x40\n      dup1\n      dup5\n      keccak256\n        /* \"contracts/libraries/LibERC721.sol\":16489:16528  layout().operatorApprovals[owner][auth] */\n      swap3\n      dup8\n      and\n      dup5\n      mstore\n      swap2\n      swap1\n      mstore\n      swap1\n      keccak256\n      sload\n      0xff\n      and\n        /* \"contracts/libraries/LibERC721.sol\":16488:16528  !layout().operatorApprovals[owner][auth] */\n      iszero\n        /* \"contracts/libraries/LibERC721.sol\":16415:16528  auth != address(0) &&... */\n    tag_89:\n        /* \"contracts/libraries/LibERC721.sol\":16393:16626  if (... */\n      iszero\n      tag_91\n      jumpi\n        /* \"contracts/libraries/LibERC721.sol\":16570:16610  ERC721Errors.ERC721InvalidApprover(auth) */\n      mload(0x40)\n      shl(0xe0, 0xa9fbf51f)\n      dup2\n      mstore\n      sub(shl(0xa0, 0x01), 0x01)\n        /* \"#utility.yul\":1002:1034   */\n      dup5\n      and\n        /* \"contracts/libraries/LibERC721.sol\":16570:16610  ERC721Errors.ERC721InvalidApprover(auth) */\n      0x04\n      dup3\n      add\n        /* \"#utility.yul\":984:1035   */\n      mstore\n        /* \"#utility.yul\":957:975   */\n      0x24\n      add\n        /* \"contracts/libraries/LibERC721.sol\":16570:16610  ERC721Errors.ERC721InvalidApprover(auth) */\n      tag_34\n        /* \"#utility.yul\":838:1041   */\n      jump\n        /* \"contracts/libraries/LibERC721.sol\":16393:16626  if (... */\n    tag_91:\n        /* \"contracts/libraries/LibERC721.sol\":16646:16655  emitEvent */\n      dup2\n        /* \"contracts/libraries/LibERC721.sol\":16642:16738  if (emitEvent) {... */\n      iszero\n      tag_93\n      jumpi\n        /* \"contracts/libraries/LibERC721.sol\":16714:16721  tokenId */\n      dup4\n        /* \"contracts/libraries/LibERC721.sol\":16710:16712  to */\n      dup6\n      sub(shl(0xa0, 0x01), 0x01)\n        /* \"contracts/libraries/LibERC721.sol\":16681:16722  ERC721Events.Approval(owner, to, tokenId) */\n      and\n        /* \"contracts/libraries/LibERC721.sol\":16703:16708  owner */\n      dup3\n      sub(shl(0xa0, 0x01), 0x01)\n        /* \"contracts/libraries/LibERC721.sol\":16681:16722  ERC721Events.Approval(owner, to, tokenId) */\n      and\n      0x8c5be1e5ebec7d5bd14f71427d1e84f3dd0314c0f7b2291e5b200ac8c7c3b925\n      mload(0x40)\n      mload(0x40)\n      dup1\n      swap2\n      sub\n      swap1\n      log4\n        /* \"contracts/libraries/LibERC721.sol\":16642:16738  if (emitEvent) {... */\n    tag_93:\n        /* \"contracts/libraries/LibERC721.sol\":16213:16749  {... */\n      pop\n        /* \"contracts/libraries/LibERC721.sol\":16176:16749  if (emitEvent || auth != address(0)) {... */\n    tag_85:\n        /* \"contracts/libraries/LibERC721.sol\":16796:16798  to */\n      dup4\n        /* \"contracts/libraries/LibERC721.sol\":16761:16769  layout() */\n      tag_94\n        /* \"contracts/libraries/LibERC721.sol\":16761:16767  layout */\n      tag_54\n        /* \"contracts/libraries/LibERC721.sol\":16761:16769  layout() */\n      jump\t// in\n    tag_94:\n        /* \"contracts/libraries/LibERC721.sol\":16761:16793  layout().tokenApprovals[tokenId] */\n      0x00\n      swap5\n      dup6\n      mstore\n        /* \"contracts/libraries/LibERC721.sol\":16761:16784  layout().tokenApprovals */\n      0x05\n      add\n        /* \"contracts/libraries/LibERC721.sol\":16761:16793  layout().tokenApprovals[tokenId] */\n      0x20\n      mstore\n      0x40\n      swap1\n      swap4\n      keccak256\n        /* \"contracts/libraries/LibERC721.sol\":16761:16798  layout().tokenApprovals[tokenId] = to */\n      dup1\n      sload\n      not(sub(shl(0xa0, 0x01), 0x01))\n      and\n      sub(shl(0xa0, 0x01), 0x01)\n      swap1\n      swap5\n      and\n      swap4\n      swap1\n      swap4\n      or\n      swap1\n      swap3\n      sstore\n      pop\n      pop\n      pop\n        /* \"contracts/libraries/LibERC721.sol\":15983:16806  function _approve(... */\n      jump\t// out\n        /* \"contracts/libraries/LibERC721.sol\":923:1087  function layout() internal pure returns (Layout storage l) {... */\n    tag_54:\n        /* \"contracts/libraries/LibERC721.sol\":296:331  keccak256(\"diamond.storage.erc721\") */\n      0xf2dec0acaef95de6625646379d631adff4db9f6c79b84a31adcb9a23bf6cea78\n      swap1\n        /* \"contracts/libraries/LibERC721.sol\":923:1087  function layout() internal pure returns (Layout storage l) {... */\n      jump\t// out\n        /* \"contracts/libraries/LibERC721.sol\":7220:7409  function _addTokenToAllTokensEnumeration(uint256 tokenId) internal {... */\n    tag_60:\n        /* \"contracts/libraries/LibERC721.sol\":7333:7341  layout() */\n      tag_97\n        /* \"contracts/libraries/LibERC721.sol\":7333:7339  layout */\n      tag_54\n        /* \"contracts/libraries/LibERC721.sol\":7333:7341  layout() */\n      jump\t// in\n    tag_97:\n        /* \"contracts/libraries/LibERC721.sol\":7333:7351  layout().allTokens */\n      0x02\n      add\n        /* \"contracts/libraries/LibERC721.sol\":7333:7358  layout().allTokens.length */\n      sload\n        /* \"contracts/libraries/LibERC721.sol\":7298:7306  layout() */\n      tag_98\n        /* \"contracts/libraries/LibERC721.sol\":7298:7304  layout */\n      tag_54\n        /* \"contracts/libraries/LibERC721.sol\":7298:7306  layout() */\n      jump\t// in\n    tag_98:\n        /* \"contracts/libraries/LibERC721.sol\":7298:7330  layout().allTokensIndex[tokenId] */\n      0x00\n      dup4\n      dup2\n      mstore\n        /* \"contracts/libraries/LibERC721.sol\":7298:7321  layout().allTokensIndex */\n      0x09\n      swap2\n      swap1\n      swap2\n      add\n        /* \"contracts/libraries/LibERC721.sol\":7298:7330  layout().allTokensIndex[tokenId] */\n      0x20\n      mstore\n      0x40\n      swap1\n      keccak256\n        /* \"contracts/libraries/LibERC721.sol\":7298:7358  layout().allTokensIndex[tokenId] = layout().allTokens.length */\n      sstore\n        /* \"contracts/libraries/LibERC721.sol\":7369:7377  layout() */\n      tag_99\n        /* \"contracts/libraries/LibERC721.sol\":7369:7375  layout */\n      tag_54\n        /* \"contracts/libraries/LibERC721.sol\":7369:7377  layout() */\n      jump\t// in\n    tag_99:\n        /* \"contracts/libraries/LibERC721.sol\":7369:7387  layout().allTokens */\n      0x02\n      add\n        /* \"contracts/libraries/LibERC721.sol\":7369:7401  layout().allTokens.push(tokenId) */\n      dup1\n      sload\n      0x01\n      dup2\n      add\n      dup3\n      sstore\n      0x00\n      swap2\n      dup3\n      mstore\n      0x20\n      swap1\n      swap2\n      keccak256\n      add\n      sstore\n        /* \"contracts/libraries/LibERC721.sol\":7220:7409  function _addTokenToAllTokensEnumeration(uint256 tokenId) internal {... */\n      jump\t// out\n        /* \"contracts/libraries/LibERC721.sol\":8036:9095  function _removeTokenFromOwnerEnumeration(... */\n    tag_64:\n        /* \"contracts/libraries/LibERC721.sol\":8328:8350  uint256 lastTokenIndex */\n      0x00\n        /* \"contracts/libraries/LibERC721.sol\":8353:8361  layout() */\n      tag_102\n        /* \"contracts/libraries/LibERC721.sol\":8353:8359  layout */\n      tag_54\n        /* \"contracts/libraries/LibERC721.sol\":8353:8361  layout() */\n      jump\t// in\n    tag_102:\n      sub(shl(0xa0, 0x01), 0x01)\n        /* \"contracts/libraries/LibERC721.sol\":8353:8376  layout().balances[from] */\n      dup5\n      and\n      0x00\n      swap1\n      dup2\n      mstore\n        /* \"contracts/libraries/LibERC721.sol\":8353:8370  layout().balances */\n      0x04\n      swap2\n      swap1\n      swap2\n      add\n        /* \"contracts/libraries/LibERC721.sol\":8353:8376  layout().balances[from] */\n      0x20\n      mstore\n      0x40\n      dup2\n      keccak256\n      sload\n      swap2\n      pop\n        /* \"contracts/libraries/LibERC721.sol\":8408:8416  layout() */\n      tag_103\n        /* \"contracts/libraries/LibERC721.sol\":8408:8414  layout */\n      tag_54\n        /* \"contracts/libraries/LibERC721.sol\":8408:8416  layout() */\n      jump\t// in\n    tag_103:\n        /* \"contracts/libraries/LibERC721.sol\":8408:8442  layout().ownedTokensIndex[tokenId] */\n      0x00\n      dup5\n      dup2\n      mstore\n        /* \"contracts/libraries/LibERC721.sol\":8408:8433  layout().ownedTokensIndex */\n      0x08\n      swap2\n      swap1\n      swap2\n      add\n        /* \"contracts/libraries/LibERC721.sol\":8408:8442  layout().ownedTokensIndex[tokenId] */\n      0x20\n      mstore\n      0x40\n      swap1\n      keccak256\n      sload\n      swap1\n      pop\n        /* \"contracts/libraries/LibERC721.sol\":8549:8577  tokenIndex != lastTokenIndex */\n      dup2\n      dup2\n      eq\n        /* \"contracts/libraries/LibERC721.sol\":8545:8897  if (tokenIndex != lastTokenIndex) {... */\n      tag_104\n      jumpi\n        /* \"contracts/libraries/LibERC721.sol\":8594:8613  uint256 lastTokenId */\n      0x00\n        /* \"contracts/libraries/LibERC721.sol\":8616:8624  layout() */\n      tag_105\n        /* \"contracts/libraries/LibERC721.sol\":8616:8622  layout */\n      tag_54\n        /* \"contracts/libraries/LibERC721.sol\":8616:8624  layout() */\n      jump\t// in\n    tag_105:\n      sub(shl(0xa0, 0x01), 0x01)\n        /* \"contracts/libraries/LibERC721.sol\":8616:8642  layout().ownedTokens[from] */\n      dup7\n      and\n      0x00\n      swap1\n      dup2\n      mstore\n        /* \"contracts/libraries/LibERC721.sol\":8616:8636  layout().ownedTokens */\n      0x07\n      swap2\n      swap1\n      swap2\n      add\n        /* \"contracts/libraries/LibERC721.sol\":8616:8642  layout().ownedTokens[from] */\n      0x20\n      swap1\n      dup2\n      mstore\n      0x40\n      dup1\n      dup4\n      keccak256\n        /* \"contracts/libraries/LibERC721.sol\":8616:8658  layout().ownedTokens[from][lastTokenIndex] */\n      dup7\n      dup5\n      mstore\n      swap1\n      swap2\n      mstore\n      swap1\n      keccak256\n      sload\n      swap1\n      pop\n      dup1\n        /* \"contracts/libraries/LibERC721.sol\":8675:8683  layout() */\n      tag_106\n        /* \"contracts/libraries/LibERC721.sol\":8675:8681  layout */\n      tag_54\n        /* \"contracts/libraries/LibERC721.sol\":8675:8683  layout() */\n      jump\t// in\n    tag_106:\n      sub(shl(0xa0, 0x01), 0x01)\n        /* \"contracts/libraries/LibERC721.sol\":8675:8701  layout().ownedTokens[from] */\n      dup8\n      and\n      0x00\n      swap1\n      dup2\n      mstore\n        /* \"contracts/libraries/LibERC721.sol\":8675:8695  layout().ownedTokens */\n      0x07\n      swap2\n      swap1\n      swap2\n      add\n        /* \"contracts/libraries/LibERC721.sol\":8675:8701  layout().ownedTokens[from] */\n      0x20\n      swap1\n      dup2\n      mstore\n      0x40\n      dup1\n      dup4\n      keccak256\n        /* \"contracts/libraries/LibERC721.sol\":8675:8713  layout().ownedTokens[from][tokenIndex] */\n      dup7\n      dup5\n      mstore\n      swap1\n      swap2\n      mstore\n      swap1\n      keccak256\n        /* \"contracts/libraries/LibERC721.sol\":8675:8727  layout().ownedTokens[from][tokenIndex] = lastTokenId */\n      sstore\n        /* \"contracts/libraries/LibERC721.sol\":8702:8712  tokenIndex */\n      dup2\n        /* \"contracts/libraries/LibERC721.sol\":8800:8808  layout() */\n      tag_107\n        /* \"contracts/libraries/LibERC721.sol\":8800:8806  layout */\n      tag_54\n        /* \"contracts/libraries/LibERC721.sol\":8800:8808  layout() */\n      jump\t// in\n    tag_107:\n        /* \"contracts/libraries/LibERC721.sol\":8800:8838  layout().ownedTokensIndex[lastTokenId] */\n      0x00\n      swap3\n      dup4\n      mstore\n        /* \"contracts/libraries/LibERC721.sol\":8800:8825  layout().ownedTokensIndex */\n      0x08\n      add\n        /* \"contracts/libraries/LibERC721.sol\":8800:8838  layout().ownedTokensIndex[lastTokenId] */\n      0x20\n      mstore\n      0x40\n      swap1\n      swap2\n      keccak256\n        /* \"contracts/libraries/LibERC721.sol\":8800:8851  layout().ownedTokensIndex[lastTokenId] = tokenIndex */\n      sstore\n        /* \"contracts/libraries/LibERC721.sol\":8545:8897  if (tokenIndex != lastTokenIndex) {... */\n    tag_104:\n        /* \"contracts/libraries/LibERC721.sol\":8993:9001  layout() */\n      tag_108\n        /* \"contracts/libraries/LibERC721.sol\":8993:8999  layout */\n      tag_54\n        /* \"contracts/libraries/LibERC721.sol\":8993:9001  layout() */\n      jump\t// in\n    tag_108:\n        /* \"contracts/libraries/LibERC721.sol\":8993:9027  layout().ownedTokensIndex[tokenId] */\n      0x00\n      dup5\n      dup2\n      mstore\n        /* \"contracts/libraries/LibERC721.sol\":8993:9018  layout().ownedTokensIndex */\n      0x08\n      swap2\n      swap1\n      swap2\n      add\n        /* \"contracts/libraries/LibERC721.sol\":8993:9027  layout().ownedTokensIndex[tokenId] */\n      0x20\n      mstore\n      0x40\n      dup2\n      keccak256\n        /* \"contracts/libraries/LibERC721.sol\":8986:9027  delete layout().ownedTokensIndex[tokenId] */\n      sstore\n        /* \"contracts/libraries/LibERC721.sol\":9045:9053  layout() */\n      tag_109\n        /* \"contracts/libraries/LibERC721.sol\":9045:9051  layout */\n      tag_54\n        /* \"contracts/libraries/LibERC721.sol\":9045:9053  layout() */\n      jump\t// in\n    tag_109:\n      sub(shl(0xa0, 0x01), 0x01)\n        /* \"contracts/libraries/LibERC721.sol\":9045:9071  layout().ownedTokens[from] */\n      swap1\n      swap5\n      and\n      0x00\n      swap1\n      dup2\n      mstore\n        /* \"contracts/libraries/LibERC721.sol\":9045:9065  layout().ownedTokens */\n      0x07\n      swap5\n      swap1\n      swap5\n      add\n        /* \"contracts/libraries/LibERC721.sol\":9045:9071  layout().ownedTokens[from] */\n      0x20\n      swap1\n      dup2\n      mstore\n      0x40\n      dup1\n      dup7\n      keccak256\n        /* \"contracts/libraries/LibERC721.sol\":9045:9087  layout().ownedTokens[from][lastTokenIndex] */\n      swap4\n      dup7\n      mstore\n      swap3\n      swap1\n      mstore\n      pop\n      dup3\n      keccak256\n        /* \"contracts/libraries/LibERC721.sol\":9038:9087  delete layout().ownedTokens[from][lastTokenIndex] */\n      swap2\n      swap1\n      swap2\n      sstore\n      pop\n        /* \"contracts/libraries/LibERC721.sol\":8036:9095  function _removeTokenFromOwnerEnumeration(... */\n      jump\t// out\n        /* \"contracts/libraries/LibERC721.sol\":9394:10530  function _removeTokenFromAllTokensEnumeration(uint256 tokenId) internal {... */\n    tag_67:\n        /* \"contracts/libraries/LibERC721.sol\":9648:9670  uint256 lastTokenIndex */\n      0x00\n        /* \"contracts/libraries/LibERC721.sol\":9701:9702  1 */\n      0x01\n        /* \"contracts/libraries/LibERC721.sol\":9673:9681  layout() */\n      tag_111\n        /* \"contracts/libraries/LibERC721.sol\":9673:9679  layout */\n      tag_54\n        /* \"contracts/libraries/LibERC721.sol\":9673:9681  layout() */\n      jump\t// in\n    tag_111:\n        /* \"contracts/libraries/LibERC721.sol\":9673:9691  layout().allTokens */\n      0x02\n      add\n        /* \"contracts/libraries/LibERC721.sol\":9673:9698  layout().allTokens.length */\n      sload\n        /* \"contracts/libraries/LibERC721.sol\":9673:9702  layout().allTokens.length - 1 */\n      tag_112\n      swap2\n      swap1\n      tag_113\n      jump\t// in\n    tag_112:\n        /* \"contracts/libraries/LibERC721.sol\":9648:9702  uint256 lastTokenIndex = layout().allTokens.length - 1 */\n      swap1\n      pop\n        /* \"contracts/libraries/LibERC721.sol\":9713:9731  uint256 tokenIndex */\n      0x00\n        /* \"contracts/libraries/LibERC721.sol\":9734:9742  layout() */\n      tag_114\n        /* \"contracts/libraries/LibERC721.sol\":9734:9740  layout */\n      tag_54\n        /* \"contracts/libraries/LibERC721.sol\":9734:9742  layout() */\n      jump\t// in\n    tag_114:\n        /* \"contracts/libraries/LibERC721.sol\":9734:9766  layout().allTokensIndex[tokenId] */\n      0x00\n      dup5\n      dup2\n      mstore\n        /* \"contracts/libraries/LibERC721.sol\":9734:9757  layout().allTokensIndex */\n      0x09\n      swap2\n      swap1\n      swap2\n      add\n        /* \"contracts/libraries/LibERC721.sol\":9734:9766  layout().allTokensIndex[tokenId] */\n      0x20\n      mstore\n      0x40\n      dup2\n      keccak256\n      sload\n      swap2\n      pop\n        /* \"contracts/libraries/LibERC721.sol\":10115:10123  layout() */\n      tag_115\n        /* \"contracts/libraries/LibERC721.sol\":10115:10121  layout */\n      tag_54\n        /* \"contracts/libraries/LibERC721.sol\":10115:10123  layout() */\n      jump\t// in\n    tag_115:\n        /* \"contracts/libraries/LibERC721.sol\":10115:10133  layout().allTokens */\n      0x02\n      add\n        /* \"contracts/libraries/LibERC721.sol\":10134:10148  lastTokenIndex */\n      dup4\n        /* \"contracts/libraries/LibERC721.sol\":10115:10149  layout().allTokens[lastTokenIndex] */\n      dup2\n      sload\n      dup2\n      lt\n      tag_117\n      jumpi\n      tag_117\n      tag_118\n      jump\t// in\n    tag_117:\n      swap1\n      0x00\n      mstore\n      keccak256(0x00, 0x20)\n      add\n      sload\n        /* \"contracts/libraries/LibERC721.sol\":10093:10149  uint256 lastTokenId = layout().allTokens[lastTokenIndex] */\n      swap1\n      pop\n        /* \"contracts/libraries/LibERC721.sol\":10195:10206  lastTokenId */\n      dup1\n        /* \"contracts/libraries/LibERC721.sol\":10162:10170  layout() */\n      tag_120\n        /* \"contracts/libraries/LibERC721.sol\":10162:10168  layout */\n      tag_54\n        /* \"contracts/libraries/LibERC721.sol\":10162:10170  layout() */\n      jump\t// in\n    tag_120:\n        /* \"contracts/libraries/LibERC721.sol\":10162:10180  layout().allTokens */\n      0x02\n      add\n        /* \"contracts/libraries/LibERC721.sol\":10181:10191  tokenIndex */\n      dup4\n        /* \"contracts/libraries/LibERC721.sol\":10162:10192  layout().allTokens[tokenIndex] */\n      dup2\n      sload\n      dup2\n      lt\n      tag_122\n      jumpi\n      tag_122\n      tag_118\n      jump\t// in\n    tag_122:\n      0x00\n      swap2\n      dup3\n      mstore\n      0x20\n      swap1\n      swap2\n      keccak256\n      add\n        /* \"contracts/libraries/LibERC721.sol\":10162:10206  layout().allTokens[tokenIndex] = lastTokenId */\n      sstore\n        /* \"contracts/libraries/LibERC721.sol\":10314:10324  tokenIndex */\n      dup2\n        /* \"contracts/libraries/LibERC721.sol\":10275:10283  layout() */\n      tag_124\n        /* \"contracts/libraries/LibERC721.sol\":10275:10281  layout */\n      tag_54\n        /* \"contracts/libraries/LibERC721.sol\":10275:10283  layout() */\n      jump\t// in\n    tag_124:\n        /* \"contracts/libraries/LibERC721.sol\":10275:10311  layout().allTokensIndex[lastTokenId] */\n      0x00\n      dup4\n      dup2\n      mstore\n        /* \"contracts/libraries/LibERC721.sol\":10275:10298  layout().allTokensIndex */\n      0x09\n      swap2\n      swap1\n      swap2\n      add\n        /* \"contracts/libraries/LibERC721.sol\":10275:10311  layout().allTokensIndex[lastTokenId] */\n      0x20\n      mstore\n      0x40\n      swap1\n      keccak256\n        /* \"contracts/libraries/LibERC721.sol\":10275:10324  layout().allTokensIndex[lastTokenId] = tokenIndex */\n      sstore\n        /* \"contracts/libraries/LibERC721.sol\":10455:10463  layout() */\n      tag_125\n        /* \"contracts/libraries/LibERC721.sol\":10455:10461  layout */\n      tag_54\n        /* \"contracts/libraries/LibERC721.sol\":10455:10463  layout() */\n      jump\t// in\n    tag_125:\n        /* \"contracts/libraries/LibERC721.sol\":10455:10487  layout().allTokensIndex[tokenId] */\n      0x00\n      dup6\n      dup2\n      mstore\n        /* \"contracts/libraries/LibERC721.sol\":10455:10478  layout().allTokensIndex */\n      0x09\n      swap2\n      swap1\n      swap2\n      add\n        /* \"contracts/libraries/LibERC721.sol\":10455:10487  layout().allTokensIndex[tokenId] */\n      0x20\n      mstore\n      0x40\n      dup2\n      keccak256\n        /* \"contracts/libraries/LibERC721.sol\":10448:10487  delete layout().allTokensIndex[tokenId] */\n      sstore\n        /* \"contracts/libraries/LibERC721.sol\":10498:10506  layout() */\n      tag_126\n        /* \"contracts/libraries/LibERC721.sol\":10498:10504  layout */\n      tag_54\n        /* \"contracts/libraries/LibERC721.sol\":10498:10506  layout() */\n      jump\t// in\n    tag_126:\n        /* \"contracts/libraries/LibERC721.sol\":10498:10516  layout().allTokens */\n      0x02\n      add\n        /* \"contracts/libraries/LibERC721.sol\":10498:10522  layout().allTokens.pop() */\n      dup1\n      sload\n      dup1\n      tag_128\n      jumpi\n      tag_128\n      tag_129\n      jump\t// in\n    tag_128:\n      0x01\n      swap1\n      sub\n      dup2\n      dup2\n      swap1\n      0x00\n      mstore\n      keccak256(0x00, 0x20)\n      add\n      0x00\n      swap1\n      sstore\n      swap1\n      sstore\n        /* \"contracts/libraries/LibERC721.sol\":9466:10530  {... */\n      pop\n      pop\n      pop\n        /* \"contracts/libraries/LibERC721.sol\":9394:10530  function _removeTokenFromAllTokensEnumeration(uint256 tokenId) internal {... */\n      pop\n      jump\t// out\n        /* \"contracts/libraries/LibERC721.sol\":6776:7019  function _addTokenToOwnerEnumeration(address to, uint256 tokenId) internal {... */\n    tag_71:\n        /* \"contracts/libraries/LibERC721.sol\":6862:6876  uint256 length */\n      0x00\n        /* \"contracts/libraries/LibERC721.sol\":6903:6904  1 */\n      0x01\n        /* \"contracts/libraries/LibERC721.sol\":6879:6887  layout() */\n      tag_132\n        /* \"contracts/libraries/LibERC721.sol\":6879:6885  layout */\n      tag_54\n        /* \"contracts/libraries/LibERC721.sol\":6879:6887  layout() */\n      jump\t// in\n    tag_132:\n      sub(shl(0xa0, 0x01), 0x01)\n        /* \"contracts/libraries/LibERC721.sol\":6879:6900  layout().balances[to] */\n      dup6\n      and\n      0x00\n      swap1\n      dup2\n      mstore\n        /* \"contracts/libraries/LibERC721.sol\":6879:6896  layout().balances */\n      0x04\n      swap2\n      swap1\n      swap2\n      add\n        /* \"contracts/libraries/LibERC721.sol\":6879:6900  layout().balances[to] */\n      0x20\n      mstore\n      0x40\n      swap1\n      keccak256\n      sload\n        /* \"contracts/libraries/LibERC721.sol\":6879:6904  layout().balances[to] - 1 */\n      tag_133\n      swap2\n      swap1\n      tag_113\n      jump\t// in\n    tag_133:\n        /* \"contracts/libraries/LibERC721.sol\":6862:6904  uint256 length = layout().balances[to] - 1 */\n      swap1\n      pop\n        /* \"contracts/libraries/LibERC721.sol\":6950:6957  tokenId */\n      dup2\n        /* \"contracts/libraries/LibERC721.sol\":6915:6923  layout() */\n      tag_134\n        /* \"contracts/libraries/LibERC721.sol\":6915:6921  layout */\n      tag_54\n        /* \"contracts/libraries/LibERC721.sol\":6915:6923  layout() */\n      jump\t// in\n    tag_134:\n      sub(shl(0xa0, 0x01), 0x01)\n        /* \"contracts/libraries/LibERC721.sol\":6915:6939  layout().ownedTokens[to] */\n      dup6\n      and\n      0x00\n      swap1\n      dup2\n      mstore\n        /* \"contracts/libraries/LibERC721.sol\":6915:6935  layout().ownedTokens */\n      0x07\n      swap2\n      swap1\n      swap2\n      add\n        /* \"contracts/libraries/LibERC721.sol\":6915:6939  layout().ownedTokens[to] */\n      0x20\n      swap1\n      dup2\n      mstore\n      0x40\n      dup1\n      dup4\n      keccak256\n        /* \"contracts/libraries/LibERC721.sol\":6915:6947  layout().ownedTokens[to][length] */\n      dup6\n      dup5\n      mstore\n      swap1\n      swap2\n      mstore\n      swap1\n      keccak256\n        /* \"contracts/libraries/LibERC721.sol\":6915:6957  layout().ownedTokens[to][length] = tokenId */\n      sstore\n        /* \"contracts/libraries/LibERC721.sol\":6940:6946  length */\n      dup1\n        /* \"contracts/libraries/LibERC721.sol\":6968:6976  layout() */\n      tag_135\n        /* \"contracts/libraries/LibERC721.sol\":6968:6974  layout */\n      tag_54\n        /* \"contracts/libraries/LibERC721.sol\":6968:6976  layout() */\n      jump\t// in\n    tag_135:\n        /* \"contracts/libraries/LibERC721.sol\":6968:7002  layout().ownedTokensIndex[tokenId] */\n      0x00\n      swap4\n      dup5\n      mstore\n        /* \"contracts/libraries/LibERC721.sol\":6968:6993  layout().ownedTokensIndex */\n      0x08\n      add\n        /* \"contracts/libraries/LibERC721.sol\":6968:7002  layout().ownedTokensIndex[tokenId] */\n      0x20\n      mstore\n      0x40\n      swap1\n      swap3\n      keccak256\n        /* \"contracts/libraries/LibERC721.sol\":6968:7011  layout().ownedTokensIndex[tokenId] = length */\n      swap2\n      swap1\n      swap2\n      sstore\n      pop\n      pop\n        /* \"contracts/libraries/LibERC721.sol\":6776:7019  function _addTokenToOwnerEnumeration(address to, uint256 tokenId) internal {... */\n      jump\t// out\n        /* \"contracts/libraries/LibERC721.sol\":2299:2645  function _isAuthorized(... */\n    tag_76:\n        /* \"contracts/libraries/LibERC721.sol\":2428:2432  bool */\n      0x00\n      sub(shl(0xa0, 0x01), 0x01)\n        /* \"contracts/libraries/LibERC721.sol\":2465:2486  spender != address(0) */\n      dup4\n      and\n      iszero\n      dup1\n      iszero\n      swap1\n        /* \"contracts/libraries/LibERC721.sol\":2465:2637  spender != address(0) &&... */\n      tag_70\n      jumpi\n      pop\n        /* \"contracts/libraries/LibERC721.sol\":2513:2520  spender */\n      dup3\n      sub(shl(0xa0, 0x01), 0x01)\n        /* \"contracts/libraries/LibERC721.sol\":2504:2520  owner == spender */\n      and\n        /* \"contracts/libraries/LibERC721.sol\":2504:2509  owner */\n      dup5\n      sub(shl(0xa0, 0x01), 0x01)\n        /* \"contracts/libraries/LibERC721.sol\":2504:2520  owner == spender */\n      and\n      eq\n        /* \"contracts/libraries/LibERC721.sol\":2504:2583  owner == spender ||... */\n      dup1\n      tag_138\n      jumpi\n      pop\n        /* \"contracts/libraries/LibERC721.sol\":2541:2549  layout() */\n      tag_139\n        /* \"contracts/libraries/LibERC721.sol\":2541:2547  layout */\n      tag_54\n        /* \"contracts/libraries/LibERC721.sol\":2541:2549  layout() */\n      jump\t// in\n    tag_139:\n      sub(shl(0xa0, 0x01), 0x01)\n        /* \"contracts/libraries/LibERC721.sol\":2541:2574  layout().operatorApprovals[owner] */\n      dup1\n      dup7\n      and\n      0x00\n      swap1\n      dup2\n      mstore\n        /* \"contracts/libraries/LibERC721.sol\":2541:2567  layout().operatorApprovals */\n      0x06\n      swap3\n      swap1\n      swap3\n      add\n        /* \"contracts/libraries/LibERC721.sol\":2541:2574  layout().operatorApprovals[owner] */\n      0x20\n      swap1\n      dup2\n      mstore\n      0x40\n      dup1\n      dup5\n      keccak256\n        /* \"contracts/libraries/LibERC721.sol\":2541:2583  layout().operatorApprovals[owner][spender] */\n      swap3\n      dup8\n      and\n      dup5\n      mstore\n      swap2\n      swap1\n      mstore\n      swap1\n      keccak256\n      sload\n      0xff\n      and\n        /* \"contracts/libraries/LibERC721.sol\":2504:2583  owner == spender ||... */\n    tag_138:\n        /* \"contracts/libraries/LibERC721.sol\":2504:2636  owner == spender ||... */\n      dup1\n      tag_70\n      jumpi\n      pop\n        /* \"contracts/libraries/LibERC721.sol\":2629:2636  spender */\n      dup3\n      sub(shl(0xa0, 0x01), 0x01)\n        /* \"contracts/libraries/LibERC721.sol\":2604:2636  _getApproved(tokenId) == spender */\n      and\n        /* \"contracts/libraries/LibERC721.sol\":2604:2625  _getApproved(tokenId) */\n      tag_141\n        /* \"contracts/libraries/LibERC721.sol\":2617:2624  tokenId */\n      dup4\n        /* \"contracts/libraries/LibERC721.sol\":2604:2616  _getApproved */\n      tag_142\n        /* \"contracts/libraries/LibERC721.sol\":2604:2625  _getApproved(tokenId) */\n      jump\t// in\n    tag_141:\n      sub(shl(0xa0, 0x01), 0x01)\n        /* \"contracts/libraries/LibERC721.sol\":2604:2636  _getApproved(tokenId) == spender */\n      and\n      eq\n        /* \"contracts/libraries/LibERC721.sol\":2445:2637  return... */\n      swap5\n        /* \"contracts/libraries/LibERC721.sol\":2299:2645  function _isAuthorized(... */\n      swap4\n      pop\n      pop\n      pop\n      pop\n      jump\t// out\n        /* \"contracts/libraries/LibERC721.sol\":17646:17906  function _requireOwned(uint256 tokenId) internal view returns (address) {... */\n    tag_87:\n        /* \"contracts/libraries/LibERC721.sol\":17709:17716  address */\n      0x00\n        /* \"contracts/libraries/LibERC721.sol\":17729:17742  address owner */\n      0x00\n        /* \"contracts/libraries/LibERC721.sol\":17745:17762  _ownerOf(tokenId) */\n      tag_144\n        /* \"contracts/libraries/LibERC721.sol\":17754:17761  tokenId */\n      dup4\n        /* \"contracts/libraries/LibERC721.sol\":17745:17753  _ownerOf */\n      tag_46\n        /* \"contracts/libraries/LibERC721.sol\":17745:17762  _ownerOf(tokenId) */\n      jump\t// in\n    tag_144:\n        /* \"contracts/libraries/LibERC721.sol\":17729:17762  address owner = _ownerOf(tokenId) */\n      swap1\n      pop\n      sub(shl(0xa0, 0x01), 0x01)\n        /* \"contracts/libraries/LibERC721.sol\":17777:17796  owner == address(0) */\n      dup2\n      and\n        /* \"contracts/libraries/LibERC721.sol\":17773:17876  if (owner == address(0)) {... */\n      tag_145\n      jumpi\n        /* \"contracts/libraries/LibERC721.sol\":17820:17864  ERC721Errors.ERC721NonexistentToken(tokenId) */\n      mload(0x40)\n      shl(0xe0, 0x7e273289)\n      dup2\n      mstore\n      0x04\n      dup2\n      add\n        /* \"#utility.yul\":802:827   */\n      dup5\n      swap1\n      mstore\n        /* \"#utility.yul\":775:793   */\n      0x24\n      add\n        /* \"contracts/libraries/LibERC721.sol\":17820:17864  ERC721Errors.ERC721NonexistentToken(tokenId) */\n      tag_34\n        /* \"#utility.yul\":656:833   */\n      jump\n        /* \"contracts/libraries/LibERC721.sol\":17773:17876  if (owner == address(0)) {... */\n    tag_145:\n        /* \"contracts/libraries/LibERC721.sol\":17893:17898  owner */\n      swap3\n        /* \"contracts/libraries/LibERC721.sol\":17646:17906  function _requireOwned(uint256 tokenId) internal view returns (address) {... */\n      swap2\n      pop\n      pop\n      jump\t// out\n        /* \"contracts/libraries/LibERC721.sol\":1850:1979  function _getApproved(uint256 tokenId) internal view returns (address) {... */\n    tag_142:\n        /* \"contracts/libraries/LibERC721.sol\":1912:1919  address */\n      0x00\n        /* \"contracts/libraries/LibERC721.sol\":1939:1947  layout() */\n      tag_148\n        /* \"contracts/libraries/LibERC721.sol\":1939:1945  layout */\n      tag_54\n        /* \"contracts/libraries/LibERC721.sol\":1939:1947  layout() */\n      jump\t// in\n    tag_148:\n        /* \"contracts/libraries/LibERC721.sol\":1939:1971  layout().tokenApprovals[tokenId] */\n      0x00\n      swap3\n      dup4\n      mstore\n        /* \"contracts/libraries/LibERC721.sol\":1939:1962  layout().tokenApprovals */\n      0x05\n      add\n        /* \"contracts/libraries/LibERC721.sol\":1939:1971  layout().tokenApprovals[tokenId] */\n      0x20\n      mstore\n      pop\n      0x40\n      swap1\n      keccak256\n      sload\n      sub(shl(0xa0, 0x01), 0x01)\n      and\n      swap1\n        /* \"contracts/libraries/LibERC721.sol\":1850:1979  function _getApproved(uint256 tokenId) internal view returns (address) {... */\n      jump\t// out\n        /* \"#utility.yul\":14:420   */\n    tag_8:\n        /* \"#utility.yul\":82:88   */\n      0x00\n        /* \"#utility.yul\":90:96   */\n      0x00\n        /* \"#utility.yul\":143:145   */\n      0x40\n        /* \"#utility.yul\":131:140   */\n      dup4\n        /* \"#utility.yul\":122:129   */\n      dup6\n        /* \"#utility.yul\":118:141   */\n      sub\n        /* \"#utility.yul\":114:146   */\n      slt\n        /* \"#utility.yul\":111:163   */\n      iszero\n      tag_151\n      jumpi\n        /* \"#utility.yul\":159:160   */\n      0x00\n        /* \"#utility.yul\":156:157   */\n      0x00\n        /* \"#utility.yul\":149:161   */\n      revert\n        /* \"#utility.yul\":111:163   */\n    tag_151:\n        /* \"#utility.yul\":185:208   */\n      dup3\n      calldataload\n      sub(shl(0xa0, 0x01), 0x01)\n        /* \"#utility.yul\":237:268   */\n      dup2\n      and\n        /* \"#utility.yul\":227:269   */\n      dup2\n      eq\n        /* \"#utility.yul\":217:287   */\n      tag_152\n      jumpi\n        /* \"#utility.yul\":283:284   */\n      0x00\n        /* \"#utility.yul\":280:281   */\n      0x00\n        /* \"#utility.yul\":273:285   */\n      revert\n        /* \"#utility.yul\":217:287   */\n    tag_152:\n        /* \"#utility.yul\":306:311   */\n      swap5\n        /* \"#utility.yul\":384:386   */\n      0x20\n        /* \"#utility.yul\":369:387   */\n      swap4\n      swap1\n      swap4\n      add\n        /* \"#utility.yul\":356:388   */\n      calldataload\n      swap4\n      pop\n      pop\n      pop\n        /* \"#utility.yul\":14:420   */\n      jump\t// out\n        /* \"#utility.yul\":425:651   */\n    tag_13:\n        /* \"#utility.yul\":484:490   */\n      0x00\n        /* \"#utility.yul\":537:539   */\n      0x20\n        /* \"#utility.yul\":525:534   */\n      dup3\n        /* \"#utility.yul\":516:523   */\n      dup5\n        /* \"#utility.yul\":512:535   */\n      sub\n        /* \"#utility.yul\":508:540   */\n      slt\n        /* \"#utility.yul\":505:557   */\n      iszero\n      tag_154\n      jumpi\n        /* \"#utility.yul\":553:554   */\n      0x00\n        /* \"#utility.yul\":550:551   */\n      0x00\n        /* \"#utility.yul\":543:555   */\n      revert\n        /* \"#utility.yul\":505:557   */\n    tag_154:\n      pop\n        /* \"#utility.yul\":598:621   */\n      calldataload\n      swap2\n        /* \"#utility.yul\":425:651   */\n      swap1\n      pop\n      jump\t// out\n        /* \"#utility.yul\":1325:1550   */\n    tag_113:\n        /* \"#utility.yul\":1392:1401   */\n      dup2\n      dup2\n      sub\n        /* \"#utility.yul\":1413:1424   */\n      dup2\n      dup2\n      gt\n        /* \"#utility.yul\":1410:1544   */\n      iszero\n      tag_145\n      jumpi\n        /* \"#utility.yul\":1466:1476   */\n      0x4e487b71\n        /* \"#utility.yul\":1461:1464   */\n      0xe0\n        /* \"#utility.yul\":1457:1477   */\n      shl\n        /* \"#utility.yul\":1454:1455   */\n      0x00\n        /* \"#utility.yul\":1447:1478   */\n      mstore\n        /* \"#utility.yul\":1501:1505   */\n      0x11\n        /* \"#utility.yul\":1498:1499   */\n      0x04\n        /* \"#utility.yul\":1491:1506   */\n      mstore\n        /* \"#utility.yul\":1529:1533   */\n      0x24\n        /* \"#utility.yul\":1526:1527   */\n      0x00\n        /* \"#utility.yul\":1519:1534   */\n      revert\n        /* \"#utility.yul\":1555:1682   */\n    tag_118:\n        /* \"#utility.yul\":1616:1626   */\n      0x4e487b71\n        /* \"#utility.yul\":1611:1614   */\n      0xe0\n        /* \"#utility.yul\":1607:1627   */\n      shl\n        /* \"#utility.yul\":1604:1605   */\n      0x00\n        /* \"#utility.yul\":1597:1628   */\n      mstore\n        /* \"#utility.yul\":1647:1651   */\n      0x32\n        /* \"#utility.yul\":1644:1645   */\n      0x04\n        /* \"#utility.yul\":1637:1652   */\n      mstore\n        /* \"#utility.yul\":1671:1675   */\n      0x24\n        /* \"#utility.yul\":1668:1669   */\n      0x00\n        /* \"#utility.yul\":1661:1676   */\n      revert\n        /* \"#utility.yul\":1687:1814   */\n    tag_129:\n        /* \"#utility.yul\":1748:1758   */\n      0x4e487b71\n        /* \"#utility.yul\":1743:1746   */\n      0xe0\n        /* \"#utility.yul\":1739:1759   */\n      shl\n        /* \"#utility.yul\":1736:1737   */\n      0x00\n        /* \"#utility.yul\":1729:1760   */\n      mstore\n        /* \"#utility.yul\":1779:1783   */\n      0x31\n        /* \"#utility.yul\":1776:1777   */\n      0x04\n        /* \"#utility.yul\":1769:1784   */\n      mstore\n        /* \"#utility.yul\":1803:1807   */\n      0x24\n        /* \"#utility.yul\":1800:1801   */\n      0x00\n        /* \"#utility.yul\":1793:1808   */\n      revert\n\n    auxdata: 0xa264697066735822122044970c2beef576ce75e1369d601c7c88e1437d7020be77fc793beebc682190df64736f6c634300081b0033\n}\n",
				"bytecode": {
					"linkReferences": {},
					"object": "6080604052348015600e575f5ffd5b5061095a8061001c5f395ff3fe60806040526004361061003e575f3560e01c806340c10f191461004257806342966c6814610057578063722713f714610076578063a144819414610042575b5f5ffd5b610055610050366004610891565b610095565b005b348015610062575f5ffd5b506100556100713660046108c6565b6100a3565b348015610081575f5ffd5b504760405190815260200160405180910390f35b61009f82826100af565b5050565b6100ac8161011a565b50565b6001600160a01b0382166100dd57604051633250574960e11b81525f60048201526024015b60405180910390fd5b5f6100e983835f610152565b90506001600160a01b03811615610115576040516339e3563760e11b81525f60048201526024016100d4565b505050565b5f6101265f835f610152565b90506001600160a01b03811661009f57604051637e27328960e01b8152600481018390526024016100d4565b5f5f61015d846102e8565b90506001600160a01b038316156101795761017981848661030d565b6001600160a01b038116156101c2576101945f855f5f610371565b600161019e6104ac565b6001600160a01b0383165f9081526004919091016020526040902080549190910390555b6001600160a01b038516156101fe5760016101db6104ac565b6001600160a01b0387165f90815260049190910160205260409020805490910190555b846102076104ac565b5f868152600391909101602052604080822080546001600160a01b0319166001600160a01b0394851617905551869288811692908516917fddf252ad1be2c89b69c2b068fc378daa952ba7f163c4a11628f55a4df523b3ef9190a46001600160a01b03811661027e57610279846104d0565b6102a1565b846001600160a01b0316816001600160a01b0316146102a1576102a18185610516565b6001600160a01b0385166102bd576102b88461062d565b6102e0565b846001600160a01b0316816001600160a01b0316146102e0576102e0858561071c565b949350505050565b5f6102f16104ac565b5f9283526003016020525060409020546001600160a01b031690565b61031883838361079f565b610115576001600160a01b03831661034657604051637e27328960e01b8152600481018290526024016100d4565b60405163177e802f60e01b81526001600160a01b0383166004820152602481018290526044016100d4565b808061038557506001600160a01b03821615155b15610471575f6103948461082f565b90506001600160a01b038316158015906103c05750826001600160a01b0316816001600160a01b031614155b80156103fe57506103cf6104ac565b6001600160a01b038083165f90815260069290920160209081526040808420928716845291905290205460ff16155b156104275760405163a9fbf51f60e01b81526001600160a01b03841660048201526024016100d4565b811561046f5783856001600160a01b0316826001600160a01b03167f8c5be1e5ebec7d5bd14f71427d1e84f3dd0314c0f7b2291e5b200ac8c7c3b92560405160405180910390a45b505b8361047a6104ac565b5f948552600501602052604090932080546001600160a01b0319166001600160a01b0390941693909317909255505050565b7ff2dec0acaef95de6625646379d631adff4db9f6c79b84a31adcb9a23bf6cea7890565b6104d86104ac565b600201546104e46104ac565b5f83815260099190910160205260409020556104fe6104ac565b60020180546001810182555f91825260209091200155565b5f61051f6104ac565b6001600160a01b0384165f908152600491909101602052604081205491506105456104ac565b5f848152600891909101602052604090205490508181146105dc575f6105696104ac565b6001600160a01b0386165f9081526007919091016020908152604080832086845290915290205490508061059b6104ac565b6001600160a01b0387165f90815260079190910160209081526040808320868452909152902055816105cb6104ac565b5f9283526008016020526040909120555b6105e46104ac565b5f84815260089190910160205260408120556105fe6104ac565b6001600160a01b039094165f908152600794909401602090815260408086209386529290525082209190915550565b5f60016106386104ac565b6002015461064691906108dd565b90505f6106516104ac565b5f8481526009919091016020526040812054915061066d6104ac565b6002018381548110610681576106816108fc565b905f5260205f2001549050806106956104ac565b60020183815481106106a9576106a96108fc565b5f91825260209091200155816106bd6104ac565b5f83815260099190910160205260409020556106d76104ac565b5f85815260099190910160205260408120556106f16104ac565b60020180548061070357610703610910565b600190038181905f5260205f20015f9055905550505050565b5f60016107276104ac565b6001600160a01b0385165f908152600491909101602052604090205461074d91906108dd565b9050816107586104ac565b6001600160a01b0385165f90815260079190910160209081526040808320858452909152902055806107886104ac565b5f9384526008016020526040909220919091555050565b5f6001600160a01b038316158015906102e05750826001600160a01b0316846001600160a01b0316148061080457506107d66104ac565b6001600160a01b038086165f90815260069290920160209081526040808420928716845291905290205460ff165b806102e05750826001600160a01b031661081d8361086c565b6001600160a01b031614949350505050565b5f5f61083a836102e8565b90506001600160a01b03811661086657604051637e27328960e01b8152600481018490526024016100d4565b92915050565b5f6108756104ac565b5f9283526005016020525060409020546001600160a01b031690565b5f5f604083850312156108a2575f5ffd5b82356001600160a01b03811681146108b8575f5ffd5b946020939093013593505050565b5f602082840312156108d6575f5ffd5b5035919050565b8181038181111561086657634e487b7160e01b5f52601160045260245ffd5b634e487b7160e01b5f52603260045260245ffd5b634e487b7160e01b5f52603160045260245ffdfea264697066735822122044970c2beef576ce75e1369d601c7c88e1437d7020be77fc793beebc682190df64736f6c634300081b0033",
					"opcodes": "PUSH1 0x80 PUSH1 0x40 MSTORE CALLVALUE DUP1 ISZERO PUSH1 0xE JUMPI PUSH0 PUSH0 REVERT JUMPDEST POP PUSH2 0x95A DUP1 PUSH2 0x1C PUSH0 CODECOPY PUSH0 RETURN INVALID PUSH1 0x80 PUSH1 0x40 MSTORE PUSH1 0x4 CALLDATASIZE LT PUSH2 0x3E JUMPI PUSH0 CALLDATALOAD PUSH1 0xE0 SHR DUP1 PUSH4 0x40C10F19 EQ PUSH2 0x42 JUMPI DUP1 PUSH4 0x42966C68 EQ PUSH2 0x57 JUMPI DUP1 PUSH4 0x722713F7 EQ PUSH2 0x76 JUMPI DUP1 PUSH4 0xA1448194 EQ PUSH2 0x42 JUMPI JUMPDEST PUSH0 PUSH0 REVERT JUMPDEST PUSH2 0x55 PUSH2 0x50 CALLDATASIZE PUSH1 0x4 PUSH2 0x891 JUMP JUMPDEST PUSH2 0x95 JUMP JUMPDEST STOP JUMPDEST CALLVALUE DUP1 ISZERO PUSH2 0x62 JUMPI PUSH0 PUSH0 REVERT JUMPDEST POP PUSH2 0x55 PUSH2 0x71 CALLDATASIZE PUSH1 0x4 PUSH2 0x8C6 JUMP JUMPDEST PUSH2 0xA3 JUMP JUMPDEST CALLVALUE DUP1 ISZERO PUSH2 0x81 JUMPI PUSH0 PUSH0 REVERT JUMPDEST POP SELFBALANCE PUSH1 0x40 MLOAD SWAP1 DUP2 MSTORE PUSH1 0x20 ADD PUSH1 0x40 MLOAD DUP1 SWAP2 SUB SWAP1 RETURN JUMPDEST PUSH2 0x9F DUP3 DUP3 PUSH2 0xAF JUMP JUMPDEST POP POP JUMP JUMPDEST PUSH2 0xAC DUP2 PUSH2 0x11A JUMP JUMPDEST POP JUMP JUMPDEST PUSH1 0x1 PUSH1 0x1 PUSH1 0xA0 SHL SUB DUP3 AND PUSH2 0xDD JUMPI PUSH1 0x40 MLOAD PUSH4 0x32505749 PUSH1 0xE1 SHL DUP2 MSTORE PUSH0 PUSH1 0x4 DUP3 ADD MSTORE PUSH1 0x24 ADD JUMPDEST PUSH1 0x40 MLOAD DUP1 SWAP2 SUB SWAP1 REVERT JUMPDEST PUSH0 PUSH2 0xE9 DUP4 DUP4 PUSH0 PUSH2 0x152 JUMP JUMPDEST SWAP1 POP PUSH1 0x1 PUSH1 0x1 PUSH1 0xA0 SHL SUB DUP2 AND ISZERO PUSH2 0x115 JUMPI PUSH1 0x40 MLOAD PUSH4 0x39E35637 PUSH1 0xE1 SHL DUP2 MSTORE PUSH0 PUSH1 0x4 DUP3 ADD MSTORE PUSH1 0x24 ADD PUSH2 0xD4 JUMP JUMPDEST POP POP POP JUMP JUMPDEST PUSH0 PUSH2 0x126 PUSH0 DUP4 PUSH0 PUSH2 0x152 JUMP JUMPDEST SWAP1 POP PUSH1 0x1 PUSH1 0x1 PUSH1 0xA0 SHL SUB DUP2 AND PUSH2 0x9F JUMPI PUSH1 0x40 MLOAD PUSH4 0x7E273289 PUSH1 0xE0 SHL DUP2 MSTORE PUSH1 0x4 DUP2 ADD DUP4 SWAP1 MSTORE PUSH1 0x24 ADD PUSH2 0xD4 JUMP JUMPDEST PUSH0 PUSH0 PUSH2 0x15D DUP5 PUSH2 0x2E8 JUMP JUMPDEST SWAP1 POP PUSH1 0x1 PUSH1 0x1 PUSH1 0xA0 SHL SUB DUP4 AND ISZERO PUSH2 0x179 JUMPI PUSH2 0x179 DUP2 DUP5 DUP7 PUSH2 0x30D JUMP JUMPDEST PUSH1 0x1 PUSH1 0x1 PUSH1 0xA0 SHL SUB DUP2 AND ISZERO PUSH2 0x1C2 JUMPI PUSH2 0x194 PUSH0 DUP6 PUSH0 PUSH0 PUSH2 0x371 JUMP JUMPDEST PUSH1 0x1 PUSH2 0x19E PUSH2 0x4AC JUMP JUMPDEST PUSH1 0x1 PUSH1 0x1 PUSH1 0xA0 SHL SUB DUP4 AND PUSH0 SWAP1 DUP2 MSTORE PUSH1 0x4 SWAP2 SWAP1 SWAP2 ADD PUSH1 0x20 MSTORE PUSH1 0x40 SWAP1 KECCAK256 DUP1 SLOAD SWAP2 SWAP1 SWAP2 SUB SWAP1 SSTORE JUMPDEST PUSH1 0x1 PUSH1 0x1 PUSH1 0xA0 SHL SUB DUP6 AND ISZERO PUSH2 0x1FE JUMPI PUSH1 0x1 PUSH2 0x1DB PUSH2 0x4AC JUMP JUMPDEST PUSH1 0x1 PUSH1 0x1 PUSH1 0xA0 SHL SUB DUP8 AND PUSH0 SWAP1 DUP2 MSTORE PUSH1 0x4 SWAP2 SWAP1 SWAP2 ADD PUSH1 0x20 MSTORE PUSH1 0x40 SWAP1 KECCAK256 DUP1 SLOAD SWAP1 SWAP2 ADD SWAP1 SSTORE JUMPDEST DUP5 PUSH2 0x207 PUSH2 0x4AC JUMP JUMPDEST PUSH0 DUP7 DUP2 MSTORE PUSH1 0x3 SWAP2 SWAP1 SWAP2 ADD PUSH1 0x20 MSTORE PUSH1 0x40 DUP1 DUP3 KECCAK256 DUP1 SLOAD PUSH1 0x1 PUSH1 0x1 PUSH1 0xA0 SHL SUB NOT AND PUSH1 0x1 PUSH1 0x1 PUSH1 0xA0 SHL SUB SWAP5 DUP6 AND OR SWAP1 SSTORE MLOAD DUP7 SWAP3 DUP9 DUP2 AND SWAP3 SWAP1 DUP6 AND SWAP2 PUSH32 0xDDF252AD1BE2C89B69C2B068FC378DAA952BA7F163C4A11628F55A4DF523B3EF SWAP2 SWAP1 LOG4 PUSH1 0x1 PUSH1 0x1 PUSH1 0xA0 SHL SUB DUP2 AND PUSH2 0x27E JUMPI PUSH2 0x279 DUP5 PUSH2 0x4D0 JUMP JUMPDEST PUSH2 0x2A1 JUMP JUMPDEST DUP5 PUSH1 0x1 PUSH1 0x1 PUSH1 0xA0 SHL SUB AND DUP2 PUSH1 0x1 PUSH1 0x1 PUSH1 0xA0 SHL SUB AND EQ PUSH2 0x2A1 JUMPI PUSH2 0x2A1 DUP2 DUP6 PUSH2 0x516 JUMP JUMPDEST PUSH1 0x1 PUSH1 0x1 PUSH1 0xA0 SHL SUB DUP6 AND PUSH2 0x2BD JUMPI PUSH2 0x2B8 DUP5 PUSH2 0x62D JUMP JUMPDEST PUSH2 0x2E0 JUMP JUMPDEST DUP5 PUSH1 0x1 PUSH1 0x1 PUSH1 0xA0 SHL SUB AND DUP2 PUSH1 0x1 PUSH1 0x1 PUSH1 0xA0 SHL SUB AND EQ PUSH2 0x2E0 JUMPI PUSH2 0x2E0 DUP6 DUP6 PUSH2 0x71C JUMP JUMPDEST SWAP5 SWAP4 POP POP POP POP JUMP JUMPDEST PUSH0 PUSH2 0x2F1 PUSH2 0x4AC JUMP JUMPDEST PUSH0 SWAP3 DUP4 MSTORE PUSH1 0x3 ADD PUSH1 0x20 MSTORE POP PUSH1 0x40 SWAP1 KECCAK256 SLOAD PUSH1 0x1 PUSH1 0x1 PUSH1 0xA0 SHL SUB AND SWAP1 JUMP JUMPDEST PUSH2 0x318 DUP4 DUP4 DUP4 PUSH2 0x79F JUMP JUMPDEST PUSH2 0x115 JUMPI PUSH1 0x1 PUSH1 0x1 PUSH1 0xA0 SHL SUB DUP4 AND PUSH2 0x346 JUMPI PUSH1 0x40 MLOAD PUSH4 0x7E273289 PUSH1 0xE0 SHL DUP2 MSTORE PUSH1 0x4 DUP2 ADD DUP3 SWAP1 MSTORE PUSH1 0x24 ADD PUSH2 0xD4 JUMP JUMPDEST PUSH1 0x40 MLOAD PUSH4 0x177E802F PUSH1 0xE0 SHL DUP2 MSTORE PUSH1 0x1 PUSH1 0x1 PUSH1 0xA0 SHL SUB DUP4 AND PUSH1 0x4 DUP3 ADD MSTORE PUSH1 0x24 DUP2 ADD DUP3 SWAP1 MSTORE PUSH1 0x44 ADD PUSH2 0xD4 JUMP JUMPDEST DUP1 DUP1 PUSH2 0x385 JUMPI POP PUSH1 0x1 PUSH1 0x1 PUSH1 0xA0 SHL SUB DUP3 AND ISZERO ISZERO JUMPDEST ISZERO PUSH2 0x471 JUMPI PUSH0 PUSH2 0x394 DUP5 PUSH2 0x82F JUMP JUMPDEST SWAP1 POP PUSH1 0x1 PUSH1 0x1 PUSH1 0xA0 SHL SUB DUP4 AND ISZERO DUP1 ISZERO SWAP1 PUSH2 0x3C0 JUMPI POP DUP3 PUSH1 0x1 PUSH1 0x1 PUSH1 0xA0 SHL SUB AND DUP2 PUSH1 0x1 PUSH1 0x1 PUSH1 0xA0 SHL SUB AND EQ ISZERO JUMPDEST DUP1 ISZERO PUSH2 0x3FE JUMPI POP PUSH2 0x3CF PUSH2 0x4AC JUMP JUMPDEST PUSH1 0x1 PUSH1 0x1 PUSH1 0xA0 SHL SUB DUP1 DUP4 AND PUSH0 SWAP1 DUP2 MSTORE PUSH1 0x6 SWAP3 SWAP1 SWAP3 ADD PUSH1 0x20 SWAP1 DUP2 MSTORE PUSH1 0x40 DUP1 DUP5 KECCAK256 SWAP3 DUP8 AND DUP5 MSTORE SWAP2 SWAP1 MSTORE SWAP1 KECCAK256 SLOAD PUSH1 0xFF AND ISZERO JUMPDEST ISZERO PUSH2 0x427 JUMPI PUSH1 0x40 MLOAD PUSH4 0xA9FBF51F PUSH1 0xE0 SHL DUP2 MSTORE PUSH1 0x1 PUSH1 0x1 PUSH1 0xA0 SHL SUB DUP5 AND PUSH1 0x4 DUP3 ADD MSTORE PUSH1 0x24 ADD PUSH2 0xD4 JUMP JUMPDEST DUP2 ISZERO PUSH2 0x46F JUMPI DUP4 DUP6 PUSH1 0x1 PUSH1 0x1 PUSH1 0xA0 SHL SUB AND DUP3 PUSH1 0x1 PUSH1 0x1 PUSH1 0xA0 SHL SUB AND PUSH32 0x8C5BE1E5EBEC7D5BD14F71427D1E84F3DD0314C0F7B2291E5B200AC8C7C3B925 PUSH1 0x40 MLOAD PUSH1 0x40 MLOAD DUP1 SWAP2 SUB SWAP1 LOG4 JUMPDEST POP JUMPDEST DUP4 PUSH2 0x47A PUSH2 0x4AC JUMP JUMPDEST PUSH0 SWAP5 DUP6 MSTORE PUSH1 0x5 ADD PUSH1 0x20 MSTORE PUSH1 0x40 SWAP1 SWAP4 KECCAK256 DUP1 SLOAD PUSH1 0x1 PUSH1 0x1 PUSH1 0xA0 SHL SUB NOT AND PUSH1 0x1 PUSH1 0x1 PUSH1 0xA0 SHL SUB SWAP1 SWAP5 AND SWAP4 SWAP1 SWAP4 OR SWAP1 SWAP3 SSTORE POP POP POP JUMP JUMPDEST PUSH32 0xF2DEC0ACAEF95DE6625646379D631ADFF4DB9F6C79B84A31ADCB9A23BF6CEA78 SWAP1 JUMP JUMPDEST PUSH2 0x4D8 PUSH2 0x4AC JUMP JUMPDEST PUSH1 0x2 ADD SLOAD PUSH2 0x4E4 PUSH2 0x4AC JUMP JUMPDEST PUSH0 DUP4 DUP2 MSTORE PUSH1 0x9 SWAP2 SWAP1 SWAP2 ADD PUSH1 0x20 MSTORE PUSH1 0x40 SWAP1 KECCAK256 SSTORE PUSH2 0x4FE PUSH2 0x4AC JUMP JUMPDEST PUSH1 0x2 ADD DUP1 SLOAD PUSH1 0x1 DUP2 ADD DUP3 SSTORE PUSH0 SWAP2 DUP3 MSTORE PUSH1 0x20 SWAP1 SWAP2 KECCAK256 ADD SSTORE JUMP JUMPDEST PUSH0 PUSH2 0x51F PUSH2 0x4AC JUMP JUMPDEST PUSH1 0x1 PUSH1 0x1 PUSH1 0xA0 SHL SUB DUP5 AND PUSH0 SWAP1 DUP2 MSTORE PUSH1 0x4 SWAP2 SWAP1 SWAP2 ADD PUSH1 0x20 MSTORE PUSH1 0x40 DUP2 KECCAK256 SLOAD SWAP2 POP PUSH2 0x545 PUSH2 0x4AC JUMP JUMPDEST PUSH0 DUP5 DUP2 MSTORE PUSH1 0x8 SWAP2 SWAP1 SWAP2 ADD PUSH1 0x20 MSTORE PUSH1 0x40 SWAP1 KECCAK256 SLOAD SWAP1 POP DUP2 DUP2 EQ PUSH2 0x5DC JUMPI PUSH0 PUSH2 0x569 PUSH2 0x4AC JUMP JUMPDEST PUSH1 0x1 PUSH1 0x1 PUSH1 0xA0 SHL SUB DUP7 AND PUSH0 SWAP1 DUP2 MSTORE PUSH1 0x7 SWAP2 SWAP1 SWAP2 ADD PUSH1 0x20 SWAP1 DUP2 MSTORE PUSH1 0x40 DUP1 DUP4 KECCAK256 DUP7 DUP5 MSTORE SWAP1 SWAP2 MSTORE SWAP1 KECCAK256 SLOAD SWAP1 POP DUP1 PUSH2 0x59B PUSH2 0x4AC JUMP JUMPDEST PUSH1 0x1 PUSH1 0x1 PUSH1 0xA0 SHL SUB DUP8 AND PUSH0 SWAP1 DUP2 MSTORE PUSH1 0x7 SWAP2 SWAP1 SWAP2 ADD PUSH1 0x20 SWAP1 DUP2 MSTORE PUSH1 0x40 DUP1 DUP4 KECCAK256 DUP7 DUP5 MSTORE SWAP1 SWAP2 MSTORE SWAP1 KECCAK256 SSTORE DUP2 PUSH2 0x5CB PUSH2 0x4AC JUMP JUMPDEST PUSH0 SWAP3 DUP4 MSTORE PUSH1 0x8 ADD PUSH1 0x20 MSTORE PUSH1 0x40 SWAP1 SWAP2 KECCAK256 SSTORE JUMPDEST PUSH2 0x5E4 PUSH2 0x4AC JUMP JUMPDEST PUSH0 DUP5 DUP2 MSTORE PUSH1 0x8 SWAP2 SWAP1 SWAP2 ADD PUSH1 0x20 MSTORE PUSH1 0x40 DUP2 KECCAK256 SSTORE PUSH2 0x5FE PUSH2 0x4AC JUMP JUMPDEST PUSH1 0x1 PUSH1 0x1 PUSH1 0xA0 SHL SUB SWAP1 SWAP5 AND PUSH0 SWAP1 DUP2 MSTORE PUSH1 0x7 SWAP5 SWAP1 SWAP5 ADD PUSH1 0x20 SWAP1 DUP2 MSTORE PUSH1 0x40 DUP1 DUP7 KECCAK256 SWAP4 DUP7 MSTORE SWAP3 SWAP1 MSTORE POP DUP3 KECCAK256 SWAP2 SWAP1 SWAP2 SSTORE POP JUMP JUMPDEST PUSH0 PUSH1 0x1 PUSH2 0x638 PUSH2 0x4AC JUMP JUMPDEST PUSH1 0x2 ADD SLOAD PUSH2 0x646 SWAP2 SWAP1 PUSH2 0x8DD JUMP JUMPDEST SWAP1 POP PUSH0 PUSH2 0x651 PUSH2 0x4AC JUMP JUMPDEST PUSH0 DUP5 DUP2 MSTORE PUSH1 0x9 SWAP2 SWAP1 SWAP2 ADD PUSH1 0x20 MSTORE PUSH1 0x40 DUP2 KECCAK256 SLOAD SWAP2 POP PUSH2 0x66D PUSH2 0x4AC JUMP JUMPDEST PUSH1 0x2 ADD DUP4 DUP2 SLOAD DUP2 LT PUSH2 0x681 JUMPI PUSH2 0x681 PUSH2 0x8FC JUMP JUMPDEST SWAP1 PUSH0 MSTORE PUSH1 0x20 PUSH0 KECCAK256 ADD SLOAD SWAP1 POP DUP1 PUSH2 0x695 PUSH2 0x4AC JUMP JUMPDEST PUSH1 0x2 ADD DUP4 DUP2 SLOAD DUP2 LT PUSH2 0x6A9 JUMPI PUSH2 0x6A9 PUSH2 0x8FC JUMP JUMPDEST PUSH0 SWAP2 DUP3 MSTORE PUSH1 0x20 SWAP1 SWAP2 KECCAK256 ADD SSTORE DUP2 PUSH2 0x6BD PUSH2 0x4AC JUMP JUMPDEST PUSH0 DUP4 DUP2 MSTORE PUSH1 0x9 SWAP2 SWAP1 SWAP2 ADD PUSH1 0x20 MSTORE PUSH1 0x40 SWAP1 KECCAK256 SSTORE PUSH2 0x6D7 PUSH2 0x4AC JUMP JUMPDEST PUSH0 DUP6 DUP2 MSTORE PUSH1 0x9 SWAP2 SWAP1 SWAP2 ADD PUSH1 0x20 MSTORE PUSH1 0x40 DUP2 KECCAK256 SSTORE PUSH2 0x6F1 PUSH2 0x4AC JUMP JUMPDEST PUSH1 0x2 ADD DUP1 SLOAD DUP1 PUSH2 0x703 JUMPI PUSH2 0x703 PUSH2 0x910 JUMP JUMPDEST PUSH1 0x1 SWAP1 SUB DUP2 DUP2 SWAP1 PUSH0 MSTORE PUSH1 0x20 PUSH0 KECCAK256 ADD PUSH0 SWAP1 SSTORE SWAP1 SSTORE POP POP POP POP JUMP JUMPDEST PUSH0 PUSH1 0x1 PUSH2 0x727 PUSH2 0x4AC JUMP JUMPDEST PUSH1 0x1 PUSH1 0x1 PUSH1 0xA0 SHL SUB DUP6 AND PUSH0 SWAP1 DUP2 MSTORE PUSH1 0x4 SWAP2 SWAP1 SWAP2 ADD PUSH1 0x20 MSTORE PUSH1 0x40 SWAP1 KECCAK256 SLOAD PUSH2 0x74D SWAP2 SWAP1 PUSH2 0x8DD JUMP JUMPDEST SWAP1 POP DUP2 PUSH2 0x758 PUSH2 0x4AC JUMP JUMPDEST PUSH1 0x1 PUSH1 0x1 PUSH1 0xA0 SHL SUB DUP6 AND PUSH0 SWAP1 DUP2 MSTORE PUSH1 0x7 SWAP2 SWAP1 SWAP2 ADD PUSH1 0x20 SWAP1 DUP2 MSTORE PUSH1 0x40 DUP1 DUP4 KECCAK256 DUP6 DUP5 MSTORE SWAP1 SWAP2 MSTORE SWAP1 KECCAK256 SSTORE DUP1 PUSH2 0x788 PUSH2 0x4AC JUMP JUMPDEST PUSH0 SWAP4 DUP5 MSTORE PUSH1 0x8 ADD PUSH1 0x20 MSTORE PUSH1 0x40 SWAP1 SWAP3 KECCAK256 SWAP2 SWAP1 SWAP2 SSTORE POP POP JUMP JUMPDEST PUSH0 PUSH1 0x1 PUSH1 0x1 PUSH1 0xA0 SHL SUB DUP4 AND ISZERO DUP1 ISZERO SWAP1 PUSH2 0x2E0 JUMPI POP DUP3 PUSH1 0x1 PUSH1 0x1 PUSH1 0xA0 SHL SUB AND DUP5 PUSH1 0x1 PUSH1 0x1 PUSH1 0xA0 SHL SUB AND EQ DUP1 PUSH2 0x804 JUMPI POP PUSH2 0x7D6 PUSH2 0x4AC JUMP JUMPDEST PUSH1 0x1 PUSH1 0x1 PUSH1 0xA0 SHL SUB DUP1 DUP7 AND PUSH0 SWAP1 DUP2 MSTORE PUSH1 0x6 SWAP3 SWAP1 SWAP3 ADD PUSH1 0x20 SWAP1 DUP2 MSTORE PUSH1 0x40 DUP1 DUP5 KECCAK256 SWAP3 DUP8 AND DUP5 MSTORE SWAP2 SWAP1 MSTORE SWAP1 KECCAK256 SLOAD PUSH1 0xFF AND JUMPDEST DUP1 PUSH2 0x2E0 JUMPI POP DUP3 PUSH1 0x1 PUSH1 0x1 PUSH1 0xA0 SHL SUB AND PUSH2 0x81D DUP4 PUSH2 0x86C JUMP JUMPDEST PUSH1 0x1 PUSH1 0x1 PUSH1 0xA0 SHL SUB AND EQ SWAP5 SWAP4 POP POP POP POP JUMP JUMPDEST PUSH0 PUSH0 PUSH2 0x83A DUP4 PUSH2 0x2E8 JUMP JUMPDEST SWAP1 POP PUSH1 0x1 PUSH1 0x1 PUSH1 0xA0 SHL SUB DUP2 AND PUSH2 0x866 JUMPI PUSH1 0x40 MLOAD PUSH4 0x7E273289 PUSH1 0xE0 SHL DUP2 MSTORE PUSH1 0x4 DUP2 ADD DUP5 SWAP1 MSTORE PUSH1 0x24 ADD PUSH2 0xD4 JUMP JUMPDEST SWAP3 SWAP2 POP POP JUMP JUMPDEST PUSH0 PUSH2 0x875 PUSH2 0x4AC JUMP JUMPDEST PUSH0 SWAP3 DUP4 MSTORE PUSH1 0x5 ADD PUSH1 0x20 MSTORE POP PUSH1 0x40 SWAP1 KECCAK256 SLOAD PUSH1 0x1 PUSH1 0x1 PUSH1 0xA0 SHL SUB AND SWAP1 JUMP JUMPDEST PUSH0 PUSH0 PUSH1 0x40 DUP4 DUP6 SUB SLT ISZERO PUSH2 0x8A2 JUMPI PUSH0 PUSH0 REVERT JUMPDEST DUP3 CALLDATALOAD PUSH1 0x1 PUSH1 0x1 PUSH1 0xA0 SHL SUB DUP2 AND DUP2 EQ PUSH2 0x8B8 JUMPI PUSH0 PUSH0 REVERT JUMPDEST SWAP5 PUSH1 0x20 SWAP4 SWAP1 SWAP4 ADD CALLDATALOAD SWAP4 POP POP POP JUMP JUMPDEST PUSH0 PUSH1 0x20 DUP3 DUP5 SUB SLT ISZERO PUSH2 0x8D6 JUMPI PUSH0 PUSH0 REVERT JUMPDEST POP CALLDATALOAD SWAP2 SWAP1 POP JUMP JUMPDEST DUP2 DUP2 SUB DUP2 DUP2 GT ISZERO PUSH2 0x866 JUMPI PUSH4 0x4E487B71 PUSH1 0xE0 SHL PUSH0 MSTORE PUSH1 0x11 PUSH1 0x4 MSTORE PUSH1 0x24 PUSH0 REVERT JUMPDEST PUSH4 0x4E487B71 PUSH1 0xE0 SHL PUSH0 MSTORE PUSH1 0x32 PUSH1 0x4 MSTORE PUSH1 0x24 PUSH0 REVERT JUMPDEST PUSH4 0x4E487B71 PUSH1 0xE0 SHL PUSH0 MSTORE PUSH1 0x31 PUSH1 0x4 MSTORE PUSH1 0x24 PUSH0 REVERT INVALID LOG2 PUSH5 0x6970667358 0x22 SLT KECCAK256 PREVRANDAO SWAP8 0xC 0x2B 0xEE CREATE2 PUSH23 0xCE75E1369D601C7C88E1437D7020BE77FC793BEEBC6821 SWAP1 0xDF PUSH5 0x736F6C6343 STOP ADDMOD SHL STOP CALLER "
				},
				"gasEstimates": {
					"creation": {
						"codeDepositCost": "478800",
						"executionCost": "509",
						"totalCost": "479309"
					},
					"external": {
						"balanceOf()": "191",
						"burn(uint256)": "infinite",
						"mint(address,uint256)": "infinite",
						"safeMint(address,uint256)": "infinite"
					}
				},
				"methodIdentifiers": {
					"balanceOf()": "722713f7",
					"burn(uint256)": "42966c68",
					"mint(address,uint256)": "40c10f19",
					"safeMint(address,uint256)": "a1448194"
				}
			},
			"storageLayout": {
				"storage": [],
				"types": null
			},
			"userdoc": {
				"kind": "user",
				"methods": {},
				"version": 1
			}
		}
	}
}